{"abi":[{"inputs":[{"internalType":"uint256","name":"","type":"uint256"}],"name":"allAuctions","outputs":[{"internalType":"address","name":"","type":"address"}],"stateMutability":"view","type":"function"},{"inputs":[{"internalType":"address","name":"owner","type":"address"},{"internalType":"address","name":"auction","type":"address"}],"name":"canRate","outputs":[{"internalType":"bool","name":"","type":"bool"}],"stateMutability":"view","type":"function"},{"inputs":[{"internalType":"uint256","name":"_biddingTime","type":"uint256"},{"internalType":"string","name":"_name","type":"string"}],"name":"createAuction","outputs":[{"internalType":"address","name":"createdAuction","type":"address"}],"stateMutability":"nonpayable","type":"function"},{"inputs":[],"name":"getAllAuctions","outputs":[{"internalType":"address[]","name":"","type":"address[]"}],"stateMutability":"view","type":"function"},{"inputs":[{"internalType":"address","name":"auctionAddress","type":"address"}],"name":"getAuctionDetails","outputs":[{"internalType":"address payable","name":"seller","type":"address"},{"internalType":"uint256","name":"auctionEndTime","type":"uint256"},{"internalType":"address","name":"highestBidder","type":"address"},{"internalType":"uint256","name":"highestBid","type":"uint256"},{"internalType":"string","name":"auctionName","type":"string"}],"stateMutability":"view","type":"function"},{"inputs":[],"name":"getOwners","outputs":[{"internalType":"address[]","name":"","type":"address[]"}],"stateMutability":"view","type":"function"},{"inputs":[{"internalType":"address","name":"","type":"address"},{"internalType":"address","name":"","type":"address"},{"internalType":"address","name":"","type":"address"}],"name":"hasVoted","outputs":[{"internalType":"bool","name":"","type":"bool"}],"stateMutability":"view","type":"function"},{"inputs":[{"internalType":"uint256","name":"","type":"uint256"}],"name":"owners","outputs":[{"internalType":"address","name":"","type":"address"}],"stateMutability":"view","type":"function"},{"inputs":[{"internalType":"address","name":"owner","type":"address"},{"internalType":"address","name":"auction","type":"address"},{"internalType":"uint8","name":"rate","type":"uint8"}],"name":"rate","outputs":[],"stateMutability":"nonpayable","type":"function"},{"inputs":[{"internalType":"address","name":"","type":"address"}],"name":"ratings","outputs":[{"internalType":"bool","name":"active","type":"bool"},{"internalType":"uint256","name":"ratingSum","type":"uint256"},{"internalType":"uint256","name":"numberOfRates","type":"uint256"}],"stateMutability":"view","type":"function"}],"devdoc":{"kind":"dev","methods":{},"version":1},"evm":{"assembly":"    /* \"AuctionFactory.sol\":50:2484  contract AuctionFactory {... */\n  mstore(0x40, 0x80)\n  callvalue\n  dup1\n  iszero\n  tag_1\n  jumpi\n  0x00\n  dup1\n  revert\ntag_1:\n  pop\n  dataSize(sub_0)\n  dup1\n  dataOffset(sub_0)\n  0x00\n  codecopy\n  0x00\n  return\nstop\n\nsub_0: assembly {\n        /* \"AuctionFactory.sol\":50:2484  contract AuctionFactory {... */\n      mstore(0x40, 0x80)\n      callvalue\n      dup1\n      iszero\n      tag_1\n      jumpi\n      0x00\n      dup1\n      revert\n    tag_1:\n      pop\n      jumpi(tag_2, lt(calldatasize, 0x04))\n      shr(0xe0, calldataload(0x00))\n      dup1\n      0xa0e67e2b\n      gt\n      tag_13\n      jumpi\n      dup1\n      0xa0e67e2b\n      eq\n      tag_8\n      jumpi\n      dup1\n      0xa44f83e5\n      eq\n      tag_9\n      jumpi\n      dup1\n      0xadaa1992\n      eq\n      tag_10\n      jumpi\n      dup1\n      0xcbd2bdfd\n      eq\n      tag_11\n      jumpi\n      dup1\n      0xcca56666\n      eq\n      tag_12\n      jumpi\n      jump(tag_2)\n    tag_13:\n      dup1\n      0x025e7c27\n      eq\n      tag_3\n      jumpi\n      dup1\n      0x165c5881\n      eq\n      tag_4\n      jumpi\n      dup1\n      0x7f593d9e\n      eq\n      tag_5\n      jumpi\n      dup1\n      0x977bd705\n      eq\n      tag_6\n      jumpi\n      dup1\n      0x9e01dfbb\n      eq\n      tag_7\n      jumpi\n    tag_2:\n      0x00\n      dup1\n      revert\n        /* \"AuctionFactory.sol\":184:207  address[] public owners */\n    tag_3:\n      tag_14\n      0x04\n      dup1\n      calldatasize\n      sub\n      dup2\n      add\n      swap1\n      tag_15\n      swap2\n      swap1\n      tag_16\n      jump\t// in\n    tag_15:\n      tag_17\n      jump\t// in\n    tag_14:\n      mload(0x40)\n      tag_18\n      swap2\n      swap1\n      tag_19\n      jump\t// in\n    tag_18:\n      mload(0x40)\n      dup1\n      swap2\n      sub\n      swap1\n      return\n        /* \"AuctionFactory.sol\":350:378  address[] public allAuctions */\n    tag_4:\n      tag_20\n      0x04\n      dup1\n      calldatasize\n      sub\n      dup2\n      add\n      swap1\n      tag_21\n      swap2\n      swap1\n      tag_16\n      jump\t// in\n    tag_21:\n      tag_22\n      jump\t// in\n    tag_20:\n      mload(0x40)\n      tag_23\n      swap2\n      swap1\n      tag_19\n      jump\t// in\n    tag_23:\n      mload(0x40)\n      dup1\n      swap2\n      sub\n      swap1\n      return\n        /* \"AuctionFactory.sol\":823:1323  function getAuctionDetails(address auctionAddress) public view returns (... */\n    tag_5:\n      tag_24\n      0x04\n      dup1\n      calldatasize\n      sub\n      dup2\n      add\n      swap1\n      tag_25\n      swap2\n      swap1\n      tag_26\n      jump\t// in\n    tag_25:\n      tag_27\n      jump\t// in\n    tag_24:\n      mload(0x40)\n      tag_28\n      swap6\n      swap5\n      swap4\n      swap3\n      swap2\n      swap1\n      tag_29\n      jump\t// in\n    tag_28:\n      mload(0x40)\n      dup1\n      swap2\n      sub\n      swap1\n      return\n        /* \"AuctionFactory.sol\":2082:2481  function rate(address owner, address auction, uint8 rate) public {... */\n    tag_6:\n      tag_30\n      0x04\n      dup1\n      calldatasize\n      sub\n      dup2\n      add\n      swap1\n      tag_31\n      swap2\n      swap1\n      tag_32\n      jump\t// in\n    tag_31:\n      tag_33\n      jump\t// in\n    tag_30:\n      stop\n        /* \"AuctionFactory.sol\":213:257  mapping(address => Organiser) public ratings */\n    tag_7:\n      tag_34\n      0x04\n      dup1\n      calldatasize\n      sub\n      dup2\n      add\n      swap1\n      tag_35\n      swap2\n      swap1\n      tag_26\n      jump\t// in\n    tag_35:\n      tag_36\n      jump\t// in\n    tag_34:\n      mload(0x40)\n      tag_37\n      swap4\n      swap3\n      swap2\n      swap1\n      tag_38\n      jump\t// in\n    tag_37:\n      mload(0x40)\n      dup1\n      swap2\n      sub\n      swap1\n      return\n        /* \"AuctionFactory.sol\":1434:1523  function getOwners() public view returns(address[] memory) {... */\n    tag_8:\n      tag_39\n      tag_40\n      jump\t// in\n    tag_39:\n      mload(0x40)\n      tag_41\n      swap2\n      swap1\n      tag_42\n      jump\t// in\n    tag_41:\n      mload(0x40)\n      dup1\n      swap2\n      sub\n      swap1\n      return\n        /* \"AuctionFactory.sol\":263:343  mapping(address => mapping(address => mapping(address => bool))) public hasVoted */\n    tag_9:\n      tag_43\n      0x04\n      dup1\n      calldatasize\n      sub\n      dup2\n      add\n      swap1\n      tag_44\n      swap2\n      swap1\n      tag_45\n      jump\t// in\n    tag_44:\n      tag_46\n      jump\t// in\n    tag_43:\n      mload(0x40)\n      tag_47\n      swap2\n      swap1\n      tag_48\n      jump\t// in\n    tag_47:\n      mload(0x40)\n      dup1\n      swap2\n      sub\n      swap1\n      return\n        /* \"AuctionFactory.sol\":385:817  function createAuction(uint _biddingTime, string memory _name) public returns(address createdAuction) {... */\n    tag_10:\n      tag_49\n      0x04\n      dup1\n      calldatasize\n      sub\n      dup2\n      add\n      swap1\n      tag_50\n      swap2\n      swap1\n      tag_51\n      jump\t// in\n    tag_50:\n      tag_52\n      jump\t// in\n    tag_49:\n      mload(0x40)\n      tag_53\n      swap2\n      swap1\n      tag_19\n      jump\t// in\n    tag_53:\n      mload(0x40)\n      dup1\n      swap2\n      sub\n      swap1\n      return\n        /* \"AuctionFactory.sol\":1329:1428  function getAllAuctions() public view returns(address[] memory) {... */\n    tag_11:\n      tag_54\n      tag_55\n      jump\t// in\n    tag_54:\n      mload(0x40)\n      tag_56\n      swap2\n      swap1\n      tag_42\n      jump\t// in\n    tag_56:\n      mload(0x40)\n      dup1\n      swap2\n      sub\n      swap1\n      return\n        /* \"AuctionFactory.sol\":1529:2076  function canRate(address owner, address auction) public view returns(bool) {... */\n    tag_12:\n      tag_57\n      0x04\n      dup1\n      calldatasize\n      sub\n      dup2\n      add\n      swap1\n      tag_58\n      swap2\n      swap1\n      tag_59\n      jump\t// in\n    tag_58:\n      tag_60\n      jump\t// in\n    tag_57:\n      mload(0x40)\n      tag_61\n      swap2\n      swap1\n      tag_48\n      jump\t// in\n    tag_61:\n      mload(0x40)\n      dup1\n      swap2\n      sub\n      swap1\n      return\n        /* \"AuctionFactory.sol\":184:207  address[] public owners */\n    tag_17:\n      0x00\n      dup2\n      dup2\n      sload\n      dup2\n      lt\n      tag_62\n      jumpi\n      0x00\n      dup1\n      revert\n    tag_62:\n      swap1\n      0x00\n      mstore\n      keccak256(0x00, 0x20)\n      add\n      0x00\n      swap2\n      pop\n      sload\n      swap1\n      0x0100\n      exp\n      swap1\n      div\n      0xffffffffffffffffffffffffffffffffffffffff\n      and\n      dup2\n      jump\t// out\n        /* \"AuctionFactory.sol\":350:378  address[] public allAuctions */\n    tag_22:\n      0x03\n      dup2\n      dup2\n      sload\n      dup2\n      lt\n      tag_64\n      jumpi\n      0x00\n      dup1\n      revert\n    tag_64:\n      swap1\n      0x00\n      mstore\n      keccak256(0x00, 0x20)\n      add\n      0x00\n      swap2\n      pop\n      sload\n      swap1\n      0x0100\n      exp\n      swap1\n      div\n      0xffffffffffffffffffffffffffffffffffffffff\n      and\n      dup2\n      jump\t// out\n        /* \"AuctionFactory.sol\":823:1323  function getAuctionDetails(address auctionAddress) public view returns (... */\n    tag_27:\n        /* \"AuctionFactory.sol\":904:926  address payable seller */\n      0x00\n        /* \"AuctionFactory.sol\":936:958  uint256 auctionEndTime */\n      dup1\n        /* \"AuctionFactory.sol\":968:989  address highestBidder */\n      0x00\n        /* \"AuctionFactory.sol\":999:1017  uint256 highestBid */\n      dup1\n        /* \"AuctionFactory.sol\":1027:1052  string memory auctionName */\n      0x60\n        /* \"AuctionFactory.sol\":1069:1084  Auction auction */\n      0x00\n        /* \"AuctionFactory.sol\":1095:1109  auctionAddress */\n      dup7\n        /* \"AuctionFactory.sol\":1069:1110  Auction auction = Auction(auctionAddress) */\n      swap1\n      pop\n        /* \"AuctionFactory.sol\":1141:1148  auction */\n      dup1\n        /* \"AuctionFactory.sol\":1141:1160  auction.beneficiary */\n      0xffffffffffffffffffffffffffffffffffffffff\n      and\n      0x38af3eed\n        /* \"AuctionFactory.sol\":1141:1162  auction.beneficiary() */\n      mload(0x40)\n      dup2\n      0xffffffff\n      and\n      0xe0\n      shl\n      dup2\n      mstore\n      0x04\n      add\n      0x20\n      mload(0x40)\n      dup1\n      dup4\n      sub\n      dup2\n      dup7\n      gas\n      staticcall\n      iszero\n      dup1\n      iszero\n      tag_68\n      jumpi\n      returndatasize\n      0x00\n      dup1\n      returndatacopy\n      revert(0x00, returndatasize)\n    tag_68:\n      pop\n      pop\n      pop\n      pop\n      mload(0x40)\n      returndatasize\n      not(0x1f)\n      0x1f\n      dup3\n      add\n      and\n      dup3\n      add\n      dup1\n      0x40\n      mstore\n      pop\n      dup2\n      add\n      swap1\n      tag_69\n      swap2\n      swap1\n      tag_70\n      jump\t// in\n    tag_69:\n        /* \"AuctionFactory.sol\":1176:1183  auction */\n      dup2\n        /* \"AuctionFactory.sol\":1176:1198  auction.auctionEndTime */\n      0xffffffffffffffffffffffffffffffffffffffff\n      and\n      0x4b449cba\n        /* \"AuctionFactory.sol\":1176:1200  auction.auctionEndTime() */\n      mload(0x40)\n      dup2\n      0xffffffff\n      and\n      0xe0\n      shl\n      dup2\n      mstore\n      0x04\n      add\n      0x20\n      mload(0x40)\n      dup1\n      dup4\n      sub\n      dup2\n      dup7\n      gas\n      staticcall\n      iszero\n      dup1\n      iszero\n      tag_72\n      jumpi\n      returndatasize\n      0x00\n      dup1\n      returndatacopy\n      revert(0x00, returndatasize)\n    tag_72:\n      pop\n      pop\n      pop\n      pop\n      mload(0x40)\n      returndatasize\n      not(0x1f)\n      0x1f\n      dup3\n      add\n      and\n      dup3\n      add\n      dup1\n      0x40\n      mstore\n      pop\n      dup2\n      add\n      swap1\n      tag_73\n      swap2\n      swap1\n      tag_74\n      jump\t// in\n    tag_73:\n        /* \"AuctionFactory.sol\":1214:1221  auction */\n      dup3\n        /* \"AuctionFactory.sol\":1214:1235  auction.highestBidder */\n      0xffffffffffffffffffffffffffffffffffffffff\n      and\n      0x91f90157\n        /* \"AuctionFactory.sol\":1214:1237  auction.highestBidder() */\n      mload(0x40)\n      dup2\n      0xffffffff\n      and\n      0xe0\n      shl\n      dup2\n      mstore\n      0x04\n      add\n      0x20\n      mload(0x40)\n      dup1\n      dup4\n      sub\n      dup2\n      dup7\n      gas\n      staticcall\n      iszero\n      dup1\n      iszero\n      tag_76\n      jumpi\n      returndatasize\n      0x00\n      dup1\n      returndatacopy\n      revert(0x00, returndatasize)\n    tag_76:\n      pop\n      pop\n      pop\n      pop\n      mload(0x40)\n      returndatasize\n      not(0x1f)\n      0x1f\n      dup3\n      add\n      and\n      dup3\n      add\n      dup1\n      0x40\n      mstore\n      pop\n      dup2\n      add\n      swap1\n      tag_77\n      swap2\n      swap1\n      tag_78\n      jump\t// in\n    tag_77:\n        /* \"AuctionFactory.sol\":1251:1258  auction */\n      dup4\n        /* \"AuctionFactory.sol\":1251:1269  auction.highestBid */\n      0xffffffffffffffffffffffffffffffffffffffff\n      and\n      0xd57bde79\n        /* \"AuctionFactory.sol\":1251:1271  auction.highestBid() */\n      mload(0x40)\n      dup2\n      0xffffffff\n      and\n      0xe0\n      shl\n      dup2\n      mstore\n      0x04\n      add\n      0x20\n      mload(0x40)\n      dup1\n      dup4\n      sub\n      dup2\n      dup7\n      gas\n      staticcall\n      iszero\n      dup1\n      iszero\n      tag_80\n      jumpi\n      returndatasize\n      0x00\n      dup1\n      returndatacopy\n      revert(0x00, returndatasize)\n    tag_80:\n      pop\n      pop\n      pop\n      pop\n      mload(0x40)\n      returndatasize\n      not(0x1f)\n      0x1f\n      dup3\n      add\n      and\n      dup3\n      add\n      dup1\n      0x40\n      mstore\n      pop\n      dup2\n      add\n      swap1\n      tag_81\n      swap2\n      swap1\n      tag_74\n      jump\t// in\n    tag_81:\n        /* \"AuctionFactory.sol\":1285:1292  auction */\n      dup5\n        /* \"AuctionFactory.sol\":1285:1304  auction.auctionName */\n      0xffffffffffffffffffffffffffffffffffffffff\n      and\n      0xc63d99db\n        /* \"AuctionFactory.sol\":1285:1306  auction.auctionName() */\n      mload(0x40)\n      dup2\n      0xffffffff\n      and\n      0xe0\n      shl\n      dup2\n      mstore\n      0x04\n      add\n      0x00\n      mload(0x40)\n      dup1\n      dup4\n      sub\n      dup2\n      dup7\n      gas\n      staticcall\n      iszero\n      dup1\n      iszero\n      tag_83\n      jumpi\n      returndatasize\n      0x00\n      dup1\n      returndatacopy\n      revert(0x00, returndatasize)\n    tag_83:\n      pop\n      pop\n      pop\n      pop\n      mload(0x40)\n      returndatasize\n      0x00\n      dup3\n      returndatacopy\n      returndatasize\n      not(0x1f)\n      0x1f\n      dup3\n      add\n      and\n      dup3\n      add\n      dup1\n      0x40\n      mstore\n      pop\n      dup2\n      add\n      swap1\n      tag_84\n      swap2\n      swap1\n      tag_85\n      jump\t// in\n    tag_84:\n        /* \"AuctionFactory.sol\":1120:1316  return (... */\n      swap6\n      pop\n      swap6\n      pop\n      swap6\n      pop\n      swap6\n      pop\n      swap6\n      pop\n      pop\n        /* \"AuctionFactory.sol\":823:1323  function getAuctionDetails(address auctionAddress) public view returns (... */\n      swap2\n      swap4\n      swap6\n      swap1\n      swap3\n      swap5\n      pop\n      jump\t// out\n        /* \"AuctionFactory.sol\":2082:2481  function rate(address owner, address auction, uint8 rate) public {... */\n    tag_33:\n        /* \"AuctionFactory.sol\":2173:2174  5 */\n      0x05\n        /* \"AuctionFactory.sol\":2165:2169  rate */\n      dup2\n        /* \"AuctionFactory.sol\":2165:2174  rate <= 5 */\n      0xff\n      and\n      gt\n      iszero\n        /* \"AuctionFactory.sol\":2157:2207  require(rate <= 5, \"Maximum value for rate is 5.\") */\n      tag_87\n      jumpi\n      mload(0x40)\n      0x08c379a000000000000000000000000000000000000000000000000000000000\n      dup2\n      mstore\n      0x04\n      add\n      tag_88\n      swap1\n      tag_89\n      jump\t// in\n    tag_88:\n      mload(0x40)\n      dup1\n      swap2\n      sub\n      swap1\n      revert\n    tag_87:\n        /* \"AuctionFactory.sol\":2232:2233  0 */\n      0x00\n        /* \"AuctionFactory.sol\":2225:2229  rate */\n      dup2\n        /* \"AuctionFactory.sol\":2225:2233  rate > 0 */\n      0xff\n      and\n      gt\n        /* \"AuctionFactory.sol\":2217:2266  require(rate > 0, \"Minimum value for rate is 1.\") */\n      tag_90\n      jumpi\n      mload(0x40)\n      0x08c379a000000000000000000000000000000000000000000000000000000000\n      dup2\n      mstore\n      0x04\n      add\n      tag_91\n      swap1\n      tag_92\n      jump\t// in\n    tag_91:\n      mload(0x40)\n      dup1\n      swap2\n      sub\n      swap1\n      revert\n    tag_90:\n        /* \"AuctionFactory.sol\":2284:2307  canRate(owner, auction) */\n      tag_93\n        /* \"AuctionFactory.sol\":2292:2297  owner */\n      dup4\n        /* \"AuctionFactory.sol\":2299:2306  auction */\n      dup4\n        /* \"AuctionFactory.sol\":2284:2291  canRate */\n      tag_60\n        /* \"AuctionFactory.sol\":2284:2307  canRate(owner, auction) */\n      jump\t// in\n    tag_93:\n        /* \"AuctionFactory.sol\":2276:2339  require(canRate(owner, auction), \"You're not allowed to rate.\") */\n      tag_94\n      jumpi\n      mload(0x40)\n      0x08c379a000000000000000000000000000000000000000000000000000000000\n      dup2\n      mstore\n      0x04\n      add\n      tag_95\n      swap1\n      tag_96\n      jump\t// in\n    tag_95:\n      mload(0x40)\n      dup1\n      swap2\n      sub\n      swap1\n      revert\n    tag_94:\n        /* \"AuctionFactory.sol\":2388:2392  true */\n      0x01\n        /* \"AuctionFactory.sol\":2349:2357  hasVoted */\n      0x02\n        /* \"AuctionFactory.sol\":2349:2364  hasVoted[owner] */\n      0x00\n        /* \"AuctionFactory.sol\":2358:2363  owner */\n      dup6\n        /* \"AuctionFactory.sol\":2349:2364  hasVoted[owner] */\n      0xffffffffffffffffffffffffffffffffffffffff\n      and\n      0xffffffffffffffffffffffffffffffffffffffff\n      and\n      dup2\n      mstore\n      0x20\n      add\n      swap1\n      dup2\n      mstore\n      0x20\n      add\n      0x00\n      keccak256\n        /* \"AuctionFactory.sol\":2349:2373  hasVoted[owner][auction] */\n      0x00\n        /* \"AuctionFactory.sol\":2365:2372  auction */\n      dup5\n        /* \"AuctionFactory.sol\":2349:2373  hasVoted[owner][auction] */\n      0xffffffffffffffffffffffffffffffffffffffff\n      and\n      0xffffffffffffffffffffffffffffffffffffffff\n      and\n      dup2\n      mstore\n      0x20\n      add\n      swap1\n      dup2\n      mstore\n      0x20\n      add\n      0x00\n      keccak256\n        /* \"AuctionFactory.sol\":2349:2385  hasVoted[owner][auction][msg.sender] */\n      0x00\n        /* \"AuctionFactory.sol\":2374:2384  msg.sender */\n      caller\n        /* \"AuctionFactory.sol\":2349:2385  hasVoted[owner][auction][msg.sender] */\n      0xffffffffffffffffffffffffffffffffffffffff\n      and\n      0xffffffffffffffffffffffffffffffffffffffff\n      and\n      dup2\n      mstore\n      0x20\n      add\n      swap1\n      dup2\n      mstore\n      0x20\n      add\n      0x00\n      keccak256\n      0x00\n        /* \"AuctionFactory.sol\":2349:2392  hasVoted[owner][auction][msg.sender] = true */\n      0x0100\n      exp\n      dup2\n      sload\n      dup2\n      0xff\n      mul\n      not\n      and\n      swap1\n      dup4\n      iszero\n      iszero\n      mul\n      or\n      swap1\n      sstore\n      pop\n        /* \"AuctionFactory.sol\":2430:2434  rate */\n      dup1\n        /* \"AuctionFactory.sol\":2402:2434  ratings[owner].ratingSum += rate */\n      0xff\n      and\n        /* \"AuctionFactory.sol\":2402:2409  ratings */\n      0x01\n        /* \"AuctionFactory.sol\":2402:2416  ratings[owner] */\n      0x00\n        /* \"AuctionFactory.sol\":2410:2415  owner */\n      dup6\n        /* \"AuctionFactory.sol\":2402:2416  ratings[owner] */\n      0xffffffffffffffffffffffffffffffffffffffff\n      and\n      0xffffffffffffffffffffffffffffffffffffffff\n      and\n      dup2\n      mstore\n      0x20\n      add\n      swap1\n      dup2\n      mstore\n      0x20\n      add\n      0x00\n      keccak256\n        /* \"AuctionFactory.sol\":2402:2426  ratings[owner].ratingSum */\n      0x01\n      add\n      0x00\n        /* \"AuctionFactory.sol\":2402:2434  ratings[owner].ratingSum += rate */\n      dup3\n      dup3\n      sload\n      tag_97\n      swap2\n      swap1\n      tag_98\n      jump\t// in\n    tag_97:\n      swap3\n      pop\n      pop\n      dup2\n      swap1\n      sstore\n      pop\n        /* \"AuctionFactory.sol\":2444:2451  ratings */\n      0x01\n        /* \"AuctionFactory.sol\":2444:2458  ratings[owner] */\n      0x00\n        /* \"AuctionFactory.sol\":2452:2457  owner */\n      dup5\n        /* \"AuctionFactory.sol\":2444:2458  ratings[owner] */\n      0xffffffffffffffffffffffffffffffffffffffff\n      and\n      0xffffffffffffffffffffffffffffffffffffffff\n      and\n      dup2\n      mstore\n      0x20\n      add\n      swap1\n      dup2\n      mstore\n      0x20\n      add\n      0x00\n      keccak256\n        /* \"AuctionFactory.sol\":2444:2472  ratings[owner].numberOfRates */\n      0x02\n      add\n      0x00\n        /* \"AuctionFactory.sol\":2444:2474  ratings[owner].numberOfRates++ */\n      dup2\n      sload\n      dup1\n      swap3\n      swap2\n      swap1\n      tag_99\n      swap1\n      tag_100\n      jump\t// in\n    tag_99:\n      swap2\n      swap1\n      pop\n      sstore\n      pop\n        /* \"AuctionFactory.sol\":2082:2481  function rate(address owner, address auction, uint8 rate) public {... */\n      pop\n      pop\n      pop\n      jump\t// out\n        /* \"AuctionFactory.sol\":213:257  mapping(address => Organiser) public ratings */\n    tag_36:\n      mstore(0x20, 0x01)\n      dup1\n      0x00\n      mstore\n      keccak256(0x00, 0x40)\n      0x00\n      swap2\n      pop\n      swap1\n      pop\n      dup1\n      0x00\n      add\n      0x00\n      swap1\n      sload\n      swap1\n      0x0100\n      exp\n      swap1\n      div\n      0xff\n      and\n      swap1\n      dup1\n      0x01\n      add\n      sload\n      swap1\n      dup1\n      0x02\n      add\n      sload\n      swap1\n      pop\n      dup4\n      jump\t// out\n        /* \"AuctionFactory.sol\":1434:1523  function getOwners() public view returns(address[] memory) {... */\n    tag_40:\n        /* \"AuctionFactory.sol\":1475:1491  address[] memory */\n      0x60\n        /* \"AuctionFactory.sol\":1510:1516  owners */\n      0x00\n        /* \"AuctionFactory.sol\":1503:1516  return owners */\n      dup1\n      sload\n      dup1\n      0x20\n      mul\n      0x20\n      add\n      mload(0x40)\n      swap1\n      dup2\n      add\n      0x40\n      mstore\n      dup1\n      swap3\n      swap2\n      swap1\n      dup2\n      dup2\n      mstore\n      0x20\n      add\n      dup3\n      dup1\n      sload\n      dup1\n      iszero\n      tag_102\n      jumpi\n      0x20\n      mul\n      dup3\n      add\n      swap2\n      swap1\n      0x00\n      mstore\n      keccak256(0x00, 0x20)\n      swap1\n    tag_103:\n      dup2\n      0x00\n      swap1\n      sload\n      swap1\n      0x0100\n      exp\n      swap1\n      div\n      0xffffffffffffffffffffffffffffffffffffffff\n      and\n      0xffffffffffffffffffffffffffffffffffffffff\n      and\n      dup2\n      mstore\n      0x20\n      add\n      swap1\n      0x01\n      add\n      swap1\n      dup1\n      dup4\n      gt\n      tag_103\n      jumpi\n    tag_102:\n      pop\n      pop\n      pop\n      pop\n      pop\n      swap1\n      pop\n        /* \"AuctionFactory.sol\":1434:1523  function getOwners() public view returns(address[] memory) {... */\n      swap1\n      jump\t// out\n        /* \"AuctionFactory.sol\":263:343  mapping(address => mapping(address => mapping(address => bool))) public hasVoted */\n    tag_46:\n      mstore(0x20, 0x02)\n      dup3\n      0x00\n      mstore\n      mstore(0x20, keccak256(0x00, 0x40))\n      dup2\n      0x00\n      mstore\n      mstore(0x20, keccak256(0x00, 0x40))\n      dup1\n      0x00\n      mstore\n      keccak256(0x00, 0x40)\n      0x00\n      swap3\n      pop\n      swap3\n      pop\n      pop\n      swap1\n      sload\n      swap1\n      0x0100\n      exp\n      swap1\n      div\n      0xff\n      and\n      dup2\n      jump\t// out\n        /* \"AuctionFactory.sol\":385:817  function createAuction(uint _biddingTime, string memory _name) public returns(address createdAuction) {... */\n    tag_52:\n        /* \"AuctionFactory.sol\":463:485  address createdAuction */\n      0x00\n        /* \"AuctionFactory.sol\":497:521  Auction newSimpleAuction */\n      dup1\n        /* \"AuctionFactory.sol\":536:548  _biddingTime */\n      dup4\n        /* \"AuctionFactory.sol\":550:555  _name */\n      dup4\n        /* \"AuctionFactory.sol\":565:575  msg.sender */\n      caller\n        /* \"AuctionFactory.sol\":524:577  new Auction(_biddingTime, _name, payable(msg.sender)) */\n      mload(0x40)\n      tag_105\n      swap1\n      tag_106\n      jump\t// in\n    tag_105:\n      tag_107\n      swap4\n      swap3\n      swap2\n      swap1\n      tag_108\n      jump\t// in\n    tag_107:\n      mload(0x40)\n      dup1\n      swap2\n      sub\n      swap1\n      0x00\n      create\n      dup1\n      iszero\n      dup1\n      iszero\n      tag_109\n      jumpi\n      returndatasize\n      0x00\n      dup1\n      returndatacopy\n      revert(0x00, returndatasize)\n    tag_109:\n      pop\n        /* \"AuctionFactory.sol\":497:577  Auction newSimpleAuction = new Auction(_biddingTime, _name, payable(msg.sender)) */\n      swap1\n      pop\n        /* \"AuctionFactory.sol\":587:598  allAuctions */\n      0x03\n        /* \"AuctionFactory.sol\":612:628  newSimpleAuction */\n      dup2\n        /* \"AuctionFactory.sol\":587:630  allAuctions.push(address(newSimpleAuction)) */\n      swap1\n      dup1\n      0x01\n      dup2\n      sload\n      add\n      dup1\n      dup3\n      sstore\n      dup1\n      swap2\n      pop\n      pop\n      0x01\n      swap1\n      sub\n      swap1\n      0x00\n      mstore\n      keccak256(0x00, 0x20)\n      add\n      0x00\n      swap1\n      swap2\n      swap1\n      swap2\n      swap1\n      swap2\n      0x0100\n      exp\n      dup2\n      sload\n      dup2\n      0xffffffffffffffffffffffffffffffffffffffff\n      mul\n      not\n      and\n      swap1\n      dup4\n      0xffffffffffffffffffffffffffffffffffffffff\n      and\n      mul\n      or\n      swap1\n      sstore\n      pop\n        /* \"AuctionFactory.sol\":645:652  ratings */\n      0x01\n        /* \"AuctionFactory.sol\":645:664  ratings[msg.sender] */\n      0x00\n        /* \"AuctionFactory.sol\":653:663  msg.sender */\n      caller\n        /* \"AuctionFactory.sol\":645:664  ratings[msg.sender] */\n      0xffffffffffffffffffffffffffffffffffffffff\n      and\n      0xffffffffffffffffffffffffffffffffffffffff\n      and\n      dup2\n      mstore\n      0x20\n      add\n      swap1\n      dup2\n      mstore\n      0x20\n      add\n      0x00\n      keccak256\n        /* \"AuctionFactory.sol\":645:671  ratings[msg.sender].active */\n      0x00\n      add\n      0x00\n      swap1\n      sload\n      swap1\n      0x0100\n      exp\n      swap1\n      div\n      0xff\n      and\n        /* \"AuctionFactory.sol\":641:768  if(!ratings[msg.sender].active) {... */\n      tag_111\n      jumpi\n        /* \"AuctionFactory.sol\":716:720  true */\n      0x01\n        /* \"AuctionFactory.sol\":687:694  ratings */\n      dup1\n        /* \"AuctionFactory.sol\":687:706  ratings[msg.sender] */\n      0x00\n        /* \"AuctionFactory.sol\":695:705  msg.sender */\n      caller\n        /* \"AuctionFactory.sol\":687:706  ratings[msg.sender] */\n      0xffffffffffffffffffffffffffffffffffffffff\n      and\n      0xffffffffffffffffffffffffffffffffffffffff\n      and\n      dup2\n      mstore\n      0x20\n      add\n      swap1\n      dup2\n      mstore\n      0x20\n      add\n      0x00\n      keccak256\n        /* \"AuctionFactory.sol\":687:713  ratings[msg.sender].active */\n      0x00\n      add\n      0x00\n        /* \"AuctionFactory.sol\":687:720  ratings[msg.sender].active = true */\n      0x0100\n      exp\n      dup2\n      sload\n      dup2\n      0xff\n      mul\n      not\n      and\n      swap1\n      dup4\n      iszero\n      iszero\n      mul\n      or\n      swap1\n      sstore\n      pop\n        /* \"AuctionFactory.sol\":734:740  owners */\n      0x00\n        /* \"AuctionFactory.sol\":746:756  msg.sender */\n      caller\n        /* \"AuctionFactory.sol\":734:757  owners.push(msg.sender) */\n      swap1\n      dup1\n      0x01\n      dup2\n      sload\n      add\n      dup1\n      dup3\n      sstore\n      dup1\n      swap2\n      pop\n      pop\n      0x01\n      swap1\n      sub\n      swap1\n      0x00\n      mstore\n      keccak256(0x00, 0x20)\n      add\n      0x00\n      swap1\n      swap2\n      swap1\n      swap2\n      swap1\n      swap2\n      0x0100\n      exp\n      dup2\n      sload\n      dup2\n      0xffffffffffffffffffffffffffffffffffffffff\n      mul\n      not\n      and\n      swap1\n      dup4\n      0xffffffffffffffffffffffffffffffffffffffff\n      and\n      mul\n      or\n      swap1\n      sstore\n      pop\n        /* \"AuctionFactory.sol\":641:768  if(!ratings[msg.sender].active) {... */\n    tag_111:\n        /* \"AuctionFactory.sol\":793:809  newSimpleAuction */\n      dup1\n        /* \"AuctionFactory.sol\":778:810  return address(newSimpleAuction) */\n      swap2\n      pop\n      pop\n        /* \"AuctionFactory.sol\":385:817  function createAuction(uint _biddingTime, string memory _name) public returns(address createdAuction) {... */\n      swap3\n      swap2\n      pop\n      pop\n      jump\t// out\n        /* \"AuctionFactory.sol\":1329:1428  function getAllAuctions() public view returns(address[] memory) {... */\n    tag_55:\n        /* \"AuctionFactory.sol\":1375:1391  address[] memory */\n      0x60\n        /* \"AuctionFactory.sol\":1410:1421  allAuctions */\n      0x03\n        /* \"AuctionFactory.sol\":1403:1421  return allAuctions */\n      dup1\n      sload\n      dup1\n      0x20\n      mul\n      0x20\n      add\n      mload(0x40)\n      swap1\n      dup2\n      add\n      0x40\n      mstore\n      dup1\n      swap3\n      swap2\n      swap1\n      dup2\n      dup2\n      mstore\n      0x20\n      add\n      dup3\n      dup1\n      sload\n      dup1\n      iszero\n      tag_114\n      jumpi\n      0x20\n      mul\n      dup3\n      add\n      swap2\n      swap1\n      0x00\n      mstore\n      keccak256(0x00, 0x20)\n      swap1\n    tag_115:\n      dup2\n      0x00\n      swap1\n      sload\n      swap1\n      0x0100\n      exp\n      swap1\n      div\n      0xffffffffffffffffffffffffffffffffffffffff\n      and\n      0xffffffffffffffffffffffffffffffffffffffff\n      and\n      dup2\n      mstore\n      0x20\n      add\n      swap1\n      0x01\n      add\n      swap1\n      dup1\n      dup4\n      gt\n      tag_115\n      jumpi\n    tag_114:\n      pop\n      pop\n      pop\n      pop\n      pop\n      swap1\n      pop\n        /* \"AuctionFactory.sol\":1329:1428  function getAllAuctions() public view returns(address[] memory) {... */\n      swap1\n      jump\t// out\n        /* \"AuctionFactory.sol\":1529:2076  function canRate(address owner, address auction) public view returns(bool) {... */\n    tag_60:\n        /* \"AuctionFactory.sol\":1598:1602  bool */\n      0x00\n        /* \"AuctionFactory.sol\":1631:1636  owner */\n      dup3\n        /* \"AuctionFactory.sol\":1617:1636  msg.sender == owner */\n      0xffffffffffffffffffffffffffffffffffffffff\n      and\n        /* \"AuctionFactory.sol\":1617:1627  msg.sender */\n      caller\n        /* \"AuctionFactory.sol\":1617:1636  msg.sender == owner */\n      0xffffffffffffffffffffffffffffffffffffffff\n      and\n      eq\n        /* \"AuctionFactory.sol\":1617:1674  msg.sender == owner... */\n      dup1\n      tag_117\n      jumpi\n      pop\n        /* \"AuctionFactory.sol\":1653:1660  ratings */\n      0x01\n        /* \"AuctionFactory.sol\":1653:1667  ratings[owner] */\n      0x00\n        /* \"AuctionFactory.sol\":1661:1666  owner */\n      dup5\n        /* \"AuctionFactory.sol\":1653:1667  ratings[owner] */\n      0xffffffffffffffffffffffffffffffffffffffff\n      and\n      0xffffffffffffffffffffffffffffffffffffffff\n      and\n      dup2\n      mstore\n      0x20\n      add\n      swap1\n      dup2\n      mstore\n      0x20\n      add\n      0x00\n      keccak256\n        /* \"AuctionFactory.sol\":1653:1674  ratings[owner].active */\n      0x00\n      add\n      0x00\n      swap1\n      sload\n      swap1\n      0x0100\n      exp\n      swap1\n      div\n      0xff\n      and\n        /* \"AuctionFactory.sol\":1652:1674  !ratings[owner].active */\n      iszero\n        /* \"AuctionFactory.sol\":1617:1674  msg.sender == owner... */\n    tag_117:\n        /* \"AuctionFactory.sol\":1617:1741  msg.sender == owner... */\n      dup1\n      tag_118\n      jumpi\n      pop\n        /* \"AuctionFactory.sol\":1716:1723  auction */\n      dup2\n        /* \"AuctionFactory.sol\":1708:1739  Auction(auction).auctionEndTime */\n      0xffffffffffffffffffffffffffffffffffffffff\n      and\n      0x4b449cba\n        /* \"AuctionFactory.sol\":1708:1741  Auction(auction).auctionEndTime() */\n      mload(0x40)\n      dup2\n      0xffffffff\n      and\n      0xe0\n      shl\n      dup2\n      mstore\n      0x04\n      add\n      0x20\n      mload(0x40)\n      dup1\n      dup4\n      sub\n      dup2\n      dup7\n      gas\n      staticcall\n      iszero\n      dup1\n      iszero\n      tag_120\n      jumpi\n      returndatasize\n      0x00\n      dup1\n      returndatacopy\n      revert(0x00, returndatasize)\n    tag_120:\n      pop\n      pop\n      pop\n      pop\n      mload(0x40)\n      returndatasize\n      not(0x1f)\n      0x1f\n      dup3\n      add\n      and\n      dup3\n      add\n      dup1\n      0x40\n      mstore\n      pop\n      dup2\n      add\n      swap1\n      tag_121\n      swap2\n      swap1\n      tag_74\n      jump\t// in\n    tag_121:\n        /* \"AuctionFactory.sol\":1690:1705  block.timestamp */\n      timestamp\n        /* \"AuctionFactory.sol\":1690:1741  block.timestamp > Auction(auction).auctionEndTime() */\n      gt\n        /* \"AuctionFactory.sol\":1617:1741  msg.sender == owner... */\n    tag_118:\n        /* \"AuctionFactory.sol\":1617:1796  msg.sender == owner... */\n      dup1\n      tag_122\n      jumpi\n      pop\n        /* \"AuctionFactory.sol\":1774:1781  auction */\n      dup2\n        /* \"AuctionFactory.sol\":1766:1794  Auction(auction).beneficiary */\n      0xffffffffffffffffffffffffffffffffffffffff\n      and\n      0x38af3eed\n        /* \"AuctionFactory.sol\":1766:1796  Auction(auction).beneficiary() */\n      mload(0x40)\n      dup2\n      0xffffffff\n      and\n      0xe0\n      shl\n      dup2\n      mstore\n      0x04\n      add\n      0x20\n      mload(0x40)\n      dup1\n      dup4\n      sub\n      dup2\n      dup7\n      gas\n      staticcall\n      iszero\n      dup1\n      iszero\n      tag_124\n      jumpi\n      returndatasize\n      0x00\n      dup1\n      returndatacopy\n      revert(0x00, returndatasize)\n    tag_124:\n      pop\n      pop\n      pop\n      pop\n      mload(0x40)\n      returndatasize\n      not(0x1f)\n      0x1f\n      dup3\n      add\n      and\n      dup3\n      add\n      dup1\n      0x40\n      mstore\n      pop\n      dup2\n      add\n      swap1\n      tag_125\n      swap2\n      swap1\n      tag_70\n      jump\t// in\n    tag_125:\n        /* \"AuctionFactory.sol\":1757:1796  owner != Auction(auction).beneficiary() */\n      0xffffffffffffffffffffffffffffffffffffffff\n      and\n        /* \"AuctionFactory.sol\":1757:1762  owner */\n      dup4\n        /* \"AuctionFactory.sol\":1757:1796  owner != Auction(auction).beneficiary() */\n      0xffffffffffffffffffffffffffffffffffffffff\n      and\n      eq\n      iszero\n        /* \"AuctionFactory.sol\":1617:1796  msg.sender == owner... */\n    tag_122:\n        /* \"AuctionFactory.sol\":1617:1848  msg.sender == owner... */\n      dup1\n      tag_126\n      jumpi\n      pop\n        /* \"AuctionFactory.sol\":1812:1820  hasVoted */\n      0x02\n        /* \"AuctionFactory.sol\":1812:1827  hasVoted[owner] */\n      0x00\n        /* \"AuctionFactory.sol\":1821:1826  owner */\n      dup5\n        /* \"AuctionFactory.sol\":1812:1827  hasVoted[owner] */\n      0xffffffffffffffffffffffffffffffffffffffff\n      and\n      0xffffffffffffffffffffffffffffffffffffffff\n      and\n      dup2\n      mstore\n      0x20\n      add\n      swap1\n      dup2\n      mstore\n      0x20\n      add\n      0x00\n      keccak256\n        /* \"AuctionFactory.sol\":1812:1836  hasVoted[owner][auction] */\n      0x00\n        /* \"AuctionFactory.sol\":1828:1835  auction */\n      dup4\n        /* \"AuctionFactory.sol\":1812:1836  hasVoted[owner][auction] */\n      0xffffffffffffffffffffffffffffffffffffffff\n      and\n      0xffffffffffffffffffffffffffffffffffffffff\n      and\n      dup2\n      mstore\n      0x20\n      add\n      swap1\n      dup2\n      mstore\n      0x20\n      add\n      0x00\n      keccak256\n        /* \"AuctionFactory.sol\":1812:1848  hasVoted[owner][auction][msg.sender] */\n      0x00\n        /* \"AuctionFactory.sol\":1837:1847  msg.sender */\n      caller\n        /* \"AuctionFactory.sol\":1812:1848  hasVoted[owner][auction][msg.sender] */\n      0xffffffffffffffffffffffffffffffffffffffff\n      and\n      0xffffffffffffffffffffffffffffffffffffffff\n      and\n      dup2\n      mstore\n      0x20\n      add\n      swap1\n      dup2\n      mstore\n      0x20\n      add\n      0x00\n      keccak256\n      0x00\n      swap1\n      sload\n      swap1\n      0x0100\n      exp\n      swap1\n      div\n      0xff\n      and\n        /* \"AuctionFactory.sol\":1617:1848  msg.sender == owner... */\n    tag_126:\n        /* \"AuctionFactory.sol\":1614:1887  if(msg.sender == owner... */\n      iszero\n      tag_127\n      jumpi\n        /* \"AuctionFactory.sol\":1871:1876  false */\n      0x00\n        /* \"AuctionFactory.sol\":1864:1876  return false */\n      swap1\n      pop\n      jump(tag_116)\n        /* \"AuctionFactory.sol\":1614:1887  if(msg.sender == owner... */\n    tag_127:\n        /* \"AuctionFactory.sol\":1936:1946  msg.sender */\n      caller\n        /* \"AuctionFactory.sol\":1900:1946  Auction(auction).highestBidder() != msg.sender */\n      0xffffffffffffffffffffffffffffffffffffffff\n      and\n        /* \"AuctionFactory.sol\":1908:1915  auction */\n      dup3\n        /* \"AuctionFactory.sol\":1900:1930  Auction(auction).highestBidder */\n      0xffffffffffffffffffffffffffffffffffffffff\n      and\n      0x91f90157\n        /* \"AuctionFactory.sol\":1900:1932  Auction(auction).highestBidder() */\n      mload(0x40)\n      dup2\n      0xffffffff\n      and\n      0xe0\n      shl\n      dup2\n      mstore\n      0x04\n      add\n      0x20\n      mload(0x40)\n      dup1\n      dup4\n      sub\n      dup2\n      dup7\n      gas\n      staticcall\n      iszero\n      dup1\n      iszero\n      tag_129\n      jumpi\n      returndatasize\n      0x00\n      dup1\n      returndatacopy\n      revert(0x00, returndatasize)\n    tag_129:\n      pop\n      pop\n      pop\n      pop\n      mload(0x40)\n      returndatasize\n      not(0x1f)\n      0x1f\n      dup3\n      add\n      and\n      dup3\n      add\n      dup1\n      0x40\n      mstore\n      pop\n      dup2\n      add\n      swap1\n      tag_130\n      swap2\n      swap1\n      tag_78\n      jump\t// in\n    tag_130:\n        /* \"AuctionFactory.sol\":1900:1946  Auction(auction).highestBidder() != msg.sender */\n      0xffffffffffffffffffffffffffffffffffffffff\n      and\n      eq\n      iszero\n        /* \"AuctionFactory.sol\":1900:2010  Auction(auction).highestBidder() != msg.sender... */\n      dup1\n      iszero\n      tag_131\n      jumpi\n      pop\n        /* \"AuctionFactory.sol\":2009:2010  0 */\n      0x00\n        /* \"AuctionFactory.sol\":1970:1977  auction */\n      dup3\n        /* \"AuctionFactory.sol\":1962:1993  Auction(auction).pendingReturns */\n      0xffffffffffffffffffffffffffffffffffffffff\n      and\n      0x26b387bb\n        /* \"AuctionFactory.sol\":1994:2004  msg.sender */\n      caller\n        /* \"AuctionFactory.sol\":1962:2005  Auction(auction).pendingReturns(msg.sender) */\n      mload(0x40)\n      dup3\n      0xffffffff\n      and\n      0xe0\n      shl\n      dup2\n      mstore\n      0x04\n      add\n      tag_132\n      swap2\n      swap1\n      tag_19\n      jump\t// in\n    tag_132:\n      0x20\n      mload(0x40)\n      dup1\n      dup4\n      sub\n      dup2\n      dup7\n      gas\n      staticcall\n      iszero\n      dup1\n      iszero\n      tag_134\n      jumpi\n      returndatasize\n      0x00\n      dup1\n      returndatacopy\n      revert(0x00, returndatasize)\n    tag_134:\n      pop\n      pop\n      pop\n      pop\n      mload(0x40)\n      returndatasize\n      not(0x1f)\n      0x1f\n      dup3\n      add\n      and\n      dup3\n      add\n      dup1\n      0x40\n      mstore\n      pop\n      dup2\n      add\n      swap1\n      tag_135\n      swap2\n      swap1\n      tag_74\n      jump\t// in\n    tag_135:\n        /* \"AuctionFactory.sol\":1962:2010  Auction(auction).pendingReturns(msg.sender) == 0 */\n      eq\n        /* \"AuctionFactory.sol\":1900:2010  Auction(auction).highestBidder() != msg.sender... */\n    tag_131:\n        /* \"AuctionFactory.sol\":1896:2049  if (Auction(auction).highestBidder() != msg.sender... */\n      iszero\n      tag_136\n      jumpi\n        /* \"AuctionFactory.sol\":2033:2038  false */\n      0x00\n        /* \"AuctionFactory.sol\":2026:2038  return false */\n      swap1\n      pop\n      jump(tag_116)\n        /* \"AuctionFactory.sol\":1896:2049  if (Auction(auction).highestBidder() != msg.sender... */\n    tag_136:\n        /* \"AuctionFactory.sol\":2065:2069  true */\n      0x01\n        /* \"AuctionFactory.sol\":2058:2069  return true */\n      swap1\n      pop\n        /* \"AuctionFactory.sol\":1529:2076  function canRate(address owner, address auction) public view returns(bool) {... */\n    tag_116:\n      swap3\n      swap2\n      pop\n      pop\n      jump\t// out\n    tag_106:\n      dataSize(sub_0)\n      dup1\n      dataOffset(sub_0)\n      dup4\n      codecopy\n      add\n      swap1\n      jump\t// out\n        /* \"#utility.yul\":7:82   */\n    tag_137:\n        /* \"#utility.yul\":40:46   */\n      0x00\n        /* \"#utility.yul\":73:75   */\n      0x40\n        /* \"#utility.yul\":67:76   */\n      mload\n        /* \"#utility.yul\":57:76   */\n      swap1\n      pop\n        /* \"#utility.yul\":7:82   */\n      swap1\n      jump\t// out\n        /* \"#utility.yul\":88:205   */\n    tag_138:\n        /* \"#utility.yul\":197:198   */\n      0x00\n        /* \"#utility.yul\":194:195   */\n      dup1\n        /* \"#utility.yul\":187:199   */\n      revert\n        /* \"#utility.yul\":211:328   */\n    tag_139:\n        /* \"#utility.yul\":320:321   */\n      0x00\n        /* \"#utility.yul\":317:318   */\n      dup1\n        /* \"#utility.yul\":310:322   */\n      revert\n        /* \"#utility.yul\":334:411   */\n    tag_140:\n        /* \"#utility.yul\":371:378   */\n      0x00\n        /* \"#utility.yul\":400:405   */\n      dup2\n        /* \"#utility.yul\":389:405   */\n      swap1\n      pop\n        /* \"#utility.yul\":334:411   */\n      swap2\n      swap1\n      pop\n      jump\t// out\n        /* \"#utility.yul\":417:539   */\n    tag_141:\n        /* \"#utility.yul\":490:514   */\n      tag_196\n        /* \"#utility.yul\":508:513   */\n      dup2\n        /* \"#utility.yul\":490:514   */\n      tag_140\n      jump\t// in\n    tag_196:\n        /* \"#utility.yul\":483:488   */\n      dup2\n        /* \"#utility.yul\":480:515   */\n      eq\n        /* \"#utility.yul\":470:533   */\n      tag_197\n      jumpi\n        /* \"#utility.yul\":529:530   */\n      0x00\n        /* \"#utility.yul\":526:527   */\n      dup1\n        /* \"#utility.yul\":519:531   */\n      revert\n        /* \"#utility.yul\":470:533   */\n    tag_197:\n        /* \"#utility.yul\":417:539   */\n      pop\n      jump\t// out\n        /* \"#utility.yul\":545:684   */\n    tag_142:\n        /* \"#utility.yul\":591:596   */\n      0x00\n        /* \"#utility.yul\":629:635   */\n      dup2\n        /* \"#utility.yul\":616:636   */\n      calldataload\n        /* \"#utility.yul\":607:636   */\n      swap1\n      pop\n        /* \"#utility.yul\":645:678   */\n      tag_199\n        /* \"#utility.yul\":672:677   */\n      dup2\n        /* \"#utility.yul\":645:678   */\n      tag_141\n      jump\t// in\n    tag_199:\n        /* \"#utility.yul\":545:684   */\n      swap3\n      swap2\n      pop\n      pop\n      jump\t// out\n        /* \"#utility.yul\":690:1019   */\n    tag_16:\n        /* \"#utility.yul\":749:755   */\n      0x00\n        /* \"#utility.yul\":798:800   */\n      0x20\n        /* \"#utility.yul\":786:795   */\n      dup3\n        /* \"#utility.yul\":777:784   */\n      dup5\n        /* \"#utility.yul\":773:796   */\n      sub\n        /* \"#utility.yul\":769:801   */\n      slt\n        /* \"#utility.yul\":766:885   */\n      iszero\n      tag_201\n      jumpi\n        /* \"#utility.yul\":804:883   */\n      tag_202\n      tag_138\n      jump\t// in\n    tag_202:\n        /* \"#utility.yul\":766:885   */\n    tag_201:\n        /* \"#utility.yul\":924:925   */\n      0x00\n        /* \"#utility.yul\":949:1002   */\n      tag_203\n        /* \"#utility.yul\":994:1001   */\n      dup5\n        /* \"#utility.yul\":985:991   */\n      dup3\n        /* \"#utility.yul\":974:983   */\n      dup6\n        /* \"#utility.yul\":970:992   */\n      add\n        /* \"#utility.yul\":949:1002   */\n      tag_142\n      jump\t// in\n    tag_203:\n        /* \"#utility.yul\":939:1002   */\n      swap2\n      pop\n        /* \"#utility.yul\":895:1012   */\n      pop\n        /* \"#utility.yul\":690:1019   */\n      swap3\n      swap2\n      pop\n      pop\n      jump\t// out\n        /* \"#utility.yul\":1025:1151   */\n    tag_143:\n        /* \"#utility.yul\":1062:1069   */\n      0x00\n        /* \"#utility.yul\":1102:1144   */\n      0xffffffffffffffffffffffffffffffffffffffff\n        /* \"#utility.yul\":1095:1100   */\n      dup3\n        /* \"#utility.yul\":1091:1145   */\n      and\n        /* \"#utility.yul\":1080:1145   */\n      swap1\n      pop\n        /* \"#utility.yul\":1025:1151   */\n      swap2\n      swap1\n      pop\n      jump\t// out\n        /* \"#utility.yul\":1157:1253   */\n    tag_144:\n        /* \"#utility.yul\":1194:1201   */\n      0x00\n        /* \"#utility.yul\":1223:1247   */\n      tag_206\n        /* \"#utility.yul\":1241:1246   */\n      dup3\n        /* \"#utility.yul\":1223:1247   */\n      tag_143\n      jump\t// in\n    tag_206:\n        /* \"#utility.yul\":1212:1247   */\n      swap1\n      pop\n        /* \"#utility.yul\":1157:1253   */\n      swap2\n      swap1\n      pop\n      jump\t// out\n        /* \"#utility.yul\":1259:1377   */\n    tag_145:\n        /* \"#utility.yul\":1346:1370   */\n      tag_208\n        /* \"#utility.yul\":1364:1369   */\n      dup2\n        /* \"#utility.yul\":1346:1370   */\n      tag_144\n      jump\t// in\n    tag_208:\n        /* \"#utility.yul\":1341:1344   */\n      dup3\n        /* \"#utility.yul\":1334:1371   */\n      mstore\n        /* \"#utility.yul\":1259:1377   */\n      pop\n      pop\n      jump\t// out\n        /* \"#utility.yul\":1383:1605   */\n    tag_19:\n        /* \"#utility.yul\":1476:1480   */\n      0x00\n        /* \"#utility.yul\":1514:1516   */\n      0x20\n        /* \"#utility.yul\":1503:1512   */\n      dup3\n        /* \"#utility.yul\":1499:1517   */\n      add\n        /* \"#utility.yul\":1491:1517   */\n      swap1\n      pop\n        /* \"#utility.yul\":1527:1598   */\n      tag_210\n        /* \"#utility.yul\":1595:1596   */\n      0x00\n        /* \"#utility.yul\":1584:1593   */\n      dup4\n        /* \"#utility.yul\":1580:1597   */\n      add\n        /* \"#utility.yul\":1571:1577   */\n      dup5\n        /* \"#utility.yul\":1527:1598   */\n      tag_145\n      jump\t// in\n    tag_210:\n        /* \"#utility.yul\":1383:1605   */\n      swap3\n      swap2\n      pop\n      pop\n      jump\t// out\n        /* \"#utility.yul\":1611:1733   */\n    tag_146:\n        /* \"#utility.yul\":1684:1708   */\n      tag_212\n        /* \"#utility.yul\":1702:1707   */\n      dup2\n        /* \"#utility.yul\":1684:1708   */\n      tag_144\n      jump\t// in\n    tag_212:\n        /* \"#utility.yul\":1677:1682   */\n      dup2\n        /* \"#utility.yul\":1674:1709   */\n      eq\n        /* \"#utility.yul\":1664:1727   */\n      tag_213\n      jumpi\n        /* \"#utility.yul\":1723:1724   */\n      0x00\n        /* \"#utility.yul\":1720:1721   */\n      dup1\n        /* \"#utility.yul\":1713:1725   */\n      revert\n        /* \"#utility.yul\":1664:1727   */\n    tag_213:\n        /* \"#utility.yul\":1611:1733   */\n      pop\n      jump\t// out\n        /* \"#utility.yul\":1739:1878   */\n    tag_147:\n        /* \"#utility.yul\":1785:1790   */\n      0x00\n        /* \"#utility.yul\":1823:1829   */\n      dup2\n        /* \"#utility.yul\":1810:1830   */\n      calldataload\n        /* \"#utility.yul\":1801:1830   */\n      swap1\n      pop\n        /* \"#utility.yul\":1839:1872   */\n      tag_215\n        /* \"#utility.yul\":1866:1871   */\n      dup2\n        /* \"#utility.yul\":1839:1872   */\n      tag_146\n      jump\t// in\n    tag_215:\n        /* \"#utility.yul\":1739:1878   */\n      swap3\n      swap2\n      pop\n      pop\n      jump\t// out\n        /* \"#utility.yul\":1884:2213   */\n    tag_26:\n        /* \"#utility.yul\":1943:1949   */\n      0x00\n        /* \"#utility.yul\":1992:1994   */\n      0x20\n        /* \"#utility.yul\":1980:1989   */\n      dup3\n        /* \"#utility.yul\":1971:1978   */\n      dup5\n        /* \"#utility.yul\":1967:1990   */\n      sub\n        /* \"#utility.yul\":1963:1995   */\n      slt\n        /* \"#utility.yul\":1960:2079   */\n      iszero\n      tag_217\n      jumpi\n        /* \"#utility.yul\":1998:2077   */\n      tag_218\n      tag_138\n      jump\t// in\n    tag_218:\n        /* \"#utility.yul\":1960:2079   */\n    tag_217:\n        /* \"#utility.yul\":2118:2119   */\n      0x00\n        /* \"#utility.yul\":2143:2196   */\n      tag_219\n        /* \"#utility.yul\":2188:2195   */\n      dup5\n        /* \"#utility.yul\":2179:2185   */\n      dup3\n        /* \"#utility.yul\":2168:2177   */\n      dup6\n        /* \"#utility.yul\":2164:2186   */\n      add\n        /* \"#utility.yul\":2143:2196   */\n      tag_147\n      jump\t// in\n    tag_219:\n        /* \"#utility.yul\":2133:2196   */\n      swap2\n      pop\n        /* \"#utility.yul\":2089:2206   */\n      pop\n        /* \"#utility.yul\":1884:2213   */\n      swap3\n      swap2\n      pop\n      pop\n      jump\t// out\n        /* \"#utility.yul\":2219:2323   */\n    tag_148:\n        /* \"#utility.yul\":2264:2271   */\n      0x00\n        /* \"#utility.yul\":2293:2317   */\n      tag_221\n        /* \"#utility.yul\":2311:2316   */\n      dup3\n        /* \"#utility.yul\":2293:2317   */\n      tag_143\n      jump\t// in\n    tag_221:\n        /* \"#utility.yul\":2282:2317   */\n      swap1\n      pop\n        /* \"#utility.yul\":2219:2323   */\n      swap2\n      swap1\n      pop\n      jump\t// out\n        /* \"#utility.yul\":2329:2471   */\n    tag_149:\n        /* \"#utility.yul\":2432:2464   */\n      tag_223\n        /* \"#utility.yul\":2458:2463   */\n      dup2\n        /* \"#utility.yul\":2432:2464   */\n      tag_148\n      jump\t// in\n    tag_223:\n        /* \"#utility.yul\":2427:2430   */\n      dup3\n        /* \"#utility.yul\":2420:2465   */\n      mstore\n        /* \"#utility.yul\":2329:2471   */\n      pop\n      pop\n      jump\t// out\n        /* \"#utility.yul\":2477:2595   */\n    tag_150:\n        /* \"#utility.yul\":2564:2588   */\n      tag_225\n        /* \"#utility.yul\":2582:2587   */\n      dup2\n        /* \"#utility.yul\":2564:2588   */\n      tag_140\n      jump\t// in\n    tag_225:\n        /* \"#utility.yul\":2559:2562   */\n      dup3\n        /* \"#utility.yul\":2552:2589   */\n      mstore\n        /* \"#utility.yul\":2477:2595   */\n      pop\n      pop\n      jump\t// out\n        /* \"#utility.yul\":2601:2700   */\n    tag_151:\n        /* \"#utility.yul\":2653:2659   */\n      0x00\n        /* \"#utility.yul\":2687:2692   */\n      dup2\n        /* \"#utility.yul\":2681:2693   */\n      mload\n        /* \"#utility.yul\":2671:2693   */\n      swap1\n      pop\n        /* \"#utility.yul\":2601:2700   */\n      swap2\n      swap1\n      pop\n      jump\t// out\n        /* \"#utility.yul\":2706:2875   */\n    tag_152:\n        /* \"#utility.yul\":2790:2801   */\n      0x00\n        /* \"#utility.yul\":2824:2830   */\n      dup3\n        /* \"#utility.yul\":2819:2822   */\n      dup3\n        /* \"#utility.yul\":2812:2831   */\n      mstore\n        /* \"#utility.yul\":2864:2868   */\n      0x20\n        /* \"#utility.yul\":2859:2862   */\n      dup3\n        /* \"#utility.yul\":2855:2869   */\n      add\n        /* \"#utility.yul\":2840:2869   */\n      swap1\n      pop\n        /* \"#utility.yul\":2706:2875   */\n      swap3\n      swap2\n      pop\n      pop\n      jump\t// out\n        /* \"#utility.yul\":2881:3127   */\n    tag_153:\n        /* \"#utility.yul\":2962:2963   */\n      0x00\n        /* \"#utility.yul\":2972:3085   */\n    tag_229:\n        /* \"#utility.yul\":2986:2992   */\n      dup4\n        /* \"#utility.yul\":2983:2984   */\n      dup2\n        /* \"#utility.yul\":2980:2993   */\n      lt\n        /* \"#utility.yul\":2972:3085   */\n      iszero\n      tag_231\n      jumpi\n        /* \"#utility.yul\":3071:3072   */\n      dup1\n        /* \"#utility.yul\":3066:3069   */\n      dup3\n        /* \"#utility.yul\":3062:3073   */\n      add\n        /* \"#utility.yul\":3056:3074   */\n      mload\n        /* \"#utility.yul\":3052:3053   */\n      dup2\n        /* \"#utility.yul\":3047:3050   */\n      dup5\n        /* \"#utility.yul\":3043:3054   */\n      add\n        /* \"#utility.yul\":3036:3075   */\n      mstore\n        /* \"#utility.yul\":3008:3010   */\n      0x20\n        /* \"#utility.yul\":3005:3006   */\n      dup2\n        /* \"#utility.yul\":3001:3011   */\n      add\n        /* \"#utility.yul\":2996:3011   */\n      swap1\n      pop\n        /* \"#utility.yul\":2972:3085   */\n      jump(tag_229)\n    tag_231:\n        /* \"#utility.yul\":3119:3120   */\n      0x00\n        /* \"#utility.yul\":3110:3116   */\n      dup5\n        /* \"#utility.yul\":3105:3108   */\n      dup5\n        /* \"#utility.yul\":3101:3117   */\n      add\n        /* \"#utility.yul\":3094:3121   */\n      mstore\n        /* \"#utility.yul\":2943:3127   */\n      pop\n        /* \"#utility.yul\":2881:3127   */\n      pop\n      pop\n      pop\n      jump\t// out\n        /* \"#utility.yul\":3133:3235   */\n    tag_154:\n        /* \"#utility.yul\":3174:3180   */\n      0x00\n        /* \"#utility.yul\":3225:3227   */\n      0x1f\n        /* \"#utility.yul\":3221:3228   */\n      not\n        /* \"#utility.yul\":3216:3218   */\n      0x1f\n        /* \"#utility.yul\":3209:3214   */\n      dup4\n        /* \"#utility.yul\":3205:3219   */\n      add\n        /* \"#utility.yul\":3201:3229   */\n      and\n        /* \"#utility.yul\":3191:3229   */\n      swap1\n      pop\n        /* \"#utility.yul\":3133:3235   */\n      swap2\n      swap1\n      pop\n      jump\t// out\n        /* \"#utility.yul\":3241:3618   */\n    tag_155:\n        /* \"#utility.yul\":3329:3332   */\n      0x00\n        /* \"#utility.yul\":3357:3396   */\n      tag_234\n        /* \"#utility.yul\":3390:3395   */\n      dup3\n        /* \"#utility.yul\":3357:3396   */\n      tag_151\n      jump\t// in\n    tag_234:\n        /* \"#utility.yul\":3412:3483   */\n      tag_235\n        /* \"#utility.yul\":3476:3482   */\n      dup2\n        /* \"#utility.yul\":3471:3474   */\n      dup6\n        /* \"#utility.yul\":3412:3483   */\n      tag_152\n      jump\t// in\n    tag_235:\n        /* \"#utility.yul\":3405:3483   */\n      swap4\n      pop\n        /* \"#utility.yul\":3492:3557   */\n      tag_236\n        /* \"#utility.yul\":3550:3556   */\n      dup2\n        /* \"#utility.yul\":3545:3548   */\n      dup6\n        /* \"#utility.yul\":3538:3542   */\n      0x20\n        /* \"#utility.yul\":3531:3536   */\n      dup7\n        /* \"#utility.yul\":3527:3543   */\n      add\n        /* \"#utility.yul\":3492:3557   */\n      tag_153\n      jump\t// in\n    tag_236:\n        /* \"#utility.yul\":3582:3611   */\n      tag_237\n        /* \"#utility.yul\":3604:3610   */\n      dup2\n        /* \"#utility.yul\":3582:3611   */\n      tag_154\n      jump\t// in\n    tag_237:\n        /* \"#utility.yul\":3577:3580   */\n      dup5\n        /* \"#utility.yul\":3573:3612   */\n      add\n        /* \"#utility.yul\":3566:3612   */\n      swap2\n      pop\n        /* \"#utility.yul\":3333:3618   */\n      pop\n        /* \"#utility.yul\":3241:3618   */\n      swap3\n      swap2\n      pop\n      pop\n      jump\t// out\n        /* \"#utility.yul\":3624:4411   */\n    tag_29:\n        /* \"#utility.yul\":3865:3869   */\n      0x00\n        /* \"#utility.yul\":3903:3906   */\n      0xa0\n        /* \"#utility.yul\":3892:3901   */\n      dup3\n        /* \"#utility.yul\":3888:3907   */\n      add\n        /* \"#utility.yul\":3880:3907   */\n      swap1\n      pop\n        /* \"#utility.yul\":3917:4004   */\n      tag_239\n        /* \"#utility.yul\":4001:4002   */\n      0x00\n        /* \"#utility.yul\":3990:3999   */\n      dup4\n        /* \"#utility.yul\":3986:4003   */\n      add\n        /* \"#utility.yul\":3977:3983   */\n      dup9\n        /* \"#utility.yul\":3917:4004   */\n      tag_149\n      jump\t// in\n    tag_239:\n        /* \"#utility.yul\":4014:4086   */\n      tag_240\n        /* \"#utility.yul\":4082:4084   */\n      0x20\n        /* \"#utility.yul\":4071:4080   */\n      dup4\n        /* \"#utility.yul\":4067:4085   */\n      add\n        /* \"#utility.yul\":4058:4064   */\n      dup8\n        /* \"#utility.yul\":4014:4086   */\n      tag_150\n      jump\t// in\n    tag_240:\n        /* \"#utility.yul\":4096:4168   */\n      tag_241\n        /* \"#utility.yul\":4164:4166   */\n      0x40\n        /* \"#utility.yul\":4153:4162   */\n      dup4\n        /* \"#utility.yul\":4149:4167   */\n      add\n        /* \"#utility.yul\":4140:4146   */\n      dup7\n        /* \"#utility.yul\":4096:4168   */\n      tag_145\n      jump\t// in\n    tag_241:\n        /* \"#utility.yul\":4178:4250   */\n      tag_242\n        /* \"#utility.yul\":4246:4248   */\n      0x60\n        /* \"#utility.yul\":4235:4244   */\n      dup4\n        /* \"#utility.yul\":4231:4249   */\n      add\n        /* \"#utility.yul\":4222:4228   */\n      dup6\n        /* \"#utility.yul\":4178:4250   */\n      tag_150\n      jump\t// in\n    tag_242:\n        /* \"#utility.yul\":4298:4307   */\n      dup2\n        /* \"#utility.yul\":4292:4296   */\n      dup2\n        /* \"#utility.yul\":4288:4308   */\n      sub\n        /* \"#utility.yul\":4282:4285   */\n      0x80\n        /* \"#utility.yul\":4271:4280   */\n      dup4\n        /* \"#utility.yul\":4267:4286   */\n      add\n        /* \"#utility.yul\":4260:4309   */\n      mstore\n        /* \"#utility.yul\":4326:4404   */\n      tag_243\n        /* \"#utility.yul\":4399:4403   */\n      dup2\n        /* \"#utility.yul\":4390:4396   */\n      dup5\n        /* \"#utility.yul\":4326:4404   */\n      tag_155\n      jump\t// in\n    tag_243:\n        /* \"#utility.yul\":4318:4404   */\n      swap1\n      pop\n        /* \"#utility.yul\":3624:4411   */\n      swap7\n      swap6\n      pop\n      pop\n      pop\n      pop\n      pop\n      pop\n      jump\t// out\n        /* \"#utility.yul\":4417:4503   */\n    tag_156:\n        /* \"#utility.yul\":4452:4459   */\n      0x00\n        /* \"#utility.yul\":4492:4496   */\n      0xff\n        /* \"#utility.yul\":4485:4490   */\n      dup3\n        /* \"#utility.yul\":4481:4497   */\n      and\n        /* \"#utility.yul\":4470:4497   */\n      swap1\n      pop\n        /* \"#utility.yul\":4417:4503   */\n      swap2\n      swap1\n      pop\n      jump\t// out\n        /* \"#utility.yul\":4509:4627   */\n    tag_157:\n        /* \"#utility.yul\":4580:4602   */\n      tag_246\n        /* \"#utility.yul\":4596:4601   */\n      dup2\n        /* \"#utility.yul\":4580:4602   */\n      tag_156\n      jump\t// in\n    tag_246:\n        /* \"#utility.yul\":4573:4578   */\n      dup2\n        /* \"#utility.yul\":4570:4603   */\n      eq\n        /* \"#utility.yul\":4560:4621   */\n      tag_247\n      jumpi\n        /* \"#utility.yul\":4617:4618   */\n      0x00\n        /* \"#utility.yul\":4614:4615   */\n      dup1\n        /* \"#utility.yul\":4607:4619   */\n      revert\n        /* \"#utility.yul\":4560:4621   */\n    tag_247:\n        /* \"#utility.yul\":4509:4627   */\n      pop\n      jump\t// out\n        /* \"#utility.yul\":4633:4768   */\n    tag_158:\n        /* \"#utility.yul\":4677:4682   */\n      0x00\n        /* \"#utility.yul\":4715:4721   */\n      dup2\n        /* \"#utility.yul\":4702:4722   */\n      calldataload\n        /* \"#utility.yul\":4693:4722   */\n      swap1\n      pop\n        /* \"#utility.yul\":4731:4762   */\n      tag_249\n        /* \"#utility.yul\":4756:4761   */\n      dup2\n        /* \"#utility.yul\":4731:4762   */\n      tag_157\n      jump\t// in\n    tag_249:\n        /* \"#utility.yul\":4633:4768   */\n      swap3\n      swap2\n      pop\n      pop\n      jump\t// out\n        /* \"#utility.yul\":4774:5389   */\n    tag_32:\n        /* \"#utility.yul\":4849:4855   */\n      0x00\n        /* \"#utility.yul\":4857:4863   */\n      dup1\n        /* \"#utility.yul\":4865:4871   */\n      0x00\n        /* \"#utility.yul\":4914:4916   */\n      0x60\n        /* \"#utility.yul\":4902:4911   */\n      dup5\n        /* \"#utility.yul\":4893:4900   */\n      dup7\n        /* \"#utility.yul\":4889:4912   */\n      sub\n        /* \"#utility.yul\":4885:4917   */\n      slt\n        /* \"#utility.yul\":4882:5001   */\n      iszero\n      tag_251\n      jumpi\n        /* \"#utility.yul\":4920:4999   */\n      tag_252\n      tag_138\n      jump\t// in\n    tag_252:\n        /* \"#utility.yul\":4882:5001   */\n    tag_251:\n        /* \"#utility.yul\":5040:5041   */\n      0x00\n        /* \"#utility.yul\":5065:5118   */\n      tag_253\n        /* \"#utility.yul\":5110:5117   */\n      dup7\n        /* \"#utility.yul\":5101:5107   */\n      dup3\n        /* \"#utility.yul\":5090:5099   */\n      dup8\n        /* \"#utility.yul\":5086:5108   */\n      add\n        /* \"#utility.yul\":5065:5118   */\n      tag_147\n      jump\t// in\n    tag_253:\n        /* \"#utility.yul\":5055:5118   */\n      swap4\n      pop\n        /* \"#utility.yul\":5011:5128   */\n      pop\n        /* \"#utility.yul\":5167:5169   */\n      0x20\n        /* \"#utility.yul\":5193:5246   */\n      tag_254\n        /* \"#utility.yul\":5238:5245   */\n      dup7\n        /* \"#utility.yul\":5229:5235   */\n      dup3\n        /* \"#utility.yul\":5218:5227   */\n      dup8\n        /* \"#utility.yul\":5214:5236   */\n      add\n        /* \"#utility.yul\":5193:5246   */\n      tag_147\n      jump\t// in\n    tag_254:\n        /* \"#utility.yul\":5183:5246   */\n      swap3\n      pop\n        /* \"#utility.yul\":5138:5256   */\n      pop\n        /* \"#utility.yul\":5295:5297   */\n      0x40\n        /* \"#utility.yul\":5321:5372   */\n      tag_255\n        /* \"#utility.yul\":5364:5371   */\n      dup7\n        /* \"#utility.yul\":5355:5361   */\n      dup3\n        /* \"#utility.yul\":5344:5353   */\n      dup8\n        /* \"#utility.yul\":5340:5362   */\n      add\n        /* \"#utility.yul\":5321:5372   */\n      tag_158\n      jump\t// in\n    tag_255:\n        /* \"#utility.yul\":5311:5372   */\n      swap2\n      pop\n        /* \"#utility.yul\":5266:5382   */\n      pop\n        /* \"#utility.yul\":4774:5389   */\n      swap3\n      pop\n      swap3\n      pop\n      swap3\n      jump\t// out\n        /* \"#utility.yul\":5395:5485   */\n    tag_159:\n        /* \"#utility.yul\":5429:5436   */\n      0x00\n        /* \"#utility.yul\":5472:5477   */\n      dup2\n        /* \"#utility.yul\":5465:5478   */\n      iszero\n        /* \"#utility.yul\":5458:5479   */\n      iszero\n        /* \"#utility.yul\":5447:5479   */\n      swap1\n      pop\n        /* \"#utility.yul\":5395:5485   */\n      swap2\n      swap1\n      pop\n      jump\t// out\n        /* \"#utility.yul\":5491:5600   */\n    tag_160:\n        /* \"#utility.yul\":5572:5593   */\n      tag_258\n        /* \"#utility.yul\":5587:5592   */\n      dup2\n        /* \"#utility.yul\":5572:5593   */\n      tag_159\n      jump\t// in\n    tag_258:\n        /* \"#utility.yul\":5567:5570   */\n      dup3\n        /* \"#utility.yul\":5560:5594   */\n      mstore\n        /* \"#utility.yul\":5491:5600   */\n      pop\n      pop\n      jump\t// out\n        /* \"#utility.yul\":5606:6036   */\n    tag_38:\n        /* \"#utility.yul\":5749:5753   */\n      0x00\n        /* \"#utility.yul\":5787:5789   */\n      0x60\n        /* \"#utility.yul\":5776:5785   */\n      dup3\n        /* \"#utility.yul\":5772:5790   */\n      add\n        /* \"#utility.yul\":5764:5790   */\n      swap1\n      pop\n        /* \"#utility.yul\":5800:5865   */\n      tag_260\n        /* \"#utility.yul\":5862:5863   */\n      0x00\n        /* \"#utility.yul\":5851:5860   */\n      dup4\n        /* \"#utility.yul\":5847:5864   */\n      add\n        /* \"#utility.yul\":5838:5844   */\n      dup7\n        /* \"#utility.yul\":5800:5865   */\n      tag_160\n      jump\t// in\n    tag_260:\n        /* \"#utility.yul\":5875:5947   */\n      tag_261\n        /* \"#utility.yul\":5943:5945   */\n      0x20\n        /* \"#utility.yul\":5932:5941   */\n      dup4\n        /* \"#utility.yul\":5928:5946   */\n      add\n        /* \"#utility.yul\":5919:5925   */\n      dup6\n        /* \"#utility.yul\":5875:5947   */\n      tag_150\n      jump\t// in\n    tag_261:\n        /* \"#utility.yul\":5957:6029   */\n      tag_262\n        /* \"#utility.yul\":6025:6027   */\n      0x40\n        /* \"#utility.yul\":6014:6023   */\n      dup4\n        /* \"#utility.yul\":6010:6028   */\n      add\n        /* \"#utility.yul\":6001:6007   */\n      dup5\n        /* \"#utility.yul\":5957:6029   */\n      tag_150\n      jump\t// in\n    tag_262:\n        /* \"#utility.yul\":5606:6036   */\n      swap5\n      swap4\n      pop\n      pop\n      pop\n      pop\n      jump\t// out\n        /* \"#utility.yul\":6042:6156   */\n    tag_161:\n        /* \"#utility.yul\":6109:6115   */\n      0x00\n        /* \"#utility.yul\":6143:6148   */\n      dup2\n        /* \"#utility.yul\":6137:6149   */\n      mload\n        /* \"#utility.yul\":6127:6149   */\n      swap1\n      pop\n        /* \"#utility.yul\":6042:6156   */\n      swap2\n      swap1\n      pop\n      jump\t// out\n        /* \"#utility.yul\":6162:6346   */\n    tag_162:\n        /* \"#utility.yul\":6261:6272   */\n      0x00\n        /* \"#utility.yul\":6295:6301   */\n      dup3\n        /* \"#utility.yul\":6290:6293   */\n      dup3\n        /* \"#utility.yul\":6283:6302   */\n      mstore\n        /* \"#utility.yul\":6335:6339   */\n      0x20\n        /* \"#utility.yul\":6330:6333   */\n      dup3\n        /* \"#utility.yul\":6326:6340   */\n      add\n        /* \"#utility.yul\":6311:6340   */\n      swap1\n      pop\n        /* \"#utility.yul\":6162:6346   */\n      swap3\n      swap2\n      pop\n      pop\n      jump\t// out\n        /* \"#utility.yul\":6352:6484   */\n    tag_163:\n        /* \"#utility.yul\":6419:6423   */\n      0x00\n        /* \"#utility.yul\":6442:6445   */\n      dup2\n        /* \"#utility.yul\":6434:6445   */\n      swap1\n      pop\n        /* \"#utility.yul\":6472:6476   */\n      0x20\n        /* \"#utility.yul\":6467:6470   */\n      dup3\n        /* \"#utility.yul\":6463:6477   */\n      add\n        /* \"#utility.yul\":6455:6477   */\n      swap1\n      pop\n        /* \"#utility.yul\":6352:6484   */\n      swap2\n      swap1\n      pop\n      jump\t// out\n        /* \"#utility.yul\":6490:6598   */\n    tag_164:\n        /* \"#utility.yul\":6567:6591   */\n      tag_267\n        /* \"#utility.yul\":6585:6590   */\n      dup2\n        /* \"#utility.yul\":6567:6591   */\n      tag_144\n      jump\t// in\n    tag_267:\n        /* \"#utility.yul\":6562:6565   */\n      dup3\n        /* \"#utility.yul\":6555:6592   */\n      mstore\n        /* \"#utility.yul\":6490:6598   */\n      pop\n      pop\n      jump\t// out\n        /* \"#utility.yul\":6604:6783   */\n    tag_165:\n        /* \"#utility.yul\":6673:6683   */\n      0x00\n        /* \"#utility.yul\":6694:6740   */\n      tag_269\n        /* \"#utility.yul\":6736:6739   */\n      dup4\n        /* \"#utility.yul\":6728:6734   */\n      dup4\n        /* \"#utility.yul\":6694:6740   */\n      tag_164\n      jump\t// in\n    tag_269:\n        /* \"#utility.yul\":6772:6776   */\n      0x20\n        /* \"#utility.yul\":6767:6770   */\n      dup4\n        /* \"#utility.yul\":6763:6777   */\n      add\n        /* \"#utility.yul\":6749:6777   */\n      swap1\n      pop\n        /* \"#utility.yul\":6604:6783   */\n      swap3\n      swap2\n      pop\n      pop\n      jump\t// out\n        /* \"#utility.yul\":6789:6902   */\n    tag_166:\n        /* \"#utility.yul\":6859:6863   */\n      0x00\n        /* \"#utility.yul\":6891:6895   */\n      0x20\n        /* \"#utility.yul\":6886:6889   */\n      dup3\n        /* \"#utility.yul\":6882:6896   */\n      add\n        /* \"#utility.yul\":6874:6896   */\n      swap1\n      pop\n        /* \"#utility.yul\":6789:6902   */\n      swap2\n      swap1\n      pop\n      jump\t// out\n        /* \"#utility.yul\":6938:7670   */\n    tag_167:\n        /* \"#utility.yul\":7057:7060   */\n      0x00\n        /* \"#utility.yul\":7086:7140   */\n      tag_272\n        /* \"#utility.yul\":7134:7139   */\n      dup3\n        /* \"#utility.yul\":7086:7140   */\n      tag_161\n      jump\t// in\n    tag_272:\n        /* \"#utility.yul\":7156:7242   */\n      tag_273\n        /* \"#utility.yul\":7235:7241   */\n      dup2\n        /* \"#utility.yul\":7230:7233   */\n      dup6\n        /* \"#utility.yul\":7156:7242   */\n      tag_162\n      jump\t// in\n    tag_273:\n        /* \"#utility.yul\":7149:7242   */\n      swap4\n      pop\n        /* \"#utility.yul\":7266:7322   */\n      tag_274\n        /* \"#utility.yul\":7316:7321   */\n      dup4\n        /* \"#utility.yul\":7266:7322   */\n      tag_163\n      jump\t// in\n    tag_274:\n        /* \"#utility.yul\":7345:7352   */\n      dup1\n        /* \"#utility.yul\":7376:7377   */\n      0x00\n        /* \"#utility.yul\":7361:7645   */\n    tag_275:\n        /* \"#utility.yul\":7386:7392   */\n      dup4\n        /* \"#utility.yul\":7383:7384   */\n      dup2\n        /* \"#utility.yul\":7380:7393   */\n      lt\n        /* \"#utility.yul\":7361:7645   */\n      iszero\n      tag_277\n      jumpi\n        /* \"#utility.yul\":7462:7468   */\n      dup2\n        /* \"#utility.yul\":7456:7469   */\n      mload\n        /* \"#utility.yul\":7489:7552   */\n      tag_278\n        /* \"#utility.yul\":7548:7551   */\n      dup9\n        /* \"#utility.yul\":7533:7546   */\n      dup3\n        /* \"#utility.yul\":7489:7552   */\n      tag_165\n      jump\t// in\n    tag_278:\n        /* \"#utility.yul\":7482:7552   */\n      swap8\n      pop\n        /* \"#utility.yul\":7575:7635   */\n      tag_279\n        /* \"#utility.yul\":7628:7634   */\n      dup4\n        /* \"#utility.yul\":7575:7635   */\n      tag_166\n      jump\t// in\n    tag_279:\n        /* \"#utility.yul\":7565:7635   */\n      swap3\n      pop\n        /* \"#utility.yul\":7421:7645   */\n      pop\n        /* \"#utility.yul\":7408:7409   */\n      0x01\n        /* \"#utility.yul\":7405:7406   */\n      dup2\n        /* \"#utility.yul\":7401:7410   */\n      add\n        /* \"#utility.yul\":7396:7410   */\n      swap1\n      pop\n        /* \"#utility.yul\":7361:7645   */\n      jump(tag_275)\n    tag_277:\n        /* \"#utility.yul\":7365:7379   */\n      pop\n        /* \"#utility.yul\":7661:7664   */\n      dup6\n        /* \"#utility.yul\":7654:7664   */\n      swap4\n      pop\n        /* \"#utility.yul\":7062:7670   */\n      pop\n      pop\n      pop\n        /* \"#utility.yul\":6938:7670   */\n      swap3\n      swap2\n      pop\n      pop\n      jump\t// out\n        /* \"#utility.yul\":7676:8049   */\n    tag_42:\n        /* \"#utility.yul\":7819:7823   */\n      0x00\n        /* \"#utility.yul\":7857:7859   */\n      0x20\n        /* \"#utility.yul\":7846:7855   */\n      dup3\n        /* \"#utility.yul\":7842:7860   */\n      add\n        /* \"#utility.yul\":7834:7860   */\n      swap1\n      pop\n        /* \"#utility.yul\":7906:7915   */\n      dup2\n        /* \"#utility.yul\":7900:7904   */\n      dup2\n        /* \"#utility.yul\":7896:7916   */\n      sub\n        /* \"#utility.yul\":7892:7893   */\n      0x00\n        /* \"#utility.yul\":7881:7890   */\n      dup4\n        /* \"#utility.yul\":7877:7894   */\n      add\n        /* \"#utility.yul\":7870:7917   */\n      mstore\n        /* \"#utility.yul\":7934:8042   */\n      tag_281\n        /* \"#utility.yul\":8037:8041   */\n      dup2\n        /* \"#utility.yul\":8028:8034   */\n      dup5\n        /* \"#utility.yul\":7934:8042   */\n      tag_167\n      jump\t// in\n    tag_281:\n        /* \"#utility.yul\":7926:8042   */\n      swap1\n      pop\n        /* \"#utility.yul\":7676:8049   */\n      swap3\n      swap2\n      pop\n      pop\n      jump\t// out\n        /* \"#utility.yul\":8055:8674   */\n    tag_45:\n        /* \"#utility.yul\":8132:8138   */\n      0x00\n        /* \"#utility.yul\":8140:8146   */\n      dup1\n        /* \"#utility.yul\":8148:8154   */\n      0x00\n        /* \"#utility.yul\":8197:8199   */\n      0x60\n        /* \"#utility.yul\":8185:8194   */\n      dup5\n        /* \"#utility.yul\":8176:8183   */\n      dup7\n        /* \"#utility.yul\":8172:8195   */\n      sub\n        /* \"#utility.yul\":8168:8200   */\n      slt\n        /* \"#utility.yul\":8165:8284   */\n      iszero\n      tag_283\n      jumpi\n        /* \"#utility.yul\":8203:8282   */\n      tag_284\n      tag_138\n      jump\t// in\n    tag_284:\n        /* \"#utility.yul\":8165:8284   */\n    tag_283:\n        /* \"#utility.yul\":8323:8324   */\n      0x00\n        /* \"#utility.yul\":8348:8401   */\n      tag_285\n        /* \"#utility.yul\":8393:8400   */\n      dup7\n        /* \"#utility.yul\":8384:8390   */\n      dup3\n        /* \"#utility.yul\":8373:8382   */\n      dup8\n        /* \"#utility.yul\":8369:8391   */\n      add\n        /* \"#utility.yul\":8348:8401   */\n      tag_147\n      jump\t// in\n    tag_285:\n        /* \"#utility.yul\":8338:8401   */\n      swap4\n      pop\n        /* \"#utility.yul\":8294:8411   */\n      pop\n        /* \"#utility.yul\":8450:8452   */\n      0x20\n        /* \"#utility.yul\":8476:8529   */\n      tag_286\n        /* \"#utility.yul\":8521:8528   */\n      dup7\n        /* \"#utility.yul\":8512:8518   */\n      dup3\n        /* \"#utility.yul\":8501:8510   */\n      dup8\n        /* \"#utility.yul\":8497:8519   */\n      add\n        /* \"#utility.yul\":8476:8529   */\n      tag_147\n      jump\t// in\n    tag_286:\n        /* \"#utility.yul\":8466:8529   */\n      swap3\n      pop\n        /* \"#utility.yul\":8421:8539   */\n      pop\n        /* \"#utility.yul\":8578:8580   */\n      0x40\n        /* \"#utility.yul\":8604:8657   */\n      tag_287\n        /* \"#utility.yul\":8649:8656   */\n      dup7\n        /* \"#utility.yul\":8640:8646   */\n      dup3\n        /* \"#utility.yul\":8629:8638   */\n      dup8\n        /* \"#utility.yul\":8625:8647   */\n      add\n        /* \"#utility.yul\":8604:8657   */\n      tag_147\n      jump\t// in\n    tag_287:\n        /* \"#utility.yul\":8594:8657   */\n      swap2\n      pop\n        /* \"#utility.yul\":8549:8667   */\n      pop\n        /* \"#utility.yul\":8055:8674   */\n      swap3\n      pop\n      swap3\n      pop\n      swap3\n      jump\t// out\n        /* \"#utility.yul\":8680:8890   */\n    tag_48:\n        /* \"#utility.yul\":8767:8771   */\n      0x00\n        /* \"#utility.yul\":8805:8807   */\n      0x20\n        /* \"#utility.yul\":8794:8803   */\n      dup3\n        /* \"#utility.yul\":8790:8808   */\n      add\n        /* \"#utility.yul\":8782:8808   */\n      swap1\n      pop\n        /* \"#utility.yul\":8818:8883   */\n      tag_289\n        /* \"#utility.yul\":8880:8881   */\n      0x00\n        /* \"#utility.yul\":8869:8878   */\n      dup4\n        /* \"#utility.yul\":8865:8882   */\n      add\n        /* \"#utility.yul\":8856:8862   */\n      dup5\n        /* \"#utility.yul\":8818:8883   */\n      tag_160\n      jump\t// in\n    tag_289:\n        /* \"#utility.yul\":8680:8890   */\n      swap3\n      swap2\n      pop\n      pop\n      jump\t// out\n        /* \"#utility.yul\":8896:9013   */\n    tag_168:\n        /* \"#utility.yul\":9005:9006   */\n      0x00\n        /* \"#utility.yul\":9002:9003   */\n      dup1\n        /* \"#utility.yul\":8995:9007   */\n      revert\n        /* \"#utility.yul\":9019:9136   */\n    tag_169:\n        /* \"#utility.yul\":9128:9129   */\n      0x00\n        /* \"#utility.yul\":9125:9126   */\n      dup1\n        /* \"#utility.yul\":9118:9130   */\n      revert\n        /* \"#utility.yul\":9142:9322   */\n    tag_170:\n        /* \"#utility.yul\":9190:9267   */\n      0x4e487b7100000000000000000000000000000000000000000000000000000000\n        /* \"#utility.yul\":9187:9188   */\n      0x00\n        /* \"#utility.yul\":9180:9268   */\n      mstore\n        /* \"#utility.yul\":9287:9291   */\n      0x41\n        /* \"#utility.yul\":9284:9285   */\n      0x04\n        /* \"#utility.yul\":9277:9292   */\n      mstore\n        /* \"#utility.yul\":9311:9315   */\n      0x24\n        /* \"#utility.yul\":9308:9309   */\n      0x00\n        /* \"#utility.yul\":9301:9316   */\n      revert\n        /* \"#utility.yul\":9328:9609   */\n    tag_171:\n        /* \"#utility.yul\":9411:9438   */\n      tag_294\n        /* \"#utility.yul\":9433:9437   */\n      dup3\n        /* \"#utility.yul\":9411:9438   */\n      tag_154\n      jump\t// in\n    tag_294:\n        /* \"#utility.yul\":9403:9409   */\n      dup2\n        /* \"#utility.yul\":9399:9439   */\n      add\n        /* \"#utility.yul\":9541:9547   */\n      dup2\n        /* \"#utility.yul\":9529:9539   */\n      dup2\n        /* \"#utility.yul\":9526:9548   */\n      lt\n        /* \"#utility.yul\":9505:9523   */\n      0xffffffffffffffff\n        /* \"#utility.yul\":9493:9503   */\n      dup3\n        /* \"#utility.yul\":9490:9524   */\n      gt\n        /* \"#utility.yul\":9487:9549   */\n      or\n        /* \"#utility.yul\":9484:9572   */\n      iszero\n      tag_295\n      jumpi\n        /* \"#utility.yul\":9552:9570   */\n      tag_296\n      tag_170\n      jump\t// in\n    tag_296:\n        /* \"#utility.yul\":9484:9572   */\n    tag_295:\n        /* \"#utility.yul\":9592:9602   */\n      dup1\n        /* \"#utility.yul\":9588:9590   */\n      0x40\n        /* \"#utility.yul\":9581:9603   */\n      mstore\n        /* \"#utility.yul\":9371:9609   */\n      pop\n        /* \"#utility.yul\":9328:9609   */\n      pop\n      pop\n      jump\t// out\n        /* \"#utility.yul\":9615:9744   */\n    tag_172:\n        /* \"#utility.yul\":9649:9655   */\n      0x00\n        /* \"#utility.yul\":9676:9696   */\n      tag_298\n      tag_137\n      jump\t// in\n    tag_298:\n        /* \"#utility.yul\":9666:9696   */\n      swap1\n      pop\n        /* \"#utility.yul\":9705:9738   */\n      tag_299\n        /* \"#utility.yul\":9733:9737   */\n      dup3\n        /* \"#utility.yul\":9725:9731   */\n      dup3\n        /* \"#utility.yul\":9705:9738   */\n      tag_171\n      jump\t// in\n    tag_299:\n        /* \"#utility.yul\":9615:9744   */\n      swap2\n      swap1\n      pop\n      jump\t// out\n        /* \"#utility.yul\":9750:10058   */\n    tag_173:\n        /* \"#utility.yul\":9812:9816   */\n      0x00\n        /* \"#utility.yul\":9902:9920   */\n      0xffffffffffffffff\n        /* \"#utility.yul\":9894:9900   */\n      dup3\n        /* \"#utility.yul\":9891:9921   */\n      gt\n        /* \"#utility.yul\":9888:9944   */\n      iszero\n      tag_301\n      jumpi\n        /* \"#utility.yul\":9924:9942   */\n      tag_302\n      tag_170\n      jump\t// in\n    tag_302:\n        /* \"#utility.yul\":9888:9944   */\n    tag_301:\n        /* \"#utility.yul\":9962:9991   */\n      tag_303\n        /* \"#utility.yul\":9984:9990   */\n      dup3\n        /* \"#utility.yul\":9962:9991   */\n      tag_154\n      jump\t// in\n    tag_303:\n        /* \"#utility.yul\":9954:9991   */\n      swap1\n      pop\n        /* \"#utility.yul\":10046:10050   */\n      0x20\n        /* \"#utility.yul\":10040:10044   */\n      dup2\n        /* \"#utility.yul\":10036:10051   */\n      add\n        /* \"#utility.yul\":10028:10051   */\n      swap1\n      pop\n        /* \"#utility.yul\":9750:10058   */\n      swap2\n      swap1\n      pop\n      jump\t// out\n        /* \"#utility.yul\":10064:10210   */\n    tag_174:\n        /* \"#utility.yul\":10161:10167   */\n      dup3\n        /* \"#utility.yul\":10156:10159   */\n      dup2\n        /* \"#utility.yul\":10151:10154   */\n      dup4\n        /* \"#utility.yul\":10138:10168   */\n      calldatacopy\n        /* \"#utility.yul\":10202:10203   */\n      0x00\n        /* \"#utility.yul\":10193:10199   */\n      dup4\n        /* \"#utility.yul\":10188:10191   */\n      dup4\n        /* \"#utility.yul\":10184:10200   */\n      add\n        /* \"#utility.yul\":10177:10204   */\n      mstore\n        /* \"#utility.yul\":10064:10210   */\n      pop\n      pop\n      pop\n      jump\t// out\n        /* \"#utility.yul\":10216:10641   */\n    tag_175:\n        /* \"#utility.yul\":10294:10299   */\n      0x00\n        /* \"#utility.yul\":10319:10385   */\n      tag_306\n        /* \"#utility.yul\":10335:10384   */\n      tag_307\n        /* \"#utility.yul\":10377:10383   */\n      dup5\n        /* \"#utility.yul\":10335:10384   */\n      tag_173\n      jump\t// in\n    tag_307:\n        /* \"#utility.yul\":10319:10385   */\n      tag_172\n      jump\t// in\n    tag_306:\n        /* \"#utility.yul\":10310:10385   */\n      swap1\n      pop\n        /* \"#utility.yul\":10408:10414   */\n      dup3\n        /* \"#utility.yul\":10401:10406   */\n      dup2\n        /* \"#utility.yul\":10394:10415   */\n      mstore\n        /* \"#utility.yul\":10446:10450   */\n      0x20\n        /* \"#utility.yul\":10439:10444   */\n      dup2\n        /* \"#utility.yul\":10435:10451   */\n      add\n        /* \"#utility.yul\":10484:10487   */\n      dup5\n        /* \"#utility.yul\":10475:10481   */\n      dup5\n        /* \"#utility.yul\":10470:10473   */\n      dup5\n        /* \"#utility.yul\":10466:10482   */\n      add\n        /* \"#utility.yul\":10463:10488   */\n      gt\n        /* \"#utility.yul\":10460:10572   */\n      iszero\n      tag_308\n      jumpi\n        /* \"#utility.yul\":10491:10570   */\n      tag_309\n      tag_169\n      jump\t// in\n    tag_309:\n        /* \"#utility.yul\":10460:10572   */\n    tag_308:\n        /* \"#utility.yul\":10581:10635   */\n      tag_310\n        /* \"#utility.yul\":10628:10634   */\n      dup5\n        /* \"#utility.yul\":10623:10626   */\n      dup3\n        /* \"#utility.yul\":10618:10621   */\n      dup6\n        /* \"#utility.yul\":10581:10635   */\n      tag_174\n      jump\t// in\n    tag_310:\n        /* \"#utility.yul\":10300:10641   */\n      pop\n        /* \"#utility.yul\":10216:10641   */\n      swap4\n      swap3\n      pop\n      pop\n      pop\n      jump\t// out\n        /* \"#utility.yul\":10661:11001   */\n    tag_176:\n        /* \"#utility.yul\":10717:10722   */\n      0x00\n        /* \"#utility.yul\":10766:10769   */\n      dup3\n        /* \"#utility.yul\":10759:10763   */\n      0x1f\n        /* \"#utility.yul\":10751:10757   */\n      dup4\n        /* \"#utility.yul\":10747:10764   */\n      add\n        /* \"#utility.yul\":10743:10770   */\n      slt\n        /* \"#utility.yul\":10733:10855   */\n      tag_312\n      jumpi\n        /* \"#utility.yul\":10774:10853   */\n      tag_313\n      tag_168\n      jump\t// in\n    tag_313:\n        /* \"#utility.yul\":10733:10855   */\n    tag_312:\n        /* \"#utility.yul\":10891:10897   */\n      dup2\n        /* \"#utility.yul\":10878:10898   */\n      calldataload\n        /* \"#utility.yul\":10916:10995   */\n      tag_314\n        /* \"#utility.yul\":10991:10994   */\n      dup5\n        /* \"#utility.yul\":10983:10989   */\n      dup3\n        /* \"#utility.yul\":10976:10980   */\n      0x20\n        /* \"#utility.yul\":10968:10974   */\n      dup7\n        /* \"#utility.yul\":10964:10981   */\n      add\n        /* \"#utility.yul\":10916:10995   */\n      tag_175\n      jump\t// in\n    tag_314:\n        /* \"#utility.yul\":10907:10995   */\n      swap2\n      pop\n        /* \"#utility.yul\":10723:11001   */\n      pop\n        /* \"#utility.yul\":10661:11001   */\n      swap3\n      swap2\n      pop\n      pop\n      jump\t// out\n        /* \"#utility.yul\":11007:11661   */\n    tag_51:\n        /* \"#utility.yul\":11085:11091   */\n      0x00\n        /* \"#utility.yul\":11093:11099   */\n      dup1\n        /* \"#utility.yul\":11142:11144   */\n      0x40\n        /* \"#utility.yul\":11130:11139   */\n      dup4\n        /* \"#utility.yul\":11121:11128   */\n      dup6\n        /* \"#utility.yul\":11117:11140   */\n      sub\n        /* \"#utility.yul\":11113:11145   */\n      slt\n        /* \"#utility.yul\":11110:11229   */\n      iszero\n      tag_316\n      jumpi\n        /* \"#utility.yul\":11148:11227   */\n      tag_317\n      tag_138\n      jump\t// in\n    tag_317:\n        /* \"#utility.yul\":11110:11229   */\n    tag_316:\n        /* \"#utility.yul\":11268:11269   */\n      0x00\n        /* \"#utility.yul\":11293:11346   */\n      tag_318\n        /* \"#utility.yul\":11338:11345   */\n      dup6\n        /* \"#utility.yul\":11329:11335   */\n      dup3\n        /* \"#utility.yul\":11318:11327   */\n      dup7\n        /* \"#utility.yul\":11314:11336   */\n      add\n        /* \"#utility.yul\":11293:11346   */\n      tag_142\n      jump\t// in\n    tag_318:\n        /* \"#utility.yul\":11283:11346   */\n      swap3\n      pop\n        /* \"#utility.yul\":11239:11356   */\n      pop\n        /* \"#utility.yul\":11423:11425   */\n      0x20\n        /* \"#utility.yul\":11412:11421   */\n      dup4\n        /* \"#utility.yul\":11408:11426   */\n      add\n        /* \"#utility.yul\":11395:11427   */\n      calldataload\n        /* \"#utility.yul\":11454:11472   */\n      0xffffffffffffffff\n        /* \"#utility.yul\":11446:11452   */\n      dup2\n        /* \"#utility.yul\":11443:11473   */\n      gt\n        /* \"#utility.yul\":11440:11557   */\n      iszero\n      tag_319\n      jumpi\n        /* \"#utility.yul\":11476:11555   */\n      tag_320\n      tag_139\n      jump\t// in\n    tag_320:\n        /* \"#utility.yul\":11440:11557   */\n    tag_319:\n        /* \"#utility.yul\":11581:11644   */\n      tag_321\n        /* \"#utility.yul\":11636:11643   */\n      dup6\n        /* \"#utility.yul\":11627:11633   */\n      dup3\n        /* \"#utility.yul\":11616:11625   */\n      dup7\n        /* \"#utility.yul\":11612:11634   */\n      add\n        /* \"#utility.yul\":11581:11644   */\n      tag_176\n      jump\t// in\n    tag_321:\n        /* \"#utility.yul\":11571:11644   */\n      swap2\n      pop\n        /* \"#utility.yul\":11366:11654   */\n      pop\n        /* \"#utility.yul\":11007:11661   */\n      swap3\n      pop\n      swap3\n      swap1\n      pop\n      jump\t// out\n        /* \"#utility.yul\":11667:12141   */\n    tag_59:\n        /* \"#utility.yul\":11735:11741   */\n      0x00\n        /* \"#utility.yul\":11743:11749   */\n      dup1\n        /* \"#utility.yul\":11792:11794   */\n      0x40\n        /* \"#utility.yul\":11780:11789   */\n      dup4\n        /* \"#utility.yul\":11771:11778   */\n      dup6\n        /* \"#utility.yul\":11767:11790   */\n      sub\n        /* \"#utility.yul\":11763:11795   */\n      slt\n        /* \"#utility.yul\":11760:11879   */\n      iszero\n      tag_323\n      jumpi\n        /* \"#utility.yul\":11798:11877   */\n      tag_324\n      tag_138\n      jump\t// in\n    tag_324:\n        /* \"#utility.yul\":11760:11879   */\n    tag_323:\n        /* \"#utility.yul\":11918:11919   */\n      0x00\n        /* \"#utility.yul\":11943:11996   */\n      tag_325\n        /* \"#utility.yul\":11988:11995   */\n      dup6\n        /* \"#utility.yul\":11979:11985   */\n      dup3\n        /* \"#utility.yul\":11968:11977   */\n      dup7\n        /* \"#utility.yul\":11964:11986   */\n      add\n        /* \"#utility.yul\":11943:11996   */\n      tag_147\n      jump\t// in\n    tag_325:\n        /* \"#utility.yul\":11933:11996   */\n      swap3\n      pop\n        /* \"#utility.yul\":11889:12006   */\n      pop\n        /* \"#utility.yul\":12045:12047   */\n      0x20\n        /* \"#utility.yul\":12071:12124   */\n      tag_326\n        /* \"#utility.yul\":12116:12123   */\n      dup6\n        /* \"#utility.yul\":12107:12113   */\n      dup3\n        /* \"#utility.yul\":12096:12105   */\n      dup7\n        /* \"#utility.yul\":12092:12114   */\n      add\n        /* \"#utility.yul\":12071:12124   */\n      tag_147\n      jump\t// in\n    tag_326:\n        /* \"#utility.yul\":12061:12124   */\n      swap2\n      pop\n        /* \"#utility.yul\":12016:12134   */\n      pop\n        /* \"#utility.yul\":11667:12141   */\n      swap3\n      pop\n      swap3\n      swap1\n      pop\n      jump\t// out\n        /* \"#utility.yul\":12147:12285   */\n    tag_177:\n        /* \"#utility.yul\":12228:12260   */\n      tag_328\n        /* \"#utility.yul\":12254:12259   */\n      dup2\n        /* \"#utility.yul\":12228:12260   */\n      tag_148\n      jump\t// in\n    tag_328:\n        /* \"#utility.yul\":12221:12226   */\n      dup2\n        /* \"#utility.yul\":12218:12261   */\n      eq\n        /* \"#utility.yul\":12208:12279   */\n      tag_329\n      jumpi\n        /* \"#utility.yul\":12275:12276   */\n      0x00\n        /* \"#utility.yul\":12272:12273   */\n      dup1\n        /* \"#utility.yul\":12265:12277   */\n      revert\n        /* \"#utility.yul\":12208:12279   */\n    tag_329:\n        /* \"#utility.yul\":12147:12285   */\n      pop\n      jump\t// out\n        /* \"#utility.yul\":12291:12450   */\n    tag_178:\n        /* \"#utility.yul\":12356:12361   */\n      0x00\n        /* \"#utility.yul\":12387:12393   */\n      dup2\n        /* \"#utility.yul\":12381:12394   */\n      mload\n        /* \"#utility.yul\":12372:12394   */\n      swap1\n      pop\n        /* \"#utility.yul\":12403:12444   */\n      tag_331\n        /* \"#utility.yul\":12438:12443   */\n      dup2\n        /* \"#utility.yul\":12403:12444   */\n      tag_177\n      jump\t// in\n    tag_331:\n        /* \"#utility.yul\":12291:12450   */\n      swap3\n      swap2\n      pop\n      pop\n      jump\t// out\n        /* \"#utility.yul\":12456:12823   */\n    tag_70:\n        /* \"#utility.yul\":12534:12540   */\n      0x00\n        /* \"#utility.yul\":12583:12585   */\n      0x20\n        /* \"#utility.yul\":12571:12580   */\n      dup3\n        /* \"#utility.yul\":12562:12569   */\n      dup5\n        /* \"#utility.yul\":12558:12581   */\n      sub\n        /* \"#utility.yul\":12554:12586   */\n      slt\n        /* \"#utility.yul\":12551:12670   */\n      iszero\n      tag_333\n      jumpi\n        /* \"#utility.yul\":12589:12668   */\n      tag_334\n      tag_138\n      jump\t// in\n    tag_334:\n        /* \"#utility.yul\":12551:12670   */\n    tag_333:\n        /* \"#utility.yul\":12709:12710   */\n      0x00\n        /* \"#utility.yul\":12734:12806   */\n      tag_335\n        /* \"#utility.yul\":12798:12805   */\n      dup5\n        /* \"#utility.yul\":12789:12795   */\n      dup3\n        /* \"#utility.yul\":12778:12787   */\n      dup6\n        /* \"#utility.yul\":12774:12796   */\n      add\n        /* \"#utility.yul\":12734:12806   */\n      tag_178\n      jump\t// in\n    tag_335:\n        /* \"#utility.yul\":12724:12806   */\n      swap2\n      pop\n        /* \"#utility.yul\":12680:12816   */\n      pop\n        /* \"#utility.yul\":12456:12823   */\n      swap3\n      swap2\n      pop\n      pop\n      jump\t// out\n        /* \"#utility.yul\":12829:12972   */\n    tag_179:\n        /* \"#utility.yul\":12886:12891   */\n      0x00\n        /* \"#utility.yul\":12917:12923   */\n      dup2\n        /* \"#utility.yul\":12911:12924   */\n      mload\n        /* \"#utility.yul\":12902:12924   */\n      swap1\n      pop\n        /* \"#utility.yul\":12933:12966   */\n      tag_337\n        /* \"#utility.yul\":12960:12965   */\n      dup2\n        /* \"#utility.yul\":12933:12966   */\n      tag_141\n      jump\t// in\n    tag_337:\n        /* \"#utility.yul\":12829:12972   */\n      swap3\n      swap2\n      pop\n      pop\n      jump\t// out\n        /* \"#utility.yul\":12978:13329   */\n    tag_74:\n        /* \"#utility.yul\":13048:13054   */\n      0x00\n        /* \"#utility.yul\":13097:13099   */\n      0x20\n        /* \"#utility.yul\":13085:13094   */\n      dup3\n        /* \"#utility.yul\":13076:13083   */\n      dup5\n        /* \"#utility.yul\":13072:13095   */\n      sub\n        /* \"#utility.yul\":13068:13100   */\n      slt\n        /* \"#utility.yul\":13065:13184   */\n      iszero\n      tag_339\n      jumpi\n        /* \"#utility.yul\":13103:13182   */\n      tag_340\n      tag_138\n      jump\t// in\n    tag_340:\n        /* \"#utility.yul\":13065:13184   */\n    tag_339:\n        /* \"#utility.yul\":13223:13224   */\n      0x00\n        /* \"#utility.yul\":13248:13312   */\n      tag_341\n        /* \"#utility.yul\":13304:13311   */\n      dup5\n        /* \"#utility.yul\":13295:13301   */\n      dup3\n        /* \"#utility.yul\":13284:13293   */\n      dup6\n        /* \"#utility.yul\":13280:13302   */\n      add\n        /* \"#utility.yul\":13248:13312   */\n      tag_179\n      jump\t// in\n    tag_341:\n        /* \"#utility.yul\":13238:13312   */\n      swap2\n      pop\n        /* \"#utility.yul\":13194:13322   */\n      pop\n        /* \"#utility.yul\":12978:13329   */\n      swap3\n      swap2\n      pop\n      pop\n      jump\t// out\n        /* \"#utility.yul\":13335:13478   */\n    tag_180:\n        /* \"#utility.yul\":13392:13397   */\n      0x00\n        /* \"#utility.yul\":13423:13429   */\n      dup2\n        /* \"#utility.yul\":13417:13430   */\n      mload\n        /* \"#utility.yul\":13408:13430   */\n      swap1\n      pop\n        /* \"#utility.yul\":13439:13472   */\n      tag_343\n        /* \"#utility.yul\":13466:13471   */\n      dup2\n        /* \"#utility.yul\":13439:13472   */\n      tag_146\n      jump\t// in\n    tag_343:\n        /* \"#utility.yul\":13335:13478   */\n      swap3\n      swap2\n      pop\n      pop\n      jump\t// out\n        /* \"#utility.yul\":13484:13835   */\n    tag_78:\n        /* \"#utility.yul\":13554:13560   */\n      0x00\n        /* \"#utility.yul\":13603:13605   */\n      0x20\n        /* \"#utility.yul\":13591:13600   */\n      dup3\n        /* \"#utility.yul\":13582:13589   */\n      dup5\n        /* \"#utility.yul\":13578:13601   */\n      sub\n        /* \"#utility.yul\":13574:13606   */\n      slt\n        /* \"#utility.yul\":13571:13690   */\n      iszero\n      tag_345\n      jumpi\n        /* \"#utility.yul\":13609:13688   */\n      tag_346\n      tag_138\n      jump\t// in\n    tag_346:\n        /* \"#utility.yul\":13571:13690   */\n    tag_345:\n        /* \"#utility.yul\":13729:13730   */\n      0x00\n        /* \"#utility.yul\":13754:13818   */\n      tag_347\n        /* \"#utility.yul\":13810:13817   */\n      dup5\n        /* \"#utility.yul\":13801:13807   */\n      dup3\n        /* \"#utility.yul\":13790:13799   */\n      dup6\n        /* \"#utility.yul\":13786:13808   */\n      add\n        /* \"#utility.yul\":13754:13818   */\n      tag_180\n      jump\t// in\n    tag_347:\n        /* \"#utility.yul\":13744:13818   */\n      swap2\n      pop\n        /* \"#utility.yul\":13700:13828   */\n      pop\n        /* \"#utility.yul\":13484:13835   */\n      swap3\n      swap2\n      pop\n      pop\n      jump\t// out\n        /* \"#utility.yul\":13841:14275   */\n    tag_181:\n        /* \"#utility.yul\":13930:13935   */\n      0x00\n        /* \"#utility.yul\":13955:14021   */\n      tag_349\n        /* \"#utility.yul\":13971:14020   */\n      tag_350\n        /* \"#utility.yul\":14013:14019   */\n      dup5\n        /* \"#utility.yul\":13971:14020   */\n      tag_173\n      jump\t// in\n    tag_350:\n        /* \"#utility.yul\":13955:14021   */\n      tag_172\n      jump\t// in\n    tag_349:\n        /* \"#utility.yul\":13946:14021   */\n      swap1\n      pop\n        /* \"#utility.yul\":14044:14050   */\n      dup3\n        /* \"#utility.yul\":14037:14042   */\n      dup2\n        /* \"#utility.yul\":14030:14051   */\n      mstore\n        /* \"#utility.yul\":14082:14086   */\n      0x20\n        /* \"#utility.yul\":14075:14080   */\n      dup2\n        /* \"#utility.yul\":14071:14087   */\n      add\n        /* \"#utility.yul\":14120:14123   */\n      dup5\n        /* \"#utility.yul\":14111:14117   */\n      dup5\n        /* \"#utility.yul\":14106:14109   */\n      dup5\n        /* \"#utility.yul\":14102:14118   */\n      add\n        /* \"#utility.yul\":14099:14124   */\n      gt\n        /* \"#utility.yul\":14096:14208   */\n      iszero\n      tag_351\n      jumpi\n        /* \"#utility.yul\":14127:14206   */\n      tag_352\n      tag_169\n      jump\t// in\n    tag_352:\n        /* \"#utility.yul\":14096:14208   */\n    tag_351:\n        /* \"#utility.yul\":14217:14269   */\n      tag_353\n        /* \"#utility.yul\":14262:14268   */\n      dup5\n        /* \"#utility.yul\":14257:14260   */\n      dup3\n        /* \"#utility.yul\":14252:14255   */\n      dup6\n        /* \"#utility.yul\":14217:14269   */\n      tag_153\n      jump\t// in\n    tag_353:\n        /* \"#utility.yul\":13936:14275   */\n      pop\n        /* \"#utility.yul\":13841:14275   */\n      swap4\n      swap3\n      pop\n      pop\n      pop\n      jump\t// out\n        /* \"#utility.yul\":14295:14650   */\n    tag_182:\n        /* \"#utility.yul\":14362:14367   */\n      0x00\n        /* \"#utility.yul\":14411:14414   */\n      dup3\n        /* \"#utility.yul\":14404:14408   */\n      0x1f\n        /* \"#utility.yul\":14396:14402   */\n      dup4\n        /* \"#utility.yul\":14392:14409   */\n      add\n        /* \"#utility.yul\":14388:14415   */\n      slt\n        /* \"#utility.yul\":14378:14500   */\n      tag_355\n      jumpi\n        /* \"#utility.yul\":14419:14498   */\n      tag_356\n      tag_168\n      jump\t// in\n    tag_356:\n        /* \"#utility.yul\":14378:14500   */\n    tag_355:\n        /* \"#utility.yul\":14529:14535   */\n      dup2\n        /* \"#utility.yul\":14523:14536   */\n      mload\n        /* \"#utility.yul\":14554:14644   */\n      tag_357\n        /* \"#utility.yul\":14640:14643   */\n      dup5\n        /* \"#utility.yul\":14632:14638   */\n      dup3\n        /* \"#utility.yul\":14625:14629   */\n      0x20\n        /* \"#utility.yul\":14617:14623   */\n      dup7\n        /* \"#utility.yul\":14613:14630   */\n      add\n        /* \"#utility.yul\":14554:14644   */\n      tag_181\n      jump\t// in\n    tag_357:\n        /* \"#utility.yul\":14545:14644   */\n      swap2\n      pop\n        /* \"#utility.yul\":14368:14650   */\n      pop\n        /* \"#utility.yul\":14295:14650   */\n      swap3\n      swap2\n      pop\n      pop\n      jump\t// out\n        /* \"#utility.yul\":14656:15180   */\n    tag_85:\n        /* \"#utility.yul\":14736:14742   */\n      0x00\n        /* \"#utility.yul\":14785:14787   */\n      0x20\n        /* \"#utility.yul\":14773:14782   */\n      dup3\n        /* \"#utility.yul\":14764:14771   */\n      dup5\n        /* \"#utility.yul\":14760:14783   */\n      sub\n        /* \"#utility.yul\":14756:14788   */\n      slt\n        /* \"#utility.yul\":14753:14872   */\n      iszero\n      tag_359\n      jumpi\n        /* \"#utility.yul\":14791:14870   */\n      tag_360\n      tag_138\n      jump\t// in\n    tag_360:\n        /* \"#utility.yul\":14753:14872   */\n    tag_359:\n        /* \"#utility.yul\":14932:14933   */\n      0x00\n        /* \"#utility.yul\":14921:14930   */\n      dup3\n        /* \"#utility.yul\":14917:14934   */\n      add\n        /* \"#utility.yul\":14911:14935   */\n      mload\n        /* \"#utility.yul\":14962:14980   */\n      0xffffffffffffffff\n        /* \"#utility.yul\":14954:14960   */\n      dup2\n        /* \"#utility.yul\":14951:14981   */\n      gt\n        /* \"#utility.yul\":14948:15065   */\n      iszero\n      tag_361\n      jumpi\n        /* \"#utility.yul\":14984:15063   */\n      tag_362\n      tag_139\n      jump\t// in\n    tag_362:\n        /* \"#utility.yul\":14948:15065   */\n    tag_361:\n        /* \"#utility.yul\":15089:15163   */\n      tag_363\n        /* \"#utility.yul\":15155:15162   */\n      dup5\n        /* \"#utility.yul\":15146:15152   */\n      dup3\n        /* \"#utility.yul\":15135:15144   */\n      dup6\n        /* \"#utility.yul\":15131:15153   */\n      add\n        /* \"#utility.yul\":15089:15163   */\n      tag_182\n      jump\t// in\n    tag_363:\n        /* \"#utility.yul\":15079:15163   */\n      swap2\n      pop\n        /* \"#utility.yul\":14882:15173   */\n      pop\n        /* \"#utility.yul\":14656:15180   */\n      swap3\n      swap2\n      pop\n      pop\n      jump\t// out\n        /* \"#utility.yul\":15186:15364   */\n    tag_183:\n        /* \"#utility.yul\":15326:15356   */\n      0x4d6178696d756d2076616c756520666f72207261746520697320352e00000000\n        /* \"#utility.yul\":15322:15323   */\n      0x00\n        /* \"#utility.yul\":15314:15320   */\n      dup3\n        /* \"#utility.yul\":15310:15324   */\n      add\n        /* \"#utility.yul\":15303:15357   */\n      mstore\n        /* \"#utility.yul\":15186:15364   */\n      pop\n      jump\t// out\n        /* \"#utility.yul\":15370:15736   */\n    tag_184:\n        /* \"#utility.yul\":15512:15515   */\n      0x00\n        /* \"#utility.yul\":15533:15600   */\n      tag_366\n        /* \"#utility.yul\":15597:15599   */\n      0x1c\n        /* \"#utility.yul\":15592:15595   */\n      dup4\n        /* \"#utility.yul\":15533:15600   */\n      tag_152\n      jump\t// in\n    tag_366:\n        /* \"#utility.yul\":15526:15600   */\n      swap2\n      pop\n        /* \"#utility.yul\":15609:15702   */\n      tag_367\n        /* \"#utility.yul\":15698:15701   */\n      dup3\n        /* \"#utility.yul\":15609:15702   */\n      tag_183\n      jump\t// in\n    tag_367:\n        /* \"#utility.yul\":15727:15729   */\n      0x20\n        /* \"#utility.yul\":15722:15725   */\n      dup3\n        /* \"#utility.yul\":15718:15730   */\n      add\n        /* \"#utility.yul\":15711:15730   */\n      swap1\n      pop\n        /* \"#utility.yul\":15370:15736   */\n      swap2\n      swap1\n      pop\n      jump\t// out\n        /* \"#utility.yul\":15742:16161   */\n    tag_89:\n        /* \"#utility.yul\":15908:15912   */\n      0x00\n        /* \"#utility.yul\":15946:15948   */\n      0x20\n        /* \"#utility.yul\":15935:15944   */\n      dup3\n        /* \"#utility.yul\":15931:15949   */\n      add\n        /* \"#utility.yul\":15923:15949   */\n      swap1\n      pop\n        /* \"#utility.yul\":15995:16004   */\n      dup2\n        /* \"#utility.yul\":15989:15993   */\n      dup2\n        /* \"#utility.yul\":15985:16005   */\n      sub\n        /* \"#utility.yul\":15981:15982   */\n      0x00\n        /* \"#utility.yul\":15970:15979   */\n      dup4\n        /* \"#utility.yul\":15966:15983   */\n      add\n        /* \"#utility.yul\":15959:16006   */\n      mstore\n        /* \"#utility.yul\":16023:16154   */\n      tag_369\n        /* \"#utility.yul\":16149:16153   */\n      dup2\n        /* \"#utility.yul\":16023:16154   */\n      tag_184\n      jump\t// in\n    tag_369:\n        /* \"#utility.yul\":16015:16154   */\n      swap1\n      pop\n        /* \"#utility.yul\":15742:16161   */\n      swap2\n      swap1\n      pop\n      jump\t// out\n        /* \"#utility.yul\":16167:16345   */\n    tag_185:\n        /* \"#utility.yul\":16307:16337   */\n      0x4d696e696d756d2076616c756520666f72207261746520697320312e00000000\n        /* \"#utility.yul\":16303:16304   */\n      0x00\n        /* \"#utility.yul\":16295:16301   */\n      dup3\n        /* \"#utility.yul\":16291:16305   */\n      add\n        /* \"#utility.yul\":16284:16338   */\n      mstore\n        /* \"#utility.yul\":16167:16345   */\n      pop\n      jump\t// out\n        /* \"#utility.yul\":16351:16717   */\n    tag_186:\n        /* \"#utility.yul\":16493:16496   */\n      0x00\n        /* \"#utility.yul\":16514:16581   */\n      tag_372\n        /* \"#utility.yul\":16578:16580   */\n      0x1c\n        /* \"#utility.yul\":16573:16576   */\n      dup4\n        /* \"#utility.yul\":16514:16581   */\n      tag_152\n      jump\t// in\n    tag_372:\n        /* \"#utility.yul\":16507:16581   */\n      swap2\n      pop\n        /* \"#utility.yul\":16590:16683   */\n      tag_373\n        /* \"#utility.yul\":16679:16682   */\n      dup3\n        /* \"#utility.yul\":16590:16683   */\n      tag_185\n      jump\t// in\n    tag_373:\n        /* \"#utility.yul\":16708:16710   */\n      0x20\n        /* \"#utility.yul\":16703:16706   */\n      dup3\n        /* \"#utility.yul\":16699:16711   */\n      add\n        /* \"#utility.yul\":16692:16711   */\n      swap1\n      pop\n        /* \"#utility.yul\":16351:16717   */\n      swap2\n      swap1\n      pop\n      jump\t// out\n        /* \"#utility.yul\":16723:17142   */\n    tag_92:\n        /* \"#utility.yul\":16889:16893   */\n      0x00\n        /* \"#utility.yul\":16927:16929   */\n      0x20\n        /* \"#utility.yul\":16916:16925   */\n      dup3\n        /* \"#utility.yul\":16912:16930   */\n      add\n        /* \"#utility.yul\":16904:16930   */\n      swap1\n      pop\n        /* \"#utility.yul\":16976:16985   */\n      dup2\n        /* \"#utility.yul\":16970:16974   */\n      dup2\n        /* \"#utility.yul\":16966:16986   */\n      sub\n        /* \"#utility.yul\":16962:16963   */\n      0x00\n        /* \"#utility.yul\":16951:16960   */\n      dup4\n        /* \"#utility.yul\":16947:16964   */\n      add\n        /* \"#utility.yul\":16940:16987   */\n      mstore\n        /* \"#utility.yul\":17004:17135   */\n      tag_375\n        /* \"#utility.yul\":17130:17134   */\n      dup2\n        /* \"#utility.yul\":17004:17135   */\n      tag_186\n      jump\t// in\n    tag_375:\n        /* \"#utility.yul\":16996:17135   */\n      swap1\n      pop\n        /* \"#utility.yul\":16723:17142   */\n      swap2\n      swap1\n      pop\n      jump\t// out\n        /* \"#utility.yul\":17148:17325   */\n    tag_187:\n        /* \"#utility.yul\":17288:17317   */\n      0x596f75277265206e6f7420616c6c6f77656420746f20726174652e0000000000\n        /* \"#utility.yul\":17284:17285   */\n      0x00\n        /* \"#utility.yul\":17276:17282   */\n      dup3\n        /* \"#utility.yul\":17272:17286   */\n      add\n        /* \"#utility.yul\":17265:17318   */\n      mstore\n        /* \"#utility.yul\":17148:17325   */\n      pop\n      jump\t// out\n        /* \"#utility.yul\":17331:17697   */\n    tag_188:\n        /* \"#utility.yul\":17473:17476   */\n      0x00\n        /* \"#utility.yul\":17494:17561   */\n      tag_378\n        /* \"#utility.yul\":17558:17560   */\n      0x1b\n        /* \"#utility.yul\":17553:17556   */\n      dup4\n        /* \"#utility.yul\":17494:17561   */\n      tag_152\n      jump\t// in\n    tag_378:\n        /* \"#utility.yul\":17487:17561   */\n      swap2\n      pop\n        /* \"#utility.yul\":17570:17663   */\n      tag_379\n        /* \"#utility.yul\":17659:17662   */\n      dup3\n        /* \"#utility.yul\":17570:17663   */\n      tag_187\n      jump\t// in\n    tag_379:\n        /* \"#utility.yul\":17688:17690   */\n      0x20\n        /* \"#utility.yul\":17683:17686   */\n      dup3\n        /* \"#utility.yul\":17679:17691   */\n      add\n        /* \"#utility.yul\":17672:17691   */\n      swap1\n      pop\n        /* \"#utility.yul\":17331:17697   */\n      swap2\n      swap1\n      pop\n      jump\t// out\n        /* \"#utility.yul\":17703:18122   */\n    tag_96:\n        /* \"#utility.yul\":17869:17873   */\n      0x00\n        /* \"#utility.yul\":17907:17909   */\n      0x20\n        /* \"#utility.yul\":17896:17905   */\n      dup3\n        /* \"#utility.yul\":17892:17910   */\n      add\n        /* \"#utility.yul\":17884:17910   */\n      swap1\n      pop\n        /* \"#utility.yul\":17956:17965   */\n      dup2\n        /* \"#utility.yul\":17950:17954   */\n      dup2\n        /* \"#utility.yul\":17946:17966   */\n      sub\n        /* \"#utility.yul\":17942:17943   */\n      0x00\n        /* \"#utility.yul\":17931:17940   */\n      dup4\n        /* \"#utility.yul\":17927:17944   */\n      add\n        /* \"#utility.yul\":17920:17967   */\n      mstore\n        /* \"#utility.yul\":17984:18115   */\n      tag_381\n        /* \"#utility.yul\":18110:18114   */\n      dup2\n        /* \"#utility.yul\":17984:18115   */\n      tag_188\n      jump\t// in\n    tag_381:\n        /* \"#utility.yul\":17976:18115   */\n      swap1\n      pop\n        /* \"#utility.yul\":17703:18122   */\n      swap2\n      swap1\n      pop\n      jump\t// out\n        /* \"#utility.yul\":18128:18308   */\n    tag_189:\n        /* \"#utility.yul\":18176:18253   */\n      0x4e487b7100000000000000000000000000000000000000000000000000000000\n        /* \"#utility.yul\":18173:18174   */\n      0x00\n        /* \"#utility.yul\":18166:18254   */\n      mstore\n        /* \"#utility.yul\":18273:18277   */\n      0x11\n        /* \"#utility.yul\":18270:18271   */\n      0x04\n        /* \"#utility.yul\":18263:18278   */\n      mstore\n        /* \"#utility.yul\":18297:18301   */\n      0x24\n        /* \"#utility.yul\":18294:18295   */\n      0x00\n        /* \"#utility.yul\":18287:18302   */\n      revert\n        /* \"#utility.yul\":18314:18505   */\n    tag_98:\n        /* \"#utility.yul\":18354:18357   */\n      0x00\n        /* \"#utility.yul\":18373:18393   */\n      tag_384\n        /* \"#utility.yul\":18391:18392   */\n      dup3\n        /* \"#utility.yul\":18373:18393   */\n      tag_140\n      jump\t// in\n    tag_384:\n        /* \"#utility.yul\":18368:18393   */\n      swap2\n      pop\n        /* \"#utility.yul\":18407:18427   */\n      tag_385\n        /* \"#utility.yul\":18425:18426   */\n      dup4\n        /* \"#utility.yul\":18407:18427   */\n      tag_140\n      jump\t// in\n    tag_385:\n        /* \"#utility.yul\":18402:18427   */\n      swap3\n      pop\n        /* \"#utility.yul\":18450:18451   */\n      dup3\n        /* \"#utility.yul\":18447:18448   */\n      dup3\n        /* \"#utility.yul\":18443:18452   */\n      add\n        /* \"#utility.yul\":18436:18452   */\n      swap1\n      pop\n        /* \"#utility.yul\":18471:18474   */\n      dup1\n        /* \"#utility.yul\":18468:18469   */\n      dup3\n        /* \"#utility.yul\":18465:18475   */\n      gt\n        /* \"#utility.yul\":18462:18498   */\n      iszero\n      tag_386\n      jumpi\n        /* \"#utility.yul\":18478:18496   */\n      tag_387\n      tag_189\n      jump\t// in\n    tag_387:\n        /* \"#utility.yul\":18462:18498   */\n    tag_386:\n        /* \"#utility.yul\":18314:18505   */\n      swap3\n      swap2\n      pop\n      pop\n      jump\t// out\n        /* \"#utility.yul\":18511:18744   */\n    tag_100:\n        /* \"#utility.yul\":18550:18553   */\n      0x00\n        /* \"#utility.yul\":18573:18597   */\n      tag_389\n        /* \"#utility.yul\":18591:18596   */\n      dup3\n        /* \"#utility.yul\":18573:18597   */\n      tag_140\n      jump\t// in\n    tag_389:\n        /* \"#utility.yul\":18564:18597   */\n      swap2\n      pop\n        /* \"#utility.yul\":18619:18685   */\n      0xffffffffffffffffffffffffffffffffffffffffffffffffffffffffffffffff\n        /* \"#utility.yul\":18612:18617   */\n      dup3\n        /* \"#utility.yul\":18609:18686   */\n      sub\n        /* \"#utility.yul\":18606:18709   */\n      tag_390\n      jumpi\n        /* \"#utility.yul\":18689:18707   */\n      tag_391\n      tag_189\n      jump\t// in\n    tag_391:\n        /* \"#utility.yul\":18606:18709   */\n    tag_390:\n        /* \"#utility.yul\":18736:18737   */\n      0x01\n        /* \"#utility.yul\":18729:18734   */\n      dup3\n        /* \"#utility.yul\":18725:18738   */\n      add\n        /* \"#utility.yul\":18718:18738   */\n      swap1\n      pop\n        /* \"#utility.yul\":18511:18744   */\n      swap2\n      swap1\n      pop\n      jump\t// out\n        /* \"#utility.yul\":18750:19315   */\n    tag_108:\n        /* \"#utility.yul\":18935:18939   */\n      0x00\n        /* \"#utility.yul\":18973:18975   */\n      0x60\n        /* \"#utility.yul\":18962:18971   */\n      dup3\n        /* \"#utility.yul\":18958:18976   */\n      add\n        /* \"#utility.yul\":18950:18976   */\n      swap1\n      pop\n        /* \"#utility.yul\":18986:19057   */\n      tag_393\n        /* \"#utility.yul\":19054:19055   */\n      0x00\n        /* \"#utility.yul\":19043:19052   */\n      dup4\n        /* \"#utility.yul\":19039:19056   */\n      add\n        /* \"#utility.yul\":19030:19036   */\n      dup7\n        /* \"#utility.yul\":18986:19057   */\n      tag_150\n      jump\t// in\n    tag_393:\n        /* \"#utility.yul\":19104:19113   */\n      dup2\n        /* \"#utility.yul\":19098:19102   */\n      dup2\n        /* \"#utility.yul\":19094:19114   */\n      sub\n        /* \"#utility.yul\":19089:19091   */\n      0x20\n        /* \"#utility.yul\":19078:19087   */\n      dup4\n        /* \"#utility.yul\":19074:19092   */\n      add\n        /* \"#utility.yul\":19067:19115   */\n      mstore\n        /* \"#utility.yul\":19132:19210   */\n      tag_394\n        /* \"#utility.yul\":19205:19209   */\n      dup2\n        /* \"#utility.yul\":19196:19202   */\n      dup6\n        /* \"#utility.yul\":19132:19210   */\n      tag_155\n      jump\t// in\n    tag_394:\n        /* \"#utility.yul\":19124:19210   */\n      swap1\n      pop\n        /* \"#utility.yul\":19220:19308   */\n      tag_395\n        /* \"#utility.yul\":19304:19306   */\n      0x40\n        /* \"#utility.yul\":19293:19302   */\n      dup4\n        /* \"#utility.yul\":19289:19307   */\n      add\n        /* \"#utility.yul\":19280:19286   */\n      dup5\n        /* \"#utility.yul\":19220:19308   */\n      tag_149\n      jump\t// in\n    tag_395:\n        /* \"#utility.yul\":18750:19315   */\n      swap5\n      swap4\n      pop\n      pop\n      pop\n      pop\n      jump\t// out\n    stop\n\n    sub_0: assembly {\n            /* \"Auction.sol\":66:5123  contract Auction {... */\n          mstore(0x40, 0x80)\n            /* \"Auction.sol\":1523:1747  constructor(uint256 biddingTime, string memory _name, address payable beneficiaryAddress) {... */\n          callvalue\n          dup1\n          iszero\n          tag_1\n          jumpi\n          0x00\n          dup1\n          revert\n        tag_1:\n          pop\n          mload(0x40)\n          sub(codesize, bytecodeSize)\n          dup1\n          bytecodeSize\n          dup4\n          codecopy\n          dup2\n          dup2\n          add\n          0x40\n          mstore\n          dup2\n          add\n          swap1\n          tag_2\n          swap2\n          swap1\n          tag_3\n          jump\t// in\n        tag_2:\n            /* \"Auction.sol\":1637:1655  beneficiaryAddress */\n          dup1\n            /* \"Auction.sol\":1623:1634  beneficiary */\n          0x00\n          dup1\n            /* \"Auction.sol\":1623:1655  beneficiary = beneficiaryAddress */\n          0x0100\n          exp\n          dup2\n          sload\n          dup2\n          0xffffffffffffffffffffffffffffffffffffffff\n          mul\n          not\n          and\n          swap1\n          dup4\n          0xffffffffffffffffffffffffffffffffffffffff\n          and\n          mul\n          or\n          swap1\n          sstore\n          pop\n            /* \"Auction.sol\":1679:1684  _name */\n          dup2\n            /* \"Auction.sol\":1665:1676  auctionName */\n          0x02\n            /* \"Auction.sol\":1665:1684  auctionName = _name */\n          swap1\n          dup2\n          tag_6\n          swap2\n          swap1\n          tag_7\n          jump\t// in\n        tag_6:\n          pop\n            /* \"Auction.sol\":1729:1740  biddingTime */\n          dup3\n            /* \"Auction.sol\":1711:1726  block.timestamp */\n          timestamp\n            /* \"Auction.sol\":1711:1740  block.timestamp + biddingTime */\n          tag_8\n          swap2\n          swap1\n          tag_9\n          jump\t// in\n        tag_8:\n            /* \"Auction.sol\":1694:1708  auctionEndTime */\n          0x01\n            /* \"Auction.sol\":1694:1740  auctionEndTime = block.timestamp + biddingTime */\n          dup2\n          swap1\n          sstore\n          pop\n            /* \"Auction.sol\":1523:1747  constructor(uint256 biddingTime, string memory _name, address payable beneficiaryAddress) {... */\n          pop\n          pop\n          pop\n            /* \"Auction.sol\":66:5123  contract Auction {... */\n          jump(tag_10)\n            /* \"#utility.yul\":7:82   */\n        tag_11:\n            /* \"#utility.yul\":40:46   */\n          0x00\n            /* \"#utility.yul\":73:75   */\n          0x40\n            /* \"#utility.yul\":67:76   */\n          mload\n            /* \"#utility.yul\":57:76   */\n          swap1\n          pop\n            /* \"#utility.yul\":7:82   */\n          swap1\n          jump\t// out\n            /* \"#utility.yul\":88:205   */\n        tag_12:\n            /* \"#utility.yul\":197:198   */\n          0x00\n            /* \"#utility.yul\":194:195   */\n          dup1\n            /* \"#utility.yul\":187:199   */\n          revert\n            /* \"#utility.yul\":211:328   */\n        tag_13:\n            /* \"#utility.yul\":320:321   */\n          0x00\n            /* \"#utility.yul\":317:318   */\n          dup1\n            /* \"#utility.yul\":310:322   */\n          revert\n            /* \"#utility.yul\":334:411   */\n        tag_14:\n            /* \"#utility.yul\":371:378   */\n          0x00\n            /* \"#utility.yul\":400:405   */\n          dup2\n            /* \"#utility.yul\":389:405   */\n          swap1\n          pop\n            /* \"#utility.yul\":334:411   */\n          swap2\n          swap1\n          pop\n          jump\t// out\n            /* \"#utility.yul\":417:539   */\n        tag_15:\n            /* \"#utility.yul\":490:514   */\n          tag_56\n            /* \"#utility.yul\":508:513   */\n          dup2\n            /* \"#utility.yul\":490:514   */\n          tag_14\n          jump\t// in\n        tag_56:\n            /* \"#utility.yul\":483:488   */\n          dup2\n            /* \"#utility.yul\":480:515   */\n          eq\n            /* \"#utility.yul\":470:533   */\n          tag_57\n          jumpi\n            /* \"#utility.yul\":529:530   */\n          0x00\n            /* \"#utility.yul\":526:527   */\n          dup1\n            /* \"#utility.yul\":519:531   */\n          revert\n            /* \"#utility.yul\":470:533   */\n        tag_57:\n            /* \"#utility.yul\":417:539   */\n          pop\n          jump\t// out\n            /* \"#utility.yul\":545:688   */\n        tag_16:\n            /* \"#utility.yul\":602:607   */\n          0x00\n            /* \"#utility.yul\":633:639   */\n          dup2\n            /* \"#utility.yul\":627:640   */\n          mload\n            /* \"#utility.yul\":618:640   */\n          swap1\n          pop\n            /* \"#utility.yul\":649:682   */\n          tag_59\n            /* \"#utility.yul\":676:681   */\n          dup2\n            /* \"#utility.yul\":649:682   */\n          tag_15\n          jump\t// in\n        tag_59:\n            /* \"#utility.yul\":545:688   */\n          swap3\n          swap2\n          pop\n          pop\n          jump\t// out\n            /* \"#utility.yul\":694:811   */\n        tag_17:\n            /* \"#utility.yul\":803:804   */\n          0x00\n            /* \"#utility.yul\":800:801   */\n          dup1\n            /* \"#utility.yul\":793:805   */\n          revert\n            /* \"#utility.yul\":817:934   */\n        tag_18:\n            /* \"#utility.yul\":926:927   */\n          0x00\n            /* \"#utility.yul\":923:924   */\n          dup1\n            /* \"#utility.yul\":916:928   */\n          revert\n            /* \"#utility.yul\":940:1042   */\n        tag_19:\n            /* \"#utility.yul\":981:987   */\n          0x00\n            /* \"#utility.yul\":1032:1034   */\n          0x1f\n            /* \"#utility.yul\":1028:1035   */\n          not\n            /* \"#utility.yul\":1023:1025   */\n          0x1f\n            /* \"#utility.yul\":1016:1021   */\n          dup4\n            /* \"#utility.yul\":1012:1026   */\n          add\n            /* \"#utility.yul\":1008:1036   */\n          and\n            /* \"#utility.yul\":998:1036   */\n          swap1\n          pop\n            /* \"#utility.yul\":940:1042   */\n          swap2\n          swap1\n          pop\n          jump\t// out\n            /* \"#utility.yul\":1048:1228   */\n        tag_20:\n            /* \"#utility.yul\":1096:1173   */\n          0x4e487b7100000000000000000000000000000000000000000000000000000000\n            /* \"#utility.yul\":1093:1094   */\n          0x00\n            /* \"#utility.yul\":1086:1174   */\n          mstore\n            /* \"#utility.yul\":1193:1197   */\n          0x41\n            /* \"#utility.yul\":1190:1191   */\n          0x04\n            /* \"#utility.yul\":1183:1198   */\n          mstore\n            /* \"#utility.yul\":1217:1221   */\n          0x24\n            /* \"#utility.yul\":1214:1215   */\n          0x00\n            /* \"#utility.yul\":1207:1222   */\n          revert\n            /* \"#utility.yul\":1234:1515   */\n        tag_21:\n            /* \"#utility.yul\":1317:1344   */\n          tag_65\n            /* \"#utility.yul\":1339:1343   */\n          dup3\n            /* \"#utility.yul\":1317:1344   */\n          tag_19\n          jump\t// in\n        tag_65:\n            /* \"#utility.yul\":1309:1315   */\n          dup2\n            /* \"#utility.yul\":1305:1345   */\n          add\n            /* \"#utility.yul\":1447:1453   */\n          dup2\n            /* \"#utility.yul\":1435:1445   */\n          dup2\n            /* \"#utility.yul\":1432:1454   */\n          lt\n            /* \"#utility.yul\":1411:1429   */\n          0xffffffffffffffff\n            /* \"#utility.yul\":1399:1409   */\n          dup3\n            /* \"#utility.yul\":1396:1430   */\n          gt\n            /* \"#utility.yul\":1393:1455   */\n          or\n            /* \"#utility.yul\":1390:1478   */\n          iszero\n          tag_66\n          jumpi\n            /* \"#utility.yul\":1458:1476   */\n          tag_67\n          tag_20\n          jump\t// in\n        tag_67:\n            /* \"#utility.yul\":1390:1478   */\n        tag_66:\n            /* \"#utility.yul\":1498:1508   */\n          dup1\n            /* \"#utility.yul\":1494:1496   */\n          0x40\n            /* \"#utility.yul\":1487:1509   */\n          mstore\n            /* \"#utility.yul\":1277:1515   */\n          pop\n            /* \"#utility.yul\":1234:1515   */\n          pop\n          pop\n          jump\t// out\n            /* \"#utility.yul\":1521:1650   */\n        tag_22:\n            /* \"#utility.yul\":1555:1561   */\n          0x00\n            /* \"#utility.yul\":1582:1602   */\n          tag_69\n          tag_11\n          jump\t// in\n        tag_69:\n            /* \"#utility.yul\":1572:1602   */\n          swap1\n          pop\n            /* \"#utility.yul\":1611:1644   */\n          tag_70\n            /* \"#utility.yul\":1639:1643   */\n          dup3\n            /* \"#utility.yul\":1631:1637   */\n          dup3\n            /* \"#utility.yul\":1611:1644   */\n          tag_21\n          jump\t// in\n        tag_70:\n            /* \"#utility.yul\":1521:1650   */\n          swap2\n          swap1\n          pop\n          jump\t// out\n            /* \"#utility.yul\":1656:1964   */\n        tag_23:\n            /* \"#utility.yul\":1718:1722   */\n          0x00\n            /* \"#utility.yul\":1808:1826   */\n          0xffffffffffffffff\n            /* \"#utility.yul\":1800:1806   */\n          dup3\n            /* \"#utility.yul\":1797:1827   */\n          gt\n            /* \"#utility.yul\":1794:1850   */\n          iszero\n          tag_72\n          jumpi\n            /* \"#utility.yul\":1830:1848   */\n          tag_73\n          tag_20\n          jump\t// in\n        tag_73:\n            /* \"#utility.yul\":1794:1850   */\n        tag_72:\n            /* \"#utility.yul\":1868:1897   */\n          tag_74\n            /* \"#utility.yul\":1890:1896   */\n          dup3\n            /* \"#utility.yul\":1868:1897   */\n          tag_19\n          jump\t// in\n        tag_74:\n            /* \"#utility.yul\":1860:1897   */\n          swap1\n          pop\n            /* \"#utility.yul\":1952:1956   */\n          0x20\n            /* \"#utility.yul\":1946:1950   */\n          dup2\n            /* \"#utility.yul\":1942:1957   */\n          add\n            /* \"#utility.yul\":1934:1957   */\n          swap1\n          pop\n            /* \"#utility.yul\":1656:1964   */\n          swap2\n          swap1\n          pop\n          jump\t// out\n            /* \"#utility.yul\":1970:2216   */\n        tag_24:\n            /* \"#utility.yul\":2051:2052   */\n          0x00\n            /* \"#utility.yul\":2061:2174   */\n        tag_76:\n            /* \"#utility.yul\":2075:2081   */\n          dup4\n            /* \"#utility.yul\":2072:2073   */\n          dup2\n            /* \"#utility.yul\":2069:2082   */\n          lt\n            /* \"#utility.yul\":2061:2174   */\n          iszero\n          tag_78\n          jumpi\n            /* \"#utility.yul\":2160:2161   */\n          dup1\n            /* \"#utility.yul\":2155:2158   */\n          dup3\n            /* \"#utility.yul\":2151:2162   */\n          add\n            /* \"#utility.yul\":2145:2163   */\n          mload\n            /* \"#utility.yul\":2141:2142   */\n          dup2\n            /* \"#utility.yul\":2136:2139   */\n          dup5\n            /* \"#utility.yul\":2132:2143   */\n          add\n            /* \"#utility.yul\":2125:2164   */\n          mstore\n            /* \"#utility.yul\":2097:2099   */\n          0x20\n            /* \"#utility.yul\":2094:2095   */\n          dup2\n            /* \"#utility.yul\":2090:2100   */\n          add\n            /* \"#utility.yul\":2085:2100   */\n          swap1\n          pop\n            /* \"#utility.yul\":2061:2174   */\n          jump(tag_76)\n        tag_78:\n            /* \"#utility.yul\":2208:2209   */\n          0x00\n            /* \"#utility.yul\":2199:2205   */\n          dup5\n            /* \"#utility.yul\":2194:2197   */\n          dup5\n            /* \"#utility.yul\":2190:2206   */\n          add\n            /* \"#utility.yul\":2183:2210   */\n          mstore\n            /* \"#utility.yul\":2032:2216   */\n          pop\n            /* \"#utility.yul\":1970:2216   */\n          pop\n          pop\n          pop\n          jump\t// out\n            /* \"#utility.yul\":2222:2656   */\n        tag_25:\n            /* \"#utility.yul\":2311:2316   */\n          0x00\n            /* \"#utility.yul\":2336:2402   */\n          tag_80\n            /* \"#utility.yul\":2352:2401   */\n          tag_81\n            /* \"#utility.yul\":2394:2400   */\n          dup5\n            /* \"#utility.yul\":2352:2401   */\n          tag_23\n          jump\t// in\n        tag_81:\n            /* \"#utility.yul\":2336:2402   */\n          tag_22\n          jump\t// in\n        tag_80:\n            /* \"#utility.yul\":2327:2402   */\n          swap1\n          pop\n            /* \"#utility.yul\":2425:2431   */\n          dup3\n            /* \"#utility.yul\":2418:2423   */\n          dup2\n            /* \"#utility.yul\":2411:2432   */\n          mstore\n            /* \"#utility.yul\":2463:2467   */\n          0x20\n            /* \"#utility.yul\":2456:2461   */\n          dup2\n            /* \"#utility.yul\":2452:2468   */\n          add\n            /* \"#utility.yul\":2501:2504   */\n          dup5\n            /* \"#utility.yul\":2492:2498   */\n          dup5\n            /* \"#utility.yul\":2487:2490   */\n          dup5\n            /* \"#utility.yul\":2483:2499   */\n          add\n            /* \"#utility.yul\":2480:2505   */\n          gt\n            /* \"#utility.yul\":2477:2589   */\n          iszero\n          tag_82\n          jumpi\n            /* \"#utility.yul\":2508:2587   */\n          tag_83\n          tag_18\n          jump\t// in\n        tag_83:\n            /* \"#utility.yul\":2477:2589   */\n        tag_82:\n            /* \"#utility.yul\":2598:2650   */\n          tag_84\n            /* \"#utility.yul\":2643:2649   */\n          dup5\n            /* \"#utility.yul\":2638:2641   */\n          dup3\n            /* \"#utility.yul\":2633:2636   */\n          dup6\n            /* \"#utility.yul\":2598:2650   */\n          tag_24\n          jump\t// in\n        tag_84:\n            /* \"#utility.yul\":2317:2656   */\n          pop\n            /* \"#utility.yul\":2222:2656   */\n          swap4\n          swap3\n          pop\n          pop\n          pop\n          jump\t// out\n            /* \"#utility.yul\":2676:3031   */\n        tag_26:\n            /* \"#utility.yul\":2743:2748   */\n          0x00\n            /* \"#utility.yul\":2792:2795   */\n          dup3\n            /* \"#utility.yul\":2785:2789   */\n          0x1f\n            /* \"#utility.yul\":2777:2783   */\n          dup4\n            /* \"#utility.yul\":2773:2790   */\n          add\n            /* \"#utility.yul\":2769:2796   */\n          slt\n            /* \"#utility.yul\":2759:2881   */\n          tag_86\n          jumpi\n            /* \"#utility.yul\":2800:2879   */\n          tag_87\n          tag_17\n          jump\t// in\n        tag_87:\n            /* \"#utility.yul\":2759:2881   */\n        tag_86:\n            /* \"#utility.yul\":2910:2916   */\n          dup2\n            /* \"#utility.yul\":2904:2917   */\n          mload\n            /* \"#utility.yul\":2935:3025   */\n          tag_88\n            /* \"#utility.yul\":3021:3024   */\n          dup5\n            /* \"#utility.yul\":3013:3019   */\n          dup3\n            /* \"#utility.yul\":3006:3010   */\n          0x20\n            /* \"#utility.yul\":2998:3004   */\n          dup7\n            /* \"#utility.yul\":2994:3011   */\n          add\n            /* \"#utility.yul\":2935:3025   */\n          tag_25\n          jump\t// in\n        tag_88:\n            /* \"#utility.yul\":2926:3025   */\n          swap2\n          pop\n            /* \"#utility.yul\":2749:3031   */\n          pop\n            /* \"#utility.yul\":2676:3031   */\n          swap3\n          swap2\n          pop\n          pop\n          jump\t// out\n            /* \"#utility.yul\":3037:3163   */\n        tag_27:\n            /* \"#utility.yul\":3074:3081   */\n          0x00\n            /* \"#utility.yul\":3114:3156   */\n          0xffffffffffffffffffffffffffffffffffffffff\n            /* \"#utility.yul\":3107:3112   */\n          dup3\n            /* \"#utility.yul\":3103:3157   */\n          and\n            /* \"#utility.yul\":3092:3157   */\n          swap1\n          pop\n            /* \"#utility.yul\":3037:3163   */\n          swap2\n          swap1\n          pop\n          jump\t// out\n            /* \"#utility.yul\":3169:3273   */\n        tag_28:\n            /* \"#utility.yul\":3214:3221   */\n          0x00\n            /* \"#utility.yul\":3243:3267   */\n          tag_91\n            /* \"#utility.yul\":3261:3266   */\n          dup3\n            /* \"#utility.yul\":3243:3267   */\n          tag_27\n          jump\t// in\n        tag_91:\n            /* \"#utility.yul\":3232:3267   */\n          swap1\n          pop\n            /* \"#utility.yul\":3169:3273   */\n          swap2\n          swap1\n          pop\n          jump\t// out\n            /* \"#utility.yul\":3279:3417   */\n        tag_29:\n            /* \"#utility.yul\":3360:3392   */\n          tag_93\n            /* \"#utility.yul\":3386:3391   */\n          dup2\n            /* \"#utility.yul\":3360:3392   */\n          tag_28\n          jump\t// in\n        tag_93:\n            /* \"#utility.yul\":3353:3358   */\n          dup2\n            /* \"#utility.yul\":3350:3393   */\n          eq\n            /* \"#utility.yul\":3340:3411   */\n          tag_94\n          jumpi\n            /* \"#utility.yul\":3407:3408   */\n          0x00\n            /* \"#utility.yul\":3404:3405   */\n          dup1\n            /* \"#utility.yul\":3397:3409   */\n          revert\n            /* \"#utility.yul\":3340:3411   */\n        tag_94:\n            /* \"#utility.yul\":3279:3417   */\n          pop\n          jump\t// out\n            /* \"#utility.yul\":3423:3582   */\n        tag_30:\n            /* \"#utility.yul\":3488:3493   */\n          0x00\n            /* \"#utility.yul\":3519:3525   */\n          dup2\n            /* \"#utility.yul\":3513:3526   */\n          mload\n            /* \"#utility.yul\":3504:3526   */\n          swap1\n          pop\n            /* \"#utility.yul\":3535:3576   */\n          tag_96\n            /* \"#utility.yul\":3570:3575   */\n          dup2\n            /* \"#utility.yul\":3535:3576   */\n          tag_29\n          jump\t// in\n        tag_96:\n            /* \"#utility.yul\":3423:3582   */\n          swap3\n          swap2\n          pop\n          pop\n          jump\t// out\n            /* \"#utility.yul\":3588:4440   */\n        tag_3:\n            /* \"#utility.yul\":3694:3700   */\n          0x00\n            /* \"#utility.yul\":3702:3708   */\n          dup1\n            /* \"#utility.yul\":3710:3716   */\n          0x00\n            /* \"#utility.yul\":3759:3761   */\n          0x60\n            /* \"#utility.yul\":3747:3756   */\n          dup5\n            /* \"#utility.yul\":3738:3745   */\n          dup7\n            /* \"#utility.yul\":3734:3757   */\n          sub\n            /* \"#utility.yul\":3730:3762   */\n          slt\n            /* \"#utility.yul\":3727:3846   */\n          iszero\n          tag_98\n          jumpi\n            /* \"#utility.yul\":3765:3844   */\n          tag_99\n          tag_12\n          jump\t// in\n        tag_99:\n            /* \"#utility.yul\":3727:3846   */\n        tag_98:\n            /* \"#utility.yul\":3885:3886   */\n          0x00\n            /* \"#utility.yul\":3910:3974   */\n          tag_100\n            /* \"#utility.yul\":3966:3973   */\n          dup7\n            /* \"#utility.yul\":3957:3963   */\n          dup3\n            /* \"#utility.yul\":3946:3955   */\n          dup8\n            /* \"#utility.yul\":3942:3964   */\n          add\n            /* \"#utility.yul\":3910:3974   */\n          tag_16\n          jump\t// in\n        tag_100:\n            /* \"#utility.yul\":3900:3974   */\n          swap4\n          pop\n            /* \"#utility.yul\":3856:3984   */\n          pop\n            /* \"#utility.yul\":4044:4046   */\n          0x20\n            /* \"#utility.yul\":4033:4042   */\n          dup5\n            /* \"#utility.yul\":4029:4047   */\n          add\n            /* \"#utility.yul\":4023:4048   */\n          mload\n            /* \"#utility.yul\":4075:4093   */\n          0xffffffffffffffff\n            /* \"#utility.yul\":4067:4073   */\n          dup2\n            /* \"#utility.yul\":4064:4094   */\n          gt\n            /* \"#utility.yul\":4061:4178   */\n          iszero\n          tag_101\n          jumpi\n            /* \"#utility.yul\":4097:4176   */\n          tag_102\n          tag_13\n          jump\t// in\n        tag_102:\n            /* \"#utility.yul\":4061:4178   */\n        tag_101:\n            /* \"#utility.yul\":4202:4276   */\n          tag_103\n            /* \"#utility.yul\":4268:4275   */\n          dup7\n            /* \"#utility.yul\":4259:4265   */\n          dup3\n            /* \"#utility.yul\":4248:4257   */\n          dup8\n            /* \"#utility.yul\":4244:4266   */\n          add\n            /* \"#utility.yul\":4202:4276   */\n          tag_26\n          jump\t// in\n        tag_103:\n            /* \"#utility.yul\":4192:4276   */\n          swap3\n          pop\n            /* \"#utility.yul\":3994:4286   */\n          pop\n            /* \"#utility.yul\":4325:4327   */\n          0x40\n            /* \"#utility.yul\":4351:4423   */\n          tag_104\n            /* \"#utility.yul\":4415:4422   */\n          dup7\n            /* \"#utility.yul\":4406:4412   */\n          dup3\n            /* \"#utility.yul\":4395:4404   */\n          dup8\n            /* \"#utility.yul\":4391:4413   */\n          add\n            /* \"#utility.yul\":4351:4423   */\n          tag_30\n          jump\t// in\n        tag_104:\n            /* \"#utility.yul\":4341:4423   */\n          swap2\n          pop\n            /* \"#utility.yul\":4296:4433   */\n          pop\n            /* \"#utility.yul\":3588:4440   */\n          swap3\n          pop\n          swap3\n          pop\n          swap3\n          jump\t// out\n            /* \"#utility.yul\":4446:4545   */\n        tag_31:\n            /* \"#utility.yul\":4498:4504   */\n          0x00\n            /* \"#utility.yul\":4532:4537   */\n          dup2\n            /* \"#utility.yul\":4526:4538   */\n          mload\n            /* \"#utility.yul\":4516:4538   */\n          swap1\n          pop\n            /* \"#utility.yul\":4446:4545   */\n          swap2\n          swap1\n          pop\n          jump\t// out\n            /* \"#utility.yul\":4551:4731   */\n        tag_32:\n            /* \"#utility.yul\":4599:4676   */\n          0x4e487b7100000000000000000000000000000000000000000000000000000000\n            /* \"#utility.yul\":4596:4597   */\n          0x00\n            /* \"#utility.yul\":4589:4677   */\n          mstore\n            /* \"#utility.yul\":4696:4700   */\n          0x22\n            /* \"#utility.yul\":4693:4694   */\n          0x04\n            /* \"#utility.yul\":4686:4701   */\n          mstore\n            /* \"#utility.yul\":4720:4724   */\n          0x24\n            /* \"#utility.yul\":4717:4718   */\n          0x00\n            /* \"#utility.yul\":4710:4725   */\n          revert\n            /* \"#utility.yul\":4737:5057   */\n        tag_33:\n            /* \"#utility.yul\":4781:4787   */\n          0x00\n            /* \"#utility.yul\":4818:4819   */\n          0x02\n            /* \"#utility.yul\":4812:4816   */\n          dup3\n            /* \"#utility.yul\":4808:4820   */\n          div\n            /* \"#utility.yul\":4798:4820   */\n          swap1\n          pop\n            /* \"#utility.yul\":4865:4866   */\n          0x01\n            /* \"#utility.yul\":4859:4863   */\n          dup3\n            /* \"#utility.yul\":4855:4867   */\n          and\n            /* \"#utility.yul\":4886:4904   */\n          dup1\n            /* \"#utility.yul\":4876:4957   */\n          tag_108\n          jumpi\n            /* \"#utility.yul\":4942:4946   */\n          0x7f\n            /* \"#utility.yul\":4934:4940   */\n          dup3\n            /* \"#utility.yul\":4930:4947   */\n          and\n            /* \"#utility.yul\":4920:4947   */\n          swap2\n          pop\n            /* \"#utility.yul\":4876:4957   */\n        tag_108:\n            /* \"#utility.yul\":5004:5006   */\n          0x20\n            /* \"#utility.yul\":4996:5002   */\n          dup3\n            /* \"#utility.yul\":4993:5007   */\n          lt\n            /* \"#utility.yul\":4973:4991   */\n          dup2\n            /* \"#utility.yul\":4970:5008   */\n          sub\n            /* \"#utility.yul\":4967:5051   */\n          tag_109\n          jumpi\n            /* \"#utility.yul\":5023:5041   */\n          tag_110\n          tag_32\n          jump\t// in\n        tag_110:\n            /* \"#utility.yul\":4967:5051   */\n        tag_109:\n            /* \"#utility.yul\":4788:5057   */\n          pop\n            /* \"#utility.yul\":4737:5057   */\n          swap2\n          swap1\n          pop\n          jump\t// out\n            /* \"#utility.yul\":5063:5204   */\n        tag_34:\n            /* \"#utility.yul\":5112:5116   */\n          0x00\n            /* \"#utility.yul\":5135:5138   */\n          dup2\n            /* \"#utility.yul\":5127:5138   */\n          swap1\n          pop\n            /* \"#utility.yul\":5158:5161   */\n          dup2\n            /* \"#utility.yul\":5155:5156   */\n          0x00\n            /* \"#utility.yul\":5148:5162   */\n          mstore\n            /* \"#utility.yul\":5192:5196   */\n          0x20\n            /* \"#utility.yul\":5189:5190   */\n          0x00\n            /* \"#utility.yul\":5179:5197   */\n          keccak256\n            /* \"#utility.yul\":5171:5197   */\n          swap1\n          pop\n            /* \"#utility.yul\":5063:5204   */\n          swap2\n          swap1\n          pop\n          jump\t// out\n            /* \"#utility.yul\":5210:5303   */\n        tag_35:\n            /* \"#utility.yul\":5247:5253   */\n          0x00\n            /* \"#utility.yul\":5294:5296   */\n          0x20\n            /* \"#utility.yul\":5289:5291   */\n          0x1f\n            /* \"#utility.yul\":5282:5287   */\n          dup4\n            /* \"#utility.yul\":5278:5292   */\n          add\n            /* \"#utility.yul\":5274:5297   */\n          div\n            /* \"#utility.yul\":5264:5297   */\n          swap1\n          pop\n            /* \"#utility.yul\":5210:5303   */\n          swap2\n          swap1\n          pop\n          jump\t// out\n            /* \"#utility.yul\":5309:5416   */\n        tag_36:\n            /* \"#utility.yul\":5353:5361   */\n          0x00\n            /* \"#utility.yul\":5403:5408   */\n          dup3\n            /* \"#utility.yul\":5397:5401   */\n          dup3\n            /* \"#utility.yul\":5393:5409   */\n          shl\n            /* \"#utility.yul\":5372:5409   */\n          swap1\n          pop\n            /* \"#utility.yul\":5309:5416   */\n          swap3\n          swap2\n          pop\n          pop\n          jump\t// out\n            /* \"#utility.yul\":5422:5815   */\n        tag_37:\n            /* \"#utility.yul\":5491:5497   */\n          0x00\n            /* \"#utility.yul\":5541:5542   */\n          0x08\n            /* \"#utility.yul\":5529:5539   */\n          dup4\n            /* \"#utility.yul\":5525:5543   */\n          mul\n            /* \"#utility.yul\":5564:5661   */\n          tag_115\n            /* \"#utility.yul\":5594:5660   */\n          0xffffffffffffffffffffffffffffffffffffffffffffffffffffffffffffffff\n            /* \"#utility.yul\":5583:5592   */\n          dup3\n            /* \"#utility.yul\":5564:5661   */\n          tag_36\n          jump\t// in\n        tag_115:\n            /* \"#utility.yul\":5682:5721   */\n          tag_116\n            /* \"#utility.yul\":5712:5720   */\n          dup7\n            /* \"#utility.yul\":5701:5710   */\n          dup4\n            /* \"#utility.yul\":5682:5721   */\n          tag_36\n          jump\t// in\n        tag_116:\n            /* \"#utility.yul\":5670:5721   */\n          swap6\n          pop\n            /* \"#utility.yul\":5754:5758   */\n          dup1\n            /* \"#utility.yul\":5750:5759   */\n          not\n            /* \"#utility.yul\":5743:5748   */\n          dup5\n            /* \"#utility.yul\":5739:5760   */\n          and\n            /* \"#utility.yul\":5730:5760   */\n          swap4\n          pop\n            /* \"#utility.yul\":5803:5807   */\n          dup1\n            /* \"#utility.yul\":5793:5801   */\n          dup7\n            /* \"#utility.yul\":5789:5808   */\n          and\n            /* \"#utility.yul\":5782:5787   */\n          dup5\n            /* \"#utility.yul\":5779:5809   */\n          or\n            /* \"#utility.yul\":5769:5809   */\n          swap3\n          pop\n            /* \"#utility.yul\":5498:5815   */\n          pop\n          pop\n            /* \"#utility.yul\":5422:5815   */\n          swap4\n          swap3\n          pop\n          pop\n          pop\n          jump\t// out\n            /* \"#utility.yul\":5821:5881   */\n        tag_38:\n            /* \"#utility.yul\":5849:5852   */\n          0x00\n            /* \"#utility.yul\":5870:5875   */\n          dup2\n            /* \"#utility.yul\":5863:5875   */\n          swap1\n          pop\n            /* \"#utility.yul\":5821:5881   */\n          swap2\n          swap1\n          pop\n          jump\t// out\n            /* \"#utility.yul\":5887:6029   */\n        tag_39:\n            /* \"#utility.yul\":5937:5946   */\n          0x00\n            /* \"#utility.yul\":5970:6023   */\n          tag_119\n            /* \"#utility.yul\":5988:6022   */\n          tag_120\n            /* \"#utility.yul\":5997:6021   */\n          tag_121\n            /* \"#utility.yul\":6015:6020   */\n          dup5\n            /* \"#utility.yul\":5997:6021   */\n          tag_14\n          jump\t// in\n        tag_121:\n            /* \"#utility.yul\":5988:6022   */\n          tag_38\n          jump\t// in\n        tag_120:\n            /* \"#utility.yul\":5970:6023   */\n          tag_14\n          jump\t// in\n        tag_119:\n            /* \"#utility.yul\":5957:6023   */\n          swap1\n          pop\n            /* \"#utility.yul\":5887:6029   */\n          swap2\n          swap1\n          pop\n          jump\t// out\n            /* \"#utility.yul\":6035:6110   */\n        tag_40:\n            /* \"#utility.yul\":6078:6081   */\n          0x00\n            /* \"#utility.yul\":6099:6104   */\n          dup2\n            /* \"#utility.yul\":6092:6104   */\n          swap1\n          pop\n            /* \"#utility.yul\":6035:6110   */\n          swap2\n          swap1\n          pop\n          jump\t// out\n            /* \"#utility.yul\":6116:6385   */\n        tag_41:\n            /* \"#utility.yul\":6226:6265   */\n          tag_124\n            /* \"#utility.yul\":6257:6264   */\n          dup4\n            /* \"#utility.yul\":6226:6265   */\n          tag_39\n          jump\t// in\n        tag_124:\n            /* \"#utility.yul\":6287:6378   */\n          tag_125\n            /* \"#utility.yul\":6336:6377   */\n          tag_126\n            /* \"#utility.yul\":6360:6376   */\n          dup3\n            /* \"#utility.yul\":6336:6377   */\n          tag_40\n          jump\t// in\n        tag_126:\n            /* \"#utility.yul\":6328:6334   */\n          dup5\n            /* \"#utility.yul\":6321:6325   */\n          dup5\n            /* \"#utility.yul\":6315:6326   */\n          sload\n            /* \"#utility.yul\":6287:6378   */\n          tag_37\n          jump\t// in\n        tag_125:\n            /* \"#utility.yul\":6281:6285   */\n          dup3\n            /* \"#utility.yul\":6274:6379   */\n          sstore\n            /* \"#utility.yul\":6192:6385   */\n          pop\n            /* \"#utility.yul\":6116:6385   */\n          pop\n          pop\n          pop\n          jump\t// out\n            /* \"#utility.yul\":6391:6464   */\n        tag_42:\n            /* \"#utility.yul\":6436:6439   */\n          0x00\n            /* \"#utility.yul\":6391:6464   */\n          swap1\n          jump\t// out\n            /* \"#utility.yul\":6470:6659   */\n        tag_43:\n            /* \"#utility.yul\":6547:6579   */\n          tag_129\n          tag_42\n          jump\t// in\n        tag_129:\n            /* \"#utility.yul\":6588:6653   */\n          tag_130\n            /* \"#utility.yul\":6646:6652   */\n          dup2\n            /* \"#utility.yul\":6638:6644   */\n          dup5\n            /* \"#utility.yul\":6632:6636   */\n          dup5\n            /* \"#utility.yul\":6588:6653   */\n          tag_41\n          jump\t// in\n        tag_130:\n            /* \"#utility.yul\":6523:6659   */\n          pop\n            /* \"#utility.yul\":6470:6659   */\n          pop\n          pop\n          jump\t// out\n            /* \"#utility.yul\":6665:6851   */\n        tag_44:\n            /* \"#utility.yul\":6725:6845   */\n        tag_132:\n            /* \"#utility.yul\":6742:6745   */\n          dup2\n            /* \"#utility.yul\":6735:6740   */\n          dup2\n            /* \"#utility.yul\":6732:6746   */\n          lt\n            /* \"#utility.yul\":6725:6845   */\n          iszero\n          tag_134\n          jumpi\n            /* \"#utility.yul\":6796:6835   */\n          tag_135\n            /* \"#utility.yul\":6833:6834   */\n          0x00\n            /* \"#utility.yul\":6826:6831   */\n          dup3\n            /* \"#utility.yul\":6796:6835   */\n          tag_43\n          jump\t// in\n        tag_135:\n            /* \"#utility.yul\":6769:6770   */\n          0x01\n            /* \"#utility.yul\":6762:6767   */\n          dup2\n            /* \"#utility.yul\":6758:6771   */\n          add\n            /* \"#utility.yul\":6749:6771   */\n          swap1\n          pop\n            /* \"#utility.yul\":6725:6845   */\n          jump(tag_132)\n        tag_134:\n            /* \"#utility.yul\":6665:6851   */\n          pop\n          pop\n          jump\t// out\n            /* \"#utility.yul\":6857:7400   */\n        tag_45:\n            /* \"#utility.yul\":6958:6960   */\n          0x1f\n            /* \"#utility.yul\":6953:6956   */\n          dup3\n            /* \"#utility.yul\":6950:6961   */\n          gt\n            /* \"#utility.yul\":6947:7393   */\n          iszero\n          tag_137\n          jumpi\n            /* \"#utility.yul\":6992:7030   */\n          tag_138\n            /* \"#utility.yul\":7024:7029   */\n          dup2\n            /* \"#utility.yul\":6992:7030   */\n          tag_34\n          jump\t// in\n        tag_138:\n            /* \"#utility.yul\":7076:7105   */\n          tag_139\n            /* \"#utility.yul\":7094:7104   */\n          dup5\n            /* \"#utility.yul\":7076:7105   */\n          tag_35\n          jump\t// in\n        tag_139:\n            /* \"#utility.yul\":7066:7074   */\n          dup2\n            /* \"#utility.yul\":7062:7106   */\n          add\n            /* \"#utility.yul\":7259:7261   */\n          0x20\n            /* \"#utility.yul\":7247:7257   */\n          dup6\n            /* \"#utility.yul\":7244:7262   */\n          lt\n            /* \"#utility.yul\":7241:7290   */\n          iszero\n          tag_140\n          jumpi\n            /* \"#utility.yul\":7280:7288   */\n          dup2\n            /* \"#utility.yul\":7265:7288   */\n          swap1\n          pop\n            /* \"#utility.yul\":7241:7290   */\n        tag_140:\n            /* \"#utility.yul\":7303:7383   */\n          tag_141\n            /* \"#utility.yul\":7359:7381   */\n          tag_142\n            /* \"#utility.yul\":7377:7380   */\n          dup6\n            /* \"#utility.yul\":7359:7381   */\n          tag_35\n          jump\t// in\n        tag_142:\n            /* \"#utility.yul\":7349:7357   */\n          dup4\n            /* \"#utility.yul\":7345:7382   */\n          add\n            /* \"#utility.yul\":7332:7343   */\n          dup3\n            /* \"#utility.yul\":7303:7383   */\n          tag_44\n          jump\t// in\n        tag_141:\n            /* \"#utility.yul\":6962:7393   */\n          pop\n          pop\n            /* \"#utility.yul\":6947:7393   */\n        tag_137:\n            /* \"#utility.yul\":6857:7400   */\n          pop\n          pop\n          pop\n          jump\t// out\n            /* \"#utility.yul\":7406:7523   */\n        tag_46:\n            /* \"#utility.yul\":7460:7468   */\n          0x00\n            /* \"#utility.yul\":7510:7515   */\n          dup3\n            /* \"#utility.yul\":7504:7508   */\n          dup3\n            /* \"#utility.yul\":7500:7516   */\n          shr\n            /* \"#utility.yul\":7479:7516   */\n          swap1\n          pop\n            /* \"#utility.yul\":7406:7523   */\n          swap3\n          swap2\n          pop\n          pop\n          jump\t// out\n            /* \"#utility.yul\":7529:7698   */\n        tag_47:\n            /* \"#utility.yul\":7573:7579   */\n          0x00\n            /* \"#utility.yul\":7606:7657   */\n          tag_145\n            /* \"#utility.yul\":7654:7655   */\n          0x00\n            /* \"#utility.yul\":7650:7656   */\n          not\n            /* \"#utility.yul\":7642:7647   */\n          dup5\n            /* \"#utility.yul\":7639:7640   */\n          0x08\n            /* \"#utility.yul\":7635:7648   */\n          mul\n            /* \"#utility.yul\":7606:7657   */\n          tag_46\n          jump\t// in\n        tag_145:\n            /* \"#utility.yul\":7602:7658   */\n          not\n            /* \"#utility.yul\":7687:7691   */\n          dup1\n            /* \"#utility.yul\":7681:7685   */\n          dup4\n            /* \"#utility.yul\":7677:7692   */\n          and\n            /* \"#utility.yul\":7667:7692   */\n          swap2\n          pop\n            /* \"#utility.yul\":7580:7698   */\n          pop\n            /* \"#utility.yul\":7529:7698   */\n          swap3\n          swap2\n          pop\n          pop\n          jump\t// out\n            /* \"#utility.yul\":7703:7998   */\n        tag_48:\n            /* \"#utility.yul\":7779:7783   */\n          0x00\n            /* \"#utility.yul\":7925:7954   */\n          tag_147\n            /* \"#utility.yul\":7950:7953   */\n          dup4\n            /* \"#utility.yul\":7944:7948   */\n          dup4\n            /* \"#utility.yul\":7925:7954   */\n          tag_47\n          jump\t// in\n        tag_147:\n            /* \"#utility.yul\":7917:7954   */\n          swap2\n          pop\n            /* \"#utility.yul\":7987:7990   */\n          dup3\n            /* \"#utility.yul\":7984:7985   */\n          0x02\n            /* \"#utility.yul\":7980:7991   */\n          mul\n            /* \"#utility.yul\":7974:7978   */\n          dup3\n            /* \"#utility.yul\":7971:7992   */\n          or\n            /* \"#utility.yul\":7963:7992   */\n          swap1\n          pop\n            /* \"#utility.yul\":7703:7998   */\n          swap3\n          swap2\n          pop\n          pop\n          jump\t// out\n            /* \"#utility.yul\":8003:9398   */\n        tag_7:\n            /* \"#utility.yul\":8120:8157   */\n          tag_149\n            /* \"#utility.yul\":8153:8156   */\n          dup3\n            /* \"#utility.yul\":8120:8157   */\n          tag_31\n          jump\t// in\n        tag_149:\n            /* \"#utility.yul\":8222:8240   */\n          0xffffffffffffffff\n            /* \"#utility.yul\":8214:8220   */\n          dup2\n            /* \"#utility.yul\":8211:8241   */\n          gt\n            /* \"#utility.yul\":8208:8264   */\n          iszero\n          tag_150\n          jumpi\n            /* \"#utility.yul\":8244:8262   */\n          tag_151\n          tag_20\n          jump\t// in\n        tag_151:\n            /* \"#utility.yul\":8208:8264   */\n        tag_150:\n            /* \"#utility.yul\":8288:8326   */\n          tag_152\n            /* \"#utility.yul\":8320:8324   */\n          dup3\n            /* \"#utility.yul\":8314:8325   */\n          sload\n            /* \"#utility.yul\":8288:8326   */\n          tag_33\n          jump\t// in\n        tag_152:\n            /* \"#utility.yul\":8373:8440   */\n          tag_153\n            /* \"#utility.yul\":8433:8439   */\n          dup3\n            /* \"#utility.yul\":8425:8431   */\n          dup3\n            /* \"#utility.yul\":8419:8423   */\n          dup6\n            /* \"#utility.yul\":8373:8440   */\n          tag_45\n          jump\t// in\n        tag_153:\n            /* \"#utility.yul\":8467:8468   */\n          0x00\n            /* \"#utility.yul\":8491:8495   */\n          0x20\n            /* \"#utility.yul\":8478:8495   */\n          swap1\n          pop\n            /* \"#utility.yul\":8523:8525   */\n          0x1f\n            /* \"#utility.yul\":8515:8521   */\n          dup4\n            /* \"#utility.yul\":8512:8526   */\n          gt\n            /* \"#utility.yul\":8540:8541   */\n          0x01\n            /* \"#utility.yul\":8535:9153   */\n          dup2\n          eq\n          tag_155\n          jumpi\n            /* \"#utility.yul\":9197:9198   */\n          0x00\n            /* \"#utility.yul\":9214:9220   */\n          dup5\n            /* \"#utility.yul\":9211:9288   */\n          iszero\n          tag_156\n          jumpi\n            /* \"#utility.yul\":9263:9272   */\n          dup3\n            /* \"#utility.yul\":9258:9261   */\n          dup8\n            /* \"#utility.yul\":9254:9273   */\n          add\n            /* \"#utility.yul\":9248:9274   */\n          mload\n            /* \"#utility.yul\":9239:9274   */\n          swap1\n          pop\n            /* \"#utility.yul\":9211:9288   */\n        tag_156:\n            /* \"#utility.yul\":9314:9381   */\n          tag_157\n            /* \"#utility.yul\":9374:9380   */\n          dup6\n            /* \"#utility.yul\":9367:9372   */\n          dup3\n            /* \"#utility.yul\":9314:9381   */\n          tag_48\n          jump\t// in\n        tag_157:\n            /* \"#utility.yul\":9308:9312   */\n          dup7\n            /* \"#utility.yul\":9301:9382   */\n          sstore\n            /* \"#utility.yul\":9170:9392   */\n          pop\n            /* \"#utility.yul\":8505:9392   */\n          jump(tag_154)\n            /* \"#utility.yul\":8535:9153   */\n        tag_155:\n            /* \"#utility.yul\":8587:8591   */\n          0x1f\n            /* \"#utility.yul\":8583:8592   */\n          not\n            /* \"#utility.yul\":8575:8581   */\n          dup5\n            /* \"#utility.yul\":8571:8593   */\n          and\n            /* \"#utility.yul\":8621:8658   */\n          tag_158\n            /* \"#utility.yul\":8653:8657   */\n          dup7\n            /* \"#utility.yul\":8621:8658   */\n          tag_34\n          jump\t// in\n        tag_158:\n            /* \"#utility.yul\":8680:8681   */\n          0x00\n            /* \"#utility.yul\":8694:8902   */\n        tag_159:\n            /* \"#utility.yul\":8708:8715   */\n          dup3\n            /* \"#utility.yul\":8705:8706   */\n          dup2\n            /* \"#utility.yul\":8702:8716   */\n          lt\n            /* \"#utility.yul\":8694:8902   */\n          iszero\n          tag_161\n          jumpi\n            /* \"#utility.yul\":8787:8796   */\n          dup5\n            /* \"#utility.yul\":8782:8785   */\n          dup10\n            /* \"#utility.yul\":8778:8797   */\n          add\n            /* \"#utility.yul\":8772:8798   */\n          mload\n            /* \"#utility.yul\":8764:8770   */\n          dup3\n            /* \"#utility.yul\":8757:8799   */\n          sstore\n            /* \"#utility.yul\":8838:8839   */\n          0x01\n            /* \"#utility.yul\":8830:8836   */\n          dup3\n            /* \"#utility.yul\":8826:8840   */\n          add\n            /* \"#utility.yul\":8816:8840   */\n          swap2\n          pop\n            /* \"#utility.yul\":8885:8887   */\n          0x20\n            /* \"#utility.yul\":8874:8883   */\n          dup6\n            /* \"#utility.yul\":8870:8888   */\n          add\n            /* \"#utility.yul\":8857:8888   */\n          swap5\n          pop\n            /* \"#utility.yul\":8731:8735   */\n          0x20\n            /* \"#utility.yul\":8728:8729   */\n          dup2\n            /* \"#utility.yul\":8724:8736   */\n          add\n            /* \"#utility.yul\":8719:8736   */\n          swap1\n          pop\n            /* \"#utility.yul\":8694:8902   */\n          jump(tag_159)\n        tag_161:\n            /* \"#utility.yul\":8930:8936   */\n          dup7\n            /* \"#utility.yul\":8921:8928   */\n          dup4\n            /* \"#utility.yul\":8918:8937   */\n          lt\n            /* \"#utility.yul\":8915:9094   */\n          iszero\n          tag_162\n          jumpi\n            /* \"#utility.yul\":8988:8997   */\n          dup5\n            /* \"#utility.yul\":8983:8986   */\n          dup10\n            /* \"#utility.yul\":8979:8998   */\n          add\n            /* \"#utility.yul\":8973:8999   */\n          mload\n            /* \"#utility.yul\":9031:9079   */\n          tag_163\n            /* \"#utility.yul\":9073:9077   */\n          0x1f\n            /* \"#utility.yul\":9065:9071   */\n          dup10\n            /* \"#utility.yul\":9061:9078   */\n          and\n            /* \"#utility.yul\":9050:9059   */\n          dup3\n            /* \"#utility.yul\":9031:9079   */\n          tag_47\n          jump\t// in\n        tag_163:\n            /* \"#utility.yul\":9023:9029   */\n          dup4\n            /* \"#utility.yul\":9016:9080   */\n          sstore\n            /* \"#utility.yul\":8938:9094   */\n          pop\n            /* \"#utility.yul\":8915:9094   */\n        tag_162:\n            /* \"#utility.yul\":9140:9141   */\n          0x01\n            /* \"#utility.yul\":9136:9137   */\n          0x02\n            /* \"#utility.yul\":9128:9134   */\n          dup9\n            /* \"#utility.yul\":9124:9138   */\n          mul\n            /* \"#utility.yul\":9120:9142   */\n          add\n            /* \"#utility.yul\":9114:9118   */\n          dup9\n            /* \"#utility.yul\":9107:9143   */\n          sstore\n            /* \"#utility.yul\":8542:9153   */\n          pop\n          pop\n          pop\n            /* \"#utility.yul\":8505:9392   */\n        tag_154:\n          pop\n            /* \"#utility.yul\":8095:9398   */\n          pop\n          pop\n          pop\n            /* \"#utility.yul\":8003:9398   */\n          pop\n          pop\n          jump\t// out\n            /* \"#utility.yul\":9404:9584   */\n        tag_49:\n            /* \"#utility.yul\":9452:9529   */\n          0x4e487b7100000000000000000000000000000000000000000000000000000000\n            /* \"#utility.yul\":9449:9450   */\n          0x00\n            /* \"#utility.yul\":9442:9530   */\n          mstore\n            /* \"#utility.yul\":9549:9553   */\n          0x11\n            /* \"#utility.yul\":9546:9547   */\n          0x04\n            /* \"#utility.yul\":9539:9554   */\n          mstore\n            /* \"#utility.yul\":9573:9577   */\n          0x24\n            /* \"#utility.yul\":9570:9571   */\n          0x00\n            /* \"#utility.yul\":9563:9578   */\n          revert\n            /* \"#utility.yul\":9590:9781   */\n        tag_9:\n            /* \"#utility.yul\":9630:9633   */\n          0x00\n            /* \"#utility.yul\":9649:9669   */\n          tag_166\n            /* \"#utility.yul\":9667:9668   */\n          dup3\n            /* \"#utility.yul\":9649:9669   */\n          tag_14\n          jump\t// in\n        tag_166:\n            /* \"#utility.yul\":9644:9669   */\n          swap2\n          pop\n            /* \"#utility.yul\":9683:9703   */\n          tag_167\n            /* \"#utility.yul\":9701:9702   */\n          dup4\n            /* \"#utility.yul\":9683:9703   */\n          tag_14\n          jump\t// in\n        tag_167:\n            /* \"#utility.yul\":9678:9703   */\n          swap3\n          pop\n            /* \"#utility.yul\":9726:9727   */\n          dup3\n            /* \"#utility.yul\":9723:9724   */\n          dup3\n            /* \"#utility.yul\":9719:9728   */\n          add\n            /* \"#utility.yul\":9712:9728   */\n          swap1\n          pop\n            /* \"#utility.yul\":9747:9750   */\n          dup1\n            /* \"#utility.yul\":9744:9745   */\n          dup3\n            /* \"#utility.yul\":9741:9751   */\n          gt\n            /* \"#utility.yul\":9738:9774   */\n          iszero\n          tag_168\n          jumpi\n            /* \"#utility.yul\":9754:9772   */\n          tag_169\n          tag_49\n          jump\t// in\n        tag_169:\n            /* \"#utility.yul\":9738:9774   */\n        tag_168:\n            /* \"#utility.yul\":9590:9781   */\n          swap3\n          swap2\n          pop\n          pop\n          jump\t// out\n            /* \"Auction.sol\":66:5123  contract Auction {... */\n        tag_10:\n          dataSize(sub_0)\n          dup1\n          dataOffset(sub_0)\n          0x00\n          codecopy\n          0x00\n          return\n        stop\n\n        sub_0: assembly {\n                /* \"Auction.sol\":66:5123  contract Auction {... */\n              mstore(0x40, 0x80)\n              jumpi(tag_1, lt(calldatasize, 0x04))\n              shr(0xe0, calldataload(0x00))\n              dup1\n              0x3ccfd60b\n              gt\n              tag_11\n              jumpi\n              dup1\n              0x3ccfd60b\n              eq\n              tag_6\n              jumpi\n              dup1\n              0x4b449cba\n              eq\n              tag_7\n              jumpi\n              dup1\n              0x91f90157\n              eq\n              tag_8\n              jumpi\n              dup1\n              0xc63d99db\n              eq\n              tag_9\n              jumpi\n              dup1\n              0xd57bde79\n              eq\n              tag_10\n              jumpi\n              jump(tag_1)\n            tag_11:\n              dup1\n              0x1998aeef\n              eq\n              tag_2\n              jumpi\n              dup1\n              0x26b387bb\n              eq\n              tag_3\n              jumpi\n              dup1\n              0x2a24f46c\n              eq\n              tag_4\n              jumpi\n              dup1\n              0x38af3eed\n              eq\n              tag_5\n              jumpi\n            tag_1:\n              0x00\n              dup1\n              revert\n                /* \"Auction.sol\":1915:3113  function bid() external payable {... */\n            tag_2:\n              tag_12\n              tag_13\n              jump\t// in\n            tag_12:\n              stop\n                /* \"Auction.sol\":483:532  mapping(address => uint256) public pendingReturns */\n            tag_3:\n              callvalue\n              dup1\n              iszero\n              tag_14\n              jumpi\n              0x00\n              dup1\n              revert\n            tag_14:\n              pop\n              tag_15\n              0x04\n              dup1\n              calldatasize\n              sub\n              dup2\n              add\n              swap1\n              tag_16\n              swap2\n              swap1\n              tag_17\n              jump\t// in\n            tag_16:\n              tag_18\n              jump\t// in\n            tag_15:\n              mload(0x40)\n              tag_19\n              swap2\n              swap1\n              tag_20\n              jump\t// in\n            tag_19:\n              mload(0x40)\n              dup1\n              swap2\n              sub\n              swap1\n              return\n                /* \"Auction.sol\":4052:5121  function auctionEnd() external {... */\n            tag_4:\n              callvalue\n              dup1\n              iszero\n              tag_21\n              jumpi\n              0x00\n              dup1\n              revert\n            tag_21:\n              pop\n              tag_22\n              tag_23\n              jump\t// in\n            tag_22:\n              stop\n                /* \"Auction.sol\":230:264  address payable public beneficiary */\n            tag_5:\n              callvalue\n              dup1\n              iszero\n              tag_24\n              jumpi\n              0x00\n              dup1\n              revert\n            tag_24:\n              pop\n              tag_25\n              tag_26\n              jump\t// in\n            tag_25:\n              mload(0x40)\n              tag_27\n              swap2\n              swap1\n              tag_28\n              jump\t// in\n            tag_27:\n              mload(0x40)\n              dup1\n              swap2\n              sub\n              swap1\n              return\n                /* \"Auction.sol\":3160:3969  function withdraw() external returns (bool) {... */\n            tag_6:\n              callvalue\n              dup1\n              iszero\n              tag_29\n              jumpi\n              0x00\n              dup1\n              revert\n            tag_29:\n              pop\n              tag_30\n              tag_31\n              jump\t// in\n            tag_30:\n              mload(0x40)\n              tag_32\n              swap2\n              swap1\n              tag_33\n              jump\t// in\n            tag_32:\n              mload(0x40)\n              dup1\n              swap2\n              sub\n              swap1\n              return\n                /* \"Auction.sol\":270:299  uint256 public auctionEndTime */\n            tag_7:\n              callvalue\n              dup1\n              iszero\n              tag_34\n              jumpi\n              0x00\n              dup1\n              revert\n            tag_34:\n              pop\n              tag_35\n              tag_36\n              jump\t// in\n            tag_35:\n              mload(0x40)\n              tag_37\n              swap2\n              swap1\n              tag_20\n              jump\t// in\n            tag_37:\n              mload(0x40)\n              dup1\n              swap2\n              sub\n              swap1\n              return\n                /* \"Auction.sol\":373:401  address public highestBidder */\n            tag_8:\n              callvalue\n              dup1\n              iszero\n              tag_38\n              jumpi\n              0x00\n              dup1\n              revert\n            tag_38:\n              pop\n              tag_39\n              tag_40\n              jump\t// in\n            tag_39:\n              mload(0x40)\n              tag_41\n              swap2\n              swap1\n              tag_42\n              jump\t// in\n            tag_41:\n              mload(0x40)\n              dup1\n              swap2\n              sub\n              swap1\n              return\n                /* \"Auction.sol\":305:330  string public auctionName */\n            tag_9:\n              callvalue\n              dup1\n              iszero\n              tag_43\n              jumpi\n              0x00\n              dup1\n              revert\n            tag_43:\n              pop\n              tag_44\n              tag_45\n              jump\t// in\n            tag_44:\n              mload(0x40)\n              tag_46\n              swap2\n              swap1\n              tag_47\n              jump\t// in\n            tag_46:\n              mload(0x40)\n              dup1\n              swap2\n              sub\n              swap1\n              return\n                /* \"Auction.sol\":407:432  uint256 public highestBid */\n            tag_10:\n              callvalue\n              dup1\n              iszero\n              tag_48\n              jumpi\n              0x00\n              dup1\n              revert\n            tag_48:\n              pop\n              tag_49\n              tag_50\n              jump\t// in\n            tag_49:\n              mload(0x40)\n              tag_51\n              swap2\n              swap1\n              tag_20\n              jump\t// in\n            tag_51:\n              mload(0x40)\n              dup1\n              swap2\n              sub\n              swap1\n              return\n                /* \"Auction.sol\":1915:3113  function bid() external payable {... */\n            tag_13:\n                /* \"Auction.sol\":2262:2276  auctionEndTime */\n              sload(0x01)\n                /* \"Auction.sol\":2244:2259  block.timestamp */\n              timestamp\n                /* \"Auction.sol\":2244:2276  block.timestamp > auctionEndTime */\n              gt\n                /* \"Auction.sol\":2240:2306  if (block.timestamp > auctionEndTime) revert AuctionAlreadyEnded() */\n              iszero\n              tag_53\n              jumpi\n                /* \"Auction.sol\":2285:2306  AuctionAlreadyEnded() */\n              mload(0x40)\n              0xd02e774d00000000000000000000000000000000000000000000000000000000\n              dup2\n              mstore\n              0x04\n              add\n              mload(0x40)\n              dup1\n              swap2\n              sub\n              swap1\n              revert\n                /* \"Auction.sol\":2240:2306  if (block.timestamp > auctionEndTime) revert AuctionAlreadyEnded() */\n            tag_53:\n                /* \"Auction.sol\":2549:2559  highestBid */\n              sload(0x04)\n                /* \"Auction.sol\":2536:2545  msg.value */\n              callvalue\n                /* \"Auction.sol\":2536:2559  msg.value <= highestBid */\n              gt\n                /* \"Auction.sol\":2532:2596  if (msg.value <= highestBid) revert BidNotHighEnough(highestBid) */\n              tag_54\n              jumpi\n                /* \"Auction.sol\":2585:2595  highestBid */\n              sload(0x04)\n                /* \"Auction.sol\":2568:2596  BidNotHighEnough(highestBid) */\n              mload(0x40)\n              0x4e12c1bb00000000000000000000000000000000000000000000000000000000\n              dup2\n              mstore\n              0x04\n              add\n              tag_55\n              swap2\n              swap1\n              tag_20\n              jump\t// in\n            tag_55:\n              mload(0x40)\n              dup1\n              swap2\n              sub\n              swap1\n              revert\n                /* \"Auction.sol\":2532:2596  if (msg.value <= highestBid) revert BidNotHighEnough(highestBid) */\n            tag_54:\n                /* \"Auction.sol\":2625:2626  0 */\n              0x00\n                /* \"Auction.sol\":2611:2621  highestBid */\n              sload(0x04)\n                /* \"Auction.sol\":2611:2626  highestBid != 0 */\n              eq\n                /* \"Auction.sol\":2607:2982  if (highestBid != 0) {... */\n              tag_56\n              jumpi\n                /* \"Auction.sol\":2961:2971  highestBid */\n              sload(0x04)\n                /* \"Auction.sol\":2928:2942  pendingReturns */\n              0x05\n                /* \"Auction.sol\":2928:2957  pendingReturns[highestBidder] */\n              0x00\n                /* \"Auction.sol\":2943:2956  highestBidder */\n              0x03\n              0x00\n              swap1\n              sload\n              swap1\n              0x0100\n              exp\n              swap1\n              div\n              0xffffffffffffffffffffffffffffffffffffffff\n              and\n                /* \"Auction.sol\":2928:2957  pendingReturns[highestBidder] */\n              0xffffffffffffffffffffffffffffffffffffffff\n              and\n              0xffffffffffffffffffffffffffffffffffffffff\n              and\n              dup2\n              mstore\n              0x20\n              add\n              swap1\n              dup2\n              mstore\n              0x20\n              add\n              0x00\n              keccak256\n              0x00\n                /* \"Auction.sol\":2928:2971  pendingReturns[highestBidder] += highestBid */\n              dup3\n              dup3\n              sload\n              tag_57\n              swap2\n              swap1\n              tag_58\n              jump\t// in\n            tag_57:\n              swap3\n              pop\n              pop\n              dup2\n              swap1\n              sstore\n              pop\n                /* \"Auction.sol\":2607:2982  if (highestBid != 0) {... */\n            tag_56:\n                /* \"Auction.sol\":3007:3017  msg.sender */\n              caller\n                /* \"Auction.sol\":2991:3004  highestBidder */\n              0x03\n              0x00\n                /* \"Auction.sol\":2991:3017  highestBidder = msg.sender */\n              0x0100\n              exp\n              dup2\n              sload\n              dup2\n              0xffffffffffffffffffffffffffffffffffffffff\n              mul\n              not\n              and\n              swap1\n              dup4\n              0xffffffffffffffffffffffffffffffffffffffff\n              and\n              mul\n              or\n              swap1\n              sstore\n              pop\n                /* \"Auction.sol\":3040:3049  msg.value */\n              callvalue\n                /* \"Auction.sol\":3027:3037  highestBid */\n              0x04\n                /* \"Auction.sol\":3027:3049  highestBid = msg.value */\n              dup2\n              swap1\n              sstore\n              pop\n                /* \"Auction.sol\":3064:3106  HighestBidIncreased(msg.sender, msg.value) */\n              0xf4757a49b326036464bec6fe419a4ae38c8a02ce3e68bf0809674f6aab8ad300\n                /* \"Auction.sol\":3084:3094  msg.sender */\n              caller\n                /* \"Auction.sol\":3096:3105  msg.value */\n              callvalue\n                /* \"Auction.sol\":3064:3106  HighestBidIncreased(msg.sender, msg.value) */\n              mload(0x40)\n              tag_59\n              swap3\n              swap2\n              swap1\n              tag_60\n              jump\t// in\n            tag_59:\n              mload(0x40)\n              dup1\n              swap2\n              sub\n              swap1\n              log1\n                /* \"Auction.sol\":1915:3113  function bid() external payable {... */\n              jump\t// out\n                /* \"Auction.sol\":483:532  mapping(address => uint256) public pendingReturns */\n            tag_18:\n              mstore(0x20, 0x05)\n              dup1\n              0x00\n              mstore\n              keccak256(0x00, 0x40)\n              0x00\n              swap2\n              pop\n              swap1\n              pop\n              sload\n              dup2\n              jump\t// out\n                /* \"Auction.sol\":4052:5121  function auctionEnd() external {... */\n            tag_23:\n                /* \"Auction.sol\":4850:4864  auctionEndTime */\n              sload(0x01)\n                /* \"Auction.sol\":4832:4847  block.timestamp */\n              timestamp\n                /* \"Auction.sol\":4832:4864  block.timestamp < auctionEndTime */\n              lt\n                /* \"Auction.sol\":4828:4893  if (block.timestamp < auctionEndTime) revert AuctionNotYetEnded() */\n              iszero\n              tag_62\n              jumpi\n                /* \"Auction.sol\":4873:4893  AuctionNotYetEnded() */\n              mload(0x40)\n              0x44cee29000000000000000000000000000000000000000000000000000000000\n              dup2\n              mstore\n              0x04\n              add\n              mload(0x40)\n              dup1\n              swap2\n              sub\n              swap1\n              revert\n                /* \"Auction.sol\":4828:4893  if (block.timestamp < auctionEndTime) revert AuctionNotYetEnded() */\n            tag_62:\n                /* \"Auction.sol\":4907:4912  ended */\n              0x06\n              0x00\n              swap1\n              sload\n              swap1\n              0x0100\n              exp\n              swap1\n              div\n              0xff\n              and\n                /* \"Auction.sol\":4903:4946  if (ended) revert AuctionEndAlreadyCalled() */\n              iszero\n              tag_63\n              jumpi\n                /* \"Auction.sol\":4921:4946  AuctionEndAlreadyCalled() */\n              mload(0x40)\n              0x61cfdcf800000000000000000000000000000000000000000000000000000000\n              dup2\n              mstore\n              0x04\n              add\n              mload(0x40)\n              dup1\n              swap2\n              sub\n              swap1\n              revert\n                /* \"Auction.sol\":4903:4946  if (ended) revert AuctionEndAlreadyCalled() */\n            tag_63:\n                /* \"Auction.sol\":4987:4991  true */\n              0x01\n                /* \"Auction.sol\":4979:4984  ended */\n              0x06\n              0x00\n                /* \"Auction.sol\":4979:4991  ended = true */\n              0x0100\n              exp\n              dup2\n              sload\n              dup2\n              0xff\n              mul\n              not\n              and\n              swap1\n              dup4\n              iszero\n              iszero\n              mul\n              or\n              swap1\n              sstore\n              pop\n                /* \"Auction.sol\":5006:5045  AuctionEnded(highestBidder, highestBid) */\n              0xdaec4582d5d9595688c8c98545fdd1c696d41c6aeaeb636737e84ed2f5c00eda\n                /* \"Auction.sol\":5019:5032  highestBidder */\n              0x03\n              0x00\n              swap1\n              sload\n              swap1\n              0x0100\n              exp\n              swap1\n              div\n              0xffffffffffffffffffffffffffffffffffffffff\n              and\n                /* \"Auction.sol\":5034:5044  highestBid */\n              sload(0x04)\n                /* \"Auction.sol\":5006:5045  AuctionEnded(highestBidder, highestBid) */\n              mload(0x40)\n              tag_64\n              swap3\n              swap2\n              swap1\n              tag_60\n              jump\t// in\n            tag_64:\n              mload(0x40)\n              dup1\n              swap2\n              sub\n              swap1\n              log1\n                /* \"Auction.sol\":5082:5093  beneficiary */\n              0x00\n              dup1\n              sload\n              swap1\n              0x0100\n              exp\n              swap1\n              div\n              0xffffffffffffffffffffffffffffffffffffffff\n              and\n                /* \"Auction.sol\":5082:5102  beneficiary.transfer */\n              0xffffffffffffffffffffffffffffffffffffffff\n              and\n                /* \"Auction.sol\":5082:5114  beneficiary.transfer(highestBid) */\n              0x08fc\n                /* \"Auction.sol\":5103:5113  highestBid */\n              sload(0x04)\n                /* \"Auction.sol\":5082:5114  beneficiary.transfer(highestBid) */\n              swap1\n              dup2\n              iszero\n              mul\n              swap1\n              mload(0x40)\n              0x00\n              mload(0x40)\n              dup1\n              dup4\n              sub\n              dup2\n              dup6\n              dup9\n              dup9\n              call\n              swap4\n              pop\n              pop\n              pop\n              pop\n              iszero\n              dup1\n              iszero\n              tag_66\n              jumpi\n              returndatasize\n              0x00\n              dup1\n              returndatacopy\n              revert(0x00, returndatasize)\n            tag_66:\n              pop\n                /* \"Auction.sol\":4052:5121  function auctionEnd() external {... */\n              jump\t// out\n                /* \"Auction.sol\":230:264  address payable public beneficiary */\n            tag_26:\n              0x00\n              dup1\n              sload\n              swap1\n              0x0100\n              exp\n              swap1\n              div\n              0xffffffffffffffffffffffffffffffffffffffff\n              and\n              dup2\n              jump\t// out\n                /* \"Auction.sol\":3160:3969  function withdraw() external returns (bool) {... */\n            tag_31:\n                /* \"Auction.sol\":3198:3202  bool */\n              0x00\n                /* \"Auction.sol\":3214:3228  uint256 amount */\n              dup1\n                /* \"Auction.sol\":3231:3245  pendingReturns */\n              0x05\n                /* \"Auction.sol\":3231:3257  pendingReturns[msg.sender] */\n              0x00\n                /* \"Auction.sol\":3246:3256  msg.sender */\n              caller\n                /* \"Auction.sol\":3231:3257  pendingReturns[msg.sender] */\n              0xffffffffffffffffffffffffffffffffffffffff\n              and\n              0xffffffffffffffffffffffffffffffffffffffff\n              and\n              dup2\n              mstore\n              0x20\n              add\n              swap1\n              dup2\n              mstore\n              0x20\n              add\n              0x00\n              keccak256\n              sload\n                /* \"Auction.sol\":3214:3257  uint256 amount = pendingReturns[msg.sender] */\n              swap1\n              pop\n                /* \"Auction.sol\":3280:3281  0 */\n              0x00\n                /* \"Auction.sol\":3271:3277  amount */\n              dup2\n                /* \"Auction.sol\":3271:3281  amount > 0 */\n              gt\n                /* \"Auction.sol\":3267:3942  if (amount > 0) {... */\n              iszero\n              tag_68\n              jumpi\n                /* \"Auction.sol\":3511:3512  0 */\n              0x00\n                /* \"Auction.sol\":3482:3496  pendingReturns */\n              0x05\n                /* \"Auction.sol\":3482:3508  pendingReturns[msg.sender] */\n              0x00\n                /* \"Auction.sol\":3497:3507  msg.sender */\n              caller\n                /* \"Auction.sol\":3482:3508  pendingReturns[msg.sender] */\n              0xffffffffffffffffffffffffffffffffffffffff\n              and\n              0xffffffffffffffffffffffffffffffffffffffff\n              and\n              dup2\n              mstore\n              0x20\n              add\n              swap1\n              dup2\n              mstore\n              0x20\n              add\n              0x00\n              keccak256\n                /* \"Auction.sol\":3482:3512  pendingReturns[msg.sender] = 0 */\n              dup2\n              swap1\n              sstore\n              pop\n                /* \"Auction.sol\":3733:3743  msg.sender */\n              caller\n                /* \"Auction.sol\":3725:3749  payable(msg.sender).send */\n              0xffffffffffffffffffffffffffffffffffffffff\n              and\n                /* \"Auction.sol\":3725:3757  payable(msg.sender).send(amount) */\n              0x08fc\n                /* \"Auction.sol\":3750:3756  amount */\n              dup3\n                /* \"Auction.sol\":3725:3757  payable(msg.sender).send(amount) */\n              swap1\n              dup2\n              iszero\n              mul\n              swap1\n              mload(0x40)\n              0x00\n              mload(0x40)\n              dup1\n              dup4\n              sub\n              dup2\n              dup6\n              dup9\n              dup9\n              call\n              swap4\n              pop\n              pop\n              pop\n              pop\n                /* \"Auction.sol\":3720:3932  if (!payable(msg.sender).send(amount)) {... */\n              tag_70\n              jumpi\n                /* \"Auction.sol\":3881:3887  amount */\n              dup1\n                /* \"Auction.sol\":3852:3866  pendingReturns */\n              0x05\n                /* \"Auction.sol\":3852:3878  pendingReturns[msg.sender] */\n              0x00\n                /* \"Auction.sol\":3867:3877  msg.sender */\n              caller\n                /* \"Auction.sol\":3852:3878  pendingReturns[msg.sender] */\n              0xffffffffffffffffffffffffffffffffffffffff\n              and\n              0xffffffffffffffffffffffffffffffffffffffff\n              and\n              dup2\n              mstore\n              0x20\n              add\n              swap1\n              dup2\n              mstore\n              0x20\n              add\n              0x00\n              keccak256\n                /* \"Auction.sol\":3852:3887  pendingReturns[msg.sender] = amount */\n              dup2\n              swap1\n              sstore\n              pop\n                /* \"Auction.sol\":3912:3917  false */\n              0x00\n                /* \"Auction.sol\":3905:3917  return false */\n              swap2\n              pop\n              pop\n              jump(tag_67)\n                /* \"Auction.sol\":3720:3932  if (!payable(msg.sender).send(amount)) {... */\n            tag_70:\n                /* \"Auction.sol\":3267:3942  if (amount > 0) {... */\n            tag_68:\n                /* \"Auction.sol\":3958:3962  true */\n              0x01\n                /* \"Auction.sol\":3951:3962  return true */\n              swap2\n              pop\n              pop\n                /* \"Auction.sol\":3160:3969  function withdraw() external returns (bool) {... */\n            tag_67:\n              swap1\n              jump\t// out\n                /* \"Auction.sol\":270:299  uint256 public auctionEndTime */\n            tag_36:\n              sload(0x01)\n              dup2\n              jump\t// out\n                /* \"Auction.sol\":373:401  address public highestBidder */\n            tag_40:\n              0x03\n              0x00\n              swap1\n              sload\n              swap1\n              0x0100\n              exp\n              swap1\n              div\n              0xffffffffffffffffffffffffffffffffffffffff\n              and\n              dup2\n              jump\t// out\n                /* \"Auction.sol\":305:330  string public auctionName */\n            tag_45:\n              0x02\n              dup1\n              sload\n              tag_71\n              swap1\n              tag_72\n              jump\t// in\n            tag_71:\n              dup1\n              0x1f\n              add\n              0x20\n              dup1\n              swap2\n              div\n              mul\n              0x20\n              add\n              mload(0x40)\n              swap1\n              dup2\n              add\n              0x40\n              mstore\n              dup1\n              swap3\n              swap2\n              swap1\n              dup2\n              dup2\n              mstore\n              0x20\n              add\n              dup3\n              dup1\n              sload\n              tag_73\n              swap1\n              tag_72\n              jump\t// in\n            tag_73:\n              dup1\n              iszero\n              tag_74\n              jumpi\n              dup1\n              0x1f\n              lt\n              tag_75\n              jumpi\n              0x0100\n              dup1\n              dup4\n              sload\n              div\n              mul\n              dup4\n              mstore\n              swap2\n              0x20\n              add\n              swap2\n              jump(tag_74)\n            tag_75:\n              dup3\n              add\n              swap2\n              swap1\n              0x00\n              mstore\n              keccak256(0x00, 0x20)\n              swap1\n            tag_76:\n              dup2\n              sload\n              dup2\n              mstore\n              swap1\n              0x01\n              add\n              swap1\n              0x20\n              add\n              dup1\n              dup4\n              gt\n              tag_76\n              jumpi\n              dup3\n              swap1\n              sub\n              0x1f\n              and\n              dup3\n              add\n              swap2\n            tag_74:\n              pop\n              pop\n              pop\n              pop\n              pop\n              dup2\n              jump\t// out\n                /* \"Auction.sol\":407:432  uint256 public highestBid */\n            tag_50:\n              sload(0x04)\n              dup2\n              jump\t// out\n                /* \"#utility.yul\":88:205   */\n            tag_78:\n                /* \"#utility.yul\":197:198   */\n              0x00\n                /* \"#utility.yul\":194:195   */\n              dup1\n                /* \"#utility.yul\":187:199   */\n              revert\n                /* \"#utility.yul\":334:460   */\n            tag_80:\n                /* \"#utility.yul\":371:378   */\n              0x00\n                /* \"#utility.yul\":411:453   */\n              0xffffffffffffffffffffffffffffffffffffffff\n                /* \"#utility.yul\":404:409   */\n              dup3\n                /* \"#utility.yul\":400:454   */\n              and\n                /* \"#utility.yul\":389:454   */\n              swap1\n              pop\n                /* \"#utility.yul\":334:460   */\n              swap2\n              swap1\n              pop\n              jump\t// out\n                /* \"#utility.yul\":466:562   */\n            tag_81:\n                /* \"#utility.yul\":503:510   */\n              0x00\n                /* \"#utility.yul\":532:556   */\n              tag_104\n                /* \"#utility.yul\":550:555   */\n              dup3\n                /* \"#utility.yul\":532:556   */\n              tag_80\n              jump\t// in\n            tag_104:\n                /* \"#utility.yul\":521:556   */\n              swap1\n              pop\n                /* \"#utility.yul\":466:562   */\n              swap2\n              swap1\n              pop\n              jump\t// out\n                /* \"#utility.yul\":568:690   */\n            tag_82:\n                /* \"#utility.yul\":641:665   */\n              tag_106\n                /* \"#utility.yul\":659:664   */\n              dup2\n                /* \"#utility.yul\":641:665   */\n              tag_81\n              jump\t// in\n            tag_106:\n                /* \"#utility.yul\":634:639   */\n              dup2\n                /* \"#utility.yul\":631:666   */\n              eq\n                /* \"#utility.yul\":621:684   */\n              tag_107\n              jumpi\n                /* \"#utility.yul\":680:681   */\n              0x00\n                /* \"#utility.yul\":677:678   */\n              dup1\n                /* \"#utility.yul\":670:682   */\n              revert\n                /* \"#utility.yul\":621:684   */\n            tag_107:\n                /* \"#utility.yul\":568:690   */\n              pop\n              jump\t// out\n                /* \"#utility.yul\":696:835   */\n            tag_83:\n                /* \"#utility.yul\":742:747   */\n              0x00\n                /* \"#utility.yul\":780:786   */\n              dup2\n                /* \"#utility.yul\":767:787   */\n              calldataload\n                /* \"#utility.yul\":758:787   */\n              swap1\n              pop\n                /* \"#utility.yul\":796:829   */\n              tag_109\n                /* \"#utility.yul\":823:828   */\n              dup2\n                /* \"#utility.yul\":796:829   */\n              tag_82\n              jump\t// in\n            tag_109:\n                /* \"#utility.yul\":696:835   */\n              swap3\n              swap2\n              pop\n              pop\n              jump\t// out\n                /* \"#utility.yul\":841:1170   */\n            tag_17:\n                /* \"#utility.yul\":900:906   */\n              0x00\n                /* \"#utility.yul\":949:951   */\n              0x20\n                /* \"#utility.yul\":937:946   */\n              dup3\n                /* \"#utility.yul\":928:935   */\n              dup5\n                /* \"#utility.yul\":924:947   */\n              sub\n                /* \"#utility.yul\":920:952   */\n              slt\n                /* \"#utility.yul\":917:1036   */\n              iszero\n              tag_111\n              jumpi\n                /* \"#utility.yul\":955:1034   */\n              tag_112\n              tag_78\n              jump\t// in\n            tag_112:\n                /* \"#utility.yul\":917:1036   */\n            tag_111:\n                /* \"#utility.yul\":1075:1076   */\n              0x00\n                /* \"#utility.yul\":1100:1153   */\n              tag_113\n                /* \"#utility.yul\":1145:1152   */\n              dup5\n                /* \"#utility.yul\":1136:1142   */\n              dup3\n                /* \"#utility.yul\":1125:1134   */\n              dup6\n                /* \"#utility.yul\":1121:1143   */\n              add\n                /* \"#utility.yul\":1100:1153   */\n              tag_83\n              jump\t// in\n            tag_113:\n                /* \"#utility.yul\":1090:1153   */\n              swap2\n              pop\n                /* \"#utility.yul\":1046:1163   */\n              pop\n                /* \"#utility.yul\":841:1170   */\n              swap3\n              swap2\n              pop\n              pop\n              jump\t// out\n                /* \"#utility.yul\":1176:1253   */\n            tag_84:\n                /* \"#utility.yul\":1213:1220   */\n              0x00\n                /* \"#utility.yul\":1242:1247   */\n              dup2\n                /* \"#utility.yul\":1231:1247   */\n              swap1\n              pop\n                /* \"#utility.yul\":1176:1253   */\n              swap2\n              swap1\n              pop\n              jump\t// out\n                /* \"#utility.yul\":1259:1377   */\n            tag_85:\n                /* \"#utility.yul\":1346:1370   */\n              tag_116\n                /* \"#utility.yul\":1364:1369   */\n              dup2\n                /* \"#utility.yul\":1346:1370   */\n              tag_84\n              jump\t// in\n            tag_116:\n                /* \"#utility.yul\":1341:1344   */\n              dup3\n                /* \"#utility.yul\":1334:1371   */\n              mstore\n                /* \"#utility.yul\":1259:1377   */\n              pop\n              pop\n              jump\t// out\n                /* \"#utility.yul\":1383:1605   */\n            tag_20:\n                /* \"#utility.yul\":1476:1480   */\n              0x00\n                /* \"#utility.yul\":1514:1516   */\n              0x20\n                /* \"#utility.yul\":1503:1512   */\n              dup3\n                /* \"#utility.yul\":1499:1517   */\n              add\n                /* \"#utility.yul\":1491:1517   */\n              swap1\n              pop\n                /* \"#utility.yul\":1527:1598   */\n              tag_118\n                /* \"#utility.yul\":1595:1596   */\n              0x00\n                /* \"#utility.yul\":1584:1593   */\n              dup4\n                /* \"#utility.yul\":1580:1597   */\n              add\n                /* \"#utility.yul\":1571:1577   */\n              dup5\n                /* \"#utility.yul\":1527:1598   */\n              tag_85\n              jump\t// in\n            tag_118:\n                /* \"#utility.yul\":1383:1605   */\n              swap3\n              swap2\n              pop\n              pop\n              jump\t// out\n                /* \"#utility.yul\":1611:1715   */\n            tag_86:\n                /* \"#utility.yul\":1656:1663   */\n              0x00\n                /* \"#utility.yul\":1685:1709   */\n              tag_120\n                /* \"#utility.yul\":1703:1708   */\n              dup3\n                /* \"#utility.yul\":1685:1709   */\n              tag_80\n              jump\t// in\n            tag_120:\n                /* \"#utility.yul\":1674:1709   */\n              swap1\n              pop\n                /* \"#utility.yul\":1611:1715   */\n              swap2\n              swap1\n              pop\n              jump\t// out\n                /* \"#utility.yul\":1721:1863   */\n            tag_87:\n                /* \"#utility.yul\":1824:1856   */\n              tag_122\n                /* \"#utility.yul\":1850:1855   */\n              dup2\n                /* \"#utility.yul\":1824:1856   */\n              tag_86\n              jump\t// in\n            tag_122:\n                /* \"#utility.yul\":1819:1822   */\n              dup3\n                /* \"#utility.yul\":1812:1857   */\n              mstore\n                /* \"#utility.yul\":1721:1863   */\n              pop\n              pop\n              jump\t// out\n                /* \"#utility.yul\":1869:2123   */\n            tag_28:\n                /* \"#utility.yul\":1978:1982   */\n              0x00\n                /* \"#utility.yul\":2016:2018   */\n              0x20\n                /* \"#utility.yul\":2005:2014   */\n              dup3\n                /* \"#utility.yul\":2001:2019   */\n              add\n                /* \"#utility.yul\":1993:2019   */\n              swap1\n              pop\n                /* \"#utility.yul\":2029:2116   */\n              tag_124\n                /* \"#utility.yul\":2113:2114   */\n              0x00\n                /* \"#utility.yul\":2102:2111   */\n              dup4\n                /* \"#utility.yul\":2098:2115   */\n              add\n                /* \"#utility.yul\":2089:2095   */\n              dup5\n                /* \"#utility.yul\":2029:2116   */\n              tag_87\n              jump\t// in\n            tag_124:\n                /* \"#utility.yul\":1869:2123   */\n              swap3\n              swap2\n              pop\n              pop\n              jump\t// out\n                /* \"#utility.yul\":2129:2219   */\n            tag_88:\n                /* \"#utility.yul\":2163:2170   */\n              0x00\n                /* \"#utility.yul\":2206:2211   */\n              dup2\n                /* \"#utility.yul\":2199:2212   */\n              iszero\n                /* \"#utility.yul\":2192:2213   */\n              iszero\n                /* \"#utility.yul\":2181:2213   */\n              swap1\n              pop\n                /* \"#utility.yul\":2129:2219   */\n              swap2\n              swap1\n              pop\n              jump\t// out\n                /* \"#utility.yul\":2225:2334   */\n            tag_89:\n                /* \"#utility.yul\":2306:2327   */\n              tag_127\n                /* \"#utility.yul\":2321:2326   */\n              dup2\n                /* \"#utility.yul\":2306:2327   */\n              tag_88\n              jump\t// in\n            tag_127:\n                /* \"#utility.yul\":2301:2304   */\n              dup3\n                /* \"#utility.yul\":2294:2328   */\n              mstore\n                /* \"#utility.yul\":2225:2334   */\n              pop\n              pop\n              jump\t// out\n                /* \"#utility.yul\":2340:2550   */\n            tag_33:\n                /* \"#utility.yul\":2427:2431   */\n              0x00\n                /* \"#utility.yul\":2465:2467   */\n              0x20\n                /* \"#utility.yul\":2454:2463   */\n              dup3\n                /* \"#utility.yul\":2450:2468   */\n              add\n                /* \"#utility.yul\":2442:2468   */\n              swap1\n              pop\n                /* \"#utility.yul\":2478:2543   */\n              tag_129\n                /* \"#utility.yul\":2540:2541   */\n              0x00\n                /* \"#utility.yul\":2529:2538   */\n              dup4\n                /* \"#utility.yul\":2525:2542   */\n              add\n                /* \"#utility.yul\":2516:2522   */\n              dup5\n                /* \"#utility.yul\":2478:2543   */\n              tag_89\n              jump\t// in\n            tag_129:\n                /* \"#utility.yul\":2340:2550   */\n              swap3\n              swap2\n              pop\n              pop\n              jump\t// out\n                /* \"#utility.yul\":2556:2674   */\n            tag_90:\n                /* \"#utility.yul\":2643:2667   */\n              tag_131\n                /* \"#utility.yul\":2661:2666   */\n              dup2\n                /* \"#utility.yul\":2643:2667   */\n              tag_81\n              jump\t// in\n            tag_131:\n                /* \"#utility.yul\":2638:2641   */\n              dup3\n                /* \"#utility.yul\":2631:2668   */\n              mstore\n                /* \"#utility.yul\":2556:2674   */\n              pop\n              pop\n              jump\t// out\n                /* \"#utility.yul\":2680:2902   */\n            tag_42:\n                /* \"#utility.yul\":2773:2777   */\n              0x00\n                /* \"#utility.yul\":2811:2813   */\n              0x20\n                /* \"#utility.yul\":2800:2809   */\n              dup3\n                /* \"#utility.yul\":2796:2814   */\n              add\n                /* \"#utility.yul\":2788:2814   */\n              swap1\n              pop\n                /* \"#utility.yul\":2824:2895   */\n              tag_133\n                /* \"#utility.yul\":2892:2893   */\n              0x00\n                /* \"#utility.yul\":2881:2890   */\n              dup4\n                /* \"#utility.yul\":2877:2894   */\n              add\n                /* \"#utility.yul\":2868:2874   */\n              dup5\n                /* \"#utility.yul\":2824:2895   */\n              tag_90\n              jump\t// in\n            tag_133:\n                /* \"#utility.yul\":2680:2902   */\n              swap3\n              swap2\n              pop\n              pop\n              jump\t// out\n                /* \"#utility.yul\":2908:3007   */\n            tag_91:\n                /* \"#utility.yul\":2960:2966   */\n              0x00\n                /* \"#utility.yul\":2994:2999   */\n              dup2\n                /* \"#utility.yul\":2988:3000   */\n              mload\n                /* \"#utility.yul\":2978:3000   */\n              swap1\n              pop\n                /* \"#utility.yul\":2908:3007   */\n              swap2\n              swap1\n              pop\n              jump\t// out\n                /* \"#utility.yul\":3013:3182   */\n            tag_92:\n                /* \"#utility.yul\":3097:3108   */\n              0x00\n                /* \"#utility.yul\":3131:3137   */\n              dup3\n                /* \"#utility.yul\":3126:3129   */\n              dup3\n                /* \"#utility.yul\":3119:3138   */\n              mstore\n                /* \"#utility.yul\":3171:3175   */\n              0x20\n                /* \"#utility.yul\":3166:3169   */\n              dup3\n                /* \"#utility.yul\":3162:3176   */\n              add\n                /* \"#utility.yul\":3147:3176   */\n              swap1\n              pop\n                /* \"#utility.yul\":3013:3182   */\n              swap3\n              swap2\n              pop\n              pop\n              jump\t// out\n                /* \"#utility.yul\":3188:3434   */\n            tag_93:\n                /* \"#utility.yul\":3269:3270   */\n              0x00\n                /* \"#utility.yul\":3279:3392   */\n            tag_137:\n                /* \"#utility.yul\":3293:3299   */\n              dup4\n                /* \"#utility.yul\":3290:3291   */\n              dup2\n                /* \"#utility.yul\":3287:3300   */\n              lt\n                /* \"#utility.yul\":3279:3392   */\n              iszero\n              tag_139\n              jumpi\n                /* \"#utility.yul\":3378:3379   */\n              dup1\n                /* \"#utility.yul\":3373:3376   */\n              dup3\n                /* \"#utility.yul\":3369:3380   */\n              add\n                /* \"#utility.yul\":3363:3381   */\n              mload\n                /* \"#utility.yul\":3359:3360   */\n              dup2\n                /* \"#utility.yul\":3354:3357   */\n              dup5\n                /* \"#utility.yul\":3350:3361   */\n              add\n                /* \"#utility.yul\":3343:3382   */\n              mstore\n                /* \"#utility.yul\":3315:3317   */\n              0x20\n                /* \"#utility.yul\":3312:3313   */\n              dup2\n                /* \"#utility.yul\":3308:3318   */\n              add\n                /* \"#utility.yul\":3303:3318   */\n              swap1\n              pop\n                /* \"#utility.yul\":3279:3392   */\n              jump(tag_137)\n            tag_139:\n                /* \"#utility.yul\":3426:3427   */\n              0x00\n                /* \"#utility.yul\":3417:3423   */\n              dup5\n                /* \"#utility.yul\":3412:3415   */\n              dup5\n                /* \"#utility.yul\":3408:3424   */\n              add\n                /* \"#utility.yul\":3401:3428   */\n              mstore\n                /* \"#utility.yul\":3250:3434   */\n              pop\n                /* \"#utility.yul\":3188:3434   */\n              pop\n              pop\n              pop\n              jump\t// out\n                /* \"#utility.yul\":3440:3542   */\n            tag_94:\n                /* \"#utility.yul\":3481:3487   */\n              0x00\n                /* \"#utility.yul\":3532:3534   */\n              0x1f\n                /* \"#utility.yul\":3528:3535   */\n              not\n                /* \"#utility.yul\":3523:3525   */\n              0x1f\n                /* \"#utility.yul\":3516:3521   */\n              dup4\n                /* \"#utility.yul\":3512:3526   */\n              add\n                /* \"#utility.yul\":3508:3536   */\n              and\n                /* \"#utility.yul\":3498:3536   */\n              swap1\n              pop\n                /* \"#utility.yul\":3440:3542   */\n              swap2\n              swap1\n              pop\n              jump\t// out\n                /* \"#utility.yul\":3548:3925   */\n            tag_95:\n                /* \"#utility.yul\":3636:3639   */\n              0x00\n                /* \"#utility.yul\":3664:3703   */\n              tag_142\n                /* \"#utility.yul\":3697:3702   */\n              dup3\n                /* \"#utility.yul\":3664:3703   */\n              tag_91\n              jump\t// in\n            tag_142:\n                /* \"#utility.yul\":3719:3790   */\n              tag_143\n                /* \"#utility.yul\":3783:3789   */\n              dup2\n                /* \"#utility.yul\":3778:3781   */\n              dup6\n                /* \"#utility.yul\":3719:3790   */\n              tag_92\n              jump\t// in\n            tag_143:\n                /* \"#utility.yul\":3712:3790   */\n              swap4\n              pop\n                /* \"#utility.yul\":3799:3864   */\n              tag_144\n                /* \"#utility.yul\":3857:3863   */\n              dup2\n                /* \"#utility.yul\":3852:3855   */\n              dup6\n                /* \"#utility.yul\":3845:3849   */\n              0x20\n                /* \"#utility.yul\":3838:3843   */\n              dup7\n                /* \"#utility.yul\":3834:3850   */\n              add\n                /* \"#utility.yul\":3799:3864   */\n              tag_93\n              jump\t// in\n            tag_144:\n                /* \"#utility.yul\":3889:3918   */\n              tag_145\n                /* \"#utility.yul\":3911:3917   */\n              dup2\n                /* \"#utility.yul\":3889:3918   */\n              tag_94\n              jump\t// in\n            tag_145:\n                /* \"#utility.yul\":3884:3887   */\n              dup5\n                /* \"#utility.yul\":3880:3919   */\n              add\n                /* \"#utility.yul\":3873:3919   */\n              swap2\n              pop\n                /* \"#utility.yul\":3640:3925   */\n              pop\n                /* \"#utility.yul\":3548:3925   */\n              swap3\n              swap2\n              pop\n              pop\n              jump\t// out\n                /* \"#utility.yul\":3931:4244   */\n            tag_47:\n                /* \"#utility.yul\":4044:4048   */\n              0x00\n                /* \"#utility.yul\":4082:4084   */\n              0x20\n                /* \"#utility.yul\":4071:4080   */\n              dup3\n                /* \"#utility.yul\":4067:4085   */\n              add\n                /* \"#utility.yul\":4059:4085   */\n              swap1\n              pop\n                /* \"#utility.yul\":4131:4140   */\n              dup2\n                /* \"#utility.yul\":4125:4129   */\n              dup2\n                /* \"#utility.yul\":4121:4141   */\n              sub\n                /* \"#utility.yul\":4117:4118   */\n              0x00\n                /* \"#utility.yul\":4106:4115   */\n              dup4\n                /* \"#utility.yul\":4102:4119   */\n              add\n                /* \"#utility.yul\":4095:4142   */\n              mstore\n                /* \"#utility.yul\":4159:4237   */\n              tag_147\n                /* \"#utility.yul\":4232:4236   */\n              dup2\n                /* \"#utility.yul\":4223:4229   */\n              dup5\n                /* \"#utility.yul\":4159:4237   */\n              tag_95\n              jump\t// in\n            tag_147:\n                /* \"#utility.yul\":4151:4237   */\n              swap1\n              pop\n                /* \"#utility.yul\":3931:4244   */\n              swap3\n              swap2\n              pop\n              pop\n              jump\t// out\n                /* \"#utility.yul\":4250:4430   */\n            tag_96:\n                /* \"#utility.yul\":4298:4375   */\n              0x4e487b7100000000000000000000000000000000000000000000000000000000\n                /* \"#utility.yul\":4295:4296   */\n              0x00\n                /* \"#utility.yul\":4288:4376   */\n              mstore\n                /* \"#utility.yul\":4395:4399   */\n              0x11\n                /* \"#utility.yul\":4392:4393   */\n              0x04\n                /* \"#utility.yul\":4385:4400   */\n              mstore\n                /* \"#utility.yul\":4419:4423   */\n              0x24\n                /* \"#utility.yul\":4416:4417   */\n              0x00\n                /* \"#utility.yul\":4409:4424   */\n              revert\n                /* \"#utility.yul\":4436:4627   */\n            tag_58:\n                /* \"#utility.yul\":4476:4479   */\n              0x00\n                /* \"#utility.yul\":4495:4515   */\n              tag_150\n                /* \"#utility.yul\":4513:4514   */\n              dup3\n                /* \"#utility.yul\":4495:4515   */\n              tag_84\n              jump\t// in\n            tag_150:\n                /* \"#utility.yul\":4490:4515   */\n              swap2\n              pop\n                /* \"#utility.yul\":4529:4549   */\n              tag_151\n                /* \"#utility.yul\":4547:4548   */\n              dup4\n                /* \"#utility.yul\":4529:4549   */\n              tag_84\n              jump\t// in\n            tag_151:\n                /* \"#utility.yul\":4524:4549   */\n              swap3\n              pop\n                /* \"#utility.yul\":4572:4573   */\n              dup3\n                /* \"#utility.yul\":4569:4570   */\n              dup3\n                /* \"#utility.yul\":4565:4574   */\n              add\n                /* \"#utility.yul\":4558:4574   */\n              swap1\n              pop\n                /* \"#utility.yul\":4593:4596   */\n              dup1\n                /* \"#utility.yul\":4590:4591   */\n              dup3\n                /* \"#utility.yul\":4587:4597   */\n              gt\n                /* \"#utility.yul\":4584:4620   */\n              iszero\n              tag_152\n              jumpi\n                /* \"#utility.yul\":4600:4618   */\n              tag_153\n              tag_96\n              jump\t// in\n            tag_153:\n                /* \"#utility.yul\":4584:4620   */\n            tag_152:\n                /* \"#utility.yul\":4436:4627   */\n              swap3\n              swap2\n              pop\n              pop\n              jump\t// out\n                /* \"#utility.yul\":4633:4965   */\n            tag_60:\n                /* \"#utility.yul\":4754:4758   */\n              0x00\n                /* \"#utility.yul\":4792:4794   */\n              0x40\n                /* \"#utility.yul\":4781:4790   */\n              dup3\n                /* \"#utility.yul\":4777:4795   */\n              add\n                /* \"#utility.yul\":4769:4795   */\n              swap1\n              pop\n                /* \"#utility.yul\":4805:4876   */\n              tag_155\n                /* \"#utility.yul\":4873:4874   */\n              0x00\n                /* \"#utility.yul\":4862:4871   */\n              dup4\n                /* \"#utility.yul\":4858:4875   */\n              add\n                /* \"#utility.yul\":4849:4855   */\n              dup6\n                /* \"#utility.yul\":4805:4876   */\n              tag_90\n              jump\t// in\n            tag_155:\n                /* \"#utility.yul\":4886:4958   */\n              tag_156\n                /* \"#utility.yul\":4954:4956   */\n              0x20\n                /* \"#utility.yul\":4943:4952   */\n              dup4\n                /* \"#utility.yul\":4939:4957   */\n              add\n                /* \"#utility.yul\":4930:4936   */\n              dup5\n                /* \"#utility.yul\":4886:4958   */\n              tag_85\n              jump\t// in\n            tag_156:\n                /* \"#utility.yul\":4633:4965   */\n              swap4\n              swap3\n              pop\n              pop\n              pop\n              jump\t// out\n                /* \"#utility.yul\":4971:5151   */\n            tag_97:\n                /* \"#utility.yul\":5019:5096   */\n              0x4e487b7100000000000000000000000000000000000000000000000000000000\n                /* \"#utility.yul\":5016:5017   */\n              0x00\n                /* \"#utility.yul\":5009:5097   */\n              mstore\n                /* \"#utility.yul\":5116:5120   */\n              0x22\n                /* \"#utility.yul\":5113:5114   */\n              0x04\n                /* \"#utility.yul\":5106:5121   */\n              mstore\n                /* \"#utility.yul\":5140:5144   */\n              0x24\n                /* \"#utility.yul\":5137:5138   */\n              0x00\n                /* \"#utility.yul\":5130:5145   */\n              revert\n                /* \"#utility.yul\":5157:5477   */\n            tag_72:\n                /* \"#utility.yul\":5201:5207   */\n              0x00\n                /* \"#utility.yul\":5238:5239   */\n              0x02\n                /* \"#utility.yul\":5232:5236   */\n              dup3\n                /* \"#utility.yul\":5228:5240   */\n              div\n                /* \"#utility.yul\":5218:5240   */\n              swap1\n              pop\n                /* \"#utility.yul\":5285:5286   */\n              0x01\n                /* \"#utility.yul\":5279:5283   */\n              dup3\n                /* \"#utility.yul\":5275:5287   */\n              and\n                /* \"#utility.yul\":5306:5324   */\n              dup1\n                /* \"#utility.yul\":5296:5377   */\n              tag_159\n              jumpi\n                /* \"#utility.yul\":5362:5366   */\n              0x7f\n                /* \"#utility.yul\":5354:5360   */\n              dup3\n                /* \"#utility.yul\":5350:5367   */\n              and\n                /* \"#utility.yul\":5340:5367   */\n              swap2\n              pop\n                /* \"#utility.yul\":5296:5377   */\n            tag_159:\n                /* \"#utility.yul\":5424:5426   */\n              0x20\n                /* \"#utility.yul\":5416:5422   */\n              dup3\n                /* \"#utility.yul\":5413:5427   */\n              lt\n                /* \"#utility.yul\":5393:5411   */\n              dup2\n                /* \"#utility.yul\":5390:5428   */\n              sub\n                /* \"#utility.yul\":5387:5471   */\n              tag_160\n              jumpi\n                /* \"#utility.yul\":5443:5461   */\n              tag_161\n              tag_97\n              jump\t// in\n            tag_161:\n                /* \"#utility.yul\":5387:5471   */\n            tag_160:\n                /* \"#utility.yul\":5208:5477   */\n              pop\n                /* \"#utility.yul\":5157:5477   */\n              swap2\n              swap1\n              pop\n              jump\t// out\n\n            auxdata: 0xa2646970667358221220ec943dae2b944cda940cafac304f41c7a1e4253448b984215a5b125cd1486a4b64736f6c63430008140033\n        }\n    }\n\n    auxdata: 0xa2646970667358221220cd2ffe45ab079ff58b883924a834fe2ddedfde3ab33dad33e998b717b771cadb64736f6c63430008140033\n}\n","bytecode":{"linkReferences":{},"object":"608060405234801561000f575f80fd5b50612a238061001d5f395ff3fe608060405234801562000010575f80fd5b5060043610620000aa575f3560e01c8063a0e67e2b116200006d578063a0e67e2b14620001ac578063a44f83e514620001ce578063adaa19921462000204578063cbd2bdfd146200023a578063cca56666146200025c57620000aa565b8063025e7c2714620000ae578063165c588114620000e45780637f593d9e146200011a578063977bd70514620001545780639e01dfbb1462000174575b5f80fd5b620000cc6004803603810190620000c6919062000f00565b62000292565b604051620000db919062000f73565b60405180910390f35b620001026004803603810190620000fc919062000f00565b620002cd565b60405162000111919062000f73565b60405180910390f35b62000138600480360381019062000132919062000fbd565b62000309565b6040516200014b959493929190620010b6565b60405180910390f35b6200017260048036038101906200016c919062001153565b6200055a565b005b6200019260048036038101906200018c919062000fbd565b620007bc565b604051620001a393929190620011c8565b60405180910390f35b620001b6620007ee565b604051620001c59190620012ca565b60405180910390f35b620001ec6004803603810190620001e69190620012ec565b6200087a565b604051620001fb919062001345565b60405180910390f35b6200022260048036038101906200021c9190620014a8565b620008af565b60405162000231919062000f73565b60405180910390f35b6200024462000a5e565b604051620002539190620012ca565b60405180910390f35b6200027a60048036038101906200027491906200150c565b62000aeb565b60405162000289919062001345565b60405180910390f35b5f8181548110620002a1575f80fd5b905f5260205f20015f915054906101000a900473ffffffffffffffffffffffffffffffffffffffff1681565b60038181548110620002dd575f80fd5b905f5260205f20015f915054906101000a900473ffffffffffffffffffffffffffffffffffffffff1681565b5f805f8060605f8690508073ffffffffffffffffffffffffffffffffffffffff166338af3eed6040518163ffffffff1660e01b8152600401602060405180830381865afa1580156200035d573d5f803e3d5ffd5b505050506040513d601f19601f8201168201806040525081019062000383919062001580565b8173ffffffffffffffffffffffffffffffffffffffff16634b449cba6040518163ffffffff1660e01b8152600401602060405180830381865afa158015620003cd573d5f803e3d5ffd5b505050506040513d601f19601f82011682018060405250810190620003f39190620015c6565b8273ffffffffffffffffffffffffffffffffffffffff166391f901576040518163ffffffff1660e01b8152600401602060405180830381865afa1580156200043d573d5f803e3d5ffd5b505050506040513d601f19601f820116820180604052508101906200046391906200160c565b8373ffffffffffffffffffffffffffffffffffffffff1663d57bde796040518163ffffffff1660e01b8152600401602060405180830381865afa158015620004ad573d5f803e3d5ffd5b505050506040513d601f19601f82011682018060405250810190620004d39190620015c6565b8473ffffffffffffffffffffffffffffffffffffffff1663c63d99db6040518163ffffffff1660e01b81526004015f60405180830381865afa1580156200051c573d5f803e3d5ffd5b505050506040513d5f823e3d601f19601f82011682018060405250810190620005469190620016b8565b955095509550955095505091939590929450565b60058160ff161115620005a4576040517f08c379a00000000000000000000000000000000000000000000000000000000081526004016200059b9062001755565b60405180910390fd5b5f8160ff1611620005ec576040517f08c379a0000000000000000000000000000000000000000000000000000000008152600401620005e390620017c3565b60405180910390fd5b620005f8838362000aeb565b6200063a576040517f08c379a0000000000000000000000000000000000000000000000000000000008152600401620006319062001831565b60405180910390fd5b600160025f8573ffffffffffffffffffffffffffffffffffffffff1673ffffffffffffffffffffffffffffffffffffffff1681526020019081526020015f205f8473ffffffffffffffffffffffffffffffffffffffff1673ffffffffffffffffffffffffffffffffffffffff1681526020019081526020015f205f3373ffffffffffffffffffffffffffffffffffffffff1673ffffffffffffffffffffffffffffffffffffffff1681526020019081526020015f205f6101000a81548160ff0219169083151502179055508060ff1660015f8573ffffffffffffffffffffffffffffffffffffffff1673ffffffffffffffffffffffffffffffffffffffff1681526020019081526020015f206001015f8282546200075991906200187e565b9250508190555060015f8473ffffffffffffffffffffffffffffffffffffffff1673ffffffffffffffffffffffffffffffffffffffff1681526020019081526020015f206002015f815480929190620007b290620018b8565b9190505550505050565b6001602052805f5260405f205f91509050805f015f9054906101000a900460ff16908060010154908060020154905083565b60605f8054806020026020016040519081016040528092919081815260200182805480156200087057602002820191905f5260205f20905b815f9054906101000a900473ffffffffffffffffffffffffffffffffffffffff1673ffffffffffffffffffffffffffffffffffffffff168152602001906001019080831162000826575b5050505050905090565b6002602052825f5260405f20602052815f5260405f20602052805f5260405f205f92509250509054906101000a900460ff1681565b5f80838333604051620008c29062000ea9565b620008d09392919062001904565b604051809103905ff080158015620008ea573d5f803e3d5ffd5b509050600381908060018154018082558091505060019003905f5260205f20015f9091909190916101000a81548173ffffffffffffffffffffffffffffffffffffffff021916908373ffffffffffffffffffffffffffffffffffffffff16021790555060015f3373ffffffffffffffffffffffffffffffffffffffff1673ffffffffffffffffffffffffffffffffffffffff1681526020019081526020015f205f015f9054906101000a900460ff1662000a54576001805f3373ffffffffffffffffffffffffffffffffffffffff1673ffffffffffffffffffffffffffffffffffffffff1681526020019081526020015f205f015f6101000a81548160ff0219169083151502179055505f33908060018154018082558091505060019003905f5260205f20015f9091909190916101000a81548173ffffffffffffffffffffffffffffffffffffffff021916908373ffffffffffffffffffffffffffffffffffffffff1602179055505b8091505092915050565b6060600380548060200260200160405190810160405280929190818152602001828054801562000ae157602002820191905f5260205f20905b815f9054906101000a900473ffffffffffffffffffffffffffffffffffffffff1673ffffffffffffffffffffffffffffffffffffffff168152602001906001019080831162000a97575b5050505050905090565b5f8273ffffffffffffffffffffffffffffffffffffffff163373ffffffffffffffffffffffffffffffffffffffff16148062000b70575060015f8473ffffffffffffffffffffffffffffffffffffffff1673ffffffffffffffffffffffffffffffffffffffff1681526020019081526020015f205f015f9054906101000a900460ff16155b8062000bea57508173ffffffffffffffffffffffffffffffffffffffff16634b449cba6040518163ffffffff1660e01b8152600401602060405180830381865afa15801562000bc1573d5f803e3d5ffd5b505050506040513d601f19601f8201168201806040525081019062000be79190620015c6565b42115b8062000c9157508173ffffffffffffffffffffffffffffffffffffffff166338af3eed6040518163ffffffff1660e01b8152600401602060405180830381865afa15801562000c3b573d5f803e3d5ffd5b505050506040513d601f19601f8201168201806040525081019062000c61919062001580565b73ffffffffffffffffffffffffffffffffffffffff168373ffffffffffffffffffffffffffffffffffffffff1614155b8062000d59575060025f8473ffffffffffffffffffffffffffffffffffffffff1673ffffffffffffffffffffffffffffffffffffffff1681526020019081526020015f205f8373ffffffffffffffffffffffffffffffffffffffff1673ffffffffffffffffffffffffffffffffffffffff1681526020019081526020015f205f3373ffffffffffffffffffffffffffffffffffffffff1673ffffffffffffffffffffffffffffffffffffffff1681526020019081526020015f205f9054906101000a900460ff165b1562000d68575f905062000ea3565b3373ffffffffffffffffffffffffffffffffffffffff168273ffffffffffffffffffffffffffffffffffffffff166391f901576040518163ffffffff1660e01b8152600401602060405180830381865afa15801562000dc9573d5f803e3d5ffd5b505050506040513d601f19601f8201168201806040525081019062000def91906200160c565b73ffffffffffffffffffffffffffffffffffffffff161415801562000e8f57505f8273ffffffffffffffffffffffffffffffffffffffff166326b387bb336040518263ffffffff1660e01b815260040162000e4b919062000f73565b602060405180830381865afa15801562000e67573d5f803e3d5ffd5b505050506040513d601f19601f8201168201806040525081019062000e8d9190620015c6565b145b1562000e9e575f905062000ea3565b600190505b92915050565b6110a7806200194783390190565b5f604051905090565b5f80fd5b5f80fd5b5f819050919050565b62000edc8162000ec8565b811462000ee7575f80fd5b50565b5f8135905062000efa8162000ed1565b92915050565b5f6020828403121562000f185762000f1762000ec0565b5b5f62000f278482850162000eea565b91505092915050565b5f73ffffffffffffffffffffffffffffffffffffffff82169050919050565b5f62000f5b8262000f30565b9050919050565b62000f6d8162000f4f565b82525050565b5f60208201905062000f885f83018462000f62565b92915050565b62000f998162000f4f565b811462000fa4575f80fd5b50565b5f8135905062000fb78162000f8e565b92915050565b5f6020828403121562000fd55762000fd462000ec0565b5b5f62000fe48482850162000fa7565b91505092915050565b5f62000ff98262000f30565b9050919050565b6200100b8162000fed565b82525050565b6200101c8162000ec8565b82525050565b5f81519050919050565b5f82825260208201905092915050565b5f5b838110156200105b5780820151818401526020810190506200103e565b5f8484015250505050565b5f601f19601f8301169050919050565b5f620010828262001022565b6200108e81856200102c565b9350620010a08185602086016200103c565b620010ab8162001066565b840191505092915050565b5f60a082019050620010cb5f83018862001000565b620010da602083018762001011565b620010e9604083018662000f62565b620010f8606083018562001011565b81810360808301526200110c818462001076565b90509695505050505050565b5f60ff82169050919050565b6200112f8162001118565b81146200113a575f80fd5b50565b5f813590506200114d8162001124565b92915050565b5f805f606084860312156200116d576200116c62000ec0565b5b5f6200117c8682870162000fa7565b93505060206200118f8682870162000fa7565b9250506040620011a2868287016200113d565b9150509250925092565b5f8115159050919050565b620011c281620011ac565b82525050565b5f606082019050620011dd5f830186620011b7565b620011ec602083018562001011565b620011fb604083018462001011565b949350505050565b5f81519050919050565b5f82825260208201905092915050565b5f819050602082019050919050565b620012378162000f4f565b82525050565b5f6200124a83836200122c565b60208301905092915050565b5f602082019050919050565b5f6200126e8262001203565b6200127a81856200120d565b935062001287836200121d565b805f5b83811015620012bd578151620012a188826200123d565b9750620012ae8362001256565b9250506001810190506200128a565b5085935050505092915050565b5f6020820190508181035f830152620012e4818462001262565b905092915050565b5f805f6060848603121562001306576200130562000ec0565b5b5f620013158682870162000fa7565b9350506020620013288682870162000fa7565b92505060406200133b8682870162000fa7565b9150509250925092565b5f6020820190506200135a5f830184620011b7565b92915050565b5f80fd5b5f80fd5b7f4e487b71000000000000000000000000000000000000000000000000000000005f52604160045260245ffd5b620013a08262001066565b810181811067ffffffffffffffff82111715620013c257620013c162001368565b5b80604052505050565b5f620013d662000eb7565b9050620013e4828262001395565b919050565b5f67ffffffffffffffff82111562001406576200140562001368565b5b620014118262001066565b9050602081019050919050565b828183375f83830152505050565b5f620014426200143c84620013e9565b620013cb565b90508281526020810184848401111562001461576200146062001364565b5b6200146e8482856200141e565b509392505050565b5f82601f8301126200148d576200148c62001360565b5b81356200149f8482602086016200142c565b91505092915050565b5f8060408385031215620014c157620014c062000ec0565b5b5f620014d08582860162000eea565b925050602083013567ffffffffffffffff811115620014f457620014f362000ec4565b5b620015028582860162001476565b9150509250929050565b5f806040838503121562001525576200152462000ec0565b5b5f620015348582860162000fa7565b9250506020620015478582860162000fa7565b9150509250929050565b6200155c8162000fed565b811462001567575f80fd5b50565b5f815190506200157a8162001551565b92915050565b5f6020828403121562001598576200159762000ec0565b5b5f620015a7848285016200156a565b91505092915050565b5f81519050620015c08162000ed1565b92915050565b5f60208284031215620015de57620015dd62000ec0565b5b5f620015ed84828501620015b0565b91505092915050565b5f81519050620016068162000f8e565b92915050565b5f6020828403121562001624576200162362000ec0565b5b5f6200163384828501620015f6565b91505092915050565b5f620016526200164c84620013e9565b620013cb565b90508281526020810184848401111562001671576200167062001364565b5b6200167e8482856200103c565b509392505050565b5f82601f8301126200169d576200169c62001360565b5b8151620016af8482602086016200163c565b91505092915050565b5f60208284031215620016d057620016cf62000ec0565b5b5f82015167ffffffffffffffff811115620016f057620016ef62000ec4565b5b620016fe8482850162001686565b91505092915050565b7f4d6178696d756d2076616c756520666f72207261746520697320352e000000005f82015250565b5f6200173d601c836200102c565b91506200174a8262001707565b602082019050919050565b5f6020820190508181035f8301526200176e816200172f565b9050919050565b7f4d696e696d756d2076616c756520666f72207261746520697320312e000000005f82015250565b5f620017ab601c836200102c565b9150620017b88262001775565b602082019050919050565b5f6020820190508181035f830152620017dc816200179d565b9050919050565b7f596f75277265206e6f7420616c6c6f77656420746f20726174652e00000000005f82015250565b5f62001819601b836200102c565b91506200182682620017e3565b602082019050919050565b5f6020820190508181035f8301526200184a816200180b565b9050919050565b7f4e487b71000000000000000000000000000000000000000000000000000000005f52601160045260245ffd5b5f6200188a8262000ec8565b9150620018978362000ec8565b9250828201905080821115620018b257620018b162001851565b5b92915050565b5f620018c48262000ec8565b91507fffffffffffffffffffffffffffffffffffffffffffffffffffffffffffffffff8203620018f957620018f862001851565b5b600182019050919050565b5f606082019050620019195f83018662001011565b81810360208301526200192d818562001076565b90506200193e604083018462001000565b94935050505056fe608060405234801562000010575f80fd5b50604051620010a7380380620010a78339818101604052810190620000369190620002c2565b805f806101000a81548173ffffffffffffffffffffffffffffffffffffffff021916908373ffffffffffffffffffffffffffffffffffffffff160217905550816002908162000086919062000568565b50824262000095919062000679565b600181905550505050620006b3565b5f604051905090565b5f80fd5b5f80fd5b5f819050919050565b620000c981620000b5565b8114620000d4575f80fd5b50565b5f81519050620000e781620000be565b92915050565b5f80fd5b5f80fd5b5f601f19601f8301169050919050565b7f4e487b71000000000000000000000000000000000000000000000000000000005f52604160045260245ffd5b6200013d82620000f5565b810181811067ffffffffffffffff821117156200015f576200015e62000105565b5b80604052505050565b5f62000173620000a4565b905062000181828262000132565b919050565b5f67ffffffffffffffff821115620001a357620001a262000105565b5b620001ae82620000f5565b9050602081019050919050565b5f5b83811015620001da578082015181840152602081019050620001bd565b5f8484015250505050565b5f620001fb620001f58462000186565b62000168565b9050828152602081018484840111156200021a5762000219620000f1565b5b62000227848285620001bb565b509392505050565b5f82601f830112620002465762000245620000ed565b5b815162000258848260208601620001e5565b91505092915050565b5f73ffffffffffffffffffffffffffffffffffffffff82169050919050565b5f6200028c8262000261565b9050919050565b6200029e8162000280565b8114620002a9575f80fd5b50565b5f81519050620002bc8162000293565b92915050565b5f805f60608486031215620002dc57620002db620000ad565b5b5f620002eb86828701620000d7565b935050602084015167ffffffffffffffff8111156200030f576200030e620000b1565b5b6200031d868287016200022f565b92505060406200033086828701620002ac565b9150509250925092565b5f81519050919050565b7f4e487b71000000000000000000000000000000000000000000000000000000005f52602260045260245ffd5b5f60028204905060018216806200038957607f821691505b6020821081036200039f576200039e62000344565b5b50919050565b5f819050815f5260205f209050919050565b5f6020601f8301049050919050565b5f82821b905092915050565b5f60088302620004037fffffffffffffffffffffffffffffffffffffffffffffffffffffffffffffffff82620003c6565b6200040f8683620003c6565b95508019841693508086168417925050509392505050565b5f819050919050565b5f620004506200044a6200044484620000b5565b62000427565b620000b5565b9050919050565b5f819050919050565b6200046b8362000430565b620004836200047a8262000457565b848454620003d2565b825550505050565b5f90565b620004996200048b565b620004a681848462000460565b505050565b5b81811015620004cd57620004c15f826200048f565b600181019050620004ac565b5050565b601f8211156200051c57620004e681620003a5565b620004f184620003b7565b8101602085101562000501578190505b620005196200051085620003b7565b830182620004ab565b50505b505050565b5f82821c905092915050565b5f6200053e5f198460080262000521565b1980831691505092915050565b5f6200055883836200052d565b9150826002028217905092915050565b62000573826200033a565b67ffffffffffffffff8111156200058f576200058e62000105565b5b6200059b825462000371565b620005a8828285620004d1565b5f60209050601f831160018114620005de575f8415620005c9578287015190505b620005d585826200054b565b86555062000644565b601f198416620005ee86620003a5565b5f5b828110156200061757848901518255600182019150602085019450602081019050620005f0565b8683101562000637578489015162000633601f8916826200052d565b8355505b6001600288020188555050505b505050505050565b7f4e487b71000000000000000000000000000000000000000000000000000000005f52601160045260245ffd5b5f6200068582620000b5565b91506200069283620000b5565b9250828201905080821115620006ad57620006ac6200064c565b5b92915050565b6109e680620006c15f395ff3fe608060405260043610610085575f3560e01c80633ccfd60b116100585780633ccfd60b1461010f5780634b449cba1461013957806391f9015714610163578063c63d99db1461018d578063d57bde79146101b757610085565b80631998aeef1461008957806326b387bb146100935780632a24f46c146100cf57806338af3eed146100e5575b5f80fd5b6100916101e1565b005b34801561009e575f80fd5b506100b960048036038101906100b49190610732565b610367565b6040516100c69190610775565b60405180910390f35b3480156100da575f80fd5b506100e361037c565b005b3480156100f0575f80fd5b506100f96104db565b60405161010691906107ae565b60405180910390f35b34801561011a575f80fd5b506101236104fe565b60405161013091906107e1565b60405180910390f35b348015610144575f80fd5b5061014d610617565b60405161015a9190610775565b60405180910390f35b34801561016e575f80fd5b5061017761061d565b6040516101849190610809565b60405180910390f35b348015610198575f80fd5b506101a1610642565b6040516101ae91906108ac565b60405180910390f35b3480156101c2575f80fd5b506101cb6106ce565b6040516101d89190610775565b60405180910390f35b60015442111561021d576040517fd02e774d00000000000000000000000000000000000000000000000000000000815260040160405180910390fd5b6004543411610265576004546040517f4e12c1bb00000000000000000000000000000000000000000000000000000000815260040161025c9190610775565b60405180910390fd5b5f600454146102e55760045460055f60035f9054906101000a900473ffffffffffffffffffffffffffffffffffffffff1673ffffffffffffffffffffffffffffffffffffffff1673ffffffffffffffffffffffffffffffffffffffff1681526020019081526020015f205f8282546102dd91906108f9565b925050819055505b3360035f6101000a81548173ffffffffffffffffffffffffffffffffffffffff021916908373ffffffffffffffffffffffffffffffffffffffff160217905550346004819055507ff4757a49b326036464bec6fe419a4ae38c8a02ce3e68bf0809674f6aab8ad300333460405161035d92919061092c565b60405180910390a1565b6005602052805f5260405f205f915090505481565b6001544210156103b8576040517f44cee29000000000000000000000000000000000000000000000000000000000815260040160405180910390fd5b60065f9054906101000a900460ff16156103fe576040517f61cfdcf800000000000000000000000000000000000000000000000000000000815260040160405180910390fd5b600160065f6101000a81548160ff0219169083151502179055507fdaec4582d5d9595688c8c98545fdd1c696d41c6aeaeb636737e84ed2f5c00eda60035f9054906101000a900473ffffffffffffffffffffffffffffffffffffffff1660045460405161046c92919061092c565b60405180910390a15f8054906101000a900473ffffffffffffffffffffffffffffffffffffffff1673ffffffffffffffffffffffffffffffffffffffff166108fc60045490811502906040515f60405180830381858888f193505050501580156104d8573d5f803e3d5ffd5b50565b5f8054906101000a900473ffffffffffffffffffffffffffffffffffffffff1681565b5f8060055f3373ffffffffffffffffffffffffffffffffffffffff1673ffffffffffffffffffffffffffffffffffffffff1681526020019081526020015f205490505f81111561060e575f60055f3373ffffffffffffffffffffffffffffffffffffffff1673ffffffffffffffffffffffffffffffffffffffff1681526020019081526020015f20819055503373ffffffffffffffffffffffffffffffffffffffff166108fc8290811502906040515f60405180830381858888f1935050505061060d578060055f3373ffffffffffffffffffffffffffffffffffffffff1673ffffffffffffffffffffffffffffffffffffffff1681526020019081526020015f20819055505f915050610614565b5b60019150505b90565b60015481565b60035f9054906101000a900473ffffffffffffffffffffffffffffffffffffffff1681565b6002805461064f90610980565b80601f016020809104026020016040519081016040528092919081815260200182805461067b90610980565b80156106c65780601f1061069d576101008083540402835291602001916106c6565b820191905f5260205f20905b8154815290600101906020018083116106a957829003601f168201915b505050505081565b60045481565b5f80fd5b5f73ffffffffffffffffffffffffffffffffffffffff82169050919050565b5f610701826106d8565b9050919050565b610711816106f7565b811461071b575f80fd5b50565b5f8135905061072c81610708565b92915050565b5f60208284031215610747576107466106d4565b5b5f6107548482850161071e565b91505092915050565b5f819050919050565b61076f8161075d565b82525050565b5f6020820190506107885f830184610766565b92915050565b5f610798826106d8565b9050919050565b6107a88161078e565b82525050565b5f6020820190506107c15f83018461079f565b92915050565b5f8115159050919050565b6107db816107c7565b82525050565b5f6020820190506107f45f8301846107d2565b92915050565b610803816106f7565b82525050565b5f60208201905061081c5f8301846107fa565b92915050565b5f81519050919050565b5f82825260208201905092915050565b5f5b8381101561085957808201518184015260208101905061083e565b5f8484015250505050565b5f601f19601f8301169050919050565b5f61087e82610822565b610888818561082c565b935061089881856020860161083c565b6108a181610864565b840191505092915050565b5f6020820190508181035f8301526108c48184610874565b905092915050565b7f4e487b71000000000000000000000000000000000000000000000000000000005f52601160045260245ffd5b5f6109038261075d565b915061090e8361075d565b9250828201905080821115610926576109256108cc565b5b92915050565b5f60408201905061093f5f8301856107fa565b61094c6020830184610766565b9392505050565b7f4e487b71000000000000000000000000000000000000000000000000000000005f52602260045260245ffd5b5f600282049050600182168061099757607f821691505b6020821081036109aa576109a9610953565b5b5091905056fea2646970667358221220ec943dae2b944cda940cafac304f41c7a1e4253448b984215a5b125cd1486a4b64736f6c63430008140033a2646970667358221220cd2ffe45ab079ff58b883924a834fe2ddedfde3ab33dad33e998b717b771cadb64736f6c63430008140033","opcodes":"PUSH1 0x80 PUSH1 0x40 MSTORE CALLVALUE DUP1 ISZERO PUSH2 0xF JUMPI PUSH0 DUP1 REVERT JUMPDEST POP PUSH2 0x2A23 DUP1 PUSH2 0x1D PUSH0 CODECOPY PUSH0 RETURN INVALID PUSH1 0x80 PUSH1 0x40 MSTORE CALLVALUE DUP1 ISZERO PUSH3 0x10 JUMPI PUSH0 DUP1 REVERT JUMPDEST POP PUSH1 0x4 CALLDATASIZE LT PUSH3 0xAA JUMPI PUSH0 CALLDATALOAD PUSH1 0xE0 SHR DUP1 PUSH4 0xA0E67E2B GT PUSH3 0x6D JUMPI DUP1 PUSH4 0xA0E67E2B EQ PUSH3 0x1AC JUMPI DUP1 PUSH4 0xA44F83E5 EQ PUSH3 0x1CE JUMPI DUP1 PUSH4 0xADAA1992 EQ PUSH3 0x204 JUMPI DUP1 PUSH4 0xCBD2BDFD EQ PUSH3 0x23A JUMPI DUP1 PUSH4 0xCCA56666 EQ PUSH3 0x25C JUMPI PUSH3 0xAA JUMP JUMPDEST DUP1 PUSH4 0x25E7C27 EQ PUSH3 0xAE JUMPI DUP1 PUSH4 0x165C5881 EQ PUSH3 0xE4 JUMPI DUP1 PUSH4 0x7F593D9E EQ PUSH3 0x11A JUMPI DUP1 PUSH4 0x977BD705 EQ PUSH3 0x154 JUMPI DUP1 PUSH4 0x9E01DFBB EQ PUSH3 0x174 JUMPI JUMPDEST PUSH0 DUP1 REVERT JUMPDEST PUSH3 0xCC PUSH1 0x4 DUP1 CALLDATASIZE SUB DUP2 ADD SWAP1 PUSH3 0xC6 SWAP2 SWAP1 PUSH3 0xF00 JUMP JUMPDEST PUSH3 0x292 JUMP JUMPDEST PUSH1 0x40 MLOAD PUSH3 0xDB SWAP2 SWAP1 PUSH3 0xF73 JUMP JUMPDEST PUSH1 0x40 MLOAD DUP1 SWAP2 SUB SWAP1 RETURN JUMPDEST PUSH3 0x102 PUSH1 0x4 DUP1 CALLDATASIZE SUB DUP2 ADD SWAP1 PUSH3 0xFC SWAP2 SWAP1 PUSH3 0xF00 JUMP JUMPDEST PUSH3 0x2CD JUMP JUMPDEST PUSH1 0x40 MLOAD PUSH3 0x111 SWAP2 SWAP1 PUSH3 0xF73 JUMP JUMPDEST PUSH1 0x40 MLOAD DUP1 SWAP2 SUB SWAP1 RETURN JUMPDEST PUSH3 0x138 PUSH1 0x4 DUP1 CALLDATASIZE SUB DUP2 ADD SWAP1 PUSH3 0x132 SWAP2 SWAP1 PUSH3 0xFBD JUMP JUMPDEST PUSH3 0x309 JUMP JUMPDEST PUSH1 0x40 MLOAD PUSH3 0x14B SWAP6 SWAP5 SWAP4 SWAP3 SWAP2 SWAP1 PUSH3 0x10B6 JUMP JUMPDEST PUSH1 0x40 MLOAD DUP1 SWAP2 SUB SWAP1 RETURN JUMPDEST PUSH3 0x172 PUSH1 0x4 DUP1 CALLDATASIZE SUB DUP2 ADD SWAP1 PUSH3 0x16C SWAP2 SWAP1 PUSH3 0x1153 JUMP JUMPDEST PUSH3 0x55A JUMP JUMPDEST STOP JUMPDEST PUSH3 0x192 PUSH1 0x4 DUP1 CALLDATASIZE SUB DUP2 ADD SWAP1 PUSH3 0x18C SWAP2 SWAP1 PUSH3 0xFBD JUMP JUMPDEST PUSH3 0x7BC JUMP JUMPDEST PUSH1 0x40 MLOAD PUSH3 0x1A3 SWAP4 SWAP3 SWAP2 SWAP1 PUSH3 0x11C8 JUMP JUMPDEST PUSH1 0x40 MLOAD DUP1 SWAP2 SUB SWAP1 RETURN JUMPDEST PUSH3 0x1B6 PUSH3 0x7EE JUMP JUMPDEST PUSH1 0x40 MLOAD PUSH3 0x1C5 SWAP2 SWAP1 PUSH3 0x12CA JUMP JUMPDEST PUSH1 0x40 MLOAD DUP1 SWAP2 SUB SWAP1 RETURN JUMPDEST PUSH3 0x1EC PUSH1 0x4 DUP1 CALLDATASIZE SUB DUP2 ADD SWAP1 PUSH3 0x1E6 SWAP2 SWAP1 PUSH3 0x12EC JUMP JUMPDEST PUSH3 0x87A JUMP JUMPDEST PUSH1 0x40 MLOAD PUSH3 0x1FB SWAP2 SWAP1 PUSH3 0x1345 JUMP JUMPDEST PUSH1 0x40 MLOAD DUP1 SWAP2 SUB SWAP1 RETURN JUMPDEST PUSH3 0x222 PUSH1 0x4 DUP1 CALLDATASIZE SUB DUP2 ADD SWAP1 PUSH3 0x21C SWAP2 SWAP1 PUSH3 0x14A8 JUMP JUMPDEST PUSH3 0x8AF JUMP JUMPDEST PUSH1 0x40 MLOAD PUSH3 0x231 SWAP2 SWAP1 PUSH3 0xF73 JUMP JUMPDEST PUSH1 0x40 MLOAD DUP1 SWAP2 SUB SWAP1 RETURN JUMPDEST PUSH3 0x244 PUSH3 0xA5E JUMP JUMPDEST PUSH1 0x40 MLOAD PUSH3 0x253 SWAP2 SWAP1 PUSH3 0x12CA JUMP JUMPDEST PUSH1 0x40 MLOAD DUP1 SWAP2 SUB SWAP1 RETURN JUMPDEST PUSH3 0x27A PUSH1 0x4 DUP1 CALLDATASIZE SUB DUP2 ADD SWAP1 PUSH3 0x274 SWAP2 SWAP1 PUSH3 0x150C JUMP JUMPDEST PUSH3 0xAEB JUMP JUMPDEST PUSH1 0x40 MLOAD PUSH3 0x289 SWAP2 SWAP1 PUSH3 0x1345 JUMP JUMPDEST PUSH1 0x40 MLOAD DUP1 SWAP2 SUB SWAP1 RETURN JUMPDEST PUSH0 DUP2 DUP2 SLOAD DUP2 LT PUSH3 0x2A1 JUMPI PUSH0 DUP1 REVERT JUMPDEST SWAP1 PUSH0 MSTORE PUSH1 0x20 PUSH0 KECCAK256 ADD PUSH0 SWAP2 POP SLOAD SWAP1 PUSH2 0x100 EXP SWAP1 DIV PUSH20 0xFFFFFFFFFFFFFFFFFFFFFFFFFFFFFFFFFFFFFFFF AND DUP2 JUMP JUMPDEST PUSH1 0x3 DUP2 DUP2 SLOAD DUP2 LT PUSH3 0x2DD JUMPI PUSH0 DUP1 REVERT JUMPDEST SWAP1 PUSH0 MSTORE PUSH1 0x20 PUSH0 KECCAK256 ADD PUSH0 SWAP2 POP SLOAD SWAP1 PUSH2 0x100 EXP SWAP1 DIV PUSH20 0xFFFFFFFFFFFFFFFFFFFFFFFFFFFFFFFFFFFFFFFF AND DUP2 JUMP JUMPDEST PUSH0 DUP1 PUSH0 DUP1 PUSH1 0x60 PUSH0 DUP7 SWAP1 POP DUP1 PUSH20 0xFFFFFFFFFFFFFFFFFFFFFFFFFFFFFFFFFFFFFFFF AND PUSH4 0x38AF3EED PUSH1 0x40 MLOAD DUP2 PUSH4 0xFFFFFFFF AND PUSH1 0xE0 SHL DUP2 MSTORE PUSH1 0x4 ADD PUSH1 0x20 PUSH1 0x40 MLOAD DUP1 DUP4 SUB DUP2 DUP7 GAS STATICCALL ISZERO DUP1 ISZERO PUSH3 0x35D JUMPI RETURNDATASIZE PUSH0 DUP1 RETURNDATACOPY RETURNDATASIZE PUSH0 REVERT JUMPDEST POP POP POP POP PUSH1 0x40 MLOAD RETURNDATASIZE PUSH1 0x1F NOT PUSH1 0x1F DUP3 ADD AND DUP3 ADD DUP1 PUSH1 0x40 MSTORE POP DUP2 ADD SWAP1 PUSH3 0x383 SWAP2 SWAP1 PUSH3 0x1580 JUMP JUMPDEST DUP2 PUSH20 0xFFFFFFFFFFFFFFFFFFFFFFFFFFFFFFFFFFFFFFFF AND PUSH4 0x4B449CBA PUSH1 0x40 MLOAD DUP2 PUSH4 0xFFFFFFFF AND PUSH1 0xE0 SHL DUP2 MSTORE PUSH1 0x4 ADD PUSH1 0x20 PUSH1 0x40 MLOAD DUP1 DUP4 SUB DUP2 DUP7 GAS STATICCALL ISZERO DUP1 ISZERO PUSH3 0x3CD JUMPI RETURNDATASIZE PUSH0 DUP1 RETURNDATACOPY RETURNDATASIZE PUSH0 REVERT JUMPDEST POP POP POP POP PUSH1 0x40 MLOAD RETURNDATASIZE PUSH1 0x1F NOT PUSH1 0x1F DUP3 ADD AND DUP3 ADD DUP1 PUSH1 0x40 MSTORE POP DUP2 ADD SWAP1 PUSH3 0x3F3 SWAP2 SWAP1 PUSH3 0x15C6 JUMP JUMPDEST DUP3 PUSH20 0xFFFFFFFFFFFFFFFFFFFFFFFFFFFFFFFFFFFFFFFF AND PUSH4 0x91F90157 PUSH1 0x40 MLOAD DUP2 PUSH4 0xFFFFFFFF AND PUSH1 0xE0 SHL DUP2 MSTORE PUSH1 0x4 ADD PUSH1 0x20 PUSH1 0x40 MLOAD DUP1 DUP4 SUB DUP2 DUP7 GAS STATICCALL ISZERO DUP1 ISZERO PUSH3 0x43D JUMPI RETURNDATASIZE PUSH0 DUP1 RETURNDATACOPY RETURNDATASIZE PUSH0 REVERT JUMPDEST POP POP POP POP PUSH1 0x40 MLOAD RETURNDATASIZE PUSH1 0x1F NOT PUSH1 0x1F DUP3 ADD AND DUP3 ADD DUP1 PUSH1 0x40 MSTORE POP DUP2 ADD SWAP1 PUSH3 0x463 SWAP2 SWAP1 PUSH3 0x160C JUMP JUMPDEST DUP4 PUSH20 0xFFFFFFFFFFFFFFFFFFFFFFFFFFFFFFFFFFFFFFFF AND PUSH4 0xD57BDE79 PUSH1 0x40 MLOAD DUP2 PUSH4 0xFFFFFFFF AND PUSH1 0xE0 SHL DUP2 MSTORE PUSH1 0x4 ADD PUSH1 0x20 PUSH1 0x40 MLOAD DUP1 DUP4 SUB DUP2 DUP7 GAS STATICCALL ISZERO DUP1 ISZERO PUSH3 0x4AD JUMPI RETURNDATASIZE PUSH0 DUP1 RETURNDATACOPY RETURNDATASIZE PUSH0 REVERT JUMPDEST POP POP POP POP PUSH1 0x40 MLOAD RETURNDATASIZE PUSH1 0x1F NOT PUSH1 0x1F DUP3 ADD AND DUP3 ADD DUP1 PUSH1 0x40 MSTORE POP DUP2 ADD SWAP1 PUSH3 0x4D3 SWAP2 SWAP1 PUSH3 0x15C6 JUMP JUMPDEST DUP5 PUSH20 0xFFFFFFFFFFFFFFFFFFFFFFFFFFFFFFFFFFFFFFFF AND PUSH4 0xC63D99DB PUSH1 0x40 MLOAD DUP2 PUSH4 0xFFFFFFFF AND PUSH1 0xE0 SHL DUP2 MSTORE PUSH1 0x4 ADD PUSH0 PUSH1 0x40 MLOAD DUP1 DUP4 SUB DUP2 DUP7 GAS STATICCALL ISZERO DUP1 ISZERO PUSH3 0x51C JUMPI RETURNDATASIZE PUSH0 DUP1 RETURNDATACOPY RETURNDATASIZE PUSH0 REVERT JUMPDEST POP POP POP POP PUSH1 0x40 MLOAD RETURNDATASIZE PUSH0 DUP3 RETURNDATACOPY RETURNDATASIZE PUSH1 0x1F NOT PUSH1 0x1F DUP3 ADD AND DUP3 ADD DUP1 PUSH1 0x40 MSTORE POP DUP2 ADD SWAP1 PUSH3 0x546 SWAP2 SWAP1 PUSH3 0x16B8 JUMP JUMPDEST SWAP6 POP SWAP6 POP SWAP6 POP SWAP6 POP SWAP6 POP POP SWAP2 SWAP4 SWAP6 SWAP1 SWAP3 SWAP5 POP JUMP JUMPDEST PUSH1 0x5 DUP2 PUSH1 0xFF AND GT ISZERO PUSH3 0x5A4 JUMPI PUSH1 0x40 MLOAD PUSH32 0x8C379A000000000000000000000000000000000000000000000000000000000 DUP2 MSTORE PUSH1 0x4 ADD PUSH3 0x59B SWAP1 PUSH3 0x1755 JUMP JUMPDEST PUSH1 0x40 MLOAD DUP1 SWAP2 SUB SWAP1 REVERT JUMPDEST PUSH0 DUP2 PUSH1 0xFF AND GT PUSH3 0x5EC JUMPI PUSH1 0x40 MLOAD PUSH32 0x8C379A000000000000000000000000000000000000000000000000000000000 DUP2 MSTORE PUSH1 0x4 ADD PUSH3 0x5E3 SWAP1 PUSH3 0x17C3 JUMP JUMPDEST PUSH1 0x40 MLOAD DUP1 SWAP2 SUB SWAP1 REVERT JUMPDEST PUSH3 0x5F8 DUP4 DUP4 PUSH3 0xAEB JUMP JUMPDEST PUSH3 0x63A JUMPI PUSH1 0x40 MLOAD PUSH32 0x8C379A000000000000000000000000000000000000000000000000000000000 DUP2 MSTORE PUSH1 0x4 ADD PUSH3 0x631 SWAP1 PUSH3 0x1831 JUMP JUMPDEST PUSH1 0x40 MLOAD DUP1 SWAP2 SUB SWAP1 REVERT JUMPDEST PUSH1 0x1 PUSH1 0x2 PUSH0 DUP6 PUSH20 0xFFFFFFFFFFFFFFFFFFFFFFFFFFFFFFFFFFFFFFFF AND PUSH20 0xFFFFFFFFFFFFFFFFFFFFFFFFFFFFFFFFFFFFFFFF AND DUP2 MSTORE PUSH1 0x20 ADD SWAP1 DUP2 MSTORE PUSH1 0x20 ADD PUSH0 KECCAK256 PUSH0 DUP5 PUSH20 0xFFFFFFFFFFFFFFFFFFFFFFFFFFFFFFFFFFFFFFFF AND PUSH20 0xFFFFFFFFFFFFFFFFFFFFFFFFFFFFFFFFFFFFFFFF AND DUP2 MSTORE PUSH1 0x20 ADD SWAP1 DUP2 MSTORE PUSH1 0x20 ADD PUSH0 KECCAK256 PUSH0 CALLER PUSH20 0xFFFFFFFFFFFFFFFFFFFFFFFFFFFFFFFFFFFFFFFF AND PUSH20 0xFFFFFFFFFFFFFFFFFFFFFFFFFFFFFFFFFFFFFFFF AND DUP2 MSTORE PUSH1 0x20 ADD SWAP1 DUP2 MSTORE PUSH1 0x20 ADD PUSH0 KECCAK256 PUSH0 PUSH2 0x100 EXP DUP2 SLOAD DUP2 PUSH1 0xFF MUL NOT AND SWAP1 DUP4 ISZERO ISZERO MUL OR SWAP1 SSTORE POP DUP1 PUSH1 0xFF AND PUSH1 0x1 PUSH0 DUP6 PUSH20 0xFFFFFFFFFFFFFFFFFFFFFFFFFFFFFFFFFFFFFFFF AND PUSH20 0xFFFFFFFFFFFFFFFFFFFFFFFFFFFFFFFFFFFFFFFF AND DUP2 MSTORE PUSH1 0x20 ADD SWAP1 DUP2 MSTORE PUSH1 0x20 ADD PUSH0 KECCAK256 PUSH1 0x1 ADD PUSH0 DUP3 DUP3 SLOAD PUSH3 0x759 SWAP2 SWAP1 PUSH3 0x187E JUMP JUMPDEST SWAP3 POP POP DUP2 SWAP1 SSTORE POP PUSH1 0x1 PUSH0 DUP5 PUSH20 0xFFFFFFFFFFFFFFFFFFFFFFFFFFFFFFFFFFFFFFFF AND PUSH20 0xFFFFFFFFFFFFFFFFFFFFFFFFFFFFFFFFFFFFFFFF AND DUP2 MSTORE PUSH1 0x20 ADD SWAP1 DUP2 MSTORE PUSH1 0x20 ADD PUSH0 KECCAK256 PUSH1 0x2 ADD PUSH0 DUP2 SLOAD DUP1 SWAP3 SWAP2 SWAP1 PUSH3 0x7B2 SWAP1 PUSH3 0x18B8 JUMP JUMPDEST SWAP2 SWAP1 POP SSTORE POP POP POP POP JUMP JUMPDEST PUSH1 0x1 PUSH1 0x20 MSTORE DUP1 PUSH0 MSTORE PUSH1 0x40 PUSH0 KECCAK256 PUSH0 SWAP2 POP SWAP1 POP DUP1 PUSH0 ADD PUSH0 SWAP1 SLOAD SWAP1 PUSH2 0x100 EXP SWAP1 DIV PUSH1 0xFF AND SWAP1 DUP1 PUSH1 0x1 ADD SLOAD SWAP1 DUP1 PUSH1 0x2 ADD SLOAD SWAP1 POP DUP4 JUMP JUMPDEST PUSH1 0x60 PUSH0 DUP1 SLOAD DUP1 PUSH1 0x20 MUL PUSH1 0x20 ADD PUSH1 0x40 MLOAD SWAP1 DUP2 ADD PUSH1 0x40 MSTORE DUP1 SWAP3 SWAP2 SWAP1 DUP2 DUP2 MSTORE PUSH1 0x20 ADD DUP3 DUP1 SLOAD DUP1 ISZERO PUSH3 0x870 JUMPI PUSH1 0x20 MUL DUP3 ADD SWAP2 SWAP1 PUSH0 MSTORE PUSH1 0x20 PUSH0 KECCAK256 SWAP1 JUMPDEST DUP2 PUSH0 SWAP1 SLOAD SWAP1 PUSH2 0x100 EXP SWAP1 DIV PUSH20 0xFFFFFFFFFFFFFFFFFFFFFFFFFFFFFFFFFFFFFFFF AND PUSH20 0xFFFFFFFFFFFFFFFFFFFFFFFFFFFFFFFFFFFFFFFF AND DUP2 MSTORE PUSH1 0x20 ADD SWAP1 PUSH1 0x1 ADD SWAP1 DUP1 DUP4 GT PUSH3 0x826 JUMPI JUMPDEST POP POP POP POP POP SWAP1 POP SWAP1 JUMP JUMPDEST PUSH1 0x2 PUSH1 0x20 MSTORE DUP3 PUSH0 MSTORE PUSH1 0x40 PUSH0 KECCAK256 PUSH1 0x20 MSTORE DUP2 PUSH0 MSTORE PUSH1 0x40 PUSH0 KECCAK256 PUSH1 0x20 MSTORE DUP1 PUSH0 MSTORE PUSH1 0x40 PUSH0 KECCAK256 PUSH0 SWAP3 POP SWAP3 POP POP SWAP1 SLOAD SWAP1 PUSH2 0x100 EXP SWAP1 DIV PUSH1 0xFF AND DUP2 JUMP JUMPDEST PUSH0 DUP1 DUP4 DUP4 CALLER PUSH1 0x40 MLOAD PUSH3 0x8C2 SWAP1 PUSH3 0xEA9 JUMP JUMPDEST PUSH3 0x8D0 SWAP4 SWAP3 SWAP2 SWAP1 PUSH3 0x1904 JUMP JUMPDEST PUSH1 0x40 MLOAD DUP1 SWAP2 SUB SWAP1 PUSH0 CREATE DUP1 ISZERO DUP1 ISZERO PUSH3 0x8EA JUMPI RETURNDATASIZE PUSH0 DUP1 RETURNDATACOPY RETURNDATASIZE PUSH0 REVERT JUMPDEST POP SWAP1 POP PUSH1 0x3 DUP2 SWAP1 DUP1 PUSH1 0x1 DUP2 SLOAD ADD DUP1 DUP3 SSTORE DUP1 SWAP2 POP POP PUSH1 0x1 SWAP1 SUB SWAP1 PUSH0 MSTORE PUSH1 0x20 PUSH0 KECCAK256 ADD PUSH0 SWAP1 SWAP2 SWAP1 SWAP2 SWAP1 SWAP2 PUSH2 0x100 EXP DUP2 SLOAD DUP2 PUSH20 0xFFFFFFFFFFFFFFFFFFFFFFFFFFFFFFFFFFFFFFFF MUL NOT AND SWAP1 DUP4 PUSH20 0xFFFFFFFFFFFFFFFFFFFFFFFFFFFFFFFFFFFFFFFF AND MUL OR SWAP1 SSTORE POP PUSH1 0x1 PUSH0 CALLER PUSH20 0xFFFFFFFFFFFFFFFFFFFFFFFFFFFFFFFFFFFFFFFF AND PUSH20 0xFFFFFFFFFFFFFFFFFFFFFFFFFFFFFFFFFFFFFFFF AND DUP2 MSTORE PUSH1 0x20 ADD SWAP1 DUP2 MSTORE PUSH1 0x20 ADD PUSH0 KECCAK256 PUSH0 ADD PUSH0 SWAP1 SLOAD SWAP1 PUSH2 0x100 EXP SWAP1 DIV PUSH1 0xFF AND PUSH3 0xA54 JUMPI PUSH1 0x1 DUP1 PUSH0 CALLER PUSH20 0xFFFFFFFFFFFFFFFFFFFFFFFFFFFFFFFFFFFFFFFF AND PUSH20 0xFFFFFFFFFFFFFFFFFFFFFFFFFFFFFFFFFFFFFFFF AND DUP2 MSTORE PUSH1 0x20 ADD SWAP1 DUP2 MSTORE PUSH1 0x20 ADD PUSH0 KECCAK256 PUSH0 ADD PUSH0 PUSH2 0x100 EXP DUP2 SLOAD DUP2 PUSH1 0xFF MUL NOT AND SWAP1 DUP4 ISZERO ISZERO MUL OR SWAP1 SSTORE POP PUSH0 CALLER SWAP1 DUP1 PUSH1 0x1 DUP2 SLOAD ADD DUP1 DUP3 SSTORE DUP1 SWAP2 POP POP PUSH1 0x1 SWAP1 SUB SWAP1 PUSH0 MSTORE PUSH1 0x20 PUSH0 KECCAK256 ADD PUSH0 SWAP1 SWAP2 SWAP1 SWAP2 SWAP1 SWAP2 PUSH2 0x100 EXP DUP2 SLOAD DUP2 PUSH20 0xFFFFFFFFFFFFFFFFFFFFFFFFFFFFFFFFFFFFFFFF MUL NOT AND SWAP1 DUP4 PUSH20 0xFFFFFFFFFFFFFFFFFFFFFFFFFFFFFFFFFFFFFFFF AND MUL OR SWAP1 SSTORE POP JUMPDEST DUP1 SWAP2 POP POP SWAP3 SWAP2 POP POP JUMP JUMPDEST PUSH1 0x60 PUSH1 0x3 DUP1 SLOAD DUP1 PUSH1 0x20 MUL PUSH1 0x20 ADD PUSH1 0x40 MLOAD SWAP1 DUP2 ADD PUSH1 0x40 MSTORE DUP1 SWAP3 SWAP2 SWAP1 DUP2 DUP2 MSTORE PUSH1 0x20 ADD DUP3 DUP1 SLOAD DUP1 ISZERO PUSH3 0xAE1 JUMPI PUSH1 0x20 MUL DUP3 ADD SWAP2 SWAP1 PUSH0 MSTORE PUSH1 0x20 PUSH0 KECCAK256 SWAP1 JUMPDEST DUP2 PUSH0 SWAP1 SLOAD SWAP1 PUSH2 0x100 EXP SWAP1 DIV PUSH20 0xFFFFFFFFFFFFFFFFFFFFFFFFFFFFFFFFFFFFFFFF AND PUSH20 0xFFFFFFFFFFFFFFFFFFFFFFFFFFFFFFFFFFFFFFFF AND DUP2 MSTORE PUSH1 0x20 ADD SWAP1 PUSH1 0x1 ADD SWAP1 DUP1 DUP4 GT PUSH3 0xA97 JUMPI JUMPDEST POP POP POP POP POP SWAP1 POP SWAP1 JUMP JUMPDEST PUSH0 DUP3 PUSH20 0xFFFFFFFFFFFFFFFFFFFFFFFFFFFFFFFFFFFFFFFF AND CALLER PUSH20 0xFFFFFFFFFFFFFFFFFFFFFFFFFFFFFFFFFFFFFFFF AND EQ DUP1 PUSH3 0xB70 JUMPI POP PUSH1 0x1 PUSH0 DUP5 PUSH20 0xFFFFFFFFFFFFFFFFFFFFFFFFFFFFFFFFFFFFFFFF AND PUSH20 0xFFFFFFFFFFFFFFFFFFFFFFFFFFFFFFFFFFFFFFFF AND DUP2 MSTORE PUSH1 0x20 ADD SWAP1 DUP2 MSTORE PUSH1 0x20 ADD PUSH0 KECCAK256 PUSH0 ADD PUSH0 SWAP1 SLOAD SWAP1 PUSH2 0x100 EXP SWAP1 DIV PUSH1 0xFF AND ISZERO JUMPDEST DUP1 PUSH3 0xBEA JUMPI POP DUP2 PUSH20 0xFFFFFFFFFFFFFFFFFFFFFFFFFFFFFFFFFFFFFFFF AND PUSH4 0x4B449CBA PUSH1 0x40 MLOAD DUP2 PUSH4 0xFFFFFFFF AND PUSH1 0xE0 SHL DUP2 MSTORE PUSH1 0x4 ADD PUSH1 0x20 PUSH1 0x40 MLOAD DUP1 DUP4 SUB DUP2 DUP7 GAS STATICCALL ISZERO DUP1 ISZERO PUSH3 0xBC1 JUMPI RETURNDATASIZE PUSH0 DUP1 RETURNDATACOPY RETURNDATASIZE PUSH0 REVERT JUMPDEST POP POP POP POP PUSH1 0x40 MLOAD RETURNDATASIZE PUSH1 0x1F NOT PUSH1 0x1F DUP3 ADD AND DUP3 ADD DUP1 PUSH1 0x40 MSTORE POP DUP2 ADD SWAP1 PUSH3 0xBE7 SWAP2 SWAP1 PUSH3 0x15C6 JUMP JUMPDEST TIMESTAMP GT JUMPDEST DUP1 PUSH3 0xC91 JUMPI POP DUP2 PUSH20 0xFFFFFFFFFFFFFFFFFFFFFFFFFFFFFFFFFFFFFFFF AND PUSH4 0x38AF3EED PUSH1 0x40 MLOAD DUP2 PUSH4 0xFFFFFFFF AND PUSH1 0xE0 SHL DUP2 MSTORE PUSH1 0x4 ADD PUSH1 0x20 PUSH1 0x40 MLOAD DUP1 DUP4 SUB DUP2 DUP7 GAS STATICCALL ISZERO DUP1 ISZERO PUSH3 0xC3B JUMPI RETURNDATASIZE PUSH0 DUP1 RETURNDATACOPY RETURNDATASIZE PUSH0 REVERT JUMPDEST POP POP POP POP PUSH1 0x40 MLOAD RETURNDATASIZE PUSH1 0x1F NOT PUSH1 0x1F DUP3 ADD AND DUP3 ADD DUP1 PUSH1 0x40 MSTORE POP DUP2 ADD SWAP1 PUSH3 0xC61 SWAP2 SWAP1 PUSH3 0x1580 JUMP JUMPDEST PUSH20 0xFFFFFFFFFFFFFFFFFFFFFFFFFFFFFFFFFFFFFFFF AND DUP4 PUSH20 0xFFFFFFFFFFFFFFFFFFFFFFFFFFFFFFFFFFFFFFFF AND EQ ISZERO JUMPDEST DUP1 PUSH3 0xD59 JUMPI POP PUSH1 0x2 PUSH0 DUP5 PUSH20 0xFFFFFFFFFFFFFFFFFFFFFFFFFFFFFFFFFFFFFFFF AND PUSH20 0xFFFFFFFFFFFFFFFFFFFFFFFFFFFFFFFFFFFFFFFF AND DUP2 MSTORE PUSH1 0x20 ADD SWAP1 DUP2 MSTORE PUSH1 0x20 ADD PUSH0 KECCAK256 PUSH0 DUP4 PUSH20 0xFFFFFFFFFFFFFFFFFFFFFFFFFFFFFFFFFFFFFFFF AND PUSH20 0xFFFFFFFFFFFFFFFFFFFFFFFFFFFFFFFFFFFFFFFF AND DUP2 MSTORE PUSH1 0x20 ADD SWAP1 DUP2 MSTORE PUSH1 0x20 ADD PUSH0 KECCAK256 PUSH0 CALLER PUSH20 0xFFFFFFFFFFFFFFFFFFFFFFFFFFFFFFFFFFFFFFFF AND PUSH20 0xFFFFFFFFFFFFFFFFFFFFFFFFFFFFFFFFFFFFFFFF AND DUP2 MSTORE PUSH1 0x20 ADD SWAP1 DUP2 MSTORE PUSH1 0x20 ADD PUSH0 KECCAK256 PUSH0 SWAP1 SLOAD SWAP1 PUSH2 0x100 EXP SWAP1 DIV PUSH1 0xFF AND JUMPDEST ISZERO PUSH3 0xD68 JUMPI PUSH0 SWAP1 POP PUSH3 0xEA3 JUMP JUMPDEST CALLER PUSH20 0xFFFFFFFFFFFFFFFFFFFFFFFFFFFFFFFFFFFFFFFF AND DUP3 PUSH20 0xFFFFFFFFFFFFFFFFFFFFFFFFFFFFFFFFFFFFFFFF AND PUSH4 0x91F90157 PUSH1 0x40 MLOAD DUP2 PUSH4 0xFFFFFFFF AND PUSH1 0xE0 SHL DUP2 MSTORE PUSH1 0x4 ADD PUSH1 0x20 PUSH1 0x40 MLOAD DUP1 DUP4 SUB DUP2 DUP7 GAS STATICCALL ISZERO DUP1 ISZERO PUSH3 0xDC9 JUMPI RETURNDATASIZE PUSH0 DUP1 RETURNDATACOPY RETURNDATASIZE PUSH0 REVERT JUMPDEST POP POP POP POP PUSH1 0x40 MLOAD RETURNDATASIZE PUSH1 0x1F NOT PUSH1 0x1F DUP3 ADD AND DUP3 ADD DUP1 PUSH1 0x40 MSTORE POP DUP2 ADD SWAP1 PUSH3 0xDEF SWAP2 SWAP1 PUSH3 0x160C JUMP JUMPDEST PUSH20 0xFFFFFFFFFFFFFFFFFFFFFFFFFFFFFFFFFFFFFFFF AND EQ ISZERO DUP1 ISZERO PUSH3 0xE8F JUMPI POP PUSH0 DUP3 PUSH20 0xFFFFFFFFFFFFFFFFFFFFFFFFFFFFFFFFFFFFFFFF AND PUSH4 0x26B387BB CALLER PUSH1 0x40 MLOAD DUP3 PUSH4 0xFFFFFFFF AND PUSH1 0xE0 SHL DUP2 MSTORE PUSH1 0x4 ADD PUSH3 0xE4B SWAP2 SWAP1 PUSH3 0xF73 JUMP JUMPDEST PUSH1 0x20 PUSH1 0x40 MLOAD DUP1 DUP4 SUB DUP2 DUP7 GAS STATICCALL ISZERO DUP1 ISZERO PUSH3 0xE67 JUMPI RETURNDATASIZE PUSH0 DUP1 RETURNDATACOPY RETURNDATASIZE PUSH0 REVERT JUMPDEST POP POP POP POP PUSH1 0x40 MLOAD RETURNDATASIZE PUSH1 0x1F NOT PUSH1 0x1F DUP3 ADD AND DUP3 ADD DUP1 PUSH1 0x40 MSTORE POP DUP2 ADD SWAP1 PUSH3 0xE8D SWAP2 SWAP1 PUSH3 0x15C6 JUMP JUMPDEST EQ JUMPDEST ISZERO PUSH3 0xE9E JUMPI PUSH0 SWAP1 POP PUSH3 0xEA3 JUMP JUMPDEST PUSH1 0x1 SWAP1 POP JUMPDEST SWAP3 SWAP2 POP POP JUMP JUMPDEST PUSH2 0x10A7 DUP1 PUSH3 0x1947 DUP4 CODECOPY ADD SWAP1 JUMP JUMPDEST PUSH0 PUSH1 0x40 MLOAD SWAP1 POP SWAP1 JUMP JUMPDEST PUSH0 DUP1 REVERT JUMPDEST PUSH0 DUP1 REVERT JUMPDEST PUSH0 DUP2 SWAP1 POP SWAP2 SWAP1 POP JUMP JUMPDEST PUSH3 0xEDC DUP2 PUSH3 0xEC8 JUMP JUMPDEST DUP2 EQ PUSH3 0xEE7 JUMPI PUSH0 DUP1 REVERT JUMPDEST POP JUMP JUMPDEST PUSH0 DUP2 CALLDATALOAD SWAP1 POP PUSH3 0xEFA DUP2 PUSH3 0xED1 JUMP JUMPDEST SWAP3 SWAP2 POP POP JUMP JUMPDEST PUSH0 PUSH1 0x20 DUP3 DUP5 SUB SLT ISZERO PUSH3 0xF18 JUMPI PUSH3 0xF17 PUSH3 0xEC0 JUMP JUMPDEST JUMPDEST PUSH0 PUSH3 0xF27 DUP5 DUP3 DUP6 ADD PUSH3 0xEEA JUMP JUMPDEST SWAP2 POP POP SWAP3 SWAP2 POP POP JUMP JUMPDEST PUSH0 PUSH20 0xFFFFFFFFFFFFFFFFFFFFFFFFFFFFFFFFFFFFFFFF DUP3 AND SWAP1 POP SWAP2 SWAP1 POP JUMP JUMPDEST PUSH0 PUSH3 0xF5B DUP3 PUSH3 0xF30 JUMP JUMPDEST SWAP1 POP SWAP2 SWAP1 POP JUMP JUMPDEST PUSH3 0xF6D DUP2 PUSH3 0xF4F JUMP JUMPDEST DUP3 MSTORE POP POP JUMP JUMPDEST PUSH0 PUSH1 0x20 DUP3 ADD SWAP1 POP PUSH3 0xF88 PUSH0 DUP4 ADD DUP5 PUSH3 0xF62 JUMP JUMPDEST SWAP3 SWAP2 POP POP JUMP JUMPDEST PUSH3 0xF99 DUP2 PUSH3 0xF4F JUMP JUMPDEST DUP2 EQ PUSH3 0xFA4 JUMPI PUSH0 DUP1 REVERT JUMPDEST POP JUMP JUMPDEST PUSH0 DUP2 CALLDATALOAD SWAP1 POP PUSH3 0xFB7 DUP2 PUSH3 0xF8E JUMP JUMPDEST SWAP3 SWAP2 POP POP JUMP JUMPDEST PUSH0 PUSH1 0x20 DUP3 DUP5 SUB SLT ISZERO PUSH3 0xFD5 JUMPI PUSH3 0xFD4 PUSH3 0xEC0 JUMP JUMPDEST JUMPDEST PUSH0 PUSH3 0xFE4 DUP5 DUP3 DUP6 ADD PUSH3 0xFA7 JUMP JUMPDEST SWAP2 POP POP SWAP3 SWAP2 POP POP JUMP JUMPDEST PUSH0 PUSH3 0xFF9 DUP3 PUSH3 0xF30 JUMP JUMPDEST SWAP1 POP SWAP2 SWAP1 POP JUMP JUMPDEST PUSH3 0x100B DUP2 PUSH3 0xFED JUMP JUMPDEST DUP3 MSTORE POP POP JUMP JUMPDEST PUSH3 0x101C DUP2 PUSH3 0xEC8 JUMP JUMPDEST DUP3 MSTORE POP POP JUMP JUMPDEST PUSH0 DUP2 MLOAD SWAP1 POP SWAP2 SWAP1 POP JUMP JUMPDEST PUSH0 DUP3 DUP3 MSTORE PUSH1 0x20 DUP3 ADD SWAP1 POP SWAP3 SWAP2 POP POP JUMP JUMPDEST PUSH0 JUMPDEST DUP4 DUP2 LT ISZERO PUSH3 0x105B JUMPI DUP1 DUP3 ADD MLOAD DUP2 DUP5 ADD MSTORE PUSH1 0x20 DUP2 ADD SWAP1 POP PUSH3 0x103E JUMP JUMPDEST PUSH0 DUP5 DUP5 ADD MSTORE POP POP POP POP JUMP JUMPDEST PUSH0 PUSH1 0x1F NOT PUSH1 0x1F DUP4 ADD AND SWAP1 POP SWAP2 SWAP1 POP JUMP JUMPDEST PUSH0 PUSH3 0x1082 DUP3 PUSH3 0x1022 JUMP JUMPDEST PUSH3 0x108E DUP2 DUP6 PUSH3 0x102C JUMP JUMPDEST SWAP4 POP PUSH3 0x10A0 DUP2 DUP6 PUSH1 0x20 DUP7 ADD PUSH3 0x103C JUMP JUMPDEST PUSH3 0x10AB DUP2 PUSH3 0x1066 JUMP JUMPDEST DUP5 ADD SWAP2 POP POP SWAP3 SWAP2 POP POP JUMP JUMPDEST PUSH0 PUSH1 0xA0 DUP3 ADD SWAP1 POP PUSH3 0x10CB PUSH0 DUP4 ADD DUP9 PUSH3 0x1000 JUMP JUMPDEST PUSH3 0x10DA PUSH1 0x20 DUP4 ADD DUP8 PUSH3 0x1011 JUMP JUMPDEST PUSH3 0x10E9 PUSH1 0x40 DUP4 ADD DUP7 PUSH3 0xF62 JUMP JUMPDEST PUSH3 0x10F8 PUSH1 0x60 DUP4 ADD DUP6 PUSH3 0x1011 JUMP JUMPDEST DUP2 DUP2 SUB PUSH1 0x80 DUP4 ADD MSTORE PUSH3 0x110C DUP2 DUP5 PUSH3 0x1076 JUMP JUMPDEST SWAP1 POP SWAP7 SWAP6 POP POP POP POP POP POP JUMP JUMPDEST PUSH0 PUSH1 0xFF DUP3 AND SWAP1 POP SWAP2 SWAP1 POP JUMP JUMPDEST PUSH3 0x112F DUP2 PUSH3 0x1118 JUMP JUMPDEST DUP2 EQ PUSH3 0x113A JUMPI PUSH0 DUP1 REVERT JUMPDEST POP JUMP JUMPDEST PUSH0 DUP2 CALLDATALOAD SWAP1 POP PUSH3 0x114D DUP2 PUSH3 0x1124 JUMP JUMPDEST SWAP3 SWAP2 POP POP JUMP JUMPDEST PUSH0 DUP1 PUSH0 PUSH1 0x60 DUP5 DUP7 SUB SLT ISZERO PUSH3 0x116D JUMPI PUSH3 0x116C PUSH3 0xEC0 JUMP JUMPDEST JUMPDEST PUSH0 PUSH3 0x117C DUP7 DUP3 DUP8 ADD PUSH3 0xFA7 JUMP JUMPDEST SWAP4 POP POP PUSH1 0x20 PUSH3 0x118F DUP7 DUP3 DUP8 ADD PUSH3 0xFA7 JUMP JUMPDEST SWAP3 POP POP PUSH1 0x40 PUSH3 0x11A2 DUP7 DUP3 DUP8 ADD PUSH3 0x113D JUMP JUMPDEST SWAP2 POP POP SWAP3 POP SWAP3 POP SWAP3 JUMP JUMPDEST PUSH0 DUP2 ISZERO ISZERO SWAP1 POP SWAP2 SWAP1 POP JUMP JUMPDEST PUSH3 0x11C2 DUP2 PUSH3 0x11AC JUMP JUMPDEST DUP3 MSTORE POP POP JUMP JUMPDEST PUSH0 PUSH1 0x60 DUP3 ADD SWAP1 POP PUSH3 0x11DD PUSH0 DUP4 ADD DUP7 PUSH3 0x11B7 JUMP JUMPDEST PUSH3 0x11EC PUSH1 0x20 DUP4 ADD DUP6 PUSH3 0x1011 JUMP JUMPDEST PUSH3 0x11FB PUSH1 0x40 DUP4 ADD DUP5 PUSH3 0x1011 JUMP JUMPDEST SWAP5 SWAP4 POP POP POP POP JUMP JUMPDEST PUSH0 DUP2 MLOAD SWAP1 POP SWAP2 SWAP1 POP JUMP JUMPDEST PUSH0 DUP3 DUP3 MSTORE PUSH1 0x20 DUP3 ADD SWAP1 POP SWAP3 SWAP2 POP POP JUMP JUMPDEST PUSH0 DUP2 SWAP1 POP PUSH1 0x20 DUP3 ADD SWAP1 POP SWAP2 SWAP1 POP JUMP JUMPDEST PUSH3 0x1237 DUP2 PUSH3 0xF4F JUMP JUMPDEST DUP3 MSTORE POP POP JUMP JUMPDEST PUSH0 PUSH3 0x124A DUP4 DUP4 PUSH3 0x122C JUMP JUMPDEST PUSH1 0x20 DUP4 ADD SWAP1 POP SWAP3 SWAP2 POP POP JUMP JUMPDEST PUSH0 PUSH1 0x20 DUP3 ADD SWAP1 POP SWAP2 SWAP1 POP JUMP JUMPDEST PUSH0 PUSH3 0x126E DUP3 PUSH3 0x1203 JUMP JUMPDEST PUSH3 0x127A DUP2 DUP6 PUSH3 0x120D JUMP JUMPDEST SWAP4 POP PUSH3 0x1287 DUP4 PUSH3 0x121D JUMP JUMPDEST DUP1 PUSH0 JUMPDEST DUP4 DUP2 LT ISZERO PUSH3 0x12BD JUMPI DUP2 MLOAD PUSH3 0x12A1 DUP9 DUP3 PUSH3 0x123D JUMP JUMPDEST SWAP8 POP PUSH3 0x12AE DUP4 PUSH3 0x1256 JUMP JUMPDEST SWAP3 POP POP PUSH1 0x1 DUP2 ADD SWAP1 POP PUSH3 0x128A JUMP JUMPDEST POP DUP6 SWAP4 POP POP POP POP SWAP3 SWAP2 POP POP JUMP JUMPDEST PUSH0 PUSH1 0x20 DUP3 ADD SWAP1 POP DUP2 DUP2 SUB PUSH0 DUP4 ADD MSTORE PUSH3 0x12E4 DUP2 DUP5 PUSH3 0x1262 JUMP JUMPDEST SWAP1 POP SWAP3 SWAP2 POP POP JUMP JUMPDEST PUSH0 DUP1 PUSH0 PUSH1 0x60 DUP5 DUP7 SUB SLT ISZERO PUSH3 0x1306 JUMPI PUSH3 0x1305 PUSH3 0xEC0 JUMP JUMPDEST JUMPDEST PUSH0 PUSH3 0x1315 DUP7 DUP3 DUP8 ADD PUSH3 0xFA7 JUMP JUMPDEST SWAP4 POP POP PUSH1 0x20 PUSH3 0x1328 DUP7 DUP3 DUP8 ADD PUSH3 0xFA7 JUMP JUMPDEST SWAP3 POP POP PUSH1 0x40 PUSH3 0x133B DUP7 DUP3 DUP8 ADD PUSH3 0xFA7 JUMP JUMPDEST SWAP2 POP POP SWAP3 POP SWAP3 POP SWAP3 JUMP JUMPDEST PUSH0 PUSH1 0x20 DUP3 ADD SWAP1 POP PUSH3 0x135A PUSH0 DUP4 ADD DUP5 PUSH3 0x11B7 JUMP JUMPDEST SWAP3 SWAP2 POP POP JUMP JUMPDEST PUSH0 DUP1 REVERT JUMPDEST PUSH0 DUP1 REVERT JUMPDEST PUSH32 0x4E487B7100000000000000000000000000000000000000000000000000000000 PUSH0 MSTORE PUSH1 0x41 PUSH1 0x4 MSTORE PUSH1 0x24 PUSH0 REVERT JUMPDEST PUSH3 0x13A0 DUP3 PUSH3 0x1066 JUMP JUMPDEST DUP2 ADD DUP2 DUP2 LT PUSH8 0xFFFFFFFFFFFFFFFF DUP3 GT OR ISZERO PUSH3 0x13C2 JUMPI PUSH3 0x13C1 PUSH3 0x1368 JUMP JUMPDEST JUMPDEST DUP1 PUSH1 0x40 MSTORE POP POP POP JUMP JUMPDEST PUSH0 PUSH3 0x13D6 PUSH3 0xEB7 JUMP JUMPDEST SWAP1 POP PUSH3 0x13E4 DUP3 DUP3 PUSH3 0x1395 JUMP JUMPDEST SWAP2 SWAP1 POP JUMP JUMPDEST PUSH0 PUSH8 0xFFFFFFFFFFFFFFFF DUP3 GT ISZERO PUSH3 0x1406 JUMPI PUSH3 0x1405 PUSH3 0x1368 JUMP JUMPDEST JUMPDEST PUSH3 0x1411 DUP3 PUSH3 0x1066 JUMP JUMPDEST SWAP1 POP PUSH1 0x20 DUP2 ADD SWAP1 POP SWAP2 SWAP1 POP JUMP JUMPDEST DUP3 DUP2 DUP4 CALLDATACOPY PUSH0 DUP4 DUP4 ADD MSTORE POP POP POP JUMP JUMPDEST PUSH0 PUSH3 0x1442 PUSH3 0x143C DUP5 PUSH3 0x13E9 JUMP JUMPDEST PUSH3 0x13CB JUMP JUMPDEST SWAP1 POP DUP3 DUP2 MSTORE PUSH1 0x20 DUP2 ADD DUP5 DUP5 DUP5 ADD GT ISZERO PUSH3 0x1461 JUMPI PUSH3 0x1460 PUSH3 0x1364 JUMP JUMPDEST JUMPDEST PUSH3 0x146E DUP5 DUP3 DUP6 PUSH3 0x141E JUMP JUMPDEST POP SWAP4 SWAP3 POP POP POP JUMP JUMPDEST PUSH0 DUP3 PUSH1 0x1F DUP4 ADD SLT PUSH3 0x148D JUMPI PUSH3 0x148C PUSH3 0x1360 JUMP JUMPDEST JUMPDEST DUP2 CALLDATALOAD PUSH3 0x149F DUP5 DUP3 PUSH1 0x20 DUP7 ADD PUSH3 0x142C JUMP JUMPDEST SWAP2 POP POP SWAP3 SWAP2 POP POP JUMP JUMPDEST PUSH0 DUP1 PUSH1 0x40 DUP4 DUP6 SUB SLT ISZERO PUSH3 0x14C1 JUMPI PUSH3 0x14C0 PUSH3 0xEC0 JUMP JUMPDEST JUMPDEST PUSH0 PUSH3 0x14D0 DUP6 DUP3 DUP7 ADD PUSH3 0xEEA JUMP JUMPDEST SWAP3 POP POP PUSH1 0x20 DUP4 ADD CALLDATALOAD PUSH8 0xFFFFFFFFFFFFFFFF DUP2 GT ISZERO PUSH3 0x14F4 JUMPI PUSH3 0x14F3 PUSH3 0xEC4 JUMP JUMPDEST JUMPDEST PUSH3 0x1502 DUP6 DUP3 DUP7 ADD PUSH3 0x1476 JUMP JUMPDEST SWAP2 POP POP SWAP3 POP SWAP3 SWAP1 POP JUMP JUMPDEST PUSH0 DUP1 PUSH1 0x40 DUP4 DUP6 SUB SLT ISZERO PUSH3 0x1525 JUMPI PUSH3 0x1524 PUSH3 0xEC0 JUMP JUMPDEST JUMPDEST PUSH0 PUSH3 0x1534 DUP6 DUP3 DUP7 ADD PUSH3 0xFA7 JUMP JUMPDEST SWAP3 POP POP PUSH1 0x20 PUSH3 0x1547 DUP6 DUP3 DUP7 ADD PUSH3 0xFA7 JUMP JUMPDEST SWAP2 POP POP SWAP3 POP SWAP3 SWAP1 POP JUMP JUMPDEST PUSH3 0x155C DUP2 PUSH3 0xFED JUMP JUMPDEST DUP2 EQ PUSH3 0x1567 JUMPI PUSH0 DUP1 REVERT JUMPDEST POP JUMP JUMPDEST PUSH0 DUP2 MLOAD SWAP1 POP PUSH3 0x157A DUP2 PUSH3 0x1551 JUMP JUMPDEST SWAP3 SWAP2 POP POP JUMP JUMPDEST PUSH0 PUSH1 0x20 DUP3 DUP5 SUB SLT ISZERO PUSH3 0x1598 JUMPI PUSH3 0x1597 PUSH3 0xEC0 JUMP JUMPDEST JUMPDEST PUSH0 PUSH3 0x15A7 DUP5 DUP3 DUP6 ADD PUSH3 0x156A JUMP JUMPDEST SWAP2 POP POP SWAP3 SWAP2 POP POP JUMP JUMPDEST PUSH0 DUP2 MLOAD SWAP1 POP PUSH3 0x15C0 DUP2 PUSH3 0xED1 JUMP JUMPDEST SWAP3 SWAP2 POP POP JUMP JUMPDEST PUSH0 PUSH1 0x20 DUP3 DUP5 SUB SLT ISZERO PUSH3 0x15DE JUMPI PUSH3 0x15DD PUSH3 0xEC0 JUMP JUMPDEST JUMPDEST PUSH0 PUSH3 0x15ED DUP5 DUP3 DUP6 ADD PUSH3 0x15B0 JUMP JUMPDEST SWAP2 POP POP SWAP3 SWAP2 POP POP JUMP JUMPDEST PUSH0 DUP2 MLOAD SWAP1 POP PUSH3 0x1606 DUP2 PUSH3 0xF8E JUMP JUMPDEST SWAP3 SWAP2 POP POP JUMP JUMPDEST PUSH0 PUSH1 0x20 DUP3 DUP5 SUB SLT ISZERO PUSH3 0x1624 JUMPI PUSH3 0x1623 PUSH3 0xEC0 JUMP JUMPDEST JUMPDEST PUSH0 PUSH3 0x1633 DUP5 DUP3 DUP6 ADD PUSH3 0x15F6 JUMP JUMPDEST SWAP2 POP POP SWAP3 SWAP2 POP POP JUMP JUMPDEST PUSH0 PUSH3 0x1652 PUSH3 0x164C DUP5 PUSH3 0x13E9 JUMP JUMPDEST PUSH3 0x13CB JUMP JUMPDEST SWAP1 POP DUP3 DUP2 MSTORE PUSH1 0x20 DUP2 ADD DUP5 DUP5 DUP5 ADD GT ISZERO PUSH3 0x1671 JUMPI PUSH3 0x1670 PUSH3 0x1364 JUMP JUMPDEST JUMPDEST PUSH3 0x167E DUP5 DUP3 DUP6 PUSH3 0x103C JUMP JUMPDEST POP SWAP4 SWAP3 POP POP POP JUMP JUMPDEST PUSH0 DUP3 PUSH1 0x1F DUP4 ADD SLT PUSH3 0x169D JUMPI PUSH3 0x169C PUSH3 0x1360 JUMP JUMPDEST JUMPDEST DUP2 MLOAD PUSH3 0x16AF DUP5 DUP3 PUSH1 0x20 DUP7 ADD PUSH3 0x163C JUMP JUMPDEST SWAP2 POP POP SWAP3 SWAP2 POP POP JUMP JUMPDEST PUSH0 PUSH1 0x20 DUP3 DUP5 SUB SLT ISZERO PUSH3 0x16D0 JUMPI PUSH3 0x16CF PUSH3 0xEC0 JUMP JUMPDEST JUMPDEST PUSH0 DUP3 ADD MLOAD PUSH8 0xFFFFFFFFFFFFFFFF DUP2 GT ISZERO PUSH3 0x16F0 JUMPI PUSH3 0x16EF PUSH3 0xEC4 JUMP JUMPDEST JUMPDEST PUSH3 0x16FE DUP5 DUP3 DUP6 ADD PUSH3 0x1686 JUMP JUMPDEST SWAP2 POP POP SWAP3 SWAP2 POP POP JUMP JUMPDEST PUSH32 0x4D6178696D756D2076616C756520666F72207261746520697320352E00000000 PUSH0 DUP3 ADD MSTORE POP JUMP JUMPDEST PUSH0 PUSH3 0x173D PUSH1 0x1C DUP4 PUSH3 0x102C JUMP JUMPDEST SWAP2 POP PUSH3 0x174A DUP3 PUSH3 0x1707 JUMP JUMPDEST PUSH1 0x20 DUP3 ADD SWAP1 POP SWAP2 SWAP1 POP JUMP JUMPDEST PUSH0 PUSH1 0x20 DUP3 ADD SWAP1 POP DUP2 DUP2 SUB PUSH0 DUP4 ADD MSTORE PUSH3 0x176E DUP2 PUSH3 0x172F JUMP JUMPDEST SWAP1 POP SWAP2 SWAP1 POP JUMP JUMPDEST PUSH32 0x4D696E696D756D2076616C756520666F72207261746520697320312E00000000 PUSH0 DUP3 ADD MSTORE POP JUMP JUMPDEST PUSH0 PUSH3 0x17AB PUSH1 0x1C DUP4 PUSH3 0x102C JUMP JUMPDEST SWAP2 POP PUSH3 0x17B8 DUP3 PUSH3 0x1775 JUMP JUMPDEST PUSH1 0x20 DUP3 ADD SWAP1 POP SWAP2 SWAP1 POP JUMP JUMPDEST PUSH0 PUSH1 0x20 DUP3 ADD SWAP1 POP DUP2 DUP2 SUB PUSH0 DUP4 ADD MSTORE PUSH3 0x17DC DUP2 PUSH3 0x179D JUMP JUMPDEST SWAP1 POP SWAP2 SWAP1 POP JUMP JUMPDEST PUSH32 0x596F75277265206E6F7420616C6C6F77656420746F20726174652E0000000000 PUSH0 DUP3 ADD MSTORE POP JUMP JUMPDEST PUSH0 PUSH3 0x1819 PUSH1 0x1B DUP4 PUSH3 0x102C JUMP JUMPDEST SWAP2 POP PUSH3 0x1826 DUP3 PUSH3 0x17E3 JUMP JUMPDEST PUSH1 0x20 DUP3 ADD SWAP1 POP SWAP2 SWAP1 POP JUMP JUMPDEST PUSH0 PUSH1 0x20 DUP3 ADD SWAP1 POP DUP2 DUP2 SUB PUSH0 DUP4 ADD MSTORE PUSH3 0x184A DUP2 PUSH3 0x180B JUMP JUMPDEST SWAP1 POP SWAP2 SWAP1 POP JUMP JUMPDEST PUSH32 0x4E487B7100000000000000000000000000000000000000000000000000000000 PUSH0 MSTORE PUSH1 0x11 PUSH1 0x4 MSTORE PUSH1 0x24 PUSH0 REVERT JUMPDEST PUSH0 PUSH3 0x188A DUP3 PUSH3 0xEC8 JUMP JUMPDEST SWAP2 POP PUSH3 0x1897 DUP4 PUSH3 0xEC8 JUMP JUMPDEST SWAP3 POP DUP3 DUP3 ADD SWAP1 POP DUP1 DUP3 GT ISZERO PUSH3 0x18B2 JUMPI PUSH3 0x18B1 PUSH3 0x1851 JUMP JUMPDEST JUMPDEST SWAP3 SWAP2 POP POP JUMP JUMPDEST PUSH0 PUSH3 0x18C4 DUP3 PUSH3 0xEC8 JUMP JUMPDEST SWAP2 POP PUSH32 0xFFFFFFFFFFFFFFFFFFFFFFFFFFFFFFFFFFFFFFFFFFFFFFFFFFFFFFFFFFFFFFFF DUP3 SUB PUSH3 0x18F9 JUMPI PUSH3 0x18F8 PUSH3 0x1851 JUMP JUMPDEST JUMPDEST PUSH1 0x1 DUP3 ADD SWAP1 POP SWAP2 SWAP1 POP JUMP JUMPDEST PUSH0 PUSH1 0x60 DUP3 ADD SWAP1 POP PUSH3 0x1919 PUSH0 DUP4 ADD DUP7 PUSH3 0x1011 JUMP JUMPDEST DUP2 DUP2 SUB PUSH1 0x20 DUP4 ADD MSTORE PUSH3 0x192D DUP2 DUP6 PUSH3 0x1076 JUMP JUMPDEST SWAP1 POP PUSH3 0x193E PUSH1 0x40 DUP4 ADD DUP5 PUSH3 0x1000 JUMP JUMPDEST SWAP5 SWAP4 POP POP POP POP JUMP INVALID PUSH1 0x80 PUSH1 0x40 MSTORE CALLVALUE DUP1 ISZERO PUSH3 0x10 JUMPI PUSH0 DUP1 REVERT JUMPDEST POP PUSH1 0x40 MLOAD PUSH3 0x10A7 CODESIZE SUB DUP1 PUSH3 0x10A7 DUP4 CODECOPY DUP2 DUP2 ADD PUSH1 0x40 MSTORE DUP2 ADD SWAP1 PUSH3 0x36 SWAP2 SWAP1 PUSH3 0x2C2 JUMP JUMPDEST DUP1 PUSH0 DUP1 PUSH2 0x100 EXP DUP2 SLOAD DUP2 PUSH20 0xFFFFFFFFFFFFFFFFFFFFFFFFFFFFFFFFFFFFFFFF MUL NOT AND SWAP1 DUP4 PUSH20 0xFFFFFFFFFFFFFFFFFFFFFFFFFFFFFFFFFFFFFFFF AND MUL OR SWAP1 SSTORE POP DUP2 PUSH1 0x2 SWAP1 DUP2 PUSH3 0x86 SWAP2 SWAP1 PUSH3 0x568 JUMP JUMPDEST POP DUP3 TIMESTAMP PUSH3 0x95 SWAP2 SWAP1 PUSH3 0x679 JUMP JUMPDEST PUSH1 0x1 DUP2 SWAP1 SSTORE POP POP POP POP PUSH3 0x6B3 JUMP JUMPDEST PUSH0 PUSH1 0x40 MLOAD SWAP1 POP SWAP1 JUMP JUMPDEST PUSH0 DUP1 REVERT JUMPDEST PUSH0 DUP1 REVERT JUMPDEST PUSH0 DUP2 SWAP1 POP SWAP2 SWAP1 POP JUMP JUMPDEST PUSH3 0xC9 DUP2 PUSH3 0xB5 JUMP JUMPDEST DUP2 EQ PUSH3 0xD4 JUMPI PUSH0 DUP1 REVERT JUMPDEST POP JUMP JUMPDEST PUSH0 DUP2 MLOAD SWAP1 POP PUSH3 0xE7 DUP2 PUSH3 0xBE JUMP JUMPDEST SWAP3 SWAP2 POP POP JUMP JUMPDEST PUSH0 DUP1 REVERT JUMPDEST PUSH0 DUP1 REVERT JUMPDEST PUSH0 PUSH1 0x1F NOT PUSH1 0x1F DUP4 ADD AND SWAP1 POP SWAP2 SWAP1 POP JUMP JUMPDEST PUSH32 0x4E487B7100000000000000000000000000000000000000000000000000000000 PUSH0 MSTORE PUSH1 0x41 PUSH1 0x4 MSTORE PUSH1 0x24 PUSH0 REVERT JUMPDEST PUSH3 0x13D DUP3 PUSH3 0xF5 JUMP JUMPDEST DUP2 ADD DUP2 DUP2 LT PUSH8 0xFFFFFFFFFFFFFFFF DUP3 GT OR ISZERO PUSH3 0x15F JUMPI PUSH3 0x15E PUSH3 0x105 JUMP JUMPDEST JUMPDEST DUP1 PUSH1 0x40 MSTORE POP POP POP JUMP JUMPDEST PUSH0 PUSH3 0x173 PUSH3 0xA4 JUMP JUMPDEST SWAP1 POP PUSH3 0x181 DUP3 DUP3 PUSH3 0x132 JUMP JUMPDEST SWAP2 SWAP1 POP JUMP JUMPDEST PUSH0 PUSH8 0xFFFFFFFFFFFFFFFF DUP3 GT ISZERO PUSH3 0x1A3 JUMPI PUSH3 0x1A2 PUSH3 0x105 JUMP JUMPDEST JUMPDEST PUSH3 0x1AE DUP3 PUSH3 0xF5 JUMP JUMPDEST SWAP1 POP PUSH1 0x20 DUP2 ADD SWAP1 POP SWAP2 SWAP1 POP JUMP JUMPDEST PUSH0 JUMPDEST DUP4 DUP2 LT ISZERO PUSH3 0x1DA JUMPI DUP1 DUP3 ADD MLOAD DUP2 DUP5 ADD MSTORE PUSH1 0x20 DUP2 ADD SWAP1 POP PUSH3 0x1BD JUMP JUMPDEST PUSH0 DUP5 DUP5 ADD MSTORE POP POP POP POP JUMP JUMPDEST PUSH0 PUSH3 0x1FB PUSH3 0x1F5 DUP5 PUSH3 0x186 JUMP JUMPDEST PUSH3 0x168 JUMP JUMPDEST SWAP1 POP DUP3 DUP2 MSTORE PUSH1 0x20 DUP2 ADD DUP5 DUP5 DUP5 ADD GT ISZERO PUSH3 0x21A JUMPI PUSH3 0x219 PUSH3 0xF1 JUMP JUMPDEST JUMPDEST PUSH3 0x227 DUP5 DUP3 DUP6 PUSH3 0x1BB JUMP JUMPDEST POP SWAP4 SWAP3 POP POP POP JUMP JUMPDEST PUSH0 DUP3 PUSH1 0x1F DUP4 ADD SLT PUSH3 0x246 JUMPI PUSH3 0x245 PUSH3 0xED JUMP JUMPDEST JUMPDEST DUP2 MLOAD PUSH3 0x258 DUP5 DUP3 PUSH1 0x20 DUP7 ADD PUSH3 0x1E5 JUMP JUMPDEST SWAP2 POP POP SWAP3 SWAP2 POP POP JUMP JUMPDEST PUSH0 PUSH20 0xFFFFFFFFFFFFFFFFFFFFFFFFFFFFFFFFFFFFFFFF DUP3 AND SWAP1 POP SWAP2 SWAP1 POP JUMP JUMPDEST PUSH0 PUSH3 0x28C DUP3 PUSH3 0x261 JUMP JUMPDEST SWAP1 POP SWAP2 SWAP1 POP JUMP JUMPDEST PUSH3 0x29E DUP2 PUSH3 0x280 JUMP JUMPDEST DUP2 EQ PUSH3 0x2A9 JUMPI PUSH0 DUP1 REVERT JUMPDEST POP JUMP JUMPDEST PUSH0 DUP2 MLOAD SWAP1 POP PUSH3 0x2BC DUP2 PUSH3 0x293 JUMP JUMPDEST SWAP3 SWAP2 POP POP JUMP JUMPDEST PUSH0 DUP1 PUSH0 PUSH1 0x60 DUP5 DUP7 SUB SLT ISZERO PUSH3 0x2DC JUMPI PUSH3 0x2DB PUSH3 0xAD JUMP JUMPDEST JUMPDEST PUSH0 PUSH3 0x2EB DUP7 DUP3 DUP8 ADD PUSH3 0xD7 JUMP JUMPDEST SWAP4 POP POP PUSH1 0x20 DUP5 ADD MLOAD PUSH8 0xFFFFFFFFFFFFFFFF DUP2 GT ISZERO PUSH3 0x30F JUMPI PUSH3 0x30E PUSH3 0xB1 JUMP JUMPDEST JUMPDEST PUSH3 0x31D DUP7 DUP3 DUP8 ADD PUSH3 0x22F JUMP JUMPDEST SWAP3 POP POP PUSH1 0x40 PUSH3 0x330 DUP7 DUP3 DUP8 ADD PUSH3 0x2AC JUMP JUMPDEST SWAP2 POP POP SWAP3 POP SWAP3 POP SWAP3 JUMP JUMPDEST PUSH0 DUP2 MLOAD SWAP1 POP SWAP2 SWAP1 POP JUMP JUMPDEST PUSH32 0x4E487B7100000000000000000000000000000000000000000000000000000000 PUSH0 MSTORE PUSH1 0x22 PUSH1 0x4 MSTORE PUSH1 0x24 PUSH0 REVERT JUMPDEST PUSH0 PUSH1 0x2 DUP3 DIV SWAP1 POP PUSH1 0x1 DUP3 AND DUP1 PUSH3 0x389 JUMPI PUSH1 0x7F DUP3 AND SWAP2 POP JUMPDEST PUSH1 0x20 DUP3 LT DUP2 SUB PUSH3 0x39F JUMPI PUSH3 0x39E PUSH3 0x344 JUMP JUMPDEST JUMPDEST POP SWAP2 SWAP1 POP JUMP JUMPDEST PUSH0 DUP2 SWAP1 POP DUP2 PUSH0 MSTORE PUSH1 0x20 PUSH0 KECCAK256 SWAP1 POP SWAP2 SWAP1 POP JUMP JUMPDEST PUSH0 PUSH1 0x20 PUSH1 0x1F DUP4 ADD DIV SWAP1 POP SWAP2 SWAP1 POP JUMP JUMPDEST PUSH0 DUP3 DUP3 SHL SWAP1 POP SWAP3 SWAP2 POP POP JUMP JUMPDEST PUSH0 PUSH1 0x8 DUP4 MUL PUSH3 0x403 PUSH32 0xFFFFFFFFFFFFFFFFFFFFFFFFFFFFFFFFFFFFFFFFFFFFFFFFFFFFFFFFFFFFFFFF DUP3 PUSH3 0x3C6 JUMP JUMPDEST PUSH3 0x40F DUP7 DUP4 PUSH3 0x3C6 JUMP JUMPDEST SWAP6 POP DUP1 NOT DUP5 AND SWAP4 POP DUP1 DUP7 AND DUP5 OR SWAP3 POP POP POP SWAP4 SWAP3 POP POP POP JUMP JUMPDEST PUSH0 DUP2 SWAP1 POP SWAP2 SWAP1 POP JUMP JUMPDEST PUSH0 PUSH3 0x450 PUSH3 0x44A PUSH3 0x444 DUP5 PUSH3 0xB5 JUMP JUMPDEST PUSH3 0x427 JUMP JUMPDEST PUSH3 0xB5 JUMP JUMPDEST SWAP1 POP SWAP2 SWAP1 POP JUMP JUMPDEST PUSH0 DUP2 SWAP1 POP SWAP2 SWAP1 POP JUMP JUMPDEST PUSH3 0x46B DUP4 PUSH3 0x430 JUMP JUMPDEST PUSH3 0x483 PUSH3 0x47A DUP3 PUSH3 0x457 JUMP JUMPDEST DUP5 DUP5 SLOAD PUSH3 0x3D2 JUMP JUMPDEST DUP3 SSTORE POP POP POP POP JUMP JUMPDEST PUSH0 SWAP1 JUMP JUMPDEST PUSH3 0x499 PUSH3 0x48B JUMP JUMPDEST PUSH3 0x4A6 DUP2 DUP5 DUP5 PUSH3 0x460 JUMP JUMPDEST POP POP POP JUMP JUMPDEST JUMPDEST DUP2 DUP2 LT ISZERO PUSH3 0x4CD JUMPI PUSH3 0x4C1 PUSH0 DUP3 PUSH3 0x48F JUMP JUMPDEST PUSH1 0x1 DUP2 ADD SWAP1 POP PUSH3 0x4AC JUMP JUMPDEST POP POP JUMP JUMPDEST PUSH1 0x1F DUP3 GT ISZERO PUSH3 0x51C JUMPI PUSH3 0x4E6 DUP2 PUSH3 0x3A5 JUMP JUMPDEST PUSH3 0x4F1 DUP5 PUSH3 0x3B7 JUMP JUMPDEST DUP2 ADD PUSH1 0x20 DUP6 LT ISZERO PUSH3 0x501 JUMPI DUP2 SWAP1 POP JUMPDEST PUSH3 0x519 PUSH3 0x510 DUP6 PUSH3 0x3B7 JUMP JUMPDEST DUP4 ADD DUP3 PUSH3 0x4AB JUMP JUMPDEST POP POP JUMPDEST POP POP POP JUMP JUMPDEST PUSH0 DUP3 DUP3 SHR SWAP1 POP SWAP3 SWAP2 POP POP JUMP JUMPDEST PUSH0 PUSH3 0x53E PUSH0 NOT DUP5 PUSH1 0x8 MUL PUSH3 0x521 JUMP JUMPDEST NOT DUP1 DUP4 AND SWAP2 POP POP SWAP3 SWAP2 POP POP JUMP JUMPDEST PUSH0 PUSH3 0x558 DUP4 DUP4 PUSH3 0x52D JUMP JUMPDEST SWAP2 POP DUP3 PUSH1 0x2 MUL DUP3 OR SWAP1 POP SWAP3 SWAP2 POP POP JUMP JUMPDEST PUSH3 0x573 DUP3 PUSH3 0x33A JUMP JUMPDEST PUSH8 0xFFFFFFFFFFFFFFFF DUP2 GT ISZERO PUSH3 0x58F JUMPI PUSH3 0x58E PUSH3 0x105 JUMP JUMPDEST JUMPDEST PUSH3 0x59B DUP3 SLOAD PUSH3 0x371 JUMP JUMPDEST PUSH3 0x5A8 DUP3 DUP3 DUP6 PUSH3 0x4D1 JUMP JUMPDEST PUSH0 PUSH1 0x20 SWAP1 POP PUSH1 0x1F DUP4 GT PUSH1 0x1 DUP2 EQ PUSH3 0x5DE JUMPI PUSH0 DUP5 ISZERO PUSH3 0x5C9 JUMPI DUP3 DUP8 ADD MLOAD SWAP1 POP JUMPDEST PUSH3 0x5D5 DUP6 DUP3 PUSH3 0x54B JUMP JUMPDEST DUP7 SSTORE POP PUSH3 0x644 JUMP JUMPDEST PUSH1 0x1F NOT DUP5 AND PUSH3 0x5EE DUP7 PUSH3 0x3A5 JUMP JUMPDEST PUSH0 JUMPDEST DUP3 DUP2 LT ISZERO PUSH3 0x617 JUMPI DUP5 DUP10 ADD MLOAD DUP3 SSTORE PUSH1 0x1 DUP3 ADD SWAP2 POP PUSH1 0x20 DUP6 ADD SWAP5 POP PUSH1 0x20 DUP2 ADD SWAP1 POP PUSH3 0x5F0 JUMP JUMPDEST DUP7 DUP4 LT ISZERO PUSH3 0x637 JUMPI DUP5 DUP10 ADD MLOAD PUSH3 0x633 PUSH1 0x1F DUP10 AND DUP3 PUSH3 0x52D JUMP JUMPDEST DUP4 SSTORE POP JUMPDEST PUSH1 0x1 PUSH1 0x2 DUP9 MUL ADD DUP9 SSTORE POP POP POP JUMPDEST POP POP POP POP POP POP JUMP JUMPDEST PUSH32 0x4E487B7100000000000000000000000000000000000000000000000000000000 PUSH0 MSTORE PUSH1 0x11 PUSH1 0x4 MSTORE PUSH1 0x24 PUSH0 REVERT JUMPDEST PUSH0 PUSH3 0x685 DUP3 PUSH3 0xB5 JUMP JUMPDEST SWAP2 POP PUSH3 0x692 DUP4 PUSH3 0xB5 JUMP JUMPDEST SWAP3 POP DUP3 DUP3 ADD SWAP1 POP DUP1 DUP3 GT ISZERO PUSH3 0x6AD JUMPI PUSH3 0x6AC PUSH3 0x64C JUMP JUMPDEST JUMPDEST SWAP3 SWAP2 POP POP JUMP JUMPDEST PUSH2 0x9E6 DUP1 PUSH3 0x6C1 PUSH0 CODECOPY PUSH0 RETURN INVALID PUSH1 0x80 PUSH1 0x40 MSTORE PUSH1 0x4 CALLDATASIZE LT PUSH2 0x85 JUMPI PUSH0 CALLDATALOAD PUSH1 0xE0 SHR DUP1 PUSH4 0x3CCFD60B GT PUSH2 0x58 JUMPI DUP1 PUSH4 0x3CCFD60B EQ PUSH2 0x10F JUMPI DUP1 PUSH4 0x4B449CBA EQ PUSH2 0x139 JUMPI DUP1 PUSH4 0x91F90157 EQ PUSH2 0x163 JUMPI DUP1 PUSH4 0xC63D99DB EQ PUSH2 0x18D JUMPI DUP1 PUSH4 0xD57BDE79 EQ PUSH2 0x1B7 JUMPI PUSH2 0x85 JUMP JUMPDEST DUP1 PUSH4 0x1998AEEF EQ PUSH2 0x89 JUMPI DUP1 PUSH4 0x26B387BB EQ PUSH2 0x93 JUMPI DUP1 PUSH4 0x2A24F46C EQ PUSH2 0xCF JUMPI DUP1 PUSH4 0x38AF3EED EQ PUSH2 0xE5 JUMPI JUMPDEST PUSH0 DUP1 REVERT JUMPDEST PUSH2 0x91 PUSH2 0x1E1 JUMP JUMPDEST STOP JUMPDEST CALLVALUE DUP1 ISZERO PUSH2 0x9E JUMPI PUSH0 DUP1 REVERT JUMPDEST POP PUSH2 0xB9 PUSH1 0x4 DUP1 CALLDATASIZE SUB DUP2 ADD SWAP1 PUSH2 0xB4 SWAP2 SWAP1 PUSH2 0x732 JUMP JUMPDEST PUSH2 0x367 JUMP JUMPDEST PUSH1 0x40 MLOAD PUSH2 0xC6 SWAP2 SWAP1 PUSH2 0x775 JUMP JUMPDEST PUSH1 0x40 MLOAD DUP1 SWAP2 SUB SWAP1 RETURN JUMPDEST CALLVALUE DUP1 ISZERO PUSH2 0xDA JUMPI PUSH0 DUP1 REVERT JUMPDEST POP PUSH2 0xE3 PUSH2 0x37C JUMP JUMPDEST STOP JUMPDEST CALLVALUE DUP1 ISZERO PUSH2 0xF0 JUMPI PUSH0 DUP1 REVERT JUMPDEST POP PUSH2 0xF9 PUSH2 0x4DB JUMP JUMPDEST PUSH1 0x40 MLOAD PUSH2 0x106 SWAP2 SWAP1 PUSH2 0x7AE JUMP JUMPDEST PUSH1 0x40 MLOAD DUP1 SWAP2 SUB SWAP1 RETURN JUMPDEST CALLVALUE DUP1 ISZERO PUSH2 0x11A JUMPI PUSH0 DUP1 REVERT JUMPDEST POP PUSH2 0x123 PUSH2 0x4FE JUMP JUMPDEST PUSH1 0x40 MLOAD PUSH2 0x130 SWAP2 SWAP1 PUSH2 0x7E1 JUMP JUMPDEST PUSH1 0x40 MLOAD DUP1 SWAP2 SUB SWAP1 RETURN JUMPDEST CALLVALUE DUP1 ISZERO PUSH2 0x144 JUMPI PUSH0 DUP1 REVERT JUMPDEST POP PUSH2 0x14D PUSH2 0x617 JUMP JUMPDEST PUSH1 0x40 MLOAD PUSH2 0x15A SWAP2 SWAP1 PUSH2 0x775 JUMP JUMPDEST PUSH1 0x40 MLOAD DUP1 SWAP2 SUB SWAP1 RETURN JUMPDEST CALLVALUE DUP1 ISZERO PUSH2 0x16E JUMPI PUSH0 DUP1 REVERT JUMPDEST POP PUSH2 0x177 PUSH2 0x61D JUMP JUMPDEST PUSH1 0x40 MLOAD PUSH2 0x184 SWAP2 SWAP1 PUSH2 0x809 JUMP JUMPDEST PUSH1 0x40 MLOAD DUP1 SWAP2 SUB SWAP1 RETURN JUMPDEST CALLVALUE DUP1 ISZERO PUSH2 0x198 JUMPI PUSH0 DUP1 REVERT JUMPDEST POP PUSH2 0x1A1 PUSH2 0x642 JUMP JUMPDEST PUSH1 0x40 MLOAD PUSH2 0x1AE SWAP2 SWAP1 PUSH2 0x8AC JUMP JUMPDEST PUSH1 0x40 MLOAD DUP1 SWAP2 SUB SWAP1 RETURN JUMPDEST CALLVALUE DUP1 ISZERO PUSH2 0x1C2 JUMPI PUSH0 DUP1 REVERT JUMPDEST POP PUSH2 0x1CB PUSH2 0x6CE JUMP JUMPDEST PUSH1 0x40 MLOAD PUSH2 0x1D8 SWAP2 SWAP1 PUSH2 0x775 JUMP JUMPDEST PUSH1 0x40 MLOAD DUP1 SWAP2 SUB SWAP1 RETURN JUMPDEST PUSH1 0x1 SLOAD TIMESTAMP GT ISZERO PUSH2 0x21D JUMPI PUSH1 0x40 MLOAD PUSH32 0xD02E774D00000000000000000000000000000000000000000000000000000000 DUP2 MSTORE PUSH1 0x4 ADD PUSH1 0x40 MLOAD DUP1 SWAP2 SUB SWAP1 REVERT JUMPDEST PUSH1 0x4 SLOAD CALLVALUE GT PUSH2 0x265 JUMPI PUSH1 0x4 SLOAD PUSH1 0x40 MLOAD PUSH32 0x4E12C1BB00000000000000000000000000000000000000000000000000000000 DUP2 MSTORE PUSH1 0x4 ADD PUSH2 0x25C SWAP2 SWAP1 PUSH2 0x775 JUMP JUMPDEST PUSH1 0x40 MLOAD DUP1 SWAP2 SUB SWAP1 REVERT JUMPDEST PUSH0 PUSH1 0x4 SLOAD EQ PUSH2 0x2E5 JUMPI PUSH1 0x4 SLOAD PUSH1 0x5 PUSH0 PUSH1 0x3 PUSH0 SWAP1 SLOAD SWAP1 PUSH2 0x100 EXP SWAP1 DIV PUSH20 0xFFFFFFFFFFFFFFFFFFFFFFFFFFFFFFFFFFFFFFFF AND PUSH20 0xFFFFFFFFFFFFFFFFFFFFFFFFFFFFFFFFFFFFFFFF AND PUSH20 0xFFFFFFFFFFFFFFFFFFFFFFFFFFFFFFFFFFFFFFFF AND DUP2 MSTORE PUSH1 0x20 ADD SWAP1 DUP2 MSTORE PUSH1 0x20 ADD PUSH0 KECCAK256 PUSH0 DUP3 DUP3 SLOAD PUSH2 0x2DD SWAP2 SWAP1 PUSH2 0x8F9 JUMP JUMPDEST SWAP3 POP POP DUP2 SWAP1 SSTORE POP JUMPDEST CALLER PUSH1 0x3 PUSH0 PUSH2 0x100 EXP DUP2 SLOAD DUP2 PUSH20 0xFFFFFFFFFFFFFFFFFFFFFFFFFFFFFFFFFFFFFFFF MUL NOT AND SWAP1 DUP4 PUSH20 0xFFFFFFFFFFFFFFFFFFFFFFFFFFFFFFFFFFFFFFFF AND MUL OR SWAP1 SSTORE POP CALLVALUE PUSH1 0x4 DUP2 SWAP1 SSTORE POP PUSH32 0xF4757A49B326036464BEC6FE419A4AE38C8A02CE3E68BF0809674F6AAB8AD300 CALLER CALLVALUE PUSH1 0x40 MLOAD PUSH2 0x35D SWAP3 SWAP2 SWAP1 PUSH2 0x92C JUMP JUMPDEST PUSH1 0x40 MLOAD DUP1 SWAP2 SUB SWAP1 LOG1 JUMP JUMPDEST PUSH1 0x5 PUSH1 0x20 MSTORE DUP1 PUSH0 MSTORE PUSH1 0x40 PUSH0 KECCAK256 PUSH0 SWAP2 POP SWAP1 POP SLOAD DUP2 JUMP JUMPDEST PUSH1 0x1 SLOAD TIMESTAMP LT ISZERO PUSH2 0x3B8 JUMPI PUSH1 0x40 MLOAD PUSH32 0x44CEE29000000000000000000000000000000000000000000000000000000000 DUP2 MSTORE PUSH1 0x4 ADD PUSH1 0x40 MLOAD DUP1 SWAP2 SUB SWAP1 REVERT JUMPDEST PUSH1 0x6 PUSH0 SWAP1 SLOAD SWAP1 PUSH2 0x100 EXP SWAP1 DIV PUSH1 0xFF AND ISZERO PUSH2 0x3FE JUMPI PUSH1 0x40 MLOAD PUSH32 0x61CFDCF800000000000000000000000000000000000000000000000000000000 DUP2 MSTORE PUSH1 0x4 ADD PUSH1 0x40 MLOAD DUP1 SWAP2 SUB SWAP1 REVERT JUMPDEST PUSH1 0x1 PUSH1 0x6 PUSH0 PUSH2 0x100 EXP DUP2 SLOAD DUP2 PUSH1 0xFF MUL NOT AND SWAP1 DUP4 ISZERO ISZERO MUL OR SWAP1 SSTORE POP PUSH32 0xDAEC4582D5D9595688C8C98545FDD1C696D41C6AEAEB636737E84ED2F5C00EDA PUSH1 0x3 PUSH0 SWAP1 SLOAD SWAP1 PUSH2 0x100 EXP SWAP1 DIV PUSH20 0xFFFFFFFFFFFFFFFFFFFFFFFFFFFFFFFFFFFFFFFF AND PUSH1 0x4 SLOAD PUSH1 0x40 MLOAD PUSH2 0x46C SWAP3 SWAP2 SWAP1 PUSH2 0x92C JUMP JUMPDEST PUSH1 0x40 MLOAD DUP1 SWAP2 SUB SWAP1 LOG1 PUSH0 DUP1 SLOAD SWAP1 PUSH2 0x100 EXP SWAP1 DIV PUSH20 0xFFFFFFFFFFFFFFFFFFFFFFFFFFFFFFFFFFFFFFFF AND PUSH20 0xFFFFFFFFFFFFFFFFFFFFFFFFFFFFFFFFFFFFFFFF AND PUSH2 0x8FC PUSH1 0x4 SLOAD SWAP1 DUP2 ISZERO MUL SWAP1 PUSH1 0x40 MLOAD PUSH0 PUSH1 0x40 MLOAD DUP1 DUP4 SUB DUP2 DUP6 DUP9 DUP9 CALL SWAP4 POP POP POP POP ISZERO DUP1 ISZERO PUSH2 0x4D8 JUMPI RETURNDATASIZE PUSH0 DUP1 RETURNDATACOPY RETURNDATASIZE PUSH0 REVERT JUMPDEST POP JUMP JUMPDEST PUSH0 DUP1 SLOAD SWAP1 PUSH2 0x100 EXP SWAP1 DIV PUSH20 0xFFFFFFFFFFFFFFFFFFFFFFFFFFFFFFFFFFFFFFFF AND DUP2 JUMP JUMPDEST PUSH0 DUP1 PUSH1 0x5 PUSH0 CALLER PUSH20 0xFFFFFFFFFFFFFFFFFFFFFFFFFFFFFFFFFFFFFFFF AND PUSH20 0xFFFFFFFFFFFFFFFFFFFFFFFFFFFFFFFFFFFFFFFF AND DUP2 MSTORE PUSH1 0x20 ADD SWAP1 DUP2 MSTORE PUSH1 0x20 ADD PUSH0 KECCAK256 SLOAD SWAP1 POP PUSH0 DUP2 GT ISZERO PUSH2 0x60E JUMPI PUSH0 PUSH1 0x5 PUSH0 CALLER PUSH20 0xFFFFFFFFFFFFFFFFFFFFFFFFFFFFFFFFFFFFFFFF AND PUSH20 0xFFFFFFFFFFFFFFFFFFFFFFFFFFFFFFFFFFFFFFFF AND DUP2 MSTORE PUSH1 0x20 ADD SWAP1 DUP2 MSTORE PUSH1 0x20 ADD PUSH0 KECCAK256 DUP2 SWAP1 SSTORE POP CALLER PUSH20 0xFFFFFFFFFFFFFFFFFFFFFFFFFFFFFFFFFFFFFFFF AND PUSH2 0x8FC DUP3 SWAP1 DUP2 ISZERO MUL SWAP1 PUSH1 0x40 MLOAD PUSH0 PUSH1 0x40 MLOAD DUP1 DUP4 SUB DUP2 DUP6 DUP9 DUP9 CALL SWAP4 POP POP POP POP PUSH2 0x60D JUMPI DUP1 PUSH1 0x5 PUSH0 CALLER PUSH20 0xFFFFFFFFFFFFFFFFFFFFFFFFFFFFFFFFFFFFFFFF AND PUSH20 0xFFFFFFFFFFFFFFFFFFFFFFFFFFFFFFFFFFFFFFFF AND DUP2 MSTORE PUSH1 0x20 ADD SWAP1 DUP2 MSTORE PUSH1 0x20 ADD PUSH0 KECCAK256 DUP2 SWAP1 SSTORE POP PUSH0 SWAP2 POP POP PUSH2 0x614 JUMP JUMPDEST JUMPDEST PUSH1 0x1 SWAP2 POP POP JUMPDEST SWAP1 JUMP JUMPDEST PUSH1 0x1 SLOAD DUP2 JUMP JUMPDEST PUSH1 0x3 PUSH0 SWAP1 SLOAD SWAP1 PUSH2 0x100 EXP SWAP1 DIV PUSH20 0xFFFFFFFFFFFFFFFFFFFFFFFFFFFFFFFFFFFFFFFF AND DUP2 JUMP JUMPDEST PUSH1 0x2 DUP1 SLOAD PUSH2 0x64F SWAP1 PUSH2 0x980 JUMP JUMPDEST DUP1 PUSH1 0x1F ADD PUSH1 0x20 DUP1 SWAP2 DIV MUL PUSH1 0x20 ADD PUSH1 0x40 MLOAD SWAP1 DUP2 ADD PUSH1 0x40 MSTORE DUP1 SWAP3 SWAP2 SWAP1 DUP2 DUP2 MSTORE PUSH1 0x20 ADD DUP3 DUP1 SLOAD PUSH2 0x67B SWAP1 PUSH2 0x980 JUMP JUMPDEST DUP1 ISZERO PUSH2 0x6C6 JUMPI DUP1 PUSH1 0x1F LT PUSH2 0x69D JUMPI PUSH2 0x100 DUP1 DUP4 SLOAD DIV MUL DUP4 MSTORE SWAP2 PUSH1 0x20 ADD SWAP2 PUSH2 0x6C6 JUMP JUMPDEST DUP3 ADD SWAP2 SWAP1 PUSH0 MSTORE PUSH1 0x20 PUSH0 KECCAK256 SWAP1 JUMPDEST DUP2 SLOAD DUP2 MSTORE SWAP1 PUSH1 0x1 ADD SWAP1 PUSH1 0x20 ADD DUP1 DUP4 GT PUSH2 0x6A9 JUMPI DUP3 SWAP1 SUB PUSH1 0x1F AND DUP3 ADD SWAP2 JUMPDEST POP POP POP POP POP DUP2 JUMP JUMPDEST PUSH1 0x4 SLOAD DUP2 JUMP JUMPDEST PUSH0 DUP1 REVERT JUMPDEST PUSH0 PUSH20 0xFFFFFFFFFFFFFFFFFFFFFFFFFFFFFFFFFFFFFFFF DUP3 AND SWAP1 POP SWAP2 SWAP1 POP JUMP JUMPDEST PUSH0 PUSH2 0x701 DUP3 PUSH2 0x6D8 JUMP JUMPDEST SWAP1 POP SWAP2 SWAP1 POP JUMP JUMPDEST PUSH2 0x711 DUP2 PUSH2 0x6F7 JUMP JUMPDEST DUP2 EQ PUSH2 0x71B JUMPI PUSH0 DUP1 REVERT JUMPDEST POP JUMP JUMPDEST PUSH0 DUP2 CALLDATALOAD SWAP1 POP PUSH2 0x72C DUP2 PUSH2 0x708 JUMP JUMPDEST SWAP3 SWAP2 POP POP JUMP JUMPDEST PUSH0 PUSH1 0x20 DUP3 DUP5 SUB SLT ISZERO PUSH2 0x747 JUMPI PUSH2 0x746 PUSH2 0x6D4 JUMP JUMPDEST JUMPDEST PUSH0 PUSH2 0x754 DUP5 DUP3 DUP6 ADD PUSH2 0x71E JUMP JUMPDEST SWAP2 POP POP SWAP3 SWAP2 POP POP JUMP JUMPDEST PUSH0 DUP2 SWAP1 POP SWAP2 SWAP1 POP JUMP JUMPDEST PUSH2 0x76F DUP2 PUSH2 0x75D JUMP JUMPDEST DUP3 MSTORE POP POP JUMP JUMPDEST PUSH0 PUSH1 0x20 DUP3 ADD SWAP1 POP PUSH2 0x788 PUSH0 DUP4 ADD DUP5 PUSH2 0x766 JUMP JUMPDEST SWAP3 SWAP2 POP POP JUMP JUMPDEST PUSH0 PUSH2 0x798 DUP3 PUSH2 0x6D8 JUMP JUMPDEST SWAP1 POP SWAP2 SWAP1 POP JUMP JUMPDEST PUSH2 0x7A8 DUP2 PUSH2 0x78E JUMP JUMPDEST DUP3 MSTORE POP POP JUMP JUMPDEST PUSH0 PUSH1 0x20 DUP3 ADD SWAP1 POP PUSH2 0x7C1 PUSH0 DUP4 ADD DUP5 PUSH2 0x79F JUMP JUMPDEST SWAP3 SWAP2 POP POP JUMP JUMPDEST PUSH0 DUP2 ISZERO ISZERO SWAP1 POP SWAP2 SWAP1 POP JUMP JUMPDEST PUSH2 0x7DB DUP2 PUSH2 0x7C7 JUMP JUMPDEST DUP3 MSTORE POP POP JUMP JUMPDEST PUSH0 PUSH1 0x20 DUP3 ADD SWAP1 POP PUSH2 0x7F4 PUSH0 DUP4 ADD DUP5 PUSH2 0x7D2 JUMP JUMPDEST SWAP3 SWAP2 POP POP JUMP JUMPDEST PUSH2 0x803 DUP2 PUSH2 0x6F7 JUMP JUMPDEST DUP3 MSTORE POP POP JUMP JUMPDEST PUSH0 PUSH1 0x20 DUP3 ADD SWAP1 POP PUSH2 0x81C PUSH0 DUP4 ADD DUP5 PUSH2 0x7FA JUMP JUMPDEST SWAP3 SWAP2 POP POP JUMP JUMPDEST PUSH0 DUP2 MLOAD SWAP1 POP SWAP2 SWAP1 POP JUMP JUMPDEST PUSH0 DUP3 DUP3 MSTORE PUSH1 0x20 DUP3 ADD SWAP1 POP SWAP3 SWAP2 POP POP JUMP JUMPDEST PUSH0 JUMPDEST DUP4 DUP2 LT ISZERO PUSH2 0x859 JUMPI DUP1 DUP3 ADD MLOAD DUP2 DUP5 ADD MSTORE PUSH1 0x20 DUP2 ADD SWAP1 POP PUSH2 0x83E JUMP JUMPDEST PUSH0 DUP5 DUP5 ADD MSTORE POP POP POP POP JUMP JUMPDEST PUSH0 PUSH1 0x1F NOT PUSH1 0x1F DUP4 ADD AND SWAP1 POP SWAP2 SWAP1 POP JUMP JUMPDEST PUSH0 PUSH2 0x87E DUP3 PUSH2 0x822 JUMP JUMPDEST PUSH2 0x888 DUP2 DUP6 PUSH2 0x82C JUMP JUMPDEST SWAP4 POP PUSH2 0x898 DUP2 DUP6 PUSH1 0x20 DUP7 ADD PUSH2 0x83C JUMP JUMPDEST PUSH2 0x8A1 DUP2 PUSH2 0x864 JUMP JUMPDEST DUP5 ADD SWAP2 POP POP SWAP3 SWAP2 POP POP JUMP JUMPDEST PUSH0 PUSH1 0x20 DUP3 ADD SWAP1 POP DUP2 DUP2 SUB PUSH0 DUP4 ADD MSTORE PUSH2 0x8C4 DUP2 DUP5 PUSH2 0x874 JUMP JUMPDEST SWAP1 POP SWAP3 SWAP2 POP POP JUMP JUMPDEST PUSH32 0x4E487B7100000000000000000000000000000000000000000000000000000000 PUSH0 MSTORE PUSH1 0x11 PUSH1 0x4 MSTORE PUSH1 0x24 PUSH0 REVERT JUMPDEST PUSH0 PUSH2 0x903 DUP3 PUSH2 0x75D JUMP JUMPDEST SWAP2 POP PUSH2 0x90E DUP4 PUSH2 0x75D JUMP JUMPDEST SWAP3 POP DUP3 DUP3 ADD SWAP1 POP DUP1 DUP3 GT ISZERO PUSH2 0x926 JUMPI PUSH2 0x925 PUSH2 0x8CC JUMP JUMPDEST JUMPDEST SWAP3 SWAP2 POP POP JUMP JUMPDEST PUSH0 PUSH1 0x40 DUP3 ADD SWAP1 POP PUSH2 0x93F PUSH0 DUP4 ADD DUP6 PUSH2 0x7FA JUMP JUMPDEST PUSH2 0x94C PUSH1 0x20 DUP4 ADD DUP5 PUSH2 0x766 JUMP JUMPDEST SWAP4 SWAP3 POP POP POP JUMP JUMPDEST PUSH32 0x4E487B7100000000000000000000000000000000000000000000000000000000 PUSH0 MSTORE PUSH1 0x22 PUSH1 0x4 MSTORE PUSH1 0x24 PUSH0 REVERT JUMPDEST PUSH0 PUSH1 0x2 DUP3 DIV SWAP1 POP PUSH1 0x1 DUP3 AND DUP1 PUSH2 0x997 JUMPI PUSH1 0x7F DUP3 AND SWAP2 POP JUMPDEST PUSH1 0x20 DUP3 LT DUP2 SUB PUSH2 0x9AA JUMPI PUSH2 0x9A9 PUSH2 0x953 JUMP JUMPDEST JUMPDEST POP SWAP2 SWAP1 POP JUMP INVALID LOG2 PUSH5 0x6970667358 0x22 SLT KECCAK256 0xEC SWAP5 RETURNDATASIZE 0xAE 0x2B SWAP5 0x4C 0xDA SWAP5 0xC 0xAF 0xAC ADDRESS 0x4F COINBASE 0xC7 LOG1 0xE4 0x25 CALLVALUE BASEFEE 0xB9 DUP5 0x21 GAS JUMPDEST SLT 0x5C 0xD1 BASEFEE PUSH11 0x4B64736F6C634300081400 CALLER LOG2 PUSH5 0x6970667358 0x22 SLT KECCAK256 0xCD 0x2F INVALID GASLIMIT 0xAB SMOD SWAP16 CREATE2 DUP12 DUP9 CODECOPY 0x24 0xA8 CALLVALUE INVALID 0x2D 0xDE 0xDF 0xDE GASPRICE 0xB3 RETURNDATASIZE 0xAD CALLER 0xE9 SWAP9 0xB7 OR 0xB7 PUSH18 0xCADB64736F6C634300081400330000000000 "},"gasEstimates":{"creation":{"codeDepositCost":"2157400","executionCost":"2300","totalCost":"2159700"},"external":{"allAuctions(uint256)":"4967","canRate(address,address)":"infinite","createAuction(uint256,string)":"infinite","getAllAuctions()":"infinite","getAuctionDetails(address)":"infinite","getOwners()":"infinite","hasVoted(address,address,address)":"infinite","owners(uint256)":"4944","rate(address,address,uint8)":"infinite","ratings(address)":"infinite"}},"methodIdentifiers":{"allAuctions(uint256)":"165c5881","canRate(address,address)":"cca56666","createAuction(uint256,string)":"adaa1992","getAllAuctions()":"cbd2bdfd","getAuctionDetails(address)":"7f593d9e","getOwners()":"a0e67e2b","hasVoted(address,address,address)":"a44f83e5","owners(uint256)":"025e7c27","rate(address,address,uint8)":"977bd705","ratings(address)":"9e01dfbb"}},"storageLayout":{"storage":[{"astId":217,"contract":"AuctionFactory.sol:AuctionFactory","label":"owners","offset":0,"slot":"0","type":"t_array(t_address)dyn_storage"},{"astId":222,"contract":"AuctionFactory.sol:AuctionFactory","label":"ratings","offset":0,"slot":"1","type":"t_mapping(t_address,t_struct(Organiser)214_storage)"},{"astId":230,"contract":"AuctionFactory.sol:AuctionFactory","label":"hasVoted","offset":0,"slot":"2","type":"t_mapping(t_address,t_mapping(t_address,t_mapping(t_address,t_bool)))"},{"astId":233,"contract":"AuctionFactory.sol:AuctionFactory","label":"allAuctions","offset":0,"slot":"3","type":"t_array(t_address)dyn_storage"}],"types":{"t_address":{"encoding":"inplace","label":"address","numberOfBytes":"20"},"t_array(t_address)dyn_storage":{"base":"t_address","encoding":"dynamic_array","label":"address[]","numberOfBytes":"32"},"t_bool":{"encoding":"inplace","label":"bool","numberOfBytes":"1"},"t_mapping(t_address,t_bool)":{"encoding":"mapping","key":"t_address","label":"mapping(address => bool)","numberOfBytes":"32","value":"t_bool"},"t_mapping(t_address,t_mapping(t_address,t_bool))":{"encoding":"mapping","key":"t_address","label":"mapping(address => mapping(address => bool))","numberOfBytes":"32","value":"t_mapping(t_address,t_bool)"},"t_mapping(t_address,t_mapping(t_address,t_mapping(t_address,t_bool)))":{"encoding":"mapping","key":"t_address","label":"mapping(address => mapping(address => mapping(address => bool)))","numberOfBytes":"32","value":"t_mapping(t_address,t_mapping(t_address,t_bool))"},"t_mapping(t_address,t_struct(Organiser)214_storage)":{"encoding":"mapping","key":"t_address","label":"mapping(address => struct AuctionFactory.Organiser)","numberOfBytes":"32","value":"t_struct(Organiser)214_storage"},"t_struct(Organiser)214_storage":{"encoding":"inplace","label":"struct AuctionFactory.Organiser","members":[{"astId":209,"contract":"AuctionFactory.sol:AuctionFactory","label":"active","offset":0,"slot":"0","type":"t_bool"},{"astId":211,"contract":"AuctionFactory.sol:AuctionFactory","label":"ratingSum","offset":0,"slot":"1","type":"t_uint256"},{"astId":213,"contract":"AuctionFactory.sol:AuctionFactory","label":"numberOfRates","offset":0,"slot":"2","type":"t_uint256"}],"numberOfBytes":"96"},"t_uint256":{"encoding":"inplace","label":"uint256","numberOfBytes":"32"}}},"userdoc":{"kind":"user","methods":{},"version":1}}