{"abi":[{"inputs":[{"internalType":"uint256","name":"","type":"uint256"}],"name":"auctions","outputs":[{"internalType":"address","name":"","type":"address"}],"stateMutability":"view","type":"function"},{"inputs":[{"internalType":"uint256","name":"_duration","type":"uint256"},{"internalType":"string","name":"_name","type":"string"}],"name":"createAuction","outputs":[],"stateMutability":"nonpayable","type":"function"},{"inputs":[{"internalType":"address","name":"auctionAddress","type":"address"}],"name":"getAuctionDetails","outputs":[{"internalType":"address payable","name":"seller","type":"address"},{"internalType":"uint256","name":"auctionEndTime","type":"uint256"},{"internalType":"address","name":"highestBidder","type":"address"},{"internalType":"uint256","name":"highestBid","type":"uint256"},{"internalType":"string","name":"auctionName","type":"string"},{"internalType":"enum AuctionState","name":"state","type":"uint8"}],"stateMutability":"view","type":"function"},{"inputs":[],"name":"getAuctions","outputs":[{"internalType":"address[]","name":"","type":"address[]"}],"stateMutability":"view","type":"function"},{"inputs":[{"internalType":"address","name":"sellerAddress","type":"address"}],"name":"getRatingsForSeller","outputs":[{"internalType":"uint256[]","name":"","type":"uint256[]"}],"stateMutability":"view","type":"function"}],"devdoc":{"kind":"dev","methods":{},"version":1},"evm":{"assembly":"    /* \"AuctionFactory.sol\":50:1436  contract AuctionFactory {... */\n  mstore(0x40, 0x80)\n  callvalue\n  dup1\n  iszero\n  tag_1\n  jumpi\n  0x00\n  dup1\n  revert\ntag_1:\n  pop\n  dataSize(sub_0)\n  dup1\n  dataOffset(sub_0)\n  0x00\n  codecopy\n  0x00\n  return\nstop\n\nsub_0: assembly {\n        /* \"AuctionFactory.sol\":50:1436  contract AuctionFactory {... */\n      mstore(0x40, 0x80)\n      callvalue\n      dup1\n      iszero\n      tag_1\n      jumpi\n      0x00\n      dup1\n      revert\n    tag_1:\n      pop\n      jumpi(tag_2, lt(calldatasize, 0x04))\n      shr(0xe0, calldataload(0x00))\n      dup1\n      0x3d06f593\n      eq\n      tag_3\n      jumpi\n      dup1\n      0x571a26a0\n      eq\n      tag_4\n      jumpi\n      dup1\n      0x7f593d9e\n      eq\n      tag_5\n      jumpi\n      dup1\n      0xadaa1992\n      eq\n      tag_6\n      jumpi\n      dup1\n      0xd7c06919\n      eq\n      tag_7\n      jumpi\n    tag_2:\n      0x00\n      dup1\n      revert\n        /* \"AuctionFactory.sol\":969:1432  function getRatingsForSeller(address sellerAddress) public view returns (uint256[] memory) {... */\n    tag_3:\n      tag_8\n      0x04\n      dup1\n      calldatasize\n      sub\n      dup2\n      add\n      swap1\n      tag_9\n      swap2\n      swap1\n      tag_10\n      jump\t// in\n    tag_9:\n      tag_11\n      jump\t// in\n    tag_8:\n      mload(0x40)\n      tag_12\n      swap2\n      swap1\n      tag_13\n      jump\t// in\n    tag_12:\n      mload(0x40)\n      dup1\n      swap2\n      sub\n      swap1\n      return\n        /* \"AuctionFactory.sol\":80:105  address[] public auctions */\n    tag_4:\n      tag_14\n      0x04\n      dup1\n      calldatasize\n      sub\n      dup2\n      add\n      swap1\n      tag_15\n      swap2\n      swap1\n      tag_16\n      jump\t// in\n    tag_15:\n      tag_17\n      jump\t// in\n    tag_14:\n      mload(0x40)\n      tag_18\n      swap2\n      swap1\n      tag_19\n      jump\t// in\n    tag_18:\n      mload(0x40)\n      dup1\n      swap2\n      sub\n      swap1\n      return\n        /* \"AuctionFactory.sol\":411:963  function getAuctionDetails(address auctionAddress) public view returns (... */\n    tag_5:\n      tag_20\n      0x04\n      dup1\n      calldatasize\n      sub\n      dup2\n      add\n      swap1\n      tag_21\n      swap2\n      swap1\n      tag_10\n      jump\t// in\n    tag_21:\n      tag_22\n      jump\t// in\n    tag_20:\n      mload(0x40)\n      tag_23\n      swap7\n      swap6\n      swap5\n      swap4\n      swap3\n      swap2\n      swap1\n      tag_24\n      jump\t// in\n    tag_23:\n      mload(0x40)\n      dup1\n      swap2\n      sub\n      swap1\n      return\n        /* \"AuctionFactory.sol\":112:305  function createAuction(uint256 _duration, string memory _name) public {... */\n    tag_6:\n      tag_25\n      0x04\n      dup1\n      calldatasize\n      sub\n      dup2\n      add\n      swap1\n      tag_26\n      swap2\n      swap1\n      tag_27\n      jump\t// in\n    tag_26:\n      tag_28\n      jump\t// in\n    tag_25:\n      stop\n        /* \"AuctionFactory.sol\":311:405  function getAuctions() public view returns (address[] memory) {... */\n    tag_7:\n      tag_29\n      tag_30\n      jump\t// in\n    tag_29:\n      mload(0x40)\n      tag_31\n      swap2\n      swap1\n      tag_32\n      jump\t// in\n    tag_31:\n      mload(0x40)\n      dup1\n      swap2\n      sub\n      swap1\n      return\n        /* \"AuctionFactory.sol\":969:1432  function getRatingsForSeller(address sellerAddress) public view returns (uint256[] memory) {... */\n    tag_11:\n        /* \"AuctionFactory.sol\":1042:1058  uint256[] memory */\n      0x60\n        /* \"AuctionFactory.sol\":1070:1094  uint256[] memory ratings */\n      dup1\n        /* \"AuctionFactory.sol\":1109:1118  uint256 i */\n      0x00\n        /* \"AuctionFactory.sol\":1104:1402  for (uint256 i = 0; i < auctions.length; i++) {... */\n    tag_34:\n        /* \"AuctionFactory.sol\":1128:1136  auctions */\n      0x00\n        /* \"AuctionFactory.sol\":1128:1143  auctions.length */\n      dup1\n      sload\n      swap1\n      pop\n        /* \"AuctionFactory.sol\":1124:1125  i */\n      dup2\n        /* \"AuctionFactory.sol\":1124:1143  i < auctions.length */\n      lt\n        /* \"AuctionFactory.sol\":1104:1402  for (uint256 i = 0; i < auctions.length; i++) {... */\n      iszero\n      tag_35\n      jumpi\n        /* \"AuctionFactory.sol\":1164:1179  Auction auction */\n      0x00\n        /* \"AuctionFactory.sol\":1190:1198  auctions */\n      dup1\n        /* \"AuctionFactory.sol\":1199:1200  i */\n      dup3\n        /* \"AuctionFactory.sol\":1190:1201  auctions[i] */\n      dup2\n      sload\n      dup2\n      lt\n      tag_37\n      jumpi\n      tag_38\n      tag_39\n      jump\t// in\n    tag_38:\n    tag_37:\n      swap1\n      0x00\n      mstore\n      keccak256(0x00, 0x20)\n      add\n      0x00\n      swap1\n      sload\n      swap1\n      0x0100\n      exp\n      swap1\n      div\n      0xffffffffffffffffffffffffffffffffffffffff\n      and\n        /* \"AuctionFactory.sol\":1164:1202  Auction auction = Auction(auctions[i]) */\n      swap1\n      pop\n        /* \"AuctionFactory.sol\":1240:1253  sellerAddress */\n      dup5\n        /* \"AuctionFactory.sol\":1220:1253  auction.seller() == sellerAddress */\n      0xffffffffffffffffffffffffffffffffffffffff\n      and\n        /* \"AuctionFactory.sol\":1220:1227  auction */\n      dup2\n        /* \"AuctionFactory.sol\":1220:1234  auction.seller */\n      0xffffffffffffffffffffffffffffffffffffffff\n      and\n      0x08551a53\n        /* \"AuctionFactory.sol\":1220:1236  auction.seller() */\n      mload(0x40)\n      dup2\n      0xffffffff\n      and\n      0xe0\n      shl\n      dup2\n      mstore\n      0x04\n      add\n      0x20\n      mload(0x40)\n      dup1\n      dup4\n      sub\n      dup2\n      dup7\n      gas\n      staticcall\n      iszero\n      dup1\n      iszero\n      tag_42\n      jumpi\n      returndatasize\n      0x00\n      dup1\n      returndatacopy\n      revert(0x00, returndatasize)\n    tag_42:\n      pop\n      pop\n      pop\n      pop\n      mload(0x40)\n      returndatasize\n      not(0x1f)\n      0x1f\n      dup3\n      add\n      and\n      dup3\n      add\n      dup1\n      0x40\n      mstore\n      pop\n      dup2\n      add\n      swap1\n      tag_43\n      swap2\n      swap1\n      tag_44\n      jump\t// in\n    tag_43:\n        /* \"AuctionFactory.sol\":1220:1253  auction.seller() == sellerAddress */\n      0xffffffffffffffffffffffffffffffffffffffff\n      and\n      eq\n        /* \"AuctionFactory.sol\":1220:1294  auction.seller() == sellerAddress && auction.state() == AuctionState.Ended */\n      dup1\n      iszero\n      tag_45\n      jumpi\n      pop\n        /* \"AuctionFactory.sol\":1276:1294  AuctionState.Ended */\n      0x01\n        /* \"AuctionFactory.sol\":1257:1294  auction.state() == AuctionState.Ended */\n      dup1\n      dup2\n      gt\n      iszero\n      tag_46\n      jumpi\n      tag_47\n      tag_48\n      jump\t// in\n    tag_47:\n    tag_46:\n        /* \"AuctionFactory.sol\":1257:1264  auction */\n      dup2\n        /* \"AuctionFactory.sol\":1257:1270  auction.state */\n      0xffffffffffffffffffffffffffffffffffffffff\n      and\n      0xc19d93fb\n        /* \"AuctionFactory.sol\":1257:1272  auction.state() */\n      mload(0x40)\n      dup2\n      0xffffffff\n      and\n      0xe0\n      shl\n      dup2\n      mstore\n      0x04\n      add\n      0x20\n      mload(0x40)\n      dup1\n      dup4\n      sub\n      dup2\n      dup7\n      gas\n      staticcall\n      iszero\n      dup1\n      iszero\n      tag_50\n      jumpi\n      returndatasize\n      0x00\n      dup1\n      returndatacopy\n      revert(0x00, returndatasize)\n    tag_50:\n      pop\n      pop\n      pop\n      pop\n      mload(0x40)\n      returndatasize\n      not(0x1f)\n      0x1f\n      dup3\n      add\n      and\n      dup3\n      add\n      dup1\n      0x40\n      mstore\n      pop\n      dup2\n      add\n      swap1\n      tag_51\n      swap2\n      swap1\n      tag_52\n      jump\t// in\n    tag_51:\n        /* \"AuctionFactory.sol\":1257:1294  auction.state() == AuctionState.Ended */\n      0x01\n      dup2\n      gt\n      iszero\n      tag_53\n      jumpi\n      tag_54\n      tag_48\n      jump\t// in\n    tag_54:\n    tag_53:\n      eq\n        /* \"AuctionFactory.sol\":1220:1294  auction.seller() == sellerAddress && auction.state() == AuctionState.Ended */\n    tag_45:\n        /* \"AuctionFactory.sol\":1220:1319  auction.seller() == sellerAddress && auction.state() == AuctionState.Ended && auction.sellerRated() */\n      dup1\n      iszero\n      tag_55\n      jumpi\n      pop\n        /* \"AuctionFactory.sol\":1298:1305  auction */\n      dup1\n        /* \"AuctionFactory.sol\":1298:1317  auction.sellerRated */\n      0xffffffffffffffffffffffffffffffffffffffff\n      and\n      0xbda21db0\n        /* \"AuctionFactory.sol\":1298:1319  auction.sellerRated() */\n      mload(0x40)\n      dup2\n      0xffffffff\n      and\n      0xe0\n      shl\n      dup2\n      mstore\n      0x04\n      add\n      0x20\n      mload(0x40)\n      dup1\n      dup4\n      sub\n      dup2\n      dup7\n      gas\n      staticcall\n      iszero\n      dup1\n      iszero\n      tag_57\n      jumpi\n      returndatasize\n      0x00\n      dup1\n      returndatacopy\n      revert(0x00, returndatasize)\n    tag_57:\n      pop\n      pop\n      pop\n      pop\n      mload(0x40)\n      returndatasize\n      not(0x1f)\n      0x1f\n      dup3\n      add\n      and\n      dup3\n      add\n      dup1\n      0x40\n      mstore\n      pop\n      dup2\n      add\n      swap1\n      tag_58\n      swap2\n      swap1\n      tag_59\n      jump\t// in\n    tag_58:\n        /* \"AuctionFactory.sol\":1220:1319  auction.seller() == sellerAddress && auction.state() == AuctionState.Ended && auction.sellerRated() */\n    tag_55:\n        /* \"AuctionFactory.sol\":1216:1392  if (auction.seller() == sellerAddress && auction.state() == AuctionState.Ended && auction.sellerRated()) {... */\n      iszero\n      tag_60\n      jumpi\n        /* \"AuctionFactory.sol\":1352:1359  auction */\n      dup1\n        /* \"AuctionFactory.sol\":1352:1375  auction.getSellerRating */\n      0xffffffffffffffffffffffffffffffffffffffff\n      and\n      0x55bedee6\n        /* \"AuctionFactory.sol\":1352:1377  auction.getSellerRating() */\n      mload(0x40)\n      dup2\n      0xffffffff\n      and\n      0xe0\n      shl\n      dup2\n      mstore\n      0x04\n      add\n      0x20\n      mload(0x40)\n      dup1\n      dup4\n      sub\n      dup2\n      dup7\n      gas\n      staticcall\n      iszero\n      dup1\n      iszero\n      tag_62\n      jumpi\n      returndatasize\n      0x00\n      dup1\n      returndatacopy\n      revert(0x00, returndatasize)\n    tag_62:\n      pop\n      pop\n      pop\n      pop\n      mload(0x40)\n      returndatasize\n      not(0x1f)\n      0x1f\n      dup3\n      add\n      and\n      dup3\n      add\n      dup1\n      0x40\n      mstore\n      pop\n      dup2\n      add\n      swap1\n      tag_63\n      swap2\n      swap1\n      tag_64\n      jump\t// in\n    tag_63:\n        /* \"AuctionFactory.sol\":1339:1346  ratings */\n      dup4\n        /* \"AuctionFactory.sol\":1347:1348  i */\n      dup4\n        /* \"AuctionFactory.sol\":1339:1349  ratings[i] */\n      dup2\n      mload\n      dup2\n      lt\n      tag_65\n      jumpi\n      tag_66\n      tag_39\n      jump\t// in\n    tag_66:\n    tag_65:\n      0x20\n      mul\n      0x20\n      add\n      add\n        /* \"AuctionFactory.sol\":1339:1377  ratings[i] = auction.getSellerRating() */\n      dup2\n      dup2\n      mstore\n      pop\n      pop\n        /* \"AuctionFactory.sol\":1216:1392  if (auction.seller() == sellerAddress && auction.state() == AuctionState.Ended && auction.sellerRated()) {... */\n    tag_60:\n        /* \"AuctionFactory.sol\":1150:1402  {... */\n      pop\n        /* \"AuctionFactory.sol\":1145:1148  i++ */\n      dup1\n      dup1\n      tag_67\n      swap1\n      tag_68\n      jump\t// in\n    tag_67:\n      swap2\n      pop\n      pop\n        /* \"AuctionFactory.sol\":1104:1402  for (uint256 i = 0; i < auctions.length; i++) {... */\n      jump(tag_34)\n    tag_35:\n      pop\n        /* \"AuctionFactory.sol\":1418:1425  ratings */\n      dup1\n        /* \"AuctionFactory.sol\":1411:1425  return ratings */\n      swap2\n      pop\n      pop\n        /* \"AuctionFactory.sol\":969:1432  function getRatingsForSeller(address sellerAddress) public view returns (uint256[] memory) {... */\n      swap2\n      swap1\n      pop\n      jump\t// out\n        /* \"AuctionFactory.sol\":80:105  address[] public auctions */\n    tag_17:\n      0x00\n      dup2\n      dup2\n      sload\n      dup2\n      lt\n      tag_69\n      jumpi\n      0x00\n      dup1\n      revert\n    tag_69:\n      swap1\n      0x00\n      mstore\n      keccak256(0x00, 0x20)\n      add\n      0x00\n      swap2\n      pop\n      sload\n      swap1\n      0x0100\n      exp\n      swap1\n      div\n      0xffffffffffffffffffffffffffffffffffffffff\n      and\n      dup2\n      jump\t// out\n        /* \"AuctionFactory.sol\":411:963  function getAuctionDetails(address auctionAddress) public view returns (... */\n    tag_22:\n        /* \"AuctionFactory.sol\":492:514  address payable seller */\n      0x00\n        /* \"AuctionFactory.sol\":524:546  uint256 auctionEndTime */\n      dup1\n        /* \"AuctionFactory.sol\":556:577  address highestBidder */\n      0x00\n        /* \"AuctionFactory.sol\":587:605  uint256 highestBid */\n      dup1\n        /* \"AuctionFactory.sol\":615:640  string memory auctionName */\n      0x60\n        /* \"AuctionFactory.sol\":650:668  AuctionState state */\n      0x00\n        /* \"AuctionFactory.sol\":685:700  Auction auction */\n      dup1\n        /* \"AuctionFactory.sol\":711:725  auctionAddress */\n      dup8\n        /* \"AuctionFactory.sol\":685:726  Auction auction = Auction(auctionAddress) */\n      swap1\n      pop\n        /* \"AuctionFactory.sol\":757:764  auction */\n      dup1\n        /* \"AuctionFactory.sol\":757:771  auction.seller */\n      0xffffffffffffffffffffffffffffffffffffffff\n      and\n      0x08551a53\n        /* \"AuctionFactory.sol\":757:773  auction.seller() */\n      mload(0x40)\n      dup2\n      0xffffffff\n      and\n      0xe0\n      shl\n      dup2\n      mstore\n      0x04\n      add\n      0x20\n      mload(0x40)\n      dup1\n      dup4\n      sub\n      dup2\n      dup7\n      gas\n      staticcall\n      iszero\n      dup1\n      iszero\n      tag_73\n      jumpi\n      returndatasize\n      0x00\n      dup1\n      returndatacopy\n      revert(0x00, returndatasize)\n    tag_73:\n      pop\n      pop\n      pop\n      pop\n      mload(0x40)\n      returndatasize\n      not(0x1f)\n      0x1f\n      dup3\n      add\n      and\n      dup3\n      add\n      dup1\n      0x40\n      mstore\n      pop\n      dup2\n      add\n      swap1\n      tag_74\n      swap2\n      swap1\n      tag_44\n      jump\t// in\n    tag_74:\n        /* \"AuctionFactory.sol\":787:794  auction */\n      dup2\n        /* \"AuctionFactory.sol\":787:809  auction.auctionEndTime */\n      0xffffffffffffffffffffffffffffffffffffffff\n      and\n      0x4b449cba\n        /* \"AuctionFactory.sol\":787:811  auction.auctionEndTime() */\n      mload(0x40)\n      dup2\n      0xffffffff\n      and\n      0xe0\n      shl\n      dup2\n      mstore\n      0x04\n      add\n      0x20\n      mload(0x40)\n      dup1\n      dup4\n      sub\n      dup2\n      dup7\n      gas\n      staticcall\n      iszero\n      dup1\n      iszero\n      tag_76\n      jumpi\n      returndatasize\n      0x00\n      dup1\n      returndatacopy\n      revert(0x00, returndatasize)\n    tag_76:\n      pop\n      pop\n      pop\n      pop\n      mload(0x40)\n      returndatasize\n      not(0x1f)\n      0x1f\n      dup3\n      add\n      and\n      dup3\n      add\n      dup1\n      0x40\n      mstore\n      pop\n      dup2\n      add\n      swap1\n      tag_77\n      swap2\n      swap1\n      tag_64\n      jump\t// in\n    tag_77:\n        /* \"AuctionFactory.sol\":825:832  auction */\n      dup3\n        /* \"AuctionFactory.sol\":825:846  auction.highestBidder */\n      0xffffffffffffffffffffffffffffffffffffffff\n      and\n      0x91f90157\n        /* \"AuctionFactory.sol\":825:848  auction.highestBidder() */\n      mload(0x40)\n      dup2\n      0xffffffff\n      and\n      0xe0\n      shl\n      dup2\n      mstore\n      0x04\n      add\n      0x20\n      mload(0x40)\n      dup1\n      dup4\n      sub\n      dup2\n      dup7\n      gas\n      staticcall\n      iszero\n      dup1\n      iszero\n      tag_79\n      jumpi\n      returndatasize\n      0x00\n      dup1\n      returndatacopy\n      revert(0x00, returndatasize)\n    tag_79:\n      pop\n      pop\n      pop\n      pop\n      mload(0x40)\n      returndatasize\n      not(0x1f)\n      0x1f\n      dup3\n      add\n      and\n      dup3\n      add\n      dup1\n      0x40\n      mstore\n      pop\n      dup2\n      add\n      swap1\n      tag_80\n      swap2\n      swap1\n      tag_81\n      jump\t// in\n    tag_80:\n        /* \"AuctionFactory.sol\":862:869  auction */\n      dup4\n        /* \"AuctionFactory.sol\":862:880  auction.highestBid */\n      0xffffffffffffffffffffffffffffffffffffffff\n      and\n      0xd57bde79\n        /* \"AuctionFactory.sol\":862:882  auction.highestBid() */\n      mload(0x40)\n      dup2\n      0xffffffff\n      and\n      0xe0\n      shl\n      dup2\n      mstore\n      0x04\n      add\n      0x20\n      mload(0x40)\n      dup1\n      dup4\n      sub\n      dup2\n      dup7\n      gas\n      staticcall\n      iszero\n      dup1\n      iszero\n      tag_83\n      jumpi\n      returndatasize\n      0x00\n      dup1\n      returndatacopy\n      revert(0x00, returndatasize)\n    tag_83:\n      pop\n      pop\n      pop\n      pop\n      mload(0x40)\n      returndatasize\n      not(0x1f)\n      0x1f\n      dup3\n      add\n      and\n      dup3\n      add\n      dup1\n      0x40\n      mstore\n      pop\n      dup2\n      add\n      swap1\n      tag_84\n      swap2\n      swap1\n      tag_64\n      jump\t// in\n    tag_84:\n        /* \"AuctionFactory.sol\":896:903  auction */\n      dup5\n        /* \"AuctionFactory.sol\":896:915  auction.auctionName */\n      0xffffffffffffffffffffffffffffffffffffffff\n      and\n      0xc63d99db\n        /* \"AuctionFactory.sol\":896:917  auction.auctionName() */\n      mload(0x40)\n      dup2\n      0xffffffff\n      and\n      0xe0\n      shl\n      dup2\n      mstore\n      0x04\n      add\n      0x00\n      mload(0x40)\n      dup1\n      dup4\n      sub\n      dup2\n      dup7\n      gas\n      staticcall\n      iszero\n      dup1\n      iszero\n      tag_86\n      jumpi\n      returndatasize\n      0x00\n      dup1\n      returndatacopy\n      revert(0x00, returndatasize)\n    tag_86:\n      pop\n      pop\n      pop\n      pop\n      mload(0x40)\n      returndatasize\n      0x00\n      dup3\n      returndatacopy\n      returndatasize\n      not(0x1f)\n      0x1f\n      dup3\n      add\n      and\n      dup3\n      add\n      dup1\n      0x40\n      mstore\n      pop\n      dup2\n      add\n      swap1\n      tag_87\n      swap2\n      swap1\n      tag_88\n      jump\t// in\n    tag_87:\n        /* \"AuctionFactory.sol\":931:938  auction */\n      dup6\n        /* \"AuctionFactory.sol\":931:944  auction.state */\n      0xffffffffffffffffffffffffffffffffffffffff\n      and\n      0xc19d93fb\n        /* \"AuctionFactory.sol\":931:946  auction.state() */\n      mload(0x40)\n      dup2\n      0xffffffff\n      and\n      0xe0\n      shl\n      dup2\n      mstore\n      0x04\n      add\n      0x20\n      mload(0x40)\n      dup1\n      dup4\n      sub\n      dup2\n      dup7\n      gas\n      staticcall\n      iszero\n      dup1\n      iszero\n      tag_90\n      jumpi\n      returndatasize\n      0x00\n      dup1\n      returndatacopy\n      revert(0x00, returndatasize)\n    tag_90:\n      pop\n      pop\n      pop\n      pop\n      mload(0x40)\n      returndatasize\n      not(0x1f)\n      0x1f\n      dup3\n      add\n      and\n      dup3\n      add\n      dup1\n      0x40\n      mstore\n      pop\n      dup2\n      add\n      swap1\n      tag_91\n      swap2\n      swap1\n      tag_52\n      jump\t// in\n    tag_91:\n        /* \"AuctionFactory.sol\":736:956  return (... */\n      swap7\n      pop\n      swap7\n      pop\n      swap7\n      pop\n      swap7\n      pop\n      swap7\n      pop\n      swap7\n      pop\n      pop\n        /* \"AuctionFactory.sol\":411:963  function getAuctionDetails(address auctionAddress) public view returns (... */\n      swap2\n      swap4\n      swap6\n      pop\n      swap2\n      swap4\n      swap6\n      jump\t// out\n        /* \"AuctionFactory.sol\":112:305  function createAuction(uint256 _duration, string memory _name) public {... */\n    tag_28:\n        /* \"AuctionFactory.sol\":192:210  address newAuction */\n      0x00\n        /* \"AuctionFactory.sol\":233:243  msg.sender */\n      caller\n        /* \"AuctionFactory.sol\":245:254  _duration */\n      dup4\n        /* \"AuctionFactory.sol\":256:261  _name */\n      dup4\n        /* \"AuctionFactory.sol\":221:262  new Auction(msg.sender, _duration, _name) */\n      mload(0x40)\n      tag_93\n      swap1\n      tag_94\n      jump\t// in\n    tag_93:\n      tag_95\n      swap4\n      swap3\n      swap2\n      swap1\n      tag_96\n      jump\t// in\n    tag_95:\n      mload(0x40)\n      dup1\n      swap2\n      sub\n      swap1\n      0x00\n      create\n      dup1\n      iszero\n      dup1\n      iszero\n      tag_97\n      jumpi\n      returndatasize\n      0x00\n      dup1\n      returndatacopy\n      revert(0x00, returndatasize)\n    tag_97:\n      pop\n        /* \"AuctionFactory.sol\":192:263  address newAuction = address(new Auction(msg.sender, _duration, _name)) */\n      swap1\n      pop\n        /* \"AuctionFactory.sol\":273:281  auctions */\n      0x00\n        /* \"AuctionFactory.sol\":287:297  newAuction */\n      dup2\n        /* \"AuctionFactory.sol\":273:298  auctions.push(newAuction) */\n      swap1\n      dup1\n      0x01\n      dup2\n      sload\n      add\n      dup1\n      dup3\n      sstore\n      dup1\n      swap2\n      pop\n      pop\n      0x01\n      swap1\n      sub\n      swap1\n      0x00\n      mstore\n      keccak256(0x00, 0x20)\n      add\n      0x00\n      swap1\n      swap2\n      swap1\n      swap2\n      swap1\n      swap2\n      0x0100\n      exp\n      dup2\n      sload\n      dup2\n      0xffffffffffffffffffffffffffffffffffffffff\n      mul\n      not\n      and\n      swap1\n      dup4\n      0xffffffffffffffffffffffffffffffffffffffff\n      and\n      mul\n      or\n      swap1\n      sstore\n      pop\n        /* \"AuctionFactory.sol\":182:305  {... */\n      pop\n        /* \"AuctionFactory.sol\":112:305  function createAuction(uint256 _duration, string memory _name) public {... */\n      pop\n      pop\n      jump\t// out\n        /* \"AuctionFactory.sol\":311:405  function getAuctions() public view returns (address[] memory) {... */\n    tag_30:\n        /* \"AuctionFactory.sol\":355:371  address[] memory */\n      0x60\n        /* \"AuctionFactory.sol\":390:398  auctions */\n      0x00\n        /* \"AuctionFactory.sol\":383:398  return auctions */\n      dup1\n      sload\n      dup1\n      0x20\n      mul\n      0x20\n      add\n      mload(0x40)\n      swap1\n      dup2\n      add\n      0x40\n      mstore\n      dup1\n      swap3\n      swap2\n      swap1\n      dup2\n      dup2\n      mstore\n      0x20\n      add\n      dup3\n      dup1\n      sload\n      dup1\n      iszero\n      tag_100\n      jumpi\n      0x20\n      mul\n      dup3\n      add\n      swap2\n      swap1\n      0x00\n      mstore\n      keccak256(0x00, 0x20)\n      swap1\n    tag_101:\n      dup2\n      0x00\n      swap1\n      sload\n      swap1\n      0x0100\n      exp\n      swap1\n      div\n      0xffffffffffffffffffffffffffffffffffffffff\n      and\n      0xffffffffffffffffffffffffffffffffffffffff\n      and\n      dup2\n      mstore\n      0x20\n      add\n      swap1\n      0x01\n      add\n      swap1\n      dup1\n      dup4\n      gt\n      tag_101\n      jumpi\n    tag_100:\n      pop\n      pop\n      pop\n      pop\n      pop\n      swap1\n      pop\n        /* \"AuctionFactory.sol\":311:405  function getAuctions() public view returns (address[] memory) {... */\n      swap1\n      jump\t// out\n    tag_94:\n      dataSize(sub_0)\n      dup1\n      dataOffset(sub_0)\n      dup4\n      codecopy\n      add\n      swap1\n      jump\t// out\n        /* \"#utility.yul\":7:82   */\n    tag_102:\n        /* \"#utility.yul\":40:46   */\n      0x00\n        /* \"#utility.yul\":73:75   */\n      0x40\n        /* \"#utility.yul\":67:76   */\n      mload\n        /* \"#utility.yul\":57:76   */\n      swap1\n      pop\n        /* \"#utility.yul\":7:82   */\n      swap1\n      jump\t// out\n        /* \"#utility.yul\":88:205   */\n    tag_103:\n        /* \"#utility.yul\":197:198   */\n      0x00\n        /* \"#utility.yul\":194:195   */\n      dup1\n        /* \"#utility.yul\":187:199   */\n      revert\n        /* \"#utility.yul\":211:328   */\n    tag_104:\n        /* \"#utility.yul\":320:321   */\n      0x00\n        /* \"#utility.yul\":317:318   */\n      dup1\n        /* \"#utility.yul\":310:322   */\n      revert\n        /* \"#utility.yul\":334:460   */\n    tag_105:\n        /* \"#utility.yul\":371:378   */\n      0x00\n        /* \"#utility.yul\":411:453   */\n      0xffffffffffffffffffffffffffffffffffffffff\n        /* \"#utility.yul\":404:409   */\n      dup3\n        /* \"#utility.yul\":400:454   */\n      and\n        /* \"#utility.yul\":389:454   */\n      swap1\n      pop\n        /* \"#utility.yul\":334:460   */\n      swap2\n      swap1\n      pop\n      jump\t// out\n        /* \"#utility.yul\":466:562   */\n    tag_106:\n        /* \"#utility.yul\":503:510   */\n      0x00\n        /* \"#utility.yul\":532:556   */\n      tag_166\n        /* \"#utility.yul\":550:555   */\n      dup3\n        /* \"#utility.yul\":532:556   */\n      tag_105\n      jump\t// in\n    tag_166:\n        /* \"#utility.yul\":521:556   */\n      swap1\n      pop\n        /* \"#utility.yul\":466:562   */\n      swap2\n      swap1\n      pop\n      jump\t// out\n        /* \"#utility.yul\":568:690   */\n    tag_107:\n        /* \"#utility.yul\":641:665   */\n      tag_168\n        /* \"#utility.yul\":659:664   */\n      dup2\n        /* \"#utility.yul\":641:665   */\n      tag_106\n      jump\t// in\n    tag_168:\n        /* \"#utility.yul\":634:639   */\n      dup2\n        /* \"#utility.yul\":631:666   */\n      eq\n        /* \"#utility.yul\":621:684   */\n      tag_169\n      jumpi\n        /* \"#utility.yul\":680:681   */\n      0x00\n        /* \"#utility.yul\":677:678   */\n      dup1\n        /* \"#utility.yul\":670:682   */\n      revert\n        /* \"#utility.yul\":621:684   */\n    tag_169:\n        /* \"#utility.yul\":568:690   */\n      pop\n      jump\t// out\n        /* \"#utility.yul\":696:835   */\n    tag_108:\n        /* \"#utility.yul\":742:747   */\n      0x00\n        /* \"#utility.yul\":780:786   */\n      dup2\n        /* \"#utility.yul\":767:787   */\n      calldataload\n        /* \"#utility.yul\":758:787   */\n      swap1\n      pop\n        /* \"#utility.yul\":796:829   */\n      tag_171\n        /* \"#utility.yul\":823:828   */\n      dup2\n        /* \"#utility.yul\":796:829   */\n      tag_107\n      jump\t// in\n    tag_171:\n        /* \"#utility.yul\":696:835   */\n      swap3\n      swap2\n      pop\n      pop\n      jump\t// out\n        /* \"#utility.yul\":841:1170   */\n    tag_10:\n        /* \"#utility.yul\":900:906   */\n      0x00\n        /* \"#utility.yul\":949:951   */\n      0x20\n        /* \"#utility.yul\":937:946   */\n      dup3\n        /* \"#utility.yul\":928:935   */\n      dup5\n        /* \"#utility.yul\":924:947   */\n      sub\n        /* \"#utility.yul\":920:952   */\n      slt\n        /* \"#utility.yul\":917:1036   */\n      iszero\n      tag_173\n      jumpi\n        /* \"#utility.yul\":955:1034   */\n      tag_174\n      tag_103\n      jump\t// in\n    tag_174:\n        /* \"#utility.yul\":917:1036   */\n    tag_173:\n        /* \"#utility.yul\":1075:1076   */\n      0x00\n        /* \"#utility.yul\":1100:1153   */\n      tag_175\n        /* \"#utility.yul\":1145:1152   */\n      dup5\n        /* \"#utility.yul\":1136:1142   */\n      dup3\n        /* \"#utility.yul\":1125:1134   */\n      dup6\n        /* \"#utility.yul\":1121:1143   */\n      add\n        /* \"#utility.yul\":1100:1153   */\n      tag_108\n      jump\t// in\n    tag_175:\n        /* \"#utility.yul\":1090:1153   */\n      swap2\n      pop\n        /* \"#utility.yul\":1046:1163   */\n      pop\n        /* \"#utility.yul\":841:1170   */\n      swap3\n      swap2\n      pop\n      pop\n      jump\t// out\n        /* \"#utility.yul\":1176:1290   */\n    tag_109:\n        /* \"#utility.yul\":1243:1249   */\n      0x00\n        /* \"#utility.yul\":1277:1282   */\n      dup2\n        /* \"#utility.yul\":1271:1283   */\n      mload\n        /* \"#utility.yul\":1261:1283   */\n      swap1\n      pop\n        /* \"#utility.yul\":1176:1290   */\n      swap2\n      swap1\n      pop\n      jump\t// out\n        /* \"#utility.yul\":1296:1480   */\n    tag_110:\n        /* \"#utility.yul\":1395:1406   */\n      0x00\n        /* \"#utility.yul\":1429:1435   */\n      dup3\n        /* \"#utility.yul\":1424:1427   */\n      dup3\n        /* \"#utility.yul\":1417:1436   */\n      mstore\n        /* \"#utility.yul\":1469:1473   */\n      0x20\n        /* \"#utility.yul\":1464:1467   */\n      dup3\n        /* \"#utility.yul\":1460:1474   */\n      add\n        /* \"#utility.yul\":1445:1474   */\n      swap1\n      pop\n        /* \"#utility.yul\":1296:1480   */\n      swap3\n      swap2\n      pop\n      pop\n      jump\t// out\n        /* \"#utility.yul\":1486:1618   */\n    tag_111:\n        /* \"#utility.yul\":1553:1557   */\n      0x00\n        /* \"#utility.yul\":1576:1579   */\n      dup2\n        /* \"#utility.yul\":1568:1579   */\n      swap1\n      pop\n        /* \"#utility.yul\":1606:1610   */\n      0x20\n        /* \"#utility.yul\":1601:1604   */\n      dup3\n        /* \"#utility.yul\":1597:1611   */\n      add\n        /* \"#utility.yul\":1589:1611   */\n      swap1\n      pop\n        /* \"#utility.yul\":1486:1618   */\n      swap2\n      swap1\n      pop\n      jump\t// out\n        /* \"#utility.yul\":1624:1701   */\n    tag_112:\n        /* \"#utility.yul\":1661:1668   */\n      0x00\n        /* \"#utility.yul\":1690:1695   */\n      dup2\n        /* \"#utility.yul\":1679:1695   */\n      swap1\n      pop\n        /* \"#utility.yul\":1624:1701   */\n      swap2\n      swap1\n      pop\n      jump\t// out\n        /* \"#utility.yul\":1707:1815   */\n    tag_113:\n        /* \"#utility.yul\":1784:1808   */\n      tag_181\n        /* \"#utility.yul\":1802:1807   */\n      dup2\n        /* \"#utility.yul\":1784:1808   */\n      tag_112\n      jump\t// in\n    tag_181:\n        /* \"#utility.yul\":1779:1782   */\n      dup3\n        /* \"#utility.yul\":1772:1809   */\n      mstore\n        /* \"#utility.yul\":1707:1815   */\n      pop\n      pop\n      jump\t// out\n        /* \"#utility.yul\":1821:2000   */\n    tag_114:\n        /* \"#utility.yul\":1890:1900   */\n      0x00\n        /* \"#utility.yul\":1911:1957   */\n      tag_183\n        /* \"#utility.yul\":1953:1956   */\n      dup4\n        /* \"#utility.yul\":1945:1951   */\n      dup4\n        /* \"#utility.yul\":1911:1957   */\n      tag_113\n      jump\t// in\n    tag_183:\n        /* \"#utility.yul\":1989:1993   */\n      0x20\n        /* \"#utility.yul\":1984:1987   */\n      dup4\n        /* \"#utility.yul\":1980:1994   */\n      add\n        /* \"#utility.yul\":1966:1994   */\n      swap1\n      pop\n        /* \"#utility.yul\":1821:2000   */\n      swap3\n      swap2\n      pop\n      pop\n      jump\t// out\n        /* \"#utility.yul\":2006:2119   */\n    tag_115:\n        /* \"#utility.yul\":2076:2080   */\n      0x00\n        /* \"#utility.yul\":2108:2112   */\n      0x20\n        /* \"#utility.yul\":2103:2106   */\n      dup3\n        /* \"#utility.yul\":2099:2113   */\n      add\n        /* \"#utility.yul\":2091:2113   */\n      swap1\n      pop\n        /* \"#utility.yul\":2006:2119   */\n      swap2\n      swap1\n      pop\n      jump\t// out\n        /* \"#utility.yul\":2155:2887   */\n    tag_116:\n        /* \"#utility.yul\":2274:2277   */\n      0x00\n        /* \"#utility.yul\":2303:2357   */\n      tag_186\n        /* \"#utility.yul\":2351:2356   */\n      dup3\n        /* \"#utility.yul\":2303:2357   */\n      tag_109\n      jump\t// in\n    tag_186:\n        /* \"#utility.yul\":2373:2459   */\n      tag_187\n        /* \"#utility.yul\":2452:2458   */\n      dup2\n        /* \"#utility.yul\":2447:2450   */\n      dup6\n        /* \"#utility.yul\":2373:2459   */\n      tag_110\n      jump\t// in\n    tag_187:\n        /* \"#utility.yul\":2366:2459   */\n      swap4\n      pop\n        /* \"#utility.yul\":2483:2539   */\n      tag_188\n        /* \"#utility.yul\":2533:2538   */\n      dup4\n        /* \"#utility.yul\":2483:2539   */\n      tag_111\n      jump\t// in\n    tag_188:\n        /* \"#utility.yul\":2562:2569   */\n      dup1\n        /* \"#utility.yul\":2593:2594   */\n      0x00\n        /* \"#utility.yul\":2578:2862   */\n    tag_189:\n        /* \"#utility.yul\":2603:2609   */\n      dup4\n        /* \"#utility.yul\":2600:2601   */\n      dup2\n        /* \"#utility.yul\":2597:2610   */\n      lt\n        /* \"#utility.yul\":2578:2862   */\n      iszero\n      tag_191\n      jumpi\n        /* \"#utility.yul\":2679:2685   */\n      dup2\n        /* \"#utility.yul\":2673:2686   */\n      mload\n        /* \"#utility.yul\":2706:2769   */\n      tag_192\n        /* \"#utility.yul\":2765:2768   */\n      dup9\n        /* \"#utility.yul\":2750:2763   */\n      dup3\n        /* \"#utility.yul\":2706:2769   */\n      tag_114\n      jump\t// in\n    tag_192:\n        /* \"#utility.yul\":2699:2769   */\n      swap8\n      pop\n        /* \"#utility.yul\":2792:2852   */\n      tag_193\n        /* \"#utility.yul\":2845:2851   */\n      dup4\n        /* \"#utility.yul\":2792:2852   */\n      tag_115\n      jump\t// in\n    tag_193:\n        /* \"#utility.yul\":2782:2852   */\n      swap3\n      pop\n        /* \"#utility.yul\":2638:2862   */\n      pop\n        /* \"#utility.yul\":2625:2626   */\n      0x01\n        /* \"#utility.yul\":2622:2623   */\n      dup2\n        /* \"#utility.yul\":2618:2627   */\n      add\n        /* \"#utility.yul\":2613:2627   */\n      swap1\n      pop\n        /* \"#utility.yul\":2578:2862   */\n      jump(tag_189)\n    tag_191:\n        /* \"#utility.yul\":2582:2596   */\n      pop\n        /* \"#utility.yul\":2878:2881   */\n      dup6\n        /* \"#utility.yul\":2871:2881   */\n      swap4\n      pop\n        /* \"#utility.yul\":2279:2887   */\n      pop\n      pop\n      pop\n        /* \"#utility.yul\":2155:2887   */\n      swap3\n      swap2\n      pop\n      pop\n      jump\t// out\n        /* \"#utility.yul\":2893:3266   */\n    tag_13:\n        /* \"#utility.yul\":3036:3040   */\n      0x00\n        /* \"#utility.yul\":3074:3076   */\n      0x20\n        /* \"#utility.yul\":3063:3072   */\n      dup3\n        /* \"#utility.yul\":3059:3077   */\n      add\n        /* \"#utility.yul\":3051:3077   */\n      swap1\n      pop\n        /* \"#utility.yul\":3123:3132   */\n      dup2\n        /* \"#utility.yul\":3117:3121   */\n      dup2\n        /* \"#utility.yul\":3113:3133   */\n      sub\n        /* \"#utility.yul\":3109:3110   */\n      0x00\n        /* \"#utility.yul\":3098:3107   */\n      dup4\n        /* \"#utility.yul\":3094:3111   */\n      add\n        /* \"#utility.yul\":3087:3134   */\n      mstore\n        /* \"#utility.yul\":3151:3259   */\n      tag_195\n        /* \"#utility.yul\":3254:3258   */\n      dup2\n        /* \"#utility.yul\":3245:3251   */\n      dup5\n        /* \"#utility.yul\":3151:3259   */\n      tag_116\n      jump\t// in\n    tag_195:\n        /* \"#utility.yul\":3143:3259   */\n      swap1\n      pop\n        /* \"#utility.yul\":2893:3266   */\n      swap3\n      swap2\n      pop\n      pop\n      jump\t// out\n        /* \"#utility.yul\":3272:3394   */\n    tag_117:\n        /* \"#utility.yul\":3345:3369   */\n      tag_197\n        /* \"#utility.yul\":3363:3368   */\n      dup2\n        /* \"#utility.yul\":3345:3369   */\n      tag_112\n      jump\t// in\n    tag_197:\n        /* \"#utility.yul\":3338:3343   */\n      dup2\n        /* \"#utility.yul\":3335:3370   */\n      eq\n        /* \"#utility.yul\":3325:3388   */\n      tag_198\n      jumpi\n        /* \"#utility.yul\":3384:3385   */\n      0x00\n        /* \"#utility.yul\":3381:3382   */\n      dup1\n        /* \"#utility.yul\":3374:3386   */\n      revert\n        /* \"#utility.yul\":3325:3388   */\n    tag_198:\n        /* \"#utility.yul\":3272:3394   */\n      pop\n      jump\t// out\n        /* \"#utility.yul\":3400:3539   */\n    tag_118:\n        /* \"#utility.yul\":3446:3451   */\n      0x00\n        /* \"#utility.yul\":3484:3490   */\n      dup2\n        /* \"#utility.yul\":3471:3491   */\n      calldataload\n        /* \"#utility.yul\":3462:3491   */\n      swap1\n      pop\n        /* \"#utility.yul\":3500:3533   */\n      tag_200\n        /* \"#utility.yul\":3527:3532   */\n      dup2\n        /* \"#utility.yul\":3500:3533   */\n      tag_117\n      jump\t// in\n    tag_200:\n        /* \"#utility.yul\":3400:3539   */\n      swap3\n      swap2\n      pop\n      pop\n      jump\t// out\n        /* \"#utility.yul\":3545:3874   */\n    tag_16:\n        /* \"#utility.yul\":3604:3610   */\n      0x00\n        /* \"#utility.yul\":3653:3655   */\n      0x20\n        /* \"#utility.yul\":3641:3650   */\n      dup3\n        /* \"#utility.yul\":3632:3639   */\n      dup5\n        /* \"#utility.yul\":3628:3651   */\n      sub\n        /* \"#utility.yul\":3624:3656   */\n      slt\n        /* \"#utility.yul\":3621:3740   */\n      iszero\n      tag_202\n      jumpi\n        /* \"#utility.yul\":3659:3738   */\n      tag_203\n      tag_103\n      jump\t// in\n    tag_203:\n        /* \"#utility.yul\":3621:3740   */\n    tag_202:\n        /* \"#utility.yul\":3779:3780   */\n      0x00\n        /* \"#utility.yul\":3804:3857   */\n      tag_204\n        /* \"#utility.yul\":3849:3856   */\n      dup5\n        /* \"#utility.yul\":3840:3846   */\n      dup3\n        /* \"#utility.yul\":3829:3838   */\n      dup6\n        /* \"#utility.yul\":3825:3847   */\n      add\n        /* \"#utility.yul\":3804:3857   */\n      tag_118\n      jump\t// in\n    tag_204:\n        /* \"#utility.yul\":3794:3857   */\n      swap2\n      pop\n        /* \"#utility.yul\":3750:3867   */\n      pop\n        /* \"#utility.yul\":3545:3874   */\n      swap3\n      swap2\n      pop\n      pop\n      jump\t// out\n        /* \"#utility.yul\":3880:3998   */\n    tag_119:\n        /* \"#utility.yul\":3967:3991   */\n      tag_206\n        /* \"#utility.yul\":3985:3990   */\n      dup2\n        /* \"#utility.yul\":3967:3991   */\n      tag_106\n      jump\t// in\n    tag_206:\n        /* \"#utility.yul\":3962:3965   */\n      dup3\n        /* \"#utility.yul\":3955:3992   */\n      mstore\n        /* \"#utility.yul\":3880:3998   */\n      pop\n      pop\n      jump\t// out\n        /* \"#utility.yul\":4004:4226   */\n    tag_19:\n        /* \"#utility.yul\":4097:4101   */\n      0x00\n        /* \"#utility.yul\":4135:4137   */\n      0x20\n        /* \"#utility.yul\":4124:4133   */\n      dup3\n        /* \"#utility.yul\":4120:4138   */\n      add\n        /* \"#utility.yul\":4112:4138   */\n      swap1\n      pop\n        /* \"#utility.yul\":4148:4219   */\n      tag_208\n        /* \"#utility.yul\":4216:4217   */\n      0x00\n        /* \"#utility.yul\":4205:4214   */\n      dup4\n        /* \"#utility.yul\":4201:4218   */\n      add\n        /* \"#utility.yul\":4192:4198   */\n      dup5\n        /* \"#utility.yul\":4148:4219   */\n      tag_119\n      jump\t// in\n    tag_208:\n        /* \"#utility.yul\":4004:4226   */\n      swap3\n      swap2\n      pop\n      pop\n      jump\t// out\n        /* \"#utility.yul\":4232:4336   */\n    tag_120:\n        /* \"#utility.yul\":4277:4284   */\n      0x00\n        /* \"#utility.yul\":4306:4330   */\n      tag_210\n        /* \"#utility.yul\":4324:4329   */\n      dup3\n        /* \"#utility.yul\":4306:4330   */\n      tag_105\n      jump\t// in\n    tag_210:\n        /* \"#utility.yul\":4295:4330   */\n      swap1\n      pop\n        /* \"#utility.yul\":4232:4336   */\n      swap2\n      swap1\n      pop\n      jump\t// out\n        /* \"#utility.yul\":4342:4484   */\n    tag_121:\n        /* \"#utility.yul\":4445:4477   */\n      tag_212\n        /* \"#utility.yul\":4471:4476   */\n      dup2\n        /* \"#utility.yul\":4445:4477   */\n      tag_120\n      jump\t// in\n    tag_212:\n        /* \"#utility.yul\":4440:4443   */\n      dup3\n        /* \"#utility.yul\":4433:4478   */\n      mstore\n        /* \"#utility.yul\":4342:4484   */\n      pop\n      pop\n      jump\t// out\n        /* \"#utility.yul\":4490:4608   */\n    tag_122:\n        /* \"#utility.yul\":4577:4601   */\n      tag_214\n        /* \"#utility.yul\":4595:4600   */\n      dup2\n        /* \"#utility.yul\":4577:4601   */\n      tag_112\n      jump\t// in\n    tag_214:\n        /* \"#utility.yul\":4572:4575   */\n      dup3\n        /* \"#utility.yul\":4565:4602   */\n      mstore\n        /* \"#utility.yul\":4490:4608   */\n      pop\n      pop\n      jump\t// out\n        /* \"#utility.yul\":4614:4713   */\n    tag_123:\n        /* \"#utility.yul\":4666:4672   */\n      0x00\n        /* \"#utility.yul\":4700:4705   */\n      dup2\n        /* \"#utility.yul\":4694:4706   */\n      mload\n        /* \"#utility.yul\":4684:4706   */\n      swap1\n      pop\n        /* \"#utility.yul\":4614:4713   */\n      swap2\n      swap1\n      pop\n      jump\t// out\n        /* \"#utility.yul\":4719:4888   */\n    tag_124:\n        /* \"#utility.yul\":4803:4814   */\n      0x00\n        /* \"#utility.yul\":4837:4843   */\n      dup3\n        /* \"#utility.yul\":4832:4835   */\n      dup3\n        /* \"#utility.yul\":4825:4844   */\n      mstore\n        /* \"#utility.yul\":4877:4881   */\n      0x20\n        /* \"#utility.yul\":4872:4875   */\n      dup3\n        /* \"#utility.yul\":4868:4882   */\n      add\n        /* \"#utility.yul\":4853:4882   */\n      swap1\n      pop\n        /* \"#utility.yul\":4719:4888   */\n      swap3\n      swap2\n      pop\n      pop\n      jump\t// out\n        /* \"#utility.yul\":4894:5140   */\n    tag_125:\n        /* \"#utility.yul\":4975:4976   */\n      0x00\n        /* \"#utility.yul\":4985:5098   */\n    tag_218:\n        /* \"#utility.yul\":4999:5005   */\n      dup4\n        /* \"#utility.yul\":4996:4997   */\n      dup2\n        /* \"#utility.yul\":4993:5006   */\n      lt\n        /* \"#utility.yul\":4985:5098   */\n      iszero\n      tag_220\n      jumpi\n        /* \"#utility.yul\":5084:5085   */\n      dup1\n        /* \"#utility.yul\":5079:5082   */\n      dup3\n        /* \"#utility.yul\":5075:5086   */\n      add\n        /* \"#utility.yul\":5069:5087   */\n      mload\n        /* \"#utility.yul\":5065:5066   */\n      dup2\n        /* \"#utility.yul\":5060:5063   */\n      dup5\n        /* \"#utility.yul\":5056:5067   */\n      add\n        /* \"#utility.yul\":5049:5088   */\n      mstore\n        /* \"#utility.yul\":5021:5023   */\n      0x20\n        /* \"#utility.yul\":5018:5019   */\n      dup2\n        /* \"#utility.yul\":5014:5024   */\n      add\n        /* \"#utility.yul\":5009:5024   */\n      swap1\n      pop\n        /* \"#utility.yul\":4985:5098   */\n      jump(tag_218)\n    tag_220:\n        /* \"#utility.yul\":5132:5133   */\n      0x00\n        /* \"#utility.yul\":5123:5129   */\n      dup5\n        /* \"#utility.yul\":5118:5121   */\n      dup5\n        /* \"#utility.yul\":5114:5130   */\n      add\n        /* \"#utility.yul\":5107:5134   */\n      mstore\n        /* \"#utility.yul\":4956:5140   */\n      pop\n        /* \"#utility.yul\":4894:5140   */\n      pop\n      pop\n      pop\n      jump\t// out\n        /* \"#utility.yul\":5146:5248   */\n    tag_126:\n        /* \"#utility.yul\":5187:5193   */\n      0x00\n        /* \"#utility.yul\":5238:5240   */\n      0x1f\n        /* \"#utility.yul\":5234:5241   */\n      not\n        /* \"#utility.yul\":5229:5231   */\n      0x1f\n        /* \"#utility.yul\":5222:5227   */\n      dup4\n        /* \"#utility.yul\":5218:5232   */\n      add\n        /* \"#utility.yul\":5214:5242   */\n      and\n        /* \"#utility.yul\":5204:5242   */\n      swap1\n      pop\n        /* \"#utility.yul\":5146:5248   */\n      swap2\n      swap1\n      pop\n      jump\t// out\n        /* \"#utility.yul\":5254:5631   */\n    tag_127:\n        /* \"#utility.yul\":5342:5345   */\n      0x00\n        /* \"#utility.yul\":5370:5409   */\n      tag_223\n        /* \"#utility.yul\":5403:5408   */\n      dup3\n        /* \"#utility.yul\":5370:5409   */\n      tag_123\n      jump\t// in\n    tag_223:\n        /* \"#utility.yul\":5425:5496   */\n      tag_224\n        /* \"#utility.yul\":5489:5495   */\n      dup2\n        /* \"#utility.yul\":5484:5487   */\n      dup6\n        /* \"#utility.yul\":5425:5496   */\n      tag_124\n      jump\t// in\n    tag_224:\n        /* \"#utility.yul\":5418:5496   */\n      swap4\n      pop\n        /* \"#utility.yul\":5505:5570   */\n      tag_225\n        /* \"#utility.yul\":5563:5569   */\n      dup2\n        /* \"#utility.yul\":5558:5561   */\n      dup6\n        /* \"#utility.yul\":5551:5555   */\n      0x20\n        /* \"#utility.yul\":5544:5549   */\n      dup7\n        /* \"#utility.yul\":5540:5556   */\n      add\n        /* \"#utility.yul\":5505:5570   */\n      tag_125\n      jump\t// in\n    tag_225:\n        /* \"#utility.yul\":5595:5624   */\n      tag_226\n        /* \"#utility.yul\":5617:5623   */\n      dup2\n        /* \"#utility.yul\":5595:5624   */\n      tag_126\n      jump\t// in\n    tag_226:\n        /* \"#utility.yul\":5590:5593   */\n      dup5\n        /* \"#utility.yul\":5586:5625   */\n      add\n        /* \"#utility.yul\":5579:5625   */\n      swap2\n      pop\n        /* \"#utility.yul\":5346:5631   */\n      pop\n        /* \"#utility.yul\":5254:5631   */\n      swap3\n      swap2\n      pop\n      pop\n      jump\t// out\n        /* \"#utility.yul\":5637:5817   */\n    tag_48:\n        /* \"#utility.yul\":5685:5762   */\n      0x4e487b7100000000000000000000000000000000000000000000000000000000\n        /* \"#utility.yul\":5682:5683   */\n      0x00\n        /* \"#utility.yul\":5675:5763   */\n      mstore\n        /* \"#utility.yul\":5782:5786   */\n      0x21\n        /* \"#utility.yul\":5779:5780   */\n      0x04\n        /* \"#utility.yul\":5772:5787   */\n      mstore\n        /* \"#utility.yul\":5806:5810   */\n      0x24\n        /* \"#utility.yul\":5803:5804   */\n      0x00\n        /* \"#utility.yul\":5796:5811   */\n      revert\n        /* \"#utility.yul\":5823:5942   */\n    tag_128:\n        /* \"#utility.yul\":5910:5911   */\n      0x02\n        /* \"#utility.yul\":5903:5908   */\n      dup2\n        /* \"#utility.yul\":5900:5912   */\n      lt\n        /* \"#utility.yul\":5890:5936   */\n      tag_229\n      jumpi\n        /* \"#utility.yul\":5916:5934   */\n      tag_230\n      tag_48\n      jump\t// in\n    tag_230:\n        /* \"#utility.yul\":5890:5936   */\n    tag_229:\n        /* \"#utility.yul\":5823:5942   */\n      pop\n      jump\t// out\n        /* \"#utility.yul\":5948:6087   */\n    tag_129:\n        /* \"#utility.yul\":5999:6006   */\n      0x00\n        /* \"#utility.yul\":6028:6033   */\n      dup2\n        /* \"#utility.yul\":6017:6033   */\n      swap1\n      pop\n        /* \"#utility.yul\":6034:6081   */\n      tag_232\n        /* \"#utility.yul\":6075:6080   */\n      dup3\n        /* \"#utility.yul\":6034:6081   */\n      tag_128\n      jump\t// in\n    tag_232:\n        /* \"#utility.yul\":5948:6087   */\n      swap2\n      swap1\n      pop\n      jump\t// out\n        /* \"#utility.yul\":6093:6232   */\n    tag_130:\n        /* \"#utility.yul\":6155:6164   */\n      0x00\n        /* \"#utility.yul\":6188:6226   */\n      tag_234\n        /* \"#utility.yul\":6220:6225   */\n      dup3\n        /* \"#utility.yul\":6188:6226   */\n      tag_129\n      jump\t// in\n    tag_234:\n        /* \"#utility.yul\":6175:6226   */\n      swap1\n      pop\n        /* \"#utility.yul\":6093:6232   */\n      swap2\n      swap1\n      pop\n      jump\t// out\n        /* \"#utility.yul\":6238:6393   */\n    tag_131:\n        /* \"#utility.yul\":6337:6386   */\n      tag_236\n        /* \"#utility.yul\":6380:6385   */\n      dup2\n        /* \"#utility.yul\":6337:6386   */\n      tag_130\n      jump\t// in\n    tag_236:\n        /* \"#utility.yul\":6332:6335   */\n      dup3\n        /* \"#utility.yul\":6325:6387   */\n      mstore\n        /* \"#utility.yul\":6238:6393   */\n      pop\n      pop\n      jump\t// out\n        /* \"#utility.yul\":6399:7321   */\n    tag_24:\n        /* \"#utility.yul\":6680:6684   */\n      0x00\n        /* \"#utility.yul\":6718:6721   */\n      0xc0\n        /* \"#utility.yul\":6707:6716   */\n      dup3\n        /* \"#utility.yul\":6703:6722   */\n      add\n        /* \"#utility.yul\":6695:6722   */\n      swap1\n      pop\n        /* \"#utility.yul\":6732:6819   */\n      tag_238\n        /* \"#utility.yul\":6816:6817   */\n      0x00\n        /* \"#utility.yul\":6805:6814   */\n      dup4\n        /* \"#utility.yul\":6801:6818   */\n      add\n        /* \"#utility.yul\":6792:6798   */\n      dup10\n        /* \"#utility.yul\":6732:6819   */\n      tag_121\n      jump\t// in\n    tag_238:\n        /* \"#utility.yul\":6829:6901   */\n      tag_239\n        /* \"#utility.yul\":6897:6899   */\n      0x20\n        /* \"#utility.yul\":6886:6895   */\n      dup4\n        /* \"#utility.yul\":6882:6900   */\n      add\n        /* \"#utility.yul\":6873:6879   */\n      dup9\n        /* \"#utility.yul\":6829:6901   */\n      tag_122\n      jump\t// in\n    tag_239:\n        /* \"#utility.yul\":6911:6983   */\n      tag_240\n        /* \"#utility.yul\":6979:6981   */\n      0x40\n        /* \"#utility.yul\":6968:6977   */\n      dup4\n        /* \"#utility.yul\":6964:6982   */\n      add\n        /* \"#utility.yul\":6955:6961   */\n      dup8\n        /* \"#utility.yul\":6911:6983   */\n      tag_119\n      jump\t// in\n    tag_240:\n        /* \"#utility.yul\":6993:7065   */\n      tag_241\n        /* \"#utility.yul\":7061:7063   */\n      0x60\n        /* \"#utility.yul\":7050:7059   */\n      dup4\n        /* \"#utility.yul\":7046:7064   */\n      add\n        /* \"#utility.yul\":7037:7043   */\n      dup7\n        /* \"#utility.yul\":6993:7065   */\n      tag_122\n      jump\t// in\n    tag_241:\n        /* \"#utility.yul\":7113:7122   */\n      dup2\n        /* \"#utility.yul\":7107:7111   */\n      dup2\n        /* \"#utility.yul\":7103:7123   */\n      sub\n        /* \"#utility.yul\":7097:7100   */\n      0x80\n        /* \"#utility.yul\":7086:7095   */\n      dup4\n        /* \"#utility.yul\":7082:7101   */\n      add\n        /* \"#utility.yul\":7075:7124   */\n      mstore\n        /* \"#utility.yul\":7141:7219   */\n      tag_242\n        /* \"#utility.yul\":7214:7218   */\n      dup2\n        /* \"#utility.yul\":7205:7211   */\n      dup6\n        /* \"#utility.yul\":7141:7219   */\n      tag_127\n      jump\t// in\n    tag_242:\n        /* \"#utility.yul\":7133:7219   */\n      swap1\n      pop\n        /* \"#utility.yul\":7229:7314   */\n      tag_243\n        /* \"#utility.yul\":7309:7312   */\n      0xa0\n        /* \"#utility.yul\":7298:7307   */\n      dup4\n        /* \"#utility.yul\":7294:7313   */\n      add\n        /* \"#utility.yul\":7285:7291   */\n      dup5\n        /* \"#utility.yul\":7229:7314   */\n      tag_131\n      jump\t// in\n    tag_243:\n        /* \"#utility.yul\":6399:7321   */\n      swap8\n      swap7\n      pop\n      pop\n      pop\n      pop\n      pop\n      pop\n      pop\n      jump\t// out\n        /* \"#utility.yul\":7327:7444   */\n    tag_132:\n        /* \"#utility.yul\":7436:7437   */\n      0x00\n        /* \"#utility.yul\":7433:7434   */\n      dup1\n        /* \"#utility.yul\":7426:7438   */\n      revert\n        /* \"#utility.yul\":7450:7567   */\n    tag_133:\n        /* \"#utility.yul\":7559:7560   */\n      0x00\n        /* \"#utility.yul\":7556:7557   */\n      dup1\n        /* \"#utility.yul\":7549:7561   */\n      revert\n        /* \"#utility.yul\":7573:7753   */\n    tag_134:\n        /* \"#utility.yul\":7621:7698   */\n      0x4e487b7100000000000000000000000000000000000000000000000000000000\n        /* \"#utility.yul\":7618:7619   */\n      0x00\n        /* \"#utility.yul\":7611:7699   */\n      mstore\n        /* \"#utility.yul\":7718:7722   */\n      0x41\n        /* \"#utility.yul\":7715:7716   */\n      0x04\n        /* \"#utility.yul\":7708:7723   */\n      mstore\n        /* \"#utility.yul\":7742:7746   */\n      0x24\n        /* \"#utility.yul\":7739:7740   */\n      0x00\n        /* \"#utility.yul\":7732:7747   */\n      revert\n        /* \"#utility.yul\":7759:8040   */\n    tag_135:\n        /* \"#utility.yul\":7842:7869   */\n      tag_248\n        /* \"#utility.yul\":7864:7868   */\n      dup3\n        /* \"#utility.yul\":7842:7869   */\n      tag_126\n      jump\t// in\n    tag_248:\n        /* \"#utility.yul\":7834:7840   */\n      dup2\n        /* \"#utility.yul\":7830:7870   */\n      add\n        /* \"#utility.yul\":7972:7978   */\n      dup2\n        /* \"#utility.yul\":7960:7970   */\n      dup2\n        /* \"#utility.yul\":7957:7979   */\n      lt\n        /* \"#utility.yul\":7936:7954   */\n      0xffffffffffffffff\n        /* \"#utility.yul\":7924:7934   */\n      dup3\n        /* \"#utility.yul\":7921:7955   */\n      gt\n        /* \"#utility.yul\":7918:7980   */\n      or\n        /* \"#utility.yul\":7915:8003   */\n      iszero\n      tag_249\n      jumpi\n        /* \"#utility.yul\":7983:8001   */\n      tag_250\n      tag_134\n      jump\t// in\n    tag_250:\n        /* \"#utility.yul\":7915:8003   */\n    tag_249:\n        /* \"#utility.yul\":8023:8033   */\n      dup1\n        /* \"#utility.yul\":8019:8021   */\n      0x40\n        /* \"#utility.yul\":8012:8034   */\n      mstore\n        /* \"#utility.yul\":7802:8040   */\n      pop\n        /* \"#utility.yul\":7759:8040   */\n      pop\n      pop\n      jump\t// out\n        /* \"#utility.yul\":8046:8175   */\n    tag_136:\n        /* \"#utility.yul\":8080:8086   */\n      0x00\n        /* \"#utility.yul\":8107:8127   */\n      tag_252\n      tag_102\n      jump\t// in\n    tag_252:\n        /* \"#utility.yul\":8097:8127   */\n      swap1\n      pop\n        /* \"#utility.yul\":8136:8169   */\n      tag_253\n        /* \"#utility.yul\":8164:8168   */\n      dup3\n        /* \"#utility.yul\":8156:8162   */\n      dup3\n        /* \"#utility.yul\":8136:8169   */\n      tag_135\n      jump\t// in\n    tag_253:\n        /* \"#utility.yul\":8046:8175   */\n      swap2\n      swap1\n      pop\n      jump\t// out\n        /* \"#utility.yul\":8181:8489   */\n    tag_137:\n        /* \"#utility.yul\":8243:8247   */\n      0x00\n        /* \"#utility.yul\":8333:8351   */\n      0xffffffffffffffff\n        /* \"#utility.yul\":8325:8331   */\n      dup3\n        /* \"#utility.yul\":8322:8352   */\n      gt\n        /* \"#utility.yul\":8319:8375   */\n      iszero\n      tag_255\n      jumpi\n        /* \"#utility.yul\":8355:8373   */\n      tag_256\n      tag_134\n      jump\t// in\n    tag_256:\n        /* \"#utility.yul\":8319:8375   */\n    tag_255:\n        /* \"#utility.yul\":8393:8422   */\n      tag_257\n        /* \"#utility.yul\":8415:8421   */\n      dup3\n        /* \"#utility.yul\":8393:8422   */\n      tag_126\n      jump\t// in\n    tag_257:\n        /* \"#utility.yul\":8385:8422   */\n      swap1\n      pop\n        /* \"#utility.yul\":8477:8481   */\n      0x20\n        /* \"#utility.yul\":8471:8475   */\n      dup2\n        /* \"#utility.yul\":8467:8482   */\n      add\n        /* \"#utility.yul\":8459:8482   */\n      swap1\n      pop\n        /* \"#utility.yul\":8181:8489   */\n      swap2\n      swap1\n      pop\n      jump\t// out\n        /* \"#utility.yul\":8495:8641   */\n    tag_138:\n        /* \"#utility.yul\":8592:8598   */\n      dup3\n        /* \"#utility.yul\":8587:8590   */\n      dup2\n        /* \"#utility.yul\":8582:8585   */\n      dup4\n        /* \"#utility.yul\":8569:8599   */\n      calldatacopy\n        /* \"#utility.yul\":8633:8634   */\n      0x00\n        /* \"#utility.yul\":8624:8630   */\n      dup4\n        /* \"#utility.yul\":8619:8622   */\n      dup4\n        /* \"#utility.yul\":8615:8631   */\n      add\n        /* \"#utility.yul\":8608:8635   */\n      mstore\n        /* \"#utility.yul\":8495:8641   */\n      pop\n      pop\n      pop\n      jump\t// out\n        /* \"#utility.yul\":8647:9072   */\n    tag_139:\n        /* \"#utility.yul\":8725:8730   */\n      0x00\n        /* \"#utility.yul\":8750:8816   */\n      tag_260\n        /* \"#utility.yul\":8766:8815   */\n      tag_261\n        /* \"#utility.yul\":8808:8814   */\n      dup5\n        /* \"#utility.yul\":8766:8815   */\n      tag_137\n      jump\t// in\n    tag_261:\n        /* \"#utility.yul\":8750:8816   */\n      tag_136\n      jump\t// in\n    tag_260:\n        /* \"#utility.yul\":8741:8816   */\n      swap1\n      pop\n        /* \"#utility.yul\":8839:8845   */\n      dup3\n        /* \"#utility.yul\":8832:8837   */\n      dup2\n        /* \"#utility.yul\":8825:8846   */\n      mstore\n        /* \"#utility.yul\":8877:8881   */\n      0x20\n        /* \"#utility.yul\":8870:8875   */\n      dup2\n        /* \"#utility.yul\":8866:8882   */\n      add\n        /* \"#utility.yul\":8915:8918   */\n      dup5\n        /* \"#utility.yul\":8906:8912   */\n      dup5\n        /* \"#utility.yul\":8901:8904   */\n      dup5\n        /* \"#utility.yul\":8897:8913   */\n      add\n        /* \"#utility.yul\":8894:8919   */\n      gt\n        /* \"#utility.yul\":8891:9003   */\n      iszero\n      tag_262\n      jumpi\n        /* \"#utility.yul\":8922:9001   */\n      tag_263\n      tag_133\n      jump\t// in\n    tag_263:\n        /* \"#utility.yul\":8891:9003   */\n    tag_262:\n        /* \"#utility.yul\":9012:9066   */\n      tag_264\n        /* \"#utility.yul\":9059:9065   */\n      dup5\n        /* \"#utility.yul\":9054:9057   */\n      dup3\n        /* \"#utility.yul\":9049:9052   */\n      dup6\n        /* \"#utility.yul\":9012:9066   */\n      tag_138\n      jump\t// in\n    tag_264:\n        /* \"#utility.yul\":8731:9072   */\n      pop\n        /* \"#utility.yul\":8647:9072   */\n      swap4\n      swap3\n      pop\n      pop\n      pop\n      jump\t// out\n        /* \"#utility.yul\":9092:9432   */\n    tag_140:\n        /* \"#utility.yul\":9148:9153   */\n      0x00\n        /* \"#utility.yul\":9197:9200   */\n      dup3\n        /* \"#utility.yul\":9190:9194   */\n      0x1f\n        /* \"#utility.yul\":9182:9188   */\n      dup4\n        /* \"#utility.yul\":9178:9195   */\n      add\n        /* \"#utility.yul\":9174:9201   */\n      slt\n        /* \"#utility.yul\":9164:9286   */\n      tag_266\n      jumpi\n        /* \"#utility.yul\":9205:9284   */\n      tag_267\n      tag_132\n      jump\t// in\n    tag_267:\n        /* \"#utility.yul\":9164:9286   */\n    tag_266:\n        /* \"#utility.yul\":9322:9328   */\n      dup2\n        /* \"#utility.yul\":9309:9329   */\n      calldataload\n        /* \"#utility.yul\":9347:9426   */\n      tag_268\n        /* \"#utility.yul\":9422:9425   */\n      dup5\n        /* \"#utility.yul\":9414:9420   */\n      dup3\n        /* \"#utility.yul\":9407:9411   */\n      0x20\n        /* \"#utility.yul\":9399:9405   */\n      dup7\n        /* \"#utility.yul\":9395:9412   */\n      add\n        /* \"#utility.yul\":9347:9426   */\n      tag_139\n      jump\t// in\n    tag_268:\n        /* \"#utility.yul\":9338:9426   */\n      swap2\n      pop\n        /* \"#utility.yul\":9154:9432   */\n      pop\n        /* \"#utility.yul\":9092:9432   */\n      swap3\n      swap2\n      pop\n      pop\n      jump\t// out\n        /* \"#utility.yul\":9438:10092   */\n    tag_27:\n        /* \"#utility.yul\":9516:9522   */\n      0x00\n        /* \"#utility.yul\":9524:9530   */\n      dup1\n        /* \"#utility.yul\":9573:9575   */\n      0x40\n        /* \"#utility.yul\":9561:9570   */\n      dup4\n        /* \"#utility.yul\":9552:9559   */\n      dup6\n        /* \"#utility.yul\":9548:9571   */\n      sub\n        /* \"#utility.yul\":9544:9576   */\n      slt\n        /* \"#utility.yul\":9541:9660   */\n      iszero\n      tag_270\n      jumpi\n        /* \"#utility.yul\":9579:9658   */\n      tag_271\n      tag_103\n      jump\t// in\n    tag_271:\n        /* \"#utility.yul\":9541:9660   */\n    tag_270:\n        /* \"#utility.yul\":9699:9700   */\n      0x00\n        /* \"#utility.yul\":9724:9777   */\n      tag_272\n        /* \"#utility.yul\":9769:9776   */\n      dup6\n        /* \"#utility.yul\":9760:9766   */\n      dup3\n        /* \"#utility.yul\":9749:9758   */\n      dup7\n        /* \"#utility.yul\":9745:9767   */\n      add\n        /* \"#utility.yul\":9724:9777   */\n      tag_118\n      jump\t// in\n    tag_272:\n        /* \"#utility.yul\":9714:9777   */\n      swap3\n      pop\n        /* \"#utility.yul\":9670:9787   */\n      pop\n        /* \"#utility.yul\":9854:9856   */\n      0x20\n        /* \"#utility.yul\":9843:9852   */\n      dup4\n        /* \"#utility.yul\":9839:9857   */\n      add\n        /* \"#utility.yul\":9826:9858   */\n      calldataload\n        /* \"#utility.yul\":9885:9903   */\n      0xffffffffffffffff\n        /* \"#utility.yul\":9877:9883   */\n      dup2\n        /* \"#utility.yul\":9874:9904   */\n      gt\n        /* \"#utility.yul\":9871:9988   */\n      iszero\n      tag_273\n      jumpi\n        /* \"#utility.yul\":9907:9986   */\n      tag_274\n      tag_104\n      jump\t// in\n    tag_274:\n        /* \"#utility.yul\":9871:9988   */\n    tag_273:\n        /* \"#utility.yul\":10012:10075   */\n      tag_275\n        /* \"#utility.yul\":10067:10074   */\n      dup6\n        /* \"#utility.yul\":10058:10064   */\n      dup3\n        /* \"#utility.yul\":10047:10056   */\n      dup7\n        /* \"#utility.yul\":10043:10065   */\n      add\n        /* \"#utility.yul\":10012:10075   */\n      tag_140\n      jump\t// in\n    tag_275:\n        /* \"#utility.yul\":10002:10075   */\n      swap2\n      pop\n        /* \"#utility.yul\":9797:10085   */\n      pop\n        /* \"#utility.yul\":9438:10092   */\n      swap3\n      pop\n      swap3\n      swap1\n      pop\n      jump\t// out\n        /* \"#utility.yul\":10098:10212   */\n    tag_141:\n        /* \"#utility.yul\":10165:10171   */\n      0x00\n        /* \"#utility.yul\":10199:10204   */\n      dup2\n        /* \"#utility.yul\":10193:10205   */\n      mload\n        /* \"#utility.yul\":10183:10205   */\n      swap1\n      pop\n        /* \"#utility.yul\":10098:10212   */\n      swap2\n      swap1\n      pop\n      jump\t// out\n        /* \"#utility.yul\":10218:10402   */\n    tag_142:\n        /* \"#utility.yul\":10317:10328   */\n      0x00\n        /* \"#utility.yul\":10351:10357   */\n      dup3\n        /* \"#utility.yul\":10346:10349   */\n      dup3\n        /* \"#utility.yul\":10339:10358   */\n      mstore\n        /* \"#utility.yul\":10391:10395   */\n      0x20\n        /* \"#utility.yul\":10386:10389   */\n      dup3\n        /* \"#utility.yul\":10382:10396   */\n      add\n        /* \"#utility.yul\":10367:10396   */\n      swap1\n      pop\n        /* \"#utility.yul\":10218:10402   */\n      swap3\n      swap2\n      pop\n      pop\n      jump\t// out\n        /* \"#utility.yul\":10408:10540   */\n    tag_143:\n        /* \"#utility.yul\":10475:10479   */\n      0x00\n        /* \"#utility.yul\":10498:10501   */\n      dup2\n        /* \"#utility.yul\":10490:10501   */\n      swap1\n      pop\n        /* \"#utility.yul\":10528:10532   */\n      0x20\n        /* \"#utility.yul\":10523:10526   */\n      dup3\n        /* \"#utility.yul\":10519:10533   */\n      add\n        /* \"#utility.yul\":10511:10533   */\n      swap1\n      pop\n        /* \"#utility.yul\":10408:10540   */\n      swap2\n      swap1\n      pop\n      jump\t// out\n        /* \"#utility.yul\":10546:10654   */\n    tag_144:\n        /* \"#utility.yul\":10623:10647   */\n      tag_280\n        /* \"#utility.yul\":10641:10646   */\n      dup2\n        /* \"#utility.yul\":10623:10647   */\n      tag_106\n      jump\t// in\n    tag_280:\n        /* \"#utility.yul\":10618:10621   */\n      dup3\n        /* \"#utility.yul\":10611:10648   */\n      mstore\n        /* \"#utility.yul\":10546:10654   */\n      pop\n      pop\n      jump\t// out\n        /* \"#utility.yul\":10660:10839   */\n    tag_145:\n        /* \"#utility.yul\":10729:10739   */\n      0x00\n        /* \"#utility.yul\":10750:10796   */\n      tag_282\n        /* \"#utility.yul\":10792:10795   */\n      dup4\n        /* \"#utility.yul\":10784:10790   */\n      dup4\n        /* \"#utility.yul\":10750:10796   */\n      tag_144\n      jump\t// in\n    tag_282:\n        /* \"#utility.yul\":10828:10832   */\n      0x20\n        /* \"#utility.yul\":10823:10826   */\n      dup4\n        /* \"#utility.yul\":10819:10833   */\n      add\n        /* \"#utility.yul\":10805:10833   */\n      swap1\n      pop\n        /* \"#utility.yul\":10660:10839   */\n      swap3\n      swap2\n      pop\n      pop\n      jump\t// out\n        /* \"#utility.yul\":10845:10958   */\n    tag_146:\n        /* \"#utility.yul\":10915:10919   */\n      0x00\n        /* \"#utility.yul\":10947:10951   */\n      0x20\n        /* \"#utility.yul\":10942:10945   */\n      dup3\n        /* \"#utility.yul\":10938:10952   */\n      add\n        /* \"#utility.yul\":10930:10952   */\n      swap1\n      pop\n        /* \"#utility.yul\":10845:10958   */\n      swap2\n      swap1\n      pop\n      jump\t// out\n        /* \"#utility.yul\":10994:11726   */\n    tag_147:\n        /* \"#utility.yul\":11113:11116   */\n      0x00\n        /* \"#utility.yul\":11142:11196   */\n      tag_285\n        /* \"#utility.yul\":11190:11195   */\n      dup3\n        /* \"#utility.yul\":11142:11196   */\n      tag_141\n      jump\t// in\n    tag_285:\n        /* \"#utility.yul\":11212:11298   */\n      tag_286\n        /* \"#utility.yul\":11291:11297   */\n      dup2\n        /* \"#utility.yul\":11286:11289   */\n      dup6\n        /* \"#utility.yul\":11212:11298   */\n      tag_142\n      jump\t// in\n    tag_286:\n        /* \"#utility.yul\":11205:11298   */\n      swap4\n      pop\n        /* \"#utility.yul\":11322:11378   */\n      tag_287\n        /* \"#utility.yul\":11372:11377   */\n      dup4\n        /* \"#utility.yul\":11322:11378   */\n      tag_143\n      jump\t// in\n    tag_287:\n        /* \"#utility.yul\":11401:11408   */\n      dup1\n        /* \"#utility.yul\":11432:11433   */\n      0x00\n        /* \"#utility.yul\":11417:11701   */\n    tag_288:\n        /* \"#utility.yul\":11442:11448   */\n      dup4\n        /* \"#utility.yul\":11439:11440   */\n      dup2\n        /* \"#utility.yul\":11436:11449   */\n      lt\n        /* \"#utility.yul\":11417:11701   */\n      iszero\n      tag_290\n      jumpi\n        /* \"#utility.yul\":11518:11524   */\n      dup2\n        /* \"#utility.yul\":11512:11525   */\n      mload\n        /* \"#utility.yul\":11545:11608   */\n      tag_291\n        /* \"#utility.yul\":11604:11607   */\n      dup9\n        /* \"#utility.yul\":11589:11602   */\n      dup3\n        /* \"#utility.yul\":11545:11608   */\n      tag_145\n      jump\t// in\n    tag_291:\n        /* \"#utility.yul\":11538:11608   */\n      swap8\n      pop\n        /* \"#utility.yul\":11631:11691   */\n      tag_292\n        /* \"#utility.yul\":11684:11690   */\n      dup4\n        /* \"#utility.yul\":11631:11691   */\n      tag_146\n      jump\t// in\n    tag_292:\n        /* \"#utility.yul\":11621:11691   */\n      swap3\n      pop\n        /* \"#utility.yul\":11477:11701   */\n      pop\n        /* \"#utility.yul\":11464:11465   */\n      0x01\n        /* \"#utility.yul\":11461:11462   */\n      dup2\n        /* \"#utility.yul\":11457:11466   */\n      add\n        /* \"#utility.yul\":11452:11466   */\n      swap1\n      pop\n        /* \"#utility.yul\":11417:11701   */\n      jump(tag_288)\n    tag_290:\n        /* \"#utility.yul\":11421:11435   */\n      pop\n        /* \"#utility.yul\":11717:11720   */\n      dup6\n        /* \"#utility.yul\":11710:11720   */\n      swap4\n      pop\n        /* \"#utility.yul\":11118:11726   */\n      pop\n      pop\n      pop\n        /* \"#utility.yul\":10994:11726   */\n      swap3\n      swap2\n      pop\n      pop\n      jump\t// out\n        /* \"#utility.yul\":11732:12105   */\n    tag_32:\n        /* \"#utility.yul\":11875:11879   */\n      0x00\n        /* \"#utility.yul\":11913:11915   */\n      0x20\n        /* \"#utility.yul\":11902:11911   */\n      dup3\n        /* \"#utility.yul\":11898:11916   */\n      add\n        /* \"#utility.yul\":11890:11916   */\n      swap1\n      pop\n        /* \"#utility.yul\":11962:11971   */\n      dup2\n        /* \"#utility.yul\":11956:11960   */\n      dup2\n        /* \"#utility.yul\":11952:11972   */\n      sub\n        /* \"#utility.yul\":11948:11949   */\n      0x00\n        /* \"#utility.yul\":11937:11946   */\n      dup4\n        /* \"#utility.yul\":11933:11950   */\n      add\n        /* \"#utility.yul\":11926:11973   */\n      mstore\n        /* \"#utility.yul\":11990:12098   */\n      tag_294\n        /* \"#utility.yul\":12093:12097   */\n      dup2\n        /* \"#utility.yul\":12084:12090   */\n      dup5\n        /* \"#utility.yul\":11990:12098   */\n      tag_147\n      jump\t// in\n    tag_294:\n        /* \"#utility.yul\":11982:12098   */\n      swap1\n      pop\n        /* \"#utility.yul\":11732:12105   */\n      swap3\n      swap2\n      pop\n      pop\n      jump\t// out\n        /* \"#utility.yul\":12111:12291   */\n    tag_39:\n        /* \"#utility.yul\":12159:12236   */\n      0x4e487b7100000000000000000000000000000000000000000000000000000000\n        /* \"#utility.yul\":12156:12157   */\n      0x00\n        /* \"#utility.yul\":12149:12237   */\n      mstore\n        /* \"#utility.yul\":12256:12260   */\n      0x32\n        /* \"#utility.yul\":12253:12254   */\n      0x04\n        /* \"#utility.yul\":12246:12261   */\n      mstore\n        /* \"#utility.yul\":12280:12284   */\n      0x24\n        /* \"#utility.yul\":12277:12278   */\n      0x00\n        /* \"#utility.yul\":12270:12285   */\n      revert\n        /* \"#utility.yul\":12297:12435   */\n    tag_148:\n        /* \"#utility.yul\":12378:12410   */\n      tag_297\n        /* \"#utility.yul\":12404:12409   */\n      dup2\n        /* \"#utility.yul\":12378:12410   */\n      tag_120\n      jump\t// in\n    tag_297:\n        /* \"#utility.yul\":12371:12376   */\n      dup2\n        /* \"#utility.yul\":12368:12411   */\n      eq\n        /* \"#utility.yul\":12358:12429   */\n      tag_298\n      jumpi\n        /* \"#utility.yul\":12425:12426   */\n      0x00\n        /* \"#utility.yul\":12422:12423   */\n      dup1\n        /* \"#utility.yul\":12415:12427   */\n      revert\n        /* \"#utility.yul\":12358:12429   */\n    tag_298:\n        /* \"#utility.yul\":12297:12435   */\n      pop\n      jump\t// out\n        /* \"#utility.yul\":12441:12600   */\n    tag_149:\n        /* \"#utility.yul\":12506:12511   */\n      0x00\n        /* \"#utility.yul\":12537:12543   */\n      dup2\n        /* \"#utility.yul\":12531:12544   */\n      mload\n        /* \"#utility.yul\":12522:12544   */\n      swap1\n      pop\n        /* \"#utility.yul\":12553:12594   */\n      tag_300\n        /* \"#utility.yul\":12588:12593   */\n      dup2\n        /* \"#utility.yul\":12553:12594   */\n      tag_148\n      jump\t// in\n    tag_300:\n        /* \"#utility.yul\":12441:12600   */\n      swap3\n      swap2\n      pop\n      pop\n      jump\t// out\n        /* \"#utility.yul\":12606:12973   */\n    tag_44:\n        /* \"#utility.yul\":12684:12690   */\n      0x00\n        /* \"#utility.yul\":12733:12735   */\n      0x20\n        /* \"#utility.yul\":12721:12730   */\n      dup3\n        /* \"#utility.yul\":12712:12719   */\n      dup5\n        /* \"#utility.yul\":12708:12731   */\n      sub\n        /* \"#utility.yul\":12704:12736   */\n      slt\n        /* \"#utility.yul\":12701:12820   */\n      iszero\n      tag_302\n      jumpi\n        /* \"#utility.yul\":12739:12818   */\n      tag_303\n      tag_103\n      jump\t// in\n    tag_303:\n        /* \"#utility.yul\":12701:12820   */\n    tag_302:\n        /* \"#utility.yul\":12859:12860   */\n      0x00\n        /* \"#utility.yul\":12884:12956   */\n      tag_304\n        /* \"#utility.yul\":12948:12955   */\n      dup5\n        /* \"#utility.yul\":12939:12945   */\n      dup3\n        /* \"#utility.yul\":12928:12937   */\n      dup6\n        /* \"#utility.yul\":12924:12946   */\n      add\n        /* \"#utility.yul\":12884:12956   */\n      tag_149\n      jump\t// in\n    tag_304:\n        /* \"#utility.yul\":12874:12956   */\n      swap2\n      pop\n        /* \"#utility.yul\":12830:12966   */\n      pop\n        /* \"#utility.yul\":12606:12973   */\n      swap3\n      swap2\n      pop\n      pop\n      jump\t// out\n        /* \"#utility.yul\":12979:13092   */\n    tag_150:\n        /* \"#utility.yul\":13066:13067   */\n      0x02\n        /* \"#utility.yul\":13059:13064   */\n      dup2\n        /* \"#utility.yul\":13056:13068   */\n      lt\n        /* \"#utility.yul\":13046:13086   */\n      tag_306\n      jumpi\n        /* \"#utility.yul\":13082:13083   */\n      0x00\n        /* \"#utility.yul\":13079:13080   */\n      dup1\n        /* \"#utility.yul\":13072:13084   */\n      revert\n        /* \"#utility.yul\":13046:13086   */\n    tag_306:\n        /* \"#utility.yul\":12979:13092   */\n      pop\n      jump\t// out\n        /* \"#utility.yul\":13098:13269   */\n    tag_151:\n        /* \"#utility.yul\":13169:13174   */\n      0x00\n        /* \"#utility.yul\":13200:13206   */\n      dup2\n        /* \"#utility.yul\":13194:13207   */\n      mload\n        /* \"#utility.yul\":13185:13207   */\n      swap1\n      pop\n        /* \"#utility.yul\":13216:13263   */\n      tag_308\n        /* \"#utility.yul\":13257:13262   */\n      dup2\n        /* \"#utility.yul\":13216:13263   */\n      tag_150\n      jump\t// in\n    tag_308:\n        /* \"#utility.yul\":13098:13269   */\n      swap3\n      swap2\n      pop\n      pop\n      jump\t// out\n        /* \"#utility.yul\":13275:13654   */\n    tag_52:\n        /* \"#utility.yul\":13359:13365   */\n      0x00\n        /* \"#utility.yul\":13408:13410   */\n      0x20\n        /* \"#utility.yul\":13396:13405   */\n      dup3\n        /* \"#utility.yul\":13387:13394   */\n      dup5\n        /* \"#utility.yul\":13383:13406   */\n      sub\n        /* \"#utility.yul\":13379:13411   */\n      slt\n        /* \"#utility.yul\":13376:13495   */\n      iszero\n      tag_310\n      jumpi\n        /* \"#utility.yul\":13414:13493   */\n      tag_311\n      tag_103\n      jump\t// in\n    tag_311:\n        /* \"#utility.yul\":13376:13495   */\n    tag_310:\n        /* \"#utility.yul\":13534:13535   */\n      0x00\n        /* \"#utility.yul\":13559:13637   */\n      tag_312\n        /* \"#utility.yul\":13629:13636   */\n      dup5\n        /* \"#utility.yul\":13620:13626   */\n      dup3\n        /* \"#utility.yul\":13609:13618   */\n      dup6\n        /* \"#utility.yul\":13605:13627   */\n      add\n        /* \"#utility.yul\":13559:13637   */\n      tag_151\n      jump\t// in\n    tag_312:\n        /* \"#utility.yul\":13549:13637   */\n      swap2\n      pop\n        /* \"#utility.yul\":13505:13647   */\n      pop\n        /* \"#utility.yul\":13275:13654   */\n      swap3\n      swap2\n      pop\n      pop\n      jump\t// out\n        /* \"#utility.yul\":13660:13750   */\n    tag_152:\n        /* \"#utility.yul\":13694:13701   */\n      0x00\n        /* \"#utility.yul\":13737:13742   */\n      dup2\n        /* \"#utility.yul\":13730:13743   */\n      iszero\n        /* \"#utility.yul\":13723:13744   */\n      iszero\n        /* \"#utility.yul\":13712:13744   */\n      swap1\n      pop\n        /* \"#utility.yul\":13660:13750   */\n      swap2\n      swap1\n      pop\n      jump\t// out\n        /* \"#utility.yul\":13756:13872   */\n    tag_153:\n        /* \"#utility.yul\":13826:13847   */\n      tag_315\n        /* \"#utility.yul\":13841:13846   */\n      dup2\n        /* \"#utility.yul\":13826:13847   */\n      tag_152\n      jump\t// in\n    tag_315:\n        /* \"#utility.yul\":13819:13824   */\n      dup2\n        /* \"#utility.yul\":13816:13848   */\n      eq\n        /* \"#utility.yul\":13806:13866   */\n      tag_316\n      jumpi\n        /* \"#utility.yul\":13862:13863   */\n      0x00\n        /* \"#utility.yul\":13859:13860   */\n      dup1\n        /* \"#utility.yul\":13852:13864   */\n      revert\n        /* \"#utility.yul\":13806:13866   */\n    tag_316:\n        /* \"#utility.yul\":13756:13872   */\n      pop\n      jump\t// out\n        /* \"#utility.yul\":13878:14015   */\n    tag_154:\n        /* \"#utility.yul\":13932:13937   */\n      0x00\n        /* \"#utility.yul\":13963:13969   */\n      dup2\n        /* \"#utility.yul\":13957:13970   */\n      mload\n        /* \"#utility.yul\":13948:13970   */\n      swap1\n      pop\n        /* \"#utility.yul\":13979:14009   */\n      tag_318\n        /* \"#utility.yul\":14003:14008   */\n      dup2\n        /* \"#utility.yul\":13979:14009   */\n      tag_153\n      jump\t// in\n    tag_318:\n        /* \"#utility.yul\":13878:14015   */\n      swap3\n      swap2\n      pop\n      pop\n      jump\t// out\n        /* \"#utility.yul\":14021:14366   */\n    tag_59:\n        /* \"#utility.yul\":14088:14094   */\n      0x00\n        /* \"#utility.yul\":14137:14139   */\n      0x20\n        /* \"#utility.yul\":14125:14134   */\n      dup3\n        /* \"#utility.yul\":14116:14123   */\n      dup5\n        /* \"#utility.yul\":14112:14135   */\n      sub\n        /* \"#utility.yul\":14108:14140   */\n      slt\n        /* \"#utility.yul\":14105:14224   */\n      iszero\n      tag_320\n      jumpi\n        /* \"#utility.yul\":14143:14222   */\n      tag_321\n      tag_103\n      jump\t// in\n    tag_321:\n        /* \"#utility.yul\":14105:14224   */\n    tag_320:\n        /* \"#utility.yul\":14263:14264   */\n      0x00\n        /* \"#utility.yul\":14288:14349   */\n      tag_322\n        /* \"#utility.yul\":14341:14348   */\n      dup5\n        /* \"#utility.yul\":14332:14338   */\n      dup3\n        /* \"#utility.yul\":14321:14330   */\n      dup6\n        /* \"#utility.yul\":14317:14339   */\n      add\n        /* \"#utility.yul\":14288:14349   */\n      tag_154\n      jump\t// in\n    tag_322:\n        /* \"#utility.yul\":14278:14349   */\n      swap2\n      pop\n        /* \"#utility.yul\":14234:14359   */\n      pop\n        /* \"#utility.yul\":14021:14366   */\n      swap3\n      swap2\n      pop\n      pop\n      jump\t// out\n        /* \"#utility.yul\":14372:14515   */\n    tag_155:\n        /* \"#utility.yul\":14429:14434   */\n      0x00\n        /* \"#utility.yul\":14460:14466   */\n      dup2\n        /* \"#utility.yul\":14454:14467   */\n      mload\n        /* \"#utility.yul\":14445:14467   */\n      swap1\n      pop\n        /* \"#utility.yul\":14476:14509   */\n      tag_324\n        /* \"#utility.yul\":14503:14508   */\n      dup2\n        /* \"#utility.yul\":14476:14509   */\n      tag_117\n      jump\t// in\n    tag_324:\n        /* \"#utility.yul\":14372:14515   */\n      swap3\n      swap2\n      pop\n      pop\n      jump\t// out\n        /* \"#utility.yul\":14521:14872   */\n    tag_64:\n        /* \"#utility.yul\":14591:14597   */\n      0x00\n        /* \"#utility.yul\":14640:14642   */\n      0x20\n        /* \"#utility.yul\":14628:14637   */\n      dup3\n        /* \"#utility.yul\":14619:14626   */\n      dup5\n        /* \"#utility.yul\":14615:14638   */\n      sub\n        /* \"#utility.yul\":14611:14643   */\n      slt\n        /* \"#utility.yul\":14608:14727   */\n      iszero\n      tag_326\n      jumpi\n        /* \"#utility.yul\":14646:14725   */\n      tag_327\n      tag_103\n      jump\t// in\n    tag_327:\n        /* \"#utility.yul\":14608:14727   */\n    tag_326:\n        /* \"#utility.yul\":14766:14767   */\n      0x00\n        /* \"#utility.yul\":14791:14855   */\n      tag_328\n        /* \"#utility.yul\":14847:14854   */\n      dup5\n        /* \"#utility.yul\":14838:14844   */\n      dup3\n        /* \"#utility.yul\":14827:14836   */\n      dup6\n        /* \"#utility.yul\":14823:14845   */\n      add\n        /* \"#utility.yul\":14791:14855   */\n      tag_155\n      jump\t// in\n    tag_328:\n        /* \"#utility.yul\":14781:14855   */\n      swap2\n      pop\n        /* \"#utility.yul\":14737:14865   */\n      pop\n        /* \"#utility.yul\":14521:14872   */\n      swap3\n      swap2\n      pop\n      pop\n      jump\t// out\n        /* \"#utility.yul\":14878:15058   */\n    tag_156:\n        /* \"#utility.yul\":14926:15003   */\n      0x4e487b7100000000000000000000000000000000000000000000000000000000\n        /* \"#utility.yul\":14923:14924   */\n      0x00\n        /* \"#utility.yul\":14916:15004   */\n      mstore\n        /* \"#utility.yul\":15023:15027   */\n      0x11\n        /* \"#utility.yul\":15020:15021   */\n      0x04\n        /* \"#utility.yul\":15013:15028   */\n      mstore\n        /* \"#utility.yul\":15047:15051   */\n      0x24\n        /* \"#utility.yul\":15044:15045   */\n      0x00\n        /* \"#utility.yul\":15037:15052   */\n      revert\n        /* \"#utility.yul\":15064:15297   */\n    tag_68:\n        /* \"#utility.yul\":15103:15106   */\n      0x00\n        /* \"#utility.yul\":15126:15150   */\n      tag_331\n        /* \"#utility.yul\":15144:15149   */\n      dup3\n        /* \"#utility.yul\":15126:15150   */\n      tag_112\n      jump\t// in\n    tag_331:\n        /* \"#utility.yul\":15117:15150   */\n      swap2\n      pop\n        /* \"#utility.yul\":15172:15238   */\n      0xffffffffffffffffffffffffffffffffffffffffffffffffffffffffffffffff\n        /* \"#utility.yul\":15165:15170   */\n      dup3\n        /* \"#utility.yul\":15162:15239   */\n      sub\n        /* \"#utility.yul\":15159:15262   */\n      tag_332\n      jumpi\n        /* \"#utility.yul\":15242:15260   */\n      tag_333\n      tag_156\n      jump\t// in\n    tag_333:\n        /* \"#utility.yul\":15159:15262   */\n    tag_332:\n        /* \"#utility.yul\":15289:15290   */\n      0x01\n        /* \"#utility.yul\":15282:15287   */\n      dup3\n        /* \"#utility.yul\":15278:15291   */\n      add\n        /* \"#utility.yul\":15271:15291   */\n      swap1\n      pop\n        /* \"#utility.yul\":15064:15297   */\n      swap2\n      swap1\n      pop\n      jump\t// out\n        /* \"#utility.yul\":15303:15446   */\n    tag_157:\n        /* \"#utility.yul\":15360:15365   */\n      0x00\n        /* \"#utility.yul\":15391:15397   */\n      dup2\n        /* \"#utility.yul\":15385:15398   */\n      mload\n        /* \"#utility.yul\":15376:15398   */\n      swap1\n      pop\n        /* \"#utility.yul\":15407:15440   */\n      tag_335\n        /* \"#utility.yul\":15434:15439   */\n      dup2\n        /* \"#utility.yul\":15407:15440   */\n      tag_107\n      jump\t// in\n    tag_335:\n        /* \"#utility.yul\":15303:15446   */\n      swap3\n      swap2\n      pop\n      pop\n      jump\t// out\n        /* \"#utility.yul\":15452:15803   */\n    tag_81:\n        /* \"#utility.yul\":15522:15528   */\n      0x00\n        /* \"#utility.yul\":15571:15573   */\n      0x20\n        /* \"#utility.yul\":15559:15568   */\n      dup3\n        /* \"#utility.yul\":15550:15557   */\n      dup5\n        /* \"#utility.yul\":15546:15569   */\n      sub\n        /* \"#utility.yul\":15542:15574   */\n      slt\n        /* \"#utility.yul\":15539:15658   */\n      iszero\n      tag_337\n      jumpi\n        /* \"#utility.yul\":15577:15656   */\n      tag_338\n      tag_103\n      jump\t// in\n    tag_338:\n        /* \"#utility.yul\":15539:15658   */\n    tag_337:\n        /* \"#utility.yul\":15697:15698   */\n      0x00\n        /* \"#utility.yul\":15722:15786   */\n      tag_339\n        /* \"#utility.yul\":15778:15785   */\n      dup5\n        /* \"#utility.yul\":15769:15775   */\n      dup3\n        /* \"#utility.yul\":15758:15767   */\n      dup6\n        /* \"#utility.yul\":15754:15776   */\n      add\n        /* \"#utility.yul\":15722:15786   */\n      tag_157\n      jump\t// in\n    tag_339:\n        /* \"#utility.yul\":15712:15786   */\n      swap2\n      pop\n        /* \"#utility.yul\":15668:15796   */\n      pop\n        /* \"#utility.yul\":15452:15803   */\n      swap3\n      swap2\n      pop\n      pop\n      jump\t// out\n        /* \"#utility.yul\":15809:16243   */\n    tag_158:\n        /* \"#utility.yul\":15898:15903   */\n      0x00\n        /* \"#utility.yul\":15923:15989   */\n      tag_341\n        /* \"#utility.yul\":15939:15988   */\n      tag_342\n        /* \"#utility.yul\":15981:15987   */\n      dup5\n        /* \"#utility.yul\":15939:15988   */\n      tag_137\n      jump\t// in\n    tag_342:\n        /* \"#utility.yul\":15923:15989   */\n      tag_136\n      jump\t// in\n    tag_341:\n        /* \"#utility.yul\":15914:15989   */\n      swap1\n      pop\n        /* \"#utility.yul\":16012:16018   */\n      dup3\n        /* \"#utility.yul\":16005:16010   */\n      dup2\n        /* \"#utility.yul\":15998:16019   */\n      mstore\n        /* \"#utility.yul\":16050:16054   */\n      0x20\n        /* \"#utility.yul\":16043:16048   */\n      dup2\n        /* \"#utility.yul\":16039:16055   */\n      add\n        /* \"#utility.yul\":16088:16091   */\n      dup5\n        /* \"#utility.yul\":16079:16085   */\n      dup5\n        /* \"#utility.yul\":16074:16077   */\n      dup5\n        /* \"#utility.yul\":16070:16086   */\n      add\n        /* \"#utility.yul\":16067:16092   */\n      gt\n        /* \"#utility.yul\":16064:16176   */\n      iszero\n      tag_343\n      jumpi\n        /* \"#utility.yul\":16095:16174   */\n      tag_344\n      tag_133\n      jump\t// in\n    tag_344:\n        /* \"#utility.yul\":16064:16176   */\n    tag_343:\n        /* \"#utility.yul\":16185:16237   */\n      tag_345\n        /* \"#utility.yul\":16230:16236   */\n      dup5\n        /* \"#utility.yul\":16225:16228   */\n      dup3\n        /* \"#utility.yul\":16220:16223   */\n      dup6\n        /* \"#utility.yul\":16185:16237   */\n      tag_125\n      jump\t// in\n    tag_345:\n        /* \"#utility.yul\":15904:16243   */\n      pop\n        /* \"#utility.yul\":15809:16243   */\n      swap4\n      swap3\n      pop\n      pop\n      pop\n      jump\t// out\n        /* \"#utility.yul\":16263:16618   */\n    tag_159:\n        /* \"#utility.yul\":16330:16335   */\n      0x00\n        /* \"#utility.yul\":16379:16382   */\n      dup3\n        /* \"#utility.yul\":16372:16376   */\n      0x1f\n        /* \"#utility.yul\":16364:16370   */\n      dup4\n        /* \"#utility.yul\":16360:16377   */\n      add\n        /* \"#utility.yul\":16356:16383   */\n      slt\n        /* \"#utility.yul\":16346:16468   */\n      tag_347\n      jumpi\n        /* \"#utility.yul\":16387:16466   */\n      tag_348\n      tag_132\n      jump\t// in\n    tag_348:\n        /* \"#utility.yul\":16346:16468   */\n    tag_347:\n        /* \"#utility.yul\":16497:16503   */\n      dup2\n        /* \"#utility.yul\":16491:16504   */\n      mload\n        /* \"#utility.yul\":16522:16612   */\n      tag_349\n        /* \"#utility.yul\":16608:16611   */\n      dup5\n        /* \"#utility.yul\":16600:16606   */\n      dup3\n        /* \"#utility.yul\":16593:16597   */\n      0x20\n        /* \"#utility.yul\":16585:16591   */\n      dup7\n        /* \"#utility.yul\":16581:16598   */\n      add\n        /* \"#utility.yul\":16522:16612   */\n      tag_158\n      jump\t// in\n    tag_349:\n        /* \"#utility.yul\":16513:16612   */\n      swap2\n      pop\n        /* \"#utility.yul\":16336:16618   */\n      pop\n        /* \"#utility.yul\":16263:16618   */\n      swap3\n      swap2\n      pop\n      pop\n      jump\t// out\n        /* \"#utility.yul\":16624:17148   */\n    tag_88:\n        /* \"#utility.yul\":16704:16710   */\n      0x00\n        /* \"#utility.yul\":16753:16755   */\n      0x20\n        /* \"#utility.yul\":16741:16750   */\n      dup3\n        /* \"#utility.yul\":16732:16739   */\n      dup5\n        /* \"#utility.yul\":16728:16751   */\n      sub\n        /* \"#utility.yul\":16724:16756   */\n      slt\n        /* \"#utility.yul\":16721:16840   */\n      iszero\n      tag_351\n      jumpi\n        /* \"#utility.yul\":16759:16838   */\n      tag_352\n      tag_103\n      jump\t// in\n    tag_352:\n        /* \"#utility.yul\":16721:16840   */\n    tag_351:\n        /* \"#utility.yul\":16900:16901   */\n      0x00\n        /* \"#utility.yul\":16889:16898   */\n      dup3\n        /* \"#utility.yul\":16885:16902   */\n      add\n        /* \"#utility.yul\":16879:16903   */\n      mload\n        /* \"#utility.yul\":16930:16948   */\n      0xffffffffffffffff\n        /* \"#utility.yul\":16922:16928   */\n      dup2\n        /* \"#utility.yul\":16919:16949   */\n      gt\n        /* \"#utility.yul\":16916:17033   */\n      iszero\n      tag_353\n      jumpi\n        /* \"#utility.yul\":16952:17031   */\n      tag_354\n      tag_104\n      jump\t// in\n    tag_354:\n        /* \"#utility.yul\":16916:17033   */\n    tag_353:\n        /* \"#utility.yul\":17057:17131   */\n      tag_355\n        /* \"#utility.yul\":17123:17130   */\n      dup5\n        /* \"#utility.yul\":17114:17120   */\n      dup3\n        /* \"#utility.yul\":17103:17112   */\n      dup6\n        /* \"#utility.yul\":17099:17121   */\n      add\n        /* \"#utility.yul\":17057:17131   */\n      tag_159\n      jump\t// in\n    tag_355:\n        /* \"#utility.yul\":17047:17131   */\n      swap2\n      pop\n        /* \"#utility.yul\":16850:17141   */\n      pop\n        /* \"#utility.yul\":16624:17148   */\n      swap3\n      swap2\n      pop\n      pop\n      jump\t// out\n        /* \"#utility.yul\":17154:17687   */\n    tag_96:\n        /* \"#utility.yul\":17323:17327   */\n      0x00\n        /* \"#utility.yul\":17361:17363   */\n      0x60\n        /* \"#utility.yul\":17350:17359   */\n      dup3\n        /* \"#utility.yul\":17346:17364   */\n      add\n        /* \"#utility.yul\":17338:17364   */\n      swap1\n      pop\n        /* \"#utility.yul\":17374:17445   */\n      tag_357\n        /* \"#utility.yul\":17442:17443   */\n      0x00\n        /* \"#utility.yul\":17431:17440   */\n      dup4\n        /* \"#utility.yul\":17427:17444   */\n      add\n        /* \"#utility.yul\":17418:17424   */\n      dup7\n        /* \"#utility.yul\":17374:17445   */\n      tag_119\n      jump\t// in\n    tag_357:\n        /* \"#utility.yul\":17455:17527   */\n      tag_358\n        /* \"#utility.yul\":17523:17525   */\n      0x20\n        /* \"#utility.yul\":17512:17521   */\n      dup4\n        /* \"#utility.yul\":17508:17526   */\n      add\n        /* \"#utility.yul\":17499:17505   */\n      dup6\n        /* \"#utility.yul\":17455:17527   */\n      tag_122\n      jump\t// in\n    tag_358:\n        /* \"#utility.yul\":17574:17583   */\n      dup2\n        /* \"#utility.yul\":17568:17572   */\n      dup2\n        /* \"#utility.yul\":17564:17584   */\n      sub\n        /* \"#utility.yul\":17559:17561   */\n      0x40\n        /* \"#utility.yul\":17548:17557   */\n      dup4\n        /* \"#utility.yul\":17544:17562   */\n      add\n        /* \"#utility.yul\":17537:17585   */\n      mstore\n        /* \"#utility.yul\":17602:17680   */\n      tag_359\n        /* \"#utility.yul\":17675:17679   */\n      dup2\n        /* \"#utility.yul\":17666:17672   */\n      dup5\n        /* \"#utility.yul\":17602:17680   */\n      tag_127\n      jump\t// in\n    tag_359:\n        /* \"#utility.yul\":17594:17680   */\n      swap1\n      pop\n        /* \"#utility.yul\":17154:17687   */\n      swap5\n      swap4\n      pop\n      pop\n      pop\n      pop\n      jump\t// out\n    stop\n\n    sub_0: assembly {\n            /* \"Auction.sol\":62:2492  contract Auction {... */\n          mstore(0x40, 0x80)\n            /* \"Auction.sol\":504:735  constructor(address _seller, uint256 _duration, string memory _name) {... */\n          callvalue\n          dup1\n          iszero\n          tag_1\n          jumpi\n          0x00\n          dup1\n          revert\n        tag_1:\n          pop\n          mload(0x40)\n          sub(codesize, bytecodeSize)\n          dup1\n          bytecodeSize\n          dup4\n          codecopy\n          dup2\n          dup2\n          add\n          0x40\n          mstore\n          dup2\n          add\n          swap1\n          tag_2\n          swap2\n          swap1\n          tag_3\n          jump\t// in\n        tag_2:\n            /* \"Auction.sol\":600:607  _seller */\n          dup3\n            /* \"Auction.sol\":583:589  seller */\n          0x00\n          dup1\n            /* \"Auction.sol\":583:608  seller = payable(_seller) */\n          0x0100\n          exp\n          dup2\n          sload\n          dup2\n          0xffffffffffffffffffffffffffffffffffffffff\n          mul\n          not\n          and\n          swap1\n          dup4\n          0xffffffffffffffffffffffffffffffffffffffff\n          and\n          mul\n          or\n          swap1\n          sstore\n          pop\n            /* \"Auction.sol\":653:662  _duration */\n          dup2\n            /* \"Auction.sol\":635:650  block.timestamp */\n          timestamp\n            /* \"Auction.sol\":635:662  block.timestamp + _duration */\n          tag_6\n          swap2\n          swap1\n          tag_7\n          jump\t// in\n        tag_6:\n            /* \"Auction.sol\":618:632  auctionEndTime */\n          0x01\n            /* \"Auction.sol\":618:662  auctionEndTime = block.timestamp + _duration */\n          dup2\n          swap1\n          sstore\n          pop\n            /* \"Auction.sol\":680:699  AuctionState.Active */\n          0x00\n            /* \"Auction.sol\":672:677  state */\n          0x09\n          0x00\n            /* \"Auction.sol\":672:699  state = AuctionState.Active */\n          0x0100\n          exp\n          dup2\n          sload\n          dup2\n          0xff\n          mul\n          not\n          and\n          swap1\n          dup4\n          0x01\n          dup2\n          gt\n          iszero\n          tag_8\n          jumpi\n          tag_9\n          tag_10\n          jump\t// in\n        tag_9:\n        tag_8:\n          mul\n          or\n          swap1\n          sstore\n          pop\n            /* \"Auction.sol\":723:728  _name */\n          dup1\n            /* \"Auction.sol\":709:720  auctionName */\n          0x04\n            /* \"Auction.sol\":709:728  auctionName = _name */\n          swap1\n          dup2\n          tag_11\n          swap2\n          swap1\n          tag_12\n          jump\t// in\n        tag_11:\n          pop\n            /* \"Auction.sol\":504:735  constructor(address _seller, uint256 _duration, string memory _name) {... */\n          pop\n          pop\n          pop\n            /* \"Auction.sol\":62:2492  contract Auction {... */\n          jump(tag_13)\n            /* \"#utility.yul\":7:82   */\n        tag_14:\n            /* \"#utility.yul\":40:46   */\n          0x00\n            /* \"#utility.yul\":73:75   */\n          0x40\n            /* \"#utility.yul\":67:76   */\n          mload\n            /* \"#utility.yul\":57:76   */\n          swap1\n          pop\n            /* \"#utility.yul\":7:82   */\n          swap1\n          jump\t// out\n            /* \"#utility.yul\":88:205   */\n        tag_15:\n            /* \"#utility.yul\":197:198   */\n          0x00\n            /* \"#utility.yul\":194:195   */\n          dup1\n            /* \"#utility.yul\":187:199   */\n          revert\n            /* \"#utility.yul\":211:328   */\n        tag_16:\n            /* \"#utility.yul\":320:321   */\n          0x00\n            /* \"#utility.yul\":317:318   */\n          dup1\n            /* \"#utility.yul\":310:322   */\n          revert\n            /* \"#utility.yul\":334:460   */\n        tag_17:\n            /* \"#utility.yul\":371:378   */\n          0x00\n            /* \"#utility.yul\":411:453   */\n          0xffffffffffffffffffffffffffffffffffffffff\n            /* \"#utility.yul\":404:409   */\n          dup3\n            /* \"#utility.yul\":400:454   */\n          and\n            /* \"#utility.yul\":389:454   */\n          swap1\n          pop\n            /* \"#utility.yul\":334:460   */\n          swap2\n          swap1\n          pop\n          jump\t// out\n            /* \"#utility.yul\":466:562   */\n        tag_18:\n            /* \"#utility.yul\":503:510   */\n          0x00\n            /* \"#utility.yul\":532:556   */\n          tag_59\n            /* \"#utility.yul\":550:555   */\n          dup3\n            /* \"#utility.yul\":532:556   */\n          tag_17\n          jump\t// in\n        tag_59:\n            /* \"#utility.yul\":521:556   */\n          swap1\n          pop\n            /* \"#utility.yul\":466:562   */\n          swap2\n          swap1\n          pop\n          jump\t// out\n            /* \"#utility.yul\":568:690   */\n        tag_19:\n            /* \"#utility.yul\":641:665   */\n          tag_61\n            /* \"#utility.yul\":659:664   */\n          dup2\n            /* \"#utility.yul\":641:665   */\n          tag_18\n          jump\t// in\n        tag_61:\n            /* \"#utility.yul\":634:639   */\n          dup2\n            /* \"#utility.yul\":631:666   */\n          eq\n            /* \"#utility.yul\":621:684   */\n          tag_62\n          jumpi\n            /* \"#utility.yul\":680:681   */\n          0x00\n            /* \"#utility.yul\":677:678   */\n          dup1\n            /* \"#utility.yul\":670:682   */\n          revert\n            /* \"#utility.yul\":621:684   */\n        tag_62:\n            /* \"#utility.yul\":568:690   */\n          pop\n          jump\t// out\n            /* \"#utility.yul\":696:839   */\n        tag_20:\n            /* \"#utility.yul\":753:758   */\n          0x00\n            /* \"#utility.yul\":784:790   */\n          dup2\n            /* \"#utility.yul\":778:791   */\n          mload\n            /* \"#utility.yul\":769:791   */\n          swap1\n          pop\n            /* \"#utility.yul\":800:833   */\n          tag_64\n            /* \"#utility.yul\":827:832   */\n          dup2\n            /* \"#utility.yul\":800:833   */\n          tag_19\n          jump\t// in\n        tag_64:\n            /* \"#utility.yul\":696:839   */\n          swap3\n          swap2\n          pop\n          pop\n          jump\t// out\n            /* \"#utility.yul\":845:922   */\n        tag_21:\n            /* \"#utility.yul\":882:889   */\n          0x00\n            /* \"#utility.yul\":911:916   */\n          dup2\n            /* \"#utility.yul\":900:916   */\n          swap1\n          pop\n            /* \"#utility.yul\":845:922   */\n          swap2\n          swap1\n          pop\n          jump\t// out\n            /* \"#utility.yul\":928:1050   */\n        tag_22:\n            /* \"#utility.yul\":1001:1025   */\n          tag_67\n            /* \"#utility.yul\":1019:1024   */\n          dup2\n            /* \"#utility.yul\":1001:1025   */\n          tag_21\n          jump\t// in\n        tag_67:\n            /* \"#utility.yul\":994:999   */\n          dup2\n            /* \"#utility.yul\":991:1026   */\n          eq\n            /* \"#utility.yul\":981:1044   */\n          tag_68\n          jumpi\n            /* \"#utility.yul\":1040:1041   */\n          0x00\n            /* \"#utility.yul\":1037:1038   */\n          dup1\n            /* \"#utility.yul\":1030:1042   */\n          revert\n            /* \"#utility.yul\":981:1044   */\n        tag_68:\n            /* \"#utility.yul\":928:1050   */\n          pop\n          jump\t// out\n            /* \"#utility.yul\":1056:1199   */\n        tag_23:\n            /* \"#utility.yul\":1113:1118   */\n          0x00\n            /* \"#utility.yul\":1144:1150   */\n          dup2\n            /* \"#utility.yul\":1138:1151   */\n          mload\n            /* \"#utility.yul\":1129:1151   */\n          swap1\n          pop\n            /* \"#utility.yul\":1160:1193   */\n          tag_70\n            /* \"#utility.yul\":1187:1192   */\n          dup2\n            /* \"#utility.yul\":1160:1193   */\n          tag_22\n          jump\t// in\n        tag_70:\n            /* \"#utility.yul\":1056:1199   */\n          swap3\n          swap2\n          pop\n          pop\n          jump\t// out\n            /* \"#utility.yul\":1205:1322   */\n        tag_24:\n            /* \"#utility.yul\":1314:1315   */\n          0x00\n            /* \"#utility.yul\":1311:1312   */\n          dup1\n            /* \"#utility.yul\":1304:1316   */\n          revert\n            /* \"#utility.yul\":1328:1445   */\n        tag_25:\n            /* \"#utility.yul\":1437:1438   */\n          0x00\n            /* \"#utility.yul\":1434:1435   */\n          dup1\n            /* \"#utility.yul\":1427:1439   */\n          revert\n            /* \"#utility.yul\":1451:1553   */\n        tag_26:\n            /* \"#utility.yul\":1492:1498   */\n          0x00\n            /* \"#utility.yul\":1543:1545   */\n          0x1f\n            /* \"#utility.yul\":1539:1546   */\n          not\n            /* \"#utility.yul\":1534:1536   */\n          0x1f\n            /* \"#utility.yul\":1527:1532   */\n          dup4\n            /* \"#utility.yul\":1523:1537   */\n          add\n            /* \"#utility.yul\":1519:1547   */\n          and\n            /* \"#utility.yul\":1509:1547   */\n          swap1\n          pop\n            /* \"#utility.yul\":1451:1553   */\n          swap2\n          swap1\n          pop\n          jump\t// out\n            /* \"#utility.yul\":1559:1739   */\n        tag_27:\n            /* \"#utility.yul\":1607:1684   */\n          0x4e487b7100000000000000000000000000000000000000000000000000000000\n            /* \"#utility.yul\":1604:1605   */\n          0x00\n            /* \"#utility.yul\":1597:1685   */\n          mstore\n            /* \"#utility.yul\":1704:1708   */\n          0x41\n            /* \"#utility.yul\":1701:1702   */\n          0x04\n            /* \"#utility.yul\":1694:1709   */\n          mstore\n            /* \"#utility.yul\":1728:1732   */\n          0x24\n            /* \"#utility.yul\":1725:1726   */\n          0x00\n            /* \"#utility.yul\":1718:1733   */\n          revert\n            /* \"#utility.yul\":1745:2026   */\n        tag_28:\n            /* \"#utility.yul\":1828:1855   */\n          tag_76\n            /* \"#utility.yul\":1850:1854   */\n          dup3\n            /* \"#utility.yul\":1828:1855   */\n          tag_26\n          jump\t// in\n        tag_76:\n            /* \"#utility.yul\":1820:1826   */\n          dup2\n            /* \"#utility.yul\":1816:1856   */\n          add\n            /* \"#utility.yul\":1958:1964   */\n          dup2\n            /* \"#utility.yul\":1946:1956   */\n          dup2\n            /* \"#utility.yul\":1943:1965   */\n          lt\n            /* \"#utility.yul\":1922:1940   */\n          0xffffffffffffffff\n            /* \"#utility.yul\":1910:1920   */\n          dup3\n            /* \"#utility.yul\":1907:1941   */\n          gt\n            /* \"#utility.yul\":1904:1966   */\n          or\n            /* \"#utility.yul\":1901:1989   */\n          iszero\n          tag_77\n          jumpi\n            /* \"#utility.yul\":1969:1987   */\n          tag_78\n          tag_27\n          jump\t// in\n        tag_78:\n            /* \"#utility.yul\":1901:1989   */\n        tag_77:\n            /* \"#utility.yul\":2009:2019   */\n          dup1\n            /* \"#utility.yul\":2005:2007   */\n          0x40\n            /* \"#utility.yul\":1998:2020   */\n          mstore\n            /* \"#utility.yul\":1788:2026   */\n          pop\n            /* \"#utility.yul\":1745:2026   */\n          pop\n          pop\n          jump\t// out\n            /* \"#utility.yul\":2032:2161   */\n        tag_29:\n            /* \"#utility.yul\":2066:2072   */\n          0x00\n            /* \"#utility.yul\":2093:2113   */\n          tag_80\n          tag_14\n          jump\t// in\n        tag_80:\n            /* \"#utility.yul\":2083:2113   */\n          swap1\n          pop\n            /* \"#utility.yul\":2122:2155   */\n          tag_81\n            /* \"#utility.yul\":2150:2154   */\n          dup3\n            /* \"#utility.yul\":2142:2148   */\n          dup3\n            /* \"#utility.yul\":2122:2155   */\n          tag_28\n          jump\t// in\n        tag_81:\n            /* \"#utility.yul\":2032:2161   */\n          swap2\n          swap1\n          pop\n          jump\t// out\n            /* \"#utility.yul\":2167:2475   */\n        tag_30:\n            /* \"#utility.yul\":2229:2233   */\n          0x00\n            /* \"#utility.yul\":2319:2337   */\n          0xffffffffffffffff\n            /* \"#utility.yul\":2311:2317   */\n          dup3\n            /* \"#utility.yul\":2308:2338   */\n          gt\n            /* \"#utility.yul\":2305:2361   */\n          iszero\n          tag_83\n          jumpi\n            /* \"#utility.yul\":2341:2359   */\n          tag_84\n          tag_27\n          jump\t// in\n        tag_84:\n            /* \"#utility.yul\":2305:2361   */\n        tag_83:\n            /* \"#utility.yul\":2379:2408   */\n          tag_85\n            /* \"#utility.yul\":2401:2407   */\n          dup3\n            /* \"#utility.yul\":2379:2408   */\n          tag_26\n          jump\t// in\n        tag_85:\n            /* \"#utility.yul\":2371:2408   */\n          swap1\n          pop\n            /* \"#utility.yul\":2463:2467   */\n          0x20\n            /* \"#utility.yul\":2457:2461   */\n          dup2\n            /* \"#utility.yul\":2453:2468   */\n          add\n            /* \"#utility.yul\":2445:2468   */\n          swap1\n          pop\n            /* \"#utility.yul\":2167:2475   */\n          swap2\n          swap1\n          pop\n          jump\t// out\n            /* \"#utility.yul\":2481:2727   */\n        tag_31:\n            /* \"#utility.yul\":2562:2563   */\n          0x00\n            /* \"#utility.yul\":2572:2685   */\n        tag_87:\n            /* \"#utility.yul\":2586:2592   */\n          dup4\n            /* \"#utility.yul\":2583:2584   */\n          dup2\n            /* \"#utility.yul\":2580:2593   */\n          lt\n            /* \"#utility.yul\":2572:2685   */\n          iszero\n          tag_89\n          jumpi\n            /* \"#utility.yul\":2671:2672   */\n          dup1\n            /* \"#utility.yul\":2666:2669   */\n          dup3\n            /* \"#utility.yul\":2662:2673   */\n          add\n            /* \"#utility.yul\":2656:2674   */\n          mload\n            /* \"#utility.yul\":2652:2653   */\n          dup2\n            /* \"#utility.yul\":2647:2650   */\n          dup5\n            /* \"#utility.yul\":2643:2654   */\n          add\n            /* \"#utility.yul\":2636:2675   */\n          mstore\n            /* \"#utility.yul\":2608:2610   */\n          0x20\n            /* \"#utility.yul\":2605:2606   */\n          dup2\n            /* \"#utility.yul\":2601:2611   */\n          add\n            /* \"#utility.yul\":2596:2611   */\n          swap1\n          pop\n            /* \"#utility.yul\":2572:2685   */\n          jump(tag_87)\n        tag_89:\n            /* \"#utility.yul\":2719:2720   */\n          0x00\n            /* \"#utility.yul\":2710:2716   */\n          dup5\n            /* \"#utility.yul\":2705:2708   */\n          dup5\n            /* \"#utility.yul\":2701:2717   */\n          add\n            /* \"#utility.yul\":2694:2721   */\n          mstore\n            /* \"#utility.yul\":2543:2727   */\n          pop\n            /* \"#utility.yul\":2481:2727   */\n          pop\n          pop\n          pop\n          jump\t// out\n            /* \"#utility.yul\":2733:3167   */\n        tag_32:\n            /* \"#utility.yul\":2822:2827   */\n          0x00\n            /* \"#utility.yul\":2847:2913   */\n          tag_91\n            /* \"#utility.yul\":2863:2912   */\n          tag_92\n            /* \"#utility.yul\":2905:2911   */\n          dup5\n            /* \"#utility.yul\":2863:2912   */\n          tag_30\n          jump\t// in\n        tag_92:\n            /* \"#utility.yul\":2847:2913   */\n          tag_29\n          jump\t// in\n        tag_91:\n            /* \"#utility.yul\":2838:2913   */\n          swap1\n          pop\n            /* \"#utility.yul\":2936:2942   */\n          dup3\n            /* \"#utility.yul\":2929:2934   */\n          dup2\n            /* \"#utility.yul\":2922:2943   */\n          mstore\n            /* \"#utility.yul\":2974:2978   */\n          0x20\n            /* \"#utility.yul\":2967:2972   */\n          dup2\n            /* \"#utility.yul\":2963:2979   */\n          add\n            /* \"#utility.yul\":3012:3015   */\n          dup5\n            /* \"#utility.yul\":3003:3009   */\n          dup5\n            /* \"#utility.yul\":2998:3001   */\n          dup5\n            /* \"#utility.yul\":2994:3010   */\n          add\n            /* \"#utility.yul\":2991:3016   */\n          gt\n            /* \"#utility.yul\":2988:3100   */\n          iszero\n          tag_93\n          jumpi\n            /* \"#utility.yul\":3019:3098   */\n          tag_94\n          tag_25\n          jump\t// in\n        tag_94:\n            /* \"#utility.yul\":2988:3100   */\n        tag_93:\n            /* \"#utility.yul\":3109:3161   */\n          tag_95\n            /* \"#utility.yul\":3154:3160   */\n          dup5\n            /* \"#utility.yul\":3149:3152   */\n          dup3\n            /* \"#utility.yul\":3144:3147   */\n          dup6\n            /* \"#utility.yul\":3109:3161   */\n          tag_31\n          jump\t// in\n        tag_95:\n            /* \"#utility.yul\":2828:3167   */\n          pop\n            /* \"#utility.yul\":2733:3167   */\n          swap4\n          swap3\n          pop\n          pop\n          pop\n          jump\t// out\n            /* \"#utility.yul\":3187:3542   */\n        tag_33:\n            /* \"#utility.yul\":3254:3259   */\n          0x00\n            /* \"#utility.yul\":3303:3306   */\n          dup3\n            /* \"#utility.yul\":3296:3300   */\n          0x1f\n            /* \"#utility.yul\":3288:3294   */\n          dup4\n            /* \"#utility.yul\":3284:3301   */\n          add\n            /* \"#utility.yul\":3280:3307   */\n          slt\n            /* \"#utility.yul\":3270:3392   */\n          tag_97\n          jumpi\n            /* \"#utility.yul\":3311:3390   */\n          tag_98\n          tag_24\n          jump\t// in\n        tag_98:\n            /* \"#utility.yul\":3270:3392   */\n        tag_97:\n            /* \"#utility.yul\":3421:3427   */\n          dup2\n            /* \"#utility.yul\":3415:3428   */\n          mload\n            /* \"#utility.yul\":3446:3536   */\n          tag_99\n            /* \"#utility.yul\":3532:3535   */\n          dup5\n            /* \"#utility.yul\":3524:3530   */\n          dup3\n            /* \"#utility.yul\":3517:3521   */\n          0x20\n            /* \"#utility.yul\":3509:3515   */\n          dup7\n            /* \"#utility.yul\":3505:3522   */\n          add\n            /* \"#utility.yul\":3446:3536   */\n          tag_32\n          jump\t// in\n        tag_99:\n            /* \"#utility.yul\":3437:3536   */\n          swap2\n          pop\n            /* \"#utility.yul\":3260:3542   */\n          pop\n            /* \"#utility.yul\":3187:3542   */\n          swap3\n          swap2\n          pop\n          pop\n          jump\t// out\n            /* \"#utility.yul\":3548:4384   */\n        tag_3:\n            /* \"#utility.yul\":3646:3652   */\n          0x00\n            /* \"#utility.yul\":3654:3660   */\n          dup1\n            /* \"#utility.yul\":3662:3668   */\n          0x00\n            /* \"#utility.yul\":3711:3713   */\n          0x60\n            /* \"#utility.yul\":3699:3708   */\n          dup5\n            /* \"#utility.yul\":3690:3697   */\n          dup7\n            /* \"#utility.yul\":3686:3709   */\n          sub\n            /* \"#utility.yul\":3682:3714   */\n          slt\n            /* \"#utility.yul\":3679:3798   */\n          iszero\n          tag_101\n          jumpi\n            /* \"#utility.yul\":3717:3796   */\n          tag_102\n          tag_15\n          jump\t// in\n        tag_102:\n            /* \"#utility.yul\":3679:3798   */\n        tag_101:\n            /* \"#utility.yul\":3837:3838   */\n          0x00\n            /* \"#utility.yul\":3862:3926   */\n          tag_103\n            /* \"#utility.yul\":3918:3925   */\n          dup7\n            /* \"#utility.yul\":3909:3915   */\n          dup3\n            /* \"#utility.yul\":3898:3907   */\n          dup8\n            /* \"#utility.yul\":3894:3916   */\n          add\n            /* \"#utility.yul\":3862:3926   */\n          tag_20\n          jump\t// in\n        tag_103:\n            /* \"#utility.yul\":3852:3926   */\n          swap4\n          pop\n            /* \"#utility.yul\":3808:3936   */\n          pop\n            /* \"#utility.yul\":3975:3977   */\n          0x20\n            /* \"#utility.yul\":4001:4065   */\n          tag_104\n            /* \"#utility.yul\":4057:4064   */\n          dup7\n            /* \"#utility.yul\":4048:4054   */\n          dup3\n            /* \"#utility.yul\":4037:4046   */\n          dup8\n            /* \"#utility.yul\":4033:4055   */\n          add\n            /* \"#utility.yul\":4001:4065   */\n          tag_23\n          jump\t// in\n        tag_104:\n            /* \"#utility.yul\":3991:4065   */\n          swap3\n          pop\n            /* \"#utility.yul\":3946:4075   */\n          pop\n            /* \"#utility.yul\":4135:4137   */\n          0x40\n            /* \"#utility.yul\":4124:4133   */\n          dup5\n            /* \"#utility.yul\":4120:4138   */\n          add\n            /* \"#utility.yul\":4114:4139   */\n          mload\n            /* \"#utility.yul\":4166:4184   */\n          0xffffffffffffffff\n            /* \"#utility.yul\":4158:4164   */\n          dup2\n            /* \"#utility.yul\":4155:4185   */\n          gt\n            /* \"#utility.yul\":4152:4269   */\n          iszero\n          tag_105\n          jumpi\n            /* \"#utility.yul\":4188:4267   */\n          tag_106\n          tag_16\n          jump\t// in\n        tag_106:\n            /* \"#utility.yul\":4152:4269   */\n        tag_105:\n            /* \"#utility.yul\":4293:4367   */\n          tag_107\n            /* \"#utility.yul\":4359:4366   */\n          dup7\n            /* \"#utility.yul\":4350:4356   */\n          dup3\n            /* \"#utility.yul\":4339:4348   */\n          dup8\n            /* \"#utility.yul\":4335:4357   */\n          add\n            /* \"#utility.yul\":4293:4367   */\n          tag_33\n          jump\t// in\n        tag_107:\n            /* \"#utility.yul\":4283:4367   */\n          swap2\n          pop\n            /* \"#utility.yul\":4085:4377   */\n          pop\n            /* \"#utility.yul\":3548:4384   */\n          swap3\n          pop\n          swap3\n          pop\n          swap3\n          jump\t// out\n            /* \"#utility.yul\":4390:4570   */\n        tag_34:\n            /* \"#utility.yul\":4438:4515   */\n          0x4e487b7100000000000000000000000000000000000000000000000000000000\n            /* \"#utility.yul\":4435:4436   */\n          0x00\n            /* \"#utility.yul\":4428:4516   */\n          mstore\n            /* \"#utility.yul\":4535:4539   */\n          0x11\n            /* \"#utility.yul\":4532:4533   */\n          0x04\n            /* \"#utility.yul\":4525:4540   */\n          mstore\n            /* \"#utility.yul\":4559:4563   */\n          0x24\n            /* \"#utility.yul\":4556:4557   */\n          0x00\n            /* \"#utility.yul\":4549:4564   */\n          revert\n            /* \"#utility.yul\":4576:4767   */\n        tag_7:\n            /* \"#utility.yul\":4616:4619   */\n          0x00\n            /* \"#utility.yul\":4635:4655   */\n          tag_110\n            /* \"#utility.yul\":4653:4654   */\n          dup3\n            /* \"#utility.yul\":4635:4655   */\n          tag_21\n          jump\t// in\n        tag_110:\n            /* \"#utility.yul\":4630:4655   */\n          swap2\n          pop\n            /* \"#utility.yul\":4669:4689   */\n          tag_111\n            /* \"#utility.yul\":4687:4688   */\n          dup4\n            /* \"#utility.yul\":4669:4689   */\n          tag_21\n          jump\t// in\n        tag_111:\n            /* \"#utility.yul\":4664:4689   */\n          swap3\n          pop\n            /* \"#utility.yul\":4712:4713   */\n          dup3\n            /* \"#utility.yul\":4709:4710   */\n          dup3\n            /* \"#utility.yul\":4705:4714   */\n          add\n            /* \"#utility.yul\":4698:4714   */\n          swap1\n          pop\n            /* \"#utility.yul\":4733:4736   */\n          dup1\n            /* \"#utility.yul\":4730:4731   */\n          dup3\n            /* \"#utility.yul\":4727:4737   */\n          gt\n            /* \"#utility.yul\":4724:4760   */\n          iszero\n          tag_112\n          jumpi\n            /* \"#utility.yul\":4740:4758   */\n          tag_113\n          tag_34\n          jump\t// in\n        tag_113:\n            /* \"#utility.yul\":4724:4760   */\n        tag_112:\n            /* \"#utility.yul\":4576:4767   */\n          swap3\n          swap2\n          pop\n          pop\n          jump\t// out\n            /* \"#utility.yul\":4773:4953   */\n        tag_10:\n            /* \"#utility.yul\":4821:4898   */\n          0x4e487b7100000000000000000000000000000000000000000000000000000000\n            /* \"#utility.yul\":4818:4819   */\n          0x00\n            /* \"#utility.yul\":4811:4899   */\n          mstore\n            /* \"#utility.yul\":4918:4922   */\n          0x21\n            /* \"#utility.yul\":4915:4916   */\n          0x04\n            /* \"#utility.yul\":4908:4923   */\n          mstore\n            /* \"#utility.yul\":4942:4946   */\n          0x24\n            /* \"#utility.yul\":4939:4940   */\n          0x00\n            /* \"#utility.yul\":4932:4947   */\n          revert\n            /* \"#utility.yul\":4959:5058   */\n        tag_35:\n            /* \"#utility.yul\":5011:5017   */\n          0x00\n            /* \"#utility.yul\":5045:5050   */\n          dup2\n            /* \"#utility.yul\":5039:5051   */\n          mload\n            /* \"#utility.yul\":5029:5051   */\n          swap1\n          pop\n            /* \"#utility.yul\":4959:5058   */\n          swap2\n          swap1\n          pop\n          jump\t// out\n            /* \"#utility.yul\":5064:5244   */\n        tag_36:\n            /* \"#utility.yul\":5112:5189   */\n          0x4e487b7100000000000000000000000000000000000000000000000000000000\n            /* \"#utility.yul\":5109:5110   */\n          0x00\n            /* \"#utility.yul\":5102:5190   */\n          mstore\n            /* \"#utility.yul\":5209:5213   */\n          0x22\n            /* \"#utility.yul\":5206:5207   */\n          0x04\n            /* \"#utility.yul\":5199:5214   */\n          mstore\n            /* \"#utility.yul\":5233:5237   */\n          0x24\n            /* \"#utility.yul\":5230:5231   */\n          0x00\n            /* \"#utility.yul\":5223:5238   */\n          revert\n            /* \"#utility.yul\":5250:5570   */\n        tag_37:\n            /* \"#utility.yul\":5294:5300   */\n          0x00\n            /* \"#utility.yul\":5331:5332   */\n          0x02\n            /* \"#utility.yul\":5325:5329   */\n          dup3\n            /* \"#utility.yul\":5321:5333   */\n          div\n            /* \"#utility.yul\":5311:5333   */\n          swap1\n          pop\n            /* \"#utility.yul\":5378:5379   */\n          0x01\n            /* \"#utility.yul\":5372:5376   */\n          dup3\n            /* \"#utility.yul\":5368:5380   */\n          and\n            /* \"#utility.yul\":5399:5417   */\n          dup1\n            /* \"#utility.yul\":5389:5470   */\n          tag_118\n          jumpi\n            /* \"#utility.yul\":5455:5459   */\n          0x7f\n            /* \"#utility.yul\":5447:5453   */\n          dup3\n            /* \"#utility.yul\":5443:5460   */\n          and\n            /* \"#utility.yul\":5433:5460   */\n          swap2\n          pop\n            /* \"#utility.yul\":5389:5470   */\n        tag_118:\n            /* \"#utility.yul\":5517:5519   */\n          0x20\n            /* \"#utility.yul\":5509:5515   */\n          dup3\n            /* \"#utility.yul\":5506:5520   */\n          lt\n            /* \"#utility.yul\":5486:5504   */\n          dup2\n            /* \"#utility.yul\":5483:5521   */\n          sub\n            /* \"#utility.yul\":5480:5564   */\n          tag_119\n          jumpi\n            /* \"#utility.yul\":5536:5554   */\n          tag_120\n          tag_36\n          jump\t// in\n        tag_120:\n            /* \"#utility.yul\":5480:5564   */\n        tag_119:\n            /* \"#utility.yul\":5301:5570   */\n          pop\n            /* \"#utility.yul\":5250:5570   */\n          swap2\n          swap1\n          pop\n          jump\t// out\n            /* \"#utility.yul\":5576:5717   */\n        tag_38:\n            /* \"#utility.yul\":5625:5629   */\n          0x00\n            /* \"#utility.yul\":5648:5651   */\n          dup2\n            /* \"#utility.yul\":5640:5651   */\n          swap1\n          pop\n            /* \"#utility.yul\":5671:5674   */\n          dup2\n            /* \"#utility.yul\":5668:5669   */\n          0x00\n            /* \"#utility.yul\":5661:5675   */\n          mstore\n            /* \"#utility.yul\":5705:5709   */\n          0x20\n            /* \"#utility.yul\":5702:5703   */\n          0x00\n            /* \"#utility.yul\":5692:5710   */\n          keccak256\n            /* \"#utility.yul\":5684:5710   */\n          swap1\n          pop\n            /* \"#utility.yul\":5576:5717   */\n          swap2\n          swap1\n          pop\n          jump\t// out\n            /* \"#utility.yul\":5723:5816   */\n        tag_39:\n            /* \"#utility.yul\":5760:5766   */\n          0x00\n            /* \"#utility.yul\":5807:5809   */\n          0x20\n            /* \"#utility.yul\":5802:5804   */\n          0x1f\n            /* \"#utility.yul\":5795:5800   */\n          dup4\n            /* \"#utility.yul\":5791:5805   */\n          add\n            /* \"#utility.yul\":5787:5810   */\n          div\n            /* \"#utility.yul\":5777:5810   */\n          swap1\n          pop\n            /* \"#utility.yul\":5723:5816   */\n          swap2\n          swap1\n          pop\n          jump\t// out\n            /* \"#utility.yul\":5822:5929   */\n        tag_40:\n            /* \"#utility.yul\":5866:5874   */\n          0x00\n            /* \"#utility.yul\":5916:5921   */\n          dup3\n            /* \"#utility.yul\":5910:5914   */\n          dup3\n            /* \"#utility.yul\":5906:5922   */\n          shl\n            /* \"#utility.yul\":5885:5922   */\n          swap1\n          pop\n            /* \"#utility.yul\":5822:5929   */\n          swap3\n          swap2\n          pop\n          pop\n          jump\t// out\n            /* \"#utility.yul\":5935:6328   */\n        tag_41:\n            /* \"#utility.yul\":6004:6010   */\n          0x00\n            /* \"#utility.yul\":6054:6055   */\n          0x08\n            /* \"#utility.yul\":6042:6052   */\n          dup4\n            /* \"#utility.yul\":6038:6056   */\n          mul\n            /* \"#utility.yul\":6077:6174   */\n          tag_125\n            /* \"#utility.yul\":6107:6173   */\n          0xffffffffffffffffffffffffffffffffffffffffffffffffffffffffffffffff\n            /* \"#utility.yul\":6096:6105   */\n          dup3\n            /* \"#utility.yul\":6077:6174   */\n          tag_40\n          jump\t// in\n        tag_125:\n            /* \"#utility.yul\":6195:6234   */\n          tag_126\n            /* \"#utility.yul\":6225:6233   */\n          dup7\n            /* \"#utility.yul\":6214:6223   */\n          dup4\n            /* \"#utility.yul\":6195:6234   */\n          tag_40\n          jump\t// in\n        tag_126:\n            /* \"#utility.yul\":6183:6234   */\n          swap6\n          pop\n            /* \"#utility.yul\":6267:6271   */\n          dup1\n            /* \"#utility.yul\":6263:6272   */\n          not\n            /* \"#utility.yul\":6256:6261   */\n          dup5\n            /* \"#utility.yul\":6252:6273   */\n          and\n            /* \"#utility.yul\":6243:6273   */\n          swap4\n          pop\n            /* \"#utility.yul\":6316:6320   */\n          dup1\n            /* \"#utility.yul\":6306:6314   */\n          dup7\n            /* \"#utility.yul\":6302:6321   */\n          and\n            /* \"#utility.yul\":6295:6300   */\n          dup5\n            /* \"#utility.yul\":6292:6322   */\n          or\n            /* \"#utility.yul\":6282:6322   */\n          swap3\n          pop\n            /* \"#utility.yul\":6011:6328   */\n          pop\n          pop\n            /* \"#utility.yul\":5935:6328   */\n          swap4\n          swap3\n          pop\n          pop\n          pop\n          jump\t// out\n            /* \"#utility.yul\":6334:6394   */\n        tag_42:\n            /* \"#utility.yul\":6362:6365   */\n          0x00\n            /* \"#utility.yul\":6383:6388   */\n          dup2\n            /* \"#utility.yul\":6376:6388   */\n          swap1\n          pop\n            /* \"#utility.yul\":6334:6394   */\n          swap2\n          swap1\n          pop\n          jump\t// out\n            /* \"#utility.yul\":6400:6542   */\n        tag_43:\n            /* \"#utility.yul\":6450:6459   */\n          0x00\n            /* \"#utility.yul\":6483:6536   */\n          tag_129\n            /* \"#utility.yul\":6501:6535   */\n          tag_130\n            /* \"#utility.yul\":6510:6534   */\n          tag_131\n            /* \"#utility.yul\":6528:6533   */\n          dup5\n            /* \"#utility.yul\":6510:6534   */\n          tag_21\n          jump\t// in\n        tag_131:\n            /* \"#utility.yul\":6501:6535   */\n          tag_42\n          jump\t// in\n        tag_130:\n            /* \"#utility.yul\":6483:6536   */\n          tag_21\n          jump\t// in\n        tag_129:\n            /* \"#utility.yul\":6470:6536   */\n          swap1\n          pop\n            /* \"#utility.yul\":6400:6542   */\n          swap2\n          swap1\n          pop\n          jump\t// out\n            /* \"#utility.yul\":6548:6623   */\n        tag_44:\n            /* \"#utility.yul\":6591:6594   */\n          0x00\n            /* \"#utility.yul\":6612:6617   */\n          dup2\n            /* \"#utility.yul\":6605:6617   */\n          swap1\n          pop\n            /* \"#utility.yul\":6548:6623   */\n          swap2\n          swap1\n          pop\n          jump\t// out\n            /* \"#utility.yul\":6629:6898   */\n        tag_45:\n            /* \"#utility.yul\":6739:6778   */\n          tag_134\n            /* \"#utility.yul\":6770:6777   */\n          dup4\n            /* \"#utility.yul\":6739:6778   */\n          tag_43\n          jump\t// in\n        tag_134:\n            /* \"#utility.yul\":6800:6891   */\n          tag_135\n            /* \"#utility.yul\":6849:6890   */\n          tag_136\n            /* \"#utility.yul\":6873:6889   */\n          dup3\n            /* \"#utility.yul\":6849:6890   */\n          tag_44\n          jump\t// in\n        tag_136:\n            /* \"#utility.yul\":6841:6847   */\n          dup5\n            /* \"#utility.yul\":6834:6838   */\n          dup5\n            /* \"#utility.yul\":6828:6839   */\n          sload\n            /* \"#utility.yul\":6800:6891   */\n          tag_41\n          jump\t// in\n        tag_135:\n            /* \"#utility.yul\":6794:6798   */\n          dup3\n            /* \"#utility.yul\":6787:6892   */\n          sstore\n            /* \"#utility.yul\":6705:6898   */\n          pop\n            /* \"#utility.yul\":6629:6898   */\n          pop\n          pop\n          pop\n          jump\t// out\n            /* \"#utility.yul\":6904:6977   */\n        tag_46:\n            /* \"#utility.yul\":6949:6952   */\n          0x00\n            /* \"#utility.yul\":6904:6977   */\n          swap1\n          jump\t// out\n            /* \"#utility.yul\":6983:7172   */\n        tag_47:\n            /* \"#utility.yul\":7060:7092   */\n          tag_139\n          tag_46\n          jump\t// in\n        tag_139:\n            /* \"#utility.yul\":7101:7166   */\n          tag_140\n            /* \"#utility.yul\":7159:7165   */\n          dup2\n            /* \"#utility.yul\":7151:7157   */\n          dup5\n            /* \"#utility.yul\":7145:7149   */\n          dup5\n            /* \"#utility.yul\":7101:7166   */\n          tag_45\n          jump\t// in\n        tag_140:\n            /* \"#utility.yul\":7036:7172   */\n          pop\n            /* \"#utility.yul\":6983:7172   */\n          pop\n          pop\n          jump\t// out\n            /* \"#utility.yul\":7178:7364   */\n        tag_48:\n            /* \"#utility.yul\":7238:7358   */\n        tag_142:\n            /* \"#utility.yul\":7255:7258   */\n          dup2\n            /* \"#utility.yul\":7248:7253   */\n          dup2\n            /* \"#utility.yul\":7245:7259   */\n          lt\n            /* \"#utility.yul\":7238:7358   */\n          iszero\n          tag_144\n          jumpi\n            /* \"#utility.yul\":7309:7348   */\n          tag_145\n            /* \"#utility.yul\":7346:7347   */\n          0x00\n            /* \"#utility.yul\":7339:7344   */\n          dup3\n            /* \"#utility.yul\":7309:7348   */\n          tag_47\n          jump\t// in\n        tag_145:\n            /* \"#utility.yul\":7282:7283   */\n          0x01\n            /* \"#utility.yul\":7275:7280   */\n          dup2\n            /* \"#utility.yul\":7271:7284   */\n          add\n            /* \"#utility.yul\":7262:7284   */\n          swap1\n          pop\n            /* \"#utility.yul\":7238:7358   */\n          jump(tag_142)\n        tag_144:\n            /* \"#utility.yul\":7178:7364   */\n          pop\n          pop\n          jump\t// out\n            /* \"#utility.yul\":7370:7913   */\n        tag_49:\n            /* \"#utility.yul\":7471:7473   */\n          0x1f\n            /* \"#utility.yul\":7466:7469   */\n          dup3\n            /* \"#utility.yul\":7463:7474   */\n          gt\n            /* \"#utility.yul\":7460:7906   */\n          iszero\n          tag_147\n          jumpi\n            /* \"#utility.yul\":7505:7543   */\n          tag_148\n            /* \"#utility.yul\":7537:7542   */\n          dup2\n            /* \"#utility.yul\":7505:7543   */\n          tag_38\n          jump\t// in\n        tag_148:\n            /* \"#utility.yul\":7589:7618   */\n          tag_149\n            /* \"#utility.yul\":7607:7617   */\n          dup5\n            /* \"#utility.yul\":7589:7618   */\n          tag_39\n          jump\t// in\n        tag_149:\n            /* \"#utility.yul\":7579:7587   */\n          dup2\n            /* \"#utility.yul\":7575:7619   */\n          add\n            /* \"#utility.yul\":7772:7774   */\n          0x20\n            /* \"#utility.yul\":7760:7770   */\n          dup6\n            /* \"#utility.yul\":7757:7775   */\n          lt\n            /* \"#utility.yul\":7754:7803   */\n          iszero\n          tag_150\n          jumpi\n            /* \"#utility.yul\":7793:7801   */\n          dup2\n            /* \"#utility.yul\":7778:7801   */\n          swap1\n          pop\n            /* \"#utility.yul\":7754:7803   */\n        tag_150:\n            /* \"#utility.yul\":7816:7896   */\n          tag_151\n            /* \"#utility.yul\":7872:7894   */\n          tag_152\n            /* \"#utility.yul\":7890:7893   */\n          dup6\n            /* \"#utility.yul\":7872:7894   */\n          tag_39\n          jump\t// in\n        tag_152:\n            /* \"#utility.yul\":7862:7870   */\n          dup4\n            /* \"#utility.yul\":7858:7895   */\n          add\n            /* \"#utility.yul\":7845:7856   */\n          dup3\n            /* \"#utility.yul\":7816:7896   */\n          tag_48\n          jump\t// in\n        tag_151:\n            /* \"#utility.yul\":7475:7906   */\n          pop\n          pop\n            /* \"#utility.yul\":7460:7906   */\n        tag_147:\n            /* \"#utility.yul\":7370:7913   */\n          pop\n          pop\n          pop\n          jump\t// out\n            /* \"#utility.yul\":7919:8036   */\n        tag_50:\n            /* \"#utility.yul\":7973:7981   */\n          0x00\n            /* \"#utility.yul\":8023:8028   */\n          dup3\n            /* \"#utility.yul\":8017:8021   */\n          dup3\n            /* \"#utility.yul\":8013:8029   */\n          shr\n            /* \"#utility.yul\":7992:8029   */\n          swap1\n          pop\n            /* \"#utility.yul\":7919:8036   */\n          swap3\n          swap2\n          pop\n          pop\n          jump\t// out\n            /* \"#utility.yul\":8042:8211   */\n        tag_51:\n            /* \"#utility.yul\":8086:8092   */\n          0x00\n            /* \"#utility.yul\":8119:8170   */\n          tag_155\n            /* \"#utility.yul\":8167:8168   */\n          0x00\n            /* \"#utility.yul\":8163:8169   */\n          not\n            /* \"#utility.yul\":8155:8160   */\n          dup5\n            /* \"#utility.yul\":8152:8153   */\n          0x08\n            /* \"#utility.yul\":8148:8161   */\n          mul\n            /* \"#utility.yul\":8119:8170   */\n          tag_50\n          jump\t// in\n        tag_155:\n            /* \"#utility.yul\":8115:8171   */\n          not\n            /* \"#utility.yul\":8200:8204   */\n          dup1\n            /* \"#utility.yul\":8194:8198   */\n          dup4\n            /* \"#utility.yul\":8190:8205   */\n          and\n            /* \"#utility.yul\":8180:8205   */\n          swap2\n          pop\n            /* \"#utility.yul\":8093:8211   */\n          pop\n            /* \"#utility.yul\":8042:8211   */\n          swap3\n          swap2\n          pop\n          pop\n          jump\t// out\n            /* \"#utility.yul\":8216:8511   */\n        tag_52:\n            /* \"#utility.yul\":8292:8296   */\n          0x00\n            /* \"#utility.yul\":8438:8467   */\n          tag_157\n            /* \"#utility.yul\":8463:8466   */\n          dup4\n            /* \"#utility.yul\":8457:8461   */\n          dup4\n            /* \"#utility.yul\":8438:8467   */\n          tag_51\n          jump\t// in\n        tag_157:\n            /* \"#utility.yul\":8430:8467   */\n          swap2\n          pop\n            /* \"#utility.yul\":8500:8503   */\n          dup3\n            /* \"#utility.yul\":8497:8498   */\n          0x02\n            /* \"#utility.yul\":8493:8504   */\n          mul\n            /* \"#utility.yul\":8487:8491   */\n          dup3\n            /* \"#utility.yul\":8484:8505   */\n          or\n            /* \"#utility.yul\":8476:8505   */\n          swap1\n          pop\n            /* \"#utility.yul\":8216:8511   */\n          swap3\n          swap2\n          pop\n          pop\n          jump\t// out\n            /* \"#utility.yul\":8516:9911   */\n        tag_12:\n            /* \"#utility.yul\":8633:8670   */\n          tag_159\n            /* \"#utility.yul\":8666:8669   */\n          dup3\n            /* \"#utility.yul\":8633:8670   */\n          tag_35\n          jump\t// in\n        tag_159:\n            /* \"#utility.yul\":8735:8753   */\n          0xffffffffffffffff\n            /* \"#utility.yul\":8727:8733   */\n          dup2\n            /* \"#utility.yul\":8724:8754   */\n          gt\n            /* \"#utility.yul\":8721:8777   */\n          iszero\n          tag_160\n          jumpi\n            /* \"#utility.yul\":8757:8775   */\n          tag_161\n          tag_27\n          jump\t// in\n        tag_161:\n            /* \"#utility.yul\":8721:8777   */\n        tag_160:\n            /* \"#utility.yul\":8801:8839   */\n          tag_162\n            /* \"#utility.yul\":8833:8837   */\n          dup3\n            /* \"#utility.yul\":8827:8838   */\n          sload\n            /* \"#utility.yul\":8801:8839   */\n          tag_37\n          jump\t// in\n        tag_162:\n            /* \"#utility.yul\":8886:8953   */\n          tag_163\n            /* \"#utility.yul\":8946:8952   */\n          dup3\n            /* \"#utility.yul\":8938:8944   */\n          dup3\n            /* \"#utility.yul\":8932:8936   */\n          dup6\n            /* \"#utility.yul\":8886:8953   */\n          tag_49\n          jump\t// in\n        tag_163:\n            /* \"#utility.yul\":8980:8981   */\n          0x00\n            /* \"#utility.yul\":9004:9008   */\n          0x20\n            /* \"#utility.yul\":8991:9008   */\n          swap1\n          pop\n            /* \"#utility.yul\":9036:9038   */\n          0x1f\n            /* \"#utility.yul\":9028:9034   */\n          dup4\n            /* \"#utility.yul\":9025:9039   */\n          gt\n            /* \"#utility.yul\":9053:9054   */\n          0x01\n            /* \"#utility.yul\":9048:9666   */\n          dup2\n          eq\n          tag_165\n          jumpi\n            /* \"#utility.yul\":9710:9711   */\n          0x00\n            /* \"#utility.yul\":9727:9733   */\n          dup5\n            /* \"#utility.yul\":9724:9801   */\n          iszero\n          tag_166\n          jumpi\n            /* \"#utility.yul\":9776:9785   */\n          dup3\n            /* \"#utility.yul\":9771:9774   */\n          dup8\n            /* \"#utility.yul\":9767:9786   */\n          add\n            /* \"#utility.yul\":9761:9787   */\n          mload\n            /* \"#utility.yul\":9752:9787   */\n          swap1\n          pop\n            /* \"#utility.yul\":9724:9801   */\n        tag_166:\n            /* \"#utility.yul\":9827:9894   */\n          tag_167\n            /* \"#utility.yul\":9887:9893   */\n          dup6\n            /* \"#utility.yul\":9880:9885   */\n          dup3\n            /* \"#utility.yul\":9827:9894   */\n          tag_52\n          jump\t// in\n        tag_167:\n            /* \"#utility.yul\":9821:9825   */\n          dup7\n            /* \"#utility.yul\":9814:9895   */\n          sstore\n            /* \"#utility.yul\":9683:9905   */\n          pop\n            /* \"#utility.yul\":9018:9905   */\n          jump(tag_164)\n            /* \"#utility.yul\":9048:9666   */\n        tag_165:\n            /* \"#utility.yul\":9100:9104   */\n          0x1f\n            /* \"#utility.yul\":9096:9105   */\n          not\n            /* \"#utility.yul\":9088:9094   */\n          dup5\n            /* \"#utility.yul\":9084:9106   */\n          and\n            /* \"#utility.yul\":9134:9171   */\n          tag_168\n            /* \"#utility.yul\":9166:9170   */\n          dup7\n            /* \"#utility.yul\":9134:9171   */\n          tag_38\n          jump\t// in\n        tag_168:\n            /* \"#utility.yul\":9193:9194   */\n          0x00\n            /* \"#utility.yul\":9207:9415   */\n        tag_169:\n            /* \"#utility.yul\":9221:9228   */\n          dup3\n            /* \"#utility.yul\":9218:9219   */\n          dup2\n            /* \"#utility.yul\":9215:9229   */\n          lt\n            /* \"#utility.yul\":9207:9415   */\n          iszero\n          tag_171\n          jumpi\n            /* \"#utility.yul\":9300:9309   */\n          dup5\n            /* \"#utility.yul\":9295:9298   */\n          dup10\n            /* \"#utility.yul\":9291:9310   */\n          add\n            /* \"#utility.yul\":9285:9311   */\n          mload\n            /* \"#utility.yul\":9277:9283   */\n          dup3\n            /* \"#utility.yul\":9270:9312   */\n          sstore\n            /* \"#utility.yul\":9351:9352   */\n          0x01\n            /* \"#utility.yul\":9343:9349   */\n          dup3\n            /* \"#utility.yul\":9339:9353   */\n          add\n            /* \"#utility.yul\":9329:9353   */\n          swap2\n          pop\n            /* \"#utility.yul\":9398:9400   */\n          0x20\n            /* \"#utility.yul\":9387:9396   */\n          dup6\n            /* \"#utility.yul\":9383:9401   */\n          add\n            /* \"#utility.yul\":9370:9401   */\n          swap5\n          pop\n            /* \"#utility.yul\":9244:9248   */\n          0x20\n            /* \"#utility.yul\":9241:9242   */\n          dup2\n            /* \"#utility.yul\":9237:9249   */\n          add\n            /* \"#utility.yul\":9232:9249   */\n          swap1\n          pop\n            /* \"#utility.yul\":9207:9415   */\n          jump(tag_169)\n        tag_171:\n            /* \"#utility.yul\":9443:9449   */\n          dup7\n            /* \"#utility.yul\":9434:9441   */\n          dup4\n            /* \"#utility.yul\":9431:9450   */\n          lt\n            /* \"#utility.yul\":9428:9607   */\n          iszero\n          tag_172\n          jumpi\n            /* \"#utility.yul\":9501:9510   */\n          dup5\n            /* \"#utility.yul\":9496:9499   */\n          dup10\n            /* \"#utility.yul\":9492:9511   */\n          add\n            /* \"#utility.yul\":9486:9512   */\n          mload\n            /* \"#utility.yul\":9544:9592   */\n          tag_173\n            /* \"#utility.yul\":9586:9590   */\n          0x1f\n            /* \"#utility.yul\":9578:9584   */\n          dup10\n            /* \"#utility.yul\":9574:9591   */\n          and\n            /* \"#utility.yul\":9563:9572   */\n          dup3\n            /* \"#utility.yul\":9544:9592   */\n          tag_51\n          jump\t// in\n        tag_173:\n            /* \"#utility.yul\":9536:9542   */\n          dup4\n            /* \"#utility.yul\":9529:9593   */\n          sstore\n            /* \"#utility.yul\":9451:9607   */\n          pop\n            /* \"#utility.yul\":9428:9607   */\n        tag_172:\n            /* \"#utility.yul\":9653:9654   */\n          0x01\n            /* \"#utility.yul\":9649:9650   */\n          0x02\n            /* \"#utility.yul\":9641:9647   */\n          dup9\n            /* \"#utility.yul\":9637:9651   */\n          mul\n            /* \"#utility.yul\":9633:9655   */\n          add\n            /* \"#utility.yul\":9627:9631   */\n          dup9\n            /* \"#utility.yul\":9620:9656   */\n          sstore\n            /* \"#utility.yul\":9055:9666   */\n          pop\n          pop\n          pop\n            /* \"#utility.yul\":9018:9905   */\n        tag_164:\n          pop\n            /* \"#utility.yul\":8608:9911   */\n          pop\n          pop\n          pop\n            /* \"#utility.yul\":8516:9911   */\n          pop\n          pop\n          jump\t// out\n            /* \"Auction.sol\":62:2492  contract Auction {... */\n        tag_13:\n          dataSize(sub_0)\n          dup1\n          dataOffset(sub_0)\n          0x00\n          codecopy\n          0x00\n          return\n        stop\n\n        sub_0: assembly {\n                /* \"Auction.sol\":62:2492  contract Auction {... */\n              mstore(0x40, 0x80)\n              jumpi(tag_1, lt(calldatasize, 0x04))\n              shr(0xe0, calldataload(0x00))\n              dup1\n              0xbda21db0\n              gt\n              tag_17\n              jumpi\n              dup1\n              0xd57bde79\n              gt\n              tag_18\n              jumpi\n              dup1\n              0xd57bde79\n              eq\n              tag_13\n              jumpi\n              dup1\n              0xecfc7ecc\n              eq\n              tag_14\n              jumpi\n              dup1\n              0xf36efe57\n              eq\n              tag_15\n              jumpi\n              dup1\n              0xfe67a54b\n              eq\n              tag_16\n              jumpi\n              jump(tag_1)\n            tag_18:\n              dup1\n              0xbda21db0\n              eq\n              tag_9\n              jumpi\n              dup1\n              0xc19d93fb\n              eq\n              tag_10\n              jumpi\n              dup1\n              0xc63d99db\n              eq\n              tag_11\n              jumpi\n              dup1\n              0xd17c2b54\n              eq\n              tag_12\n              jumpi\n              jump(tag_1)\n            tag_17:\n              dup1\n              0x55bedee6\n              gt\n              tag_19\n              jumpi\n              dup1\n              0x55bedee6\n              eq\n              tag_5\n              jumpi\n              dup1\n              0x5e2c19db\n              eq\n              tag_6\n              jumpi\n              dup1\n              0x62ea82db\n              eq\n              tag_7\n              jumpi\n              dup1\n              0x91f90157\n              eq\n              tag_8\n              jumpi\n              jump(tag_1)\n            tag_19:\n              dup1\n              0x08551a53\n              eq\n              tag_2\n              jumpi\n              dup1\n              0x3ccfd60b\n              eq\n              tag_3\n              jumpi\n              dup1\n              0x4b449cba\n              eq\n              tag_4\n              jumpi\n            tag_1:\n              0x00\n              dup1\n              revert\n                /* \"Auction.sol\":85:114  address payable public seller */\n            tag_2:\n              callvalue\n              dup1\n              iszero\n              tag_20\n              jumpi\n              0x00\n              dup1\n              revert\n            tag_20:\n              pop\n              tag_21\n              tag_22\n              jump\t// in\n            tag_21:\n              mload(0x40)\n              tag_23\n              swap2\n              swap1\n              tag_24\n              jump\t// in\n            tag_23:\n              mload(0x40)\n              dup1\n              swap2\n              sub\n              swap1\n              return\n                /* \"Auction.sol\":1381:1725  function withdraw() public {... */\n            tag_3:\n              callvalue\n              dup1\n              iszero\n              tag_25\n              jumpi\n              0x00\n              dup1\n              revert\n            tag_25:\n              pop\n              tag_26\n              tag_27\n              jump\t// in\n            tag_26:\n              stop\n                /* \"Auction.sol\":120:149  uint256 public auctionEndTime */\n            tag_4:\n              callvalue\n              dup1\n              iszero\n              tag_28\n              jumpi\n              0x00\n              dup1\n              revert\n            tag_28:\n              pop\n              tag_29\n              tag_30\n              jump\t// in\n            tag_29:\n              mload(0x40)\n              tag_31\n              swap2\n              swap1\n              tag_32\n              jump\t// in\n            tag_31:\n              mload(0x40)\n              dup1\n              swap2\n              sub\n              swap1\n              return\n                /* \"Auction.sol\":2397:2490  function getSellerRating() public view returns (uint256) {... */\n            tag_5:\n              callvalue\n              dup1\n              iszero\n              tag_33\n              jumpi\n              0x00\n              dup1\n              revert\n            tag_33:\n              pop\n              tag_34\n              tag_35\n              jump\t// in\n            tag_34:\n              mload(0x40)\n              tag_36\n              swap2\n              swap1\n              tag_32\n              jump\t// in\n            tag_36:\n              mload(0x40)\n              dup1\n              swap2\n              sub\n              swap1\n              return\n                /* \"Auction.sol\":359:403  mapping(address => bool) public hasWithdrawn */\n            tag_6:\n              callvalue\n              dup1\n              iszero\n              tag_37\n              jumpi\n              0x00\n              dup1\n              revert\n            tag_37:\n              pop\n              tag_38\n              0x04\n              dup1\n              calldatasize\n              sub\n              dup2\n              add\n              swap1\n              tag_39\n              swap2\n              swap1\n              tag_40\n              jump\t// in\n            tag_39:\n              tag_41\n              jump\t// in\n            tag_38:\n              mload(0x40)\n              tag_42\n              swap2\n              swap1\n              tag_43\n              jump\t// in\n            tag_42:\n              mload(0x40)\n              dup1\n              swap2\n              sub\n              swap1\n              return\n                /* \"Auction.sol\":314:353  mapping(address => uint256) public bids */\n            tag_7:\n              callvalue\n              dup1\n              iszero\n              tag_44\n              jumpi\n              0x00\n              dup1\n              revert\n            tag_44:\n              pop\n              tag_45\n              0x04\n              dup1\n              calldatasize\n              sub\n              dup2\n              add\n              swap1\n              tag_46\n              swap2\n              swap1\n              tag_40\n              jump\t// in\n            tag_46:\n              tag_47\n              jump\t// in\n            tag_45:\n              mload(0x40)\n              tag_48\n              swap2\n              swap1\n              tag_32\n              jump\t// in\n            tag_48:\n              mload(0x40)\n              dup1\n              swap2\n              sub\n              swap1\n              return\n                /* \"Auction.sol\":155:183  address public highestBidder */\n            tag_8:\n              callvalue\n              dup1\n              iszero\n              tag_49\n              jumpi\n              0x00\n              dup1\n              revert\n            tag_49:\n              pop\n              tag_50\n              tag_51\n              jump\t// in\n            tag_50:\n              mload(0x40)\n              tag_52\n              swap2\n              swap1\n              tag_53\n              jump\t// in\n            tag_52:\n              mload(0x40)\n              dup1\n              swap2\n              sub\n              swap1\n              return\n                /* \"Auction.sol\":284:307  bool public sellerRated */\n            tag_9:\n              callvalue\n              dup1\n              iszero\n              tag_54\n              jumpi\n              0x00\n              dup1\n              revert\n            tag_54:\n              pop\n              tag_55\n              tag_56\n              jump\t// in\n            tag_55:\n              mload(0x40)\n              tag_57\n              swap2\n              swap1\n              tag_43\n              jump\t// in\n            tag_57:\n              mload(0x40)\n              dup1\n              swap2\n              sub\n              swap1\n              return\n                /* \"Auction.sol\":411:436  AuctionState public state */\n            tag_10:\n              callvalue\n              dup1\n              iszero\n              tag_58\n              jumpi\n              0x00\n              dup1\n              revert\n            tag_58:\n              pop\n              tag_59\n              tag_60\n              jump\t// in\n            tag_59:\n              mload(0x40)\n              tag_61\n              swap2\n              swap1\n              tag_62\n              jump\t// in\n            tag_61:\n              mload(0x40)\n              dup1\n              swap2\n              sub\n              swap1\n              return\n                /* \"Auction.sol\":220:245  string public auctionName */\n            tag_11:\n              callvalue\n              dup1\n              iszero\n              tag_63\n              jumpi\n              0x00\n              dup1\n              revert\n            tag_63:\n              pop\n              tag_64\n              tag_65\n              jump\t// in\n            tag_64:\n              mload(0x40)\n              tag_66\n              swap2\n              swap1\n              tag_67\n              jump\t// in\n            tag_66:\n              mload(0x40)\n              dup1\n              swap2\n              sub\n              swap1\n              return\n                /* \"Auction.sol\":1998:2391  function rateSeller(uint256 rating) public {... */\n            tag_12:\n              callvalue\n              dup1\n              iszero\n              tag_68\n              jumpi\n              0x00\n              dup1\n              revert\n            tag_68:\n              pop\n              tag_69\n              0x04\n              dup1\n              calldatasize\n              sub\n              dup2\n              add\n              swap1\n              tag_70\n              swap2\n              swap1\n              tag_71\n              jump\t// in\n            tag_70:\n              tag_72\n              jump\t// in\n            tag_69:\n              stop\n                /* \"Auction.sol\":189:214  uint256 public highestBid */\n            tag_13:\n              callvalue\n              dup1\n              iszero\n              tag_73\n              jumpi\n              0x00\n              dup1\n              revert\n            tag_73:\n              pop\n              tag_74\n              tag_75\n              jump\t// in\n            tag_74:\n              mload(0x40)\n              tag_76\n              swap2\n              swap1\n              tag_32\n              jump\t// in\n            tag_76:\n              mload(0x40)\n              dup1\n              swap2\n              sub\n              swap1\n              return\n                /* \"Auction.sol\":990:1375  function placeBid() public payable {... */\n            tag_14:\n              tag_77\n              tag_78\n              jump\t// in\n            tag_77:\n              stop\n                /* \"Auction.sol\":251:278  uint256 public sellerRating */\n            tag_15:\n              callvalue\n              dup1\n              iszero\n              tag_79\n              jumpi\n              0x00\n              dup1\n              revert\n            tag_79:\n              pop\n              tag_80\n              tag_81\n              jump\t// in\n            tag_80:\n              mload(0x40)\n              tag_82\n              swap2\n              swap1\n              tag_32\n              jump\t// in\n            tag_82:\n              mload(0x40)\n              dup1\n              swap2\n              sub\n              swap1\n              return\n                /* \"Auction.sol\":1731:1992  function endAuction() public onlySeller onlyAfterEnd {... */\n            tag_16:\n              callvalue\n              dup1\n              iszero\n              tag_83\n              jumpi\n              0x00\n              dup1\n              revert\n            tag_83:\n              pop\n              tag_84\n              tag_85\n              jump\t// in\n            tag_84:\n              stop\n                /* \"Auction.sol\":85:114  address payable public seller */\n            tag_22:\n              0x00\n              dup1\n              sload\n              swap1\n              0x0100\n              exp\n              swap1\n              div\n              0xffffffffffffffffffffffffffffffffffffffff\n              and\n              dup2\n              jump\t// out\n                /* \"Auction.sol\":1381:1725  function withdraw() public {... */\n            tag_27:\n                /* \"Auction.sol\":1435:1453  AuctionState.Ended */\n              0x01\n                /* \"Auction.sol\":1426:1453  state == AuctionState.Ended */\n              dup1\n              dup2\n              gt\n              iszero\n              tag_87\n              jumpi\n              tag_88\n              tag_89\n              jump\t// in\n            tag_88:\n            tag_87:\n                /* \"Auction.sol\":1426:1431  state */\n              0x09\n              0x00\n              swap1\n              sload\n              swap1\n              0x0100\n              exp\n              swap1\n              div\n              0xff\n              and\n                /* \"Auction.sol\":1426:1453  state == AuctionState.Ended */\n              0x01\n              dup2\n              gt\n              iszero\n              tag_90\n              jumpi\n              tag_91\n              tag_89\n              jump\t// in\n            tag_91:\n            tag_90:\n              eq\n                /* \"Auction.sol\":1418:1478  require(state == AuctionState.Ended, \"Auction is not ended\") */\n              tag_92\n              jumpi\n              mload(0x40)\n              0x08c379a000000000000000000000000000000000000000000000000000000000\n              dup2\n              mstore\n              0x04\n              add\n              tag_93\n              swap1\n              tag_94\n              jump\t// in\n            tag_93:\n              mload(0x40)\n              dup1\n              swap2\n              sub\n              swap1\n              revert\n            tag_92:\n                /* \"Auction.sol\":1497:1509  hasWithdrawn */\n              0x08\n                /* \"Auction.sol\":1497:1521  hasWithdrawn[msg.sender] */\n              0x00\n                /* \"Auction.sol\":1510:1520  msg.sender */\n              caller\n                /* \"Auction.sol\":1497:1521  hasWithdrawn[msg.sender] */\n              0xffffffffffffffffffffffffffffffffffffffff\n              and\n              0xffffffffffffffffffffffffffffffffffffffff\n              and\n              dup2\n              mstore\n              0x20\n              add\n              swap1\n              dup2\n              mstore\n              0x20\n              add\n              0x00\n              keccak256\n              0x00\n              swap1\n              sload\n              swap1\n              0x0100\n              exp\n              swap1\n              div\n              0xff\n              and\n                /* \"Auction.sol\":1496:1521  !hasWithdrawn[msg.sender] */\n              iszero\n                /* \"Auction.sol\":1488:1543  require(!hasWithdrawn[msg.sender], \"Already withdrawn\") */\n              tag_95\n              jumpi\n              mload(0x40)\n              0x08c379a000000000000000000000000000000000000000000000000000000000\n              dup2\n              mstore\n              0x04\n              add\n              tag_96\n              swap1\n              tag_97\n              jump\t// in\n            tag_96:\n              mload(0x40)\n              dup1\n              swap2\n              sub\n              swap1\n              revert\n            tag_95:\n                /* \"Auction.sol\":1554:1568  uint256 amount */\n              0x00\n                /* \"Auction.sol\":1571:1575  bids */\n              0x07\n                /* \"Auction.sol\":1571:1587  bids[msg.sender] */\n              0x00\n                /* \"Auction.sol\":1576:1586  msg.sender */\n              caller\n                /* \"Auction.sol\":1571:1587  bids[msg.sender] */\n              0xffffffffffffffffffffffffffffffffffffffff\n              and\n              0xffffffffffffffffffffffffffffffffffffffff\n              and\n              dup2\n              mstore\n              0x20\n              add\n              swap1\n              dup2\n              mstore\n              0x20\n              add\n              0x00\n              keccak256\n              sload\n                /* \"Auction.sol\":1554:1587  uint256 amount = bids[msg.sender] */\n              swap1\n              pop\n                /* \"Auction.sol\":1610:1611  0 */\n              0x00\n                /* \"Auction.sol\":1601:1607  amount */\n              dup2\n                /* \"Auction.sol\":1601:1611  amount > 0 */\n              gt\n                /* \"Auction.sol\":1597:1719  if (amount > 0) {... */\n              iszero\n              tag_98\n              jumpi\n                /* \"Auction.sol\":1654:1658  true */\n              0x01\n                /* \"Auction.sol\":1627:1639  hasWithdrawn */\n              0x08\n                /* \"Auction.sol\":1627:1651  hasWithdrawn[msg.sender] */\n              0x00\n                /* \"Auction.sol\":1640:1650  msg.sender */\n              caller\n                /* \"Auction.sol\":1627:1651  hasWithdrawn[msg.sender] */\n              0xffffffffffffffffffffffffffffffffffffffff\n              and\n              0xffffffffffffffffffffffffffffffffffffffff\n              and\n              dup2\n              mstore\n              0x20\n              add\n              swap1\n              dup2\n              mstore\n              0x20\n              add\n              0x00\n              keccak256\n              0x00\n                /* \"Auction.sol\":1627:1658  hasWithdrawn[msg.sender] = true */\n              0x0100\n              exp\n              dup2\n              sload\n              dup2\n              0xff\n              mul\n              not\n              and\n              swap1\n              dup4\n              iszero\n              iszero\n              mul\n              or\n              swap1\n              sstore\n              pop\n                /* \"Auction.sol\":1680:1690  msg.sender */\n              caller\n                /* \"Auction.sol\":1672:1700  payable(msg.sender).transfer */\n              0xffffffffffffffffffffffffffffffffffffffff\n              and\n                /* \"Auction.sol\":1672:1708  payable(msg.sender).transfer(amount) */\n              0x08fc\n                /* \"Auction.sol\":1701:1707  amount */\n              dup3\n                /* \"Auction.sol\":1672:1708  payable(msg.sender).transfer(amount) */\n              swap1\n              dup2\n              iszero\n              mul\n              swap1\n              mload(0x40)\n              0x00\n              mload(0x40)\n              dup1\n              dup4\n              sub\n              dup2\n              dup6\n              dup9\n              dup9\n              call\n              swap4\n              pop\n              pop\n              pop\n              pop\n              iszero\n              dup1\n              iszero\n              tag_100\n              jumpi\n              returndatasize\n              0x00\n              dup1\n              returndatacopy\n              revert(0x00, returndatasize)\n            tag_100:\n              pop\n                /* \"Auction.sol\":1597:1719  if (amount > 0) {... */\n            tag_98:\n                /* \"Auction.sol\":1408:1725  {... */\n              pop\n                /* \"Auction.sol\":1381:1725  function withdraw() public {... */\n              jump\t// out\n                /* \"Auction.sol\":120:149  uint256 public auctionEndTime */\n            tag_30:\n              sload(0x01)\n              dup2\n              jump\t// out\n                /* \"Auction.sol\":2397:2490  function getSellerRating() public view returns (uint256) {... */\n            tag_35:\n                /* \"Auction.sol\":2445:2452  uint256 */\n              0x00\n                /* \"Auction.sol\":2471:2483  sellerRating */\n              sload(0x05)\n                /* \"Auction.sol\":2464:2483  return sellerRating */\n              swap1\n              pop\n                /* \"Auction.sol\":2397:2490  function getSellerRating() public view returns (uint256) {... */\n              swap1\n              jump\t// out\n                /* \"Auction.sol\":359:403  mapping(address => bool) public hasWithdrawn */\n            tag_41:\n              mstore(0x20, 0x08)\n              dup1\n              0x00\n              mstore\n              keccak256(0x00, 0x40)\n              0x00\n              swap2\n              pop\n              sload\n              swap1\n              0x0100\n              exp\n              swap1\n              div\n              0xff\n              and\n              dup2\n              jump\t// out\n                /* \"Auction.sol\":314:353  mapping(address => uint256) public bids */\n            tag_47:\n              mstore(0x20, 0x07)\n              dup1\n              0x00\n              mstore\n              keccak256(0x00, 0x40)\n              0x00\n              swap2\n              pop\n              swap1\n              pop\n              sload\n              dup2\n              jump\t// out\n                /* \"Auction.sol\":155:183  address public highestBidder */\n            tag_51:\n              0x02\n              0x00\n              swap1\n              sload\n              swap1\n              0x0100\n              exp\n              swap1\n              div\n              0xffffffffffffffffffffffffffffffffffffffff\n              and\n              dup2\n              jump\t// out\n                /* \"Auction.sol\":284:307  bool public sellerRated */\n            tag_56:\n              0x06\n              0x00\n              swap1\n              sload\n              swap1\n              0x0100\n              exp\n              swap1\n              div\n              0xff\n              and\n              dup2\n              jump\t// out\n                /* \"Auction.sol\":411:436  AuctionState public state */\n            tag_60:\n              0x09\n              0x00\n              swap1\n              sload\n              swap1\n              0x0100\n              exp\n              swap1\n              div\n              0xff\n              and\n              dup2\n              jump\t// out\n                /* \"Auction.sol\":220:245  string public auctionName */\n            tag_65:\n              0x04\n              dup1\n              sload\n              tag_102\n              swap1\n              tag_103\n              jump\t// in\n            tag_102:\n              dup1\n              0x1f\n              add\n              0x20\n              dup1\n              swap2\n              div\n              mul\n              0x20\n              add\n              mload(0x40)\n              swap1\n              dup2\n              add\n              0x40\n              mstore\n              dup1\n              swap3\n              swap2\n              swap1\n              dup2\n              dup2\n              mstore\n              0x20\n              add\n              dup3\n              dup1\n              sload\n              tag_104\n              swap1\n              tag_103\n              jump\t// in\n            tag_104:\n              dup1\n              iszero\n              tag_105\n              jumpi\n              dup1\n              0x1f\n              lt\n              tag_106\n              jumpi\n              0x0100\n              dup1\n              dup4\n              sload\n              div\n              mul\n              dup4\n              mstore\n              swap2\n              0x20\n              add\n              swap2\n              jump(tag_105)\n            tag_106:\n              dup3\n              add\n              swap2\n              swap1\n              0x00\n              mstore\n              keccak256(0x00, 0x20)\n              swap1\n            tag_107:\n              dup2\n              sload\n              dup2\n              mstore\n              swap1\n              0x01\n              add\n              swap1\n              0x20\n              add\n              dup1\n              dup4\n              gt\n              tag_107\n              jumpi\n              dup3\n              swap1\n              sub\n              0x1f\n              and\n              dup3\n              add\n              swap2\n            tag_105:\n              pop\n              pop\n              pop\n              pop\n              pop\n              dup2\n              jump\t// out\n                /* \"Auction.sol\":1998:2391  function rateSeller(uint256 rating) public {... */\n            tag_72:\n                /* \"Auction.sol\":2068:2086  AuctionState.Ended */\n              0x01\n                /* \"Auction.sol\":2059:2086  state == AuctionState.Ended */\n              dup1\n              dup2\n              gt\n              iszero\n              tag_109\n              jumpi\n              tag_110\n              tag_89\n              jump\t// in\n            tag_110:\n            tag_109:\n                /* \"Auction.sol\":2059:2064  state */\n              0x09\n              0x00\n              swap1\n              sload\n              swap1\n              0x0100\n              exp\n              swap1\n              div\n              0xff\n              and\n                /* \"Auction.sol\":2059:2086  state == AuctionState.Ended */\n              0x01\n              dup2\n              gt\n              iszero\n              tag_111\n              jumpi\n              tag_112\n              tag_89\n              jump\t// in\n            tag_112:\n            tag_111:\n              eq\n                /* \"Auction.sol\":2051:2111  require(state == AuctionState.Ended, \"Auction is not ended\") */\n              tag_113\n              jumpi\n              mload(0x40)\n              0x08c379a000000000000000000000000000000000000000000000000000000000\n              dup2\n              mstore\n              0x04\n              add\n              tag_114\n              swap1\n              tag_94\n              jump\t// in\n            tag_114:\n              mload(0x40)\n              dup1\n              swap2\n              sub\n              swap1\n              revert\n            tag_113:\n                /* \"Auction.sol\":2143:2156  highestBidder */\n              0x02\n              0x00\n              swap1\n              sload\n              swap1\n              0x0100\n              exp\n              swap1\n              div\n              0xffffffffffffffffffffffffffffffffffffffff\n              and\n                /* \"Auction.sol\":2129:2156  msg.sender == highestBidder */\n              0xffffffffffffffffffffffffffffffffffffffff\n              and\n                /* \"Auction.sol\":2129:2139  msg.sender */\n              caller\n                /* \"Auction.sol\":2129:2156  msg.sender == highestBidder */\n              0xffffffffffffffffffffffffffffffffffffffff\n              and\n              eq\n                /* \"Auction.sol\":2121:2200  require(msg.sender == highestBidder, \"Only highest bidder can rate the seller\") */\n              tag_115\n              jumpi\n              mload(0x40)\n              0x08c379a000000000000000000000000000000000000000000000000000000000\n              dup2\n              mstore\n              0x04\n              add\n              tag_116\n              swap1\n              tag_117\n              jump\t// in\n            tag_116:\n              mload(0x40)\n              dup1\n              swap2\n              sub\n              swap1\n              revert\n            tag_115:\n                /* \"Auction.sol\":2219:2230  sellerRated */\n              0x06\n              0x00\n              swap1\n              sload\n              swap1\n              0x0100\n              exp\n              swap1\n              div\n              0xff\n              and\n                /* \"Auction.sol\":2218:2230  !sellerRated */\n              iszero\n                /* \"Auction.sol\":2210:2255  require(!sellerRated, \"Seller already rated\") */\n              tag_118\n              jumpi\n              mload(0x40)\n              0x08c379a000000000000000000000000000000000000000000000000000000000\n              dup2\n              mstore\n              0x04\n              add\n              tag_119\n              swap1\n              tag_120\n              jump\t// in\n            tag_119:\n              mload(0x40)\n              dup1\n              swap2\n              sub\n              swap1\n              revert\n            tag_118:\n                /* \"Auction.sol\":2283:2284  1 */\n              0x01\n                /* \"Auction.sol\":2273:2279  rating */\n              dup2\n                /* \"Auction.sol\":2273:2284  rating >= 1 */\n              lt\n              iszero\n                /* \"Auction.sol\":2273:2299  rating >= 1 && rating <= 5 */\n              dup1\n              iszero\n              tag_121\n              jumpi\n              pop\n                /* \"Auction.sol\":2298:2299  5 */\n              0x05\n                /* \"Auction.sol\":2288:2294  rating */\n              dup2\n                /* \"Auction.sol\":2288:2299  rating <= 5 */\n              gt\n              iszero\n                /* \"Auction.sol\":2273:2299  rating >= 1 && rating <= 5 */\n            tag_121:\n                /* \"Auction.sol\":2265:2324  require(rating >= 1 && rating <= 5, \"Invalid rating value\") */\n              tag_122\n              jumpi\n              mload(0x40)\n              0x08c379a000000000000000000000000000000000000000000000000000000000\n              dup2\n              mstore\n              0x04\n              add\n              tag_123\n              swap1\n              tag_124\n              jump\t// in\n            tag_123:\n              mload(0x40)\n              dup1\n              swap2\n              sub\n              swap1\n              revert\n            tag_122:\n                /* \"Auction.sol\":2350:2356  rating */\n              dup1\n                /* \"Auction.sol\":2335:2347  sellerRating */\n              0x05\n                /* \"Auction.sol\":2335:2356  sellerRating = rating */\n              dup2\n              swap1\n              sstore\n              pop\n                /* \"Auction.sol\":2380:2384  true */\n              0x01\n                /* \"Auction.sol\":2366:2377  sellerRated */\n              0x06\n              0x00\n                /* \"Auction.sol\":2366:2384  sellerRated = true */\n              0x0100\n              exp\n              dup2\n              sload\n              dup2\n              0xff\n              mul\n              not\n              and\n              swap1\n              dup4\n              iszero\n              iszero\n              mul\n              or\n              swap1\n              sstore\n              pop\n                /* \"Auction.sol\":1998:2391  function rateSeller(uint256 rating) public {... */\n              pop\n              jump\t// out\n                /* \"Auction.sol\":189:214  uint256 public highestBid */\n            tag_75:\n              sload(0x03)\n              dup2\n              jump\t// out\n                /* \"Auction.sol\":990:1375  function placeBid() public payable {... */\n            tag_78:\n                /* \"Auction.sol\":1052:1071  AuctionState.Active */\n              0x00\n                /* \"Auction.sol\":1043:1071  state == AuctionState.Active */\n              0x01\n              dup2\n              gt\n              iszero\n              tag_126\n              jumpi\n              tag_127\n              tag_89\n              jump\t// in\n            tag_127:\n            tag_126:\n                /* \"Auction.sol\":1043:1048  state */\n              0x09\n              0x00\n              swap1\n              sload\n              swap1\n              0x0100\n              exp\n              swap1\n              div\n              0xff\n              and\n                /* \"Auction.sol\":1043:1071  state == AuctionState.Active */\n              0x01\n              dup2\n              gt\n              iszero\n              tag_128\n              jumpi\n              tag_129\n              tag_89\n              jump\t// in\n            tag_129:\n            tag_128:\n              eq\n                /* \"Auction.sol\":1035:1097  require(state == AuctionState.Active, \"Auction is not active\") */\n              tag_130\n              jumpi\n              mload(0x40)\n              0x08c379a000000000000000000000000000000000000000000000000000000000\n              dup2\n              mstore\n              0x04\n              add\n              tag_131\n              swap1\n              tag_132\n              jump\t// in\n            tag_131:\n              mload(0x40)\n              dup1\n              swap2\n              sub\n              swap1\n              revert\n            tag_130:\n                /* \"Auction.sol\":1127:1137  highestBid */\n              sload(0x03)\n                /* \"Auction.sol\":1115:1124  msg.value */\n              callvalue\n                /* \"Auction.sol\":1115:1137  msg.value > highestBid */\n              gt\n                /* \"Auction.sol\":1107:1160  require(msg.value > highestBid, \"Bid amount too low\") */\n              tag_133\n              jumpi\n              mload(0x40)\n              0x08c379a000000000000000000000000000000000000000000000000000000000\n              dup2\n              mstore\n              0x04\n              add\n              tag_134\n              swap1\n              tag_135\n              jump\t// in\n            tag_134:\n              mload(0x40)\n              dup1\n              swap2\n              sub\n              swap1\n              revert\n            tag_133:\n                /* \"Auction.sol\":1189:1190  0 */\n              0x00\n                /* \"Auction.sol\":1175:1185  highestBid */\n              sload(0x03)\n                /* \"Auction.sol\":1175:1190  highestBid != 0 */\n              eq\n                /* \"Auction.sol\":1171:1300  if (highestBid != 0) {... */\n              tag_136\n              jumpi\n                /* \"Auction.sol\":1279:1289  highestBid */\n              sload(0x03)\n                /* \"Auction.sol\":1256:1260  bids */\n              0x07\n                /* \"Auction.sol\":1256:1275  bids[highestBidder] */\n              0x00\n                /* \"Auction.sol\":1261:1274  highestBidder */\n              0x02\n              0x00\n              swap1\n              sload\n              swap1\n              0x0100\n              exp\n              swap1\n              div\n              0xffffffffffffffffffffffffffffffffffffffff\n              and\n                /* \"Auction.sol\":1256:1275  bids[highestBidder] */\n              0xffffffffffffffffffffffffffffffffffffffff\n              and\n              0xffffffffffffffffffffffffffffffffffffffff\n              and\n              dup2\n              mstore\n              0x20\n              add\n              swap1\n              dup2\n              mstore\n              0x20\n              add\n              0x00\n              keccak256\n              0x00\n                /* \"Auction.sol\":1256:1289  bids[highestBidder] += highestBid */\n              dup3\n              dup3\n              sload\n              tag_137\n              swap2\n              swap1\n              tag_138\n              jump\t// in\n            tag_137:\n              swap3\n              pop\n              pop\n              dup2\n              swap1\n              sstore\n              pop\n                /* \"Auction.sol\":1171:1300  if (highestBid != 0) {... */\n            tag_136:\n                /* \"Auction.sol\":1326:1336  msg.sender */\n              caller\n                /* \"Auction.sol\":1310:1323  highestBidder */\n              0x02\n              0x00\n                /* \"Auction.sol\":1310:1336  highestBidder = msg.sender */\n              0x0100\n              exp\n              dup2\n              sload\n              dup2\n              0xffffffffffffffffffffffffffffffffffffffff\n              mul\n              not\n              and\n              swap1\n              dup4\n              0xffffffffffffffffffffffffffffffffffffffff\n              and\n              mul\n              or\n              swap1\n              sstore\n              pop\n                /* \"Auction.sol\":1359:1368  msg.value */\n              callvalue\n                /* \"Auction.sol\":1346:1356  highestBid */\n              0x03\n                /* \"Auction.sol\":1346:1368  highestBid = msg.value */\n              dup2\n              swap1\n              sstore\n              pop\n                /* \"Auction.sol\":990:1375  function placeBid() public payable {... */\n              jump\t// out\n                /* \"Auction.sol\":251:278  uint256 public sellerRating */\n            tag_81:\n              sload(0x05)\n              dup2\n              jump\t// out\n                /* \"Auction.sol\":1731:1992  function endAuction() public onlySeller onlyAfterEnd {... */\n            tag_85:\n                /* \"Auction.sol\":795:801  seller */\n              0x00\n              dup1\n              sload\n              swap1\n              0x0100\n              exp\n              swap1\n              div\n              0xffffffffffffffffffffffffffffffffffffffff\n              and\n                /* \"Auction.sol\":781:801  msg.sender == seller */\n              0xffffffffffffffffffffffffffffffffffffffff\n              and\n                /* \"Auction.sol\":781:791  msg.sender */\n              caller\n                /* \"Auction.sol\":781:801  msg.sender == seller */\n              0xffffffffffffffffffffffffffffffffffffffff\n              and\n              eq\n                /* \"Auction.sol\":773:841  require(msg.sender == seller, \"Only seller can perform this action\") */\n              tag_140\n              jumpi\n              mload(0x40)\n              0x08c379a000000000000000000000000000000000000000000000000000000000\n              dup2\n              mstore\n              0x04\n              add\n              tag_141\n              swap1\n              tag_142\n              jump\t// in\n            tag_141:\n              mload(0x40)\n              dup1\n              swap2\n              sub\n              swap1\n              revert\n            tag_140:\n                /* \"Auction.sol\":926:940  auctionEndTime */\n              sload(0x01)\n                /* \"Auction.sol\":907:922  block.timestamp */\n              timestamp\n                /* \"Auction.sol\":907:940  block.timestamp >= auctionEndTime */\n              lt\n              iszero\n                /* \"Auction.sol\":899:966  require(block.timestamp >= auctionEndTime, \"Auction not yet ended\") */\n              tag_144\n              jumpi\n              mload(0x40)\n              0x08c379a000000000000000000000000000000000000000000000000000000000\n              dup2\n              mstore\n              0x04\n              add\n              tag_145\n              swap1\n              tag_146\n              jump\t// in\n            tag_145:\n              mload(0x40)\n              dup1\n              swap2\n              sub\n              swap1\n              revert\n            tag_144:\n                /* \"Auction.sol\":1811:1830  AuctionState.Active */\n              0x00\n                /* \"Auction.sol\":1802:1830  state == AuctionState.Active */\n              0x01\n              dup2\n              gt\n              iszero\n              tag_148\n              jumpi\n              tag_149\n              tag_89\n              jump\t// in\n            tag_149:\n            tag_148:\n                /* \"Auction.sol\":1802:1807  state */\n              0x09\n              0x00\n              swap1\n              sload\n              swap1\n              0x0100\n              exp\n              swap1\n              div\n              0xff\n              and\n                /* \"Auction.sol\":1802:1830  state == AuctionState.Active */\n              0x01\n              dup2\n              gt\n              iszero\n              tag_150\n              jumpi\n              tag_151\n              tag_89\n              jump\t// in\n            tag_151:\n            tag_150:\n              eq\n                /* \"Auction.sol\":1794:1856  require(state == AuctionState.Active, \"Auction is not active\") */\n              tag_152\n              jumpi\n              mload(0x40)\n              0x08c379a000000000000000000000000000000000000000000000000000000000\n              dup2\n              mstore\n              0x04\n              add\n              tag_153\n              swap1\n              tag_132\n              jump\t// in\n            tag_153:\n              mload(0x40)\n              dup1\n              swap2\n              sub\n              swap1\n              revert\n            tag_152:\n                /* \"Auction.sol\":1875:1893  AuctionState.Ended */\n              0x01\n                /* \"Auction.sol\":1867:1872  state */\n              0x09\n              0x00\n                /* \"Auction.sol\":1867:1893  state = AuctionState.Ended */\n              0x0100\n              exp\n              dup2\n              sload\n              dup2\n              0xff\n              mul\n              not\n              and\n              swap1\n              dup4\n              0x01\n              dup2\n              gt\n              iszero\n              tag_154\n              jumpi\n              tag_155\n              tag_89\n              jump\t// in\n            tag_155:\n            tag_154:\n              mul\n              or\n              swap1\n              sstore\n              pop\n                /* \"Auction.sol\":1908:1947  AuctionEnded(highestBidder, highestBid) */\n              0xdaec4582d5d9595688c8c98545fdd1c696d41c6aeaeb636737e84ed2f5c00eda\n                /* \"Auction.sol\":1921:1934  highestBidder */\n              0x02\n              0x00\n              swap1\n              sload\n              swap1\n              0x0100\n              exp\n              swap1\n              div\n              0xffffffffffffffffffffffffffffffffffffffff\n              and\n                /* \"Auction.sol\":1936:1946  highestBid */\n              sload(0x03)\n                /* \"Auction.sol\":1908:1947  AuctionEnded(highestBidder, highestBid) */\n              mload(0x40)\n              tag_156\n              swap3\n              swap2\n              swap1\n              tag_157\n              jump\t// in\n            tag_156:\n              mload(0x40)\n              dup1\n              swap2\n              sub\n              swap1\n              log1\n                /* \"Auction.sol\":1958:1964  seller */\n              0x00\n              dup1\n              sload\n              swap1\n              0x0100\n              exp\n              swap1\n              div\n              0xffffffffffffffffffffffffffffffffffffffff\n              and\n                /* \"Auction.sol\":1958:1973  seller.transfer */\n              0xffffffffffffffffffffffffffffffffffffffff\n              and\n                /* \"Auction.sol\":1958:1985  seller.transfer(highestBid) */\n              0x08fc\n                /* \"Auction.sol\":1974:1984  highestBid */\n              sload(0x03)\n                /* \"Auction.sol\":1958:1985  seller.transfer(highestBid) */\n              swap1\n              dup2\n              iszero\n              mul\n              swap1\n              mload(0x40)\n              0x00\n              mload(0x40)\n              dup1\n              dup4\n              sub\n              dup2\n              dup6\n              dup9\n              dup9\n              call\n              swap4\n              pop\n              pop\n              pop\n              pop\n              iszero\n              dup1\n              iszero\n              tag_159\n              jumpi\n              returndatasize\n              0x00\n              dup1\n              returndatacopy\n              revert(0x00, returndatasize)\n            tag_159:\n              pop\n                /* \"Auction.sol\":1731:1992  function endAuction() public onlySeller onlyAfterEnd {... */\n              jump\t// out\n                /* \"#utility.yul\":7:133   */\n            tag_160:\n                /* \"#utility.yul\":44:51   */\n              0x00\n                /* \"#utility.yul\":84:126   */\n              0xffffffffffffffffffffffffffffffffffffffff\n                /* \"#utility.yul\":77:82   */\n              dup3\n                /* \"#utility.yul\":73:127   */\n              and\n                /* \"#utility.yul\":62:127   */\n              swap1\n              pop\n                /* \"#utility.yul\":7:133   */\n              swap2\n              swap1\n              pop\n              jump\t// out\n                /* \"#utility.yul\":139:243   */\n            tag_161:\n                /* \"#utility.yul\":184:191   */\n              0x00\n                /* \"#utility.yul\":213:237   */\n              tag_208\n                /* \"#utility.yul\":231:236   */\n              dup3\n                /* \"#utility.yul\":213:237   */\n              tag_160\n              jump\t// in\n            tag_208:\n                /* \"#utility.yul\":202:237   */\n              swap1\n              pop\n                /* \"#utility.yul\":139:243   */\n              swap2\n              swap1\n              pop\n              jump\t// out\n                /* \"#utility.yul\":249:391   */\n            tag_162:\n                /* \"#utility.yul\":352:384   */\n              tag_210\n                /* \"#utility.yul\":378:383   */\n              dup2\n                /* \"#utility.yul\":352:384   */\n              tag_161\n              jump\t// in\n            tag_210:\n                /* \"#utility.yul\":347:350   */\n              dup3\n                /* \"#utility.yul\":340:385   */\n              mstore\n                /* \"#utility.yul\":249:391   */\n              pop\n              pop\n              jump\t// out\n                /* \"#utility.yul\":397:651   */\n            tag_24:\n                /* \"#utility.yul\":506:510   */\n              0x00\n                /* \"#utility.yul\":544:546   */\n              0x20\n                /* \"#utility.yul\":533:542   */\n              dup3\n                /* \"#utility.yul\":529:547   */\n              add\n                /* \"#utility.yul\":521:547   */\n              swap1\n              pop\n                /* \"#utility.yul\":557:644   */\n              tag_212\n                /* \"#utility.yul\":641:642   */\n              0x00\n                /* \"#utility.yul\":630:639   */\n              dup4\n                /* \"#utility.yul\":626:643   */\n              add\n                /* \"#utility.yul\":617:623   */\n              dup5\n                /* \"#utility.yul\":557:644   */\n              tag_162\n              jump\t// in\n            tag_212:\n                /* \"#utility.yul\":397:651   */\n              swap3\n              swap2\n              pop\n              pop\n              jump\t// out\n                /* \"#utility.yul\":657:734   */\n            tag_163:\n                /* \"#utility.yul\":694:701   */\n              0x00\n                /* \"#utility.yul\":723:728   */\n              dup2\n                /* \"#utility.yul\":712:728   */\n              swap1\n              pop\n                /* \"#utility.yul\":657:734   */\n              swap2\n              swap1\n              pop\n              jump\t// out\n                /* \"#utility.yul\":740:858   */\n            tag_164:\n                /* \"#utility.yul\":827:851   */\n              tag_215\n                /* \"#utility.yul\":845:850   */\n              dup2\n                /* \"#utility.yul\":827:851   */\n              tag_163\n              jump\t// in\n            tag_215:\n                /* \"#utility.yul\":822:825   */\n              dup3\n                /* \"#utility.yul\":815:852   */\n              mstore\n                /* \"#utility.yul\":740:858   */\n              pop\n              pop\n              jump\t// out\n                /* \"#utility.yul\":864:1086   */\n            tag_32:\n                /* \"#utility.yul\":957:961   */\n              0x00\n                /* \"#utility.yul\":995:997   */\n              0x20\n                /* \"#utility.yul\":984:993   */\n              dup3\n                /* \"#utility.yul\":980:998   */\n              add\n                /* \"#utility.yul\":972:998   */\n              swap1\n              pop\n                /* \"#utility.yul\":1008:1079   */\n              tag_217\n                /* \"#utility.yul\":1076:1077   */\n              0x00\n                /* \"#utility.yul\":1065:1074   */\n              dup4\n                /* \"#utility.yul\":1061:1078   */\n              add\n                /* \"#utility.yul\":1052:1058   */\n              dup5\n                /* \"#utility.yul\":1008:1079   */\n              tag_164\n              jump\t// in\n            tag_217:\n                /* \"#utility.yul\":864:1086   */\n              swap3\n              swap2\n              pop\n              pop\n              jump\t// out\n                /* \"#utility.yul\":1173:1290   */\n            tag_166:\n                /* \"#utility.yul\":1282:1283   */\n              0x00\n                /* \"#utility.yul\":1279:1280   */\n              dup1\n                /* \"#utility.yul\":1272:1284   */\n              revert\n                /* \"#utility.yul\":1419:1515   */\n            tag_168:\n                /* \"#utility.yul\":1456:1463   */\n              0x00\n                /* \"#utility.yul\":1485:1509   */\n              tag_222\n                /* \"#utility.yul\":1503:1508   */\n              dup3\n                /* \"#utility.yul\":1485:1509   */\n              tag_160\n              jump\t// in\n            tag_222:\n                /* \"#utility.yul\":1474:1509   */\n              swap1\n              pop\n                /* \"#utility.yul\":1419:1515   */\n              swap2\n              swap1\n              pop\n              jump\t// out\n                /* \"#utility.yul\":1521:1643   */\n            tag_169:\n                /* \"#utility.yul\":1594:1618   */\n              tag_224\n                /* \"#utility.yul\":1612:1617   */\n              dup2\n                /* \"#utility.yul\":1594:1618   */\n              tag_168\n              jump\t// in\n            tag_224:\n                /* \"#utility.yul\":1587:1592   */\n              dup2\n                /* \"#utility.yul\":1584:1619   */\n              eq\n                /* \"#utility.yul\":1574:1637   */\n              tag_225\n              jumpi\n                /* \"#utility.yul\":1633:1634   */\n              0x00\n                /* \"#utility.yul\":1630:1631   */\n              dup1\n                /* \"#utility.yul\":1623:1635   */\n              revert\n                /* \"#utility.yul\":1574:1637   */\n            tag_225:\n                /* \"#utility.yul\":1521:1643   */\n              pop\n              jump\t// out\n                /* \"#utility.yul\":1649:1788   */\n            tag_170:\n                /* \"#utility.yul\":1695:1700   */\n              0x00\n                /* \"#utility.yul\":1733:1739   */\n              dup2\n                /* \"#utility.yul\":1720:1740   */\n              calldataload\n                /* \"#utility.yul\":1711:1740   */\n              swap1\n              pop\n                /* \"#utility.yul\":1749:1782   */\n              tag_227\n                /* \"#utility.yul\":1776:1781   */\n              dup2\n                /* \"#utility.yul\":1749:1782   */\n              tag_169\n              jump\t// in\n            tag_227:\n                /* \"#utility.yul\":1649:1788   */\n              swap3\n              swap2\n              pop\n              pop\n              jump\t// out\n                /* \"#utility.yul\":1794:2123   */\n            tag_40:\n                /* \"#utility.yul\":1853:1859   */\n              0x00\n                /* \"#utility.yul\":1902:1904   */\n              0x20\n                /* \"#utility.yul\":1890:1899   */\n              dup3\n                /* \"#utility.yul\":1881:1888   */\n              dup5\n                /* \"#utility.yul\":1877:1900   */\n              sub\n                /* \"#utility.yul\":1873:1905   */\n              slt\n                /* \"#utility.yul\":1870:1989   */\n              iszero\n              tag_229\n              jumpi\n                /* \"#utility.yul\":1908:1987   */\n              tag_230\n              tag_166\n              jump\t// in\n            tag_230:\n                /* \"#utility.yul\":1870:1989   */\n            tag_229:\n                /* \"#utility.yul\":2028:2029   */\n              0x00\n                /* \"#utility.yul\":2053:2106   */\n              tag_231\n                /* \"#utility.yul\":2098:2105   */\n              dup5\n                /* \"#utility.yul\":2089:2095   */\n              dup3\n                /* \"#utility.yul\":2078:2087   */\n              dup6\n                /* \"#utility.yul\":2074:2096   */\n              add\n                /* \"#utility.yul\":2053:2106   */\n              tag_170\n              jump\t// in\n            tag_231:\n                /* \"#utility.yul\":2043:2106   */\n              swap2\n              pop\n                /* \"#utility.yul\":1999:2116   */\n              pop\n                /* \"#utility.yul\":1794:2123   */\n              swap3\n              swap2\n              pop\n              pop\n              jump\t// out\n                /* \"#utility.yul\":2129:2219   */\n            tag_171:\n                /* \"#utility.yul\":2163:2170   */\n              0x00\n                /* \"#utility.yul\":2206:2211   */\n              dup2\n                /* \"#utility.yul\":2199:2212   */\n              iszero\n                /* \"#utility.yul\":2192:2213   */\n              iszero\n                /* \"#utility.yul\":2181:2213   */\n              swap1\n              pop\n                /* \"#utility.yul\":2129:2219   */\n              swap2\n              swap1\n              pop\n              jump\t// out\n                /* \"#utility.yul\":2225:2334   */\n            tag_172:\n                /* \"#utility.yul\":2306:2327   */\n              tag_234\n                /* \"#utility.yul\":2321:2326   */\n              dup2\n                /* \"#utility.yul\":2306:2327   */\n              tag_171\n              jump\t// in\n            tag_234:\n                /* \"#utility.yul\":2301:2304   */\n              dup3\n                /* \"#utility.yul\":2294:2328   */\n              mstore\n                /* \"#utility.yul\":2225:2334   */\n              pop\n              pop\n              jump\t// out\n                /* \"#utility.yul\":2340:2550   */\n            tag_43:\n                /* \"#utility.yul\":2427:2431   */\n              0x00\n                /* \"#utility.yul\":2465:2467   */\n              0x20\n                /* \"#utility.yul\":2454:2463   */\n              dup3\n                /* \"#utility.yul\":2450:2468   */\n              add\n                /* \"#utility.yul\":2442:2468   */\n              swap1\n              pop\n                /* \"#utility.yul\":2478:2543   */\n              tag_236\n                /* \"#utility.yul\":2540:2541   */\n              0x00\n                /* \"#utility.yul\":2529:2538   */\n              dup4\n                /* \"#utility.yul\":2525:2542   */\n              add\n                /* \"#utility.yul\":2516:2522   */\n              dup5\n                /* \"#utility.yul\":2478:2543   */\n              tag_172\n              jump\t// in\n            tag_236:\n                /* \"#utility.yul\":2340:2550   */\n              swap3\n              swap2\n              pop\n              pop\n              jump\t// out\n                /* \"#utility.yul\":2556:2674   */\n            tag_173:\n                /* \"#utility.yul\":2643:2667   */\n              tag_238\n                /* \"#utility.yul\":2661:2666   */\n              dup2\n                /* \"#utility.yul\":2643:2667   */\n              tag_168\n              jump\t// in\n            tag_238:\n                /* \"#utility.yul\":2638:2641   */\n              dup3\n                /* \"#utility.yul\":2631:2668   */\n              mstore\n                /* \"#utility.yul\":2556:2674   */\n              pop\n              pop\n              jump\t// out\n                /* \"#utility.yul\":2680:2902   */\n            tag_53:\n                /* \"#utility.yul\":2773:2777   */\n              0x00\n                /* \"#utility.yul\":2811:2813   */\n              0x20\n                /* \"#utility.yul\":2800:2809   */\n              dup3\n                /* \"#utility.yul\":2796:2814   */\n              add\n                /* \"#utility.yul\":2788:2814   */\n              swap1\n              pop\n                /* \"#utility.yul\":2824:2895   */\n              tag_240\n                /* \"#utility.yul\":2892:2893   */\n              0x00\n                /* \"#utility.yul\":2881:2890   */\n              dup4\n                /* \"#utility.yul\":2877:2894   */\n              add\n                /* \"#utility.yul\":2868:2874   */\n              dup5\n                /* \"#utility.yul\":2824:2895   */\n              tag_173\n              jump\t// in\n            tag_240:\n                /* \"#utility.yul\":2680:2902   */\n              swap3\n              swap2\n              pop\n              pop\n              jump\t// out\n                /* \"#utility.yul\":2908:3088   */\n            tag_89:\n                /* \"#utility.yul\":2956:3033   */\n              0x4e487b7100000000000000000000000000000000000000000000000000000000\n                /* \"#utility.yul\":2953:2954   */\n              0x00\n                /* \"#utility.yul\":2946:3034   */\n              mstore\n                /* \"#utility.yul\":3053:3057   */\n              0x21\n                /* \"#utility.yul\":3050:3051   */\n              0x04\n                /* \"#utility.yul\":3043:3058   */\n              mstore\n                /* \"#utility.yul\":3077:3081   */\n              0x24\n                /* \"#utility.yul\":3074:3075   */\n              0x00\n                /* \"#utility.yul\":3067:3082   */\n              revert\n                /* \"#utility.yul\":3094:3213   */\n            tag_174:\n                /* \"#utility.yul\":3181:3182   */\n              0x02\n                /* \"#utility.yul\":3174:3179   */\n              dup2\n                /* \"#utility.yul\":3171:3183   */\n              lt\n                /* \"#utility.yul\":3161:3207   */\n              tag_243\n              jumpi\n                /* \"#utility.yul\":3187:3205   */\n              tag_244\n              tag_89\n              jump\t// in\n            tag_244:\n                /* \"#utility.yul\":3161:3207   */\n            tag_243:\n                /* \"#utility.yul\":3094:3213   */\n              pop\n              jump\t// out\n                /* \"#utility.yul\":3219:3358   */\n            tag_175:\n                /* \"#utility.yul\":3270:3277   */\n              0x00\n                /* \"#utility.yul\":3299:3304   */\n              dup2\n                /* \"#utility.yul\":3288:3304   */\n              swap1\n              pop\n                /* \"#utility.yul\":3305:3352   */\n              tag_246\n                /* \"#utility.yul\":3346:3351   */\n              dup3\n                /* \"#utility.yul\":3305:3352   */\n              tag_174\n              jump\t// in\n            tag_246:\n                /* \"#utility.yul\":3219:3358   */\n              swap2\n              swap1\n              pop\n              jump\t// out\n                /* \"#utility.yul\":3364:3503   */\n            tag_176:\n                /* \"#utility.yul\":3426:3435   */\n              0x00\n                /* \"#utility.yul\":3459:3497   */\n              tag_248\n                /* \"#utility.yul\":3491:3496   */\n              dup3\n                /* \"#utility.yul\":3459:3497   */\n              tag_175\n              jump\t// in\n            tag_248:\n                /* \"#utility.yul\":3446:3497   */\n              swap1\n              pop\n                /* \"#utility.yul\":3364:3503   */\n              swap2\n              swap1\n              pop\n              jump\t// out\n                /* \"#utility.yul\":3509:3664   */\n            tag_177:\n                /* \"#utility.yul\":3608:3657   */\n              tag_250\n                /* \"#utility.yul\":3651:3656   */\n              dup2\n                /* \"#utility.yul\":3608:3657   */\n              tag_176\n              jump\t// in\n            tag_250:\n                /* \"#utility.yul\":3603:3606   */\n              dup3\n                /* \"#utility.yul\":3596:3658   */\n              mstore\n                /* \"#utility.yul\":3509:3664   */\n              pop\n              pop\n              jump\t// out\n                /* \"#utility.yul\":3670:3916   */\n            tag_62:\n                /* \"#utility.yul\":3775:3779   */\n              0x00\n                /* \"#utility.yul\":3813:3815   */\n              0x20\n                /* \"#utility.yul\":3802:3811   */\n              dup3\n                /* \"#utility.yul\":3798:3816   */\n              add\n                /* \"#utility.yul\":3790:3816   */\n              swap1\n              pop\n                /* \"#utility.yul\":3826:3909   */\n              tag_252\n                /* \"#utility.yul\":3906:3907   */\n              0x00\n                /* \"#utility.yul\":3895:3904   */\n              dup4\n                /* \"#utility.yul\":3891:3908   */\n              add\n                /* \"#utility.yul\":3882:3888   */\n              dup5\n                /* \"#utility.yul\":3826:3909   */\n              tag_177\n              jump\t// in\n            tag_252:\n                /* \"#utility.yul\":3670:3916   */\n              swap3\n              swap2\n              pop\n              pop\n              jump\t// out\n                /* \"#utility.yul\":3922:4021   */\n            tag_178:\n                /* \"#utility.yul\":3974:3980   */\n              0x00\n                /* \"#utility.yul\":4008:4013   */\n              dup2\n                /* \"#utility.yul\":4002:4014   */\n              mload\n                /* \"#utility.yul\":3992:4014   */\n              swap1\n              pop\n                /* \"#utility.yul\":3922:4021   */\n              swap2\n              swap1\n              pop\n              jump\t// out\n                /* \"#utility.yul\":4027:4196   */\n            tag_179:\n                /* \"#utility.yul\":4111:4122   */\n              0x00\n                /* \"#utility.yul\":4145:4151   */\n              dup3\n                /* \"#utility.yul\":4140:4143   */\n              dup3\n                /* \"#utility.yul\":4133:4152   */\n              mstore\n                /* \"#utility.yul\":4185:4189   */\n              0x20\n                /* \"#utility.yul\":4180:4183   */\n              dup3\n                /* \"#utility.yul\":4176:4190   */\n              add\n                /* \"#utility.yul\":4161:4190   */\n              swap1\n              pop\n                /* \"#utility.yul\":4027:4196   */\n              swap3\n              swap2\n              pop\n              pop\n              jump\t// out\n                /* \"#utility.yul\":4202:4448   */\n            tag_180:\n                /* \"#utility.yul\":4283:4284   */\n              0x00\n                /* \"#utility.yul\":4293:4406   */\n            tag_256:\n                /* \"#utility.yul\":4307:4313   */\n              dup4\n                /* \"#utility.yul\":4304:4305   */\n              dup2\n                /* \"#utility.yul\":4301:4314   */\n              lt\n                /* \"#utility.yul\":4293:4406   */\n              iszero\n              tag_258\n              jumpi\n                /* \"#utility.yul\":4392:4393   */\n              dup1\n                /* \"#utility.yul\":4387:4390   */\n              dup3\n                /* \"#utility.yul\":4383:4394   */\n              add\n                /* \"#utility.yul\":4377:4395   */\n              mload\n                /* \"#utility.yul\":4373:4374   */\n              dup2\n                /* \"#utility.yul\":4368:4371   */\n              dup5\n                /* \"#utility.yul\":4364:4375   */\n              add\n                /* \"#utility.yul\":4357:4396   */\n              mstore\n                /* \"#utility.yul\":4329:4331   */\n              0x20\n                /* \"#utility.yul\":4326:4327   */\n              dup2\n                /* \"#utility.yul\":4322:4332   */\n              add\n                /* \"#utility.yul\":4317:4332   */\n              swap1\n              pop\n                /* \"#utility.yul\":4293:4406   */\n              jump(tag_256)\n            tag_258:\n                /* \"#utility.yul\":4440:4441   */\n              0x00\n                /* \"#utility.yul\":4431:4437   */\n              dup5\n                /* \"#utility.yul\":4426:4429   */\n              dup5\n                /* \"#utility.yul\":4422:4438   */\n              add\n                /* \"#utility.yul\":4415:4442   */\n              mstore\n                /* \"#utility.yul\":4264:4448   */\n              pop\n                /* \"#utility.yul\":4202:4448   */\n              pop\n              pop\n              pop\n              jump\t// out\n                /* \"#utility.yul\":4454:4556   */\n            tag_181:\n                /* \"#utility.yul\":4495:4501   */\n              0x00\n                /* \"#utility.yul\":4546:4548   */\n              0x1f\n                /* \"#utility.yul\":4542:4549   */\n              not\n                /* \"#utility.yul\":4537:4539   */\n              0x1f\n                /* \"#utility.yul\":4530:4535   */\n              dup4\n                /* \"#utility.yul\":4526:4540   */\n              add\n                /* \"#utility.yul\":4522:4550   */\n              and\n                /* \"#utility.yul\":4512:4550   */\n              swap1\n              pop\n                /* \"#utility.yul\":4454:4556   */\n              swap2\n              swap1\n              pop\n              jump\t// out\n                /* \"#utility.yul\":4562:4939   */\n            tag_182:\n                /* \"#utility.yul\":4650:4653   */\n              0x00\n                /* \"#utility.yul\":4678:4717   */\n              tag_261\n                /* \"#utility.yul\":4711:4716   */\n              dup3\n                /* \"#utility.yul\":4678:4717   */\n              tag_178\n              jump\t// in\n            tag_261:\n                /* \"#utility.yul\":4733:4804   */\n              tag_262\n                /* \"#utility.yul\":4797:4803   */\n              dup2\n                /* \"#utility.yul\":4792:4795   */\n              dup6\n                /* \"#utility.yul\":4733:4804   */\n              tag_179\n              jump\t// in\n            tag_262:\n                /* \"#utility.yul\":4726:4804   */\n              swap4\n              pop\n                /* \"#utility.yul\":4813:4878   */\n              tag_263\n                /* \"#utility.yul\":4871:4877   */\n              dup2\n                /* \"#utility.yul\":4866:4869   */\n              dup6\n                /* \"#utility.yul\":4859:4863   */\n              0x20\n                /* \"#utility.yul\":4852:4857   */\n              dup7\n                /* \"#utility.yul\":4848:4864   */\n              add\n                /* \"#utility.yul\":4813:4878   */\n              tag_180\n              jump\t// in\n            tag_263:\n                /* \"#utility.yul\":4903:4932   */\n              tag_264\n                /* \"#utility.yul\":4925:4931   */\n              dup2\n                /* \"#utility.yul\":4903:4932   */\n              tag_181\n              jump\t// in\n            tag_264:\n                /* \"#utility.yul\":4898:4901   */\n              dup5\n                /* \"#utility.yul\":4894:4933   */\n              add\n                /* \"#utility.yul\":4887:4933   */\n              swap2\n              pop\n                /* \"#utility.yul\":4654:4939   */\n              pop\n                /* \"#utility.yul\":4562:4939   */\n              swap3\n              swap2\n              pop\n              pop\n              jump\t// out\n                /* \"#utility.yul\":4945:5258   */\n            tag_67:\n                /* \"#utility.yul\":5058:5062   */\n              0x00\n                /* \"#utility.yul\":5096:5098   */\n              0x20\n                /* \"#utility.yul\":5085:5094   */\n              dup3\n                /* \"#utility.yul\":5081:5099   */\n              add\n                /* \"#utility.yul\":5073:5099   */\n              swap1\n              pop\n                /* \"#utility.yul\":5145:5154   */\n              dup2\n                /* \"#utility.yul\":5139:5143   */\n              dup2\n                /* \"#utility.yul\":5135:5155   */\n              sub\n                /* \"#utility.yul\":5131:5132   */\n              0x00\n                /* \"#utility.yul\":5120:5129   */\n              dup4\n                /* \"#utility.yul\":5116:5133   */\n              add\n                /* \"#utility.yul\":5109:5156   */\n              mstore\n                /* \"#utility.yul\":5173:5251   */\n              tag_266\n                /* \"#utility.yul\":5246:5250   */\n              dup2\n                /* \"#utility.yul\":5237:5243   */\n              dup5\n                /* \"#utility.yul\":5173:5251   */\n              tag_182\n              jump\t// in\n            tag_266:\n                /* \"#utility.yul\":5165:5251   */\n              swap1\n              pop\n                /* \"#utility.yul\":4945:5258   */\n              swap3\n              swap2\n              pop\n              pop\n              jump\t// out\n                /* \"#utility.yul\":5264:5386   */\n            tag_183:\n                /* \"#utility.yul\":5337:5361   */\n              tag_268\n                /* \"#utility.yul\":5355:5360   */\n              dup2\n                /* \"#utility.yul\":5337:5361   */\n              tag_163\n              jump\t// in\n            tag_268:\n                /* \"#utility.yul\":5330:5335   */\n              dup2\n                /* \"#utility.yul\":5327:5362   */\n              eq\n                /* \"#utility.yul\":5317:5380   */\n              tag_269\n              jumpi\n                /* \"#utility.yul\":5376:5377   */\n              0x00\n                /* \"#utility.yul\":5373:5374   */\n              dup1\n                /* \"#utility.yul\":5366:5378   */\n              revert\n                /* \"#utility.yul\":5317:5380   */\n            tag_269:\n                /* \"#utility.yul\":5264:5386   */\n              pop\n              jump\t// out\n                /* \"#utility.yul\":5392:5531   */\n            tag_184:\n                /* \"#utility.yul\":5438:5443   */\n              0x00\n                /* \"#utility.yul\":5476:5482   */\n              dup2\n                /* \"#utility.yul\":5463:5483   */\n              calldataload\n                /* \"#utility.yul\":5454:5483   */\n              swap1\n              pop\n                /* \"#utility.yul\":5492:5525   */\n              tag_271\n                /* \"#utility.yul\":5519:5524   */\n              dup2\n                /* \"#utility.yul\":5492:5525   */\n              tag_183\n              jump\t// in\n            tag_271:\n                /* \"#utility.yul\":5392:5531   */\n              swap3\n              swap2\n              pop\n              pop\n              jump\t// out\n                /* \"#utility.yul\":5537:5866   */\n            tag_71:\n                /* \"#utility.yul\":5596:5602   */\n              0x00\n                /* \"#utility.yul\":5645:5647   */\n              0x20\n                /* \"#utility.yul\":5633:5642   */\n              dup3\n                /* \"#utility.yul\":5624:5631   */\n              dup5\n                /* \"#utility.yul\":5620:5643   */\n              sub\n                /* \"#utility.yul\":5616:5648   */\n              slt\n                /* \"#utility.yul\":5613:5732   */\n              iszero\n              tag_273\n              jumpi\n                /* \"#utility.yul\":5651:5730   */\n              tag_274\n              tag_166\n              jump\t// in\n            tag_274:\n                /* \"#utility.yul\":5613:5732   */\n            tag_273:\n                /* \"#utility.yul\":5771:5772   */\n              0x00\n                /* \"#utility.yul\":5796:5849   */\n              tag_275\n                /* \"#utility.yul\":5841:5848   */\n              dup5\n                /* \"#utility.yul\":5832:5838   */\n              dup3\n                /* \"#utility.yul\":5821:5830   */\n              dup6\n                /* \"#utility.yul\":5817:5839   */\n              add\n                /* \"#utility.yul\":5796:5849   */\n              tag_184\n              jump\t// in\n            tag_275:\n                /* \"#utility.yul\":5786:5849   */\n              swap2\n              pop\n                /* \"#utility.yul\":5742:5859   */\n              pop\n                /* \"#utility.yul\":5537:5866   */\n              swap3\n              swap2\n              pop\n              pop\n              jump\t// out\n                /* \"#utility.yul\":5872:6042   */\n            tag_185:\n                /* \"#utility.yul\":6012:6034   */\n              0x41756374696f6e206973206e6f7420656e646564000000000000000000000000\n                /* \"#utility.yul\":6008:6009   */\n              0x00\n                /* \"#utility.yul\":6000:6006   */\n              dup3\n                /* \"#utility.yul\":5996:6010   */\n              add\n                /* \"#utility.yul\":5989:6035   */\n              mstore\n                /* \"#utility.yul\":5872:6042   */\n              pop\n              jump\t// out\n                /* \"#utility.yul\":6048:6414   */\n            tag_186:\n                /* \"#utility.yul\":6190:6193   */\n              0x00\n                /* \"#utility.yul\":6211:6278   */\n              tag_278\n                /* \"#utility.yul\":6275:6277   */\n              0x14\n                /* \"#utility.yul\":6270:6273   */\n              dup4\n                /* \"#utility.yul\":6211:6278   */\n              tag_179\n              jump\t// in\n            tag_278:\n                /* \"#utility.yul\":6204:6278   */\n              swap2\n              pop\n                /* \"#utility.yul\":6287:6380   */\n              tag_279\n                /* \"#utility.yul\":6376:6379   */\n              dup3\n                /* \"#utility.yul\":6287:6380   */\n              tag_185\n              jump\t// in\n            tag_279:\n                /* \"#utility.yul\":6405:6407   */\n              0x20\n                /* \"#utility.yul\":6400:6403   */\n              dup3\n                /* \"#utility.yul\":6396:6408   */\n              add\n                /* \"#utility.yul\":6389:6408   */\n              swap1\n              pop\n                /* \"#utility.yul\":6048:6414   */\n              swap2\n              swap1\n              pop\n              jump\t// out\n                /* \"#utility.yul\":6420:6839   */\n            tag_94:\n                /* \"#utility.yul\":6586:6590   */\n              0x00\n                /* \"#utility.yul\":6624:6626   */\n              0x20\n                /* \"#utility.yul\":6613:6622   */\n              dup3\n                /* \"#utility.yul\":6609:6627   */\n              add\n                /* \"#utility.yul\":6601:6627   */\n              swap1\n              pop\n                /* \"#utility.yul\":6673:6682   */\n              dup2\n                /* \"#utility.yul\":6667:6671   */\n              dup2\n                /* \"#utility.yul\":6663:6683   */\n              sub\n                /* \"#utility.yul\":6659:6660   */\n              0x00\n                /* \"#utility.yul\":6648:6657   */\n              dup4\n                /* \"#utility.yul\":6644:6661   */\n              add\n                /* \"#utility.yul\":6637:6684   */\n              mstore\n                /* \"#utility.yul\":6701:6832   */\n              tag_281\n                /* \"#utility.yul\":6827:6831   */\n              dup2\n                /* \"#utility.yul\":6701:6832   */\n              tag_186\n              jump\t// in\n            tag_281:\n                /* \"#utility.yul\":6693:6832   */\n              swap1\n              pop\n                /* \"#utility.yul\":6420:6839   */\n              swap2\n              swap1\n              pop\n              jump\t// out\n                /* \"#utility.yul\":6845:7012   */\n            tag_187:\n                /* \"#utility.yul\":6985:7004   */\n              0x416c72656164792077697468647261776e000000000000000000000000000000\n                /* \"#utility.yul\":6981:6982   */\n              0x00\n                /* \"#utility.yul\":6973:6979   */\n              dup3\n                /* \"#utility.yul\":6969:6983   */\n              add\n                /* \"#utility.yul\":6962:7005   */\n              mstore\n                /* \"#utility.yul\":6845:7012   */\n              pop\n              jump\t// out\n                /* \"#utility.yul\":7018:7384   */\n            tag_188:\n                /* \"#utility.yul\":7160:7163   */\n              0x00\n                /* \"#utility.yul\":7181:7248   */\n              tag_284\n                /* \"#utility.yul\":7245:7247   */\n              0x11\n                /* \"#utility.yul\":7240:7243   */\n              dup4\n                /* \"#utility.yul\":7181:7248   */\n              tag_179\n              jump\t// in\n            tag_284:\n                /* \"#utility.yul\":7174:7248   */\n              swap2\n              pop\n                /* \"#utility.yul\":7257:7350   */\n              tag_285\n                /* \"#utility.yul\":7346:7349   */\n              dup3\n                /* \"#utility.yul\":7257:7350   */\n              tag_187\n              jump\t// in\n            tag_285:\n                /* \"#utility.yul\":7375:7377   */\n              0x20\n                /* \"#utility.yul\":7370:7373   */\n              dup3\n                /* \"#utility.yul\":7366:7378   */\n              add\n                /* \"#utility.yul\":7359:7378   */\n              swap1\n              pop\n                /* \"#utility.yul\":7018:7384   */\n              swap2\n              swap1\n              pop\n              jump\t// out\n                /* \"#utility.yul\":7390:7809   */\n            tag_97:\n                /* \"#utility.yul\":7556:7560   */\n              0x00\n                /* \"#utility.yul\":7594:7596   */\n              0x20\n                /* \"#utility.yul\":7583:7592   */\n              dup3\n                /* \"#utility.yul\":7579:7597   */\n              add\n                /* \"#utility.yul\":7571:7597   */\n              swap1\n              pop\n                /* \"#utility.yul\":7643:7652   */\n              dup2\n                /* \"#utility.yul\":7637:7641   */\n              dup2\n                /* \"#utility.yul\":7633:7653   */\n              sub\n                /* \"#utility.yul\":7629:7630   */\n              0x00\n                /* \"#utility.yul\":7618:7627   */\n              dup4\n                /* \"#utility.yul\":7614:7631   */\n              add\n                /* \"#utility.yul\":7607:7654   */\n              mstore\n                /* \"#utility.yul\":7671:7802   */\n              tag_287\n                /* \"#utility.yul\":7797:7801   */\n              dup2\n                /* \"#utility.yul\":7671:7802   */\n              tag_188\n              jump\t// in\n            tag_287:\n                /* \"#utility.yul\":7663:7802   */\n              swap1\n              pop\n                /* \"#utility.yul\":7390:7809   */\n              swap2\n              swap1\n              pop\n              jump\t// out\n                /* \"#utility.yul\":7815:7995   */\n            tag_189:\n                /* \"#utility.yul\":7863:7940   */\n              0x4e487b7100000000000000000000000000000000000000000000000000000000\n                /* \"#utility.yul\":7860:7861   */\n              0x00\n                /* \"#utility.yul\":7853:7941   */\n              mstore\n                /* \"#utility.yul\":7960:7964   */\n              0x22\n                /* \"#utility.yul\":7957:7958   */\n              0x04\n                /* \"#utility.yul\":7950:7965   */\n              mstore\n                /* \"#utility.yul\":7984:7988   */\n              0x24\n                /* \"#utility.yul\":7981:7982   */\n              0x00\n                /* \"#utility.yul\":7974:7989   */\n              revert\n                /* \"#utility.yul\":8001:8321   */\n            tag_103:\n                /* \"#utility.yul\":8045:8051   */\n              0x00\n                /* \"#utility.yul\":8082:8083   */\n              0x02\n                /* \"#utility.yul\":8076:8080   */\n              dup3\n                /* \"#utility.yul\":8072:8084   */\n              div\n                /* \"#utility.yul\":8062:8084   */\n              swap1\n              pop\n                /* \"#utility.yul\":8129:8130   */\n              0x01\n                /* \"#utility.yul\":8123:8127   */\n              dup3\n                /* \"#utility.yul\":8119:8131   */\n              and\n                /* \"#utility.yul\":8150:8168   */\n              dup1\n                /* \"#utility.yul\":8140:8221   */\n              tag_290\n              jumpi\n                /* \"#utility.yul\":8206:8210   */\n              0x7f\n                /* \"#utility.yul\":8198:8204   */\n              dup3\n                /* \"#utility.yul\":8194:8211   */\n              and\n                /* \"#utility.yul\":8184:8211   */\n              swap2\n              pop\n                /* \"#utility.yul\":8140:8221   */\n            tag_290:\n                /* \"#utility.yul\":8268:8270   */\n              0x20\n                /* \"#utility.yul\":8260:8266   */\n              dup3\n                /* \"#utility.yul\":8257:8271   */\n              lt\n                /* \"#utility.yul\":8237:8255   */\n              dup2\n                /* \"#utility.yul\":8234:8272   */\n              sub\n                /* \"#utility.yul\":8231:8315   */\n              tag_291\n              jumpi\n                /* \"#utility.yul\":8287:8305   */\n              tag_292\n              tag_189\n              jump\t// in\n            tag_292:\n                /* \"#utility.yul\":8231:8315   */\n            tag_291:\n                /* \"#utility.yul\":8052:8321   */\n              pop\n                /* \"#utility.yul\":8001:8321   */\n              swap2\n              swap1\n              pop\n              jump\t// out\n                /* \"#utility.yul\":8327:8553   */\n            tag_190:\n                /* \"#utility.yul\":8467:8501   */\n              0x4f6e6c792068696768657374206269646465722063616e207261746520746865\n                /* \"#utility.yul\":8463:8464   */\n              0x00\n                /* \"#utility.yul\":8455:8461   */\n              dup3\n                /* \"#utility.yul\":8451:8465   */\n              add\n                /* \"#utility.yul\":8444:8502   */\n              mstore\n                /* \"#utility.yul\":8536:8545   */\n              0x2073656c6c657200000000000000000000000000000000000000000000000000\n                /* \"#utility.yul\":8531:8533   */\n              0x20\n                /* \"#utility.yul\":8523:8529   */\n              dup3\n                /* \"#utility.yul\":8519:8534   */\n              add\n                /* \"#utility.yul\":8512:8546   */\n              mstore\n                /* \"#utility.yul\":8327:8553   */\n              pop\n              jump\t// out\n                /* \"#utility.yul\":8559:8925   */\n            tag_191:\n                /* \"#utility.yul\":8701:8704   */\n              0x00\n                /* \"#utility.yul\":8722:8789   */\n              tag_295\n                /* \"#utility.yul\":8786:8788   */\n              0x27\n                /* \"#utility.yul\":8781:8784   */\n              dup4\n                /* \"#utility.yul\":8722:8789   */\n              tag_179\n              jump\t// in\n            tag_295:\n                /* \"#utility.yul\":8715:8789   */\n              swap2\n              pop\n                /* \"#utility.yul\":8798:8891   */\n              tag_296\n                /* \"#utility.yul\":8887:8890   */\n              dup3\n                /* \"#utility.yul\":8798:8891   */\n              tag_190\n              jump\t// in\n            tag_296:\n                /* \"#utility.yul\":8916:8918   */\n              0x40\n                /* \"#utility.yul\":8911:8914   */\n              dup3\n                /* \"#utility.yul\":8907:8919   */\n              add\n                /* \"#utility.yul\":8900:8919   */\n              swap1\n              pop\n                /* \"#utility.yul\":8559:8925   */\n              swap2\n              swap1\n              pop\n              jump\t// out\n                /* \"#utility.yul\":8931:9350   */\n            tag_117:\n                /* \"#utility.yul\":9097:9101   */\n              0x00\n                /* \"#utility.yul\":9135:9137   */\n              0x20\n                /* \"#utility.yul\":9124:9133   */\n              dup3\n                /* \"#utility.yul\":9120:9138   */\n              add\n                /* \"#utility.yul\":9112:9138   */\n              swap1\n              pop\n                /* \"#utility.yul\":9184:9193   */\n              dup2\n                /* \"#utility.yul\":9178:9182   */\n              dup2\n                /* \"#utility.yul\":9174:9194   */\n              sub\n                /* \"#utility.yul\":9170:9171   */\n              0x00\n                /* \"#utility.yul\":9159:9168   */\n              dup4\n                /* \"#utility.yul\":9155:9172   */\n              add\n                /* \"#utility.yul\":9148:9195   */\n              mstore\n                /* \"#utility.yul\":9212:9343   */\n              tag_298\n                /* \"#utility.yul\":9338:9342   */\n              dup2\n                /* \"#utility.yul\":9212:9343   */\n              tag_191\n              jump\t// in\n            tag_298:\n                /* \"#utility.yul\":9204:9343   */\n              swap1\n              pop\n                /* \"#utility.yul\":8931:9350   */\n              swap2\n              swap1\n              pop\n              jump\t// out\n                /* \"#utility.yul\":9356:9526   */\n            tag_192:\n                /* \"#utility.yul\":9496:9518   */\n              0x53656c6c657220616c7265616479207261746564000000000000000000000000\n                /* \"#utility.yul\":9492:9493   */\n              0x00\n                /* \"#utility.yul\":9484:9490   */\n              dup3\n                /* \"#utility.yul\":9480:9494   */\n              add\n                /* \"#utility.yul\":9473:9519   */\n              mstore\n                /* \"#utility.yul\":9356:9526   */\n              pop\n              jump\t// out\n                /* \"#utility.yul\":9532:9898   */\n            tag_193:\n                /* \"#utility.yul\":9674:9677   */\n              0x00\n                /* \"#utility.yul\":9695:9762   */\n              tag_301\n                /* \"#utility.yul\":9759:9761   */\n              0x14\n                /* \"#utility.yul\":9754:9757   */\n              dup4\n                /* \"#utility.yul\":9695:9762   */\n              tag_179\n              jump\t// in\n            tag_301:\n                /* \"#utility.yul\":9688:9762   */\n              swap2\n              pop\n                /* \"#utility.yul\":9771:9864   */\n              tag_302\n                /* \"#utility.yul\":9860:9863   */\n              dup3\n                /* \"#utility.yul\":9771:9864   */\n              tag_192\n              jump\t// in\n            tag_302:\n                /* \"#utility.yul\":9889:9891   */\n              0x20\n                /* \"#utility.yul\":9884:9887   */\n              dup3\n                /* \"#utility.yul\":9880:9892   */\n              add\n                /* \"#utility.yul\":9873:9892   */\n              swap1\n              pop\n                /* \"#utility.yul\":9532:9898   */\n              swap2\n              swap1\n              pop\n              jump\t// out\n                /* \"#utility.yul\":9904:10323   */\n            tag_120:\n                /* \"#utility.yul\":10070:10074   */\n              0x00\n                /* \"#utility.yul\":10108:10110   */\n              0x20\n                /* \"#utility.yul\":10097:10106   */\n              dup3\n                /* \"#utility.yul\":10093:10111   */\n              add\n                /* \"#utility.yul\":10085:10111   */\n              swap1\n              pop\n                /* \"#utility.yul\":10157:10166   */\n              dup2\n                /* \"#utility.yul\":10151:10155   */\n              dup2\n                /* \"#utility.yul\":10147:10167   */\n              sub\n                /* \"#utility.yul\":10143:10144   */\n              0x00\n                /* \"#utility.yul\":10132:10141   */\n              dup4\n                /* \"#utility.yul\":10128:10145   */\n              add\n                /* \"#utility.yul\":10121:10168   */\n              mstore\n                /* \"#utility.yul\":10185:10316   */\n              tag_304\n                /* \"#utility.yul\":10311:10315   */\n              dup2\n                /* \"#utility.yul\":10185:10316   */\n              tag_193\n              jump\t// in\n            tag_304:\n                /* \"#utility.yul\":10177:10316   */\n              swap1\n              pop\n                /* \"#utility.yul\":9904:10323   */\n              swap2\n              swap1\n              pop\n              jump\t// out\n                /* \"#utility.yul\":10329:10499   */\n            tag_194:\n                /* \"#utility.yul\":10469:10491   */\n              0x496e76616c696420726174696e672076616c7565000000000000000000000000\n                /* \"#utility.yul\":10465:10466   */\n              0x00\n                /* \"#utility.yul\":10457:10463   */\n              dup3\n                /* \"#utility.yul\":10453:10467   */\n              add\n                /* \"#utility.yul\":10446:10492   */\n              mstore\n                /* \"#utility.yul\":10329:10499   */\n              pop\n              jump\t// out\n                /* \"#utility.yul\":10505:10871   */\n            tag_195:\n                /* \"#utility.yul\":10647:10650   */\n              0x00\n                /* \"#utility.yul\":10668:10735   */\n              tag_307\n                /* \"#utility.yul\":10732:10734   */\n              0x14\n                /* \"#utility.yul\":10727:10730   */\n              dup4\n                /* \"#utility.yul\":10668:10735   */\n              tag_179\n              jump\t// in\n            tag_307:\n                /* \"#utility.yul\":10661:10735   */\n              swap2\n              pop\n                /* \"#utility.yul\":10744:10837   */\n              tag_308\n                /* \"#utility.yul\":10833:10836   */\n              dup3\n                /* \"#utility.yul\":10744:10837   */\n              tag_194\n              jump\t// in\n            tag_308:\n                /* \"#utility.yul\":10862:10864   */\n              0x20\n                /* \"#utility.yul\":10857:10860   */\n              dup3\n                /* \"#utility.yul\":10853:10865   */\n              add\n                /* \"#utility.yul\":10846:10865   */\n              swap1\n              pop\n                /* \"#utility.yul\":10505:10871   */\n              swap2\n              swap1\n              pop\n              jump\t// out\n                /* \"#utility.yul\":10877:11296   */\n            tag_124:\n                /* \"#utility.yul\":11043:11047   */\n              0x00\n                /* \"#utility.yul\":11081:11083   */\n              0x20\n                /* \"#utility.yul\":11070:11079   */\n              dup3\n                /* \"#utility.yul\":11066:11084   */\n              add\n                /* \"#utility.yul\":11058:11084   */\n              swap1\n              pop\n                /* \"#utility.yul\":11130:11139   */\n              dup2\n                /* \"#utility.yul\":11124:11128   */\n              dup2\n                /* \"#utility.yul\":11120:11140   */\n              sub\n                /* \"#utility.yul\":11116:11117   */\n              0x00\n                /* \"#utility.yul\":11105:11114   */\n              dup4\n                /* \"#utility.yul\":11101:11118   */\n              add\n                /* \"#utility.yul\":11094:11141   */\n              mstore\n                /* \"#utility.yul\":11158:11289   */\n              tag_310\n                /* \"#utility.yul\":11284:11288   */\n              dup2\n                /* \"#utility.yul\":11158:11289   */\n              tag_195\n              jump\t// in\n            tag_310:\n                /* \"#utility.yul\":11150:11289   */\n              swap1\n              pop\n                /* \"#utility.yul\":10877:11296   */\n              swap2\n              swap1\n              pop\n              jump\t// out\n                /* \"#utility.yul\":11302:11473   */\n            tag_196:\n                /* \"#utility.yul\":11442:11465   */\n              0x41756374696f6e206973206e6f74206163746976650000000000000000000000\n                /* \"#utility.yul\":11438:11439   */\n              0x00\n                /* \"#utility.yul\":11430:11436   */\n              dup3\n                /* \"#utility.yul\":11426:11440   */\n              add\n                /* \"#utility.yul\":11419:11466   */\n              mstore\n                /* \"#utility.yul\":11302:11473   */\n              pop\n              jump\t// out\n                /* \"#utility.yul\":11479:11845   */\n            tag_197:\n                /* \"#utility.yul\":11621:11624   */\n              0x00\n                /* \"#utility.yul\":11642:11709   */\n              tag_313\n                /* \"#utility.yul\":11706:11708   */\n              0x15\n                /* \"#utility.yul\":11701:11704   */\n              dup4\n                /* \"#utility.yul\":11642:11709   */\n              tag_179\n              jump\t// in\n            tag_313:\n                /* \"#utility.yul\":11635:11709   */\n              swap2\n              pop\n                /* \"#utility.yul\":11718:11811   */\n              tag_314\n                /* \"#utility.yul\":11807:11810   */\n              dup3\n                /* \"#utility.yul\":11718:11811   */\n              tag_196\n              jump\t// in\n            tag_314:\n                /* \"#utility.yul\":11836:11838   */\n              0x20\n                /* \"#utility.yul\":11831:11834   */\n              dup3\n                /* \"#utility.yul\":11827:11839   */\n              add\n                /* \"#utility.yul\":11820:11839   */\n              swap1\n              pop\n                /* \"#utility.yul\":11479:11845   */\n              swap2\n              swap1\n              pop\n              jump\t// out\n                /* \"#utility.yul\":11851:12270   */\n            tag_132:\n                /* \"#utility.yul\":12017:12021   */\n              0x00\n                /* \"#utility.yul\":12055:12057   */\n              0x20\n                /* \"#utility.yul\":12044:12053   */\n              dup3\n                /* \"#utility.yul\":12040:12058   */\n              add\n                /* \"#utility.yul\":12032:12058   */\n              swap1\n              pop\n                /* \"#utility.yul\":12104:12113   */\n              dup2\n                /* \"#utility.yul\":12098:12102   */\n              dup2\n                /* \"#utility.yul\":12094:12114   */\n              sub\n                /* \"#utility.yul\":12090:12091   */\n              0x00\n                /* \"#utility.yul\":12079:12088   */\n              dup4\n                /* \"#utility.yul\":12075:12092   */\n              add\n                /* \"#utility.yul\":12068:12115   */\n              mstore\n                /* \"#utility.yul\":12132:12263   */\n              tag_316\n                /* \"#utility.yul\":12258:12262   */\n              dup2\n                /* \"#utility.yul\":12132:12263   */\n              tag_197\n              jump\t// in\n            tag_316:\n                /* \"#utility.yul\":12124:12263   */\n              swap1\n              pop\n                /* \"#utility.yul\":11851:12270   */\n              swap2\n              swap1\n              pop\n              jump\t// out\n                /* \"#utility.yul\":12276:12444   */\n            tag_198:\n                /* \"#utility.yul\":12416:12436   */\n              0x42696420616d6f756e7420746f6f206c6f770000000000000000000000000000\n                /* \"#utility.yul\":12412:12413   */\n              0x00\n                /* \"#utility.yul\":12404:12410   */\n              dup3\n                /* \"#utility.yul\":12400:12414   */\n              add\n                /* \"#utility.yul\":12393:12437   */\n              mstore\n                /* \"#utility.yul\":12276:12444   */\n              pop\n              jump\t// out\n                /* \"#utility.yul\":12450:12816   */\n            tag_199:\n                /* \"#utility.yul\":12592:12595   */\n              0x00\n                /* \"#utility.yul\":12613:12680   */\n              tag_319\n                /* \"#utility.yul\":12677:12679   */\n              0x12\n                /* \"#utility.yul\":12672:12675   */\n              dup4\n                /* \"#utility.yul\":12613:12680   */\n              tag_179\n              jump\t// in\n            tag_319:\n                /* \"#utility.yul\":12606:12680   */\n              swap2\n              pop\n                /* \"#utility.yul\":12689:12782   */\n              tag_320\n                /* \"#utility.yul\":12778:12781   */\n              dup3\n                /* \"#utility.yul\":12689:12782   */\n              tag_198\n              jump\t// in\n            tag_320:\n                /* \"#utility.yul\":12807:12809   */\n              0x20\n                /* \"#utility.yul\":12802:12805   */\n              dup3\n                /* \"#utility.yul\":12798:12810   */\n              add\n                /* \"#utility.yul\":12791:12810   */\n              swap1\n              pop\n                /* \"#utility.yul\":12450:12816   */\n              swap2\n              swap1\n              pop\n              jump\t// out\n                /* \"#utility.yul\":12822:13241   */\n            tag_135:\n                /* \"#utility.yul\":12988:12992   */\n              0x00\n                /* \"#utility.yul\":13026:13028   */\n              0x20\n                /* \"#utility.yul\":13015:13024   */\n              dup3\n                /* \"#utility.yul\":13011:13029   */\n              add\n                /* \"#utility.yul\":13003:13029   */\n              swap1\n              pop\n                /* \"#utility.yul\":13075:13084   */\n              dup2\n                /* \"#utility.yul\":13069:13073   */\n              dup2\n                /* \"#utility.yul\":13065:13085   */\n              sub\n                /* \"#utility.yul\":13061:13062   */\n              0x00\n                /* \"#utility.yul\":13050:13059   */\n              dup4\n                /* \"#utility.yul\":13046:13063   */\n              add\n                /* \"#utility.yul\":13039:13086   */\n              mstore\n                /* \"#utility.yul\":13103:13234   */\n              tag_322\n                /* \"#utility.yul\":13229:13233   */\n              dup2\n                /* \"#utility.yul\":13103:13234   */\n              tag_199\n              jump\t// in\n            tag_322:\n                /* \"#utility.yul\":13095:13234   */\n              swap1\n              pop\n                /* \"#utility.yul\":12822:13241   */\n              swap2\n              swap1\n              pop\n              jump\t// out\n                /* \"#utility.yul\":13247:13427   */\n            tag_200:\n                /* \"#utility.yul\":13295:13372   */\n              0x4e487b7100000000000000000000000000000000000000000000000000000000\n                /* \"#utility.yul\":13292:13293   */\n              0x00\n                /* \"#utility.yul\":13285:13373   */\n              mstore\n                /* \"#utility.yul\":13392:13396   */\n              0x11\n                /* \"#utility.yul\":13389:13390   */\n              0x04\n                /* \"#utility.yul\":13382:13397   */\n              mstore\n                /* \"#utility.yul\":13416:13420   */\n              0x24\n                /* \"#utility.yul\":13413:13414   */\n              0x00\n                /* \"#utility.yul\":13406:13421   */\n              revert\n                /* \"#utility.yul\":13433:13624   */\n            tag_138:\n                /* \"#utility.yul\":13473:13476   */\n              0x00\n                /* \"#utility.yul\":13492:13512   */\n              tag_325\n                /* \"#utility.yul\":13510:13511   */\n              dup3\n                /* \"#utility.yul\":13492:13512   */\n              tag_163\n              jump\t// in\n            tag_325:\n                /* \"#utility.yul\":13487:13512   */\n              swap2\n              pop\n                /* \"#utility.yul\":13526:13546   */\n              tag_326\n                /* \"#utility.yul\":13544:13545   */\n              dup4\n                /* \"#utility.yul\":13526:13546   */\n              tag_163\n              jump\t// in\n            tag_326:\n                /* \"#utility.yul\":13521:13546   */\n              swap3\n              pop\n                /* \"#utility.yul\":13569:13570   */\n              dup3\n                /* \"#utility.yul\":13566:13567   */\n              dup3\n                /* \"#utility.yul\":13562:13571   */\n              add\n                /* \"#utility.yul\":13555:13571   */\n              swap1\n              pop\n                /* \"#utility.yul\":13590:13593   */\n              dup1\n                /* \"#utility.yul\":13587:13588   */\n              dup3\n                /* \"#utility.yul\":13584:13594   */\n              gt\n                /* \"#utility.yul\":13581:13617   */\n              iszero\n              tag_327\n              jumpi\n                /* \"#utility.yul\":13597:13615   */\n              tag_328\n              tag_200\n              jump\t// in\n            tag_328:\n                /* \"#utility.yul\":13581:13617   */\n            tag_327:\n                /* \"#utility.yul\":13433:13624   */\n              swap3\n              swap2\n              pop\n              pop\n              jump\t// out\n                /* \"#utility.yul\":13630:13852   */\n            tag_201:\n                /* \"#utility.yul\":13770:13804   */\n              0x4f6e6c792073656c6c65722063616e20706572666f726d207468697320616374\n                /* \"#utility.yul\":13766:13767   */\n              0x00\n                /* \"#utility.yul\":13758:13764   */\n              dup3\n                /* \"#utility.yul\":13754:13768   */\n              add\n                /* \"#utility.yul\":13747:13805   */\n              mstore\n                /* \"#utility.yul\":13839:13844   */\n              0x696f6e0000000000000000000000000000000000000000000000000000000000\n                /* \"#utility.yul\":13834:13836   */\n              0x20\n                /* \"#utility.yul\":13826:13832   */\n              dup3\n                /* \"#utility.yul\":13822:13837   */\n              add\n                /* \"#utility.yul\":13815:13845   */\n              mstore\n                /* \"#utility.yul\":13630:13852   */\n              pop\n              jump\t// out\n                /* \"#utility.yul\":13858:14224   */\n            tag_202:\n                /* \"#utility.yul\":14000:14003   */\n              0x00\n                /* \"#utility.yul\":14021:14088   */\n              tag_331\n                /* \"#utility.yul\":14085:14087   */\n              0x23\n                /* \"#utility.yul\":14080:14083   */\n              dup4\n                /* \"#utility.yul\":14021:14088   */\n              tag_179\n              jump\t// in\n            tag_331:\n                /* \"#utility.yul\":14014:14088   */\n              swap2\n              pop\n                /* \"#utility.yul\":14097:14190   */\n              tag_332\n                /* \"#utility.yul\":14186:14189   */\n              dup3\n                /* \"#utility.yul\":14097:14190   */\n              tag_201\n              jump\t// in\n            tag_332:\n                /* \"#utility.yul\":14215:14217   */\n              0x40\n                /* \"#utility.yul\":14210:14213   */\n              dup3\n                /* \"#utility.yul\":14206:14218   */\n              add\n                /* \"#utility.yul\":14199:14218   */\n              swap1\n              pop\n                /* \"#utility.yul\":13858:14224   */\n              swap2\n              swap1\n              pop\n              jump\t// out\n                /* \"#utility.yul\":14230:14649   */\n            tag_142:\n                /* \"#utility.yul\":14396:14400   */\n              0x00\n                /* \"#utility.yul\":14434:14436   */\n              0x20\n                /* \"#utility.yul\":14423:14432   */\n              dup3\n                /* \"#utility.yul\":14419:14437   */\n              add\n                /* \"#utility.yul\":14411:14437   */\n              swap1\n              pop\n                /* \"#utility.yul\":14483:14492   */\n              dup2\n                /* \"#utility.yul\":14477:14481   */\n              dup2\n                /* \"#utility.yul\":14473:14493   */\n              sub\n                /* \"#utility.yul\":14469:14470   */\n              0x00\n                /* \"#utility.yul\":14458:14467   */\n              dup4\n                /* \"#utility.yul\":14454:14471   */\n              add\n                /* \"#utility.yul\":14447:14494   */\n              mstore\n                /* \"#utility.yul\":14511:14642   */\n              tag_334\n                /* \"#utility.yul\":14637:14641   */\n              dup2\n                /* \"#utility.yul\":14511:14642   */\n              tag_202\n              jump\t// in\n            tag_334:\n                /* \"#utility.yul\":14503:14642   */\n              swap1\n              pop\n                /* \"#utility.yul\":14230:14649   */\n              swap2\n              swap1\n              pop\n              jump\t// out\n                /* \"#utility.yul\":14655:14826   */\n            tag_203:\n                /* \"#utility.yul\":14795:14818   */\n              0x41756374696f6e206e6f742079657420656e6465640000000000000000000000\n                /* \"#utility.yul\":14791:14792   */\n              0x00\n                /* \"#utility.yul\":14783:14789   */\n              dup3\n                /* \"#utility.yul\":14779:14793   */\n              add\n                /* \"#utility.yul\":14772:14819   */\n              mstore\n                /* \"#utility.yul\":14655:14826   */\n              pop\n              jump\t// out\n                /* \"#utility.yul\":14832:15198   */\n            tag_204:\n                /* \"#utility.yul\":14974:14977   */\n              0x00\n                /* \"#utility.yul\":14995:15062   */\n              tag_337\n                /* \"#utility.yul\":15059:15061   */\n              0x15\n                /* \"#utility.yul\":15054:15057   */\n              dup4\n                /* \"#utility.yul\":14995:15062   */\n              tag_179\n              jump\t// in\n            tag_337:\n                /* \"#utility.yul\":14988:15062   */\n              swap2\n              pop\n                /* \"#utility.yul\":15071:15164   */\n              tag_338\n                /* \"#utility.yul\":15160:15163   */\n              dup3\n                /* \"#utility.yul\":15071:15164   */\n              tag_203\n              jump\t// in\n            tag_338:\n                /* \"#utility.yul\":15189:15191   */\n              0x20\n                /* \"#utility.yul\":15184:15187   */\n              dup3\n                /* \"#utility.yul\":15180:15192   */\n              add\n                /* \"#utility.yul\":15173:15192   */\n              swap1\n              pop\n                /* \"#utility.yul\":14832:15198   */\n              swap2\n              swap1\n              pop\n              jump\t// out\n                /* \"#utility.yul\":15204:15623   */\n            tag_146:\n                /* \"#utility.yul\":15370:15374   */\n              0x00\n                /* \"#utility.yul\":15408:15410   */\n              0x20\n                /* \"#utility.yul\":15397:15406   */\n              dup3\n                /* \"#utility.yul\":15393:15411   */\n              add\n                /* \"#utility.yul\":15385:15411   */\n              swap1\n              pop\n                /* \"#utility.yul\":15457:15466   */\n              dup2\n                /* \"#utility.yul\":15451:15455   */\n              dup2\n                /* \"#utility.yul\":15447:15467   */\n              sub\n                /* \"#utility.yul\":15443:15444   */\n              0x00\n                /* \"#utility.yul\":15432:15441   */\n              dup4\n                /* \"#utility.yul\":15428:15445   */\n              add\n                /* \"#utility.yul\":15421:15468   */\n              mstore\n                /* \"#utility.yul\":15485:15616   */\n              tag_340\n                /* \"#utility.yul\":15611:15615   */\n              dup2\n                /* \"#utility.yul\":15485:15616   */\n              tag_204\n              jump\t// in\n            tag_340:\n                /* \"#utility.yul\":15477:15616   */\n              swap1\n              pop\n                /* \"#utility.yul\":15204:15623   */\n              swap2\n              swap1\n              pop\n              jump\t// out\n                /* \"#utility.yul\":15629:15961   */\n            tag_157:\n                /* \"#utility.yul\":15750:15754   */\n              0x00\n                /* \"#utility.yul\":15788:15790   */\n              0x40\n                /* \"#utility.yul\":15777:15786   */\n              dup3\n                /* \"#utility.yul\":15773:15791   */\n              add\n                /* \"#utility.yul\":15765:15791   */\n              swap1\n              pop\n                /* \"#utility.yul\":15801:15872   */\n              tag_342\n                /* \"#utility.yul\":15869:15870   */\n              0x00\n                /* \"#utility.yul\":15858:15867   */\n              dup4\n                /* \"#utility.yul\":15854:15871   */\n              add\n                /* \"#utility.yul\":15845:15851   */\n              dup6\n                /* \"#utility.yul\":15801:15872   */\n              tag_173\n              jump\t// in\n            tag_342:\n                /* \"#utility.yul\":15882:15954   */\n              tag_343\n                /* \"#utility.yul\":15950:15952   */\n              0x20\n                /* \"#utility.yul\":15939:15948   */\n              dup4\n                /* \"#utility.yul\":15935:15953   */\n              add\n                /* \"#utility.yul\":15926:15932   */\n              dup5\n                /* \"#utility.yul\":15882:15954   */\n              tag_164\n              jump\t// in\n            tag_343:\n                /* \"#utility.yul\":15629:15961   */\n              swap4\n              swap3\n              pop\n              pop\n              pop\n              jump\t// out\n\n            auxdata: 0xa2646970667358221220efc35341515db51d8162362bce21d3e6ed9a821403a5ffeb9cc5444466949fd864736f6c63430008140033\n        }\n    }\n\n    auxdata: 0xa26469706673582212205dd7d0adeb6c63fb9196230788d87a3883b422555a8fbddc484a987fb4fd05be64736f6c63430008140033\n}\n","bytecode":{"linkReferences":{},"object":"608060405234801561000f575f80fd5b50612d2b8061001d5f395ff3fe608060405234801562000010575f80fd5b50600436106200005c575f3560e01c80633d06f5931462000060578063571a26a014620000965780637f593d9e14620000cc578063adaa19921462000107578063d7c069191462000127575b5f80fd5b6200007e6004803603810190620000789190620008be565b62000149565b6040516200008d9190620009be565b60405180910390f35b620000b46004803603810190620000ae919062000a0f565b62000412565b604051620000c3919062000a50565b60405180910390f35b620000ea6004803603810190620000e49190620008be565b6200044d565b604051620000fe9695949392919062000bb0565b60405180910390f35b6200012560048036038101906200011f919062000d6a565b62000711565b005b62000131620007b2565b60405162000140919062000e95565b60405180910390f35b6060805f5b5f8054905081101562000408575f80828154811062000172576200017162000eb7565b5b905f5260205f20015f9054906101000a900473ffffffffffffffffffffffffffffffffffffffff1690508473ffffffffffffffffffffffffffffffffffffffff168173ffffffffffffffffffffffffffffffffffffffff166308551a536040518163ffffffff1660e01b8152600401602060405180830381865afa158015620001fd573d5f803e3d5ffd5b505050506040513d601f19601f8201168201806040525081019062000223919062000f13565b73ffffffffffffffffffffffffffffffffffffffff16148015620002df575060018081111562000258576200025762000b34565b5b8173ffffffffffffffffffffffffffffffffffffffff1663c19d93fb6040518163ffffffff1660e01b8152600401602060405180830381865afa158015620002a2573d5f803e3d5ffd5b505050506040513d601f19601f82011682018060405250810190620002c8919062000f69565b6001811115620002dd57620002dc62000b34565b5b145b80156200035857508073ffffffffffffffffffffffffffffffffffffffff1663bda21db06040518163ffffffff1660e01b8152600401602060405180830381865afa15801562000331573d5f803e3d5ffd5b505050506040513d601f19601f8201168201806040525081019062000357919062000fd3565b5b15620003f1578073ffffffffffffffffffffffffffffffffffffffff166355bedee66040518163ffffffff1660e01b8152600401602060405180830381865afa158015620003a8573d5f803e3d5ffd5b505050506040513d601f19601f82011682018060405250810190620003ce919062001019565b838381518110620003e457620003e362000eb7565b5b6020026020010181815250505b508080620003ff9062001076565b9150506200014e565b5080915050919050565b5f818154811062000421575f80fd5b905f5260205f20015f915054906101000a900473ffffffffffffffffffffffffffffffffffffffff1681565b5f805f8060605f808790508073ffffffffffffffffffffffffffffffffffffffff166308551a536040518163ffffffff1660e01b8152600401602060405180830381865afa158015620004a2573d5f803e3d5ffd5b505050506040513d601f19601f82011682018060405250810190620004c8919062000f13565b8173ffffffffffffffffffffffffffffffffffffffff16634b449cba6040518163ffffffff1660e01b8152600401602060405180830381865afa15801562000512573d5f803e3d5ffd5b505050506040513d601f19601f8201168201806040525081019062000538919062001019565b8273ffffffffffffffffffffffffffffffffffffffff166391f901576040518163ffffffff1660e01b8152600401602060405180830381865afa15801562000582573d5f803e3d5ffd5b505050506040513d601f19601f82011682018060405250810190620005a89190620010d8565b8373ffffffffffffffffffffffffffffffffffffffff1663d57bde796040518163ffffffff1660e01b8152600401602060405180830381865afa158015620005f2573d5f803e3d5ffd5b505050506040513d601f19601f8201168201806040525081019062000618919062001019565b8473ffffffffffffffffffffffffffffffffffffffff1663c63d99db6040518163ffffffff1660e01b81526004015f60405180830381865afa15801562000661573d5f803e3d5ffd5b505050506040513d5f823e3d601f19601f820116820180604052508101906200068b919062001184565b8573ffffffffffffffffffffffffffffffffffffffff1663c19d93fb6040518163ffffffff1660e01b8152600401602060405180830381865afa158015620006d5573d5f803e3d5ffd5b505050506040513d601f19601f82011682018060405250810190620006fb919062000f69565b9650965096509650965096505091939550919395565b5f33838360405162000723906200083e565b6200073193929190620011d3565b604051809103905ff0801580156200074b573d5f803e3d5ffd5b5090505f81908060018154018082558091505060019003905f5260205f20015f9091909190916101000a81548173ffffffffffffffffffffffffffffffffffffffff021916908373ffffffffffffffffffffffffffffffffffffffff160217905550505050565b60605f8054806020026020016040519081016040528092919081815260200182805480156200083457602002820191905f5260205f20905b815f9054906101000a900473ffffffffffffffffffffffffffffffffffffffff1673ffffffffffffffffffffffffffffffffffffffff1681526020019060010190808311620007ea575b5050505050905090565b611ae0806200121683390190565b5f604051905090565b5f80fd5b5f80fd5b5f73ffffffffffffffffffffffffffffffffffffffff82169050919050565b5f62000888826200085d565b9050919050565b6200089a816200087c565b8114620008a5575f80fd5b50565b5f81359050620008b8816200088f565b92915050565b5f60208284031215620008d657620008d562000855565b5b5f620008e584828501620008a8565b91505092915050565b5f81519050919050565b5f82825260208201905092915050565b5f819050602082019050919050565b5f819050919050565b6200092b8162000917565b82525050565b5f6200093e838362000920565b60208301905092915050565b5f602082019050919050565b5f6200096282620008ee565b6200096e8185620008f8565b93506200097b8362000908565b805f5b83811015620009b157815162000995888262000931565b9750620009a2836200094a565b9250506001810190506200097e565b5085935050505092915050565b5f6020820190508181035f830152620009d8818462000956565b905092915050565b620009eb8162000917565b8114620009f6575f80fd5b50565b5f8135905062000a0981620009e0565b92915050565b5f6020828403121562000a275762000a2662000855565b5b5f62000a3684828501620009f9565b91505092915050565b62000a4a816200087c565b82525050565b5f60208201905062000a655f83018462000a3f565b92915050565b5f62000a77826200085d565b9050919050565b62000a898162000a6b565b82525050565b62000a9a8162000917565b82525050565b5f81519050919050565b5f82825260208201905092915050565b5f5b8381101562000ad957808201518184015260208101905062000abc565b5f8484015250505050565b5f601f19601f8301169050919050565b5f62000b008262000aa0565b62000b0c818562000aaa565b935062000b1e81856020860162000aba565b62000b298162000ae4565b840191505092915050565b7f4e487b71000000000000000000000000000000000000000000000000000000005f52602160045260245ffd5b6002811062000b755762000b7462000b34565b5b50565b5f81905062000b878262000b61565b919050565b5f62000b988262000b78565b9050919050565b62000baa8162000b8c565b82525050565b5f60c08201905062000bc55f83018962000a7e565b62000bd4602083018862000a8f565b62000be3604083018762000a3f565b62000bf2606083018662000a8f565b818103608083015262000c06818562000af4565b905062000c1760a083018462000b9f565b979650505050505050565b5f80fd5b5f80fd5b7f4e487b71000000000000000000000000000000000000000000000000000000005f52604160045260245ffd5b62000c628262000ae4565b810181811067ffffffffffffffff8211171562000c845762000c8362000c2a565b5b80604052505050565b5f62000c986200084c565b905062000ca6828262000c57565b919050565b5f67ffffffffffffffff82111562000cc85762000cc762000c2a565b5b62000cd38262000ae4565b9050602081019050919050565b828183375f83830152505050565b5f62000d0462000cfe8462000cab565b62000c8d565b90508281526020810184848401111562000d235762000d2262000c26565b5b62000d3084828562000ce0565b509392505050565b5f82601f83011262000d4f5762000d4e62000c22565b5b813562000d6184826020860162000cee565b91505092915050565b5f806040838503121562000d835762000d8262000855565b5b5f62000d9285828601620009f9565b925050602083013567ffffffffffffffff81111562000db65762000db562000859565b5b62000dc48582860162000d38565b9150509250929050565b5f81519050919050565b5f82825260208201905092915050565b5f819050602082019050919050565b62000e02816200087c565b82525050565b5f62000e15838362000df7565b60208301905092915050565b5f602082019050919050565b5f62000e398262000dce565b62000e45818562000dd8565b935062000e528362000de8565b805f5b8381101562000e8857815162000e6c888262000e08565b975062000e798362000e21565b92505060018101905062000e55565b5085935050505092915050565b5f6020820190508181035f83015262000eaf818462000e2d565b905092915050565b7f4e487b71000000000000000000000000000000000000000000000000000000005f52603260045260245ffd5b62000eef8162000a6b565b811462000efa575f80fd5b50565b5f8151905062000f0d8162000ee4565b92915050565b5f6020828403121562000f2b5762000f2a62000855565b5b5f62000f3a8482850162000efd565b91505092915050565b6002811062000f50575f80fd5b50565b5f8151905062000f638162000f43565b92915050565b5f6020828403121562000f815762000f8062000855565b5b5f62000f908482850162000f53565b91505092915050565b5f8115159050919050565b62000faf8162000f99565b811462000fba575f80fd5b50565b5f8151905062000fcd8162000fa4565b92915050565b5f6020828403121562000feb5762000fea62000855565b5b5f62000ffa8482850162000fbd565b91505092915050565b5f815190506200101381620009e0565b92915050565b5f6020828403121562001031576200103062000855565b5b5f620010408482850162001003565b91505092915050565b7f4e487b71000000000000000000000000000000000000000000000000000000005f52601160045260245ffd5b5f620010828262000917565b91507fffffffffffffffffffffffffffffffffffffffffffffffffffffffffffffffff8203620010b757620010b662001049565b5b600182019050919050565b5f81519050620010d2816200088f565b92915050565b5f60208284031215620010f057620010ef62000855565b5b5f620010ff84828501620010c2565b91505092915050565b5f6200111e620011188462000cab565b62000c8d565b9050828152602081018484840111156200113d576200113c62000c26565b5b6200114a84828562000aba565b509392505050565b5f82601f83011262001169576200116862000c22565b5b81516200117b84826020860162001108565b91505092915050565b5f602082840312156200119c576200119b62000855565b5b5f82015167ffffffffffffffff811115620011bc57620011bb62000859565b5b620011ca8482850162001152565b91505092915050565b5f606082019050620011e85f83018662000a3f565b620011f7602083018562000a8f565b81810360408301526200120b818462000af4565b905094935050505056fe608060405234801562000010575f80fd5b5060405162001ae038038062001ae08339818101604052810190620000369190620002ee565b825f806101000a81548173ffffffffffffffffffffffffffffffffffffffff021916908373ffffffffffffffffffffffffffffffffffffffff160217905550814262000083919062000393565b6001819055505f60095f6101000a81548160ff02191690836001811115620000b057620000af620003cd565b5b02179055508060049081620000c6919062000628565b505050506200070c565b5f604051905090565b5f80fd5b5f80fd5b5f73ffffffffffffffffffffffffffffffffffffffff82169050919050565b5f6200010c82620000e1565b9050919050565b6200011e8162000100565b811462000129575f80fd5b50565b5f815190506200013c8162000113565b92915050565b5f819050919050565b620001568162000142565b811462000161575f80fd5b50565b5f8151905062000174816200014b565b92915050565b5f80fd5b5f80fd5b5f601f19601f8301169050919050565b7f4e487b71000000000000000000000000000000000000000000000000000000005f52604160045260245ffd5b620001ca8262000182565b810181811067ffffffffffffffff82111715620001ec57620001eb62000192565b5b80604052505050565b5f62000200620000d0565b90506200020e8282620001bf565b919050565b5f67ffffffffffffffff82111562000230576200022f62000192565b5b6200023b8262000182565b9050602081019050919050565b5f5b83811015620002675780820151818401526020810190506200024a565b5f8484015250505050565b5f62000288620002828462000213565b620001f5565b905082815260208101848484011115620002a757620002a66200017e565b5b620002b484828562000248565b509392505050565b5f82601f830112620002d357620002d26200017a565b5b8151620002e584826020860162000272565b91505092915050565b5f805f60608486031215620003085762000307620000d9565b5b5f62000317868287016200012c565b93505060206200032a8682870162000164565b925050604084015167ffffffffffffffff8111156200034e576200034d620000dd565b5b6200035c86828701620002bc565b9150509250925092565b7f4e487b71000000000000000000000000000000000000000000000000000000005f52601160045260245ffd5b5f6200039f8262000142565b9150620003ac8362000142565b9250828201905080821115620003c757620003c662000366565b5b92915050565b7f4e487b71000000000000000000000000000000000000000000000000000000005f52602160045260245ffd5b5f81519050919050565b7f4e487b71000000000000000000000000000000000000000000000000000000005f52602260045260245ffd5b5f60028204905060018216806200044957607f821691505b6020821081036200045f576200045e62000404565b5b50919050565b5f819050815f5260205f209050919050565b5f6020601f8301049050919050565b5f82821b905092915050565b5f60088302620004c37fffffffffffffffffffffffffffffffffffffffffffffffffffffffffffffffff8262000486565b620004cf868362000486565b95508019841693508086168417925050509392505050565b5f819050919050565b5f620005106200050a620005048462000142565b620004e7565b62000142565b9050919050565b5f819050919050565b6200052b83620004f0565b620005436200053a8262000517565b84845462000492565b825550505050565b5f90565b620005596200054b565b6200056681848462000520565b505050565b5b818110156200058d57620005815f826200054f565b6001810190506200056c565b5050565b601f821115620005dc57620005a68162000465565b620005b18462000477565b81016020851015620005c1578190505b620005d9620005d08562000477565b8301826200056b565b50505b505050565b5f82821c905092915050565b5f620005fe5f1984600802620005e1565b1980831691505092915050565b5f620006188383620005ed565b9150826002028217905092915050565b6200063382620003fa565b67ffffffffffffffff8111156200064f576200064e62000192565b5b6200065b825462000431565b6200066882828562000591565b5f60209050601f8311600181146200069e575f841562000689578287015190505b6200069585826200060b565b86555062000704565b601f198416620006ae8662000465565b5f5b82811015620006d757848901518255600182019150602085019450602081019050620006b0565b86831015620006f75784890151620006f3601f891682620005ed565b8355505b6001600288020188555050505b505050505050565b6113c6806200071a5f395ff3fe6080604052600436106100e7575f3560e01c8063bda21db011610089578063d57bde7911610058578063d57bde79146102c7578063ecfc7ecc146102f1578063f36efe57146102fb578063fe67a54b14610325576100e7565b8063bda21db014610221578063c19d93fb1461024b578063c63d99db14610275578063d17c2b541461029f576100e7565b806355bedee6116100c557806355bedee6146101555780635e2c19db1461017f57806362ea82db146101bb57806391f90157146101f7576100e7565b806308551a53146100eb5780633ccfd60b146101155780634b449cba1461012b575b5f80fd5b3480156100f6575f80fd5b506100ff61033b565b60405161010c9190610c1e565b60405180910390f35b348015610120575f80fd5b5061012961035e565b005b348015610136575f80fd5b5061013f610542565b60405161014c9190610c4f565b60405180910390f35b348015610160575f80fd5b50610169610548565b6040516101769190610c4f565b60405180910390f35b34801561018a575f80fd5b506101a560048036038101906101a09190610ca7565b610551565b6040516101b29190610cec565b60405180910390f35b3480156101c6575f80fd5b506101e160048036038101906101dc9190610ca7565b61056e565b6040516101ee9190610c4f565b60405180910390f35b348015610202575f80fd5b5061020b610583565b6040516102189190610d14565b60405180910390f35b34801561022c575f80fd5b506102356105a8565b6040516102429190610cec565b60405180910390f35b348015610256575f80fd5b5061025f6105ba565b60405161026c9190610da0565b60405180910390f35b348015610280575f80fd5b506102896105cc565b6040516102969190610e43565b60405180910390f35b3480156102aa575f80fd5b506102c560048036038101906102c09190610e8d565b610658565b005b3480156102d2575f80fd5b506102db61081f565b6040516102e89190610c4f565b60405180910390f35b6102f9610825565b005b348015610306575f80fd5b5061030f6109a6565b60405161031c9190610c4f565b60405180910390f35b348015610330575f80fd5b506103396109ac565b005b5f8054906101000a900473ffffffffffffffffffffffffffffffffffffffff1681565b60018081111561037157610370610d2d565b5b60095f9054906101000a900460ff16600181111561039257610391610d2d565b5b146103d2576040517f08c379a00000000000000000000000000000000000000000000000000000000081526004016103c990610f02565b60405180910390fd5b60085f3373ffffffffffffffffffffffffffffffffffffffff1673ffffffffffffffffffffffffffffffffffffffff1681526020019081526020015f205f9054906101000a900460ff161561045c576040517f08c379a000000000000000000000000000000000000000000000000000000000815260040161045390610f6a565b60405180910390fd5b5f60075f3373ffffffffffffffffffffffffffffffffffffffff1673ffffffffffffffffffffffffffffffffffffffff1681526020019081526020015f205490505f81111561053f57600160085f3373ffffffffffffffffffffffffffffffffffffffff1673ffffffffffffffffffffffffffffffffffffffff1681526020019081526020015f205f6101000a81548160ff0219169083151502179055503373ffffffffffffffffffffffffffffffffffffffff166108fc8290811502906040515f60405180830381858888f1935050505015801561053d573d5f803e3d5ffd5b505b50565b60015481565b5f600554905090565b6008602052805f5260405f205f915054906101000a900460ff1681565b6007602052805f5260405f205f915090505481565b60025f9054906101000a900473ffffffffffffffffffffffffffffffffffffffff1681565b60065f9054906101000a900460ff1681565b60095f9054906101000a900460ff1681565b600480546105d990610fb5565b80601f016020809104026020016040519081016040528092919081815260200182805461060590610fb5565b80156106505780601f1061062757610100808354040283529160200191610650565b820191905f5260205f20905b81548152906001019060200180831161063357829003601f168201915b505050505081565b60018081111561066b5761066a610d2d565b5b60095f9054906101000a900460ff16600181111561068c5761068b610d2d565b5b146106cc576040517f08c379a00000000000000000000000000000000000000000000000000000000081526004016106c390610f02565b60405180910390fd5b60025f9054906101000a900473ffffffffffffffffffffffffffffffffffffffff1673ffffffffffffffffffffffffffffffffffffffff163373ffffffffffffffffffffffffffffffffffffffff161461075b576040517f08c379a000000000000000000000000000000000000000000000000000000000815260040161075290611055565b60405180910390fd5b60065f9054906101000a900460ff16156107aa576040517f08c379a00000000000000000000000000000000000000000000000000000000081526004016107a1906110bd565b60405180910390fd5b600181101580156107bc575060058111155b6107fb576040517f08c379a00000000000000000000000000000000000000000000000000000000081526004016107f290611125565b60405180910390fd5b80600581905550600160065f6101000a81548160ff02191690831515021790555050565b60035481565b5f600181111561083857610837610d2d565b5b60095f9054906101000a900460ff16600181111561085957610858610d2d565b5b14610899576040517f08c379a00000000000000000000000000000000000000000000000000000000081526004016108909061118d565b60405180910390fd5b60035434116108dd576040517f08c379a00000000000000000000000000000000000000000000000000000000081526004016108d4906111f5565b60405180910390fd5b5f6003541461095d5760035460075f60025f9054906101000a900473ffffffffffffffffffffffffffffffffffffffff1673ffffffffffffffffffffffffffffffffffffffff1673ffffffffffffffffffffffffffffffffffffffff1681526020019081526020015f205f8282546109559190611240565b925050819055505b3360025f6101000a81548173ffffffffffffffffffffffffffffffffffffffff021916908373ffffffffffffffffffffffffffffffffffffffff16021790555034600381905550565b60055481565b5f8054906101000a900473ffffffffffffffffffffffffffffffffffffffff1673ffffffffffffffffffffffffffffffffffffffff163373ffffffffffffffffffffffffffffffffffffffff1614610a39576040517f08c379a0000000000000000000000000000000000000000000000000000000008152600401610a30906112e3565b60405180910390fd5b600154421015610a7e576040517f08c379a0000000000000000000000000000000000000000000000000000000008152600401610a759061134b565b60405180910390fd5b5f6001811115610a9157610a90610d2d565b5b60095f9054906101000a900460ff166001811115610ab257610ab1610d2d565b5b14610af2576040517f08c379a0000000000000000000000000000000000000000000000000000000008152600401610ae99061118d565b60405180910390fd5b600160095f6101000a81548160ff02191690836001811115610b1757610b16610d2d565b5b02179055507fdaec4582d5d9595688c8c98545fdd1c696d41c6aeaeb636737e84ed2f5c00eda60025f9054906101000a900473ffffffffffffffffffffffffffffffffffffffff16600354604051610b70929190611369565b60405180910390a15f8054906101000a900473ffffffffffffffffffffffffffffffffffffffff1673ffffffffffffffffffffffffffffffffffffffff166108fc60035490811502906040515f60405180830381858888f19350505050158015610bdc573d5f803e3d5ffd5b50565b5f73ffffffffffffffffffffffffffffffffffffffff82169050919050565b5f610c0882610bdf565b9050919050565b610c1881610bfe565b82525050565b5f602082019050610c315f830184610c0f565b92915050565b5f819050919050565b610c4981610c37565b82525050565b5f602082019050610c625f830184610c40565b92915050565b5f80fd5b5f610c7682610bdf565b9050919050565b610c8681610c6c565b8114610c90575f80fd5b50565b5f81359050610ca181610c7d565b92915050565b5f60208284031215610cbc57610cbb610c68565b5b5f610cc984828501610c93565b91505092915050565b5f8115159050919050565b610ce681610cd2565b82525050565b5f602082019050610cff5f830184610cdd565b92915050565b610d0e81610c6c565b82525050565b5f602082019050610d275f830184610d05565b92915050565b7f4e487b71000000000000000000000000000000000000000000000000000000005f52602160045260245ffd5b60028110610d6b57610d6a610d2d565b5b50565b5f819050610d7b82610d5a565b919050565b5f610d8a82610d6e565b9050919050565b610d9a81610d80565b82525050565b5f602082019050610db35f830184610d91565b92915050565b5f81519050919050565b5f82825260208201905092915050565b5f5b83811015610df0578082015181840152602081019050610dd5565b5f8484015250505050565b5f601f19601f8301169050919050565b5f610e1582610db9565b610e1f8185610dc3565b9350610e2f818560208601610dd3565b610e3881610dfb565b840191505092915050565b5f6020820190508181035f830152610e5b8184610e0b565b905092915050565b610e6c81610c37565b8114610e76575f80fd5b50565b5f81359050610e8781610e63565b92915050565b5f60208284031215610ea257610ea1610c68565b5b5f610eaf84828501610e79565b91505092915050565b7f41756374696f6e206973206e6f7420656e6465640000000000000000000000005f82015250565b5f610eec601483610dc3565b9150610ef782610eb8565b602082019050919050565b5f6020820190508181035f830152610f1981610ee0565b9050919050565b7f416c72656164792077697468647261776e0000000000000000000000000000005f82015250565b5f610f54601183610dc3565b9150610f5f82610f20565b602082019050919050565b5f6020820190508181035f830152610f8181610f48565b9050919050565b7f4e487b71000000000000000000000000000000000000000000000000000000005f52602260045260245ffd5b5f6002820490506001821680610fcc57607f821691505b602082108103610fdf57610fde610f88565b5b50919050565b7f4f6e6c792068696768657374206269646465722063616e2072617465207468655f8201527f2073656c6c657200000000000000000000000000000000000000000000000000602082015250565b5f61103f602783610dc3565b915061104a82610fe5565b604082019050919050565b5f6020820190508181035f83015261106c81611033565b9050919050565b7f53656c6c657220616c72656164792072617465640000000000000000000000005f82015250565b5f6110a7601483610dc3565b91506110b282611073565b602082019050919050565b5f6020820190508181035f8301526110d48161109b565b9050919050565b7f496e76616c696420726174696e672076616c75650000000000000000000000005f82015250565b5f61110f601483610dc3565b915061111a826110db565b602082019050919050565b5f6020820190508181035f83015261113c81611103565b9050919050565b7f41756374696f6e206973206e6f742061637469766500000000000000000000005f82015250565b5f611177601583610dc3565b915061118282611143565b602082019050919050565b5f6020820190508181035f8301526111a48161116b565b9050919050565b7f42696420616d6f756e7420746f6f206c6f7700000000000000000000000000005f82015250565b5f6111df601283610dc3565b91506111ea826111ab565b602082019050919050565b5f6020820190508181035f83015261120c816111d3565b9050919050565b7f4e487b71000000000000000000000000000000000000000000000000000000005f52601160045260245ffd5b5f61124a82610c37565b915061125583610c37565b925082820190508082111561126d5761126c611213565b5b92915050565b7f4f6e6c792073656c6c65722063616e20706572666f726d2074686973206163745f8201527f696f6e0000000000000000000000000000000000000000000000000000000000602082015250565b5f6112cd602383610dc3565b91506112d882611273565b604082019050919050565b5f6020820190508181035f8301526112fa816112c1565b9050919050565b7f41756374696f6e206e6f742079657420656e64656400000000000000000000005f82015250565b5f611335601583610dc3565b915061134082611301565b602082019050919050565b5f6020820190508181035f83015261136281611329565b9050919050565b5f60408201905061137c5f830185610d05565b6113896020830184610c40565b939250505056fea2646970667358221220efc35341515db51d8162362bce21d3e6ed9a821403a5ffeb9cc5444466949fd864736f6c63430008140033a26469706673582212205dd7d0adeb6c63fb9196230788d87a3883b422555a8fbddc484a987fb4fd05be64736f6c63430008140033","opcodes":"PUSH1 0x80 PUSH1 0x40 MSTORE CALLVALUE DUP1 ISZERO PUSH2 0xF JUMPI PUSH0 DUP1 REVERT JUMPDEST POP PUSH2 0x2D2B DUP1 PUSH2 0x1D PUSH0 CODECOPY PUSH0 RETURN INVALID PUSH1 0x80 PUSH1 0x40 MSTORE CALLVALUE DUP1 ISZERO PUSH3 0x10 JUMPI PUSH0 DUP1 REVERT JUMPDEST POP PUSH1 0x4 CALLDATASIZE LT PUSH3 0x5C JUMPI PUSH0 CALLDATALOAD PUSH1 0xE0 SHR DUP1 PUSH4 0x3D06F593 EQ PUSH3 0x60 JUMPI DUP1 PUSH4 0x571A26A0 EQ PUSH3 0x96 JUMPI DUP1 PUSH4 0x7F593D9E EQ PUSH3 0xCC JUMPI DUP1 PUSH4 0xADAA1992 EQ PUSH3 0x107 JUMPI DUP1 PUSH4 0xD7C06919 EQ PUSH3 0x127 JUMPI JUMPDEST PUSH0 DUP1 REVERT JUMPDEST PUSH3 0x7E PUSH1 0x4 DUP1 CALLDATASIZE SUB DUP2 ADD SWAP1 PUSH3 0x78 SWAP2 SWAP1 PUSH3 0x8BE JUMP JUMPDEST PUSH3 0x149 JUMP JUMPDEST PUSH1 0x40 MLOAD PUSH3 0x8D SWAP2 SWAP1 PUSH3 0x9BE JUMP JUMPDEST PUSH1 0x40 MLOAD DUP1 SWAP2 SUB SWAP1 RETURN JUMPDEST PUSH3 0xB4 PUSH1 0x4 DUP1 CALLDATASIZE SUB DUP2 ADD SWAP1 PUSH3 0xAE SWAP2 SWAP1 PUSH3 0xA0F JUMP JUMPDEST PUSH3 0x412 JUMP JUMPDEST PUSH1 0x40 MLOAD PUSH3 0xC3 SWAP2 SWAP1 PUSH3 0xA50 JUMP JUMPDEST PUSH1 0x40 MLOAD DUP1 SWAP2 SUB SWAP1 RETURN JUMPDEST PUSH3 0xEA PUSH1 0x4 DUP1 CALLDATASIZE SUB DUP2 ADD SWAP1 PUSH3 0xE4 SWAP2 SWAP1 PUSH3 0x8BE JUMP JUMPDEST PUSH3 0x44D JUMP JUMPDEST PUSH1 0x40 MLOAD PUSH3 0xFE SWAP7 SWAP6 SWAP5 SWAP4 SWAP3 SWAP2 SWAP1 PUSH3 0xBB0 JUMP JUMPDEST PUSH1 0x40 MLOAD DUP1 SWAP2 SUB SWAP1 RETURN JUMPDEST PUSH3 0x125 PUSH1 0x4 DUP1 CALLDATASIZE SUB DUP2 ADD SWAP1 PUSH3 0x11F SWAP2 SWAP1 PUSH3 0xD6A JUMP JUMPDEST PUSH3 0x711 JUMP JUMPDEST STOP JUMPDEST PUSH3 0x131 PUSH3 0x7B2 JUMP JUMPDEST PUSH1 0x40 MLOAD PUSH3 0x140 SWAP2 SWAP1 PUSH3 0xE95 JUMP JUMPDEST PUSH1 0x40 MLOAD DUP1 SWAP2 SUB SWAP1 RETURN JUMPDEST PUSH1 0x60 DUP1 PUSH0 JUMPDEST PUSH0 DUP1 SLOAD SWAP1 POP DUP2 LT ISZERO PUSH3 0x408 JUMPI PUSH0 DUP1 DUP3 DUP2 SLOAD DUP2 LT PUSH3 0x172 JUMPI PUSH3 0x171 PUSH3 0xEB7 JUMP JUMPDEST JUMPDEST SWAP1 PUSH0 MSTORE PUSH1 0x20 PUSH0 KECCAK256 ADD PUSH0 SWAP1 SLOAD SWAP1 PUSH2 0x100 EXP SWAP1 DIV PUSH20 0xFFFFFFFFFFFFFFFFFFFFFFFFFFFFFFFFFFFFFFFF AND SWAP1 POP DUP5 PUSH20 0xFFFFFFFFFFFFFFFFFFFFFFFFFFFFFFFFFFFFFFFF AND DUP2 PUSH20 0xFFFFFFFFFFFFFFFFFFFFFFFFFFFFFFFFFFFFFFFF AND PUSH4 0x8551A53 PUSH1 0x40 MLOAD DUP2 PUSH4 0xFFFFFFFF AND PUSH1 0xE0 SHL DUP2 MSTORE PUSH1 0x4 ADD PUSH1 0x20 PUSH1 0x40 MLOAD DUP1 DUP4 SUB DUP2 DUP7 GAS STATICCALL ISZERO DUP1 ISZERO PUSH3 0x1FD JUMPI RETURNDATASIZE PUSH0 DUP1 RETURNDATACOPY RETURNDATASIZE PUSH0 REVERT JUMPDEST POP POP POP POP PUSH1 0x40 MLOAD RETURNDATASIZE PUSH1 0x1F NOT PUSH1 0x1F DUP3 ADD AND DUP3 ADD DUP1 PUSH1 0x40 MSTORE POP DUP2 ADD SWAP1 PUSH3 0x223 SWAP2 SWAP1 PUSH3 0xF13 JUMP JUMPDEST PUSH20 0xFFFFFFFFFFFFFFFFFFFFFFFFFFFFFFFFFFFFFFFF AND EQ DUP1 ISZERO PUSH3 0x2DF JUMPI POP PUSH1 0x1 DUP1 DUP2 GT ISZERO PUSH3 0x258 JUMPI PUSH3 0x257 PUSH3 0xB34 JUMP JUMPDEST JUMPDEST DUP2 PUSH20 0xFFFFFFFFFFFFFFFFFFFFFFFFFFFFFFFFFFFFFFFF AND PUSH4 0xC19D93FB PUSH1 0x40 MLOAD DUP2 PUSH4 0xFFFFFFFF AND PUSH1 0xE0 SHL DUP2 MSTORE PUSH1 0x4 ADD PUSH1 0x20 PUSH1 0x40 MLOAD DUP1 DUP4 SUB DUP2 DUP7 GAS STATICCALL ISZERO DUP1 ISZERO PUSH3 0x2A2 JUMPI RETURNDATASIZE PUSH0 DUP1 RETURNDATACOPY RETURNDATASIZE PUSH0 REVERT JUMPDEST POP POP POP POP PUSH1 0x40 MLOAD RETURNDATASIZE PUSH1 0x1F NOT PUSH1 0x1F DUP3 ADD AND DUP3 ADD DUP1 PUSH1 0x40 MSTORE POP DUP2 ADD SWAP1 PUSH3 0x2C8 SWAP2 SWAP1 PUSH3 0xF69 JUMP JUMPDEST PUSH1 0x1 DUP2 GT ISZERO PUSH3 0x2DD JUMPI PUSH3 0x2DC PUSH3 0xB34 JUMP JUMPDEST JUMPDEST EQ JUMPDEST DUP1 ISZERO PUSH3 0x358 JUMPI POP DUP1 PUSH20 0xFFFFFFFFFFFFFFFFFFFFFFFFFFFFFFFFFFFFFFFF AND PUSH4 0xBDA21DB0 PUSH1 0x40 MLOAD DUP2 PUSH4 0xFFFFFFFF AND PUSH1 0xE0 SHL DUP2 MSTORE PUSH1 0x4 ADD PUSH1 0x20 PUSH1 0x40 MLOAD DUP1 DUP4 SUB DUP2 DUP7 GAS STATICCALL ISZERO DUP1 ISZERO PUSH3 0x331 JUMPI RETURNDATASIZE PUSH0 DUP1 RETURNDATACOPY RETURNDATASIZE PUSH0 REVERT JUMPDEST POP POP POP POP PUSH1 0x40 MLOAD RETURNDATASIZE PUSH1 0x1F NOT PUSH1 0x1F DUP3 ADD AND DUP3 ADD DUP1 PUSH1 0x40 MSTORE POP DUP2 ADD SWAP1 PUSH3 0x357 SWAP2 SWAP1 PUSH3 0xFD3 JUMP JUMPDEST JUMPDEST ISZERO PUSH3 0x3F1 JUMPI DUP1 PUSH20 0xFFFFFFFFFFFFFFFFFFFFFFFFFFFFFFFFFFFFFFFF AND PUSH4 0x55BEDEE6 PUSH1 0x40 MLOAD DUP2 PUSH4 0xFFFFFFFF AND PUSH1 0xE0 SHL DUP2 MSTORE PUSH1 0x4 ADD PUSH1 0x20 PUSH1 0x40 MLOAD DUP1 DUP4 SUB DUP2 DUP7 GAS STATICCALL ISZERO DUP1 ISZERO PUSH3 0x3A8 JUMPI RETURNDATASIZE PUSH0 DUP1 RETURNDATACOPY RETURNDATASIZE PUSH0 REVERT JUMPDEST POP POP POP POP PUSH1 0x40 MLOAD RETURNDATASIZE PUSH1 0x1F NOT PUSH1 0x1F DUP3 ADD AND DUP3 ADD DUP1 PUSH1 0x40 MSTORE POP DUP2 ADD SWAP1 PUSH3 0x3CE SWAP2 SWAP1 PUSH3 0x1019 JUMP JUMPDEST DUP4 DUP4 DUP2 MLOAD DUP2 LT PUSH3 0x3E4 JUMPI PUSH3 0x3E3 PUSH3 0xEB7 JUMP JUMPDEST JUMPDEST PUSH1 0x20 MUL PUSH1 0x20 ADD ADD DUP2 DUP2 MSTORE POP POP JUMPDEST POP DUP1 DUP1 PUSH3 0x3FF SWAP1 PUSH3 0x1076 JUMP JUMPDEST SWAP2 POP POP PUSH3 0x14E JUMP JUMPDEST POP DUP1 SWAP2 POP POP SWAP2 SWAP1 POP JUMP JUMPDEST PUSH0 DUP2 DUP2 SLOAD DUP2 LT PUSH3 0x421 JUMPI PUSH0 DUP1 REVERT JUMPDEST SWAP1 PUSH0 MSTORE PUSH1 0x20 PUSH0 KECCAK256 ADD PUSH0 SWAP2 POP SLOAD SWAP1 PUSH2 0x100 EXP SWAP1 DIV PUSH20 0xFFFFFFFFFFFFFFFFFFFFFFFFFFFFFFFFFFFFFFFF AND DUP2 JUMP JUMPDEST PUSH0 DUP1 PUSH0 DUP1 PUSH1 0x60 PUSH0 DUP1 DUP8 SWAP1 POP DUP1 PUSH20 0xFFFFFFFFFFFFFFFFFFFFFFFFFFFFFFFFFFFFFFFF AND PUSH4 0x8551A53 PUSH1 0x40 MLOAD DUP2 PUSH4 0xFFFFFFFF AND PUSH1 0xE0 SHL DUP2 MSTORE PUSH1 0x4 ADD PUSH1 0x20 PUSH1 0x40 MLOAD DUP1 DUP4 SUB DUP2 DUP7 GAS STATICCALL ISZERO DUP1 ISZERO PUSH3 0x4A2 JUMPI RETURNDATASIZE PUSH0 DUP1 RETURNDATACOPY RETURNDATASIZE PUSH0 REVERT JUMPDEST POP POP POP POP PUSH1 0x40 MLOAD RETURNDATASIZE PUSH1 0x1F NOT PUSH1 0x1F DUP3 ADD AND DUP3 ADD DUP1 PUSH1 0x40 MSTORE POP DUP2 ADD SWAP1 PUSH3 0x4C8 SWAP2 SWAP1 PUSH3 0xF13 JUMP JUMPDEST DUP2 PUSH20 0xFFFFFFFFFFFFFFFFFFFFFFFFFFFFFFFFFFFFFFFF AND PUSH4 0x4B449CBA PUSH1 0x40 MLOAD DUP2 PUSH4 0xFFFFFFFF AND PUSH1 0xE0 SHL DUP2 MSTORE PUSH1 0x4 ADD PUSH1 0x20 PUSH1 0x40 MLOAD DUP1 DUP4 SUB DUP2 DUP7 GAS STATICCALL ISZERO DUP1 ISZERO PUSH3 0x512 JUMPI RETURNDATASIZE PUSH0 DUP1 RETURNDATACOPY RETURNDATASIZE PUSH0 REVERT JUMPDEST POP POP POP POP PUSH1 0x40 MLOAD RETURNDATASIZE PUSH1 0x1F NOT PUSH1 0x1F DUP3 ADD AND DUP3 ADD DUP1 PUSH1 0x40 MSTORE POP DUP2 ADD SWAP1 PUSH3 0x538 SWAP2 SWAP1 PUSH3 0x1019 JUMP JUMPDEST DUP3 PUSH20 0xFFFFFFFFFFFFFFFFFFFFFFFFFFFFFFFFFFFFFFFF AND PUSH4 0x91F90157 PUSH1 0x40 MLOAD DUP2 PUSH4 0xFFFFFFFF AND PUSH1 0xE0 SHL DUP2 MSTORE PUSH1 0x4 ADD PUSH1 0x20 PUSH1 0x40 MLOAD DUP1 DUP4 SUB DUP2 DUP7 GAS STATICCALL ISZERO DUP1 ISZERO PUSH3 0x582 JUMPI RETURNDATASIZE PUSH0 DUP1 RETURNDATACOPY RETURNDATASIZE PUSH0 REVERT JUMPDEST POP POP POP POP PUSH1 0x40 MLOAD RETURNDATASIZE PUSH1 0x1F NOT PUSH1 0x1F DUP3 ADD AND DUP3 ADD DUP1 PUSH1 0x40 MSTORE POP DUP2 ADD SWAP1 PUSH3 0x5A8 SWAP2 SWAP1 PUSH3 0x10D8 JUMP JUMPDEST DUP4 PUSH20 0xFFFFFFFFFFFFFFFFFFFFFFFFFFFFFFFFFFFFFFFF AND PUSH4 0xD57BDE79 PUSH1 0x40 MLOAD DUP2 PUSH4 0xFFFFFFFF AND PUSH1 0xE0 SHL DUP2 MSTORE PUSH1 0x4 ADD PUSH1 0x20 PUSH1 0x40 MLOAD DUP1 DUP4 SUB DUP2 DUP7 GAS STATICCALL ISZERO DUP1 ISZERO PUSH3 0x5F2 JUMPI RETURNDATASIZE PUSH0 DUP1 RETURNDATACOPY RETURNDATASIZE PUSH0 REVERT JUMPDEST POP POP POP POP PUSH1 0x40 MLOAD RETURNDATASIZE PUSH1 0x1F NOT PUSH1 0x1F DUP3 ADD AND DUP3 ADD DUP1 PUSH1 0x40 MSTORE POP DUP2 ADD SWAP1 PUSH3 0x618 SWAP2 SWAP1 PUSH3 0x1019 JUMP JUMPDEST DUP5 PUSH20 0xFFFFFFFFFFFFFFFFFFFFFFFFFFFFFFFFFFFFFFFF AND PUSH4 0xC63D99DB PUSH1 0x40 MLOAD DUP2 PUSH4 0xFFFFFFFF AND PUSH1 0xE0 SHL DUP2 MSTORE PUSH1 0x4 ADD PUSH0 PUSH1 0x40 MLOAD DUP1 DUP4 SUB DUP2 DUP7 GAS STATICCALL ISZERO DUP1 ISZERO PUSH3 0x661 JUMPI RETURNDATASIZE PUSH0 DUP1 RETURNDATACOPY RETURNDATASIZE PUSH0 REVERT JUMPDEST POP POP POP POP PUSH1 0x40 MLOAD RETURNDATASIZE PUSH0 DUP3 RETURNDATACOPY RETURNDATASIZE PUSH1 0x1F NOT PUSH1 0x1F DUP3 ADD AND DUP3 ADD DUP1 PUSH1 0x40 MSTORE POP DUP2 ADD SWAP1 PUSH3 0x68B SWAP2 SWAP1 PUSH3 0x1184 JUMP JUMPDEST DUP6 PUSH20 0xFFFFFFFFFFFFFFFFFFFFFFFFFFFFFFFFFFFFFFFF AND PUSH4 0xC19D93FB PUSH1 0x40 MLOAD DUP2 PUSH4 0xFFFFFFFF AND PUSH1 0xE0 SHL DUP2 MSTORE PUSH1 0x4 ADD PUSH1 0x20 PUSH1 0x40 MLOAD DUP1 DUP4 SUB DUP2 DUP7 GAS STATICCALL ISZERO DUP1 ISZERO PUSH3 0x6D5 JUMPI RETURNDATASIZE PUSH0 DUP1 RETURNDATACOPY RETURNDATASIZE PUSH0 REVERT JUMPDEST POP POP POP POP PUSH1 0x40 MLOAD RETURNDATASIZE PUSH1 0x1F NOT PUSH1 0x1F DUP3 ADD AND DUP3 ADD DUP1 PUSH1 0x40 MSTORE POP DUP2 ADD SWAP1 PUSH3 0x6FB SWAP2 SWAP1 PUSH3 0xF69 JUMP JUMPDEST SWAP7 POP SWAP7 POP SWAP7 POP SWAP7 POP SWAP7 POP SWAP7 POP POP SWAP2 SWAP4 SWAP6 POP SWAP2 SWAP4 SWAP6 JUMP JUMPDEST PUSH0 CALLER DUP4 DUP4 PUSH1 0x40 MLOAD PUSH3 0x723 SWAP1 PUSH3 0x83E JUMP JUMPDEST PUSH3 0x731 SWAP4 SWAP3 SWAP2 SWAP1 PUSH3 0x11D3 JUMP JUMPDEST PUSH1 0x40 MLOAD DUP1 SWAP2 SUB SWAP1 PUSH0 CREATE DUP1 ISZERO DUP1 ISZERO PUSH3 0x74B JUMPI RETURNDATASIZE PUSH0 DUP1 RETURNDATACOPY RETURNDATASIZE PUSH0 REVERT JUMPDEST POP SWAP1 POP PUSH0 DUP2 SWAP1 DUP1 PUSH1 0x1 DUP2 SLOAD ADD DUP1 DUP3 SSTORE DUP1 SWAP2 POP POP PUSH1 0x1 SWAP1 SUB SWAP1 PUSH0 MSTORE PUSH1 0x20 PUSH0 KECCAK256 ADD PUSH0 SWAP1 SWAP2 SWAP1 SWAP2 SWAP1 SWAP2 PUSH2 0x100 EXP DUP2 SLOAD DUP2 PUSH20 0xFFFFFFFFFFFFFFFFFFFFFFFFFFFFFFFFFFFFFFFF MUL NOT AND SWAP1 DUP4 PUSH20 0xFFFFFFFFFFFFFFFFFFFFFFFFFFFFFFFFFFFFFFFF AND MUL OR SWAP1 SSTORE POP POP POP POP JUMP JUMPDEST PUSH1 0x60 PUSH0 DUP1 SLOAD DUP1 PUSH1 0x20 MUL PUSH1 0x20 ADD PUSH1 0x40 MLOAD SWAP1 DUP2 ADD PUSH1 0x40 MSTORE DUP1 SWAP3 SWAP2 SWAP1 DUP2 DUP2 MSTORE PUSH1 0x20 ADD DUP3 DUP1 SLOAD DUP1 ISZERO PUSH3 0x834 JUMPI PUSH1 0x20 MUL DUP3 ADD SWAP2 SWAP1 PUSH0 MSTORE PUSH1 0x20 PUSH0 KECCAK256 SWAP1 JUMPDEST DUP2 PUSH0 SWAP1 SLOAD SWAP1 PUSH2 0x100 EXP SWAP1 DIV PUSH20 0xFFFFFFFFFFFFFFFFFFFFFFFFFFFFFFFFFFFFFFFF AND PUSH20 0xFFFFFFFFFFFFFFFFFFFFFFFFFFFFFFFFFFFFFFFF AND DUP2 MSTORE PUSH1 0x20 ADD SWAP1 PUSH1 0x1 ADD SWAP1 DUP1 DUP4 GT PUSH3 0x7EA JUMPI JUMPDEST POP POP POP POP POP SWAP1 POP SWAP1 JUMP JUMPDEST PUSH2 0x1AE0 DUP1 PUSH3 0x1216 DUP4 CODECOPY ADD SWAP1 JUMP JUMPDEST PUSH0 PUSH1 0x40 MLOAD SWAP1 POP SWAP1 JUMP JUMPDEST PUSH0 DUP1 REVERT JUMPDEST PUSH0 DUP1 REVERT JUMPDEST PUSH0 PUSH20 0xFFFFFFFFFFFFFFFFFFFFFFFFFFFFFFFFFFFFFFFF DUP3 AND SWAP1 POP SWAP2 SWAP1 POP JUMP JUMPDEST PUSH0 PUSH3 0x888 DUP3 PUSH3 0x85D JUMP JUMPDEST SWAP1 POP SWAP2 SWAP1 POP JUMP JUMPDEST PUSH3 0x89A DUP2 PUSH3 0x87C JUMP JUMPDEST DUP2 EQ PUSH3 0x8A5 JUMPI PUSH0 DUP1 REVERT JUMPDEST POP JUMP JUMPDEST PUSH0 DUP2 CALLDATALOAD SWAP1 POP PUSH3 0x8B8 DUP2 PUSH3 0x88F JUMP JUMPDEST SWAP3 SWAP2 POP POP JUMP JUMPDEST PUSH0 PUSH1 0x20 DUP3 DUP5 SUB SLT ISZERO PUSH3 0x8D6 JUMPI PUSH3 0x8D5 PUSH3 0x855 JUMP JUMPDEST JUMPDEST PUSH0 PUSH3 0x8E5 DUP5 DUP3 DUP6 ADD PUSH3 0x8A8 JUMP JUMPDEST SWAP2 POP POP SWAP3 SWAP2 POP POP JUMP JUMPDEST PUSH0 DUP2 MLOAD SWAP1 POP SWAP2 SWAP1 POP JUMP JUMPDEST PUSH0 DUP3 DUP3 MSTORE PUSH1 0x20 DUP3 ADD SWAP1 POP SWAP3 SWAP2 POP POP JUMP JUMPDEST PUSH0 DUP2 SWAP1 POP PUSH1 0x20 DUP3 ADD SWAP1 POP SWAP2 SWAP1 POP JUMP JUMPDEST PUSH0 DUP2 SWAP1 POP SWAP2 SWAP1 POP JUMP JUMPDEST PUSH3 0x92B DUP2 PUSH3 0x917 JUMP JUMPDEST DUP3 MSTORE POP POP JUMP JUMPDEST PUSH0 PUSH3 0x93E DUP4 DUP4 PUSH3 0x920 JUMP JUMPDEST PUSH1 0x20 DUP4 ADD SWAP1 POP SWAP3 SWAP2 POP POP JUMP JUMPDEST PUSH0 PUSH1 0x20 DUP3 ADD SWAP1 POP SWAP2 SWAP1 POP JUMP JUMPDEST PUSH0 PUSH3 0x962 DUP3 PUSH3 0x8EE JUMP JUMPDEST PUSH3 0x96E DUP2 DUP6 PUSH3 0x8F8 JUMP JUMPDEST SWAP4 POP PUSH3 0x97B DUP4 PUSH3 0x908 JUMP JUMPDEST DUP1 PUSH0 JUMPDEST DUP4 DUP2 LT ISZERO PUSH3 0x9B1 JUMPI DUP2 MLOAD PUSH3 0x995 DUP9 DUP3 PUSH3 0x931 JUMP JUMPDEST SWAP8 POP PUSH3 0x9A2 DUP4 PUSH3 0x94A JUMP JUMPDEST SWAP3 POP POP PUSH1 0x1 DUP2 ADD SWAP1 POP PUSH3 0x97E JUMP JUMPDEST POP DUP6 SWAP4 POP POP POP POP SWAP3 SWAP2 POP POP JUMP JUMPDEST PUSH0 PUSH1 0x20 DUP3 ADD SWAP1 POP DUP2 DUP2 SUB PUSH0 DUP4 ADD MSTORE PUSH3 0x9D8 DUP2 DUP5 PUSH3 0x956 JUMP JUMPDEST SWAP1 POP SWAP3 SWAP2 POP POP JUMP JUMPDEST PUSH3 0x9EB DUP2 PUSH3 0x917 JUMP JUMPDEST DUP2 EQ PUSH3 0x9F6 JUMPI PUSH0 DUP1 REVERT JUMPDEST POP JUMP JUMPDEST PUSH0 DUP2 CALLDATALOAD SWAP1 POP PUSH3 0xA09 DUP2 PUSH3 0x9E0 JUMP JUMPDEST SWAP3 SWAP2 POP POP JUMP JUMPDEST PUSH0 PUSH1 0x20 DUP3 DUP5 SUB SLT ISZERO PUSH3 0xA27 JUMPI PUSH3 0xA26 PUSH3 0x855 JUMP JUMPDEST JUMPDEST PUSH0 PUSH3 0xA36 DUP5 DUP3 DUP6 ADD PUSH3 0x9F9 JUMP JUMPDEST SWAP2 POP POP SWAP3 SWAP2 POP POP JUMP JUMPDEST PUSH3 0xA4A DUP2 PUSH3 0x87C JUMP JUMPDEST DUP3 MSTORE POP POP JUMP JUMPDEST PUSH0 PUSH1 0x20 DUP3 ADD SWAP1 POP PUSH3 0xA65 PUSH0 DUP4 ADD DUP5 PUSH3 0xA3F JUMP JUMPDEST SWAP3 SWAP2 POP POP JUMP JUMPDEST PUSH0 PUSH3 0xA77 DUP3 PUSH3 0x85D JUMP JUMPDEST SWAP1 POP SWAP2 SWAP1 POP JUMP JUMPDEST PUSH3 0xA89 DUP2 PUSH3 0xA6B JUMP JUMPDEST DUP3 MSTORE POP POP JUMP JUMPDEST PUSH3 0xA9A DUP2 PUSH3 0x917 JUMP JUMPDEST DUP3 MSTORE POP POP JUMP JUMPDEST PUSH0 DUP2 MLOAD SWAP1 POP SWAP2 SWAP1 POP JUMP JUMPDEST PUSH0 DUP3 DUP3 MSTORE PUSH1 0x20 DUP3 ADD SWAP1 POP SWAP3 SWAP2 POP POP JUMP JUMPDEST PUSH0 JUMPDEST DUP4 DUP2 LT ISZERO PUSH3 0xAD9 JUMPI DUP1 DUP3 ADD MLOAD DUP2 DUP5 ADD MSTORE PUSH1 0x20 DUP2 ADD SWAP1 POP PUSH3 0xABC JUMP JUMPDEST PUSH0 DUP5 DUP5 ADD MSTORE POP POP POP POP JUMP JUMPDEST PUSH0 PUSH1 0x1F NOT PUSH1 0x1F DUP4 ADD AND SWAP1 POP SWAP2 SWAP1 POP JUMP JUMPDEST PUSH0 PUSH3 0xB00 DUP3 PUSH3 0xAA0 JUMP JUMPDEST PUSH3 0xB0C DUP2 DUP6 PUSH3 0xAAA JUMP JUMPDEST SWAP4 POP PUSH3 0xB1E DUP2 DUP6 PUSH1 0x20 DUP7 ADD PUSH3 0xABA JUMP JUMPDEST PUSH3 0xB29 DUP2 PUSH3 0xAE4 JUMP JUMPDEST DUP5 ADD SWAP2 POP POP SWAP3 SWAP2 POP POP JUMP JUMPDEST PUSH32 0x4E487B7100000000000000000000000000000000000000000000000000000000 PUSH0 MSTORE PUSH1 0x21 PUSH1 0x4 MSTORE PUSH1 0x24 PUSH0 REVERT JUMPDEST PUSH1 0x2 DUP2 LT PUSH3 0xB75 JUMPI PUSH3 0xB74 PUSH3 0xB34 JUMP JUMPDEST JUMPDEST POP JUMP JUMPDEST PUSH0 DUP2 SWAP1 POP PUSH3 0xB87 DUP3 PUSH3 0xB61 JUMP JUMPDEST SWAP2 SWAP1 POP JUMP JUMPDEST PUSH0 PUSH3 0xB98 DUP3 PUSH3 0xB78 JUMP JUMPDEST SWAP1 POP SWAP2 SWAP1 POP JUMP JUMPDEST PUSH3 0xBAA DUP2 PUSH3 0xB8C JUMP JUMPDEST DUP3 MSTORE POP POP JUMP JUMPDEST PUSH0 PUSH1 0xC0 DUP3 ADD SWAP1 POP PUSH3 0xBC5 PUSH0 DUP4 ADD DUP10 PUSH3 0xA7E JUMP JUMPDEST PUSH3 0xBD4 PUSH1 0x20 DUP4 ADD DUP9 PUSH3 0xA8F JUMP JUMPDEST PUSH3 0xBE3 PUSH1 0x40 DUP4 ADD DUP8 PUSH3 0xA3F JUMP JUMPDEST PUSH3 0xBF2 PUSH1 0x60 DUP4 ADD DUP7 PUSH3 0xA8F JUMP JUMPDEST DUP2 DUP2 SUB PUSH1 0x80 DUP4 ADD MSTORE PUSH3 0xC06 DUP2 DUP6 PUSH3 0xAF4 JUMP JUMPDEST SWAP1 POP PUSH3 0xC17 PUSH1 0xA0 DUP4 ADD DUP5 PUSH3 0xB9F JUMP JUMPDEST SWAP8 SWAP7 POP POP POP POP POP POP POP JUMP JUMPDEST PUSH0 DUP1 REVERT JUMPDEST PUSH0 DUP1 REVERT JUMPDEST PUSH32 0x4E487B7100000000000000000000000000000000000000000000000000000000 PUSH0 MSTORE PUSH1 0x41 PUSH1 0x4 MSTORE PUSH1 0x24 PUSH0 REVERT JUMPDEST PUSH3 0xC62 DUP3 PUSH3 0xAE4 JUMP JUMPDEST DUP2 ADD DUP2 DUP2 LT PUSH8 0xFFFFFFFFFFFFFFFF DUP3 GT OR ISZERO PUSH3 0xC84 JUMPI PUSH3 0xC83 PUSH3 0xC2A JUMP JUMPDEST JUMPDEST DUP1 PUSH1 0x40 MSTORE POP POP POP JUMP JUMPDEST PUSH0 PUSH3 0xC98 PUSH3 0x84C JUMP JUMPDEST SWAP1 POP PUSH3 0xCA6 DUP3 DUP3 PUSH3 0xC57 JUMP JUMPDEST SWAP2 SWAP1 POP JUMP JUMPDEST PUSH0 PUSH8 0xFFFFFFFFFFFFFFFF DUP3 GT ISZERO PUSH3 0xCC8 JUMPI PUSH3 0xCC7 PUSH3 0xC2A JUMP JUMPDEST JUMPDEST PUSH3 0xCD3 DUP3 PUSH3 0xAE4 JUMP JUMPDEST SWAP1 POP PUSH1 0x20 DUP2 ADD SWAP1 POP SWAP2 SWAP1 POP JUMP JUMPDEST DUP3 DUP2 DUP4 CALLDATACOPY PUSH0 DUP4 DUP4 ADD MSTORE POP POP POP JUMP JUMPDEST PUSH0 PUSH3 0xD04 PUSH3 0xCFE DUP5 PUSH3 0xCAB JUMP JUMPDEST PUSH3 0xC8D JUMP JUMPDEST SWAP1 POP DUP3 DUP2 MSTORE PUSH1 0x20 DUP2 ADD DUP5 DUP5 DUP5 ADD GT ISZERO PUSH3 0xD23 JUMPI PUSH3 0xD22 PUSH3 0xC26 JUMP JUMPDEST JUMPDEST PUSH3 0xD30 DUP5 DUP3 DUP6 PUSH3 0xCE0 JUMP JUMPDEST POP SWAP4 SWAP3 POP POP POP JUMP JUMPDEST PUSH0 DUP3 PUSH1 0x1F DUP4 ADD SLT PUSH3 0xD4F JUMPI PUSH3 0xD4E PUSH3 0xC22 JUMP JUMPDEST JUMPDEST DUP2 CALLDATALOAD PUSH3 0xD61 DUP5 DUP3 PUSH1 0x20 DUP7 ADD PUSH3 0xCEE JUMP JUMPDEST SWAP2 POP POP SWAP3 SWAP2 POP POP JUMP JUMPDEST PUSH0 DUP1 PUSH1 0x40 DUP4 DUP6 SUB SLT ISZERO PUSH3 0xD83 JUMPI PUSH3 0xD82 PUSH3 0x855 JUMP JUMPDEST JUMPDEST PUSH0 PUSH3 0xD92 DUP6 DUP3 DUP7 ADD PUSH3 0x9F9 JUMP JUMPDEST SWAP3 POP POP PUSH1 0x20 DUP4 ADD CALLDATALOAD PUSH8 0xFFFFFFFFFFFFFFFF DUP2 GT ISZERO PUSH3 0xDB6 JUMPI PUSH3 0xDB5 PUSH3 0x859 JUMP JUMPDEST JUMPDEST PUSH3 0xDC4 DUP6 DUP3 DUP7 ADD PUSH3 0xD38 JUMP JUMPDEST SWAP2 POP POP SWAP3 POP SWAP3 SWAP1 POP JUMP JUMPDEST PUSH0 DUP2 MLOAD SWAP1 POP SWAP2 SWAP1 POP JUMP JUMPDEST PUSH0 DUP3 DUP3 MSTORE PUSH1 0x20 DUP3 ADD SWAP1 POP SWAP3 SWAP2 POP POP JUMP JUMPDEST PUSH0 DUP2 SWAP1 POP PUSH1 0x20 DUP3 ADD SWAP1 POP SWAP2 SWAP1 POP JUMP JUMPDEST PUSH3 0xE02 DUP2 PUSH3 0x87C JUMP JUMPDEST DUP3 MSTORE POP POP JUMP JUMPDEST PUSH0 PUSH3 0xE15 DUP4 DUP4 PUSH3 0xDF7 JUMP JUMPDEST PUSH1 0x20 DUP4 ADD SWAP1 POP SWAP3 SWAP2 POP POP JUMP JUMPDEST PUSH0 PUSH1 0x20 DUP3 ADD SWAP1 POP SWAP2 SWAP1 POP JUMP JUMPDEST PUSH0 PUSH3 0xE39 DUP3 PUSH3 0xDCE JUMP JUMPDEST PUSH3 0xE45 DUP2 DUP6 PUSH3 0xDD8 JUMP JUMPDEST SWAP4 POP PUSH3 0xE52 DUP4 PUSH3 0xDE8 JUMP JUMPDEST DUP1 PUSH0 JUMPDEST DUP4 DUP2 LT ISZERO PUSH3 0xE88 JUMPI DUP2 MLOAD PUSH3 0xE6C DUP9 DUP3 PUSH3 0xE08 JUMP JUMPDEST SWAP8 POP PUSH3 0xE79 DUP4 PUSH3 0xE21 JUMP JUMPDEST SWAP3 POP POP PUSH1 0x1 DUP2 ADD SWAP1 POP PUSH3 0xE55 JUMP JUMPDEST POP DUP6 SWAP4 POP POP POP POP SWAP3 SWAP2 POP POP JUMP JUMPDEST PUSH0 PUSH1 0x20 DUP3 ADD SWAP1 POP DUP2 DUP2 SUB PUSH0 DUP4 ADD MSTORE PUSH3 0xEAF DUP2 DUP5 PUSH3 0xE2D JUMP JUMPDEST SWAP1 POP SWAP3 SWAP2 POP POP JUMP JUMPDEST PUSH32 0x4E487B7100000000000000000000000000000000000000000000000000000000 PUSH0 MSTORE PUSH1 0x32 PUSH1 0x4 MSTORE PUSH1 0x24 PUSH0 REVERT JUMPDEST PUSH3 0xEEF DUP2 PUSH3 0xA6B JUMP JUMPDEST DUP2 EQ PUSH3 0xEFA JUMPI PUSH0 DUP1 REVERT JUMPDEST POP JUMP JUMPDEST PUSH0 DUP2 MLOAD SWAP1 POP PUSH3 0xF0D DUP2 PUSH3 0xEE4 JUMP JUMPDEST SWAP3 SWAP2 POP POP JUMP JUMPDEST PUSH0 PUSH1 0x20 DUP3 DUP5 SUB SLT ISZERO PUSH3 0xF2B JUMPI PUSH3 0xF2A PUSH3 0x855 JUMP JUMPDEST JUMPDEST PUSH0 PUSH3 0xF3A DUP5 DUP3 DUP6 ADD PUSH3 0xEFD JUMP JUMPDEST SWAP2 POP POP SWAP3 SWAP2 POP POP JUMP JUMPDEST PUSH1 0x2 DUP2 LT PUSH3 0xF50 JUMPI PUSH0 DUP1 REVERT JUMPDEST POP JUMP JUMPDEST PUSH0 DUP2 MLOAD SWAP1 POP PUSH3 0xF63 DUP2 PUSH3 0xF43 JUMP JUMPDEST SWAP3 SWAP2 POP POP JUMP JUMPDEST PUSH0 PUSH1 0x20 DUP3 DUP5 SUB SLT ISZERO PUSH3 0xF81 JUMPI PUSH3 0xF80 PUSH3 0x855 JUMP JUMPDEST JUMPDEST PUSH0 PUSH3 0xF90 DUP5 DUP3 DUP6 ADD PUSH3 0xF53 JUMP JUMPDEST SWAP2 POP POP SWAP3 SWAP2 POP POP JUMP JUMPDEST PUSH0 DUP2 ISZERO ISZERO SWAP1 POP SWAP2 SWAP1 POP JUMP JUMPDEST PUSH3 0xFAF DUP2 PUSH3 0xF99 JUMP JUMPDEST DUP2 EQ PUSH3 0xFBA JUMPI PUSH0 DUP1 REVERT JUMPDEST POP JUMP JUMPDEST PUSH0 DUP2 MLOAD SWAP1 POP PUSH3 0xFCD DUP2 PUSH3 0xFA4 JUMP JUMPDEST SWAP3 SWAP2 POP POP JUMP JUMPDEST PUSH0 PUSH1 0x20 DUP3 DUP5 SUB SLT ISZERO PUSH3 0xFEB JUMPI PUSH3 0xFEA PUSH3 0x855 JUMP JUMPDEST JUMPDEST PUSH0 PUSH3 0xFFA DUP5 DUP3 DUP6 ADD PUSH3 0xFBD JUMP JUMPDEST SWAP2 POP POP SWAP3 SWAP2 POP POP JUMP JUMPDEST PUSH0 DUP2 MLOAD SWAP1 POP PUSH3 0x1013 DUP2 PUSH3 0x9E0 JUMP JUMPDEST SWAP3 SWAP2 POP POP JUMP JUMPDEST PUSH0 PUSH1 0x20 DUP3 DUP5 SUB SLT ISZERO PUSH3 0x1031 JUMPI PUSH3 0x1030 PUSH3 0x855 JUMP JUMPDEST JUMPDEST PUSH0 PUSH3 0x1040 DUP5 DUP3 DUP6 ADD PUSH3 0x1003 JUMP JUMPDEST SWAP2 POP POP SWAP3 SWAP2 POP POP JUMP JUMPDEST PUSH32 0x4E487B7100000000000000000000000000000000000000000000000000000000 PUSH0 MSTORE PUSH1 0x11 PUSH1 0x4 MSTORE PUSH1 0x24 PUSH0 REVERT JUMPDEST PUSH0 PUSH3 0x1082 DUP3 PUSH3 0x917 JUMP JUMPDEST SWAP2 POP PUSH32 0xFFFFFFFFFFFFFFFFFFFFFFFFFFFFFFFFFFFFFFFFFFFFFFFFFFFFFFFFFFFFFFFF DUP3 SUB PUSH3 0x10B7 JUMPI PUSH3 0x10B6 PUSH3 0x1049 JUMP JUMPDEST JUMPDEST PUSH1 0x1 DUP3 ADD SWAP1 POP SWAP2 SWAP1 POP JUMP JUMPDEST PUSH0 DUP2 MLOAD SWAP1 POP PUSH3 0x10D2 DUP2 PUSH3 0x88F JUMP JUMPDEST SWAP3 SWAP2 POP POP JUMP JUMPDEST PUSH0 PUSH1 0x20 DUP3 DUP5 SUB SLT ISZERO PUSH3 0x10F0 JUMPI PUSH3 0x10EF PUSH3 0x855 JUMP JUMPDEST JUMPDEST PUSH0 PUSH3 0x10FF DUP5 DUP3 DUP6 ADD PUSH3 0x10C2 JUMP JUMPDEST SWAP2 POP POP SWAP3 SWAP2 POP POP JUMP JUMPDEST PUSH0 PUSH3 0x111E PUSH3 0x1118 DUP5 PUSH3 0xCAB JUMP JUMPDEST PUSH3 0xC8D JUMP JUMPDEST SWAP1 POP DUP3 DUP2 MSTORE PUSH1 0x20 DUP2 ADD DUP5 DUP5 DUP5 ADD GT ISZERO PUSH3 0x113D JUMPI PUSH3 0x113C PUSH3 0xC26 JUMP JUMPDEST JUMPDEST PUSH3 0x114A DUP5 DUP3 DUP6 PUSH3 0xABA JUMP JUMPDEST POP SWAP4 SWAP3 POP POP POP JUMP JUMPDEST PUSH0 DUP3 PUSH1 0x1F DUP4 ADD SLT PUSH3 0x1169 JUMPI PUSH3 0x1168 PUSH3 0xC22 JUMP JUMPDEST JUMPDEST DUP2 MLOAD PUSH3 0x117B DUP5 DUP3 PUSH1 0x20 DUP7 ADD PUSH3 0x1108 JUMP JUMPDEST SWAP2 POP POP SWAP3 SWAP2 POP POP JUMP JUMPDEST PUSH0 PUSH1 0x20 DUP3 DUP5 SUB SLT ISZERO PUSH3 0x119C JUMPI PUSH3 0x119B PUSH3 0x855 JUMP JUMPDEST JUMPDEST PUSH0 DUP3 ADD MLOAD PUSH8 0xFFFFFFFFFFFFFFFF DUP2 GT ISZERO PUSH3 0x11BC JUMPI PUSH3 0x11BB PUSH3 0x859 JUMP JUMPDEST JUMPDEST PUSH3 0x11CA DUP5 DUP3 DUP6 ADD PUSH3 0x1152 JUMP JUMPDEST SWAP2 POP POP SWAP3 SWAP2 POP POP JUMP JUMPDEST PUSH0 PUSH1 0x60 DUP3 ADD SWAP1 POP PUSH3 0x11E8 PUSH0 DUP4 ADD DUP7 PUSH3 0xA3F JUMP JUMPDEST PUSH3 0x11F7 PUSH1 0x20 DUP4 ADD DUP6 PUSH3 0xA8F JUMP JUMPDEST DUP2 DUP2 SUB PUSH1 0x40 DUP4 ADD MSTORE PUSH3 0x120B DUP2 DUP5 PUSH3 0xAF4 JUMP JUMPDEST SWAP1 POP SWAP5 SWAP4 POP POP POP POP JUMP INVALID PUSH1 0x80 PUSH1 0x40 MSTORE CALLVALUE DUP1 ISZERO PUSH3 0x10 JUMPI PUSH0 DUP1 REVERT JUMPDEST POP PUSH1 0x40 MLOAD PUSH3 0x1AE0 CODESIZE SUB DUP1 PUSH3 0x1AE0 DUP4 CODECOPY DUP2 DUP2 ADD PUSH1 0x40 MSTORE DUP2 ADD SWAP1 PUSH3 0x36 SWAP2 SWAP1 PUSH3 0x2EE JUMP JUMPDEST DUP3 PUSH0 DUP1 PUSH2 0x100 EXP DUP2 SLOAD DUP2 PUSH20 0xFFFFFFFFFFFFFFFFFFFFFFFFFFFFFFFFFFFFFFFF MUL NOT AND SWAP1 DUP4 PUSH20 0xFFFFFFFFFFFFFFFFFFFFFFFFFFFFFFFFFFFFFFFF AND MUL OR SWAP1 SSTORE POP DUP2 TIMESTAMP PUSH3 0x83 SWAP2 SWAP1 PUSH3 0x393 JUMP JUMPDEST PUSH1 0x1 DUP2 SWAP1 SSTORE POP PUSH0 PUSH1 0x9 PUSH0 PUSH2 0x100 EXP DUP2 SLOAD DUP2 PUSH1 0xFF MUL NOT AND SWAP1 DUP4 PUSH1 0x1 DUP2 GT ISZERO PUSH3 0xB0 JUMPI PUSH3 0xAF PUSH3 0x3CD JUMP JUMPDEST JUMPDEST MUL OR SWAP1 SSTORE POP DUP1 PUSH1 0x4 SWAP1 DUP2 PUSH3 0xC6 SWAP2 SWAP1 PUSH3 0x628 JUMP JUMPDEST POP POP POP POP PUSH3 0x70C JUMP JUMPDEST PUSH0 PUSH1 0x40 MLOAD SWAP1 POP SWAP1 JUMP JUMPDEST PUSH0 DUP1 REVERT JUMPDEST PUSH0 DUP1 REVERT JUMPDEST PUSH0 PUSH20 0xFFFFFFFFFFFFFFFFFFFFFFFFFFFFFFFFFFFFFFFF DUP3 AND SWAP1 POP SWAP2 SWAP1 POP JUMP JUMPDEST PUSH0 PUSH3 0x10C DUP3 PUSH3 0xE1 JUMP JUMPDEST SWAP1 POP SWAP2 SWAP1 POP JUMP JUMPDEST PUSH3 0x11E DUP2 PUSH3 0x100 JUMP JUMPDEST DUP2 EQ PUSH3 0x129 JUMPI PUSH0 DUP1 REVERT JUMPDEST POP JUMP JUMPDEST PUSH0 DUP2 MLOAD SWAP1 POP PUSH3 0x13C DUP2 PUSH3 0x113 JUMP JUMPDEST SWAP3 SWAP2 POP POP JUMP JUMPDEST PUSH0 DUP2 SWAP1 POP SWAP2 SWAP1 POP JUMP JUMPDEST PUSH3 0x156 DUP2 PUSH3 0x142 JUMP JUMPDEST DUP2 EQ PUSH3 0x161 JUMPI PUSH0 DUP1 REVERT JUMPDEST POP JUMP JUMPDEST PUSH0 DUP2 MLOAD SWAP1 POP PUSH3 0x174 DUP2 PUSH3 0x14B JUMP JUMPDEST SWAP3 SWAP2 POP POP JUMP JUMPDEST PUSH0 DUP1 REVERT JUMPDEST PUSH0 DUP1 REVERT JUMPDEST PUSH0 PUSH1 0x1F NOT PUSH1 0x1F DUP4 ADD AND SWAP1 POP SWAP2 SWAP1 POP JUMP JUMPDEST PUSH32 0x4E487B7100000000000000000000000000000000000000000000000000000000 PUSH0 MSTORE PUSH1 0x41 PUSH1 0x4 MSTORE PUSH1 0x24 PUSH0 REVERT JUMPDEST PUSH3 0x1CA DUP3 PUSH3 0x182 JUMP JUMPDEST DUP2 ADD DUP2 DUP2 LT PUSH8 0xFFFFFFFFFFFFFFFF DUP3 GT OR ISZERO PUSH3 0x1EC JUMPI PUSH3 0x1EB PUSH3 0x192 JUMP JUMPDEST JUMPDEST DUP1 PUSH1 0x40 MSTORE POP POP POP JUMP JUMPDEST PUSH0 PUSH3 0x200 PUSH3 0xD0 JUMP JUMPDEST SWAP1 POP PUSH3 0x20E DUP3 DUP3 PUSH3 0x1BF JUMP JUMPDEST SWAP2 SWAP1 POP JUMP JUMPDEST PUSH0 PUSH8 0xFFFFFFFFFFFFFFFF DUP3 GT ISZERO PUSH3 0x230 JUMPI PUSH3 0x22F PUSH3 0x192 JUMP JUMPDEST JUMPDEST PUSH3 0x23B DUP3 PUSH3 0x182 JUMP JUMPDEST SWAP1 POP PUSH1 0x20 DUP2 ADD SWAP1 POP SWAP2 SWAP1 POP JUMP JUMPDEST PUSH0 JUMPDEST DUP4 DUP2 LT ISZERO PUSH3 0x267 JUMPI DUP1 DUP3 ADD MLOAD DUP2 DUP5 ADD MSTORE PUSH1 0x20 DUP2 ADD SWAP1 POP PUSH3 0x24A JUMP JUMPDEST PUSH0 DUP5 DUP5 ADD MSTORE POP POP POP POP JUMP JUMPDEST PUSH0 PUSH3 0x288 PUSH3 0x282 DUP5 PUSH3 0x213 JUMP JUMPDEST PUSH3 0x1F5 JUMP JUMPDEST SWAP1 POP DUP3 DUP2 MSTORE PUSH1 0x20 DUP2 ADD DUP5 DUP5 DUP5 ADD GT ISZERO PUSH3 0x2A7 JUMPI PUSH3 0x2A6 PUSH3 0x17E JUMP JUMPDEST JUMPDEST PUSH3 0x2B4 DUP5 DUP3 DUP6 PUSH3 0x248 JUMP JUMPDEST POP SWAP4 SWAP3 POP POP POP JUMP JUMPDEST PUSH0 DUP3 PUSH1 0x1F DUP4 ADD SLT PUSH3 0x2D3 JUMPI PUSH3 0x2D2 PUSH3 0x17A JUMP JUMPDEST JUMPDEST DUP2 MLOAD PUSH3 0x2E5 DUP5 DUP3 PUSH1 0x20 DUP7 ADD PUSH3 0x272 JUMP JUMPDEST SWAP2 POP POP SWAP3 SWAP2 POP POP JUMP JUMPDEST PUSH0 DUP1 PUSH0 PUSH1 0x60 DUP5 DUP7 SUB SLT ISZERO PUSH3 0x308 JUMPI PUSH3 0x307 PUSH3 0xD9 JUMP JUMPDEST JUMPDEST PUSH0 PUSH3 0x317 DUP7 DUP3 DUP8 ADD PUSH3 0x12C JUMP JUMPDEST SWAP4 POP POP PUSH1 0x20 PUSH3 0x32A DUP7 DUP3 DUP8 ADD PUSH3 0x164 JUMP JUMPDEST SWAP3 POP POP PUSH1 0x40 DUP5 ADD MLOAD PUSH8 0xFFFFFFFFFFFFFFFF DUP2 GT ISZERO PUSH3 0x34E JUMPI PUSH3 0x34D PUSH3 0xDD JUMP JUMPDEST JUMPDEST PUSH3 0x35C DUP7 DUP3 DUP8 ADD PUSH3 0x2BC JUMP JUMPDEST SWAP2 POP POP SWAP3 POP SWAP3 POP SWAP3 JUMP JUMPDEST PUSH32 0x4E487B7100000000000000000000000000000000000000000000000000000000 PUSH0 MSTORE PUSH1 0x11 PUSH1 0x4 MSTORE PUSH1 0x24 PUSH0 REVERT JUMPDEST PUSH0 PUSH3 0x39F DUP3 PUSH3 0x142 JUMP JUMPDEST SWAP2 POP PUSH3 0x3AC DUP4 PUSH3 0x142 JUMP JUMPDEST SWAP3 POP DUP3 DUP3 ADD SWAP1 POP DUP1 DUP3 GT ISZERO PUSH3 0x3C7 JUMPI PUSH3 0x3C6 PUSH3 0x366 JUMP JUMPDEST JUMPDEST SWAP3 SWAP2 POP POP JUMP JUMPDEST PUSH32 0x4E487B7100000000000000000000000000000000000000000000000000000000 PUSH0 MSTORE PUSH1 0x21 PUSH1 0x4 MSTORE PUSH1 0x24 PUSH0 REVERT JUMPDEST PUSH0 DUP2 MLOAD SWAP1 POP SWAP2 SWAP1 POP JUMP JUMPDEST PUSH32 0x4E487B7100000000000000000000000000000000000000000000000000000000 PUSH0 MSTORE PUSH1 0x22 PUSH1 0x4 MSTORE PUSH1 0x24 PUSH0 REVERT JUMPDEST PUSH0 PUSH1 0x2 DUP3 DIV SWAP1 POP PUSH1 0x1 DUP3 AND DUP1 PUSH3 0x449 JUMPI PUSH1 0x7F DUP3 AND SWAP2 POP JUMPDEST PUSH1 0x20 DUP3 LT DUP2 SUB PUSH3 0x45F JUMPI PUSH3 0x45E PUSH3 0x404 JUMP JUMPDEST JUMPDEST POP SWAP2 SWAP1 POP JUMP JUMPDEST PUSH0 DUP2 SWAP1 POP DUP2 PUSH0 MSTORE PUSH1 0x20 PUSH0 KECCAK256 SWAP1 POP SWAP2 SWAP1 POP JUMP JUMPDEST PUSH0 PUSH1 0x20 PUSH1 0x1F DUP4 ADD DIV SWAP1 POP SWAP2 SWAP1 POP JUMP JUMPDEST PUSH0 DUP3 DUP3 SHL SWAP1 POP SWAP3 SWAP2 POP POP JUMP JUMPDEST PUSH0 PUSH1 0x8 DUP4 MUL PUSH3 0x4C3 PUSH32 0xFFFFFFFFFFFFFFFFFFFFFFFFFFFFFFFFFFFFFFFFFFFFFFFFFFFFFFFFFFFFFFFF DUP3 PUSH3 0x486 JUMP JUMPDEST PUSH3 0x4CF DUP7 DUP4 PUSH3 0x486 JUMP JUMPDEST SWAP6 POP DUP1 NOT DUP5 AND SWAP4 POP DUP1 DUP7 AND DUP5 OR SWAP3 POP POP POP SWAP4 SWAP3 POP POP POP JUMP JUMPDEST PUSH0 DUP2 SWAP1 POP SWAP2 SWAP1 POP JUMP JUMPDEST PUSH0 PUSH3 0x510 PUSH3 0x50A PUSH3 0x504 DUP5 PUSH3 0x142 JUMP JUMPDEST PUSH3 0x4E7 JUMP JUMPDEST PUSH3 0x142 JUMP JUMPDEST SWAP1 POP SWAP2 SWAP1 POP JUMP JUMPDEST PUSH0 DUP2 SWAP1 POP SWAP2 SWAP1 POP JUMP JUMPDEST PUSH3 0x52B DUP4 PUSH3 0x4F0 JUMP JUMPDEST PUSH3 0x543 PUSH3 0x53A DUP3 PUSH3 0x517 JUMP JUMPDEST DUP5 DUP5 SLOAD PUSH3 0x492 JUMP JUMPDEST DUP3 SSTORE POP POP POP POP JUMP JUMPDEST PUSH0 SWAP1 JUMP JUMPDEST PUSH3 0x559 PUSH3 0x54B JUMP JUMPDEST PUSH3 0x566 DUP2 DUP5 DUP5 PUSH3 0x520 JUMP JUMPDEST POP POP POP JUMP JUMPDEST JUMPDEST DUP2 DUP2 LT ISZERO PUSH3 0x58D JUMPI PUSH3 0x581 PUSH0 DUP3 PUSH3 0x54F JUMP JUMPDEST PUSH1 0x1 DUP2 ADD SWAP1 POP PUSH3 0x56C JUMP JUMPDEST POP POP JUMP JUMPDEST PUSH1 0x1F DUP3 GT ISZERO PUSH3 0x5DC JUMPI PUSH3 0x5A6 DUP2 PUSH3 0x465 JUMP JUMPDEST PUSH3 0x5B1 DUP5 PUSH3 0x477 JUMP JUMPDEST DUP2 ADD PUSH1 0x20 DUP6 LT ISZERO PUSH3 0x5C1 JUMPI DUP2 SWAP1 POP JUMPDEST PUSH3 0x5D9 PUSH3 0x5D0 DUP6 PUSH3 0x477 JUMP JUMPDEST DUP4 ADD DUP3 PUSH3 0x56B JUMP JUMPDEST POP POP JUMPDEST POP POP POP JUMP JUMPDEST PUSH0 DUP3 DUP3 SHR SWAP1 POP SWAP3 SWAP2 POP POP JUMP JUMPDEST PUSH0 PUSH3 0x5FE PUSH0 NOT DUP5 PUSH1 0x8 MUL PUSH3 0x5E1 JUMP JUMPDEST NOT DUP1 DUP4 AND SWAP2 POP POP SWAP3 SWAP2 POP POP JUMP JUMPDEST PUSH0 PUSH3 0x618 DUP4 DUP4 PUSH3 0x5ED JUMP JUMPDEST SWAP2 POP DUP3 PUSH1 0x2 MUL DUP3 OR SWAP1 POP SWAP3 SWAP2 POP POP JUMP JUMPDEST PUSH3 0x633 DUP3 PUSH3 0x3FA JUMP JUMPDEST PUSH8 0xFFFFFFFFFFFFFFFF DUP2 GT ISZERO PUSH3 0x64F JUMPI PUSH3 0x64E PUSH3 0x192 JUMP JUMPDEST JUMPDEST PUSH3 0x65B DUP3 SLOAD PUSH3 0x431 JUMP JUMPDEST PUSH3 0x668 DUP3 DUP3 DUP6 PUSH3 0x591 JUMP JUMPDEST PUSH0 PUSH1 0x20 SWAP1 POP PUSH1 0x1F DUP4 GT PUSH1 0x1 DUP2 EQ PUSH3 0x69E JUMPI PUSH0 DUP5 ISZERO PUSH3 0x689 JUMPI DUP3 DUP8 ADD MLOAD SWAP1 POP JUMPDEST PUSH3 0x695 DUP6 DUP3 PUSH3 0x60B JUMP JUMPDEST DUP7 SSTORE POP PUSH3 0x704 JUMP JUMPDEST PUSH1 0x1F NOT DUP5 AND PUSH3 0x6AE DUP7 PUSH3 0x465 JUMP JUMPDEST PUSH0 JUMPDEST DUP3 DUP2 LT ISZERO PUSH3 0x6D7 JUMPI DUP5 DUP10 ADD MLOAD DUP3 SSTORE PUSH1 0x1 DUP3 ADD SWAP2 POP PUSH1 0x20 DUP6 ADD SWAP5 POP PUSH1 0x20 DUP2 ADD SWAP1 POP PUSH3 0x6B0 JUMP JUMPDEST DUP7 DUP4 LT ISZERO PUSH3 0x6F7 JUMPI DUP5 DUP10 ADD MLOAD PUSH3 0x6F3 PUSH1 0x1F DUP10 AND DUP3 PUSH3 0x5ED JUMP JUMPDEST DUP4 SSTORE POP JUMPDEST PUSH1 0x1 PUSH1 0x2 DUP9 MUL ADD DUP9 SSTORE POP POP POP JUMPDEST POP POP POP POP POP POP JUMP JUMPDEST PUSH2 0x13C6 DUP1 PUSH3 0x71A PUSH0 CODECOPY PUSH0 RETURN INVALID PUSH1 0x80 PUSH1 0x40 MSTORE PUSH1 0x4 CALLDATASIZE LT PUSH2 0xE7 JUMPI PUSH0 CALLDATALOAD PUSH1 0xE0 SHR DUP1 PUSH4 0xBDA21DB0 GT PUSH2 0x89 JUMPI DUP1 PUSH4 0xD57BDE79 GT PUSH2 0x58 JUMPI DUP1 PUSH4 0xD57BDE79 EQ PUSH2 0x2C7 JUMPI DUP1 PUSH4 0xECFC7ECC EQ PUSH2 0x2F1 JUMPI DUP1 PUSH4 0xF36EFE57 EQ PUSH2 0x2FB JUMPI DUP1 PUSH4 0xFE67A54B EQ PUSH2 0x325 JUMPI PUSH2 0xE7 JUMP JUMPDEST DUP1 PUSH4 0xBDA21DB0 EQ PUSH2 0x221 JUMPI DUP1 PUSH4 0xC19D93FB EQ PUSH2 0x24B JUMPI DUP1 PUSH4 0xC63D99DB EQ PUSH2 0x275 JUMPI DUP1 PUSH4 0xD17C2B54 EQ PUSH2 0x29F JUMPI PUSH2 0xE7 JUMP JUMPDEST DUP1 PUSH4 0x55BEDEE6 GT PUSH2 0xC5 JUMPI DUP1 PUSH4 0x55BEDEE6 EQ PUSH2 0x155 JUMPI DUP1 PUSH4 0x5E2C19DB EQ PUSH2 0x17F JUMPI DUP1 PUSH4 0x62EA82DB EQ PUSH2 0x1BB JUMPI DUP1 PUSH4 0x91F90157 EQ PUSH2 0x1F7 JUMPI PUSH2 0xE7 JUMP JUMPDEST DUP1 PUSH4 0x8551A53 EQ PUSH2 0xEB JUMPI DUP1 PUSH4 0x3CCFD60B EQ PUSH2 0x115 JUMPI DUP1 PUSH4 0x4B449CBA EQ PUSH2 0x12B JUMPI JUMPDEST PUSH0 DUP1 REVERT JUMPDEST CALLVALUE DUP1 ISZERO PUSH2 0xF6 JUMPI PUSH0 DUP1 REVERT JUMPDEST POP PUSH2 0xFF PUSH2 0x33B JUMP JUMPDEST PUSH1 0x40 MLOAD PUSH2 0x10C SWAP2 SWAP1 PUSH2 0xC1E JUMP JUMPDEST PUSH1 0x40 MLOAD DUP1 SWAP2 SUB SWAP1 RETURN JUMPDEST CALLVALUE DUP1 ISZERO PUSH2 0x120 JUMPI PUSH0 DUP1 REVERT JUMPDEST POP PUSH2 0x129 PUSH2 0x35E JUMP JUMPDEST STOP JUMPDEST CALLVALUE DUP1 ISZERO PUSH2 0x136 JUMPI PUSH0 DUP1 REVERT JUMPDEST POP PUSH2 0x13F PUSH2 0x542 JUMP JUMPDEST PUSH1 0x40 MLOAD PUSH2 0x14C SWAP2 SWAP1 PUSH2 0xC4F JUMP JUMPDEST PUSH1 0x40 MLOAD DUP1 SWAP2 SUB SWAP1 RETURN JUMPDEST CALLVALUE DUP1 ISZERO PUSH2 0x160 JUMPI PUSH0 DUP1 REVERT JUMPDEST POP PUSH2 0x169 PUSH2 0x548 JUMP JUMPDEST PUSH1 0x40 MLOAD PUSH2 0x176 SWAP2 SWAP1 PUSH2 0xC4F JUMP JUMPDEST PUSH1 0x40 MLOAD DUP1 SWAP2 SUB SWAP1 RETURN JUMPDEST CALLVALUE DUP1 ISZERO PUSH2 0x18A JUMPI PUSH0 DUP1 REVERT JUMPDEST POP PUSH2 0x1A5 PUSH1 0x4 DUP1 CALLDATASIZE SUB DUP2 ADD SWAP1 PUSH2 0x1A0 SWAP2 SWAP1 PUSH2 0xCA7 JUMP JUMPDEST PUSH2 0x551 JUMP JUMPDEST PUSH1 0x40 MLOAD PUSH2 0x1B2 SWAP2 SWAP1 PUSH2 0xCEC JUMP JUMPDEST PUSH1 0x40 MLOAD DUP1 SWAP2 SUB SWAP1 RETURN JUMPDEST CALLVALUE DUP1 ISZERO PUSH2 0x1C6 JUMPI PUSH0 DUP1 REVERT JUMPDEST POP PUSH2 0x1E1 PUSH1 0x4 DUP1 CALLDATASIZE SUB DUP2 ADD SWAP1 PUSH2 0x1DC SWAP2 SWAP1 PUSH2 0xCA7 JUMP JUMPDEST PUSH2 0x56E JUMP JUMPDEST PUSH1 0x40 MLOAD PUSH2 0x1EE SWAP2 SWAP1 PUSH2 0xC4F JUMP JUMPDEST PUSH1 0x40 MLOAD DUP1 SWAP2 SUB SWAP1 RETURN JUMPDEST CALLVALUE DUP1 ISZERO PUSH2 0x202 JUMPI PUSH0 DUP1 REVERT JUMPDEST POP PUSH2 0x20B PUSH2 0x583 JUMP JUMPDEST PUSH1 0x40 MLOAD PUSH2 0x218 SWAP2 SWAP1 PUSH2 0xD14 JUMP JUMPDEST PUSH1 0x40 MLOAD DUP1 SWAP2 SUB SWAP1 RETURN JUMPDEST CALLVALUE DUP1 ISZERO PUSH2 0x22C JUMPI PUSH0 DUP1 REVERT JUMPDEST POP PUSH2 0x235 PUSH2 0x5A8 JUMP JUMPDEST PUSH1 0x40 MLOAD PUSH2 0x242 SWAP2 SWAP1 PUSH2 0xCEC JUMP JUMPDEST PUSH1 0x40 MLOAD DUP1 SWAP2 SUB SWAP1 RETURN JUMPDEST CALLVALUE DUP1 ISZERO PUSH2 0x256 JUMPI PUSH0 DUP1 REVERT JUMPDEST POP PUSH2 0x25F PUSH2 0x5BA JUMP JUMPDEST PUSH1 0x40 MLOAD PUSH2 0x26C SWAP2 SWAP1 PUSH2 0xDA0 JUMP JUMPDEST PUSH1 0x40 MLOAD DUP1 SWAP2 SUB SWAP1 RETURN JUMPDEST CALLVALUE DUP1 ISZERO PUSH2 0x280 JUMPI PUSH0 DUP1 REVERT JUMPDEST POP PUSH2 0x289 PUSH2 0x5CC JUMP JUMPDEST PUSH1 0x40 MLOAD PUSH2 0x296 SWAP2 SWAP1 PUSH2 0xE43 JUMP JUMPDEST PUSH1 0x40 MLOAD DUP1 SWAP2 SUB SWAP1 RETURN JUMPDEST CALLVALUE DUP1 ISZERO PUSH2 0x2AA JUMPI PUSH0 DUP1 REVERT JUMPDEST POP PUSH2 0x2C5 PUSH1 0x4 DUP1 CALLDATASIZE SUB DUP2 ADD SWAP1 PUSH2 0x2C0 SWAP2 SWAP1 PUSH2 0xE8D JUMP JUMPDEST PUSH2 0x658 JUMP JUMPDEST STOP JUMPDEST CALLVALUE DUP1 ISZERO PUSH2 0x2D2 JUMPI PUSH0 DUP1 REVERT JUMPDEST POP PUSH2 0x2DB PUSH2 0x81F JUMP JUMPDEST PUSH1 0x40 MLOAD PUSH2 0x2E8 SWAP2 SWAP1 PUSH2 0xC4F JUMP JUMPDEST PUSH1 0x40 MLOAD DUP1 SWAP2 SUB SWAP1 RETURN JUMPDEST PUSH2 0x2F9 PUSH2 0x825 JUMP JUMPDEST STOP JUMPDEST CALLVALUE DUP1 ISZERO PUSH2 0x306 JUMPI PUSH0 DUP1 REVERT JUMPDEST POP PUSH2 0x30F PUSH2 0x9A6 JUMP JUMPDEST PUSH1 0x40 MLOAD PUSH2 0x31C SWAP2 SWAP1 PUSH2 0xC4F JUMP JUMPDEST PUSH1 0x40 MLOAD DUP1 SWAP2 SUB SWAP1 RETURN JUMPDEST CALLVALUE DUP1 ISZERO PUSH2 0x330 JUMPI PUSH0 DUP1 REVERT JUMPDEST POP PUSH2 0x339 PUSH2 0x9AC JUMP JUMPDEST STOP JUMPDEST PUSH0 DUP1 SLOAD SWAP1 PUSH2 0x100 EXP SWAP1 DIV PUSH20 0xFFFFFFFFFFFFFFFFFFFFFFFFFFFFFFFFFFFFFFFF AND DUP2 JUMP JUMPDEST PUSH1 0x1 DUP1 DUP2 GT ISZERO PUSH2 0x371 JUMPI PUSH2 0x370 PUSH2 0xD2D JUMP JUMPDEST JUMPDEST PUSH1 0x9 PUSH0 SWAP1 SLOAD SWAP1 PUSH2 0x100 EXP SWAP1 DIV PUSH1 0xFF AND PUSH1 0x1 DUP2 GT ISZERO PUSH2 0x392 JUMPI PUSH2 0x391 PUSH2 0xD2D JUMP JUMPDEST JUMPDEST EQ PUSH2 0x3D2 JUMPI PUSH1 0x40 MLOAD PUSH32 0x8C379A000000000000000000000000000000000000000000000000000000000 DUP2 MSTORE PUSH1 0x4 ADD PUSH2 0x3C9 SWAP1 PUSH2 0xF02 JUMP JUMPDEST PUSH1 0x40 MLOAD DUP1 SWAP2 SUB SWAP1 REVERT JUMPDEST PUSH1 0x8 PUSH0 CALLER PUSH20 0xFFFFFFFFFFFFFFFFFFFFFFFFFFFFFFFFFFFFFFFF AND PUSH20 0xFFFFFFFFFFFFFFFFFFFFFFFFFFFFFFFFFFFFFFFF AND DUP2 MSTORE PUSH1 0x20 ADD SWAP1 DUP2 MSTORE PUSH1 0x20 ADD PUSH0 KECCAK256 PUSH0 SWAP1 SLOAD SWAP1 PUSH2 0x100 EXP SWAP1 DIV PUSH1 0xFF AND ISZERO PUSH2 0x45C JUMPI PUSH1 0x40 MLOAD PUSH32 0x8C379A000000000000000000000000000000000000000000000000000000000 DUP2 MSTORE PUSH1 0x4 ADD PUSH2 0x453 SWAP1 PUSH2 0xF6A JUMP JUMPDEST PUSH1 0x40 MLOAD DUP1 SWAP2 SUB SWAP1 REVERT JUMPDEST PUSH0 PUSH1 0x7 PUSH0 CALLER PUSH20 0xFFFFFFFFFFFFFFFFFFFFFFFFFFFFFFFFFFFFFFFF AND PUSH20 0xFFFFFFFFFFFFFFFFFFFFFFFFFFFFFFFFFFFFFFFF AND DUP2 MSTORE PUSH1 0x20 ADD SWAP1 DUP2 MSTORE PUSH1 0x20 ADD PUSH0 KECCAK256 SLOAD SWAP1 POP PUSH0 DUP2 GT ISZERO PUSH2 0x53F JUMPI PUSH1 0x1 PUSH1 0x8 PUSH0 CALLER PUSH20 0xFFFFFFFFFFFFFFFFFFFFFFFFFFFFFFFFFFFFFFFF AND PUSH20 0xFFFFFFFFFFFFFFFFFFFFFFFFFFFFFFFFFFFFFFFF AND DUP2 MSTORE PUSH1 0x20 ADD SWAP1 DUP2 MSTORE PUSH1 0x20 ADD PUSH0 KECCAK256 PUSH0 PUSH2 0x100 EXP DUP2 SLOAD DUP2 PUSH1 0xFF MUL NOT AND SWAP1 DUP4 ISZERO ISZERO MUL OR SWAP1 SSTORE POP CALLER PUSH20 0xFFFFFFFFFFFFFFFFFFFFFFFFFFFFFFFFFFFFFFFF AND PUSH2 0x8FC DUP3 SWAP1 DUP2 ISZERO MUL SWAP1 PUSH1 0x40 MLOAD PUSH0 PUSH1 0x40 MLOAD DUP1 DUP4 SUB DUP2 DUP6 DUP9 DUP9 CALL SWAP4 POP POP POP POP ISZERO DUP1 ISZERO PUSH2 0x53D JUMPI RETURNDATASIZE PUSH0 DUP1 RETURNDATACOPY RETURNDATASIZE PUSH0 REVERT JUMPDEST POP JUMPDEST POP JUMP JUMPDEST PUSH1 0x1 SLOAD DUP2 JUMP JUMPDEST PUSH0 PUSH1 0x5 SLOAD SWAP1 POP SWAP1 JUMP JUMPDEST PUSH1 0x8 PUSH1 0x20 MSTORE DUP1 PUSH0 MSTORE PUSH1 0x40 PUSH0 KECCAK256 PUSH0 SWAP2 POP SLOAD SWAP1 PUSH2 0x100 EXP SWAP1 DIV PUSH1 0xFF AND DUP2 JUMP JUMPDEST PUSH1 0x7 PUSH1 0x20 MSTORE DUP1 PUSH0 MSTORE PUSH1 0x40 PUSH0 KECCAK256 PUSH0 SWAP2 POP SWAP1 POP SLOAD DUP2 JUMP JUMPDEST PUSH1 0x2 PUSH0 SWAP1 SLOAD SWAP1 PUSH2 0x100 EXP SWAP1 DIV PUSH20 0xFFFFFFFFFFFFFFFFFFFFFFFFFFFFFFFFFFFFFFFF AND DUP2 JUMP JUMPDEST PUSH1 0x6 PUSH0 SWAP1 SLOAD SWAP1 PUSH2 0x100 EXP SWAP1 DIV PUSH1 0xFF AND DUP2 JUMP JUMPDEST PUSH1 0x9 PUSH0 SWAP1 SLOAD SWAP1 PUSH2 0x100 EXP SWAP1 DIV PUSH1 0xFF AND DUP2 JUMP JUMPDEST PUSH1 0x4 DUP1 SLOAD PUSH2 0x5D9 SWAP1 PUSH2 0xFB5 JUMP JUMPDEST DUP1 PUSH1 0x1F ADD PUSH1 0x20 DUP1 SWAP2 DIV MUL PUSH1 0x20 ADD PUSH1 0x40 MLOAD SWAP1 DUP2 ADD PUSH1 0x40 MSTORE DUP1 SWAP3 SWAP2 SWAP1 DUP2 DUP2 MSTORE PUSH1 0x20 ADD DUP3 DUP1 SLOAD PUSH2 0x605 SWAP1 PUSH2 0xFB5 JUMP JUMPDEST DUP1 ISZERO PUSH2 0x650 JUMPI DUP1 PUSH1 0x1F LT PUSH2 0x627 JUMPI PUSH2 0x100 DUP1 DUP4 SLOAD DIV MUL DUP4 MSTORE SWAP2 PUSH1 0x20 ADD SWAP2 PUSH2 0x650 JUMP JUMPDEST DUP3 ADD SWAP2 SWAP1 PUSH0 MSTORE PUSH1 0x20 PUSH0 KECCAK256 SWAP1 JUMPDEST DUP2 SLOAD DUP2 MSTORE SWAP1 PUSH1 0x1 ADD SWAP1 PUSH1 0x20 ADD DUP1 DUP4 GT PUSH2 0x633 JUMPI DUP3 SWAP1 SUB PUSH1 0x1F AND DUP3 ADD SWAP2 JUMPDEST POP POP POP POP POP DUP2 JUMP JUMPDEST PUSH1 0x1 DUP1 DUP2 GT ISZERO PUSH2 0x66B JUMPI PUSH2 0x66A PUSH2 0xD2D JUMP JUMPDEST JUMPDEST PUSH1 0x9 PUSH0 SWAP1 SLOAD SWAP1 PUSH2 0x100 EXP SWAP1 DIV PUSH1 0xFF AND PUSH1 0x1 DUP2 GT ISZERO PUSH2 0x68C JUMPI PUSH2 0x68B PUSH2 0xD2D JUMP JUMPDEST JUMPDEST EQ PUSH2 0x6CC JUMPI PUSH1 0x40 MLOAD PUSH32 0x8C379A000000000000000000000000000000000000000000000000000000000 DUP2 MSTORE PUSH1 0x4 ADD PUSH2 0x6C3 SWAP1 PUSH2 0xF02 JUMP JUMPDEST PUSH1 0x40 MLOAD DUP1 SWAP2 SUB SWAP1 REVERT JUMPDEST PUSH1 0x2 PUSH0 SWAP1 SLOAD SWAP1 PUSH2 0x100 EXP SWAP1 DIV PUSH20 0xFFFFFFFFFFFFFFFFFFFFFFFFFFFFFFFFFFFFFFFF AND PUSH20 0xFFFFFFFFFFFFFFFFFFFFFFFFFFFFFFFFFFFFFFFF AND CALLER PUSH20 0xFFFFFFFFFFFFFFFFFFFFFFFFFFFFFFFFFFFFFFFF AND EQ PUSH2 0x75B JUMPI PUSH1 0x40 MLOAD PUSH32 0x8C379A000000000000000000000000000000000000000000000000000000000 DUP2 MSTORE PUSH1 0x4 ADD PUSH2 0x752 SWAP1 PUSH2 0x1055 JUMP JUMPDEST PUSH1 0x40 MLOAD DUP1 SWAP2 SUB SWAP1 REVERT JUMPDEST PUSH1 0x6 PUSH0 SWAP1 SLOAD SWAP1 PUSH2 0x100 EXP SWAP1 DIV PUSH1 0xFF AND ISZERO PUSH2 0x7AA JUMPI PUSH1 0x40 MLOAD PUSH32 0x8C379A000000000000000000000000000000000000000000000000000000000 DUP2 MSTORE PUSH1 0x4 ADD PUSH2 0x7A1 SWAP1 PUSH2 0x10BD JUMP JUMPDEST PUSH1 0x40 MLOAD DUP1 SWAP2 SUB SWAP1 REVERT JUMPDEST PUSH1 0x1 DUP2 LT ISZERO DUP1 ISZERO PUSH2 0x7BC JUMPI POP PUSH1 0x5 DUP2 GT ISZERO JUMPDEST PUSH2 0x7FB JUMPI PUSH1 0x40 MLOAD PUSH32 0x8C379A000000000000000000000000000000000000000000000000000000000 DUP2 MSTORE PUSH1 0x4 ADD PUSH2 0x7F2 SWAP1 PUSH2 0x1125 JUMP JUMPDEST PUSH1 0x40 MLOAD DUP1 SWAP2 SUB SWAP1 REVERT JUMPDEST DUP1 PUSH1 0x5 DUP2 SWAP1 SSTORE POP PUSH1 0x1 PUSH1 0x6 PUSH0 PUSH2 0x100 EXP DUP2 SLOAD DUP2 PUSH1 0xFF MUL NOT AND SWAP1 DUP4 ISZERO ISZERO MUL OR SWAP1 SSTORE POP POP JUMP JUMPDEST PUSH1 0x3 SLOAD DUP2 JUMP JUMPDEST PUSH0 PUSH1 0x1 DUP2 GT ISZERO PUSH2 0x838 JUMPI PUSH2 0x837 PUSH2 0xD2D JUMP JUMPDEST JUMPDEST PUSH1 0x9 PUSH0 SWAP1 SLOAD SWAP1 PUSH2 0x100 EXP SWAP1 DIV PUSH1 0xFF AND PUSH1 0x1 DUP2 GT ISZERO PUSH2 0x859 JUMPI PUSH2 0x858 PUSH2 0xD2D JUMP JUMPDEST JUMPDEST EQ PUSH2 0x899 JUMPI PUSH1 0x40 MLOAD PUSH32 0x8C379A000000000000000000000000000000000000000000000000000000000 DUP2 MSTORE PUSH1 0x4 ADD PUSH2 0x890 SWAP1 PUSH2 0x118D JUMP JUMPDEST PUSH1 0x40 MLOAD DUP1 SWAP2 SUB SWAP1 REVERT JUMPDEST PUSH1 0x3 SLOAD CALLVALUE GT PUSH2 0x8DD JUMPI PUSH1 0x40 MLOAD PUSH32 0x8C379A000000000000000000000000000000000000000000000000000000000 DUP2 MSTORE PUSH1 0x4 ADD PUSH2 0x8D4 SWAP1 PUSH2 0x11F5 JUMP JUMPDEST PUSH1 0x40 MLOAD DUP1 SWAP2 SUB SWAP1 REVERT JUMPDEST PUSH0 PUSH1 0x3 SLOAD EQ PUSH2 0x95D JUMPI PUSH1 0x3 SLOAD PUSH1 0x7 PUSH0 PUSH1 0x2 PUSH0 SWAP1 SLOAD SWAP1 PUSH2 0x100 EXP SWAP1 DIV PUSH20 0xFFFFFFFFFFFFFFFFFFFFFFFFFFFFFFFFFFFFFFFF AND PUSH20 0xFFFFFFFFFFFFFFFFFFFFFFFFFFFFFFFFFFFFFFFF AND PUSH20 0xFFFFFFFFFFFFFFFFFFFFFFFFFFFFFFFFFFFFFFFF AND DUP2 MSTORE PUSH1 0x20 ADD SWAP1 DUP2 MSTORE PUSH1 0x20 ADD PUSH0 KECCAK256 PUSH0 DUP3 DUP3 SLOAD PUSH2 0x955 SWAP2 SWAP1 PUSH2 0x1240 JUMP JUMPDEST SWAP3 POP POP DUP2 SWAP1 SSTORE POP JUMPDEST CALLER PUSH1 0x2 PUSH0 PUSH2 0x100 EXP DUP2 SLOAD DUP2 PUSH20 0xFFFFFFFFFFFFFFFFFFFFFFFFFFFFFFFFFFFFFFFF MUL NOT AND SWAP1 DUP4 PUSH20 0xFFFFFFFFFFFFFFFFFFFFFFFFFFFFFFFFFFFFFFFF AND MUL OR SWAP1 SSTORE POP CALLVALUE PUSH1 0x3 DUP2 SWAP1 SSTORE POP JUMP JUMPDEST PUSH1 0x5 SLOAD DUP2 JUMP JUMPDEST PUSH0 DUP1 SLOAD SWAP1 PUSH2 0x100 EXP SWAP1 DIV PUSH20 0xFFFFFFFFFFFFFFFFFFFFFFFFFFFFFFFFFFFFFFFF AND PUSH20 0xFFFFFFFFFFFFFFFFFFFFFFFFFFFFFFFFFFFFFFFF AND CALLER PUSH20 0xFFFFFFFFFFFFFFFFFFFFFFFFFFFFFFFFFFFFFFFF AND EQ PUSH2 0xA39 JUMPI PUSH1 0x40 MLOAD PUSH32 0x8C379A000000000000000000000000000000000000000000000000000000000 DUP2 MSTORE PUSH1 0x4 ADD PUSH2 0xA30 SWAP1 PUSH2 0x12E3 JUMP JUMPDEST PUSH1 0x40 MLOAD DUP1 SWAP2 SUB SWAP1 REVERT JUMPDEST PUSH1 0x1 SLOAD TIMESTAMP LT ISZERO PUSH2 0xA7E JUMPI PUSH1 0x40 MLOAD PUSH32 0x8C379A000000000000000000000000000000000000000000000000000000000 DUP2 MSTORE PUSH1 0x4 ADD PUSH2 0xA75 SWAP1 PUSH2 0x134B JUMP JUMPDEST PUSH1 0x40 MLOAD DUP1 SWAP2 SUB SWAP1 REVERT JUMPDEST PUSH0 PUSH1 0x1 DUP2 GT ISZERO PUSH2 0xA91 JUMPI PUSH2 0xA90 PUSH2 0xD2D JUMP JUMPDEST JUMPDEST PUSH1 0x9 PUSH0 SWAP1 SLOAD SWAP1 PUSH2 0x100 EXP SWAP1 DIV PUSH1 0xFF AND PUSH1 0x1 DUP2 GT ISZERO PUSH2 0xAB2 JUMPI PUSH2 0xAB1 PUSH2 0xD2D JUMP JUMPDEST JUMPDEST EQ PUSH2 0xAF2 JUMPI PUSH1 0x40 MLOAD PUSH32 0x8C379A000000000000000000000000000000000000000000000000000000000 DUP2 MSTORE PUSH1 0x4 ADD PUSH2 0xAE9 SWAP1 PUSH2 0x118D JUMP JUMPDEST PUSH1 0x40 MLOAD DUP1 SWAP2 SUB SWAP1 REVERT JUMPDEST PUSH1 0x1 PUSH1 0x9 PUSH0 PUSH2 0x100 EXP DUP2 SLOAD DUP2 PUSH1 0xFF MUL NOT AND SWAP1 DUP4 PUSH1 0x1 DUP2 GT ISZERO PUSH2 0xB17 JUMPI PUSH2 0xB16 PUSH2 0xD2D JUMP JUMPDEST JUMPDEST MUL OR SWAP1 SSTORE POP PUSH32 0xDAEC4582D5D9595688C8C98545FDD1C696D41C6AEAEB636737E84ED2F5C00EDA PUSH1 0x2 PUSH0 SWAP1 SLOAD SWAP1 PUSH2 0x100 EXP SWAP1 DIV PUSH20 0xFFFFFFFFFFFFFFFFFFFFFFFFFFFFFFFFFFFFFFFF AND PUSH1 0x3 SLOAD PUSH1 0x40 MLOAD PUSH2 0xB70 SWAP3 SWAP2 SWAP1 PUSH2 0x1369 JUMP JUMPDEST PUSH1 0x40 MLOAD DUP1 SWAP2 SUB SWAP1 LOG1 PUSH0 DUP1 SLOAD SWAP1 PUSH2 0x100 EXP SWAP1 DIV PUSH20 0xFFFFFFFFFFFFFFFFFFFFFFFFFFFFFFFFFFFFFFFF AND PUSH20 0xFFFFFFFFFFFFFFFFFFFFFFFFFFFFFFFFFFFFFFFF AND PUSH2 0x8FC PUSH1 0x3 SLOAD SWAP1 DUP2 ISZERO MUL SWAP1 PUSH1 0x40 MLOAD PUSH0 PUSH1 0x40 MLOAD DUP1 DUP4 SUB DUP2 DUP6 DUP9 DUP9 CALL SWAP4 POP POP POP POP ISZERO DUP1 ISZERO PUSH2 0xBDC JUMPI RETURNDATASIZE PUSH0 DUP1 RETURNDATACOPY RETURNDATASIZE PUSH0 REVERT JUMPDEST POP JUMP JUMPDEST PUSH0 PUSH20 0xFFFFFFFFFFFFFFFFFFFFFFFFFFFFFFFFFFFFFFFF DUP3 AND SWAP1 POP SWAP2 SWAP1 POP JUMP JUMPDEST PUSH0 PUSH2 0xC08 DUP3 PUSH2 0xBDF JUMP JUMPDEST SWAP1 POP SWAP2 SWAP1 POP JUMP JUMPDEST PUSH2 0xC18 DUP2 PUSH2 0xBFE JUMP JUMPDEST DUP3 MSTORE POP POP JUMP JUMPDEST PUSH0 PUSH1 0x20 DUP3 ADD SWAP1 POP PUSH2 0xC31 PUSH0 DUP4 ADD DUP5 PUSH2 0xC0F JUMP JUMPDEST SWAP3 SWAP2 POP POP JUMP JUMPDEST PUSH0 DUP2 SWAP1 POP SWAP2 SWAP1 POP JUMP JUMPDEST PUSH2 0xC49 DUP2 PUSH2 0xC37 JUMP JUMPDEST DUP3 MSTORE POP POP JUMP JUMPDEST PUSH0 PUSH1 0x20 DUP3 ADD SWAP1 POP PUSH2 0xC62 PUSH0 DUP4 ADD DUP5 PUSH2 0xC40 JUMP JUMPDEST SWAP3 SWAP2 POP POP JUMP JUMPDEST PUSH0 DUP1 REVERT JUMPDEST PUSH0 PUSH2 0xC76 DUP3 PUSH2 0xBDF JUMP JUMPDEST SWAP1 POP SWAP2 SWAP1 POP JUMP JUMPDEST PUSH2 0xC86 DUP2 PUSH2 0xC6C JUMP JUMPDEST DUP2 EQ PUSH2 0xC90 JUMPI PUSH0 DUP1 REVERT JUMPDEST POP JUMP JUMPDEST PUSH0 DUP2 CALLDATALOAD SWAP1 POP PUSH2 0xCA1 DUP2 PUSH2 0xC7D JUMP JUMPDEST SWAP3 SWAP2 POP POP JUMP JUMPDEST PUSH0 PUSH1 0x20 DUP3 DUP5 SUB SLT ISZERO PUSH2 0xCBC JUMPI PUSH2 0xCBB PUSH2 0xC68 JUMP JUMPDEST JUMPDEST PUSH0 PUSH2 0xCC9 DUP5 DUP3 DUP6 ADD PUSH2 0xC93 JUMP JUMPDEST SWAP2 POP POP SWAP3 SWAP2 POP POP JUMP JUMPDEST PUSH0 DUP2 ISZERO ISZERO SWAP1 POP SWAP2 SWAP1 POP JUMP JUMPDEST PUSH2 0xCE6 DUP2 PUSH2 0xCD2 JUMP JUMPDEST DUP3 MSTORE POP POP JUMP JUMPDEST PUSH0 PUSH1 0x20 DUP3 ADD SWAP1 POP PUSH2 0xCFF PUSH0 DUP4 ADD DUP5 PUSH2 0xCDD JUMP JUMPDEST SWAP3 SWAP2 POP POP JUMP JUMPDEST PUSH2 0xD0E DUP2 PUSH2 0xC6C JUMP JUMPDEST DUP3 MSTORE POP POP JUMP JUMPDEST PUSH0 PUSH1 0x20 DUP3 ADD SWAP1 POP PUSH2 0xD27 PUSH0 DUP4 ADD DUP5 PUSH2 0xD05 JUMP JUMPDEST SWAP3 SWAP2 POP POP JUMP JUMPDEST PUSH32 0x4E487B7100000000000000000000000000000000000000000000000000000000 PUSH0 MSTORE PUSH1 0x21 PUSH1 0x4 MSTORE PUSH1 0x24 PUSH0 REVERT JUMPDEST PUSH1 0x2 DUP2 LT PUSH2 0xD6B JUMPI PUSH2 0xD6A PUSH2 0xD2D JUMP JUMPDEST JUMPDEST POP JUMP JUMPDEST PUSH0 DUP2 SWAP1 POP PUSH2 0xD7B DUP3 PUSH2 0xD5A JUMP JUMPDEST SWAP2 SWAP1 POP JUMP JUMPDEST PUSH0 PUSH2 0xD8A DUP3 PUSH2 0xD6E JUMP JUMPDEST SWAP1 POP SWAP2 SWAP1 POP JUMP JUMPDEST PUSH2 0xD9A DUP2 PUSH2 0xD80 JUMP JUMPDEST DUP3 MSTORE POP POP JUMP JUMPDEST PUSH0 PUSH1 0x20 DUP3 ADD SWAP1 POP PUSH2 0xDB3 PUSH0 DUP4 ADD DUP5 PUSH2 0xD91 JUMP JUMPDEST SWAP3 SWAP2 POP POP JUMP JUMPDEST PUSH0 DUP2 MLOAD SWAP1 POP SWAP2 SWAP1 POP JUMP JUMPDEST PUSH0 DUP3 DUP3 MSTORE PUSH1 0x20 DUP3 ADD SWAP1 POP SWAP3 SWAP2 POP POP JUMP JUMPDEST PUSH0 JUMPDEST DUP4 DUP2 LT ISZERO PUSH2 0xDF0 JUMPI DUP1 DUP3 ADD MLOAD DUP2 DUP5 ADD MSTORE PUSH1 0x20 DUP2 ADD SWAP1 POP PUSH2 0xDD5 JUMP JUMPDEST PUSH0 DUP5 DUP5 ADD MSTORE POP POP POP POP JUMP JUMPDEST PUSH0 PUSH1 0x1F NOT PUSH1 0x1F DUP4 ADD AND SWAP1 POP SWAP2 SWAP1 POP JUMP JUMPDEST PUSH0 PUSH2 0xE15 DUP3 PUSH2 0xDB9 JUMP JUMPDEST PUSH2 0xE1F DUP2 DUP6 PUSH2 0xDC3 JUMP JUMPDEST SWAP4 POP PUSH2 0xE2F DUP2 DUP6 PUSH1 0x20 DUP7 ADD PUSH2 0xDD3 JUMP JUMPDEST PUSH2 0xE38 DUP2 PUSH2 0xDFB JUMP JUMPDEST DUP5 ADD SWAP2 POP POP SWAP3 SWAP2 POP POP JUMP JUMPDEST PUSH0 PUSH1 0x20 DUP3 ADD SWAP1 POP DUP2 DUP2 SUB PUSH0 DUP4 ADD MSTORE PUSH2 0xE5B DUP2 DUP5 PUSH2 0xE0B JUMP JUMPDEST SWAP1 POP SWAP3 SWAP2 POP POP JUMP JUMPDEST PUSH2 0xE6C DUP2 PUSH2 0xC37 JUMP JUMPDEST DUP2 EQ PUSH2 0xE76 JUMPI PUSH0 DUP1 REVERT JUMPDEST POP JUMP JUMPDEST PUSH0 DUP2 CALLDATALOAD SWAP1 POP PUSH2 0xE87 DUP2 PUSH2 0xE63 JUMP JUMPDEST SWAP3 SWAP2 POP POP JUMP JUMPDEST PUSH0 PUSH1 0x20 DUP3 DUP5 SUB SLT ISZERO PUSH2 0xEA2 JUMPI PUSH2 0xEA1 PUSH2 0xC68 JUMP JUMPDEST JUMPDEST PUSH0 PUSH2 0xEAF DUP5 DUP3 DUP6 ADD PUSH2 0xE79 JUMP JUMPDEST SWAP2 POP POP SWAP3 SWAP2 POP POP JUMP JUMPDEST PUSH32 0x41756374696F6E206973206E6F7420656E646564000000000000000000000000 PUSH0 DUP3 ADD MSTORE POP JUMP JUMPDEST PUSH0 PUSH2 0xEEC PUSH1 0x14 DUP4 PUSH2 0xDC3 JUMP JUMPDEST SWAP2 POP PUSH2 0xEF7 DUP3 PUSH2 0xEB8 JUMP JUMPDEST PUSH1 0x20 DUP3 ADD SWAP1 POP SWAP2 SWAP1 POP JUMP JUMPDEST PUSH0 PUSH1 0x20 DUP3 ADD SWAP1 POP DUP2 DUP2 SUB PUSH0 DUP4 ADD MSTORE PUSH2 0xF19 DUP2 PUSH2 0xEE0 JUMP JUMPDEST SWAP1 POP SWAP2 SWAP1 POP JUMP JUMPDEST PUSH32 0x416C72656164792077697468647261776E000000000000000000000000000000 PUSH0 DUP3 ADD MSTORE POP JUMP JUMPDEST PUSH0 PUSH2 0xF54 PUSH1 0x11 DUP4 PUSH2 0xDC3 JUMP JUMPDEST SWAP2 POP PUSH2 0xF5F DUP3 PUSH2 0xF20 JUMP JUMPDEST PUSH1 0x20 DUP3 ADD SWAP1 POP SWAP2 SWAP1 POP JUMP JUMPDEST PUSH0 PUSH1 0x20 DUP3 ADD SWAP1 POP DUP2 DUP2 SUB PUSH0 DUP4 ADD MSTORE PUSH2 0xF81 DUP2 PUSH2 0xF48 JUMP JUMPDEST SWAP1 POP SWAP2 SWAP1 POP JUMP JUMPDEST PUSH32 0x4E487B7100000000000000000000000000000000000000000000000000000000 PUSH0 MSTORE PUSH1 0x22 PUSH1 0x4 MSTORE PUSH1 0x24 PUSH0 REVERT JUMPDEST PUSH0 PUSH1 0x2 DUP3 DIV SWAP1 POP PUSH1 0x1 DUP3 AND DUP1 PUSH2 0xFCC JUMPI PUSH1 0x7F DUP3 AND SWAP2 POP JUMPDEST PUSH1 0x20 DUP3 LT DUP2 SUB PUSH2 0xFDF JUMPI PUSH2 0xFDE PUSH2 0xF88 JUMP JUMPDEST JUMPDEST POP SWAP2 SWAP1 POP JUMP JUMPDEST PUSH32 0x4F6E6C792068696768657374206269646465722063616E207261746520746865 PUSH0 DUP3 ADD MSTORE PUSH32 0x2073656C6C657200000000000000000000000000000000000000000000000000 PUSH1 0x20 DUP3 ADD MSTORE POP JUMP JUMPDEST PUSH0 PUSH2 0x103F PUSH1 0x27 DUP4 PUSH2 0xDC3 JUMP JUMPDEST SWAP2 POP PUSH2 0x104A DUP3 PUSH2 0xFE5 JUMP JUMPDEST PUSH1 0x40 DUP3 ADD SWAP1 POP SWAP2 SWAP1 POP JUMP JUMPDEST PUSH0 PUSH1 0x20 DUP3 ADD SWAP1 POP DUP2 DUP2 SUB PUSH0 DUP4 ADD MSTORE PUSH2 0x106C DUP2 PUSH2 0x1033 JUMP JUMPDEST SWAP1 POP SWAP2 SWAP1 POP JUMP JUMPDEST PUSH32 0x53656C6C657220616C7265616479207261746564000000000000000000000000 PUSH0 DUP3 ADD MSTORE POP JUMP JUMPDEST PUSH0 PUSH2 0x10A7 PUSH1 0x14 DUP4 PUSH2 0xDC3 JUMP JUMPDEST SWAP2 POP PUSH2 0x10B2 DUP3 PUSH2 0x1073 JUMP JUMPDEST PUSH1 0x20 DUP3 ADD SWAP1 POP SWAP2 SWAP1 POP JUMP JUMPDEST PUSH0 PUSH1 0x20 DUP3 ADD SWAP1 POP DUP2 DUP2 SUB PUSH0 DUP4 ADD MSTORE PUSH2 0x10D4 DUP2 PUSH2 0x109B JUMP JUMPDEST SWAP1 POP SWAP2 SWAP1 POP JUMP JUMPDEST PUSH32 0x496E76616C696420726174696E672076616C7565000000000000000000000000 PUSH0 DUP3 ADD MSTORE POP JUMP JUMPDEST PUSH0 PUSH2 0x110F PUSH1 0x14 DUP4 PUSH2 0xDC3 JUMP JUMPDEST SWAP2 POP PUSH2 0x111A DUP3 PUSH2 0x10DB JUMP JUMPDEST PUSH1 0x20 DUP3 ADD SWAP1 POP SWAP2 SWAP1 POP JUMP JUMPDEST PUSH0 PUSH1 0x20 DUP3 ADD SWAP1 POP DUP2 DUP2 SUB PUSH0 DUP4 ADD MSTORE PUSH2 0x113C DUP2 PUSH2 0x1103 JUMP JUMPDEST SWAP1 POP SWAP2 SWAP1 POP JUMP JUMPDEST PUSH32 0x41756374696F6E206973206E6F74206163746976650000000000000000000000 PUSH0 DUP3 ADD MSTORE POP JUMP JUMPDEST PUSH0 PUSH2 0x1177 PUSH1 0x15 DUP4 PUSH2 0xDC3 JUMP JUMPDEST SWAP2 POP PUSH2 0x1182 DUP3 PUSH2 0x1143 JUMP JUMPDEST PUSH1 0x20 DUP3 ADD SWAP1 POP SWAP2 SWAP1 POP JUMP JUMPDEST PUSH0 PUSH1 0x20 DUP3 ADD SWAP1 POP DUP2 DUP2 SUB PUSH0 DUP4 ADD MSTORE PUSH2 0x11A4 DUP2 PUSH2 0x116B JUMP JUMPDEST SWAP1 POP SWAP2 SWAP1 POP JUMP JUMPDEST PUSH32 0x42696420616D6F756E7420746F6F206C6F770000000000000000000000000000 PUSH0 DUP3 ADD MSTORE POP JUMP JUMPDEST PUSH0 PUSH2 0x11DF PUSH1 0x12 DUP4 PUSH2 0xDC3 JUMP JUMPDEST SWAP2 POP PUSH2 0x11EA DUP3 PUSH2 0x11AB JUMP JUMPDEST PUSH1 0x20 DUP3 ADD SWAP1 POP SWAP2 SWAP1 POP JUMP JUMPDEST PUSH0 PUSH1 0x20 DUP3 ADD SWAP1 POP DUP2 DUP2 SUB PUSH0 DUP4 ADD MSTORE PUSH2 0x120C DUP2 PUSH2 0x11D3 JUMP JUMPDEST SWAP1 POP SWAP2 SWAP1 POP JUMP JUMPDEST PUSH32 0x4E487B7100000000000000000000000000000000000000000000000000000000 PUSH0 MSTORE PUSH1 0x11 PUSH1 0x4 MSTORE PUSH1 0x24 PUSH0 REVERT JUMPDEST PUSH0 PUSH2 0x124A DUP3 PUSH2 0xC37 JUMP JUMPDEST SWAP2 POP PUSH2 0x1255 DUP4 PUSH2 0xC37 JUMP JUMPDEST SWAP3 POP DUP3 DUP3 ADD SWAP1 POP DUP1 DUP3 GT ISZERO PUSH2 0x126D JUMPI PUSH2 0x126C PUSH2 0x1213 JUMP JUMPDEST JUMPDEST SWAP3 SWAP2 POP POP JUMP JUMPDEST PUSH32 0x4F6E6C792073656C6C65722063616E20706572666F726D207468697320616374 PUSH0 DUP3 ADD MSTORE PUSH32 0x696F6E0000000000000000000000000000000000000000000000000000000000 PUSH1 0x20 DUP3 ADD MSTORE POP JUMP JUMPDEST PUSH0 PUSH2 0x12CD PUSH1 0x23 DUP4 PUSH2 0xDC3 JUMP JUMPDEST SWAP2 POP PUSH2 0x12D8 DUP3 PUSH2 0x1273 JUMP JUMPDEST PUSH1 0x40 DUP3 ADD SWAP1 POP SWAP2 SWAP1 POP JUMP JUMPDEST PUSH0 PUSH1 0x20 DUP3 ADD SWAP1 POP DUP2 DUP2 SUB PUSH0 DUP4 ADD MSTORE PUSH2 0x12FA DUP2 PUSH2 0x12C1 JUMP JUMPDEST SWAP1 POP SWAP2 SWAP1 POP JUMP JUMPDEST PUSH32 0x41756374696F6E206E6F742079657420656E6465640000000000000000000000 PUSH0 DUP3 ADD MSTORE POP JUMP JUMPDEST PUSH0 PUSH2 0x1335 PUSH1 0x15 DUP4 PUSH2 0xDC3 JUMP JUMPDEST SWAP2 POP PUSH2 0x1340 DUP3 PUSH2 0x1301 JUMP JUMPDEST PUSH1 0x20 DUP3 ADD SWAP1 POP SWAP2 SWAP1 POP JUMP JUMPDEST PUSH0 PUSH1 0x20 DUP3 ADD SWAP1 POP DUP2 DUP2 SUB PUSH0 DUP4 ADD MSTORE PUSH2 0x1362 DUP2 PUSH2 0x1329 JUMP JUMPDEST SWAP1 POP SWAP2 SWAP1 POP JUMP JUMPDEST PUSH0 PUSH1 0x40 DUP3 ADD SWAP1 POP PUSH2 0x137C PUSH0 DUP4 ADD DUP6 PUSH2 0xD05 JUMP JUMPDEST PUSH2 0x1389 PUSH1 0x20 DUP4 ADD DUP5 PUSH2 0xC40 JUMP JUMPDEST SWAP4 SWAP3 POP POP POP JUMP INVALID LOG2 PUSH5 0x6970667358 0x22 SLT KECCAK256 0xEF 0xC3 MSTORE8 COINBASE MLOAD 0x5D 0xB5 SAR DUP2 PUSH3 0x362BCE 0x21 0xD3 0xE6 0xED SWAP11 DUP3 EQ SUB 0xA5 SELFDESTRUCT 0xEB SWAP13 0xC5 PREVRANDAO PREVRANDAO PUSH7 0x949FD864736F6C PUSH4 0x43000814 STOP CALLER LOG2 PUSH5 0x6970667358 0x22 SLT KECCAK256 0x5D 0xD7 0xD0 0xAD 0xEB PUSH13 0x63FB9196230788D87A3883B422 SSTORE GAS DUP16 0xBD 0xDC BASEFEE 0x4A SWAP9 PUSH32 0xB4FD05BE64736F6C634300081400330000000000000000000000000000000000 "},"gasEstimates":{"creation":{"codeDepositCost":"2312600","executionCost":"2476","totalCost":"2315076"},"external":{"auctions(uint256)":"4943","createAuction(uint256,string)":"infinite","getAuctionDetails(address)":"infinite","getAuctions()":"infinite","getRatingsForSeller(address)":"infinite"}},"methodIdentifiers":{"auctions(uint256)":"571a26a0","createAuction(uint256,string)":"adaa1992","getAuctionDetails(address)":"7f593d9e","getAuctions()":"d7c06919","getRatingsForSeller(address)":"3d06f593"}},"storageLayout":{"storage":[{"astId":276,"contract":"AuctionFactory.sol:AuctionFactory","label":"auctions","offset":0,"slot":"0","type":"t_array(t_address)dyn_storage"}],"types":{"t_address":{"encoding":"inplace","label":"address","numberOfBytes":"20"},"t_array(t_address)dyn_storage":{"base":"t_address","encoding":"dynamic_array","label":"address[]","numberOfBytes":"32"}}},"userdoc":{"kind":"user","methods":{},"version":1}}