{"abi":[{"inputs":[{"internalType":"uint256","name":"biddingTime","type":"uint256"},{"internalType":"string","name":"_name","type":"string"},{"internalType":"address payable","name":"beneficiaryAddress","type":"address"}],"stateMutability":"nonpayable","type":"constructor"},{"inputs":[],"name":"AuctionAlreadyEnded","type":"error"},{"inputs":[],"name":"AuctionEndAlreadyCalled","type":"error"},{"inputs":[],"name":"AuctionNotYetEnded","type":"error"},{"inputs":[{"internalType":"uint256","name":"highestBid","type":"uint256"}],"name":"BidNotHighEnough","type":"error"},{"anonymous":false,"inputs":[{"indexed":false,"internalType":"address","name":"winner","type":"address"},{"indexed":false,"internalType":"uint256","name":"amount","type":"uint256"}],"name":"AuctionEnded","type":"event"},{"anonymous":false,"inputs":[{"indexed":false,"internalType":"address","name":"bidder","type":"address"},{"indexed":false,"internalType":"uint256","name":"amount","type":"uint256"}],"name":"HighestBidIncreased","type":"event"},{"inputs":[],"name":"auctionEnd","outputs":[],"stateMutability":"nonpayable","type":"function"},{"inputs":[],"name":"auctionEndTime","outputs":[{"internalType":"uint256","name":"","type":"uint256"}],"stateMutability":"view","type":"function"},{"inputs":[],"name":"auctionName","outputs":[{"internalType":"string","name":"","type":"string"}],"stateMutability":"view","type":"function"},{"inputs":[],"name":"beneficiary","outputs":[{"internalType":"address payable","name":"","type":"address"}],"stateMutability":"view","type":"function"},{"inputs":[],"name":"bid","outputs":[],"stateMutability":"payable","type":"function"},{"inputs":[],"name":"highestBid","outputs":[{"internalType":"uint256","name":"","type":"uint256"}],"stateMutability":"view","type":"function"},{"inputs":[],"name":"highestBidder","outputs":[{"internalType":"address","name":"","type":"address"}],"stateMutability":"view","type":"function"},{"inputs":[{"internalType":"address","name":"","type":"address"}],"name":"pendingReturns","outputs":[{"internalType":"uint256","name":"","type":"uint256"}],"stateMutability":"view","type":"function"},{"inputs":[],"name":"withdraw","outputs":[{"internalType":"bool","name":"","type":"bool"}],"stateMutability":"nonpayable","type":"function"}],"devdoc":{"kind":"dev","methods":{},"version":1},"evm":{"assembly":"    /* \"Auction.sol\":66:5123  contract Auction {... */\n  mstore(0x40, 0x80)\n    /* \"Auction.sol\":1523:1747  constructor(uint256 biddingTime, string memory _name, address payable beneficiaryAddress) {... */\n  callvalue\n  dup1\n  iszero\n  tag_1\n  jumpi\n  0x00\n  dup1\n  revert\ntag_1:\n  pop\n  mload(0x40)\n  sub(codesize, bytecodeSize)\n  dup1\n  bytecodeSize\n  dup4\n  codecopy\n  dup2\n  dup2\n  add\n  0x40\n  mstore\n  dup2\n  add\n  swap1\n  tag_2\n  swap2\n  swap1\n  tag_3\n  jump\t// in\ntag_2:\n    /* \"Auction.sol\":1637:1655  beneficiaryAddress */\n  dup1\n    /* \"Auction.sol\":1623:1634  beneficiary */\n  0x00\n  dup1\n    /* \"Auction.sol\":1623:1655  beneficiary = beneficiaryAddress */\n  0x0100\n  exp\n  dup2\n  sload\n  dup2\n  0xffffffffffffffffffffffffffffffffffffffff\n  mul\n  not\n  and\n  swap1\n  dup4\n  0xffffffffffffffffffffffffffffffffffffffff\n  and\n  mul\n  or\n  swap1\n  sstore\n  pop\n    /* \"Auction.sol\":1679:1684  _name */\n  dup2\n    /* \"Auction.sol\":1665:1676  auctionName */\n  0x02\n    /* \"Auction.sol\":1665:1684  auctionName = _name */\n  swap1\n  dup2\n  tag_6\n  swap2\n  swap1\n  tag_7\n  jump\t// in\ntag_6:\n  pop\n    /* \"Auction.sol\":1729:1740  biddingTime */\n  dup3\n    /* \"Auction.sol\":1711:1726  block.timestamp */\n  timestamp\n    /* \"Auction.sol\":1711:1740  block.timestamp + biddingTime */\n  tag_8\n  swap2\n  swap1\n  tag_9\n  jump\t// in\ntag_8:\n    /* \"Auction.sol\":1694:1708  auctionEndTime */\n  0x01\n    /* \"Auction.sol\":1694:1740  auctionEndTime = block.timestamp + biddingTime */\n  dup2\n  swap1\n  sstore\n  pop\n    /* \"Auction.sol\":1523:1747  constructor(uint256 biddingTime, string memory _name, address payable beneficiaryAddress) {... */\n  pop\n  pop\n  pop\n    /* \"Auction.sol\":66:5123  contract Auction {... */\n  jump(tag_10)\n    /* \"#utility.yul\":7:82   */\ntag_11:\n    /* \"#utility.yul\":40:46   */\n  0x00\n    /* \"#utility.yul\":73:75   */\n  0x40\n    /* \"#utility.yul\":67:76   */\n  mload\n    /* \"#utility.yul\":57:76   */\n  swap1\n  pop\n    /* \"#utility.yul\":7:82   */\n  swap1\n  jump\t// out\n    /* \"#utility.yul\":88:205   */\ntag_12:\n    /* \"#utility.yul\":197:198   */\n  0x00\n    /* \"#utility.yul\":194:195   */\n  dup1\n    /* \"#utility.yul\":187:199   */\n  revert\n    /* \"#utility.yul\":211:328   */\ntag_13:\n    /* \"#utility.yul\":320:321   */\n  0x00\n    /* \"#utility.yul\":317:318   */\n  dup1\n    /* \"#utility.yul\":310:322   */\n  revert\n    /* \"#utility.yul\":334:411   */\ntag_14:\n    /* \"#utility.yul\":371:378   */\n  0x00\n    /* \"#utility.yul\":400:405   */\n  dup2\n    /* \"#utility.yul\":389:405   */\n  swap1\n  pop\n    /* \"#utility.yul\":334:411   */\n  swap2\n  swap1\n  pop\n  jump\t// out\n    /* \"#utility.yul\":417:539   */\ntag_15:\n    /* \"#utility.yul\":490:514   */\n  tag_56\n    /* \"#utility.yul\":508:513   */\n  dup2\n    /* \"#utility.yul\":490:514   */\n  tag_14\n  jump\t// in\ntag_56:\n    /* \"#utility.yul\":483:488   */\n  dup2\n    /* \"#utility.yul\":480:515   */\n  eq\n    /* \"#utility.yul\":470:533   */\n  tag_57\n  jumpi\n    /* \"#utility.yul\":529:530   */\n  0x00\n    /* \"#utility.yul\":526:527   */\n  dup1\n    /* \"#utility.yul\":519:531   */\n  revert\n    /* \"#utility.yul\":470:533   */\ntag_57:\n    /* \"#utility.yul\":417:539   */\n  pop\n  jump\t// out\n    /* \"#utility.yul\":545:688   */\ntag_16:\n    /* \"#utility.yul\":602:607   */\n  0x00\n    /* \"#utility.yul\":633:639   */\n  dup2\n    /* \"#utility.yul\":627:640   */\n  mload\n    /* \"#utility.yul\":618:640   */\n  swap1\n  pop\n    /* \"#utility.yul\":649:682   */\n  tag_59\n    /* \"#utility.yul\":676:681   */\n  dup2\n    /* \"#utility.yul\":649:682   */\n  tag_15\n  jump\t// in\ntag_59:\n    /* \"#utility.yul\":545:688   */\n  swap3\n  swap2\n  pop\n  pop\n  jump\t// out\n    /* \"#utility.yul\":694:811   */\ntag_17:\n    /* \"#utility.yul\":803:804   */\n  0x00\n    /* \"#utility.yul\":800:801   */\n  dup1\n    /* \"#utility.yul\":793:805   */\n  revert\n    /* \"#utility.yul\":817:934   */\ntag_18:\n    /* \"#utility.yul\":926:927   */\n  0x00\n    /* \"#utility.yul\":923:924   */\n  dup1\n    /* \"#utility.yul\":916:928   */\n  revert\n    /* \"#utility.yul\":940:1042   */\ntag_19:\n    /* \"#utility.yul\":981:987   */\n  0x00\n    /* \"#utility.yul\":1032:1034   */\n  0x1f\n    /* \"#utility.yul\":1028:1035   */\n  not\n    /* \"#utility.yul\":1023:1025   */\n  0x1f\n    /* \"#utility.yul\":1016:1021   */\n  dup4\n    /* \"#utility.yul\":1012:1026   */\n  add\n    /* \"#utility.yul\":1008:1036   */\n  and\n    /* \"#utility.yul\":998:1036   */\n  swap1\n  pop\n    /* \"#utility.yul\":940:1042   */\n  swap2\n  swap1\n  pop\n  jump\t// out\n    /* \"#utility.yul\":1048:1228   */\ntag_20:\n    /* \"#utility.yul\":1096:1173   */\n  0x4e487b7100000000000000000000000000000000000000000000000000000000\n    /* \"#utility.yul\":1093:1094   */\n  0x00\n    /* \"#utility.yul\":1086:1174   */\n  mstore\n    /* \"#utility.yul\":1193:1197   */\n  0x41\n    /* \"#utility.yul\":1190:1191   */\n  0x04\n    /* \"#utility.yul\":1183:1198   */\n  mstore\n    /* \"#utility.yul\":1217:1221   */\n  0x24\n    /* \"#utility.yul\":1214:1215   */\n  0x00\n    /* \"#utility.yul\":1207:1222   */\n  revert\n    /* \"#utility.yul\":1234:1515   */\ntag_21:\n    /* \"#utility.yul\":1317:1344   */\n  tag_65\n    /* \"#utility.yul\":1339:1343   */\n  dup3\n    /* \"#utility.yul\":1317:1344   */\n  tag_19\n  jump\t// in\ntag_65:\n    /* \"#utility.yul\":1309:1315   */\n  dup2\n    /* \"#utility.yul\":1305:1345   */\n  add\n    /* \"#utility.yul\":1447:1453   */\n  dup2\n    /* \"#utility.yul\":1435:1445   */\n  dup2\n    /* \"#utility.yul\":1432:1454   */\n  lt\n    /* \"#utility.yul\":1411:1429   */\n  0xffffffffffffffff\n    /* \"#utility.yul\":1399:1409   */\n  dup3\n    /* \"#utility.yul\":1396:1430   */\n  gt\n    /* \"#utility.yul\":1393:1455   */\n  or\n    /* \"#utility.yul\":1390:1478   */\n  iszero\n  tag_66\n  jumpi\n    /* \"#utility.yul\":1458:1476   */\n  tag_67\n  tag_20\n  jump\t// in\ntag_67:\n    /* \"#utility.yul\":1390:1478   */\ntag_66:\n    /* \"#utility.yul\":1498:1508   */\n  dup1\n    /* \"#utility.yul\":1494:1496   */\n  0x40\n    /* \"#utility.yul\":1487:1509   */\n  mstore\n    /* \"#utility.yul\":1277:1515   */\n  pop\n    /* \"#utility.yul\":1234:1515   */\n  pop\n  pop\n  jump\t// out\n    /* \"#utility.yul\":1521:1650   */\ntag_22:\n    /* \"#utility.yul\":1555:1561   */\n  0x00\n    /* \"#utility.yul\":1582:1602   */\n  tag_69\n  tag_11\n  jump\t// in\ntag_69:\n    /* \"#utility.yul\":1572:1602   */\n  swap1\n  pop\n    /* \"#utility.yul\":1611:1644   */\n  tag_70\n    /* \"#utility.yul\":1639:1643   */\n  dup3\n    /* \"#utility.yul\":1631:1637   */\n  dup3\n    /* \"#utility.yul\":1611:1644   */\n  tag_21\n  jump\t// in\ntag_70:\n    /* \"#utility.yul\":1521:1650   */\n  swap2\n  swap1\n  pop\n  jump\t// out\n    /* \"#utility.yul\":1656:1964   */\ntag_23:\n    /* \"#utility.yul\":1718:1722   */\n  0x00\n    /* \"#utility.yul\":1808:1826   */\n  0xffffffffffffffff\n    /* \"#utility.yul\":1800:1806   */\n  dup3\n    /* \"#utility.yul\":1797:1827   */\n  gt\n    /* \"#utility.yul\":1794:1850   */\n  iszero\n  tag_72\n  jumpi\n    /* \"#utility.yul\":1830:1848   */\n  tag_73\n  tag_20\n  jump\t// in\ntag_73:\n    /* \"#utility.yul\":1794:1850   */\ntag_72:\n    /* \"#utility.yul\":1868:1897   */\n  tag_74\n    /* \"#utility.yul\":1890:1896   */\n  dup3\n    /* \"#utility.yul\":1868:1897   */\n  tag_19\n  jump\t// in\ntag_74:\n    /* \"#utility.yul\":1860:1897   */\n  swap1\n  pop\n    /* \"#utility.yul\":1952:1956   */\n  0x20\n    /* \"#utility.yul\":1946:1950   */\n  dup2\n    /* \"#utility.yul\":1942:1957   */\n  add\n    /* \"#utility.yul\":1934:1957   */\n  swap1\n  pop\n    /* \"#utility.yul\":1656:1964   */\n  swap2\n  swap1\n  pop\n  jump\t// out\n    /* \"#utility.yul\":1970:2216   */\ntag_24:\n    /* \"#utility.yul\":2051:2052   */\n  0x00\n    /* \"#utility.yul\":2061:2174   */\ntag_76:\n    /* \"#utility.yul\":2075:2081   */\n  dup4\n    /* \"#utility.yul\":2072:2073   */\n  dup2\n    /* \"#utility.yul\":2069:2082   */\n  lt\n    /* \"#utility.yul\":2061:2174   */\n  iszero\n  tag_78\n  jumpi\n    /* \"#utility.yul\":2160:2161   */\n  dup1\n    /* \"#utility.yul\":2155:2158   */\n  dup3\n    /* \"#utility.yul\":2151:2162   */\n  add\n    /* \"#utility.yul\":2145:2163   */\n  mload\n    /* \"#utility.yul\":2141:2142   */\n  dup2\n    /* \"#utility.yul\":2136:2139   */\n  dup5\n    /* \"#utility.yul\":2132:2143   */\n  add\n    /* \"#utility.yul\":2125:2164   */\n  mstore\n    /* \"#utility.yul\":2097:2099   */\n  0x20\n    /* \"#utility.yul\":2094:2095   */\n  dup2\n    /* \"#utility.yul\":2090:2100   */\n  add\n    /* \"#utility.yul\":2085:2100   */\n  swap1\n  pop\n    /* \"#utility.yul\":2061:2174   */\n  jump(tag_76)\ntag_78:\n    /* \"#utility.yul\":2208:2209   */\n  0x00\n    /* \"#utility.yul\":2199:2205   */\n  dup5\n    /* \"#utility.yul\":2194:2197   */\n  dup5\n    /* \"#utility.yul\":2190:2206   */\n  add\n    /* \"#utility.yul\":2183:2210   */\n  mstore\n    /* \"#utility.yul\":2032:2216   */\n  pop\n    /* \"#utility.yul\":1970:2216   */\n  pop\n  pop\n  pop\n  jump\t// out\n    /* \"#utility.yul\":2222:2656   */\ntag_25:\n    /* \"#utility.yul\":2311:2316   */\n  0x00\n    /* \"#utility.yul\":2336:2402   */\n  tag_80\n    /* \"#utility.yul\":2352:2401   */\n  tag_81\n    /* \"#utility.yul\":2394:2400   */\n  dup5\n    /* \"#utility.yul\":2352:2401   */\n  tag_23\n  jump\t// in\ntag_81:\n    /* \"#utility.yul\":2336:2402   */\n  tag_22\n  jump\t// in\ntag_80:\n    /* \"#utility.yul\":2327:2402   */\n  swap1\n  pop\n    /* \"#utility.yul\":2425:2431   */\n  dup3\n    /* \"#utility.yul\":2418:2423   */\n  dup2\n    /* \"#utility.yul\":2411:2432   */\n  mstore\n    /* \"#utility.yul\":2463:2467   */\n  0x20\n    /* \"#utility.yul\":2456:2461   */\n  dup2\n    /* \"#utility.yul\":2452:2468   */\n  add\n    /* \"#utility.yul\":2501:2504   */\n  dup5\n    /* \"#utility.yul\":2492:2498   */\n  dup5\n    /* \"#utility.yul\":2487:2490   */\n  dup5\n    /* \"#utility.yul\":2483:2499   */\n  add\n    /* \"#utility.yul\":2480:2505   */\n  gt\n    /* \"#utility.yul\":2477:2589   */\n  iszero\n  tag_82\n  jumpi\n    /* \"#utility.yul\":2508:2587   */\n  tag_83\n  tag_18\n  jump\t// in\ntag_83:\n    /* \"#utility.yul\":2477:2589   */\ntag_82:\n    /* \"#utility.yul\":2598:2650   */\n  tag_84\n    /* \"#utility.yul\":2643:2649   */\n  dup5\n    /* \"#utility.yul\":2638:2641   */\n  dup3\n    /* \"#utility.yul\":2633:2636   */\n  dup6\n    /* \"#utility.yul\":2598:2650   */\n  tag_24\n  jump\t// in\ntag_84:\n    /* \"#utility.yul\":2317:2656   */\n  pop\n    /* \"#utility.yul\":2222:2656   */\n  swap4\n  swap3\n  pop\n  pop\n  pop\n  jump\t// out\n    /* \"#utility.yul\":2676:3031   */\ntag_26:\n    /* \"#utility.yul\":2743:2748   */\n  0x00\n    /* \"#utility.yul\":2792:2795   */\n  dup3\n    /* \"#utility.yul\":2785:2789   */\n  0x1f\n    /* \"#utility.yul\":2777:2783   */\n  dup4\n    /* \"#utility.yul\":2773:2790   */\n  add\n    /* \"#utility.yul\":2769:2796   */\n  slt\n    /* \"#utility.yul\":2759:2881   */\n  tag_86\n  jumpi\n    /* \"#utility.yul\":2800:2879   */\n  tag_87\n  tag_17\n  jump\t// in\ntag_87:\n    /* \"#utility.yul\":2759:2881   */\ntag_86:\n    /* \"#utility.yul\":2910:2916   */\n  dup2\n    /* \"#utility.yul\":2904:2917   */\n  mload\n    /* \"#utility.yul\":2935:3025   */\n  tag_88\n    /* \"#utility.yul\":3021:3024   */\n  dup5\n    /* \"#utility.yul\":3013:3019   */\n  dup3\n    /* \"#utility.yul\":3006:3010   */\n  0x20\n    /* \"#utility.yul\":2998:3004   */\n  dup7\n    /* \"#utility.yul\":2994:3011   */\n  add\n    /* \"#utility.yul\":2935:3025   */\n  tag_25\n  jump\t// in\ntag_88:\n    /* \"#utility.yul\":2926:3025   */\n  swap2\n  pop\n    /* \"#utility.yul\":2749:3031   */\n  pop\n    /* \"#utility.yul\":2676:3031   */\n  swap3\n  swap2\n  pop\n  pop\n  jump\t// out\n    /* \"#utility.yul\":3037:3163   */\ntag_27:\n    /* \"#utility.yul\":3074:3081   */\n  0x00\n    /* \"#utility.yul\":3114:3156   */\n  0xffffffffffffffffffffffffffffffffffffffff\n    /* \"#utility.yul\":3107:3112   */\n  dup3\n    /* \"#utility.yul\":3103:3157   */\n  and\n    /* \"#utility.yul\":3092:3157   */\n  swap1\n  pop\n    /* \"#utility.yul\":3037:3163   */\n  swap2\n  swap1\n  pop\n  jump\t// out\n    /* \"#utility.yul\":3169:3273   */\ntag_28:\n    /* \"#utility.yul\":3214:3221   */\n  0x00\n    /* \"#utility.yul\":3243:3267   */\n  tag_91\n    /* \"#utility.yul\":3261:3266   */\n  dup3\n    /* \"#utility.yul\":3243:3267   */\n  tag_27\n  jump\t// in\ntag_91:\n    /* \"#utility.yul\":3232:3267   */\n  swap1\n  pop\n    /* \"#utility.yul\":3169:3273   */\n  swap2\n  swap1\n  pop\n  jump\t// out\n    /* \"#utility.yul\":3279:3417   */\ntag_29:\n    /* \"#utility.yul\":3360:3392   */\n  tag_93\n    /* \"#utility.yul\":3386:3391   */\n  dup2\n    /* \"#utility.yul\":3360:3392   */\n  tag_28\n  jump\t// in\ntag_93:\n    /* \"#utility.yul\":3353:3358   */\n  dup2\n    /* \"#utility.yul\":3350:3393   */\n  eq\n    /* \"#utility.yul\":3340:3411   */\n  tag_94\n  jumpi\n    /* \"#utility.yul\":3407:3408   */\n  0x00\n    /* \"#utility.yul\":3404:3405   */\n  dup1\n    /* \"#utility.yul\":3397:3409   */\n  revert\n    /* \"#utility.yul\":3340:3411   */\ntag_94:\n    /* \"#utility.yul\":3279:3417   */\n  pop\n  jump\t// out\n    /* \"#utility.yul\":3423:3582   */\ntag_30:\n    /* \"#utility.yul\":3488:3493   */\n  0x00\n    /* \"#utility.yul\":3519:3525   */\n  dup2\n    /* \"#utility.yul\":3513:3526   */\n  mload\n    /* \"#utility.yul\":3504:3526   */\n  swap1\n  pop\n    /* \"#utility.yul\":3535:3576   */\n  tag_96\n    /* \"#utility.yul\":3570:3575   */\n  dup2\n    /* \"#utility.yul\":3535:3576   */\n  tag_29\n  jump\t// in\ntag_96:\n    /* \"#utility.yul\":3423:3582   */\n  swap3\n  swap2\n  pop\n  pop\n  jump\t// out\n    /* \"#utility.yul\":3588:4440   */\ntag_3:\n    /* \"#utility.yul\":3694:3700   */\n  0x00\n    /* \"#utility.yul\":3702:3708   */\n  dup1\n    /* \"#utility.yul\":3710:3716   */\n  0x00\n    /* \"#utility.yul\":3759:3761   */\n  0x60\n    /* \"#utility.yul\":3747:3756   */\n  dup5\n    /* \"#utility.yul\":3738:3745   */\n  dup7\n    /* \"#utility.yul\":3734:3757   */\n  sub\n    /* \"#utility.yul\":3730:3762   */\n  slt\n    /* \"#utility.yul\":3727:3846   */\n  iszero\n  tag_98\n  jumpi\n    /* \"#utility.yul\":3765:3844   */\n  tag_99\n  tag_12\n  jump\t// in\ntag_99:\n    /* \"#utility.yul\":3727:3846   */\ntag_98:\n    /* \"#utility.yul\":3885:3886   */\n  0x00\n    /* \"#utility.yul\":3910:3974   */\n  tag_100\n    /* \"#utility.yul\":3966:3973   */\n  dup7\n    /* \"#utility.yul\":3957:3963   */\n  dup3\n    /* \"#utility.yul\":3946:3955   */\n  dup8\n    /* \"#utility.yul\":3942:3964   */\n  add\n    /* \"#utility.yul\":3910:3974   */\n  tag_16\n  jump\t// in\ntag_100:\n    /* \"#utility.yul\":3900:3974   */\n  swap4\n  pop\n    /* \"#utility.yul\":3856:3984   */\n  pop\n    /* \"#utility.yul\":4044:4046   */\n  0x20\n    /* \"#utility.yul\":4033:4042   */\n  dup5\n    /* \"#utility.yul\":4029:4047   */\n  add\n    /* \"#utility.yul\":4023:4048   */\n  mload\n    /* \"#utility.yul\":4075:4093   */\n  0xffffffffffffffff\n    /* \"#utility.yul\":4067:4073   */\n  dup2\n    /* \"#utility.yul\":4064:4094   */\n  gt\n    /* \"#utility.yul\":4061:4178   */\n  iszero\n  tag_101\n  jumpi\n    /* \"#utility.yul\":4097:4176   */\n  tag_102\n  tag_13\n  jump\t// in\ntag_102:\n    /* \"#utility.yul\":4061:4178   */\ntag_101:\n    /* \"#utility.yul\":4202:4276   */\n  tag_103\n    /* \"#utility.yul\":4268:4275   */\n  dup7\n    /* \"#utility.yul\":4259:4265   */\n  dup3\n    /* \"#utility.yul\":4248:4257   */\n  dup8\n    /* \"#utility.yul\":4244:4266   */\n  add\n    /* \"#utility.yul\":4202:4276   */\n  tag_26\n  jump\t// in\ntag_103:\n    /* \"#utility.yul\":4192:4276   */\n  swap3\n  pop\n    /* \"#utility.yul\":3994:4286   */\n  pop\n    /* \"#utility.yul\":4325:4327   */\n  0x40\n    /* \"#utility.yul\":4351:4423   */\n  tag_104\n    /* \"#utility.yul\":4415:4422   */\n  dup7\n    /* \"#utility.yul\":4406:4412   */\n  dup3\n    /* \"#utility.yul\":4395:4404   */\n  dup8\n    /* \"#utility.yul\":4391:4413   */\n  add\n    /* \"#utility.yul\":4351:4423   */\n  tag_30\n  jump\t// in\ntag_104:\n    /* \"#utility.yul\":4341:4423   */\n  swap2\n  pop\n    /* \"#utility.yul\":4296:4433   */\n  pop\n    /* \"#utility.yul\":3588:4440   */\n  swap3\n  pop\n  swap3\n  pop\n  swap3\n  jump\t// out\n    /* \"#utility.yul\":4446:4545   */\ntag_31:\n    /* \"#utility.yul\":4498:4504   */\n  0x00\n    /* \"#utility.yul\":4532:4537   */\n  dup2\n    /* \"#utility.yul\":4526:4538   */\n  mload\n    /* \"#utility.yul\":4516:4538   */\n  swap1\n  pop\n    /* \"#utility.yul\":4446:4545   */\n  swap2\n  swap1\n  pop\n  jump\t// out\n    /* \"#utility.yul\":4551:4731   */\ntag_32:\n    /* \"#utility.yul\":4599:4676   */\n  0x4e487b7100000000000000000000000000000000000000000000000000000000\n    /* \"#utility.yul\":4596:4597   */\n  0x00\n    /* \"#utility.yul\":4589:4677   */\n  mstore\n    /* \"#utility.yul\":4696:4700   */\n  0x22\n    /* \"#utility.yul\":4693:4694   */\n  0x04\n    /* \"#utility.yul\":4686:4701   */\n  mstore\n    /* \"#utility.yul\":4720:4724   */\n  0x24\n    /* \"#utility.yul\":4717:4718   */\n  0x00\n    /* \"#utility.yul\":4710:4725   */\n  revert\n    /* \"#utility.yul\":4737:5057   */\ntag_33:\n    /* \"#utility.yul\":4781:4787   */\n  0x00\n    /* \"#utility.yul\":4818:4819   */\n  0x02\n    /* \"#utility.yul\":4812:4816   */\n  dup3\n    /* \"#utility.yul\":4808:4820   */\n  div\n    /* \"#utility.yul\":4798:4820   */\n  swap1\n  pop\n    /* \"#utility.yul\":4865:4866   */\n  0x01\n    /* \"#utility.yul\":4859:4863   */\n  dup3\n    /* \"#utility.yul\":4855:4867   */\n  and\n    /* \"#utility.yul\":4886:4904   */\n  dup1\n    /* \"#utility.yul\":4876:4957   */\n  tag_108\n  jumpi\n    /* \"#utility.yul\":4942:4946   */\n  0x7f\n    /* \"#utility.yul\":4934:4940   */\n  dup3\n    /* \"#utility.yul\":4930:4947   */\n  and\n    /* \"#utility.yul\":4920:4947   */\n  swap2\n  pop\n    /* \"#utility.yul\":4876:4957   */\ntag_108:\n    /* \"#utility.yul\":5004:5006   */\n  0x20\n    /* \"#utility.yul\":4996:5002   */\n  dup3\n    /* \"#utility.yul\":4993:5007   */\n  lt\n    /* \"#utility.yul\":4973:4991   */\n  dup2\n    /* \"#utility.yul\":4970:5008   */\n  sub\n    /* \"#utility.yul\":4967:5051   */\n  tag_109\n  jumpi\n    /* \"#utility.yul\":5023:5041   */\n  tag_110\n  tag_32\n  jump\t// in\ntag_110:\n    /* \"#utility.yul\":4967:5051   */\ntag_109:\n    /* \"#utility.yul\":4788:5057   */\n  pop\n    /* \"#utility.yul\":4737:5057   */\n  swap2\n  swap1\n  pop\n  jump\t// out\n    /* \"#utility.yul\":5063:5204   */\ntag_34:\n    /* \"#utility.yul\":5112:5116   */\n  0x00\n    /* \"#utility.yul\":5135:5138   */\n  dup2\n    /* \"#utility.yul\":5127:5138   */\n  swap1\n  pop\n    /* \"#utility.yul\":5158:5161   */\n  dup2\n    /* \"#utility.yul\":5155:5156   */\n  0x00\n    /* \"#utility.yul\":5148:5162   */\n  mstore\n    /* \"#utility.yul\":5192:5196   */\n  0x20\n    /* \"#utility.yul\":5189:5190   */\n  0x00\n    /* \"#utility.yul\":5179:5197   */\n  keccak256\n    /* \"#utility.yul\":5171:5197   */\n  swap1\n  pop\n    /* \"#utility.yul\":5063:5204   */\n  swap2\n  swap1\n  pop\n  jump\t// out\n    /* \"#utility.yul\":5210:5303   */\ntag_35:\n    /* \"#utility.yul\":5247:5253   */\n  0x00\n    /* \"#utility.yul\":5294:5296   */\n  0x20\n    /* \"#utility.yul\":5289:5291   */\n  0x1f\n    /* \"#utility.yul\":5282:5287   */\n  dup4\n    /* \"#utility.yul\":5278:5292   */\n  add\n    /* \"#utility.yul\":5274:5297   */\n  div\n    /* \"#utility.yul\":5264:5297   */\n  swap1\n  pop\n    /* \"#utility.yul\":5210:5303   */\n  swap2\n  swap1\n  pop\n  jump\t// out\n    /* \"#utility.yul\":5309:5416   */\ntag_36:\n    /* \"#utility.yul\":5353:5361   */\n  0x00\n    /* \"#utility.yul\":5403:5408   */\n  dup3\n    /* \"#utility.yul\":5397:5401   */\n  dup3\n    /* \"#utility.yul\":5393:5409   */\n  shl\n    /* \"#utility.yul\":5372:5409   */\n  swap1\n  pop\n    /* \"#utility.yul\":5309:5416   */\n  swap3\n  swap2\n  pop\n  pop\n  jump\t// out\n    /* \"#utility.yul\":5422:5815   */\ntag_37:\n    /* \"#utility.yul\":5491:5497   */\n  0x00\n    /* \"#utility.yul\":5541:5542   */\n  0x08\n    /* \"#utility.yul\":5529:5539   */\n  dup4\n    /* \"#utility.yul\":5525:5543   */\n  mul\n    /* \"#utility.yul\":5564:5661   */\n  tag_115\n    /* \"#utility.yul\":5594:5660   */\n  0xffffffffffffffffffffffffffffffffffffffffffffffffffffffffffffffff\n    /* \"#utility.yul\":5583:5592   */\n  dup3\n    /* \"#utility.yul\":5564:5661   */\n  tag_36\n  jump\t// in\ntag_115:\n    /* \"#utility.yul\":5682:5721   */\n  tag_116\n    /* \"#utility.yul\":5712:5720   */\n  dup7\n    /* \"#utility.yul\":5701:5710   */\n  dup4\n    /* \"#utility.yul\":5682:5721   */\n  tag_36\n  jump\t// in\ntag_116:\n    /* \"#utility.yul\":5670:5721   */\n  swap6\n  pop\n    /* \"#utility.yul\":5754:5758   */\n  dup1\n    /* \"#utility.yul\":5750:5759   */\n  not\n    /* \"#utility.yul\":5743:5748   */\n  dup5\n    /* \"#utility.yul\":5739:5760   */\n  and\n    /* \"#utility.yul\":5730:5760   */\n  swap4\n  pop\n    /* \"#utility.yul\":5803:5807   */\n  dup1\n    /* \"#utility.yul\":5793:5801   */\n  dup7\n    /* \"#utility.yul\":5789:5808   */\n  and\n    /* \"#utility.yul\":5782:5787   */\n  dup5\n    /* \"#utility.yul\":5779:5809   */\n  or\n    /* \"#utility.yul\":5769:5809   */\n  swap3\n  pop\n    /* \"#utility.yul\":5498:5815   */\n  pop\n  pop\n    /* \"#utility.yul\":5422:5815   */\n  swap4\n  swap3\n  pop\n  pop\n  pop\n  jump\t// out\n    /* \"#utility.yul\":5821:5881   */\ntag_38:\n    /* \"#utility.yul\":5849:5852   */\n  0x00\n    /* \"#utility.yul\":5870:5875   */\n  dup2\n    /* \"#utility.yul\":5863:5875   */\n  swap1\n  pop\n    /* \"#utility.yul\":5821:5881   */\n  swap2\n  swap1\n  pop\n  jump\t// out\n    /* \"#utility.yul\":5887:6029   */\ntag_39:\n    /* \"#utility.yul\":5937:5946   */\n  0x00\n    /* \"#utility.yul\":5970:6023   */\n  tag_119\n    /* \"#utility.yul\":5988:6022   */\n  tag_120\n    /* \"#utility.yul\":5997:6021   */\n  tag_121\n    /* \"#utility.yul\":6015:6020   */\n  dup5\n    /* \"#utility.yul\":5997:6021   */\n  tag_14\n  jump\t// in\ntag_121:\n    /* \"#utility.yul\":5988:6022   */\n  tag_38\n  jump\t// in\ntag_120:\n    /* \"#utility.yul\":5970:6023   */\n  tag_14\n  jump\t// in\ntag_119:\n    /* \"#utility.yul\":5957:6023   */\n  swap1\n  pop\n    /* \"#utility.yul\":5887:6029   */\n  swap2\n  swap1\n  pop\n  jump\t// out\n    /* \"#utility.yul\":6035:6110   */\ntag_40:\n    /* \"#utility.yul\":6078:6081   */\n  0x00\n    /* \"#utility.yul\":6099:6104   */\n  dup2\n    /* \"#utility.yul\":6092:6104   */\n  swap1\n  pop\n    /* \"#utility.yul\":6035:6110   */\n  swap2\n  swap1\n  pop\n  jump\t// out\n    /* \"#utility.yul\":6116:6385   */\ntag_41:\n    /* \"#utility.yul\":6226:6265   */\n  tag_124\n    /* \"#utility.yul\":6257:6264   */\n  dup4\n    /* \"#utility.yul\":6226:6265   */\n  tag_39\n  jump\t// in\ntag_124:\n    /* \"#utility.yul\":6287:6378   */\n  tag_125\n    /* \"#utility.yul\":6336:6377   */\n  tag_126\n    /* \"#utility.yul\":6360:6376   */\n  dup3\n    /* \"#utility.yul\":6336:6377   */\n  tag_40\n  jump\t// in\ntag_126:\n    /* \"#utility.yul\":6328:6334   */\n  dup5\n    /* \"#utility.yul\":6321:6325   */\n  dup5\n    /* \"#utility.yul\":6315:6326   */\n  sload\n    /* \"#utility.yul\":6287:6378   */\n  tag_37\n  jump\t// in\ntag_125:\n    /* \"#utility.yul\":6281:6285   */\n  dup3\n    /* \"#utility.yul\":6274:6379   */\n  sstore\n    /* \"#utility.yul\":6192:6385   */\n  pop\n    /* \"#utility.yul\":6116:6385   */\n  pop\n  pop\n  pop\n  jump\t// out\n    /* \"#utility.yul\":6391:6464   */\ntag_42:\n    /* \"#utility.yul\":6436:6439   */\n  0x00\n    /* \"#utility.yul\":6391:6464   */\n  swap1\n  jump\t// out\n    /* \"#utility.yul\":6470:6659   */\ntag_43:\n    /* \"#utility.yul\":6547:6579   */\n  tag_129\n  tag_42\n  jump\t// in\ntag_129:\n    /* \"#utility.yul\":6588:6653   */\n  tag_130\n    /* \"#utility.yul\":6646:6652   */\n  dup2\n    /* \"#utility.yul\":6638:6644   */\n  dup5\n    /* \"#utility.yul\":6632:6636   */\n  dup5\n    /* \"#utility.yul\":6588:6653   */\n  tag_41\n  jump\t// in\ntag_130:\n    /* \"#utility.yul\":6523:6659   */\n  pop\n    /* \"#utility.yul\":6470:6659   */\n  pop\n  pop\n  jump\t// out\n    /* \"#utility.yul\":6665:6851   */\ntag_44:\n    /* \"#utility.yul\":6725:6845   */\ntag_132:\n    /* \"#utility.yul\":6742:6745   */\n  dup2\n    /* \"#utility.yul\":6735:6740   */\n  dup2\n    /* \"#utility.yul\":6732:6746   */\n  lt\n    /* \"#utility.yul\":6725:6845   */\n  iszero\n  tag_134\n  jumpi\n    /* \"#utility.yul\":6796:6835   */\n  tag_135\n    /* \"#utility.yul\":6833:6834   */\n  0x00\n    /* \"#utility.yul\":6826:6831   */\n  dup3\n    /* \"#utility.yul\":6796:6835   */\n  tag_43\n  jump\t// in\ntag_135:\n    /* \"#utility.yul\":6769:6770   */\n  0x01\n    /* \"#utility.yul\":6762:6767   */\n  dup2\n    /* \"#utility.yul\":6758:6771   */\n  add\n    /* \"#utility.yul\":6749:6771   */\n  swap1\n  pop\n    /* \"#utility.yul\":6725:6845   */\n  jump(tag_132)\ntag_134:\n    /* \"#utility.yul\":6665:6851   */\n  pop\n  pop\n  jump\t// out\n    /* \"#utility.yul\":6857:7400   */\ntag_45:\n    /* \"#utility.yul\":6958:6960   */\n  0x1f\n    /* \"#utility.yul\":6953:6956   */\n  dup3\n    /* \"#utility.yul\":6950:6961   */\n  gt\n    /* \"#utility.yul\":6947:7393   */\n  iszero\n  tag_137\n  jumpi\n    /* \"#utility.yul\":6992:7030   */\n  tag_138\n    /* \"#utility.yul\":7024:7029   */\n  dup2\n    /* \"#utility.yul\":6992:7030   */\n  tag_34\n  jump\t// in\ntag_138:\n    /* \"#utility.yul\":7076:7105   */\n  tag_139\n    /* \"#utility.yul\":7094:7104   */\n  dup5\n    /* \"#utility.yul\":7076:7105   */\n  tag_35\n  jump\t// in\ntag_139:\n    /* \"#utility.yul\":7066:7074   */\n  dup2\n    /* \"#utility.yul\":7062:7106   */\n  add\n    /* \"#utility.yul\":7259:7261   */\n  0x20\n    /* \"#utility.yul\":7247:7257   */\n  dup6\n    /* \"#utility.yul\":7244:7262   */\n  lt\n    /* \"#utility.yul\":7241:7290   */\n  iszero\n  tag_140\n  jumpi\n    /* \"#utility.yul\":7280:7288   */\n  dup2\n    /* \"#utility.yul\":7265:7288   */\n  swap1\n  pop\n    /* \"#utility.yul\":7241:7290   */\ntag_140:\n    /* \"#utility.yul\":7303:7383   */\n  tag_141\n    /* \"#utility.yul\":7359:7381   */\n  tag_142\n    /* \"#utility.yul\":7377:7380   */\n  dup6\n    /* \"#utility.yul\":7359:7381   */\n  tag_35\n  jump\t// in\ntag_142:\n    /* \"#utility.yul\":7349:7357   */\n  dup4\n    /* \"#utility.yul\":7345:7382   */\n  add\n    /* \"#utility.yul\":7332:7343   */\n  dup3\n    /* \"#utility.yul\":7303:7383   */\n  tag_44\n  jump\t// in\ntag_141:\n    /* \"#utility.yul\":6962:7393   */\n  pop\n  pop\n    /* \"#utility.yul\":6947:7393   */\ntag_137:\n    /* \"#utility.yul\":6857:7400   */\n  pop\n  pop\n  pop\n  jump\t// out\n    /* \"#utility.yul\":7406:7523   */\ntag_46:\n    /* \"#utility.yul\":7460:7468   */\n  0x00\n    /* \"#utility.yul\":7510:7515   */\n  dup3\n    /* \"#utility.yul\":7504:7508   */\n  dup3\n    /* \"#utility.yul\":7500:7516   */\n  shr\n    /* \"#utility.yul\":7479:7516   */\n  swap1\n  pop\n    /* \"#utility.yul\":7406:7523   */\n  swap3\n  swap2\n  pop\n  pop\n  jump\t// out\n    /* \"#utility.yul\":7529:7698   */\ntag_47:\n    /* \"#utility.yul\":7573:7579   */\n  0x00\n    /* \"#utility.yul\":7606:7657   */\n  tag_145\n    /* \"#utility.yul\":7654:7655   */\n  0x00\n    /* \"#utility.yul\":7650:7656   */\n  not\n    /* \"#utility.yul\":7642:7647   */\n  dup5\n    /* \"#utility.yul\":7639:7640   */\n  0x08\n    /* \"#utility.yul\":7635:7648   */\n  mul\n    /* \"#utility.yul\":7606:7657   */\n  tag_46\n  jump\t// in\ntag_145:\n    /* \"#utility.yul\":7602:7658   */\n  not\n    /* \"#utility.yul\":7687:7691   */\n  dup1\n    /* \"#utility.yul\":7681:7685   */\n  dup4\n    /* \"#utility.yul\":7677:7692   */\n  and\n    /* \"#utility.yul\":7667:7692   */\n  swap2\n  pop\n    /* \"#utility.yul\":7580:7698   */\n  pop\n    /* \"#utility.yul\":7529:7698   */\n  swap3\n  swap2\n  pop\n  pop\n  jump\t// out\n    /* \"#utility.yul\":7703:7998   */\ntag_48:\n    /* \"#utility.yul\":7779:7783   */\n  0x00\n    /* \"#utility.yul\":7925:7954   */\n  tag_147\n    /* \"#utility.yul\":7950:7953   */\n  dup4\n    /* \"#utility.yul\":7944:7948   */\n  dup4\n    /* \"#utility.yul\":7925:7954   */\n  tag_47\n  jump\t// in\ntag_147:\n    /* \"#utility.yul\":7917:7954   */\n  swap2\n  pop\n    /* \"#utility.yul\":7987:7990   */\n  dup3\n    /* \"#utility.yul\":7984:7985   */\n  0x02\n    /* \"#utility.yul\":7980:7991   */\n  mul\n    /* \"#utility.yul\":7974:7978   */\n  dup3\n    /* \"#utility.yul\":7971:7992   */\n  or\n    /* \"#utility.yul\":7963:7992   */\n  swap1\n  pop\n    /* \"#utility.yul\":7703:7998   */\n  swap3\n  swap2\n  pop\n  pop\n  jump\t// out\n    /* \"#utility.yul\":8003:9398   */\ntag_7:\n    /* \"#utility.yul\":8120:8157   */\n  tag_149\n    /* \"#utility.yul\":8153:8156   */\n  dup3\n    /* \"#utility.yul\":8120:8157   */\n  tag_31\n  jump\t// in\ntag_149:\n    /* \"#utility.yul\":8222:8240   */\n  0xffffffffffffffff\n    /* \"#utility.yul\":8214:8220   */\n  dup2\n    /* \"#utility.yul\":8211:8241   */\n  gt\n    /* \"#utility.yul\":8208:8264   */\n  iszero\n  tag_150\n  jumpi\n    /* \"#utility.yul\":8244:8262   */\n  tag_151\n  tag_20\n  jump\t// in\ntag_151:\n    /* \"#utility.yul\":8208:8264   */\ntag_150:\n    /* \"#utility.yul\":8288:8326   */\n  tag_152\n    /* \"#utility.yul\":8320:8324   */\n  dup3\n    /* \"#utility.yul\":8314:8325   */\n  sload\n    /* \"#utility.yul\":8288:8326   */\n  tag_33\n  jump\t// in\ntag_152:\n    /* \"#utility.yul\":8373:8440   */\n  tag_153\n    /* \"#utility.yul\":8433:8439   */\n  dup3\n    /* \"#utility.yul\":8425:8431   */\n  dup3\n    /* \"#utility.yul\":8419:8423   */\n  dup6\n    /* \"#utility.yul\":8373:8440   */\n  tag_45\n  jump\t// in\ntag_153:\n    /* \"#utility.yul\":8467:8468   */\n  0x00\n    /* \"#utility.yul\":8491:8495   */\n  0x20\n    /* \"#utility.yul\":8478:8495   */\n  swap1\n  pop\n    /* \"#utility.yul\":8523:8525   */\n  0x1f\n    /* \"#utility.yul\":8515:8521   */\n  dup4\n    /* \"#utility.yul\":8512:8526   */\n  gt\n    /* \"#utility.yul\":8540:8541   */\n  0x01\n    /* \"#utility.yul\":8535:9153   */\n  dup2\n  eq\n  tag_155\n  jumpi\n    /* \"#utility.yul\":9197:9198   */\n  0x00\n    /* \"#utility.yul\":9214:9220   */\n  dup5\n    /* \"#utility.yul\":9211:9288   */\n  iszero\n  tag_156\n  jumpi\n    /* \"#utility.yul\":9263:9272   */\n  dup3\n    /* \"#utility.yul\":9258:9261   */\n  dup8\n    /* \"#utility.yul\":9254:9273   */\n  add\n    /* \"#utility.yul\":9248:9274   */\n  mload\n    /* \"#utility.yul\":9239:9274   */\n  swap1\n  pop\n    /* \"#utility.yul\":9211:9288   */\ntag_156:\n    /* \"#utility.yul\":9314:9381   */\n  tag_157\n    /* \"#utility.yul\":9374:9380   */\n  dup6\n    /* \"#utility.yul\":9367:9372   */\n  dup3\n    /* \"#utility.yul\":9314:9381   */\n  tag_48\n  jump\t// in\ntag_157:\n    /* \"#utility.yul\":9308:9312   */\n  dup7\n    /* \"#utility.yul\":9301:9382   */\n  sstore\n    /* \"#utility.yul\":9170:9392   */\n  pop\n    /* \"#utility.yul\":8505:9392   */\n  jump(tag_154)\n    /* \"#utility.yul\":8535:9153   */\ntag_155:\n    /* \"#utility.yul\":8587:8591   */\n  0x1f\n    /* \"#utility.yul\":8583:8592   */\n  not\n    /* \"#utility.yul\":8575:8581   */\n  dup5\n    /* \"#utility.yul\":8571:8593   */\n  and\n    /* \"#utility.yul\":8621:8658   */\n  tag_158\n    /* \"#utility.yul\":8653:8657   */\n  dup7\n    /* \"#utility.yul\":8621:8658   */\n  tag_34\n  jump\t// in\ntag_158:\n    /* \"#utility.yul\":8680:8681   */\n  0x00\n    /* \"#utility.yul\":8694:8902   */\ntag_159:\n    /* \"#utility.yul\":8708:8715   */\n  dup3\n    /* \"#utility.yul\":8705:8706   */\n  dup2\n    /* \"#utility.yul\":8702:8716   */\n  lt\n    /* \"#utility.yul\":8694:8902   */\n  iszero\n  tag_161\n  jumpi\n    /* \"#utility.yul\":8787:8796   */\n  dup5\n    /* \"#utility.yul\":8782:8785   */\n  dup10\n    /* \"#utility.yul\":8778:8797   */\n  add\n    /* \"#utility.yul\":8772:8798   */\n  mload\n    /* \"#utility.yul\":8764:8770   */\n  dup3\n    /* \"#utility.yul\":8757:8799   */\n  sstore\n    /* \"#utility.yul\":8838:8839   */\n  0x01\n    /* \"#utility.yul\":8830:8836   */\n  dup3\n    /* \"#utility.yul\":8826:8840   */\n  add\n    /* \"#utility.yul\":8816:8840   */\n  swap2\n  pop\n    /* \"#utility.yul\":8885:8887   */\n  0x20\n    /* \"#utility.yul\":8874:8883   */\n  dup6\n    /* \"#utility.yul\":8870:8888   */\n  add\n    /* \"#utility.yul\":8857:8888   */\n  swap5\n  pop\n    /* \"#utility.yul\":8731:8735   */\n  0x20\n    /* \"#utility.yul\":8728:8729   */\n  dup2\n    /* \"#utility.yul\":8724:8736   */\n  add\n    /* \"#utility.yul\":8719:8736   */\n  swap1\n  pop\n    /* \"#utility.yul\":8694:8902   */\n  jump(tag_159)\ntag_161:\n    /* \"#utility.yul\":8930:8936   */\n  dup7\n    /* \"#utility.yul\":8921:8928   */\n  dup4\n    /* \"#utility.yul\":8918:8937   */\n  lt\n    /* \"#utility.yul\":8915:9094   */\n  iszero\n  tag_162\n  jumpi\n    /* \"#utility.yul\":8988:8997   */\n  dup5\n    /* \"#utility.yul\":8983:8986   */\n  dup10\n    /* \"#utility.yul\":8979:8998   */\n  add\n    /* \"#utility.yul\":8973:8999   */\n  mload\n    /* \"#utility.yul\":9031:9079   */\n  tag_163\n    /* \"#utility.yul\":9073:9077   */\n  0x1f\n    /* \"#utility.yul\":9065:9071   */\n  dup10\n    /* \"#utility.yul\":9061:9078   */\n  and\n    /* \"#utility.yul\":9050:9059   */\n  dup3\n    /* \"#utility.yul\":9031:9079   */\n  tag_47\n  jump\t// in\ntag_163:\n    /* \"#utility.yul\":9023:9029   */\n  dup4\n    /* \"#utility.yul\":9016:9080   */\n  sstore\n    /* \"#utility.yul\":8938:9094   */\n  pop\n    /* \"#utility.yul\":8915:9094   */\ntag_162:\n    /* \"#utility.yul\":9140:9141   */\n  0x01\n    /* \"#utility.yul\":9136:9137   */\n  0x02\n    /* \"#utility.yul\":9128:9134   */\n  dup9\n    /* \"#utility.yul\":9124:9138   */\n  mul\n    /* \"#utility.yul\":9120:9142   */\n  add\n    /* \"#utility.yul\":9114:9118   */\n  dup9\n    /* \"#utility.yul\":9107:9143   */\n  sstore\n    /* \"#utility.yul\":8542:9153   */\n  pop\n  pop\n  pop\n    /* \"#utility.yul\":8505:9392   */\ntag_154:\n  pop\n    /* \"#utility.yul\":8095:9398   */\n  pop\n  pop\n  pop\n    /* \"#utility.yul\":8003:9398   */\n  pop\n  pop\n  jump\t// out\n    /* \"#utility.yul\":9404:9584   */\ntag_49:\n    /* \"#utility.yul\":9452:9529   */\n  0x4e487b7100000000000000000000000000000000000000000000000000000000\n    /* \"#utility.yul\":9449:9450   */\n  0x00\n    /* \"#utility.yul\":9442:9530   */\n  mstore\n    /* \"#utility.yul\":9549:9553   */\n  0x11\n    /* \"#utility.yul\":9546:9547   */\n  0x04\n    /* \"#utility.yul\":9539:9554   */\n  mstore\n    /* \"#utility.yul\":9573:9577   */\n  0x24\n    /* \"#utility.yul\":9570:9571   */\n  0x00\n    /* \"#utility.yul\":9563:9578   */\n  revert\n    /* \"#utility.yul\":9590:9781   */\ntag_9:\n    /* \"#utility.yul\":9630:9633   */\n  0x00\n    /* \"#utility.yul\":9649:9669   */\n  tag_166\n    /* \"#utility.yul\":9667:9668   */\n  dup3\n    /* \"#utility.yul\":9649:9669   */\n  tag_14\n  jump\t// in\ntag_166:\n    /* \"#utility.yul\":9644:9669   */\n  swap2\n  pop\n    /* \"#utility.yul\":9683:9703   */\n  tag_167\n    /* \"#utility.yul\":9701:9702   */\n  dup4\n    /* \"#utility.yul\":9683:9703   */\n  tag_14\n  jump\t// in\ntag_167:\n    /* \"#utility.yul\":9678:9703   */\n  swap3\n  pop\n    /* \"#utility.yul\":9726:9727   */\n  dup3\n    /* \"#utility.yul\":9723:9724   */\n  dup3\n    /* \"#utility.yul\":9719:9728   */\n  add\n    /* \"#utility.yul\":9712:9728   */\n  swap1\n  pop\n    /* \"#utility.yul\":9747:9750   */\n  dup1\n    /* \"#utility.yul\":9744:9745   */\n  dup3\n    /* \"#utility.yul\":9741:9751   */\n  gt\n    /* \"#utility.yul\":9738:9774   */\n  iszero\n  tag_168\n  jumpi\n    /* \"#utility.yul\":9754:9772   */\n  tag_169\n  tag_49\n  jump\t// in\ntag_169:\n    /* \"#utility.yul\":9738:9774   */\ntag_168:\n    /* \"#utility.yul\":9590:9781   */\n  swap3\n  swap2\n  pop\n  pop\n  jump\t// out\n    /* \"Auction.sol\":66:5123  contract Auction {... */\ntag_10:\n  dataSize(sub_0)\n  dup1\n  dataOffset(sub_0)\n  0x00\n  codecopy\n  0x00\n  return\nstop\n\nsub_0: assembly {\n        /* \"Auction.sol\":66:5123  contract Auction {... */\n      mstore(0x40, 0x80)\n      jumpi(tag_1, lt(calldatasize, 0x04))\n      shr(0xe0, calldataload(0x00))\n      dup1\n      0x3ccfd60b\n      gt\n      tag_11\n      jumpi\n      dup1\n      0x3ccfd60b\n      eq\n      tag_6\n      jumpi\n      dup1\n      0x4b449cba\n      eq\n      tag_7\n      jumpi\n      dup1\n      0x91f90157\n      eq\n      tag_8\n      jumpi\n      dup1\n      0xc63d99db\n      eq\n      tag_9\n      jumpi\n      dup1\n      0xd57bde79\n      eq\n      tag_10\n      jumpi\n      jump(tag_1)\n    tag_11:\n      dup1\n      0x1998aeef\n      eq\n      tag_2\n      jumpi\n      dup1\n      0x26b387bb\n      eq\n      tag_3\n      jumpi\n      dup1\n      0x2a24f46c\n      eq\n      tag_4\n      jumpi\n      dup1\n      0x38af3eed\n      eq\n      tag_5\n      jumpi\n    tag_1:\n      0x00\n      dup1\n      revert\n        /* \"Auction.sol\":1915:3113  function bid() external payable {... */\n    tag_2:\n      tag_12\n      tag_13\n      jump\t// in\n    tag_12:\n      stop\n        /* \"Auction.sol\":483:532  mapping(address => uint256) public pendingReturns */\n    tag_3:\n      callvalue\n      dup1\n      iszero\n      tag_14\n      jumpi\n      0x00\n      dup1\n      revert\n    tag_14:\n      pop\n      tag_15\n      0x04\n      dup1\n      calldatasize\n      sub\n      dup2\n      add\n      swap1\n      tag_16\n      swap2\n      swap1\n      tag_17\n      jump\t// in\n    tag_16:\n      tag_18\n      jump\t// in\n    tag_15:\n      mload(0x40)\n      tag_19\n      swap2\n      swap1\n      tag_20\n      jump\t// in\n    tag_19:\n      mload(0x40)\n      dup1\n      swap2\n      sub\n      swap1\n      return\n        /* \"Auction.sol\":4052:5121  function auctionEnd() external {... */\n    tag_4:\n      callvalue\n      dup1\n      iszero\n      tag_21\n      jumpi\n      0x00\n      dup1\n      revert\n    tag_21:\n      pop\n      tag_22\n      tag_23\n      jump\t// in\n    tag_22:\n      stop\n        /* \"Auction.sol\":230:264  address payable public beneficiary */\n    tag_5:\n      callvalue\n      dup1\n      iszero\n      tag_24\n      jumpi\n      0x00\n      dup1\n      revert\n    tag_24:\n      pop\n      tag_25\n      tag_26\n      jump\t// in\n    tag_25:\n      mload(0x40)\n      tag_27\n      swap2\n      swap1\n      tag_28\n      jump\t// in\n    tag_27:\n      mload(0x40)\n      dup1\n      swap2\n      sub\n      swap1\n      return\n        /* \"Auction.sol\":3160:3969  function withdraw() external returns (bool) {... */\n    tag_6:\n      callvalue\n      dup1\n      iszero\n      tag_29\n      jumpi\n      0x00\n      dup1\n      revert\n    tag_29:\n      pop\n      tag_30\n      tag_31\n      jump\t// in\n    tag_30:\n      mload(0x40)\n      tag_32\n      swap2\n      swap1\n      tag_33\n      jump\t// in\n    tag_32:\n      mload(0x40)\n      dup1\n      swap2\n      sub\n      swap1\n      return\n        /* \"Auction.sol\":270:299  uint256 public auctionEndTime */\n    tag_7:\n      callvalue\n      dup1\n      iszero\n      tag_34\n      jumpi\n      0x00\n      dup1\n      revert\n    tag_34:\n      pop\n      tag_35\n      tag_36\n      jump\t// in\n    tag_35:\n      mload(0x40)\n      tag_37\n      swap2\n      swap1\n      tag_20\n      jump\t// in\n    tag_37:\n      mload(0x40)\n      dup1\n      swap2\n      sub\n      swap1\n      return\n        /* \"Auction.sol\":373:401  address public highestBidder */\n    tag_8:\n      callvalue\n      dup1\n      iszero\n      tag_38\n      jumpi\n      0x00\n      dup1\n      revert\n    tag_38:\n      pop\n      tag_39\n      tag_40\n      jump\t// in\n    tag_39:\n      mload(0x40)\n      tag_41\n      swap2\n      swap1\n      tag_42\n      jump\t// in\n    tag_41:\n      mload(0x40)\n      dup1\n      swap2\n      sub\n      swap1\n      return\n        /* \"Auction.sol\":305:330  string public auctionName */\n    tag_9:\n      callvalue\n      dup1\n      iszero\n      tag_43\n      jumpi\n      0x00\n      dup1\n      revert\n    tag_43:\n      pop\n      tag_44\n      tag_45\n      jump\t// in\n    tag_44:\n      mload(0x40)\n      tag_46\n      swap2\n      swap1\n      tag_47\n      jump\t// in\n    tag_46:\n      mload(0x40)\n      dup1\n      swap2\n      sub\n      swap1\n      return\n        /* \"Auction.sol\":407:432  uint256 public highestBid */\n    tag_10:\n      callvalue\n      dup1\n      iszero\n      tag_48\n      jumpi\n      0x00\n      dup1\n      revert\n    tag_48:\n      pop\n      tag_49\n      tag_50\n      jump\t// in\n    tag_49:\n      mload(0x40)\n      tag_51\n      swap2\n      swap1\n      tag_20\n      jump\t// in\n    tag_51:\n      mload(0x40)\n      dup1\n      swap2\n      sub\n      swap1\n      return\n        /* \"Auction.sol\":1915:3113  function bid() external payable {... */\n    tag_13:\n        /* \"Auction.sol\":2262:2276  auctionEndTime */\n      sload(0x01)\n        /* \"Auction.sol\":2244:2259  block.timestamp */\n      timestamp\n        /* \"Auction.sol\":2244:2276  block.timestamp > auctionEndTime */\n      gt\n        /* \"Auction.sol\":2240:2306  if (block.timestamp > auctionEndTime) revert AuctionAlreadyEnded() */\n      iszero\n      tag_53\n      jumpi\n        /* \"Auction.sol\":2285:2306  AuctionAlreadyEnded() */\n      mload(0x40)\n      0xd02e774d00000000000000000000000000000000000000000000000000000000\n      dup2\n      mstore\n      0x04\n      add\n      mload(0x40)\n      dup1\n      swap2\n      sub\n      swap1\n      revert\n        /* \"Auction.sol\":2240:2306  if (block.timestamp > auctionEndTime) revert AuctionAlreadyEnded() */\n    tag_53:\n        /* \"Auction.sol\":2549:2559  highestBid */\n      sload(0x04)\n        /* \"Auction.sol\":2536:2545  msg.value */\n      callvalue\n        /* \"Auction.sol\":2536:2559  msg.value <= highestBid */\n      gt\n        /* \"Auction.sol\":2532:2596  if (msg.value <= highestBid) revert BidNotHighEnough(highestBid) */\n      tag_54\n      jumpi\n        /* \"Auction.sol\":2585:2595  highestBid */\n      sload(0x04)\n        /* \"Auction.sol\":2568:2596  BidNotHighEnough(highestBid) */\n      mload(0x40)\n      0x4e12c1bb00000000000000000000000000000000000000000000000000000000\n      dup2\n      mstore\n      0x04\n      add\n      tag_55\n      swap2\n      swap1\n      tag_20\n      jump\t// in\n    tag_55:\n      mload(0x40)\n      dup1\n      swap2\n      sub\n      swap1\n      revert\n        /* \"Auction.sol\":2532:2596  if (msg.value <= highestBid) revert BidNotHighEnough(highestBid) */\n    tag_54:\n        /* \"Auction.sol\":2625:2626  0 */\n      0x00\n        /* \"Auction.sol\":2611:2621  highestBid */\n      sload(0x04)\n        /* \"Auction.sol\":2611:2626  highestBid != 0 */\n      eq\n        /* \"Auction.sol\":2607:2982  if (highestBid != 0) {... */\n      tag_56\n      jumpi\n        /* \"Auction.sol\":2961:2971  highestBid */\n      sload(0x04)\n        /* \"Auction.sol\":2928:2942  pendingReturns */\n      0x05\n        /* \"Auction.sol\":2928:2957  pendingReturns[highestBidder] */\n      0x00\n        /* \"Auction.sol\":2943:2956  highestBidder */\n      0x03\n      0x00\n      swap1\n      sload\n      swap1\n      0x0100\n      exp\n      swap1\n      div\n      0xffffffffffffffffffffffffffffffffffffffff\n      and\n        /* \"Auction.sol\":2928:2957  pendingReturns[highestBidder] */\n      0xffffffffffffffffffffffffffffffffffffffff\n      and\n      0xffffffffffffffffffffffffffffffffffffffff\n      and\n      dup2\n      mstore\n      0x20\n      add\n      swap1\n      dup2\n      mstore\n      0x20\n      add\n      0x00\n      keccak256\n      0x00\n        /* \"Auction.sol\":2928:2971  pendingReturns[highestBidder] += highestBid */\n      dup3\n      dup3\n      sload\n      tag_57\n      swap2\n      swap1\n      tag_58\n      jump\t// in\n    tag_57:\n      swap3\n      pop\n      pop\n      dup2\n      swap1\n      sstore\n      pop\n        /* \"Auction.sol\":2607:2982  if (highestBid != 0) {... */\n    tag_56:\n        /* \"Auction.sol\":3007:3017  msg.sender */\n      caller\n        /* \"Auction.sol\":2991:3004  highestBidder */\n      0x03\n      0x00\n        /* \"Auction.sol\":2991:3017  highestBidder = msg.sender */\n      0x0100\n      exp\n      dup2\n      sload\n      dup2\n      0xffffffffffffffffffffffffffffffffffffffff\n      mul\n      not\n      and\n      swap1\n      dup4\n      0xffffffffffffffffffffffffffffffffffffffff\n      and\n      mul\n      or\n      swap1\n      sstore\n      pop\n        /* \"Auction.sol\":3040:3049  msg.value */\n      callvalue\n        /* \"Auction.sol\":3027:3037  highestBid */\n      0x04\n        /* \"Auction.sol\":3027:3049  highestBid = msg.value */\n      dup2\n      swap1\n      sstore\n      pop\n        /* \"Auction.sol\":3064:3106  HighestBidIncreased(msg.sender, msg.value) */\n      0xf4757a49b326036464bec6fe419a4ae38c8a02ce3e68bf0809674f6aab8ad300\n        /* \"Auction.sol\":3084:3094  msg.sender */\n      caller\n        /* \"Auction.sol\":3096:3105  msg.value */\n      callvalue\n        /* \"Auction.sol\":3064:3106  HighestBidIncreased(msg.sender, msg.value) */\n      mload(0x40)\n      tag_59\n      swap3\n      swap2\n      swap1\n      tag_60\n      jump\t// in\n    tag_59:\n      mload(0x40)\n      dup1\n      swap2\n      sub\n      swap1\n      log1\n        /* \"Auction.sol\":1915:3113  function bid() external payable {... */\n      jump\t// out\n        /* \"Auction.sol\":483:532  mapping(address => uint256) public pendingReturns */\n    tag_18:\n      mstore(0x20, 0x05)\n      dup1\n      0x00\n      mstore\n      keccak256(0x00, 0x40)\n      0x00\n      swap2\n      pop\n      swap1\n      pop\n      sload\n      dup2\n      jump\t// out\n        /* \"Auction.sol\":4052:5121  function auctionEnd() external {... */\n    tag_23:\n        /* \"Auction.sol\":4850:4864  auctionEndTime */\n      sload(0x01)\n        /* \"Auction.sol\":4832:4847  block.timestamp */\n      timestamp\n        /* \"Auction.sol\":4832:4864  block.timestamp < auctionEndTime */\n      lt\n        /* \"Auction.sol\":4828:4893  if (block.timestamp < auctionEndTime) revert AuctionNotYetEnded() */\n      iszero\n      tag_62\n      jumpi\n        /* \"Auction.sol\":4873:4893  AuctionNotYetEnded() */\n      mload(0x40)\n      0x44cee29000000000000000000000000000000000000000000000000000000000\n      dup2\n      mstore\n      0x04\n      add\n      mload(0x40)\n      dup1\n      swap2\n      sub\n      swap1\n      revert\n        /* \"Auction.sol\":4828:4893  if (block.timestamp < auctionEndTime) revert AuctionNotYetEnded() */\n    tag_62:\n        /* \"Auction.sol\":4907:4912  ended */\n      0x06\n      0x00\n      swap1\n      sload\n      swap1\n      0x0100\n      exp\n      swap1\n      div\n      0xff\n      and\n        /* \"Auction.sol\":4903:4946  if (ended) revert AuctionEndAlreadyCalled() */\n      iszero\n      tag_63\n      jumpi\n        /* \"Auction.sol\":4921:4946  AuctionEndAlreadyCalled() */\n      mload(0x40)\n      0x61cfdcf800000000000000000000000000000000000000000000000000000000\n      dup2\n      mstore\n      0x04\n      add\n      mload(0x40)\n      dup1\n      swap2\n      sub\n      swap1\n      revert\n        /* \"Auction.sol\":4903:4946  if (ended) revert AuctionEndAlreadyCalled() */\n    tag_63:\n        /* \"Auction.sol\":4987:4991  true */\n      0x01\n        /* \"Auction.sol\":4979:4984  ended */\n      0x06\n      0x00\n        /* \"Auction.sol\":4979:4991  ended = true */\n      0x0100\n      exp\n      dup2\n      sload\n      dup2\n      0xff\n      mul\n      not\n      and\n      swap1\n      dup4\n      iszero\n      iszero\n      mul\n      or\n      swap1\n      sstore\n      pop\n        /* \"Auction.sol\":5006:5045  AuctionEnded(highestBidder, highestBid) */\n      0xdaec4582d5d9595688c8c98545fdd1c696d41c6aeaeb636737e84ed2f5c00eda\n        /* \"Auction.sol\":5019:5032  highestBidder */\n      0x03\n      0x00\n      swap1\n      sload\n      swap1\n      0x0100\n      exp\n      swap1\n      div\n      0xffffffffffffffffffffffffffffffffffffffff\n      and\n        /* \"Auction.sol\":5034:5044  highestBid */\n      sload(0x04)\n        /* \"Auction.sol\":5006:5045  AuctionEnded(highestBidder, highestBid) */\n      mload(0x40)\n      tag_64\n      swap3\n      swap2\n      swap1\n      tag_60\n      jump\t// in\n    tag_64:\n      mload(0x40)\n      dup1\n      swap2\n      sub\n      swap1\n      log1\n        /* \"Auction.sol\":5082:5093  beneficiary */\n      0x00\n      dup1\n      sload\n      swap1\n      0x0100\n      exp\n      swap1\n      div\n      0xffffffffffffffffffffffffffffffffffffffff\n      and\n        /* \"Auction.sol\":5082:5102  beneficiary.transfer */\n      0xffffffffffffffffffffffffffffffffffffffff\n      and\n        /* \"Auction.sol\":5082:5114  beneficiary.transfer(highestBid) */\n      0x08fc\n        /* \"Auction.sol\":5103:5113  highestBid */\n      sload(0x04)\n        /* \"Auction.sol\":5082:5114  beneficiary.transfer(highestBid) */\n      swap1\n      dup2\n      iszero\n      mul\n      swap1\n      mload(0x40)\n      0x00\n      mload(0x40)\n      dup1\n      dup4\n      sub\n      dup2\n      dup6\n      dup9\n      dup9\n      call\n      swap4\n      pop\n      pop\n      pop\n      pop\n      iszero\n      dup1\n      iszero\n      tag_66\n      jumpi\n      returndatasize\n      0x00\n      dup1\n      returndatacopy\n      revert(0x00, returndatasize)\n    tag_66:\n      pop\n        /* \"Auction.sol\":4052:5121  function auctionEnd() external {... */\n      jump\t// out\n        /* \"Auction.sol\":230:264  address payable public beneficiary */\n    tag_26:\n      0x00\n      dup1\n      sload\n      swap1\n      0x0100\n      exp\n      swap1\n      div\n      0xffffffffffffffffffffffffffffffffffffffff\n      and\n      dup2\n      jump\t// out\n        /* \"Auction.sol\":3160:3969  function withdraw() external returns (bool) {... */\n    tag_31:\n        /* \"Auction.sol\":3198:3202  bool */\n      0x00\n        /* \"Auction.sol\":3214:3228  uint256 amount */\n      dup1\n        /* \"Auction.sol\":3231:3245  pendingReturns */\n      0x05\n        /* \"Auction.sol\":3231:3257  pendingReturns[msg.sender] */\n      0x00\n        /* \"Auction.sol\":3246:3256  msg.sender */\n      caller\n        /* \"Auction.sol\":3231:3257  pendingReturns[msg.sender] */\n      0xffffffffffffffffffffffffffffffffffffffff\n      and\n      0xffffffffffffffffffffffffffffffffffffffff\n      and\n      dup2\n      mstore\n      0x20\n      add\n      swap1\n      dup2\n      mstore\n      0x20\n      add\n      0x00\n      keccak256\n      sload\n        /* \"Auction.sol\":3214:3257  uint256 amount = pendingReturns[msg.sender] */\n      swap1\n      pop\n        /* \"Auction.sol\":3280:3281  0 */\n      0x00\n        /* \"Auction.sol\":3271:3277  amount */\n      dup2\n        /* \"Auction.sol\":3271:3281  amount > 0 */\n      gt\n        /* \"Auction.sol\":3267:3942  if (amount > 0) {... */\n      iszero\n      tag_68\n      jumpi\n        /* \"Auction.sol\":3511:3512  0 */\n      0x00\n        /* \"Auction.sol\":3482:3496  pendingReturns */\n      0x05\n        /* \"Auction.sol\":3482:3508  pendingReturns[msg.sender] */\n      0x00\n        /* \"Auction.sol\":3497:3507  msg.sender */\n      caller\n        /* \"Auction.sol\":3482:3508  pendingReturns[msg.sender] */\n      0xffffffffffffffffffffffffffffffffffffffff\n      and\n      0xffffffffffffffffffffffffffffffffffffffff\n      and\n      dup2\n      mstore\n      0x20\n      add\n      swap1\n      dup2\n      mstore\n      0x20\n      add\n      0x00\n      keccak256\n        /* \"Auction.sol\":3482:3512  pendingReturns[msg.sender] = 0 */\n      dup2\n      swap1\n      sstore\n      pop\n        /* \"Auction.sol\":3733:3743  msg.sender */\n      caller\n        /* \"Auction.sol\":3725:3749  payable(msg.sender).send */\n      0xffffffffffffffffffffffffffffffffffffffff\n      and\n        /* \"Auction.sol\":3725:3757  payable(msg.sender).send(amount) */\n      0x08fc\n        /* \"Auction.sol\":3750:3756  amount */\n      dup3\n        /* \"Auction.sol\":3725:3757  payable(msg.sender).send(amount) */\n      swap1\n      dup2\n      iszero\n      mul\n      swap1\n      mload(0x40)\n      0x00\n      mload(0x40)\n      dup1\n      dup4\n      sub\n      dup2\n      dup6\n      dup9\n      dup9\n      call\n      swap4\n      pop\n      pop\n      pop\n      pop\n        /* \"Auction.sol\":3720:3932  if (!payable(msg.sender).send(amount)) {... */\n      tag_70\n      jumpi\n        /* \"Auction.sol\":3881:3887  amount */\n      dup1\n        /* \"Auction.sol\":3852:3866  pendingReturns */\n      0x05\n        /* \"Auction.sol\":3852:3878  pendingReturns[msg.sender] */\n      0x00\n        /* \"Auction.sol\":3867:3877  msg.sender */\n      caller\n        /* \"Auction.sol\":3852:3878  pendingReturns[msg.sender] */\n      0xffffffffffffffffffffffffffffffffffffffff\n      and\n      0xffffffffffffffffffffffffffffffffffffffff\n      and\n      dup2\n      mstore\n      0x20\n      add\n      swap1\n      dup2\n      mstore\n      0x20\n      add\n      0x00\n      keccak256\n        /* \"Auction.sol\":3852:3887  pendingReturns[msg.sender] = amount */\n      dup2\n      swap1\n      sstore\n      pop\n        /* \"Auction.sol\":3912:3917  false */\n      0x00\n        /* \"Auction.sol\":3905:3917  return false */\n      swap2\n      pop\n      pop\n      jump(tag_67)\n        /* \"Auction.sol\":3720:3932  if (!payable(msg.sender).send(amount)) {... */\n    tag_70:\n        /* \"Auction.sol\":3267:3942  if (amount > 0) {... */\n    tag_68:\n        /* \"Auction.sol\":3958:3962  true */\n      0x01\n        /* \"Auction.sol\":3951:3962  return true */\n      swap2\n      pop\n      pop\n        /* \"Auction.sol\":3160:3969  function withdraw() external returns (bool) {... */\n    tag_67:\n      swap1\n      jump\t// out\n        /* \"Auction.sol\":270:299  uint256 public auctionEndTime */\n    tag_36:\n      sload(0x01)\n      dup2\n      jump\t// out\n        /* \"Auction.sol\":373:401  address public highestBidder */\n    tag_40:\n      0x03\n      0x00\n      swap1\n      sload\n      swap1\n      0x0100\n      exp\n      swap1\n      div\n      0xffffffffffffffffffffffffffffffffffffffff\n      and\n      dup2\n      jump\t// out\n        /* \"Auction.sol\":305:330  string public auctionName */\n    tag_45:\n      0x02\n      dup1\n      sload\n      tag_71\n      swap1\n      tag_72\n      jump\t// in\n    tag_71:\n      dup1\n      0x1f\n      add\n      0x20\n      dup1\n      swap2\n      div\n      mul\n      0x20\n      add\n      mload(0x40)\n      swap1\n      dup2\n      add\n      0x40\n      mstore\n      dup1\n      swap3\n      swap2\n      swap1\n      dup2\n      dup2\n      mstore\n      0x20\n      add\n      dup3\n      dup1\n      sload\n      tag_73\n      swap1\n      tag_72\n      jump\t// in\n    tag_73:\n      dup1\n      iszero\n      tag_74\n      jumpi\n      dup1\n      0x1f\n      lt\n      tag_75\n      jumpi\n      0x0100\n      dup1\n      dup4\n      sload\n      div\n      mul\n      dup4\n      mstore\n      swap2\n      0x20\n      add\n      swap2\n      jump(tag_74)\n    tag_75:\n      dup3\n      add\n      swap2\n      swap1\n      0x00\n      mstore\n      keccak256(0x00, 0x20)\n      swap1\n    tag_76:\n      dup2\n      sload\n      dup2\n      mstore\n      swap1\n      0x01\n      add\n      swap1\n      0x20\n      add\n      dup1\n      dup4\n      gt\n      tag_76\n      jumpi\n      dup3\n      swap1\n      sub\n      0x1f\n      and\n      dup3\n      add\n      swap2\n    tag_74:\n      pop\n      pop\n      pop\n      pop\n      pop\n      dup2\n      jump\t// out\n        /* \"Auction.sol\":407:432  uint256 public highestBid */\n    tag_50:\n      sload(0x04)\n      dup2\n      jump\t// out\n        /* \"#utility.yul\":88:205   */\n    tag_78:\n        /* \"#utility.yul\":197:198   */\n      0x00\n        /* \"#utility.yul\":194:195   */\n      dup1\n        /* \"#utility.yul\":187:199   */\n      revert\n        /* \"#utility.yul\":334:460   */\n    tag_80:\n        /* \"#utility.yul\":371:378   */\n      0x00\n        /* \"#utility.yul\":411:453   */\n      0xffffffffffffffffffffffffffffffffffffffff\n        /* \"#utility.yul\":404:409   */\n      dup3\n        /* \"#utility.yul\":400:454   */\n      and\n        /* \"#utility.yul\":389:454   */\n      swap1\n      pop\n        /* \"#utility.yul\":334:460   */\n      swap2\n      swap1\n      pop\n      jump\t// out\n        /* \"#utility.yul\":466:562   */\n    tag_81:\n        /* \"#utility.yul\":503:510   */\n      0x00\n        /* \"#utility.yul\":532:556   */\n      tag_104\n        /* \"#utility.yul\":550:555   */\n      dup3\n        /* \"#utility.yul\":532:556   */\n      tag_80\n      jump\t// in\n    tag_104:\n        /* \"#utility.yul\":521:556   */\n      swap1\n      pop\n        /* \"#utility.yul\":466:562   */\n      swap2\n      swap1\n      pop\n      jump\t// out\n        /* \"#utility.yul\":568:690   */\n    tag_82:\n        /* \"#utility.yul\":641:665   */\n      tag_106\n        /* \"#utility.yul\":659:664   */\n      dup2\n        /* \"#utility.yul\":641:665   */\n      tag_81\n      jump\t// in\n    tag_106:\n        /* \"#utility.yul\":634:639   */\n      dup2\n        /* \"#utility.yul\":631:666   */\n      eq\n        /* \"#utility.yul\":621:684   */\n      tag_107\n      jumpi\n        /* \"#utility.yul\":680:681   */\n      0x00\n        /* \"#utility.yul\":677:678   */\n      dup1\n        /* \"#utility.yul\":670:682   */\n      revert\n        /* \"#utility.yul\":621:684   */\n    tag_107:\n        /* \"#utility.yul\":568:690   */\n      pop\n      jump\t// out\n        /* \"#utility.yul\":696:835   */\n    tag_83:\n        /* \"#utility.yul\":742:747   */\n      0x00\n        /* \"#utility.yul\":780:786   */\n      dup2\n        /* \"#utility.yul\":767:787   */\n      calldataload\n        /* \"#utility.yul\":758:787   */\n      swap1\n      pop\n        /* \"#utility.yul\":796:829   */\n      tag_109\n        /* \"#utility.yul\":823:828   */\n      dup2\n        /* \"#utility.yul\":796:829   */\n      tag_82\n      jump\t// in\n    tag_109:\n        /* \"#utility.yul\":696:835   */\n      swap3\n      swap2\n      pop\n      pop\n      jump\t// out\n        /* \"#utility.yul\":841:1170   */\n    tag_17:\n        /* \"#utility.yul\":900:906   */\n      0x00\n        /* \"#utility.yul\":949:951   */\n      0x20\n        /* \"#utility.yul\":937:946   */\n      dup3\n        /* \"#utility.yul\":928:935   */\n      dup5\n        /* \"#utility.yul\":924:947   */\n      sub\n        /* \"#utility.yul\":920:952   */\n      slt\n        /* \"#utility.yul\":917:1036   */\n      iszero\n      tag_111\n      jumpi\n        /* \"#utility.yul\":955:1034   */\n      tag_112\n      tag_78\n      jump\t// in\n    tag_112:\n        /* \"#utility.yul\":917:1036   */\n    tag_111:\n        /* \"#utility.yul\":1075:1076   */\n      0x00\n        /* \"#utility.yul\":1100:1153   */\n      tag_113\n        /* \"#utility.yul\":1145:1152   */\n      dup5\n        /* \"#utility.yul\":1136:1142   */\n      dup3\n        /* \"#utility.yul\":1125:1134   */\n      dup6\n        /* \"#utility.yul\":1121:1143   */\n      add\n        /* \"#utility.yul\":1100:1153   */\n      tag_83\n      jump\t// in\n    tag_113:\n        /* \"#utility.yul\":1090:1153   */\n      swap2\n      pop\n        /* \"#utility.yul\":1046:1163   */\n      pop\n        /* \"#utility.yul\":841:1170   */\n      swap3\n      swap2\n      pop\n      pop\n      jump\t// out\n        /* \"#utility.yul\":1176:1253   */\n    tag_84:\n        /* \"#utility.yul\":1213:1220   */\n      0x00\n        /* \"#utility.yul\":1242:1247   */\n      dup2\n        /* \"#utility.yul\":1231:1247   */\n      swap1\n      pop\n        /* \"#utility.yul\":1176:1253   */\n      swap2\n      swap1\n      pop\n      jump\t// out\n        /* \"#utility.yul\":1259:1377   */\n    tag_85:\n        /* \"#utility.yul\":1346:1370   */\n      tag_116\n        /* \"#utility.yul\":1364:1369   */\n      dup2\n        /* \"#utility.yul\":1346:1370   */\n      tag_84\n      jump\t// in\n    tag_116:\n        /* \"#utility.yul\":1341:1344   */\n      dup3\n        /* \"#utility.yul\":1334:1371   */\n      mstore\n        /* \"#utility.yul\":1259:1377   */\n      pop\n      pop\n      jump\t// out\n        /* \"#utility.yul\":1383:1605   */\n    tag_20:\n        /* \"#utility.yul\":1476:1480   */\n      0x00\n        /* \"#utility.yul\":1514:1516   */\n      0x20\n        /* \"#utility.yul\":1503:1512   */\n      dup3\n        /* \"#utility.yul\":1499:1517   */\n      add\n        /* \"#utility.yul\":1491:1517   */\n      swap1\n      pop\n        /* \"#utility.yul\":1527:1598   */\n      tag_118\n        /* \"#utility.yul\":1595:1596   */\n      0x00\n        /* \"#utility.yul\":1584:1593   */\n      dup4\n        /* \"#utility.yul\":1580:1597   */\n      add\n        /* \"#utility.yul\":1571:1577   */\n      dup5\n        /* \"#utility.yul\":1527:1598   */\n      tag_85\n      jump\t// in\n    tag_118:\n        /* \"#utility.yul\":1383:1605   */\n      swap3\n      swap2\n      pop\n      pop\n      jump\t// out\n        /* \"#utility.yul\":1611:1715   */\n    tag_86:\n        /* \"#utility.yul\":1656:1663   */\n      0x00\n        /* \"#utility.yul\":1685:1709   */\n      tag_120\n        /* \"#utility.yul\":1703:1708   */\n      dup3\n        /* \"#utility.yul\":1685:1709   */\n      tag_80\n      jump\t// in\n    tag_120:\n        /* \"#utility.yul\":1674:1709   */\n      swap1\n      pop\n        /* \"#utility.yul\":1611:1715   */\n      swap2\n      swap1\n      pop\n      jump\t// out\n        /* \"#utility.yul\":1721:1863   */\n    tag_87:\n        /* \"#utility.yul\":1824:1856   */\n      tag_122\n        /* \"#utility.yul\":1850:1855   */\n      dup2\n        /* \"#utility.yul\":1824:1856   */\n      tag_86\n      jump\t// in\n    tag_122:\n        /* \"#utility.yul\":1819:1822   */\n      dup3\n        /* \"#utility.yul\":1812:1857   */\n      mstore\n        /* \"#utility.yul\":1721:1863   */\n      pop\n      pop\n      jump\t// out\n        /* \"#utility.yul\":1869:2123   */\n    tag_28:\n        /* \"#utility.yul\":1978:1982   */\n      0x00\n        /* \"#utility.yul\":2016:2018   */\n      0x20\n        /* \"#utility.yul\":2005:2014   */\n      dup3\n        /* \"#utility.yul\":2001:2019   */\n      add\n        /* \"#utility.yul\":1993:2019   */\n      swap1\n      pop\n        /* \"#utility.yul\":2029:2116   */\n      tag_124\n        /* \"#utility.yul\":2113:2114   */\n      0x00\n        /* \"#utility.yul\":2102:2111   */\n      dup4\n        /* \"#utility.yul\":2098:2115   */\n      add\n        /* \"#utility.yul\":2089:2095   */\n      dup5\n        /* \"#utility.yul\":2029:2116   */\n      tag_87\n      jump\t// in\n    tag_124:\n        /* \"#utility.yul\":1869:2123   */\n      swap3\n      swap2\n      pop\n      pop\n      jump\t// out\n        /* \"#utility.yul\":2129:2219   */\n    tag_88:\n        /* \"#utility.yul\":2163:2170   */\n      0x00\n        /* \"#utility.yul\":2206:2211   */\n      dup2\n        /* \"#utility.yul\":2199:2212   */\n      iszero\n        /* \"#utility.yul\":2192:2213   */\n      iszero\n        /* \"#utility.yul\":2181:2213   */\n      swap1\n      pop\n        /* \"#utility.yul\":2129:2219   */\n      swap2\n      swap1\n      pop\n      jump\t// out\n        /* \"#utility.yul\":2225:2334   */\n    tag_89:\n        /* \"#utility.yul\":2306:2327   */\n      tag_127\n        /* \"#utility.yul\":2321:2326   */\n      dup2\n        /* \"#utility.yul\":2306:2327   */\n      tag_88\n      jump\t// in\n    tag_127:\n        /* \"#utility.yul\":2301:2304   */\n      dup3\n        /* \"#utility.yul\":2294:2328   */\n      mstore\n        /* \"#utility.yul\":2225:2334   */\n      pop\n      pop\n      jump\t// out\n        /* \"#utility.yul\":2340:2550   */\n    tag_33:\n        /* \"#utility.yul\":2427:2431   */\n      0x00\n        /* \"#utility.yul\":2465:2467   */\n      0x20\n        /* \"#utility.yul\":2454:2463   */\n      dup3\n        /* \"#utility.yul\":2450:2468   */\n      add\n        /* \"#utility.yul\":2442:2468   */\n      swap1\n      pop\n        /* \"#utility.yul\":2478:2543   */\n      tag_129\n        /* \"#utility.yul\":2540:2541   */\n      0x00\n        /* \"#utility.yul\":2529:2538   */\n      dup4\n        /* \"#utility.yul\":2525:2542   */\n      add\n        /* \"#utility.yul\":2516:2522   */\n      dup5\n        /* \"#utility.yul\":2478:2543   */\n      tag_89\n      jump\t// in\n    tag_129:\n        /* \"#utility.yul\":2340:2550   */\n      swap3\n      swap2\n      pop\n      pop\n      jump\t// out\n        /* \"#utility.yul\":2556:2674   */\n    tag_90:\n        /* \"#utility.yul\":2643:2667   */\n      tag_131\n        /* \"#utility.yul\":2661:2666   */\n      dup2\n        /* \"#utility.yul\":2643:2667   */\n      tag_81\n      jump\t// in\n    tag_131:\n        /* \"#utility.yul\":2638:2641   */\n      dup3\n        /* \"#utility.yul\":2631:2668   */\n      mstore\n        /* \"#utility.yul\":2556:2674   */\n      pop\n      pop\n      jump\t// out\n        /* \"#utility.yul\":2680:2902   */\n    tag_42:\n        /* \"#utility.yul\":2773:2777   */\n      0x00\n        /* \"#utility.yul\":2811:2813   */\n      0x20\n        /* \"#utility.yul\":2800:2809   */\n      dup3\n        /* \"#utility.yul\":2796:2814   */\n      add\n        /* \"#utility.yul\":2788:2814   */\n      swap1\n      pop\n        /* \"#utility.yul\":2824:2895   */\n      tag_133\n        /* \"#utility.yul\":2892:2893   */\n      0x00\n        /* \"#utility.yul\":2881:2890   */\n      dup4\n        /* \"#utility.yul\":2877:2894   */\n      add\n        /* \"#utility.yul\":2868:2874   */\n      dup5\n        /* \"#utility.yul\":2824:2895   */\n      tag_90\n      jump\t// in\n    tag_133:\n        /* \"#utility.yul\":2680:2902   */\n      swap3\n      swap2\n      pop\n      pop\n      jump\t// out\n        /* \"#utility.yul\":2908:3007   */\n    tag_91:\n        /* \"#utility.yul\":2960:2966   */\n      0x00\n        /* \"#utility.yul\":2994:2999   */\n      dup2\n        /* \"#utility.yul\":2988:3000   */\n      mload\n        /* \"#utility.yul\":2978:3000   */\n      swap1\n      pop\n        /* \"#utility.yul\":2908:3007   */\n      swap2\n      swap1\n      pop\n      jump\t// out\n        /* \"#utility.yul\":3013:3182   */\n    tag_92:\n        /* \"#utility.yul\":3097:3108   */\n      0x00\n        /* \"#utility.yul\":3131:3137   */\n      dup3\n        /* \"#utility.yul\":3126:3129   */\n      dup3\n        /* \"#utility.yul\":3119:3138   */\n      mstore\n        /* \"#utility.yul\":3171:3175   */\n      0x20\n        /* \"#utility.yul\":3166:3169   */\n      dup3\n        /* \"#utility.yul\":3162:3176   */\n      add\n        /* \"#utility.yul\":3147:3176   */\n      swap1\n      pop\n        /* \"#utility.yul\":3013:3182   */\n      swap3\n      swap2\n      pop\n      pop\n      jump\t// out\n        /* \"#utility.yul\":3188:3434   */\n    tag_93:\n        /* \"#utility.yul\":3269:3270   */\n      0x00\n        /* \"#utility.yul\":3279:3392   */\n    tag_137:\n        /* \"#utility.yul\":3293:3299   */\n      dup4\n        /* \"#utility.yul\":3290:3291   */\n      dup2\n        /* \"#utility.yul\":3287:3300   */\n      lt\n        /* \"#utility.yul\":3279:3392   */\n      iszero\n      tag_139\n      jumpi\n        /* \"#utility.yul\":3378:3379   */\n      dup1\n        /* \"#utility.yul\":3373:3376   */\n      dup3\n        /* \"#utility.yul\":3369:3380   */\n      add\n        /* \"#utility.yul\":3363:3381   */\n      mload\n        /* \"#utility.yul\":3359:3360   */\n      dup2\n        /* \"#utility.yul\":3354:3357   */\n      dup5\n        /* \"#utility.yul\":3350:3361   */\n      add\n        /* \"#utility.yul\":3343:3382   */\n      mstore\n        /* \"#utility.yul\":3315:3317   */\n      0x20\n        /* \"#utility.yul\":3312:3313   */\n      dup2\n        /* \"#utility.yul\":3308:3318   */\n      add\n        /* \"#utility.yul\":3303:3318   */\n      swap1\n      pop\n        /* \"#utility.yul\":3279:3392   */\n      jump(tag_137)\n    tag_139:\n        /* \"#utility.yul\":3426:3427   */\n      0x00\n        /* \"#utility.yul\":3417:3423   */\n      dup5\n        /* \"#utility.yul\":3412:3415   */\n      dup5\n        /* \"#utility.yul\":3408:3424   */\n      add\n        /* \"#utility.yul\":3401:3428   */\n      mstore\n        /* \"#utility.yul\":3250:3434   */\n      pop\n        /* \"#utility.yul\":3188:3434   */\n      pop\n      pop\n      pop\n      jump\t// out\n        /* \"#utility.yul\":3440:3542   */\n    tag_94:\n        /* \"#utility.yul\":3481:3487   */\n      0x00\n        /* \"#utility.yul\":3532:3534   */\n      0x1f\n        /* \"#utility.yul\":3528:3535   */\n      not\n        /* \"#utility.yul\":3523:3525   */\n      0x1f\n        /* \"#utility.yul\":3516:3521   */\n      dup4\n        /* \"#utility.yul\":3512:3526   */\n      add\n        /* \"#utility.yul\":3508:3536   */\n      and\n        /* \"#utility.yul\":3498:3536   */\n      swap1\n      pop\n        /* \"#utility.yul\":3440:3542   */\n      swap2\n      swap1\n      pop\n      jump\t// out\n        /* \"#utility.yul\":3548:3925   */\n    tag_95:\n        /* \"#utility.yul\":3636:3639   */\n      0x00\n        /* \"#utility.yul\":3664:3703   */\n      tag_142\n        /* \"#utility.yul\":3697:3702   */\n      dup3\n        /* \"#utility.yul\":3664:3703   */\n      tag_91\n      jump\t// in\n    tag_142:\n        /* \"#utility.yul\":3719:3790   */\n      tag_143\n        /* \"#utility.yul\":3783:3789   */\n      dup2\n        /* \"#utility.yul\":3778:3781   */\n      dup6\n        /* \"#utility.yul\":3719:3790   */\n      tag_92\n      jump\t// in\n    tag_143:\n        /* \"#utility.yul\":3712:3790   */\n      swap4\n      pop\n        /* \"#utility.yul\":3799:3864   */\n      tag_144\n        /* \"#utility.yul\":3857:3863   */\n      dup2\n        /* \"#utility.yul\":3852:3855   */\n      dup6\n        /* \"#utility.yul\":3845:3849   */\n      0x20\n        /* \"#utility.yul\":3838:3843   */\n      dup7\n        /* \"#utility.yul\":3834:3850   */\n      add\n        /* \"#utility.yul\":3799:3864   */\n      tag_93\n      jump\t// in\n    tag_144:\n        /* \"#utility.yul\":3889:3918   */\n      tag_145\n        /* \"#utility.yul\":3911:3917   */\n      dup2\n        /* \"#utility.yul\":3889:3918   */\n      tag_94\n      jump\t// in\n    tag_145:\n        /* \"#utility.yul\":3884:3887   */\n      dup5\n        /* \"#utility.yul\":3880:3919   */\n      add\n        /* \"#utility.yul\":3873:3919   */\n      swap2\n      pop\n        /* \"#utility.yul\":3640:3925   */\n      pop\n        /* \"#utility.yul\":3548:3925   */\n      swap3\n      swap2\n      pop\n      pop\n      jump\t// out\n        /* \"#utility.yul\":3931:4244   */\n    tag_47:\n        /* \"#utility.yul\":4044:4048   */\n      0x00\n        /* \"#utility.yul\":4082:4084   */\n      0x20\n        /* \"#utility.yul\":4071:4080   */\n      dup3\n        /* \"#utility.yul\":4067:4085   */\n      add\n        /* \"#utility.yul\":4059:4085   */\n      swap1\n      pop\n        /* \"#utility.yul\":4131:4140   */\n      dup2\n        /* \"#utility.yul\":4125:4129   */\n      dup2\n        /* \"#utility.yul\":4121:4141   */\n      sub\n        /* \"#utility.yul\":4117:4118   */\n      0x00\n        /* \"#utility.yul\":4106:4115   */\n      dup4\n        /* \"#utility.yul\":4102:4119   */\n      add\n        /* \"#utility.yul\":4095:4142   */\n      mstore\n        /* \"#utility.yul\":4159:4237   */\n      tag_147\n        /* \"#utility.yul\":4232:4236   */\n      dup2\n        /* \"#utility.yul\":4223:4229   */\n      dup5\n        /* \"#utility.yul\":4159:4237   */\n      tag_95\n      jump\t// in\n    tag_147:\n        /* \"#utility.yul\":4151:4237   */\n      swap1\n      pop\n        /* \"#utility.yul\":3931:4244   */\n      swap3\n      swap2\n      pop\n      pop\n      jump\t// out\n        /* \"#utility.yul\":4250:4430   */\n    tag_96:\n        /* \"#utility.yul\":4298:4375   */\n      0x4e487b7100000000000000000000000000000000000000000000000000000000\n        /* \"#utility.yul\":4295:4296   */\n      0x00\n        /* \"#utility.yul\":4288:4376   */\n      mstore\n        /* \"#utility.yul\":4395:4399   */\n      0x11\n        /* \"#utility.yul\":4392:4393   */\n      0x04\n        /* \"#utility.yul\":4385:4400   */\n      mstore\n        /* \"#utility.yul\":4419:4423   */\n      0x24\n        /* \"#utility.yul\":4416:4417   */\n      0x00\n        /* \"#utility.yul\":4409:4424   */\n      revert\n        /* \"#utility.yul\":4436:4627   */\n    tag_58:\n        /* \"#utility.yul\":4476:4479   */\n      0x00\n        /* \"#utility.yul\":4495:4515   */\n      tag_150\n        /* \"#utility.yul\":4513:4514   */\n      dup3\n        /* \"#utility.yul\":4495:4515   */\n      tag_84\n      jump\t// in\n    tag_150:\n        /* \"#utility.yul\":4490:4515   */\n      swap2\n      pop\n        /* \"#utility.yul\":4529:4549   */\n      tag_151\n        /* \"#utility.yul\":4547:4548   */\n      dup4\n        /* \"#utility.yul\":4529:4549   */\n      tag_84\n      jump\t// in\n    tag_151:\n        /* \"#utility.yul\":4524:4549   */\n      swap3\n      pop\n        /* \"#utility.yul\":4572:4573   */\n      dup3\n        /* \"#utility.yul\":4569:4570   */\n      dup3\n        /* \"#utility.yul\":4565:4574   */\n      add\n        /* \"#utility.yul\":4558:4574   */\n      swap1\n      pop\n        /* \"#utility.yul\":4593:4596   */\n      dup1\n        /* \"#utility.yul\":4590:4591   */\n      dup3\n        /* \"#utility.yul\":4587:4597   */\n      gt\n        /* \"#utility.yul\":4584:4620   */\n      iszero\n      tag_152\n      jumpi\n        /* \"#utility.yul\":4600:4618   */\n      tag_153\n      tag_96\n      jump\t// in\n    tag_153:\n        /* \"#utility.yul\":4584:4620   */\n    tag_152:\n        /* \"#utility.yul\":4436:4627   */\n      swap3\n      swap2\n      pop\n      pop\n      jump\t// out\n        /* \"#utility.yul\":4633:4965   */\n    tag_60:\n        /* \"#utility.yul\":4754:4758   */\n      0x00\n        /* \"#utility.yul\":4792:4794   */\n      0x40\n        /* \"#utility.yul\":4781:4790   */\n      dup3\n        /* \"#utility.yul\":4777:4795   */\n      add\n        /* \"#utility.yul\":4769:4795   */\n      swap1\n      pop\n        /* \"#utility.yul\":4805:4876   */\n      tag_155\n        /* \"#utility.yul\":4873:4874   */\n      0x00\n        /* \"#utility.yul\":4862:4871   */\n      dup4\n        /* \"#utility.yul\":4858:4875   */\n      add\n        /* \"#utility.yul\":4849:4855   */\n      dup6\n        /* \"#utility.yul\":4805:4876   */\n      tag_90\n      jump\t// in\n    tag_155:\n        /* \"#utility.yul\":4886:4958   */\n      tag_156\n        /* \"#utility.yul\":4954:4956   */\n      0x20\n        /* \"#utility.yul\":4943:4952   */\n      dup4\n        /* \"#utility.yul\":4939:4957   */\n      add\n        /* \"#utility.yul\":4930:4936   */\n      dup5\n        /* \"#utility.yul\":4886:4958   */\n      tag_85\n      jump\t// in\n    tag_156:\n        /* \"#utility.yul\":4633:4965   */\n      swap4\n      swap3\n      pop\n      pop\n      pop\n      jump\t// out\n        /* \"#utility.yul\":4971:5151   */\n    tag_97:\n        /* \"#utility.yul\":5019:5096   */\n      0x4e487b7100000000000000000000000000000000000000000000000000000000\n        /* \"#utility.yul\":5016:5017   */\n      0x00\n        /* \"#utility.yul\":5009:5097   */\n      mstore\n        /* \"#utility.yul\":5116:5120   */\n      0x22\n        /* \"#utility.yul\":5113:5114   */\n      0x04\n        /* \"#utility.yul\":5106:5121   */\n      mstore\n        /* \"#utility.yul\":5140:5144   */\n      0x24\n        /* \"#utility.yul\":5137:5138   */\n      0x00\n        /* \"#utility.yul\":5130:5145   */\n      revert\n        /* \"#utility.yul\":5157:5477   */\n    tag_72:\n        /* \"#utility.yul\":5201:5207   */\n      0x00\n        /* \"#utility.yul\":5238:5239   */\n      0x02\n        /* \"#utility.yul\":5232:5236   */\n      dup3\n        /* \"#utility.yul\":5228:5240   */\n      div\n        /* \"#utility.yul\":5218:5240   */\n      swap1\n      pop\n        /* \"#utility.yul\":5285:5286   */\n      0x01\n        /* \"#utility.yul\":5279:5283   */\n      dup3\n        /* \"#utility.yul\":5275:5287   */\n      and\n        /* \"#utility.yul\":5306:5324   */\n      dup1\n        /* \"#utility.yul\":5296:5377   */\n      tag_159\n      jumpi\n        /* \"#utility.yul\":5362:5366   */\n      0x7f\n        /* \"#utility.yul\":5354:5360   */\n      dup3\n        /* \"#utility.yul\":5350:5367   */\n      and\n        /* \"#utility.yul\":5340:5367   */\n      swap2\n      pop\n        /* \"#utility.yul\":5296:5377   */\n    tag_159:\n        /* \"#utility.yul\":5424:5426   */\n      0x20\n        /* \"#utility.yul\":5416:5422   */\n      dup3\n        /* \"#utility.yul\":5413:5427   */\n      lt\n        /* \"#utility.yul\":5393:5411   */\n      dup2\n        /* \"#utility.yul\":5390:5428   */\n      sub\n        /* \"#utility.yul\":5387:5471   */\n      tag_160\n      jumpi\n        /* \"#utility.yul\":5443:5461   */\n      tag_161\n      tag_97\n      jump\t// in\n    tag_161:\n        /* \"#utility.yul\":5387:5471   */\n    tag_160:\n        /* \"#utility.yul\":5208:5477   */\n      pop\n        /* \"#utility.yul\":5157:5477   */\n      swap2\n      swap1\n      pop\n      jump\t// out\n\n    auxdata: 0xa2646970667358221220ec943dae2b944cda940cafac304f41c7a1e4253448b984215a5b125cd1486a4b64736f6c63430008140033\n}\n","bytecode":{"linkReferences":{},"object":"608060405234801562000010575f80fd5b50604051620010a7380380620010a78339818101604052810190620000369190620002c2565b805f806101000a81548173ffffffffffffffffffffffffffffffffffffffff021916908373ffffffffffffffffffffffffffffffffffffffff160217905550816002908162000086919062000568565b50824262000095919062000679565b600181905550505050620006b3565b5f604051905090565b5f80fd5b5f80fd5b5f819050919050565b620000c981620000b5565b8114620000d4575f80fd5b50565b5f81519050620000e781620000be565b92915050565b5f80fd5b5f80fd5b5f601f19601f8301169050919050565b7f4e487b71000000000000000000000000000000000000000000000000000000005f52604160045260245ffd5b6200013d82620000f5565b810181811067ffffffffffffffff821117156200015f576200015e62000105565b5b80604052505050565b5f62000173620000a4565b905062000181828262000132565b919050565b5f67ffffffffffffffff821115620001a357620001a262000105565b5b620001ae82620000f5565b9050602081019050919050565b5f5b83811015620001da578082015181840152602081019050620001bd565b5f8484015250505050565b5f620001fb620001f58462000186565b62000168565b9050828152602081018484840111156200021a5762000219620000f1565b5b62000227848285620001bb565b509392505050565b5f82601f830112620002465762000245620000ed565b5b815162000258848260208601620001e5565b91505092915050565b5f73ffffffffffffffffffffffffffffffffffffffff82169050919050565b5f6200028c8262000261565b9050919050565b6200029e8162000280565b8114620002a9575f80fd5b50565b5f81519050620002bc8162000293565b92915050565b5f805f60608486031215620002dc57620002db620000ad565b5b5f620002eb86828701620000d7565b935050602084015167ffffffffffffffff8111156200030f576200030e620000b1565b5b6200031d868287016200022f565b92505060406200033086828701620002ac565b9150509250925092565b5f81519050919050565b7f4e487b71000000000000000000000000000000000000000000000000000000005f52602260045260245ffd5b5f60028204905060018216806200038957607f821691505b6020821081036200039f576200039e62000344565b5b50919050565b5f819050815f5260205f209050919050565b5f6020601f8301049050919050565b5f82821b905092915050565b5f60088302620004037fffffffffffffffffffffffffffffffffffffffffffffffffffffffffffffffff82620003c6565b6200040f8683620003c6565b95508019841693508086168417925050509392505050565b5f819050919050565b5f620004506200044a6200044484620000b5565b62000427565b620000b5565b9050919050565b5f819050919050565b6200046b8362000430565b620004836200047a8262000457565b848454620003d2565b825550505050565b5f90565b620004996200048b565b620004a681848462000460565b505050565b5b81811015620004cd57620004c15f826200048f565b600181019050620004ac565b5050565b601f8211156200051c57620004e681620003a5565b620004f184620003b7565b8101602085101562000501578190505b620005196200051085620003b7565b830182620004ab565b50505b505050565b5f82821c905092915050565b5f6200053e5f198460080262000521565b1980831691505092915050565b5f6200055883836200052d565b9150826002028217905092915050565b62000573826200033a565b67ffffffffffffffff8111156200058f576200058e62000105565b5b6200059b825462000371565b620005a8828285620004d1565b5f60209050601f831160018114620005de575f8415620005c9578287015190505b620005d585826200054b565b86555062000644565b601f198416620005ee86620003a5565b5f5b828110156200061757848901518255600182019150602085019450602081019050620005f0565b8683101562000637578489015162000633601f8916826200052d565b8355505b6001600288020188555050505b505050505050565b7f4e487b71000000000000000000000000000000000000000000000000000000005f52601160045260245ffd5b5f6200068582620000b5565b91506200069283620000b5565b9250828201905080821115620006ad57620006ac6200064c565b5b92915050565b6109e680620006c15f395ff3fe608060405260043610610085575f3560e01c80633ccfd60b116100585780633ccfd60b1461010f5780634b449cba1461013957806391f9015714610163578063c63d99db1461018d578063d57bde79146101b757610085565b80631998aeef1461008957806326b387bb146100935780632a24f46c146100cf57806338af3eed146100e5575b5f80fd5b6100916101e1565b005b34801561009e575f80fd5b506100b960048036038101906100b49190610732565b610367565b6040516100c69190610775565b60405180910390f35b3480156100da575f80fd5b506100e361037c565b005b3480156100f0575f80fd5b506100f96104db565b60405161010691906107ae565b60405180910390f35b34801561011a575f80fd5b506101236104fe565b60405161013091906107e1565b60405180910390f35b348015610144575f80fd5b5061014d610617565b60405161015a9190610775565b60405180910390f35b34801561016e575f80fd5b5061017761061d565b6040516101849190610809565b60405180910390f35b348015610198575f80fd5b506101a1610642565b6040516101ae91906108ac565b60405180910390f35b3480156101c2575f80fd5b506101cb6106ce565b6040516101d89190610775565b60405180910390f35b60015442111561021d576040517fd02e774d00000000000000000000000000000000000000000000000000000000815260040160405180910390fd5b6004543411610265576004546040517f4e12c1bb00000000000000000000000000000000000000000000000000000000815260040161025c9190610775565b60405180910390fd5b5f600454146102e55760045460055f60035f9054906101000a900473ffffffffffffffffffffffffffffffffffffffff1673ffffffffffffffffffffffffffffffffffffffff1673ffffffffffffffffffffffffffffffffffffffff1681526020019081526020015f205f8282546102dd91906108f9565b925050819055505b3360035f6101000a81548173ffffffffffffffffffffffffffffffffffffffff021916908373ffffffffffffffffffffffffffffffffffffffff160217905550346004819055507ff4757a49b326036464bec6fe419a4ae38c8a02ce3e68bf0809674f6aab8ad300333460405161035d92919061092c565b60405180910390a1565b6005602052805f5260405f205f915090505481565b6001544210156103b8576040517f44cee29000000000000000000000000000000000000000000000000000000000815260040160405180910390fd5b60065f9054906101000a900460ff16156103fe576040517f61cfdcf800000000000000000000000000000000000000000000000000000000815260040160405180910390fd5b600160065f6101000a81548160ff0219169083151502179055507fdaec4582d5d9595688c8c98545fdd1c696d41c6aeaeb636737e84ed2f5c00eda60035f9054906101000a900473ffffffffffffffffffffffffffffffffffffffff1660045460405161046c92919061092c565b60405180910390a15f8054906101000a900473ffffffffffffffffffffffffffffffffffffffff1673ffffffffffffffffffffffffffffffffffffffff166108fc60045490811502906040515f60405180830381858888f193505050501580156104d8573d5f803e3d5ffd5b50565b5f8054906101000a900473ffffffffffffffffffffffffffffffffffffffff1681565b5f8060055f3373ffffffffffffffffffffffffffffffffffffffff1673ffffffffffffffffffffffffffffffffffffffff1681526020019081526020015f205490505f81111561060e575f60055f3373ffffffffffffffffffffffffffffffffffffffff1673ffffffffffffffffffffffffffffffffffffffff1681526020019081526020015f20819055503373ffffffffffffffffffffffffffffffffffffffff166108fc8290811502906040515f60405180830381858888f1935050505061060d578060055f3373ffffffffffffffffffffffffffffffffffffffff1673ffffffffffffffffffffffffffffffffffffffff1681526020019081526020015f20819055505f915050610614565b5b60019150505b90565b60015481565b60035f9054906101000a900473ffffffffffffffffffffffffffffffffffffffff1681565b6002805461064f90610980565b80601f016020809104026020016040519081016040528092919081815260200182805461067b90610980565b80156106c65780601f1061069d576101008083540402835291602001916106c6565b820191905f5260205f20905b8154815290600101906020018083116106a957829003601f168201915b505050505081565b60045481565b5f80fd5b5f73ffffffffffffffffffffffffffffffffffffffff82169050919050565b5f610701826106d8565b9050919050565b610711816106f7565b811461071b575f80fd5b50565b5f8135905061072c81610708565b92915050565b5f60208284031215610747576107466106d4565b5b5f6107548482850161071e565b91505092915050565b5f819050919050565b61076f8161075d565b82525050565b5f6020820190506107885f830184610766565b92915050565b5f610798826106d8565b9050919050565b6107a88161078e565b82525050565b5f6020820190506107c15f83018461079f565b92915050565b5f8115159050919050565b6107db816107c7565b82525050565b5f6020820190506107f45f8301846107d2565b92915050565b610803816106f7565b82525050565b5f60208201905061081c5f8301846107fa565b92915050565b5f81519050919050565b5f82825260208201905092915050565b5f5b8381101561085957808201518184015260208101905061083e565b5f8484015250505050565b5f601f19601f8301169050919050565b5f61087e82610822565b610888818561082c565b935061089881856020860161083c565b6108a181610864565b840191505092915050565b5f6020820190508181035f8301526108c48184610874565b905092915050565b7f4e487b71000000000000000000000000000000000000000000000000000000005f52601160045260245ffd5b5f6109038261075d565b915061090e8361075d565b9250828201905080821115610926576109256108cc565b5b92915050565b5f60408201905061093f5f8301856107fa565b61094c6020830184610766565b9392505050565b7f4e487b71000000000000000000000000000000000000000000000000000000005f52602260045260245ffd5b5f600282049050600182168061099757607f821691505b6020821081036109aa576109a9610953565b5b5091905056fea2646970667358221220ec943dae2b944cda940cafac304f41c7a1e4253448b984215a5b125cd1486a4b64736f6c63430008140033","opcodes":"PUSH1 0x80 PUSH1 0x40 MSTORE CALLVALUE DUP1 ISZERO PUSH3 0x10 JUMPI PUSH0 DUP1 REVERT JUMPDEST POP PUSH1 0x40 MLOAD PUSH3 0x10A7 CODESIZE SUB DUP1 PUSH3 0x10A7 DUP4 CODECOPY DUP2 DUP2 ADD PUSH1 0x40 MSTORE DUP2 ADD SWAP1 PUSH3 0x36 SWAP2 SWAP1 PUSH3 0x2C2 JUMP JUMPDEST DUP1 PUSH0 DUP1 PUSH2 0x100 EXP DUP2 SLOAD DUP2 PUSH20 0xFFFFFFFFFFFFFFFFFFFFFFFFFFFFFFFFFFFFFFFF MUL NOT AND SWAP1 DUP4 PUSH20 0xFFFFFFFFFFFFFFFFFFFFFFFFFFFFFFFFFFFFFFFF AND MUL OR SWAP1 SSTORE POP DUP2 PUSH1 0x2 SWAP1 DUP2 PUSH3 0x86 SWAP2 SWAP1 PUSH3 0x568 JUMP JUMPDEST POP DUP3 TIMESTAMP PUSH3 0x95 SWAP2 SWAP1 PUSH3 0x679 JUMP JUMPDEST PUSH1 0x1 DUP2 SWAP1 SSTORE POP POP POP POP PUSH3 0x6B3 JUMP JUMPDEST PUSH0 PUSH1 0x40 MLOAD SWAP1 POP SWAP1 JUMP JUMPDEST PUSH0 DUP1 REVERT JUMPDEST PUSH0 DUP1 REVERT JUMPDEST PUSH0 DUP2 SWAP1 POP SWAP2 SWAP1 POP JUMP JUMPDEST PUSH3 0xC9 DUP2 PUSH3 0xB5 JUMP JUMPDEST DUP2 EQ PUSH3 0xD4 JUMPI PUSH0 DUP1 REVERT JUMPDEST POP JUMP JUMPDEST PUSH0 DUP2 MLOAD SWAP1 POP PUSH3 0xE7 DUP2 PUSH3 0xBE JUMP JUMPDEST SWAP3 SWAP2 POP POP JUMP JUMPDEST PUSH0 DUP1 REVERT JUMPDEST PUSH0 DUP1 REVERT JUMPDEST PUSH0 PUSH1 0x1F NOT PUSH1 0x1F DUP4 ADD AND SWAP1 POP SWAP2 SWAP1 POP JUMP JUMPDEST PUSH32 0x4E487B7100000000000000000000000000000000000000000000000000000000 PUSH0 MSTORE PUSH1 0x41 PUSH1 0x4 MSTORE PUSH1 0x24 PUSH0 REVERT JUMPDEST PUSH3 0x13D DUP3 PUSH3 0xF5 JUMP JUMPDEST DUP2 ADD DUP2 DUP2 LT PUSH8 0xFFFFFFFFFFFFFFFF DUP3 GT OR ISZERO PUSH3 0x15F JUMPI PUSH3 0x15E PUSH3 0x105 JUMP JUMPDEST JUMPDEST DUP1 PUSH1 0x40 MSTORE POP POP POP JUMP JUMPDEST PUSH0 PUSH3 0x173 PUSH3 0xA4 JUMP JUMPDEST SWAP1 POP PUSH3 0x181 DUP3 DUP3 PUSH3 0x132 JUMP JUMPDEST SWAP2 SWAP1 POP JUMP JUMPDEST PUSH0 PUSH8 0xFFFFFFFFFFFFFFFF DUP3 GT ISZERO PUSH3 0x1A3 JUMPI PUSH3 0x1A2 PUSH3 0x105 JUMP JUMPDEST JUMPDEST PUSH3 0x1AE DUP3 PUSH3 0xF5 JUMP JUMPDEST SWAP1 POP PUSH1 0x20 DUP2 ADD SWAP1 POP SWAP2 SWAP1 POP JUMP JUMPDEST PUSH0 JUMPDEST DUP4 DUP2 LT ISZERO PUSH3 0x1DA JUMPI DUP1 DUP3 ADD MLOAD DUP2 DUP5 ADD MSTORE PUSH1 0x20 DUP2 ADD SWAP1 POP PUSH3 0x1BD JUMP JUMPDEST PUSH0 DUP5 DUP5 ADD MSTORE POP POP POP POP JUMP JUMPDEST PUSH0 PUSH3 0x1FB PUSH3 0x1F5 DUP5 PUSH3 0x186 JUMP JUMPDEST PUSH3 0x168 JUMP JUMPDEST SWAP1 POP DUP3 DUP2 MSTORE PUSH1 0x20 DUP2 ADD DUP5 DUP5 DUP5 ADD GT ISZERO PUSH3 0x21A JUMPI PUSH3 0x219 PUSH3 0xF1 JUMP JUMPDEST JUMPDEST PUSH3 0x227 DUP5 DUP3 DUP6 PUSH3 0x1BB JUMP JUMPDEST POP SWAP4 SWAP3 POP POP POP JUMP JUMPDEST PUSH0 DUP3 PUSH1 0x1F DUP4 ADD SLT PUSH3 0x246 JUMPI PUSH3 0x245 PUSH3 0xED JUMP JUMPDEST JUMPDEST DUP2 MLOAD PUSH3 0x258 DUP5 DUP3 PUSH1 0x20 DUP7 ADD PUSH3 0x1E5 JUMP JUMPDEST SWAP2 POP POP SWAP3 SWAP2 POP POP JUMP JUMPDEST PUSH0 PUSH20 0xFFFFFFFFFFFFFFFFFFFFFFFFFFFFFFFFFFFFFFFF DUP3 AND SWAP1 POP SWAP2 SWAP1 POP JUMP JUMPDEST PUSH0 PUSH3 0x28C DUP3 PUSH3 0x261 JUMP JUMPDEST SWAP1 POP SWAP2 SWAP1 POP JUMP JUMPDEST PUSH3 0x29E DUP2 PUSH3 0x280 JUMP JUMPDEST DUP2 EQ PUSH3 0x2A9 JUMPI PUSH0 DUP1 REVERT JUMPDEST POP JUMP JUMPDEST PUSH0 DUP2 MLOAD SWAP1 POP PUSH3 0x2BC DUP2 PUSH3 0x293 JUMP JUMPDEST SWAP3 SWAP2 POP POP JUMP JUMPDEST PUSH0 DUP1 PUSH0 PUSH1 0x60 DUP5 DUP7 SUB SLT ISZERO PUSH3 0x2DC JUMPI PUSH3 0x2DB PUSH3 0xAD JUMP JUMPDEST JUMPDEST PUSH0 PUSH3 0x2EB DUP7 DUP3 DUP8 ADD PUSH3 0xD7 JUMP JUMPDEST SWAP4 POP POP PUSH1 0x20 DUP5 ADD MLOAD PUSH8 0xFFFFFFFFFFFFFFFF DUP2 GT ISZERO PUSH3 0x30F JUMPI PUSH3 0x30E PUSH3 0xB1 JUMP JUMPDEST JUMPDEST PUSH3 0x31D DUP7 DUP3 DUP8 ADD PUSH3 0x22F JUMP JUMPDEST SWAP3 POP POP PUSH1 0x40 PUSH3 0x330 DUP7 DUP3 DUP8 ADD PUSH3 0x2AC JUMP JUMPDEST SWAP2 POP POP SWAP3 POP SWAP3 POP SWAP3 JUMP JUMPDEST PUSH0 DUP2 MLOAD SWAP1 POP SWAP2 SWAP1 POP JUMP JUMPDEST PUSH32 0x4E487B7100000000000000000000000000000000000000000000000000000000 PUSH0 MSTORE PUSH1 0x22 PUSH1 0x4 MSTORE PUSH1 0x24 PUSH0 REVERT JUMPDEST PUSH0 PUSH1 0x2 DUP3 DIV SWAP1 POP PUSH1 0x1 DUP3 AND DUP1 PUSH3 0x389 JUMPI PUSH1 0x7F DUP3 AND SWAP2 POP JUMPDEST PUSH1 0x20 DUP3 LT DUP2 SUB PUSH3 0x39F JUMPI PUSH3 0x39E PUSH3 0x344 JUMP JUMPDEST JUMPDEST POP SWAP2 SWAP1 POP JUMP JUMPDEST PUSH0 DUP2 SWAP1 POP DUP2 PUSH0 MSTORE PUSH1 0x20 PUSH0 KECCAK256 SWAP1 POP SWAP2 SWAP1 POP JUMP JUMPDEST PUSH0 PUSH1 0x20 PUSH1 0x1F DUP4 ADD DIV SWAP1 POP SWAP2 SWAP1 POP JUMP JUMPDEST PUSH0 DUP3 DUP3 SHL SWAP1 POP SWAP3 SWAP2 POP POP JUMP JUMPDEST PUSH0 PUSH1 0x8 DUP4 MUL PUSH3 0x403 PUSH32 0xFFFFFFFFFFFFFFFFFFFFFFFFFFFFFFFFFFFFFFFFFFFFFFFFFFFFFFFFFFFFFFFF DUP3 PUSH3 0x3C6 JUMP JUMPDEST PUSH3 0x40F DUP7 DUP4 PUSH3 0x3C6 JUMP JUMPDEST SWAP6 POP DUP1 NOT DUP5 AND SWAP4 POP DUP1 DUP7 AND DUP5 OR SWAP3 POP POP POP SWAP4 SWAP3 POP POP POP JUMP JUMPDEST PUSH0 DUP2 SWAP1 POP SWAP2 SWAP1 POP JUMP JUMPDEST PUSH0 PUSH3 0x450 PUSH3 0x44A PUSH3 0x444 DUP5 PUSH3 0xB5 JUMP JUMPDEST PUSH3 0x427 JUMP JUMPDEST PUSH3 0xB5 JUMP JUMPDEST SWAP1 POP SWAP2 SWAP1 POP JUMP JUMPDEST PUSH0 DUP2 SWAP1 POP SWAP2 SWAP1 POP JUMP JUMPDEST PUSH3 0x46B DUP4 PUSH3 0x430 JUMP JUMPDEST PUSH3 0x483 PUSH3 0x47A DUP3 PUSH3 0x457 JUMP JUMPDEST DUP5 DUP5 SLOAD PUSH3 0x3D2 JUMP JUMPDEST DUP3 SSTORE POP POP POP POP JUMP JUMPDEST PUSH0 SWAP1 JUMP JUMPDEST PUSH3 0x499 PUSH3 0x48B JUMP JUMPDEST PUSH3 0x4A6 DUP2 DUP5 DUP5 PUSH3 0x460 JUMP JUMPDEST POP POP POP JUMP JUMPDEST JUMPDEST DUP2 DUP2 LT ISZERO PUSH3 0x4CD JUMPI PUSH3 0x4C1 PUSH0 DUP3 PUSH3 0x48F JUMP JUMPDEST PUSH1 0x1 DUP2 ADD SWAP1 POP PUSH3 0x4AC JUMP JUMPDEST POP POP JUMP JUMPDEST PUSH1 0x1F DUP3 GT ISZERO PUSH3 0x51C JUMPI PUSH3 0x4E6 DUP2 PUSH3 0x3A5 JUMP JUMPDEST PUSH3 0x4F1 DUP5 PUSH3 0x3B7 JUMP JUMPDEST DUP2 ADD PUSH1 0x20 DUP6 LT ISZERO PUSH3 0x501 JUMPI DUP2 SWAP1 POP JUMPDEST PUSH3 0x519 PUSH3 0x510 DUP6 PUSH3 0x3B7 JUMP JUMPDEST DUP4 ADD DUP3 PUSH3 0x4AB JUMP JUMPDEST POP POP JUMPDEST POP POP POP JUMP JUMPDEST PUSH0 DUP3 DUP3 SHR SWAP1 POP SWAP3 SWAP2 POP POP JUMP JUMPDEST PUSH0 PUSH3 0x53E PUSH0 NOT DUP5 PUSH1 0x8 MUL PUSH3 0x521 JUMP JUMPDEST NOT DUP1 DUP4 AND SWAP2 POP POP SWAP3 SWAP2 POP POP JUMP JUMPDEST PUSH0 PUSH3 0x558 DUP4 DUP4 PUSH3 0x52D JUMP JUMPDEST SWAP2 POP DUP3 PUSH1 0x2 MUL DUP3 OR SWAP1 POP SWAP3 SWAP2 POP POP JUMP JUMPDEST PUSH3 0x573 DUP3 PUSH3 0x33A JUMP JUMPDEST PUSH8 0xFFFFFFFFFFFFFFFF DUP2 GT ISZERO PUSH3 0x58F JUMPI PUSH3 0x58E PUSH3 0x105 JUMP JUMPDEST JUMPDEST PUSH3 0x59B DUP3 SLOAD PUSH3 0x371 JUMP JUMPDEST PUSH3 0x5A8 DUP3 DUP3 DUP6 PUSH3 0x4D1 JUMP JUMPDEST PUSH0 PUSH1 0x20 SWAP1 POP PUSH1 0x1F DUP4 GT PUSH1 0x1 DUP2 EQ PUSH3 0x5DE JUMPI PUSH0 DUP5 ISZERO PUSH3 0x5C9 JUMPI DUP3 DUP8 ADD MLOAD SWAP1 POP JUMPDEST PUSH3 0x5D5 DUP6 DUP3 PUSH3 0x54B JUMP JUMPDEST DUP7 SSTORE POP PUSH3 0x644 JUMP JUMPDEST PUSH1 0x1F NOT DUP5 AND PUSH3 0x5EE DUP7 PUSH3 0x3A5 JUMP JUMPDEST PUSH0 JUMPDEST DUP3 DUP2 LT ISZERO PUSH3 0x617 JUMPI DUP5 DUP10 ADD MLOAD DUP3 SSTORE PUSH1 0x1 DUP3 ADD SWAP2 POP PUSH1 0x20 DUP6 ADD SWAP5 POP PUSH1 0x20 DUP2 ADD SWAP1 POP PUSH3 0x5F0 JUMP JUMPDEST DUP7 DUP4 LT ISZERO PUSH3 0x637 JUMPI DUP5 DUP10 ADD MLOAD PUSH3 0x633 PUSH1 0x1F DUP10 AND DUP3 PUSH3 0x52D JUMP JUMPDEST DUP4 SSTORE POP JUMPDEST PUSH1 0x1 PUSH1 0x2 DUP9 MUL ADD DUP9 SSTORE POP POP POP JUMPDEST POP POP POP POP POP POP JUMP JUMPDEST PUSH32 0x4E487B7100000000000000000000000000000000000000000000000000000000 PUSH0 MSTORE PUSH1 0x11 PUSH1 0x4 MSTORE PUSH1 0x24 PUSH0 REVERT JUMPDEST PUSH0 PUSH3 0x685 DUP3 PUSH3 0xB5 JUMP JUMPDEST SWAP2 POP PUSH3 0x692 DUP4 PUSH3 0xB5 JUMP JUMPDEST SWAP3 POP DUP3 DUP3 ADD SWAP1 POP DUP1 DUP3 GT ISZERO PUSH3 0x6AD JUMPI PUSH3 0x6AC PUSH3 0x64C JUMP JUMPDEST JUMPDEST SWAP3 SWAP2 POP POP JUMP JUMPDEST PUSH2 0x9E6 DUP1 PUSH3 0x6C1 PUSH0 CODECOPY PUSH0 RETURN INVALID PUSH1 0x80 PUSH1 0x40 MSTORE PUSH1 0x4 CALLDATASIZE LT PUSH2 0x85 JUMPI PUSH0 CALLDATALOAD PUSH1 0xE0 SHR DUP1 PUSH4 0x3CCFD60B GT PUSH2 0x58 JUMPI DUP1 PUSH4 0x3CCFD60B EQ PUSH2 0x10F JUMPI DUP1 PUSH4 0x4B449CBA EQ PUSH2 0x139 JUMPI DUP1 PUSH4 0x91F90157 EQ PUSH2 0x163 JUMPI DUP1 PUSH4 0xC63D99DB EQ PUSH2 0x18D JUMPI DUP1 PUSH4 0xD57BDE79 EQ PUSH2 0x1B7 JUMPI PUSH2 0x85 JUMP JUMPDEST DUP1 PUSH4 0x1998AEEF EQ PUSH2 0x89 JUMPI DUP1 PUSH4 0x26B387BB EQ PUSH2 0x93 JUMPI DUP1 PUSH4 0x2A24F46C EQ PUSH2 0xCF JUMPI DUP1 PUSH4 0x38AF3EED EQ PUSH2 0xE5 JUMPI JUMPDEST PUSH0 DUP1 REVERT JUMPDEST PUSH2 0x91 PUSH2 0x1E1 JUMP JUMPDEST STOP JUMPDEST CALLVALUE DUP1 ISZERO PUSH2 0x9E JUMPI PUSH0 DUP1 REVERT JUMPDEST POP PUSH2 0xB9 PUSH1 0x4 DUP1 CALLDATASIZE SUB DUP2 ADD SWAP1 PUSH2 0xB4 SWAP2 SWAP1 PUSH2 0x732 JUMP JUMPDEST PUSH2 0x367 JUMP JUMPDEST PUSH1 0x40 MLOAD PUSH2 0xC6 SWAP2 SWAP1 PUSH2 0x775 JUMP JUMPDEST PUSH1 0x40 MLOAD DUP1 SWAP2 SUB SWAP1 RETURN JUMPDEST CALLVALUE DUP1 ISZERO PUSH2 0xDA JUMPI PUSH0 DUP1 REVERT JUMPDEST POP PUSH2 0xE3 PUSH2 0x37C JUMP JUMPDEST STOP JUMPDEST CALLVALUE DUP1 ISZERO PUSH2 0xF0 JUMPI PUSH0 DUP1 REVERT JUMPDEST POP PUSH2 0xF9 PUSH2 0x4DB JUMP JUMPDEST PUSH1 0x40 MLOAD PUSH2 0x106 SWAP2 SWAP1 PUSH2 0x7AE JUMP JUMPDEST PUSH1 0x40 MLOAD DUP1 SWAP2 SUB SWAP1 RETURN JUMPDEST CALLVALUE DUP1 ISZERO PUSH2 0x11A JUMPI PUSH0 DUP1 REVERT JUMPDEST POP PUSH2 0x123 PUSH2 0x4FE JUMP JUMPDEST PUSH1 0x40 MLOAD PUSH2 0x130 SWAP2 SWAP1 PUSH2 0x7E1 JUMP JUMPDEST PUSH1 0x40 MLOAD DUP1 SWAP2 SUB SWAP1 RETURN JUMPDEST CALLVALUE DUP1 ISZERO PUSH2 0x144 JUMPI PUSH0 DUP1 REVERT JUMPDEST POP PUSH2 0x14D PUSH2 0x617 JUMP JUMPDEST PUSH1 0x40 MLOAD PUSH2 0x15A SWAP2 SWAP1 PUSH2 0x775 JUMP JUMPDEST PUSH1 0x40 MLOAD DUP1 SWAP2 SUB SWAP1 RETURN JUMPDEST CALLVALUE DUP1 ISZERO PUSH2 0x16E JUMPI PUSH0 DUP1 REVERT JUMPDEST POP PUSH2 0x177 PUSH2 0x61D JUMP JUMPDEST PUSH1 0x40 MLOAD PUSH2 0x184 SWAP2 SWAP1 PUSH2 0x809 JUMP JUMPDEST PUSH1 0x40 MLOAD DUP1 SWAP2 SUB SWAP1 RETURN JUMPDEST CALLVALUE DUP1 ISZERO PUSH2 0x198 JUMPI PUSH0 DUP1 REVERT JUMPDEST POP PUSH2 0x1A1 PUSH2 0x642 JUMP JUMPDEST PUSH1 0x40 MLOAD PUSH2 0x1AE SWAP2 SWAP1 PUSH2 0x8AC JUMP JUMPDEST PUSH1 0x40 MLOAD DUP1 SWAP2 SUB SWAP1 RETURN JUMPDEST CALLVALUE DUP1 ISZERO PUSH2 0x1C2 JUMPI PUSH0 DUP1 REVERT JUMPDEST POP PUSH2 0x1CB PUSH2 0x6CE JUMP JUMPDEST PUSH1 0x40 MLOAD PUSH2 0x1D8 SWAP2 SWAP1 PUSH2 0x775 JUMP JUMPDEST PUSH1 0x40 MLOAD DUP1 SWAP2 SUB SWAP1 RETURN JUMPDEST PUSH1 0x1 SLOAD TIMESTAMP GT ISZERO PUSH2 0x21D JUMPI PUSH1 0x40 MLOAD PUSH32 0xD02E774D00000000000000000000000000000000000000000000000000000000 DUP2 MSTORE PUSH1 0x4 ADD PUSH1 0x40 MLOAD DUP1 SWAP2 SUB SWAP1 REVERT JUMPDEST PUSH1 0x4 SLOAD CALLVALUE GT PUSH2 0x265 JUMPI PUSH1 0x4 SLOAD PUSH1 0x40 MLOAD PUSH32 0x4E12C1BB00000000000000000000000000000000000000000000000000000000 DUP2 MSTORE PUSH1 0x4 ADD PUSH2 0x25C SWAP2 SWAP1 PUSH2 0x775 JUMP JUMPDEST PUSH1 0x40 MLOAD DUP1 SWAP2 SUB SWAP1 REVERT JUMPDEST PUSH0 PUSH1 0x4 SLOAD EQ PUSH2 0x2E5 JUMPI PUSH1 0x4 SLOAD PUSH1 0x5 PUSH0 PUSH1 0x3 PUSH0 SWAP1 SLOAD SWAP1 PUSH2 0x100 EXP SWAP1 DIV PUSH20 0xFFFFFFFFFFFFFFFFFFFFFFFFFFFFFFFFFFFFFFFF AND PUSH20 0xFFFFFFFFFFFFFFFFFFFFFFFFFFFFFFFFFFFFFFFF AND PUSH20 0xFFFFFFFFFFFFFFFFFFFFFFFFFFFFFFFFFFFFFFFF AND DUP2 MSTORE PUSH1 0x20 ADD SWAP1 DUP2 MSTORE PUSH1 0x20 ADD PUSH0 KECCAK256 PUSH0 DUP3 DUP3 SLOAD PUSH2 0x2DD SWAP2 SWAP1 PUSH2 0x8F9 JUMP JUMPDEST SWAP3 POP POP DUP2 SWAP1 SSTORE POP JUMPDEST CALLER PUSH1 0x3 PUSH0 PUSH2 0x100 EXP DUP2 SLOAD DUP2 PUSH20 0xFFFFFFFFFFFFFFFFFFFFFFFFFFFFFFFFFFFFFFFF MUL NOT AND SWAP1 DUP4 PUSH20 0xFFFFFFFFFFFFFFFFFFFFFFFFFFFFFFFFFFFFFFFF AND MUL OR SWAP1 SSTORE POP CALLVALUE PUSH1 0x4 DUP2 SWAP1 SSTORE POP PUSH32 0xF4757A49B326036464BEC6FE419A4AE38C8A02CE3E68BF0809674F6AAB8AD300 CALLER CALLVALUE PUSH1 0x40 MLOAD PUSH2 0x35D SWAP3 SWAP2 SWAP1 PUSH2 0x92C JUMP JUMPDEST PUSH1 0x40 MLOAD DUP1 SWAP2 SUB SWAP1 LOG1 JUMP JUMPDEST PUSH1 0x5 PUSH1 0x20 MSTORE DUP1 PUSH0 MSTORE PUSH1 0x40 PUSH0 KECCAK256 PUSH0 SWAP2 POP SWAP1 POP SLOAD DUP2 JUMP JUMPDEST PUSH1 0x1 SLOAD TIMESTAMP LT ISZERO PUSH2 0x3B8 JUMPI PUSH1 0x40 MLOAD PUSH32 0x44CEE29000000000000000000000000000000000000000000000000000000000 DUP2 MSTORE PUSH1 0x4 ADD PUSH1 0x40 MLOAD DUP1 SWAP2 SUB SWAP1 REVERT JUMPDEST PUSH1 0x6 PUSH0 SWAP1 SLOAD SWAP1 PUSH2 0x100 EXP SWAP1 DIV PUSH1 0xFF AND ISZERO PUSH2 0x3FE JUMPI PUSH1 0x40 MLOAD PUSH32 0x61CFDCF800000000000000000000000000000000000000000000000000000000 DUP2 MSTORE PUSH1 0x4 ADD PUSH1 0x40 MLOAD DUP1 SWAP2 SUB SWAP1 REVERT JUMPDEST PUSH1 0x1 PUSH1 0x6 PUSH0 PUSH2 0x100 EXP DUP2 SLOAD DUP2 PUSH1 0xFF MUL NOT AND SWAP1 DUP4 ISZERO ISZERO MUL OR SWAP1 SSTORE POP PUSH32 0xDAEC4582D5D9595688C8C98545FDD1C696D41C6AEAEB636737E84ED2F5C00EDA PUSH1 0x3 PUSH0 SWAP1 SLOAD SWAP1 PUSH2 0x100 EXP SWAP1 DIV PUSH20 0xFFFFFFFFFFFFFFFFFFFFFFFFFFFFFFFFFFFFFFFF AND PUSH1 0x4 SLOAD PUSH1 0x40 MLOAD PUSH2 0x46C SWAP3 SWAP2 SWAP1 PUSH2 0x92C JUMP JUMPDEST PUSH1 0x40 MLOAD DUP1 SWAP2 SUB SWAP1 LOG1 PUSH0 DUP1 SLOAD SWAP1 PUSH2 0x100 EXP SWAP1 DIV PUSH20 0xFFFFFFFFFFFFFFFFFFFFFFFFFFFFFFFFFFFFFFFF AND PUSH20 0xFFFFFFFFFFFFFFFFFFFFFFFFFFFFFFFFFFFFFFFF AND PUSH2 0x8FC PUSH1 0x4 SLOAD SWAP1 DUP2 ISZERO MUL SWAP1 PUSH1 0x40 MLOAD PUSH0 PUSH1 0x40 MLOAD DUP1 DUP4 SUB DUP2 DUP6 DUP9 DUP9 CALL SWAP4 POP POP POP POP ISZERO DUP1 ISZERO PUSH2 0x4D8 JUMPI RETURNDATASIZE PUSH0 DUP1 RETURNDATACOPY RETURNDATASIZE PUSH0 REVERT JUMPDEST POP JUMP JUMPDEST PUSH0 DUP1 SLOAD SWAP1 PUSH2 0x100 EXP SWAP1 DIV PUSH20 0xFFFFFFFFFFFFFFFFFFFFFFFFFFFFFFFFFFFFFFFF AND DUP2 JUMP JUMPDEST PUSH0 DUP1 PUSH1 0x5 PUSH0 CALLER PUSH20 0xFFFFFFFFFFFFFFFFFFFFFFFFFFFFFFFFFFFFFFFF AND PUSH20 0xFFFFFFFFFFFFFFFFFFFFFFFFFFFFFFFFFFFFFFFF AND DUP2 MSTORE PUSH1 0x20 ADD SWAP1 DUP2 MSTORE PUSH1 0x20 ADD PUSH0 KECCAK256 SLOAD SWAP1 POP PUSH0 DUP2 GT ISZERO PUSH2 0x60E JUMPI PUSH0 PUSH1 0x5 PUSH0 CALLER PUSH20 0xFFFFFFFFFFFFFFFFFFFFFFFFFFFFFFFFFFFFFFFF AND PUSH20 0xFFFFFFFFFFFFFFFFFFFFFFFFFFFFFFFFFFFFFFFF AND DUP2 MSTORE PUSH1 0x20 ADD SWAP1 DUP2 MSTORE PUSH1 0x20 ADD PUSH0 KECCAK256 DUP2 SWAP1 SSTORE POP CALLER PUSH20 0xFFFFFFFFFFFFFFFFFFFFFFFFFFFFFFFFFFFFFFFF AND PUSH2 0x8FC DUP3 SWAP1 DUP2 ISZERO MUL SWAP1 PUSH1 0x40 MLOAD PUSH0 PUSH1 0x40 MLOAD DUP1 DUP4 SUB DUP2 DUP6 DUP9 DUP9 CALL SWAP4 POP POP POP POP PUSH2 0x60D JUMPI DUP1 PUSH1 0x5 PUSH0 CALLER PUSH20 0xFFFFFFFFFFFFFFFFFFFFFFFFFFFFFFFFFFFFFFFF AND PUSH20 0xFFFFFFFFFFFFFFFFFFFFFFFFFFFFFFFFFFFFFFFF AND DUP2 MSTORE PUSH1 0x20 ADD SWAP1 DUP2 MSTORE PUSH1 0x20 ADD PUSH0 KECCAK256 DUP2 SWAP1 SSTORE POP PUSH0 SWAP2 POP POP PUSH2 0x614 JUMP JUMPDEST JUMPDEST PUSH1 0x1 SWAP2 POP POP JUMPDEST SWAP1 JUMP JUMPDEST PUSH1 0x1 SLOAD DUP2 JUMP JUMPDEST PUSH1 0x3 PUSH0 SWAP1 SLOAD SWAP1 PUSH2 0x100 EXP SWAP1 DIV PUSH20 0xFFFFFFFFFFFFFFFFFFFFFFFFFFFFFFFFFFFFFFFF AND DUP2 JUMP JUMPDEST PUSH1 0x2 DUP1 SLOAD PUSH2 0x64F SWAP1 PUSH2 0x980 JUMP JUMPDEST DUP1 PUSH1 0x1F ADD PUSH1 0x20 DUP1 SWAP2 DIV MUL PUSH1 0x20 ADD PUSH1 0x40 MLOAD SWAP1 DUP2 ADD PUSH1 0x40 MSTORE DUP1 SWAP3 SWAP2 SWAP1 DUP2 DUP2 MSTORE PUSH1 0x20 ADD DUP3 DUP1 SLOAD PUSH2 0x67B SWAP1 PUSH2 0x980 JUMP JUMPDEST DUP1 ISZERO PUSH2 0x6C6 JUMPI DUP1 PUSH1 0x1F LT PUSH2 0x69D JUMPI PUSH2 0x100 DUP1 DUP4 SLOAD DIV MUL DUP4 MSTORE SWAP2 PUSH1 0x20 ADD SWAP2 PUSH2 0x6C6 JUMP JUMPDEST DUP3 ADD SWAP2 SWAP1 PUSH0 MSTORE PUSH1 0x20 PUSH0 KECCAK256 SWAP1 JUMPDEST DUP2 SLOAD DUP2 MSTORE SWAP1 PUSH1 0x1 ADD SWAP1 PUSH1 0x20 ADD DUP1 DUP4 GT PUSH2 0x6A9 JUMPI DUP3 SWAP1 SUB PUSH1 0x1F AND DUP3 ADD SWAP2 JUMPDEST POP POP POP POP POP DUP2 JUMP JUMPDEST PUSH1 0x4 SLOAD DUP2 JUMP JUMPDEST PUSH0 DUP1 REVERT JUMPDEST PUSH0 PUSH20 0xFFFFFFFFFFFFFFFFFFFFFFFFFFFFFFFFFFFFFFFF DUP3 AND SWAP1 POP SWAP2 SWAP1 POP JUMP JUMPDEST PUSH0 PUSH2 0x701 DUP3 PUSH2 0x6D8 JUMP JUMPDEST SWAP1 POP SWAP2 SWAP1 POP JUMP JUMPDEST PUSH2 0x711 DUP2 PUSH2 0x6F7 JUMP JUMPDEST DUP2 EQ PUSH2 0x71B JUMPI PUSH0 DUP1 REVERT JUMPDEST POP JUMP JUMPDEST PUSH0 DUP2 CALLDATALOAD SWAP1 POP PUSH2 0x72C DUP2 PUSH2 0x708 JUMP JUMPDEST SWAP3 SWAP2 POP POP JUMP JUMPDEST PUSH0 PUSH1 0x20 DUP3 DUP5 SUB SLT ISZERO PUSH2 0x747 JUMPI PUSH2 0x746 PUSH2 0x6D4 JUMP JUMPDEST JUMPDEST PUSH0 PUSH2 0x754 DUP5 DUP3 DUP6 ADD PUSH2 0x71E JUMP JUMPDEST SWAP2 POP POP SWAP3 SWAP2 POP POP JUMP JUMPDEST PUSH0 DUP2 SWAP1 POP SWAP2 SWAP1 POP JUMP JUMPDEST PUSH2 0x76F DUP2 PUSH2 0x75D JUMP JUMPDEST DUP3 MSTORE POP POP JUMP JUMPDEST PUSH0 PUSH1 0x20 DUP3 ADD SWAP1 POP PUSH2 0x788 PUSH0 DUP4 ADD DUP5 PUSH2 0x766 JUMP JUMPDEST SWAP3 SWAP2 POP POP JUMP JUMPDEST PUSH0 PUSH2 0x798 DUP3 PUSH2 0x6D8 JUMP JUMPDEST SWAP1 POP SWAP2 SWAP1 POP JUMP JUMPDEST PUSH2 0x7A8 DUP2 PUSH2 0x78E JUMP JUMPDEST DUP3 MSTORE POP POP JUMP JUMPDEST PUSH0 PUSH1 0x20 DUP3 ADD SWAP1 POP PUSH2 0x7C1 PUSH0 DUP4 ADD DUP5 PUSH2 0x79F JUMP JUMPDEST SWAP3 SWAP2 POP POP JUMP JUMPDEST PUSH0 DUP2 ISZERO ISZERO SWAP1 POP SWAP2 SWAP1 POP JUMP JUMPDEST PUSH2 0x7DB DUP2 PUSH2 0x7C7 JUMP JUMPDEST DUP3 MSTORE POP POP JUMP JUMPDEST PUSH0 PUSH1 0x20 DUP3 ADD SWAP1 POP PUSH2 0x7F4 PUSH0 DUP4 ADD DUP5 PUSH2 0x7D2 JUMP JUMPDEST SWAP3 SWAP2 POP POP JUMP JUMPDEST PUSH2 0x803 DUP2 PUSH2 0x6F7 JUMP JUMPDEST DUP3 MSTORE POP POP JUMP JUMPDEST PUSH0 PUSH1 0x20 DUP3 ADD SWAP1 POP PUSH2 0x81C PUSH0 DUP4 ADD DUP5 PUSH2 0x7FA JUMP JUMPDEST SWAP3 SWAP2 POP POP JUMP JUMPDEST PUSH0 DUP2 MLOAD SWAP1 POP SWAP2 SWAP1 POP JUMP JUMPDEST PUSH0 DUP3 DUP3 MSTORE PUSH1 0x20 DUP3 ADD SWAP1 POP SWAP3 SWAP2 POP POP JUMP JUMPDEST PUSH0 JUMPDEST DUP4 DUP2 LT ISZERO PUSH2 0x859 JUMPI DUP1 DUP3 ADD MLOAD DUP2 DUP5 ADD MSTORE PUSH1 0x20 DUP2 ADD SWAP1 POP PUSH2 0x83E JUMP JUMPDEST PUSH0 DUP5 DUP5 ADD MSTORE POP POP POP POP JUMP JUMPDEST PUSH0 PUSH1 0x1F NOT PUSH1 0x1F DUP4 ADD AND SWAP1 POP SWAP2 SWAP1 POP JUMP JUMPDEST PUSH0 PUSH2 0x87E DUP3 PUSH2 0x822 JUMP JUMPDEST PUSH2 0x888 DUP2 DUP6 PUSH2 0x82C JUMP JUMPDEST SWAP4 POP PUSH2 0x898 DUP2 DUP6 PUSH1 0x20 DUP7 ADD PUSH2 0x83C JUMP JUMPDEST PUSH2 0x8A1 DUP2 PUSH2 0x864 JUMP JUMPDEST DUP5 ADD SWAP2 POP POP SWAP3 SWAP2 POP POP JUMP JUMPDEST PUSH0 PUSH1 0x20 DUP3 ADD SWAP1 POP DUP2 DUP2 SUB PUSH0 DUP4 ADD MSTORE PUSH2 0x8C4 DUP2 DUP5 PUSH2 0x874 JUMP JUMPDEST SWAP1 POP SWAP3 SWAP2 POP POP JUMP JUMPDEST PUSH32 0x4E487B7100000000000000000000000000000000000000000000000000000000 PUSH0 MSTORE PUSH1 0x11 PUSH1 0x4 MSTORE PUSH1 0x24 PUSH0 REVERT JUMPDEST PUSH0 PUSH2 0x903 DUP3 PUSH2 0x75D JUMP JUMPDEST SWAP2 POP PUSH2 0x90E DUP4 PUSH2 0x75D JUMP JUMPDEST SWAP3 POP DUP3 DUP3 ADD SWAP1 POP DUP1 DUP3 GT ISZERO PUSH2 0x926 JUMPI PUSH2 0x925 PUSH2 0x8CC JUMP JUMPDEST JUMPDEST SWAP3 SWAP2 POP POP JUMP JUMPDEST PUSH0 PUSH1 0x40 DUP3 ADD SWAP1 POP PUSH2 0x93F PUSH0 DUP4 ADD DUP6 PUSH2 0x7FA JUMP JUMPDEST PUSH2 0x94C PUSH1 0x20 DUP4 ADD DUP5 PUSH2 0x766 JUMP JUMPDEST SWAP4 SWAP3 POP POP POP JUMP JUMPDEST PUSH32 0x4E487B7100000000000000000000000000000000000000000000000000000000 PUSH0 MSTORE PUSH1 0x22 PUSH1 0x4 MSTORE PUSH1 0x24 PUSH0 REVERT JUMPDEST PUSH0 PUSH1 0x2 DUP3 DIV SWAP1 POP PUSH1 0x1 DUP3 AND DUP1 PUSH2 0x997 JUMPI PUSH1 0x7F DUP3 AND SWAP2 POP JUMPDEST PUSH1 0x20 DUP3 LT DUP2 SUB PUSH2 0x9AA JUMPI PUSH2 0x9A9 PUSH2 0x953 JUMP JUMPDEST JUMPDEST POP SWAP2 SWAP1 POP JUMP INVALID LOG2 PUSH5 0x6970667358 0x22 SLT KECCAK256 0xEC SWAP5 RETURNDATASIZE 0xAE 0x2B SWAP5 0x4C 0xDA SWAP5 0xC 0xAF 0xAC ADDRESS 0x4F COINBASE 0xC7 LOG1 0xE4 0x25 CALLVALUE BASEFEE 0xB9 DUP5 0x21 GAS JUMPDEST SLT 0x5C 0xD1 BASEFEE PUSH11 0x4B64736F6C634300081400 CALLER "},"gasEstimates":{"creation":{"codeDepositCost":"506800","executionCost":"infinite","totalCost":"infinite"},"external":{"auctionEnd()":"infinite","auctionEndTime()":"2447","auctionName()":"infinite","beneficiary()":"2572","bid()":"infinite","highestBid()":"2513","highestBidder()":"2552","pendingReturns(address)":"2825","withdraw()":"infinite"}},"methodIdentifiers":{"auctionEnd()":"2a24f46c","auctionEndTime()":"4b449cba","auctionName()":"c63d99db","beneficiary()":"38af3eed","bid()":"1998aeef","highestBid()":"d57bde79","highestBidder()":"91f90157","pendingReturns(address)":"26b387bb","withdraw()":"3ccfd60b"}},"storageLayout":{"storage":[{"astId":6,"contract":"Auction.sol:Auction","label":"beneficiary","offset":0,"slot":"0","type":"t_address_payable"},{"astId":8,"contract":"Auction.sol:Auction","label":"auctionEndTime","offset":0,"slot":"1","type":"t_uint256"},{"astId":10,"contract":"Auction.sol:Auction","label":"auctionName","offset":0,"slot":"2","type":"t_string_storage"},{"astId":12,"contract":"Auction.sol:Auction","label":"highestBidder","offset":0,"slot":"3","type":"t_address"},{"astId":14,"contract":"Auction.sol:Auction","label":"highestBid","offset":0,"slot":"4","type":"t_uint256"},{"astId":18,"contract":"Auction.sol:Auction","label":"pendingReturns","offset":0,"slot":"5","type":"t_mapping(t_address,t_uint256)"},{"astId":20,"contract":"Auction.sol:Auction","label":"ended","offset":0,"slot":"6","type":"t_bool"}],"types":{"t_address":{"encoding":"inplace","label":"address","numberOfBytes":"20"},"t_address_payable":{"encoding":"inplace","label":"address payable","numberOfBytes":"20"},"t_bool":{"encoding":"inplace","label":"bool","numberOfBytes":"1"},"t_mapping(t_address,t_uint256)":{"encoding":"mapping","key":"t_address","label":"mapping(address => uint256)","numberOfBytes":"32","value":"t_uint256"},"t_string_storage":{"encoding":"bytes","label":"string","numberOfBytes":"32"},"t_uint256":{"encoding":"inplace","label":"uint256","numberOfBytes":"32"}}},"userdoc":{"errors":{"AuctionAlreadyEnded()":[{"notice":"The auction has already ended."}],"AuctionEndAlreadyCalled()":[{"notice":"The function auctionEnd has already been called."}],"AuctionNotYetEnded()":[{"notice":"The auction has not ended yet."}],"BidNotHighEnough(uint256)":[{"notice":"There is already a higher or equal bid."}]},"kind":"user","methods":{"auctionEnd()":{"notice":"End the auction and send the highest bid to the beneficiary."},"bid()":{"notice":"Bid on the auction with the value sent together with this transaction. The value will only be refunded if the auction is not won."},"constructor":{"notice":"Create a simple auction with `biddingTime` seconds bidding time on behalf of the beneficiary address `beneficiaryAddress`."},"withdraw()":{"notice":"Withdraw a bid that was overbid."}},"version":1}}