{"abi":[{"inputs":[{"internalType":"address","name":"_seller","type":"address"},{"internalType":"uint256","name":"_duration","type":"uint256"},{"internalType":"string","name":"_name","type":"string"}],"stateMutability":"nonpayable","type":"constructor"},{"anonymous":false,"inputs":[{"indexed":false,"internalType":"address","name":"winner","type":"address"},{"indexed":false,"internalType":"uint256","name":"highestBid","type":"uint256"}],"name":"AuctionEnded","type":"event"},{"inputs":[],"name":"auctionEndTime","outputs":[{"internalType":"uint256","name":"","type":"uint256"}],"stateMutability":"view","type":"function"},{"inputs":[],"name":"auctionName","outputs":[{"internalType":"string","name":"","type":"string"}],"stateMutability":"view","type":"function"},{"inputs":[{"internalType":"address","name":"","type":"address"}],"name":"bids","outputs":[{"internalType":"uint256","name":"","type":"uint256"}],"stateMutability":"view","type":"function"},{"inputs":[],"name":"endAuction","outputs":[],"stateMutability":"nonpayable","type":"function"},{"inputs":[],"name":"getSellerRating","outputs":[{"internalType":"uint256","name":"","type":"uint256"}],"stateMutability":"view","type":"function"},{"inputs":[{"internalType":"address","name":"","type":"address"}],"name":"hasWithdrawn","outputs":[{"internalType":"bool","name":"","type":"bool"}],"stateMutability":"view","type":"function"},{"inputs":[],"name":"highestBid","outputs":[{"internalType":"uint256","name":"","type":"uint256"}],"stateMutability":"view","type":"function"},{"inputs":[],"name":"highestBidder","outputs":[{"internalType":"address","name":"","type":"address"}],"stateMutability":"view","type":"function"},{"inputs":[],"name":"placeBid","outputs":[],"stateMutability":"payable","type":"function"},{"inputs":[{"internalType":"uint256","name":"rating","type":"uint256"}],"name":"rateSeller","outputs":[],"stateMutability":"nonpayable","type":"function"},{"inputs":[],"name":"seller","outputs":[{"internalType":"address payable","name":"","type":"address"}],"stateMutability":"view","type":"function"},{"inputs":[],"name":"sellerRated","outputs":[{"internalType":"bool","name":"","type":"bool"}],"stateMutability":"view","type":"function"},{"inputs":[],"name":"sellerRating","outputs":[{"internalType":"uint256","name":"","type":"uint256"}],"stateMutability":"view","type":"function"},{"inputs":[],"name":"state","outputs":[{"internalType":"enum AuctionState","name":"","type":"uint8"}],"stateMutability":"view","type":"function"},{"inputs":[],"name":"withdraw","outputs":[],"stateMutability":"nonpayable","type":"function"}],"devdoc":{"kind":"dev","methods":{},"version":1},"evm":{"assembly":"    /* \"Auction.sol\":62:2806  contract Auction {... */\n  mstore(0x40, 0x80)\n    /* \"Auction.sol\":504:735  constructor(address _seller, uint256 _duration, string memory _name) {... */\n  callvalue\n  dup1\n  iszero\n  tag_1\n  jumpi\n  0x00\n  dup1\n  revert\ntag_1:\n  pop\n  mload(0x40)\n  sub(codesize, bytecodeSize)\n  dup1\n  bytecodeSize\n  dup4\n  codecopy\n  dup2\n  dup2\n  add\n  0x40\n  mstore\n  dup2\n  add\n  swap1\n  tag_2\n  swap2\n  swap1\n  tag_3\n  jump\t// in\ntag_2:\n    /* \"Auction.sol\":600:607  _seller */\n  dup3\n    /* \"Auction.sol\":583:589  seller */\n  0x00\n  dup1\n    /* \"Auction.sol\":583:608  seller = payable(_seller) */\n  0x0100\n  exp\n  dup2\n  sload\n  dup2\n  0xffffffffffffffffffffffffffffffffffffffff\n  mul\n  not\n  and\n  swap1\n  dup4\n  0xffffffffffffffffffffffffffffffffffffffff\n  and\n  mul\n  or\n  swap1\n  sstore\n  pop\n    /* \"Auction.sol\":653:662  _duration */\n  dup2\n    /* \"Auction.sol\":635:650  block.timestamp */\n  timestamp\n    /* \"Auction.sol\":635:662  block.timestamp + _duration */\n  tag_6\n  swap2\n  swap1\n  tag_7\n  jump\t// in\ntag_6:\n    /* \"Auction.sol\":618:632  auctionEndTime */\n  0x01\n    /* \"Auction.sol\":618:662  auctionEndTime = block.timestamp + _duration */\n  dup2\n  swap1\n  sstore\n  pop\n    /* \"Auction.sol\":680:699  AuctionState.Active */\n  0x00\n    /* \"Auction.sol\":672:677  state */\n  0x09\n  0x00\n    /* \"Auction.sol\":672:699  state = AuctionState.Active */\n  0x0100\n  exp\n  dup2\n  sload\n  dup2\n  0xff\n  mul\n  not\n  and\n  swap1\n  dup4\n  0x01\n  dup2\n  gt\n  iszero\n  tag_8\n  jumpi\n  tag_9\n  tag_10\n  jump\t// in\ntag_9:\ntag_8:\n  mul\n  or\n  swap1\n  sstore\n  pop\n    /* \"Auction.sol\":723:728  _name */\n  dup1\n    /* \"Auction.sol\":709:720  auctionName */\n  0x04\n    /* \"Auction.sol\":709:728  auctionName = _name */\n  swap1\n  dup2\n  tag_11\n  swap2\n  swap1\n  tag_12\n  jump\t// in\ntag_11:\n  pop\n    /* \"Auction.sol\":504:735  constructor(address _seller, uint256 _duration, string memory _name) {... */\n  pop\n  pop\n  pop\n    /* \"Auction.sol\":62:2806  contract Auction {... */\n  jump(tag_13)\n    /* \"#utility.yul\":7:82   */\ntag_14:\n    /* \"#utility.yul\":40:46   */\n  0x00\n    /* \"#utility.yul\":73:75   */\n  0x40\n    /* \"#utility.yul\":67:76   */\n  mload\n    /* \"#utility.yul\":57:76   */\n  swap1\n  pop\n    /* \"#utility.yul\":7:82   */\n  swap1\n  jump\t// out\n    /* \"#utility.yul\":88:205   */\ntag_15:\n    /* \"#utility.yul\":197:198   */\n  0x00\n    /* \"#utility.yul\":194:195   */\n  dup1\n    /* \"#utility.yul\":187:199   */\n  revert\n    /* \"#utility.yul\":211:328   */\ntag_16:\n    /* \"#utility.yul\":320:321   */\n  0x00\n    /* \"#utility.yul\":317:318   */\n  dup1\n    /* \"#utility.yul\":310:322   */\n  revert\n    /* \"#utility.yul\":334:460   */\ntag_17:\n    /* \"#utility.yul\":371:378   */\n  0x00\n    /* \"#utility.yul\":411:453   */\n  0xffffffffffffffffffffffffffffffffffffffff\n    /* \"#utility.yul\":404:409   */\n  dup3\n    /* \"#utility.yul\":400:454   */\n  and\n    /* \"#utility.yul\":389:454   */\n  swap1\n  pop\n    /* \"#utility.yul\":334:460   */\n  swap2\n  swap1\n  pop\n  jump\t// out\n    /* \"#utility.yul\":466:562   */\ntag_18:\n    /* \"#utility.yul\":503:510   */\n  0x00\n    /* \"#utility.yul\":532:556   */\n  tag_59\n    /* \"#utility.yul\":550:555   */\n  dup3\n    /* \"#utility.yul\":532:556   */\n  tag_17\n  jump\t// in\ntag_59:\n    /* \"#utility.yul\":521:556   */\n  swap1\n  pop\n    /* \"#utility.yul\":466:562   */\n  swap2\n  swap1\n  pop\n  jump\t// out\n    /* \"#utility.yul\":568:690   */\ntag_19:\n    /* \"#utility.yul\":641:665   */\n  tag_61\n    /* \"#utility.yul\":659:664   */\n  dup2\n    /* \"#utility.yul\":641:665   */\n  tag_18\n  jump\t// in\ntag_61:\n    /* \"#utility.yul\":634:639   */\n  dup2\n    /* \"#utility.yul\":631:666   */\n  eq\n    /* \"#utility.yul\":621:684   */\n  tag_62\n  jumpi\n    /* \"#utility.yul\":680:681   */\n  0x00\n    /* \"#utility.yul\":677:678   */\n  dup1\n    /* \"#utility.yul\":670:682   */\n  revert\n    /* \"#utility.yul\":621:684   */\ntag_62:\n    /* \"#utility.yul\":568:690   */\n  pop\n  jump\t// out\n    /* \"#utility.yul\":696:839   */\ntag_20:\n    /* \"#utility.yul\":753:758   */\n  0x00\n    /* \"#utility.yul\":784:790   */\n  dup2\n    /* \"#utility.yul\":778:791   */\n  mload\n    /* \"#utility.yul\":769:791   */\n  swap1\n  pop\n    /* \"#utility.yul\":800:833   */\n  tag_64\n    /* \"#utility.yul\":827:832   */\n  dup2\n    /* \"#utility.yul\":800:833   */\n  tag_19\n  jump\t// in\ntag_64:\n    /* \"#utility.yul\":696:839   */\n  swap3\n  swap2\n  pop\n  pop\n  jump\t// out\n    /* \"#utility.yul\":845:922   */\ntag_21:\n    /* \"#utility.yul\":882:889   */\n  0x00\n    /* \"#utility.yul\":911:916   */\n  dup2\n    /* \"#utility.yul\":900:916   */\n  swap1\n  pop\n    /* \"#utility.yul\":845:922   */\n  swap2\n  swap1\n  pop\n  jump\t// out\n    /* \"#utility.yul\":928:1050   */\ntag_22:\n    /* \"#utility.yul\":1001:1025   */\n  tag_67\n    /* \"#utility.yul\":1019:1024   */\n  dup2\n    /* \"#utility.yul\":1001:1025   */\n  tag_21\n  jump\t// in\ntag_67:\n    /* \"#utility.yul\":994:999   */\n  dup2\n    /* \"#utility.yul\":991:1026   */\n  eq\n    /* \"#utility.yul\":981:1044   */\n  tag_68\n  jumpi\n    /* \"#utility.yul\":1040:1041   */\n  0x00\n    /* \"#utility.yul\":1037:1038   */\n  dup1\n    /* \"#utility.yul\":1030:1042   */\n  revert\n    /* \"#utility.yul\":981:1044   */\ntag_68:\n    /* \"#utility.yul\":928:1050   */\n  pop\n  jump\t// out\n    /* \"#utility.yul\":1056:1199   */\ntag_23:\n    /* \"#utility.yul\":1113:1118   */\n  0x00\n    /* \"#utility.yul\":1144:1150   */\n  dup2\n    /* \"#utility.yul\":1138:1151   */\n  mload\n    /* \"#utility.yul\":1129:1151   */\n  swap1\n  pop\n    /* \"#utility.yul\":1160:1193   */\n  tag_70\n    /* \"#utility.yul\":1187:1192   */\n  dup2\n    /* \"#utility.yul\":1160:1193   */\n  tag_22\n  jump\t// in\ntag_70:\n    /* \"#utility.yul\":1056:1199   */\n  swap3\n  swap2\n  pop\n  pop\n  jump\t// out\n    /* \"#utility.yul\":1205:1322   */\ntag_24:\n    /* \"#utility.yul\":1314:1315   */\n  0x00\n    /* \"#utility.yul\":1311:1312   */\n  dup1\n    /* \"#utility.yul\":1304:1316   */\n  revert\n    /* \"#utility.yul\":1328:1445   */\ntag_25:\n    /* \"#utility.yul\":1437:1438   */\n  0x00\n    /* \"#utility.yul\":1434:1435   */\n  dup1\n    /* \"#utility.yul\":1427:1439   */\n  revert\n    /* \"#utility.yul\":1451:1553   */\ntag_26:\n    /* \"#utility.yul\":1492:1498   */\n  0x00\n    /* \"#utility.yul\":1543:1545   */\n  0x1f\n    /* \"#utility.yul\":1539:1546   */\n  not\n    /* \"#utility.yul\":1534:1536   */\n  0x1f\n    /* \"#utility.yul\":1527:1532   */\n  dup4\n    /* \"#utility.yul\":1523:1537   */\n  add\n    /* \"#utility.yul\":1519:1547   */\n  and\n    /* \"#utility.yul\":1509:1547   */\n  swap1\n  pop\n    /* \"#utility.yul\":1451:1553   */\n  swap2\n  swap1\n  pop\n  jump\t// out\n    /* \"#utility.yul\":1559:1739   */\ntag_27:\n    /* \"#utility.yul\":1607:1684   */\n  0x4e487b7100000000000000000000000000000000000000000000000000000000\n    /* \"#utility.yul\":1604:1605   */\n  0x00\n    /* \"#utility.yul\":1597:1685   */\n  mstore\n    /* \"#utility.yul\":1704:1708   */\n  0x41\n    /* \"#utility.yul\":1701:1702   */\n  0x04\n    /* \"#utility.yul\":1694:1709   */\n  mstore\n    /* \"#utility.yul\":1728:1732   */\n  0x24\n    /* \"#utility.yul\":1725:1726   */\n  0x00\n    /* \"#utility.yul\":1718:1733   */\n  revert\n    /* \"#utility.yul\":1745:2026   */\ntag_28:\n    /* \"#utility.yul\":1828:1855   */\n  tag_76\n    /* \"#utility.yul\":1850:1854   */\n  dup3\n    /* \"#utility.yul\":1828:1855   */\n  tag_26\n  jump\t// in\ntag_76:\n    /* \"#utility.yul\":1820:1826   */\n  dup2\n    /* \"#utility.yul\":1816:1856   */\n  add\n    /* \"#utility.yul\":1958:1964   */\n  dup2\n    /* \"#utility.yul\":1946:1956   */\n  dup2\n    /* \"#utility.yul\":1943:1965   */\n  lt\n    /* \"#utility.yul\":1922:1940   */\n  0xffffffffffffffff\n    /* \"#utility.yul\":1910:1920   */\n  dup3\n    /* \"#utility.yul\":1907:1941   */\n  gt\n    /* \"#utility.yul\":1904:1966   */\n  or\n    /* \"#utility.yul\":1901:1989   */\n  iszero\n  tag_77\n  jumpi\n    /* \"#utility.yul\":1969:1987   */\n  tag_78\n  tag_27\n  jump\t// in\ntag_78:\n    /* \"#utility.yul\":1901:1989   */\ntag_77:\n    /* \"#utility.yul\":2009:2019   */\n  dup1\n    /* \"#utility.yul\":2005:2007   */\n  0x40\n    /* \"#utility.yul\":1998:2020   */\n  mstore\n    /* \"#utility.yul\":1788:2026   */\n  pop\n    /* \"#utility.yul\":1745:2026   */\n  pop\n  pop\n  jump\t// out\n    /* \"#utility.yul\":2032:2161   */\ntag_29:\n    /* \"#utility.yul\":2066:2072   */\n  0x00\n    /* \"#utility.yul\":2093:2113   */\n  tag_80\n  tag_14\n  jump\t// in\ntag_80:\n    /* \"#utility.yul\":2083:2113   */\n  swap1\n  pop\n    /* \"#utility.yul\":2122:2155   */\n  tag_81\n    /* \"#utility.yul\":2150:2154   */\n  dup3\n    /* \"#utility.yul\":2142:2148   */\n  dup3\n    /* \"#utility.yul\":2122:2155   */\n  tag_28\n  jump\t// in\ntag_81:\n    /* \"#utility.yul\":2032:2161   */\n  swap2\n  swap1\n  pop\n  jump\t// out\n    /* \"#utility.yul\":2167:2475   */\ntag_30:\n    /* \"#utility.yul\":2229:2233   */\n  0x00\n    /* \"#utility.yul\":2319:2337   */\n  0xffffffffffffffff\n    /* \"#utility.yul\":2311:2317   */\n  dup3\n    /* \"#utility.yul\":2308:2338   */\n  gt\n    /* \"#utility.yul\":2305:2361   */\n  iszero\n  tag_83\n  jumpi\n    /* \"#utility.yul\":2341:2359   */\n  tag_84\n  tag_27\n  jump\t// in\ntag_84:\n    /* \"#utility.yul\":2305:2361   */\ntag_83:\n    /* \"#utility.yul\":2379:2408   */\n  tag_85\n    /* \"#utility.yul\":2401:2407   */\n  dup3\n    /* \"#utility.yul\":2379:2408   */\n  tag_26\n  jump\t// in\ntag_85:\n    /* \"#utility.yul\":2371:2408   */\n  swap1\n  pop\n    /* \"#utility.yul\":2463:2467   */\n  0x20\n    /* \"#utility.yul\":2457:2461   */\n  dup2\n    /* \"#utility.yul\":2453:2468   */\n  add\n    /* \"#utility.yul\":2445:2468   */\n  swap1\n  pop\n    /* \"#utility.yul\":2167:2475   */\n  swap2\n  swap1\n  pop\n  jump\t// out\n    /* \"#utility.yul\":2481:2727   */\ntag_31:\n    /* \"#utility.yul\":2562:2563   */\n  0x00\n    /* \"#utility.yul\":2572:2685   */\ntag_87:\n    /* \"#utility.yul\":2586:2592   */\n  dup4\n    /* \"#utility.yul\":2583:2584   */\n  dup2\n    /* \"#utility.yul\":2580:2593   */\n  lt\n    /* \"#utility.yul\":2572:2685   */\n  iszero\n  tag_89\n  jumpi\n    /* \"#utility.yul\":2671:2672   */\n  dup1\n    /* \"#utility.yul\":2666:2669   */\n  dup3\n    /* \"#utility.yul\":2662:2673   */\n  add\n    /* \"#utility.yul\":2656:2674   */\n  mload\n    /* \"#utility.yul\":2652:2653   */\n  dup2\n    /* \"#utility.yul\":2647:2650   */\n  dup5\n    /* \"#utility.yul\":2643:2654   */\n  add\n    /* \"#utility.yul\":2636:2675   */\n  mstore\n    /* \"#utility.yul\":2608:2610   */\n  0x20\n    /* \"#utility.yul\":2605:2606   */\n  dup2\n    /* \"#utility.yul\":2601:2611   */\n  add\n    /* \"#utility.yul\":2596:2611   */\n  swap1\n  pop\n    /* \"#utility.yul\":2572:2685   */\n  jump(tag_87)\ntag_89:\n    /* \"#utility.yul\":2719:2720   */\n  0x00\n    /* \"#utility.yul\":2710:2716   */\n  dup5\n    /* \"#utility.yul\":2705:2708   */\n  dup5\n    /* \"#utility.yul\":2701:2717   */\n  add\n    /* \"#utility.yul\":2694:2721   */\n  mstore\n    /* \"#utility.yul\":2543:2727   */\n  pop\n    /* \"#utility.yul\":2481:2727   */\n  pop\n  pop\n  pop\n  jump\t// out\n    /* \"#utility.yul\":2733:3167   */\ntag_32:\n    /* \"#utility.yul\":2822:2827   */\n  0x00\n    /* \"#utility.yul\":2847:2913   */\n  tag_91\n    /* \"#utility.yul\":2863:2912   */\n  tag_92\n    /* \"#utility.yul\":2905:2911   */\n  dup5\n    /* \"#utility.yul\":2863:2912   */\n  tag_30\n  jump\t// in\ntag_92:\n    /* \"#utility.yul\":2847:2913   */\n  tag_29\n  jump\t// in\ntag_91:\n    /* \"#utility.yul\":2838:2913   */\n  swap1\n  pop\n    /* \"#utility.yul\":2936:2942   */\n  dup3\n    /* \"#utility.yul\":2929:2934   */\n  dup2\n    /* \"#utility.yul\":2922:2943   */\n  mstore\n    /* \"#utility.yul\":2974:2978   */\n  0x20\n    /* \"#utility.yul\":2967:2972   */\n  dup2\n    /* \"#utility.yul\":2963:2979   */\n  add\n    /* \"#utility.yul\":3012:3015   */\n  dup5\n    /* \"#utility.yul\":3003:3009   */\n  dup5\n    /* \"#utility.yul\":2998:3001   */\n  dup5\n    /* \"#utility.yul\":2994:3010   */\n  add\n    /* \"#utility.yul\":2991:3016   */\n  gt\n    /* \"#utility.yul\":2988:3100   */\n  iszero\n  tag_93\n  jumpi\n    /* \"#utility.yul\":3019:3098   */\n  tag_94\n  tag_25\n  jump\t// in\ntag_94:\n    /* \"#utility.yul\":2988:3100   */\ntag_93:\n    /* \"#utility.yul\":3109:3161   */\n  tag_95\n    /* \"#utility.yul\":3154:3160   */\n  dup5\n    /* \"#utility.yul\":3149:3152   */\n  dup3\n    /* \"#utility.yul\":3144:3147   */\n  dup6\n    /* \"#utility.yul\":3109:3161   */\n  tag_31\n  jump\t// in\ntag_95:\n    /* \"#utility.yul\":2828:3167   */\n  pop\n    /* \"#utility.yul\":2733:3167   */\n  swap4\n  swap3\n  pop\n  pop\n  pop\n  jump\t// out\n    /* \"#utility.yul\":3187:3542   */\ntag_33:\n    /* \"#utility.yul\":3254:3259   */\n  0x00\n    /* \"#utility.yul\":3303:3306   */\n  dup3\n    /* \"#utility.yul\":3296:3300   */\n  0x1f\n    /* \"#utility.yul\":3288:3294   */\n  dup4\n    /* \"#utility.yul\":3284:3301   */\n  add\n    /* \"#utility.yul\":3280:3307   */\n  slt\n    /* \"#utility.yul\":3270:3392   */\n  tag_97\n  jumpi\n    /* \"#utility.yul\":3311:3390   */\n  tag_98\n  tag_24\n  jump\t// in\ntag_98:\n    /* \"#utility.yul\":3270:3392   */\ntag_97:\n    /* \"#utility.yul\":3421:3427   */\n  dup2\n    /* \"#utility.yul\":3415:3428   */\n  mload\n    /* \"#utility.yul\":3446:3536   */\n  tag_99\n    /* \"#utility.yul\":3532:3535   */\n  dup5\n    /* \"#utility.yul\":3524:3530   */\n  dup3\n    /* \"#utility.yul\":3517:3521   */\n  0x20\n    /* \"#utility.yul\":3509:3515   */\n  dup7\n    /* \"#utility.yul\":3505:3522   */\n  add\n    /* \"#utility.yul\":3446:3536   */\n  tag_32\n  jump\t// in\ntag_99:\n    /* \"#utility.yul\":3437:3536   */\n  swap2\n  pop\n    /* \"#utility.yul\":3260:3542   */\n  pop\n    /* \"#utility.yul\":3187:3542   */\n  swap3\n  swap2\n  pop\n  pop\n  jump\t// out\n    /* \"#utility.yul\":3548:4384   */\ntag_3:\n    /* \"#utility.yul\":3646:3652   */\n  0x00\n    /* \"#utility.yul\":3654:3660   */\n  dup1\n    /* \"#utility.yul\":3662:3668   */\n  0x00\n    /* \"#utility.yul\":3711:3713   */\n  0x60\n    /* \"#utility.yul\":3699:3708   */\n  dup5\n    /* \"#utility.yul\":3690:3697   */\n  dup7\n    /* \"#utility.yul\":3686:3709   */\n  sub\n    /* \"#utility.yul\":3682:3714   */\n  slt\n    /* \"#utility.yul\":3679:3798   */\n  iszero\n  tag_101\n  jumpi\n    /* \"#utility.yul\":3717:3796   */\n  tag_102\n  tag_15\n  jump\t// in\ntag_102:\n    /* \"#utility.yul\":3679:3798   */\ntag_101:\n    /* \"#utility.yul\":3837:3838   */\n  0x00\n    /* \"#utility.yul\":3862:3926   */\n  tag_103\n    /* \"#utility.yul\":3918:3925   */\n  dup7\n    /* \"#utility.yul\":3909:3915   */\n  dup3\n    /* \"#utility.yul\":3898:3907   */\n  dup8\n    /* \"#utility.yul\":3894:3916   */\n  add\n    /* \"#utility.yul\":3862:3926   */\n  tag_20\n  jump\t// in\ntag_103:\n    /* \"#utility.yul\":3852:3926   */\n  swap4\n  pop\n    /* \"#utility.yul\":3808:3936   */\n  pop\n    /* \"#utility.yul\":3975:3977   */\n  0x20\n    /* \"#utility.yul\":4001:4065   */\n  tag_104\n    /* \"#utility.yul\":4057:4064   */\n  dup7\n    /* \"#utility.yul\":4048:4054   */\n  dup3\n    /* \"#utility.yul\":4037:4046   */\n  dup8\n    /* \"#utility.yul\":4033:4055   */\n  add\n    /* \"#utility.yul\":4001:4065   */\n  tag_23\n  jump\t// in\ntag_104:\n    /* \"#utility.yul\":3991:4065   */\n  swap3\n  pop\n    /* \"#utility.yul\":3946:4075   */\n  pop\n    /* \"#utility.yul\":4135:4137   */\n  0x40\n    /* \"#utility.yul\":4124:4133   */\n  dup5\n    /* \"#utility.yul\":4120:4138   */\n  add\n    /* \"#utility.yul\":4114:4139   */\n  mload\n    /* \"#utility.yul\":4166:4184   */\n  0xffffffffffffffff\n    /* \"#utility.yul\":4158:4164   */\n  dup2\n    /* \"#utility.yul\":4155:4185   */\n  gt\n    /* \"#utility.yul\":4152:4269   */\n  iszero\n  tag_105\n  jumpi\n    /* \"#utility.yul\":4188:4267   */\n  tag_106\n  tag_16\n  jump\t// in\ntag_106:\n    /* \"#utility.yul\":4152:4269   */\ntag_105:\n    /* \"#utility.yul\":4293:4367   */\n  tag_107\n    /* \"#utility.yul\":4359:4366   */\n  dup7\n    /* \"#utility.yul\":4350:4356   */\n  dup3\n    /* \"#utility.yul\":4339:4348   */\n  dup8\n    /* \"#utility.yul\":4335:4357   */\n  add\n    /* \"#utility.yul\":4293:4367   */\n  tag_33\n  jump\t// in\ntag_107:\n    /* \"#utility.yul\":4283:4367   */\n  swap2\n  pop\n    /* \"#utility.yul\":4085:4377   */\n  pop\n    /* \"#utility.yul\":3548:4384   */\n  swap3\n  pop\n  swap3\n  pop\n  swap3\n  jump\t// out\n    /* \"#utility.yul\":4390:4570   */\ntag_34:\n    /* \"#utility.yul\":4438:4515   */\n  0x4e487b7100000000000000000000000000000000000000000000000000000000\n    /* \"#utility.yul\":4435:4436   */\n  0x00\n    /* \"#utility.yul\":4428:4516   */\n  mstore\n    /* \"#utility.yul\":4535:4539   */\n  0x11\n    /* \"#utility.yul\":4532:4533   */\n  0x04\n    /* \"#utility.yul\":4525:4540   */\n  mstore\n    /* \"#utility.yul\":4559:4563   */\n  0x24\n    /* \"#utility.yul\":4556:4557   */\n  0x00\n    /* \"#utility.yul\":4549:4564   */\n  revert\n    /* \"#utility.yul\":4576:4767   */\ntag_7:\n    /* \"#utility.yul\":4616:4619   */\n  0x00\n    /* \"#utility.yul\":4635:4655   */\n  tag_110\n    /* \"#utility.yul\":4653:4654   */\n  dup3\n    /* \"#utility.yul\":4635:4655   */\n  tag_21\n  jump\t// in\ntag_110:\n    /* \"#utility.yul\":4630:4655   */\n  swap2\n  pop\n    /* \"#utility.yul\":4669:4689   */\n  tag_111\n    /* \"#utility.yul\":4687:4688   */\n  dup4\n    /* \"#utility.yul\":4669:4689   */\n  tag_21\n  jump\t// in\ntag_111:\n    /* \"#utility.yul\":4664:4689   */\n  swap3\n  pop\n    /* \"#utility.yul\":4712:4713   */\n  dup3\n    /* \"#utility.yul\":4709:4710   */\n  dup3\n    /* \"#utility.yul\":4705:4714   */\n  add\n    /* \"#utility.yul\":4698:4714   */\n  swap1\n  pop\n    /* \"#utility.yul\":4733:4736   */\n  dup1\n    /* \"#utility.yul\":4730:4731   */\n  dup3\n    /* \"#utility.yul\":4727:4737   */\n  gt\n    /* \"#utility.yul\":4724:4760   */\n  iszero\n  tag_112\n  jumpi\n    /* \"#utility.yul\":4740:4758   */\n  tag_113\n  tag_34\n  jump\t// in\ntag_113:\n    /* \"#utility.yul\":4724:4760   */\ntag_112:\n    /* \"#utility.yul\":4576:4767   */\n  swap3\n  swap2\n  pop\n  pop\n  jump\t// out\n    /* \"#utility.yul\":4773:4953   */\ntag_10:\n    /* \"#utility.yul\":4821:4898   */\n  0x4e487b7100000000000000000000000000000000000000000000000000000000\n    /* \"#utility.yul\":4818:4819   */\n  0x00\n    /* \"#utility.yul\":4811:4899   */\n  mstore\n    /* \"#utility.yul\":4918:4922   */\n  0x21\n    /* \"#utility.yul\":4915:4916   */\n  0x04\n    /* \"#utility.yul\":4908:4923   */\n  mstore\n    /* \"#utility.yul\":4942:4946   */\n  0x24\n    /* \"#utility.yul\":4939:4940   */\n  0x00\n    /* \"#utility.yul\":4932:4947   */\n  revert\n    /* \"#utility.yul\":4959:5058   */\ntag_35:\n    /* \"#utility.yul\":5011:5017   */\n  0x00\n    /* \"#utility.yul\":5045:5050   */\n  dup2\n    /* \"#utility.yul\":5039:5051   */\n  mload\n    /* \"#utility.yul\":5029:5051   */\n  swap1\n  pop\n    /* \"#utility.yul\":4959:5058   */\n  swap2\n  swap1\n  pop\n  jump\t// out\n    /* \"#utility.yul\":5064:5244   */\ntag_36:\n    /* \"#utility.yul\":5112:5189   */\n  0x4e487b7100000000000000000000000000000000000000000000000000000000\n    /* \"#utility.yul\":5109:5110   */\n  0x00\n    /* \"#utility.yul\":5102:5190   */\n  mstore\n    /* \"#utility.yul\":5209:5213   */\n  0x22\n    /* \"#utility.yul\":5206:5207   */\n  0x04\n    /* \"#utility.yul\":5199:5214   */\n  mstore\n    /* \"#utility.yul\":5233:5237   */\n  0x24\n    /* \"#utility.yul\":5230:5231   */\n  0x00\n    /* \"#utility.yul\":5223:5238   */\n  revert\n    /* \"#utility.yul\":5250:5570   */\ntag_37:\n    /* \"#utility.yul\":5294:5300   */\n  0x00\n    /* \"#utility.yul\":5331:5332   */\n  0x02\n    /* \"#utility.yul\":5325:5329   */\n  dup3\n    /* \"#utility.yul\":5321:5333   */\n  div\n    /* \"#utility.yul\":5311:5333   */\n  swap1\n  pop\n    /* \"#utility.yul\":5378:5379   */\n  0x01\n    /* \"#utility.yul\":5372:5376   */\n  dup3\n    /* \"#utility.yul\":5368:5380   */\n  and\n    /* \"#utility.yul\":5399:5417   */\n  dup1\n    /* \"#utility.yul\":5389:5470   */\n  tag_118\n  jumpi\n    /* \"#utility.yul\":5455:5459   */\n  0x7f\n    /* \"#utility.yul\":5447:5453   */\n  dup3\n    /* \"#utility.yul\":5443:5460   */\n  and\n    /* \"#utility.yul\":5433:5460   */\n  swap2\n  pop\n    /* \"#utility.yul\":5389:5470   */\ntag_118:\n    /* \"#utility.yul\":5517:5519   */\n  0x20\n    /* \"#utility.yul\":5509:5515   */\n  dup3\n    /* \"#utility.yul\":5506:5520   */\n  lt\n    /* \"#utility.yul\":5486:5504   */\n  dup2\n    /* \"#utility.yul\":5483:5521   */\n  sub\n    /* \"#utility.yul\":5480:5564   */\n  tag_119\n  jumpi\n    /* \"#utility.yul\":5536:5554   */\n  tag_120\n  tag_36\n  jump\t// in\ntag_120:\n    /* \"#utility.yul\":5480:5564   */\ntag_119:\n    /* \"#utility.yul\":5301:5570   */\n  pop\n    /* \"#utility.yul\":5250:5570   */\n  swap2\n  swap1\n  pop\n  jump\t// out\n    /* \"#utility.yul\":5576:5717   */\ntag_38:\n    /* \"#utility.yul\":5625:5629   */\n  0x00\n    /* \"#utility.yul\":5648:5651   */\n  dup2\n    /* \"#utility.yul\":5640:5651   */\n  swap1\n  pop\n    /* \"#utility.yul\":5671:5674   */\n  dup2\n    /* \"#utility.yul\":5668:5669   */\n  0x00\n    /* \"#utility.yul\":5661:5675   */\n  mstore\n    /* \"#utility.yul\":5705:5709   */\n  0x20\n    /* \"#utility.yul\":5702:5703   */\n  0x00\n    /* \"#utility.yul\":5692:5710   */\n  keccak256\n    /* \"#utility.yul\":5684:5710   */\n  swap1\n  pop\n    /* \"#utility.yul\":5576:5717   */\n  swap2\n  swap1\n  pop\n  jump\t// out\n    /* \"#utility.yul\":5723:5816   */\ntag_39:\n    /* \"#utility.yul\":5760:5766   */\n  0x00\n    /* \"#utility.yul\":5807:5809   */\n  0x20\n    /* \"#utility.yul\":5802:5804   */\n  0x1f\n    /* \"#utility.yul\":5795:5800   */\n  dup4\n    /* \"#utility.yul\":5791:5805   */\n  add\n    /* \"#utility.yul\":5787:5810   */\n  div\n    /* \"#utility.yul\":5777:5810   */\n  swap1\n  pop\n    /* \"#utility.yul\":5723:5816   */\n  swap2\n  swap1\n  pop\n  jump\t// out\n    /* \"#utility.yul\":5822:5929   */\ntag_40:\n    /* \"#utility.yul\":5866:5874   */\n  0x00\n    /* \"#utility.yul\":5916:5921   */\n  dup3\n    /* \"#utility.yul\":5910:5914   */\n  dup3\n    /* \"#utility.yul\":5906:5922   */\n  shl\n    /* \"#utility.yul\":5885:5922   */\n  swap1\n  pop\n    /* \"#utility.yul\":5822:5929   */\n  swap3\n  swap2\n  pop\n  pop\n  jump\t// out\n    /* \"#utility.yul\":5935:6328   */\ntag_41:\n    /* \"#utility.yul\":6004:6010   */\n  0x00\n    /* \"#utility.yul\":6054:6055   */\n  0x08\n    /* \"#utility.yul\":6042:6052   */\n  dup4\n    /* \"#utility.yul\":6038:6056   */\n  mul\n    /* \"#utility.yul\":6077:6174   */\n  tag_125\n    /* \"#utility.yul\":6107:6173   */\n  0xffffffffffffffffffffffffffffffffffffffffffffffffffffffffffffffff\n    /* \"#utility.yul\":6096:6105   */\n  dup3\n    /* \"#utility.yul\":6077:6174   */\n  tag_40\n  jump\t// in\ntag_125:\n    /* \"#utility.yul\":6195:6234   */\n  tag_126\n    /* \"#utility.yul\":6225:6233   */\n  dup7\n    /* \"#utility.yul\":6214:6223   */\n  dup4\n    /* \"#utility.yul\":6195:6234   */\n  tag_40\n  jump\t// in\ntag_126:\n    /* \"#utility.yul\":6183:6234   */\n  swap6\n  pop\n    /* \"#utility.yul\":6267:6271   */\n  dup1\n    /* \"#utility.yul\":6263:6272   */\n  not\n    /* \"#utility.yul\":6256:6261   */\n  dup5\n    /* \"#utility.yul\":6252:6273   */\n  and\n    /* \"#utility.yul\":6243:6273   */\n  swap4\n  pop\n    /* \"#utility.yul\":6316:6320   */\n  dup1\n    /* \"#utility.yul\":6306:6314   */\n  dup7\n    /* \"#utility.yul\":6302:6321   */\n  and\n    /* \"#utility.yul\":6295:6300   */\n  dup5\n    /* \"#utility.yul\":6292:6322   */\n  or\n    /* \"#utility.yul\":6282:6322   */\n  swap3\n  pop\n    /* \"#utility.yul\":6011:6328   */\n  pop\n  pop\n    /* \"#utility.yul\":5935:6328   */\n  swap4\n  swap3\n  pop\n  pop\n  pop\n  jump\t// out\n    /* \"#utility.yul\":6334:6394   */\ntag_42:\n    /* \"#utility.yul\":6362:6365   */\n  0x00\n    /* \"#utility.yul\":6383:6388   */\n  dup2\n    /* \"#utility.yul\":6376:6388   */\n  swap1\n  pop\n    /* \"#utility.yul\":6334:6394   */\n  swap2\n  swap1\n  pop\n  jump\t// out\n    /* \"#utility.yul\":6400:6542   */\ntag_43:\n    /* \"#utility.yul\":6450:6459   */\n  0x00\n    /* \"#utility.yul\":6483:6536   */\n  tag_129\n    /* \"#utility.yul\":6501:6535   */\n  tag_130\n    /* \"#utility.yul\":6510:6534   */\n  tag_131\n    /* \"#utility.yul\":6528:6533   */\n  dup5\n    /* \"#utility.yul\":6510:6534   */\n  tag_21\n  jump\t// in\ntag_131:\n    /* \"#utility.yul\":6501:6535   */\n  tag_42\n  jump\t// in\ntag_130:\n    /* \"#utility.yul\":6483:6536   */\n  tag_21\n  jump\t// in\ntag_129:\n    /* \"#utility.yul\":6470:6536   */\n  swap1\n  pop\n    /* \"#utility.yul\":6400:6542   */\n  swap2\n  swap1\n  pop\n  jump\t// out\n    /* \"#utility.yul\":6548:6623   */\ntag_44:\n    /* \"#utility.yul\":6591:6594   */\n  0x00\n    /* \"#utility.yul\":6612:6617   */\n  dup2\n    /* \"#utility.yul\":6605:6617   */\n  swap1\n  pop\n    /* \"#utility.yul\":6548:6623   */\n  swap2\n  swap1\n  pop\n  jump\t// out\n    /* \"#utility.yul\":6629:6898   */\ntag_45:\n    /* \"#utility.yul\":6739:6778   */\n  tag_134\n    /* \"#utility.yul\":6770:6777   */\n  dup4\n    /* \"#utility.yul\":6739:6778   */\n  tag_43\n  jump\t// in\ntag_134:\n    /* \"#utility.yul\":6800:6891   */\n  tag_135\n    /* \"#utility.yul\":6849:6890   */\n  tag_136\n    /* \"#utility.yul\":6873:6889   */\n  dup3\n    /* \"#utility.yul\":6849:6890   */\n  tag_44\n  jump\t// in\ntag_136:\n    /* \"#utility.yul\":6841:6847   */\n  dup5\n    /* \"#utility.yul\":6834:6838   */\n  dup5\n    /* \"#utility.yul\":6828:6839   */\n  sload\n    /* \"#utility.yul\":6800:6891   */\n  tag_41\n  jump\t// in\ntag_135:\n    /* \"#utility.yul\":6794:6798   */\n  dup3\n    /* \"#utility.yul\":6787:6892   */\n  sstore\n    /* \"#utility.yul\":6705:6898   */\n  pop\n    /* \"#utility.yul\":6629:6898   */\n  pop\n  pop\n  pop\n  jump\t// out\n    /* \"#utility.yul\":6904:6977   */\ntag_46:\n    /* \"#utility.yul\":6949:6952   */\n  0x00\n    /* \"#utility.yul\":6904:6977   */\n  swap1\n  jump\t// out\n    /* \"#utility.yul\":6983:7172   */\ntag_47:\n    /* \"#utility.yul\":7060:7092   */\n  tag_139\n  tag_46\n  jump\t// in\ntag_139:\n    /* \"#utility.yul\":7101:7166   */\n  tag_140\n    /* \"#utility.yul\":7159:7165   */\n  dup2\n    /* \"#utility.yul\":7151:7157   */\n  dup5\n    /* \"#utility.yul\":7145:7149   */\n  dup5\n    /* \"#utility.yul\":7101:7166   */\n  tag_45\n  jump\t// in\ntag_140:\n    /* \"#utility.yul\":7036:7172   */\n  pop\n    /* \"#utility.yul\":6983:7172   */\n  pop\n  pop\n  jump\t// out\n    /* \"#utility.yul\":7178:7364   */\ntag_48:\n    /* \"#utility.yul\":7238:7358   */\ntag_142:\n    /* \"#utility.yul\":7255:7258   */\n  dup2\n    /* \"#utility.yul\":7248:7253   */\n  dup2\n    /* \"#utility.yul\":7245:7259   */\n  lt\n    /* \"#utility.yul\":7238:7358   */\n  iszero\n  tag_144\n  jumpi\n    /* \"#utility.yul\":7309:7348   */\n  tag_145\n    /* \"#utility.yul\":7346:7347   */\n  0x00\n    /* \"#utility.yul\":7339:7344   */\n  dup3\n    /* \"#utility.yul\":7309:7348   */\n  tag_47\n  jump\t// in\ntag_145:\n    /* \"#utility.yul\":7282:7283   */\n  0x01\n    /* \"#utility.yul\":7275:7280   */\n  dup2\n    /* \"#utility.yul\":7271:7284   */\n  add\n    /* \"#utility.yul\":7262:7284   */\n  swap1\n  pop\n    /* \"#utility.yul\":7238:7358   */\n  jump(tag_142)\ntag_144:\n    /* \"#utility.yul\":7178:7364   */\n  pop\n  pop\n  jump\t// out\n    /* \"#utility.yul\":7370:7913   */\ntag_49:\n    /* \"#utility.yul\":7471:7473   */\n  0x1f\n    /* \"#utility.yul\":7466:7469   */\n  dup3\n    /* \"#utility.yul\":7463:7474   */\n  gt\n    /* \"#utility.yul\":7460:7906   */\n  iszero\n  tag_147\n  jumpi\n    /* \"#utility.yul\":7505:7543   */\n  tag_148\n    /* \"#utility.yul\":7537:7542   */\n  dup2\n    /* \"#utility.yul\":7505:7543   */\n  tag_38\n  jump\t// in\ntag_148:\n    /* \"#utility.yul\":7589:7618   */\n  tag_149\n    /* \"#utility.yul\":7607:7617   */\n  dup5\n    /* \"#utility.yul\":7589:7618   */\n  tag_39\n  jump\t// in\ntag_149:\n    /* \"#utility.yul\":7579:7587   */\n  dup2\n    /* \"#utility.yul\":7575:7619   */\n  add\n    /* \"#utility.yul\":7772:7774   */\n  0x20\n    /* \"#utility.yul\":7760:7770   */\n  dup6\n    /* \"#utility.yul\":7757:7775   */\n  lt\n    /* \"#utility.yul\":7754:7803   */\n  iszero\n  tag_150\n  jumpi\n    /* \"#utility.yul\":7793:7801   */\n  dup2\n    /* \"#utility.yul\":7778:7801   */\n  swap1\n  pop\n    /* \"#utility.yul\":7754:7803   */\ntag_150:\n    /* \"#utility.yul\":7816:7896   */\n  tag_151\n    /* \"#utility.yul\":7872:7894   */\n  tag_152\n    /* \"#utility.yul\":7890:7893   */\n  dup6\n    /* \"#utility.yul\":7872:7894   */\n  tag_39\n  jump\t// in\ntag_152:\n    /* \"#utility.yul\":7862:7870   */\n  dup4\n    /* \"#utility.yul\":7858:7895   */\n  add\n    /* \"#utility.yul\":7845:7856   */\n  dup3\n    /* \"#utility.yul\":7816:7896   */\n  tag_48\n  jump\t// in\ntag_151:\n    /* \"#utility.yul\":7475:7906   */\n  pop\n  pop\n    /* \"#utility.yul\":7460:7906   */\ntag_147:\n    /* \"#utility.yul\":7370:7913   */\n  pop\n  pop\n  pop\n  jump\t// out\n    /* \"#utility.yul\":7919:8036   */\ntag_50:\n    /* \"#utility.yul\":7973:7981   */\n  0x00\n    /* \"#utility.yul\":8023:8028   */\n  dup3\n    /* \"#utility.yul\":8017:8021   */\n  dup3\n    /* \"#utility.yul\":8013:8029   */\n  shr\n    /* \"#utility.yul\":7992:8029   */\n  swap1\n  pop\n    /* \"#utility.yul\":7919:8036   */\n  swap3\n  swap2\n  pop\n  pop\n  jump\t// out\n    /* \"#utility.yul\":8042:8211   */\ntag_51:\n    /* \"#utility.yul\":8086:8092   */\n  0x00\n    /* \"#utility.yul\":8119:8170   */\n  tag_155\n    /* \"#utility.yul\":8167:8168   */\n  0x00\n    /* \"#utility.yul\":8163:8169   */\n  not\n    /* \"#utility.yul\":8155:8160   */\n  dup5\n    /* \"#utility.yul\":8152:8153   */\n  0x08\n    /* \"#utility.yul\":8148:8161   */\n  mul\n    /* \"#utility.yul\":8119:8170   */\n  tag_50\n  jump\t// in\ntag_155:\n    /* \"#utility.yul\":8115:8171   */\n  not\n    /* \"#utility.yul\":8200:8204   */\n  dup1\n    /* \"#utility.yul\":8194:8198   */\n  dup4\n    /* \"#utility.yul\":8190:8205   */\n  and\n    /* \"#utility.yul\":8180:8205   */\n  swap2\n  pop\n    /* \"#utility.yul\":8093:8211   */\n  pop\n    /* \"#utility.yul\":8042:8211   */\n  swap3\n  swap2\n  pop\n  pop\n  jump\t// out\n    /* \"#utility.yul\":8216:8511   */\ntag_52:\n    /* \"#utility.yul\":8292:8296   */\n  0x00\n    /* \"#utility.yul\":8438:8467   */\n  tag_157\n    /* \"#utility.yul\":8463:8466   */\n  dup4\n    /* \"#utility.yul\":8457:8461   */\n  dup4\n    /* \"#utility.yul\":8438:8467   */\n  tag_51\n  jump\t// in\ntag_157:\n    /* \"#utility.yul\":8430:8467   */\n  swap2\n  pop\n    /* \"#utility.yul\":8500:8503   */\n  dup3\n    /* \"#utility.yul\":8497:8498   */\n  0x02\n    /* \"#utility.yul\":8493:8504   */\n  mul\n    /* \"#utility.yul\":8487:8491   */\n  dup3\n    /* \"#utility.yul\":8484:8505   */\n  or\n    /* \"#utility.yul\":8476:8505   */\n  swap1\n  pop\n    /* \"#utility.yul\":8216:8511   */\n  swap3\n  swap2\n  pop\n  pop\n  jump\t// out\n    /* \"#utility.yul\":8516:9911   */\ntag_12:\n    /* \"#utility.yul\":8633:8670   */\n  tag_159\n    /* \"#utility.yul\":8666:8669   */\n  dup3\n    /* \"#utility.yul\":8633:8670   */\n  tag_35\n  jump\t// in\ntag_159:\n    /* \"#utility.yul\":8735:8753   */\n  0xffffffffffffffff\n    /* \"#utility.yul\":8727:8733   */\n  dup2\n    /* \"#utility.yul\":8724:8754   */\n  gt\n    /* \"#utility.yul\":8721:8777   */\n  iszero\n  tag_160\n  jumpi\n    /* \"#utility.yul\":8757:8775   */\n  tag_161\n  tag_27\n  jump\t// in\ntag_161:\n    /* \"#utility.yul\":8721:8777   */\ntag_160:\n    /* \"#utility.yul\":8801:8839   */\n  tag_162\n    /* \"#utility.yul\":8833:8837   */\n  dup3\n    /* \"#utility.yul\":8827:8838   */\n  sload\n    /* \"#utility.yul\":8801:8839   */\n  tag_37\n  jump\t// in\ntag_162:\n    /* \"#utility.yul\":8886:8953   */\n  tag_163\n    /* \"#utility.yul\":8946:8952   */\n  dup3\n    /* \"#utility.yul\":8938:8944   */\n  dup3\n    /* \"#utility.yul\":8932:8936   */\n  dup6\n    /* \"#utility.yul\":8886:8953   */\n  tag_49\n  jump\t// in\ntag_163:\n    /* \"#utility.yul\":8980:8981   */\n  0x00\n    /* \"#utility.yul\":9004:9008   */\n  0x20\n    /* \"#utility.yul\":8991:9008   */\n  swap1\n  pop\n    /* \"#utility.yul\":9036:9038   */\n  0x1f\n    /* \"#utility.yul\":9028:9034   */\n  dup4\n    /* \"#utility.yul\":9025:9039   */\n  gt\n    /* \"#utility.yul\":9053:9054   */\n  0x01\n    /* \"#utility.yul\":9048:9666   */\n  dup2\n  eq\n  tag_165\n  jumpi\n    /* \"#utility.yul\":9710:9711   */\n  0x00\n    /* \"#utility.yul\":9727:9733   */\n  dup5\n    /* \"#utility.yul\":9724:9801   */\n  iszero\n  tag_166\n  jumpi\n    /* \"#utility.yul\":9776:9785   */\n  dup3\n    /* \"#utility.yul\":9771:9774   */\n  dup8\n    /* \"#utility.yul\":9767:9786   */\n  add\n    /* \"#utility.yul\":9761:9787   */\n  mload\n    /* \"#utility.yul\":9752:9787   */\n  swap1\n  pop\n    /* \"#utility.yul\":9724:9801   */\ntag_166:\n    /* \"#utility.yul\":9827:9894   */\n  tag_167\n    /* \"#utility.yul\":9887:9893   */\n  dup6\n    /* \"#utility.yul\":9880:9885   */\n  dup3\n    /* \"#utility.yul\":9827:9894   */\n  tag_52\n  jump\t// in\ntag_167:\n    /* \"#utility.yul\":9821:9825   */\n  dup7\n    /* \"#utility.yul\":9814:9895   */\n  sstore\n    /* \"#utility.yul\":9683:9905   */\n  pop\n    /* \"#utility.yul\":9018:9905   */\n  jump(tag_164)\n    /* \"#utility.yul\":9048:9666   */\ntag_165:\n    /* \"#utility.yul\":9100:9104   */\n  0x1f\n    /* \"#utility.yul\":9096:9105   */\n  not\n    /* \"#utility.yul\":9088:9094   */\n  dup5\n    /* \"#utility.yul\":9084:9106   */\n  and\n    /* \"#utility.yul\":9134:9171   */\n  tag_168\n    /* \"#utility.yul\":9166:9170   */\n  dup7\n    /* \"#utility.yul\":9134:9171   */\n  tag_38\n  jump\t// in\ntag_168:\n    /* \"#utility.yul\":9193:9194   */\n  0x00\n    /* \"#utility.yul\":9207:9415   */\ntag_169:\n    /* \"#utility.yul\":9221:9228   */\n  dup3\n    /* \"#utility.yul\":9218:9219   */\n  dup2\n    /* \"#utility.yul\":9215:9229   */\n  lt\n    /* \"#utility.yul\":9207:9415   */\n  iszero\n  tag_171\n  jumpi\n    /* \"#utility.yul\":9300:9309   */\n  dup5\n    /* \"#utility.yul\":9295:9298   */\n  dup10\n    /* \"#utility.yul\":9291:9310   */\n  add\n    /* \"#utility.yul\":9285:9311   */\n  mload\n    /* \"#utility.yul\":9277:9283   */\n  dup3\n    /* \"#utility.yul\":9270:9312   */\n  sstore\n    /* \"#utility.yul\":9351:9352   */\n  0x01\n    /* \"#utility.yul\":9343:9349   */\n  dup3\n    /* \"#utility.yul\":9339:9353   */\n  add\n    /* \"#utility.yul\":9329:9353   */\n  swap2\n  pop\n    /* \"#utility.yul\":9398:9400   */\n  0x20\n    /* \"#utility.yul\":9387:9396   */\n  dup6\n    /* \"#utility.yul\":9383:9401   */\n  add\n    /* \"#utility.yul\":9370:9401   */\n  swap5\n  pop\n    /* \"#utility.yul\":9244:9248   */\n  0x20\n    /* \"#utility.yul\":9241:9242   */\n  dup2\n    /* \"#utility.yul\":9237:9249   */\n  add\n    /* \"#utility.yul\":9232:9249   */\n  swap1\n  pop\n    /* \"#utility.yul\":9207:9415   */\n  jump(tag_169)\ntag_171:\n    /* \"#utility.yul\":9443:9449   */\n  dup7\n    /* \"#utility.yul\":9434:9441   */\n  dup4\n    /* \"#utility.yul\":9431:9450   */\n  lt\n    /* \"#utility.yul\":9428:9607   */\n  iszero\n  tag_172\n  jumpi\n    /* \"#utility.yul\":9501:9510   */\n  dup5\n    /* \"#utility.yul\":9496:9499   */\n  dup10\n    /* \"#utility.yul\":9492:9511   */\n  add\n    /* \"#utility.yul\":9486:9512   */\n  mload\n    /* \"#utility.yul\":9544:9592   */\n  tag_173\n    /* \"#utility.yul\":9586:9590   */\n  0x1f\n    /* \"#utility.yul\":9578:9584   */\n  dup10\n    /* \"#utility.yul\":9574:9591   */\n  and\n    /* \"#utility.yul\":9563:9572   */\n  dup3\n    /* \"#utility.yul\":9544:9592   */\n  tag_51\n  jump\t// in\ntag_173:\n    /* \"#utility.yul\":9536:9542   */\n  dup4\n    /* \"#utility.yul\":9529:9593   */\n  sstore\n    /* \"#utility.yul\":9451:9607   */\n  pop\n    /* \"#utility.yul\":9428:9607   */\ntag_172:\n    /* \"#utility.yul\":9653:9654   */\n  0x01\n    /* \"#utility.yul\":9649:9650   */\n  0x02\n    /* \"#utility.yul\":9641:9647   */\n  dup9\n    /* \"#utility.yul\":9637:9651   */\n  mul\n    /* \"#utility.yul\":9633:9655   */\n  add\n    /* \"#utility.yul\":9627:9631   */\n  dup9\n    /* \"#utility.yul\":9620:9656   */\n  sstore\n    /* \"#utility.yul\":9055:9666   */\n  pop\n  pop\n  pop\n    /* \"#utility.yul\":9018:9905   */\ntag_164:\n  pop\n    /* \"#utility.yul\":8608:9911   */\n  pop\n  pop\n  pop\n    /* \"#utility.yul\":8516:9911   */\n  pop\n  pop\n  jump\t// out\n    /* \"Auction.sol\":62:2806  contract Auction {... */\ntag_13:\n  dataSize(sub_0)\n  dup1\n  dataOffset(sub_0)\n  0x00\n  codecopy\n  0x00\n  return\nstop\n\nsub_0: assembly {\n        /* \"Auction.sol\":62:2806  contract Auction {... */\n      mstore(0x40, 0x80)\n      jumpi(tag_1, lt(calldatasize, 0x04))\n      shr(0xe0, calldataload(0x00))\n      dup1\n      0xbda21db0\n      gt\n      tag_17\n      jumpi\n      dup1\n      0xd57bde79\n      gt\n      tag_18\n      jumpi\n      dup1\n      0xd57bde79\n      eq\n      tag_13\n      jumpi\n      dup1\n      0xecfc7ecc\n      eq\n      tag_14\n      jumpi\n      dup1\n      0xf36efe57\n      eq\n      tag_15\n      jumpi\n      dup1\n      0xfe67a54b\n      eq\n      tag_16\n      jumpi\n      jump(tag_1)\n    tag_18:\n      dup1\n      0xbda21db0\n      eq\n      tag_9\n      jumpi\n      dup1\n      0xc19d93fb\n      eq\n      tag_10\n      jumpi\n      dup1\n      0xc63d99db\n      eq\n      tag_11\n      jumpi\n      dup1\n      0xd17c2b54\n      eq\n      tag_12\n      jumpi\n      jump(tag_1)\n    tag_17:\n      dup1\n      0x55bedee6\n      gt\n      tag_19\n      jumpi\n      dup1\n      0x55bedee6\n      eq\n      tag_5\n      jumpi\n      dup1\n      0x5e2c19db\n      eq\n      tag_6\n      jumpi\n      dup1\n      0x62ea82db\n      eq\n      tag_7\n      jumpi\n      dup1\n      0x91f90157\n      eq\n      tag_8\n      jumpi\n      jump(tag_1)\n    tag_19:\n      dup1\n      0x08551a53\n      eq\n      tag_2\n      jumpi\n      dup1\n      0x3ccfd60b\n      eq\n      tag_3\n      jumpi\n      dup1\n      0x4b449cba\n      eq\n      tag_4\n      jumpi\n    tag_1:\n      0x00\n      dup1\n      revert\n        /* \"Auction.sol\":85:114  address payable public seller */\n    tag_2:\n      callvalue\n      dup1\n      iszero\n      tag_20\n      jumpi\n      0x00\n      dup1\n      revert\n    tag_20:\n      pop\n      tag_21\n      tag_22\n      jump\t// in\n    tag_21:\n      mload(0x40)\n      tag_23\n      swap2\n      swap1\n      tag_24\n      jump\t// in\n    tag_23:\n      mload(0x40)\n      dup1\n      swap2\n      sub\n      swap1\n      return\n        /* \"Auction.sol\":1641:2003  function withdraw() public checkAuctionState {... */\n    tag_3:\n      callvalue\n      dup1\n      iszero\n      tag_25\n      jumpi\n      0x00\n      dup1\n      revert\n    tag_25:\n      pop\n      tag_26\n      tag_27\n      jump\t// in\n    tag_26:\n      stop\n        /* \"Auction.sol\":120:149  uint256 public auctionEndTime */\n    tag_4:\n      callvalue\n      dup1\n      iszero\n      tag_28\n      jumpi\n      0x00\n      dup1\n      revert\n    tag_28:\n      pop\n      tag_29\n      tag_30\n      jump\t// in\n    tag_29:\n      mload(0x40)\n      tag_31\n      swap2\n      swap1\n      tag_32\n      jump\t// in\n    tag_31:\n      mload(0x40)\n      dup1\n      swap2\n      sub\n      swap1\n      return\n        /* \"Auction.sol\":2711:2804  function getSellerRating() public view returns (uint256) {... */\n    tag_5:\n      callvalue\n      dup1\n      iszero\n      tag_33\n      jumpi\n      0x00\n      dup1\n      revert\n    tag_33:\n      pop\n      tag_34\n      tag_35\n      jump\t// in\n    tag_34:\n      mload(0x40)\n      tag_36\n      swap2\n      swap1\n      tag_32\n      jump\t// in\n    tag_36:\n      mload(0x40)\n      dup1\n      swap2\n      sub\n      swap1\n      return\n        /* \"Auction.sol\":359:403  mapping(address => bool) public hasWithdrawn */\n    tag_6:\n      callvalue\n      dup1\n      iszero\n      tag_37\n      jumpi\n      0x00\n      dup1\n      revert\n    tag_37:\n      pop\n      tag_38\n      0x04\n      dup1\n      calldatasize\n      sub\n      dup2\n      add\n      swap1\n      tag_39\n      swap2\n      swap1\n      tag_40\n      jump\t// in\n    tag_39:\n      tag_41\n      jump\t// in\n    tag_38:\n      mload(0x40)\n      tag_42\n      swap2\n      swap1\n      tag_43\n      jump\t// in\n    tag_42:\n      mload(0x40)\n      dup1\n      swap2\n      sub\n      swap1\n      return\n        /* \"Auction.sol\":314:353  mapping(address => uint256) public bids */\n    tag_7:\n      callvalue\n      dup1\n      iszero\n      tag_44\n      jumpi\n      0x00\n      dup1\n      revert\n    tag_44:\n      pop\n      tag_45\n      0x04\n      dup1\n      calldatasize\n      sub\n      dup2\n      add\n      swap1\n      tag_46\n      swap2\n      swap1\n      tag_40\n      jump\t// in\n    tag_46:\n      tag_47\n      jump\t// in\n    tag_45:\n      mload(0x40)\n      tag_48\n      swap2\n      swap1\n      tag_32\n      jump\t// in\n    tag_48:\n      mload(0x40)\n      dup1\n      swap2\n      sub\n      swap1\n      return\n        /* \"Auction.sol\":155:183  address public highestBidder */\n    tag_8:\n      callvalue\n      dup1\n      iszero\n      tag_49\n      jumpi\n      0x00\n      dup1\n      revert\n    tag_49:\n      pop\n      tag_50\n      tag_51\n      jump\t// in\n    tag_50:\n      mload(0x40)\n      tag_52\n      swap2\n      swap1\n      tag_53\n      jump\t// in\n    tag_52:\n      mload(0x40)\n      dup1\n      swap2\n      sub\n      swap1\n      return\n        /* \"Auction.sol\":284:307  bool public sellerRated */\n    tag_9:\n      callvalue\n      dup1\n      iszero\n      tag_54\n      jumpi\n      0x00\n      dup1\n      revert\n    tag_54:\n      pop\n      tag_55\n      tag_56\n      jump\t// in\n    tag_55:\n      mload(0x40)\n      tag_57\n      swap2\n      swap1\n      tag_43\n      jump\t// in\n    tag_57:\n      mload(0x40)\n      dup1\n      swap2\n      sub\n      swap1\n      return\n        /* \"Auction.sol\":411:436  AuctionState public state */\n    tag_10:\n      callvalue\n      dup1\n      iszero\n      tag_58\n      jumpi\n      0x00\n      dup1\n      revert\n    tag_58:\n      pop\n      tag_59\n      tag_60\n      jump\t// in\n    tag_59:\n      mload(0x40)\n      tag_61\n      swap2\n      swap1\n      tag_62\n      jump\t// in\n    tag_61:\n      mload(0x40)\n      dup1\n      swap2\n      sub\n      swap1\n      return\n        /* \"Auction.sol\":220:245  string public auctionName */\n    tag_11:\n      callvalue\n      dup1\n      iszero\n      tag_63\n      jumpi\n      0x00\n      dup1\n      revert\n    tag_63:\n      pop\n      tag_64\n      tag_65\n      jump\t// in\n    tag_64:\n      mload(0x40)\n      tag_66\n      swap2\n      swap1\n      tag_67\n      jump\t// in\n    tag_66:\n      mload(0x40)\n      dup1\n      swap2\n      sub\n      swap1\n      return\n        /* \"Auction.sol\":2294:2705  function rateSeller(uint256 rating) public checkAuctionState {... */\n    tag_12:\n      callvalue\n      dup1\n      iszero\n      tag_68\n      jumpi\n      0x00\n      dup1\n      revert\n    tag_68:\n      pop\n      tag_69\n      0x04\n      dup1\n      calldatasize\n      sub\n      dup2\n      add\n      swap1\n      tag_70\n      swap2\n      swap1\n      tag_71\n      jump\t// in\n    tag_70:\n      tag_72\n      jump\t// in\n    tag_69:\n      stop\n        /* \"Auction.sol\":189:214  uint256 public highestBid */\n    tag_13:\n      callvalue\n      dup1\n      iszero\n      tag_73\n      jumpi\n      0x00\n      dup1\n      revert\n    tag_73:\n      pop\n      tag_74\n      tag_75\n      jump\t// in\n    tag_74:\n      mload(0x40)\n      tag_76\n      swap2\n      swap1\n      tag_32\n      jump\t// in\n    tag_76:\n      mload(0x40)\n      dup1\n      swap2\n      sub\n      swap1\n      return\n        /* \"Auction.sol\":1232:1635  function placeBid() public payable checkAuctionState {... */\n    tag_14:\n      tag_77\n      tag_78\n      jump\t// in\n    tag_77:\n      stop\n        /* \"Auction.sol\":251:278  uint256 public sellerRating */\n    tag_15:\n      callvalue\n      dup1\n      iszero\n      tag_79\n      jumpi\n      0x00\n      dup1\n      revert\n    tag_79:\n      pop\n      tag_80\n      tag_81\n      jump\t// in\n    tag_80:\n      mload(0x40)\n      tag_82\n      swap2\n      swap1\n      tag_32\n      jump\t// in\n    tag_82:\n      mload(0x40)\n      dup1\n      swap2\n      sub\n      swap1\n      return\n        /* \"Auction.sol\":2009:2288  function endAuction() public onlySeller onlyAfterEnd checkAuctionState {... */\n    tag_16:\n      callvalue\n      dup1\n      iszero\n      tag_83\n      jumpi\n      0x00\n      dup1\n      revert\n    tag_83:\n      pop\n      tag_84\n      tag_85\n      jump\t// in\n    tag_84:\n      stop\n        /* \"Auction.sol\":85:114  address payable public seller */\n    tag_22:\n      0x00\n      dup1\n      sload\n      swap1\n      0x0100\n      exp\n      swap1\n      div\n      0xffffffffffffffffffffffffffffffffffffffff\n      and\n      dup2\n      jump\t// out\n        /* \"Auction.sol\":1641:2003  function withdraw() public checkAuctionState {... */\n    tag_27:\n        /* \"Auction.sol\":1042:1061  AuctionState.Active */\n      0x00\n        /* \"Auction.sol\":1033:1061  state == AuctionState.Active */\n      0x01\n      dup2\n      gt\n      iszero\n      tag_87\n      jumpi\n      tag_88\n      tag_89\n      jump\t// in\n    tag_88:\n    tag_87:\n        /* \"Auction.sol\":1033:1038  state */\n      0x09\n      0x00\n      swap1\n      sload\n      swap1\n      0x0100\n      exp\n      swap1\n      div\n      0xff\n      and\n        /* \"Auction.sol\":1033:1061  state == AuctionState.Active */\n      0x01\n      dup2\n      gt\n      iszero\n      tag_90\n      jumpi\n      tag_91\n      tag_89\n      jump\t// in\n    tag_91:\n    tag_90:\n      eq\n        /* \"Auction.sol\":1033:1098  state == AuctionState.Active && block.timestamp >= auctionEndTime */\n      dup1\n      iszero\n      tag_92\n      jumpi\n      pop\n        /* \"Auction.sol\":1084:1098  auctionEndTime */\n      sload(0x01)\n        /* \"Auction.sol\":1065:1080  block.timestamp */\n      timestamp\n        /* \"Auction.sol\":1065:1098  block.timestamp >= auctionEndTime */\n      lt\n      iszero\n        /* \"Auction.sol\":1033:1098  state == AuctionState.Active && block.timestamp >= auctionEndTime */\n    tag_92:\n        /* \"Auction.sol\":1029:1209  if (state == AuctionState.Active && block.timestamp >= auctionEndTime) {... */\n      iszero\n      tag_93\n      jumpi\n        /* \"Auction.sol\":1122:1140  AuctionState.Ended */\n      0x01\n        /* \"Auction.sol\":1114:1119  state */\n      0x09\n      0x00\n        /* \"Auction.sol\":1114:1140  state = AuctionState.Ended */\n      0x0100\n      exp\n      dup2\n      sload\n      dup2\n      0xff\n      mul\n      not\n      and\n      swap1\n      dup4\n      0x01\n      dup2\n      gt\n      iszero\n      tag_94\n      jumpi\n      tag_95\n      tag_89\n      jump\t// in\n    tag_95:\n    tag_94:\n      mul\n      or\n      swap1\n      sstore\n      pop\n        /* \"Auction.sol\":1159:1198  AuctionEnded(highestBidder, highestBid) */\n      0xdaec4582d5d9595688c8c98545fdd1c696d41c6aeaeb636737e84ed2f5c00eda\n        /* \"Auction.sol\":1172:1185  highestBidder */\n      0x02\n      0x00\n      swap1\n      sload\n      swap1\n      0x0100\n      exp\n      swap1\n      div\n      0xffffffffffffffffffffffffffffffffffffffff\n      and\n        /* \"Auction.sol\":1187:1197  highestBid */\n      sload(0x03)\n        /* \"Auction.sol\":1159:1198  AuctionEnded(highestBidder, highestBid) */\n      mload(0x40)\n      tag_96\n      swap3\n      swap2\n      swap1\n      tag_97\n      jump\t// in\n    tag_96:\n      mload(0x40)\n      dup1\n      swap2\n      sub\n      swap1\n      log1\n        /* \"Auction.sol\":1029:1209  if (state == AuctionState.Active && block.timestamp >= auctionEndTime) {... */\n    tag_93:\n        /* \"Auction.sol\":1713:1731  AuctionState.Ended */\n      0x01\n        /* \"Auction.sol\":1704:1731  state == AuctionState.Ended */\n      dup1\n      dup2\n      gt\n      iszero\n      tag_99\n      jumpi\n      tag_100\n      tag_89\n      jump\t// in\n    tag_100:\n    tag_99:\n        /* \"Auction.sol\":1704:1709  state */\n      0x09\n      0x00\n      swap1\n      sload\n      swap1\n      0x0100\n      exp\n      swap1\n      div\n      0xff\n      and\n        /* \"Auction.sol\":1704:1731  state == AuctionState.Ended */\n      0x01\n      dup2\n      gt\n      iszero\n      tag_101\n      jumpi\n      tag_102\n      tag_89\n      jump\t// in\n    tag_102:\n    tag_101:\n      eq\n        /* \"Auction.sol\":1696:1756  require(state == AuctionState.Ended, \"Auction is not ended\") */\n      tag_103\n      jumpi\n      mload(0x40)\n      0x08c379a000000000000000000000000000000000000000000000000000000000\n      dup2\n      mstore\n      0x04\n      add\n      tag_104\n      swap1\n      tag_105\n      jump\t// in\n    tag_104:\n      mload(0x40)\n      dup1\n      swap2\n      sub\n      swap1\n      revert\n    tag_103:\n        /* \"Auction.sol\":1775:1787  hasWithdrawn */\n      0x08\n        /* \"Auction.sol\":1775:1799  hasWithdrawn[msg.sender] */\n      0x00\n        /* \"Auction.sol\":1788:1798  msg.sender */\n      caller\n        /* \"Auction.sol\":1775:1799  hasWithdrawn[msg.sender] */\n      0xffffffffffffffffffffffffffffffffffffffff\n      and\n      0xffffffffffffffffffffffffffffffffffffffff\n      and\n      dup2\n      mstore\n      0x20\n      add\n      swap1\n      dup2\n      mstore\n      0x20\n      add\n      0x00\n      keccak256\n      0x00\n      swap1\n      sload\n      swap1\n      0x0100\n      exp\n      swap1\n      div\n      0xff\n      and\n        /* \"Auction.sol\":1774:1799  !hasWithdrawn[msg.sender] */\n      iszero\n        /* \"Auction.sol\":1766:1821  require(!hasWithdrawn[msg.sender], \"Already withdrawn\") */\n      tag_106\n      jumpi\n      mload(0x40)\n      0x08c379a000000000000000000000000000000000000000000000000000000000\n      dup2\n      mstore\n      0x04\n      add\n      tag_107\n      swap1\n      tag_108\n      jump\t// in\n    tag_107:\n      mload(0x40)\n      dup1\n      swap2\n      sub\n      swap1\n      revert\n    tag_106:\n        /* \"Auction.sol\":1832:1846  uint256 amount */\n      0x00\n        /* \"Auction.sol\":1849:1853  bids */\n      0x07\n        /* \"Auction.sol\":1849:1865  bids[msg.sender] */\n      0x00\n        /* \"Auction.sol\":1854:1864  msg.sender */\n      caller\n        /* \"Auction.sol\":1849:1865  bids[msg.sender] */\n      0xffffffffffffffffffffffffffffffffffffffff\n      and\n      0xffffffffffffffffffffffffffffffffffffffff\n      and\n      dup2\n      mstore\n      0x20\n      add\n      swap1\n      dup2\n      mstore\n      0x20\n      add\n      0x00\n      keccak256\n      sload\n        /* \"Auction.sol\":1832:1865  uint256 amount = bids[msg.sender] */\n      swap1\n      pop\n        /* \"Auction.sol\":1888:1889  0 */\n      0x00\n        /* \"Auction.sol\":1879:1885  amount */\n      dup2\n        /* \"Auction.sol\":1879:1889  amount > 0 */\n      gt\n        /* \"Auction.sol\":1875:1997  if (amount > 0) {... */\n      iszero\n      tag_109\n      jumpi\n        /* \"Auction.sol\":1932:1936  true */\n      0x01\n        /* \"Auction.sol\":1905:1917  hasWithdrawn */\n      0x08\n        /* \"Auction.sol\":1905:1929  hasWithdrawn[msg.sender] */\n      0x00\n        /* \"Auction.sol\":1918:1928  msg.sender */\n      caller\n        /* \"Auction.sol\":1905:1929  hasWithdrawn[msg.sender] */\n      0xffffffffffffffffffffffffffffffffffffffff\n      and\n      0xffffffffffffffffffffffffffffffffffffffff\n      and\n      dup2\n      mstore\n      0x20\n      add\n      swap1\n      dup2\n      mstore\n      0x20\n      add\n      0x00\n      keccak256\n      0x00\n        /* \"Auction.sol\":1905:1936  hasWithdrawn[msg.sender] = true */\n      0x0100\n      exp\n      dup2\n      sload\n      dup2\n      0xff\n      mul\n      not\n      and\n      swap1\n      dup4\n      iszero\n      iszero\n      mul\n      or\n      swap1\n      sstore\n      pop\n        /* \"Auction.sol\":1958:1968  msg.sender */\n      caller\n        /* \"Auction.sol\":1950:1978  payable(msg.sender).transfer */\n      0xffffffffffffffffffffffffffffffffffffffff\n      and\n        /* \"Auction.sol\":1950:1986  payable(msg.sender).transfer(amount) */\n      0x08fc\n        /* \"Auction.sol\":1979:1985  amount */\n      dup3\n        /* \"Auction.sol\":1950:1986  payable(msg.sender).transfer(amount) */\n      swap1\n      dup2\n      iszero\n      mul\n      swap1\n      mload(0x40)\n      0x00\n      mload(0x40)\n      dup1\n      dup4\n      sub\n      dup2\n      dup6\n      dup9\n      dup9\n      call\n      swap4\n      pop\n      pop\n      pop\n      pop\n      iszero\n      dup1\n      iszero\n      tag_111\n      jumpi\n      returndatasize\n      0x00\n      dup1\n      returndatacopy\n      revert(0x00, returndatasize)\n    tag_111:\n      pop\n        /* \"Auction.sol\":1875:1997  if (amount > 0) {... */\n    tag_109:\n        /* \"Auction.sol\":1686:2003  {... */\n      pop\n        /* \"Auction.sol\":1641:2003  function withdraw() public checkAuctionState {... */\n      jump\t// out\n        /* \"Auction.sol\":120:149  uint256 public auctionEndTime */\n    tag_30:\n      sload(0x01)\n      dup2\n      jump\t// out\n        /* \"Auction.sol\":2711:2804  function getSellerRating() public view returns (uint256) {... */\n    tag_35:\n        /* \"Auction.sol\":2759:2766  uint256 */\n      0x00\n        /* \"Auction.sol\":2785:2797  sellerRating */\n      sload(0x05)\n        /* \"Auction.sol\":2778:2797  return sellerRating */\n      swap1\n      pop\n        /* \"Auction.sol\":2711:2804  function getSellerRating() public view returns (uint256) {... */\n      swap1\n      jump\t// out\n        /* \"Auction.sol\":359:403  mapping(address => bool) public hasWithdrawn */\n    tag_41:\n      mstore(0x20, 0x08)\n      dup1\n      0x00\n      mstore\n      keccak256(0x00, 0x40)\n      0x00\n      swap2\n      pop\n      sload\n      swap1\n      0x0100\n      exp\n      swap1\n      div\n      0xff\n      and\n      dup2\n      jump\t// out\n        /* \"Auction.sol\":314:353  mapping(address => uint256) public bids */\n    tag_47:\n      mstore(0x20, 0x07)\n      dup1\n      0x00\n      mstore\n      keccak256(0x00, 0x40)\n      0x00\n      swap2\n      pop\n      swap1\n      pop\n      sload\n      dup2\n      jump\t// out\n        /* \"Auction.sol\":155:183  address public highestBidder */\n    tag_51:\n      0x02\n      0x00\n      swap1\n      sload\n      swap1\n      0x0100\n      exp\n      swap1\n      div\n      0xffffffffffffffffffffffffffffffffffffffff\n      and\n      dup2\n      jump\t// out\n        /* \"Auction.sol\":284:307  bool public sellerRated */\n    tag_56:\n      0x06\n      0x00\n      swap1\n      sload\n      swap1\n      0x0100\n      exp\n      swap1\n      div\n      0xff\n      and\n      dup2\n      jump\t// out\n        /* \"Auction.sol\":411:436  AuctionState public state */\n    tag_60:\n      0x09\n      0x00\n      swap1\n      sload\n      swap1\n      0x0100\n      exp\n      swap1\n      div\n      0xff\n      and\n      dup2\n      jump\t// out\n        /* \"Auction.sol\":220:245  string public auctionName */\n    tag_65:\n      0x04\n      dup1\n      sload\n      tag_113\n      swap1\n      tag_114\n      jump\t// in\n    tag_113:\n      dup1\n      0x1f\n      add\n      0x20\n      dup1\n      swap2\n      div\n      mul\n      0x20\n      add\n      mload(0x40)\n      swap1\n      dup2\n      add\n      0x40\n      mstore\n      dup1\n      swap3\n      swap2\n      swap1\n      dup2\n      dup2\n      mstore\n      0x20\n      add\n      dup3\n      dup1\n      sload\n      tag_115\n      swap1\n      tag_114\n      jump\t// in\n    tag_115:\n      dup1\n      iszero\n      tag_116\n      jumpi\n      dup1\n      0x1f\n      lt\n      tag_117\n      jumpi\n      0x0100\n      dup1\n      dup4\n      sload\n      div\n      mul\n      dup4\n      mstore\n      swap2\n      0x20\n      add\n      swap2\n      jump(tag_116)\n    tag_117:\n      dup3\n      add\n      swap2\n      swap1\n      0x00\n      mstore\n      keccak256(0x00, 0x20)\n      swap1\n    tag_118:\n      dup2\n      sload\n      dup2\n      mstore\n      swap1\n      0x01\n      add\n      swap1\n      0x20\n      add\n      dup1\n      dup4\n      gt\n      tag_118\n      jumpi\n      dup3\n      swap1\n      sub\n      0x1f\n      and\n      dup3\n      add\n      swap2\n    tag_116:\n      pop\n      pop\n      pop\n      pop\n      pop\n      dup2\n      jump\t// out\n        /* \"Auction.sol\":2294:2705  function rateSeller(uint256 rating) public checkAuctionState {... */\n    tag_72:\n        /* \"Auction.sol\":1042:1061  AuctionState.Active */\n      0x00\n        /* \"Auction.sol\":1033:1061  state == AuctionState.Active */\n      0x01\n      dup2\n      gt\n      iszero\n      tag_120\n      jumpi\n      tag_121\n      tag_89\n      jump\t// in\n    tag_121:\n    tag_120:\n        /* \"Auction.sol\":1033:1038  state */\n      0x09\n      0x00\n      swap1\n      sload\n      swap1\n      0x0100\n      exp\n      swap1\n      div\n      0xff\n      and\n        /* \"Auction.sol\":1033:1061  state == AuctionState.Active */\n      0x01\n      dup2\n      gt\n      iszero\n      tag_122\n      jumpi\n      tag_123\n      tag_89\n      jump\t// in\n    tag_123:\n    tag_122:\n      eq\n        /* \"Auction.sol\":1033:1098  state == AuctionState.Active && block.timestamp >= auctionEndTime */\n      dup1\n      iszero\n      tag_124\n      jumpi\n      pop\n        /* \"Auction.sol\":1084:1098  auctionEndTime */\n      sload(0x01)\n        /* \"Auction.sol\":1065:1080  block.timestamp */\n      timestamp\n        /* \"Auction.sol\":1065:1098  block.timestamp >= auctionEndTime */\n      lt\n      iszero\n        /* \"Auction.sol\":1033:1098  state == AuctionState.Active && block.timestamp >= auctionEndTime */\n    tag_124:\n        /* \"Auction.sol\":1029:1209  if (state == AuctionState.Active && block.timestamp >= auctionEndTime) {... */\n      iszero\n      tag_125\n      jumpi\n        /* \"Auction.sol\":1122:1140  AuctionState.Ended */\n      0x01\n        /* \"Auction.sol\":1114:1119  state */\n      0x09\n      0x00\n        /* \"Auction.sol\":1114:1140  state = AuctionState.Ended */\n      0x0100\n      exp\n      dup2\n      sload\n      dup2\n      0xff\n      mul\n      not\n      and\n      swap1\n      dup4\n      0x01\n      dup2\n      gt\n      iszero\n      tag_126\n      jumpi\n      tag_127\n      tag_89\n      jump\t// in\n    tag_127:\n    tag_126:\n      mul\n      or\n      swap1\n      sstore\n      pop\n        /* \"Auction.sol\":1159:1198  AuctionEnded(highestBidder, highestBid) */\n      0xdaec4582d5d9595688c8c98545fdd1c696d41c6aeaeb636737e84ed2f5c00eda\n        /* \"Auction.sol\":1172:1185  highestBidder */\n      0x02\n      0x00\n      swap1\n      sload\n      swap1\n      0x0100\n      exp\n      swap1\n      div\n      0xffffffffffffffffffffffffffffffffffffffff\n      and\n        /* \"Auction.sol\":1187:1197  highestBid */\n      sload(0x03)\n        /* \"Auction.sol\":1159:1198  AuctionEnded(highestBidder, highestBid) */\n      mload(0x40)\n      tag_128\n      swap3\n      swap2\n      swap1\n      tag_97\n      jump\t// in\n    tag_128:\n      mload(0x40)\n      dup1\n      swap2\n      sub\n      swap1\n      log1\n        /* \"Auction.sol\":1029:1209  if (state == AuctionState.Active && block.timestamp >= auctionEndTime) {... */\n    tag_125:\n        /* \"Auction.sol\":2382:2400  AuctionState.Ended */\n      0x01\n        /* \"Auction.sol\":2373:2400  state == AuctionState.Ended */\n      dup1\n      dup2\n      gt\n      iszero\n      tag_130\n      jumpi\n      tag_131\n      tag_89\n      jump\t// in\n    tag_131:\n    tag_130:\n        /* \"Auction.sol\":2373:2378  state */\n      0x09\n      0x00\n      swap1\n      sload\n      swap1\n      0x0100\n      exp\n      swap1\n      div\n      0xff\n      and\n        /* \"Auction.sol\":2373:2400  state == AuctionState.Ended */\n      0x01\n      dup2\n      gt\n      iszero\n      tag_132\n      jumpi\n      tag_133\n      tag_89\n      jump\t// in\n    tag_133:\n    tag_132:\n      eq\n        /* \"Auction.sol\":2365:2425  require(state == AuctionState.Ended, \"Auction is not ended\") */\n      tag_134\n      jumpi\n      mload(0x40)\n      0x08c379a000000000000000000000000000000000000000000000000000000000\n      dup2\n      mstore\n      0x04\n      add\n      tag_135\n      swap1\n      tag_105\n      jump\t// in\n    tag_135:\n      mload(0x40)\n      dup1\n      swap2\n      sub\n      swap1\n      revert\n    tag_134:\n        /* \"Auction.sol\":2457:2470  highestBidder */\n      0x02\n      0x00\n      swap1\n      sload\n      swap1\n      0x0100\n      exp\n      swap1\n      div\n      0xffffffffffffffffffffffffffffffffffffffff\n      and\n        /* \"Auction.sol\":2443:2470  msg.sender == highestBidder */\n      0xffffffffffffffffffffffffffffffffffffffff\n      and\n        /* \"Auction.sol\":2443:2453  msg.sender */\n      caller\n        /* \"Auction.sol\":2443:2470  msg.sender == highestBidder */\n      0xffffffffffffffffffffffffffffffffffffffff\n      and\n      eq\n        /* \"Auction.sol\":2435:2514  require(msg.sender == highestBidder, \"Only highest bidder can rate the seller\") */\n      tag_136\n      jumpi\n      mload(0x40)\n      0x08c379a000000000000000000000000000000000000000000000000000000000\n      dup2\n      mstore\n      0x04\n      add\n      tag_137\n      swap1\n      tag_138\n      jump\t// in\n    tag_137:\n      mload(0x40)\n      dup1\n      swap2\n      sub\n      swap1\n      revert\n    tag_136:\n        /* \"Auction.sol\":2533:2544  sellerRated */\n      0x06\n      0x00\n      swap1\n      sload\n      swap1\n      0x0100\n      exp\n      swap1\n      div\n      0xff\n      and\n        /* \"Auction.sol\":2532:2544  !sellerRated */\n      iszero\n        /* \"Auction.sol\":2524:2569  require(!sellerRated, \"Seller already rated\") */\n      tag_139\n      jumpi\n      mload(0x40)\n      0x08c379a000000000000000000000000000000000000000000000000000000000\n      dup2\n      mstore\n      0x04\n      add\n      tag_140\n      swap1\n      tag_141\n      jump\t// in\n    tag_140:\n      mload(0x40)\n      dup1\n      swap2\n      sub\n      swap1\n      revert\n    tag_139:\n        /* \"Auction.sol\":2597:2598  1 */\n      0x01\n        /* \"Auction.sol\":2587:2593  rating */\n      dup2\n        /* \"Auction.sol\":2587:2598  rating >= 1 */\n      lt\n      iszero\n        /* \"Auction.sol\":2587:2613  rating >= 1 && rating <= 5 */\n      dup1\n      iszero\n      tag_142\n      jumpi\n      pop\n        /* \"Auction.sol\":2612:2613  5 */\n      0x05\n        /* \"Auction.sol\":2602:2608  rating */\n      dup2\n        /* \"Auction.sol\":2602:2613  rating <= 5 */\n      gt\n      iszero\n        /* \"Auction.sol\":2587:2613  rating >= 1 && rating <= 5 */\n    tag_142:\n        /* \"Auction.sol\":2579:2638  require(rating >= 1 && rating <= 5, \"Invalid rating value\") */\n      tag_143\n      jumpi\n      mload(0x40)\n      0x08c379a000000000000000000000000000000000000000000000000000000000\n      dup2\n      mstore\n      0x04\n      add\n      tag_144\n      swap1\n      tag_145\n      jump\t// in\n    tag_144:\n      mload(0x40)\n      dup1\n      swap2\n      sub\n      swap1\n      revert\n    tag_143:\n        /* \"Auction.sol\":2664:2670  rating */\n      dup1\n        /* \"Auction.sol\":2649:2661  sellerRating */\n      0x05\n        /* \"Auction.sol\":2649:2670  sellerRating = rating */\n      dup2\n      swap1\n      sstore\n      pop\n        /* \"Auction.sol\":2694:2698  true */\n      0x01\n        /* \"Auction.sol\":2680:2691  sellerRated */\n      0x06\n      0x00\n        /* \"Auction.sol\":2680:2698  sellerRated = true */\n      0x0100\n      exp\n      dup2\n      sload\n      dup2\n      0xff\n      mul\n      not\n      and\n      swap1\n      dup4\n      iszero\n      iszero\n      mul\n      or\n      swap1\n      sstore\n      pop\n        /* \"Auction.sol\":2294:2705  function rateSeller(uint256 rating) public checkAuctionState {... */\n      pop\n      jump\t// out\n        /* \"Auction.sol\":189:214  uint256 public highestBid */\n    tag_75:\n      sload(0x03)\n      dup2\n      jump\t// out\n        /* \"Auction.sol\":1232:1635  function placeBid() public payable checkAuctionState {... */\n    tag_78:\n        /* \"Auction.sol\":1042:1061  AuctionState.Active */\n      0x00\n        /* \"Auction.sol\":1033:1061  state == AuctionState.Active */\n      0x01\n      dup2\n      gt\n      iszero\n      tag_147\n      jumpi\n      tag_148\n      tag_89\n      jump\t// in\n    tag_148:\n    tag_147:\n        /* \"Auction.sol\":1033:1038  state */\n      0x09\n      0x00\n      swap1\n      sload\n      swap1\n      0x0100\n      exp\n      swap1\n      div\n      0xff\n      and\n        /* \"Auction.sol\":1033:1061  state == AuctionState.Active */\n      0x01\n      dup2\n      gt\n      iszero\n      tag_149\n      jumpi\n      tag_150\n      tag_89\n      jump\t// in\n    tag_150:\n    tag_149:\n      eq\n        /* \"Auction.sol\":1033:1098  state == AuctionState.Active && block.timestamp >= auctionEndTime */\n      dup1\n      iszero\n      tag_151\n      jumpi\n      pop\n        /* \"Auction.sol\":1084:1098  auctionEndTime */\n      sload(0x01)\n        /* \"Auction.sol\":1065:1080  block.timestamp */\n      timestamp\n        /* \"Auction.sol\":1065:1098  block.timestamp >= auctionEndTime */\n      lt\n      iszero\n        /* \"Auction.sol\":1033:1098  state == AuctionState.Active && block.timestamp >= auctionEndTime */\n    tag_151:\n        /* \"Auction.sol\":1029:1209  if (state == AuctionState.Active && block.timestamp >= auctionEndTime) {... */\n      iszero\n      tag_152\n      jumpi\n        /* \"Auction.sol\":1122:1140  AuctionState.Ended */\n      0x01\n        /* \"Auction.sol\":1114:1119  state */\n      0x09\n      0x00\n        /* \"Auction.sol\":1114:1140  state = AuctionState.Ended */\n      0x0100\n      exp\n      dup2\n      sload\n      dup2\n      0xff\n      mul\n      not\n      and\n      swap1\n      dup4\n      0x01\n      dup2\n      gt\n      iszero\n      tag_153\n      jumpi\n      tag_154\n      tag_89\n      jump\t// in\n    tag_154:\n    tag_153:\n      mul\n      or\n      swap1\n      sstore\n      pop\n        /* \"Auction.sol\":1159:1198  AuctionEnded(highestBidder, highestBid) */\n      0xdaec4582d5d9595688c8c98545fdd1c696d41c6aeaeb636737e84ed2f5c00eda\n        /* \"Auction.sol\":1172:1185  highestBidder */\n      0x02\n      0x00\n      swap1\n      sload\n      swap1\n      0x0100\n      exp\n      swap1\n      div\n      0xffffffffffffffffffffffffffffffffffffffff\n      and\n        /* \"Auction.sol\":1187:1197  highestBid */\n      sload(0x03)\n        /* \"Auction.sol\":1159:1198  AuctionEnded(highestBidder, highestBid) */\n      mload(0x40)\n      tag_155\n      swap3\n      swap2\n      swap1\n      tag_97\n      jump\t// in\n    tag_155:\n      mload(0x40)\n      dup1\n      swap2\n      sub\n      swap1\n      log1\n        /* \"Auction.sol\":1029:1209  if (state == AuctionState.Active && block.timestamp >= auctionEndTime) {... */\n    tag_152:\n        /* \"Auction.sol\":1312:1331  AuctionState.Active */\n      0x00\n        /* \"Auction.sol\":1303:1331  state == AuctionState.Active */\n      0x01\n      dup2\n      gt\n      iszero\n      tag_157\n      jumpi\n      tag_158\n      tag_89\n      jump\t// in\n    tag_158:\n    tag_157:\n        /* \"Auction.sol\":1303:1308  state */\n      0x09\n      0x00\n      swap1\n      sload\n      swap1\n      0x0100\n      exp\n      swap1\n      div\n      0xff\n      and\n        /* \"Auction.sol\":1303:1331  state == AuctionState.Active */\n      0x01\n      dup2\n      gt\n      iszero\n      tag_159\n      jumpi\n      tag_160\n      tag_89\n      jump\t// in\n    tag_160:\n    tag_159:\n      eq\n        /* \"Auction.sol\":1295:1357  require(state == AuctionState.Active, \"Auction is not active\") */\n      tag_161\n      jumpi\n      mload(0x40)\n      0x08c379a000000000000000000000000000000000000000000000000000000000\n      dup2\n      mstore\n      0x04\n      add\n      tag_162\n      swap1\n      tag_163\n      jump\t// in\n    tag_162:\n      mload(0x40)\n      dup1\n      swap2\n      sub\n      swap1\n      revert\n    tag_161:\n        /* \"Auction.sol\":1387:1397  highestBid */\n      sload(0x03)\n        /* \"Auction.sol\":1375:1384  msg.value */\n      callvalue\n        /* \"Auction.sol\":1375:1397  msg.value > highestBid */\n      gt\n        /* \"Auction.sol\":1367:1420  require(msg.value > highestBid, \"Bid amount too low\") */\n      tag_164\n      jumpi\n      mload(0x40)\n      0x08c379a000000000000000000000000000000000000000000000000000000000\n      dup2\n      mstore\n      0x04\n      add\n      tag_165\n      swap1\n      tag_166\n      jump\t// in\n    tag_165:\n      mload(0x40)\n      dup1\n      swap2\n      sub\n      swap1\n      revert\n    tag_164:\n        /* \"Auction.sol\":1449:1450  0 */\n      0x00\n        /* \"Auction.sol\":1435:1445  highestBid */\n      sload(0x03)\n        /* \"Auction.sol\":1435:1450  highestBid != 0 */\n      eq\n        /* \"Auction.sol\":1431:1560  if (highestBid != 0) {... */\n      tag_167\n      jumpi\n        /* \"Auction.sol\":1539:1549  highestBid */\n      sload(0x03)\n        /* \"Auction.sol\":1516:1520  bids */\n      0x07\n        /* \"Auction.sol\":1516:1535  bids[highestBidder] */\n      0x00\n        /* \"Auction.sol\":1521:1534  highestBidder */\n      0x02\n      0x00\n      swap1\n      sload\n      swap1\n      0x0100\n      exp\n      swap1\n      div\n      0xffffffffffffffffffffffffffffffffffffffff\n      and\n        /* \"Auction.sol\":1516:1535  bids[highestBidder] */\n      0xffffffffffffffffffffffffffffffffffffffff\n      and\n      0xffffffffffffffffffffffffffffffffffffffff\n      and\n      dup2\n      mstore\n      0x20\n      add\n      swap1\n      dup2\n      mstore\n      0x20\n      add\n      0x00\n      keccak256\n      0x00\n        /* \"Auction.sol\":1516:1549  bids[highestBidder] += highestBid */\n      dup3\n      dup3\n      sload\n      tag_168\n      swap2\n      swap1\n      tag_169\n      jump\t// in\n    tag_168:\n      swap3\n      pop\n      pop\n      dup2\n      swap1\n      sstore\n      pop\n        /* \"Auction.sol\":1431:1560  if (highestBid != 0) {... */\n    tag_167:\n        /* \"Auction.sol\":1586:1596  msg.sender */\n      caller\n        /* \"Auction.sol\":1570:1583  highestBidder */\n      0x02\n      0x00\n        /* \"Auction.sol\":1570:1596  highestBidder = msg.sender */\n      0x0100\n      exp\n      dup2\n      sload\n      dup2\n      0xffffffffffffffffffffffffffffffffffffffff\n      mul\n      not\n      and\n      swap1\n      dup4\n      0xffffffffffffffffffffffffffffffffffffffff\n      and\n      mul\n      or\n      swap1\n      sstore\n      pop\n        /* \"Auction.sol\":1619:1628  msg.value */\n      callvalue\n        /* \"Auction.sol\":1606:1616  highestBid */\n      0x03\n        /* \"Auction.sol\":1606:1628  highestBid = msg.value */\n      dup2\n      swap1\n      sstore\n      pop\n        /* \"Auction.sol\":1232:1635  function placeBid() public payable checkAuctionState {... */\n      jump\t// out\n        /* \"Auction.sol\":251:278  uint256 public sellerRating */\n    tag_81:\n      sload(0x05)\n      dup2\n      jump\t// out\n        /* \"Auction.sol\":2009:2288  function endAuction() public onlySeller onlyAfterEnd checkAuctionState {... */\n    tag_85:\n        /* \"Auction.sol\":795:801  seller */\n      0x00\n      dup1\n      sload\n      swap1\n      0x0100\n      exp\n      swap1\n      div\n      0xffffffffffffffffffffffffffffffffffffffff\n      and\n        /* \"Auction.sol\":781:801  msg.sender == seller */\n      0xffffffffffffffffffffffffffffffffffffffff\n      and\n        /* \"Auction.sol\":781:791  msg.sender */\n      caller\n        /* \"Auction.sol\":781:801  msg.sender == seller */\n      0xffffffffffffffffffffffffffffffffffffffff\n      and\n      eq\n        /* \"Auction.sol\":773:841  require(msg.sender == seller, \"Only seller can perform this action\") */\n      tag_171\n      jumpi\n      mload(0x40)\n      0x08c379a000000000000000000000000000000000000000000000000000000000\n      dup2\n      mstore\n      0x04\n      add\n      tag_172\n      swap1\n      tag_173\n      jump\t// in\n    tag_172:\n      mload(0x40)\n      dup1\n      swap2\n      sub\n      swap1\n      revert\n    tag_171:\n        /* \"Auction.sol\":926:940  auctionEndTime */\n      sload(0x01)\n        /* \"Auction.sol\":907:922  block.timestamp */\n      timestamp\n        /* \"Auction.sol\":907:940  block.timestamp >= auctionEndTime */\n      lt\n      iszero\n        /* \"Auction.sol\":899:966  require(block.timestamp >= auctionEndTime, \"Auction not yet ended\") */\n      tag_175\n      jumpi\n      mload(0x40)\n      0x08c379a000000000000000000000000000000000000000000000000000000000\n      dup2\n      mstore\n      0x04\n      add\n      tag_176\n      swap1\n      tag_177\n      jump\t// in\n    tag_176:\n      mload(0x40)\n      dup1\n      swap2\n      sub\n      swap1\n      revert\n    tag_175:\n        /* \"Auction.sol\":1042:1061  AuctionState.Active */\n      0x00\n        /* \"Auction.sol\":1033:1061  state == AuctionState.Active */\n      0x01\n      dup2\n      gt\n      iszero\n      tag_179\n      jumpi\n      tag_180\n      tag_89\n      jump\t// in\n    tag_180:\n    tag_179:\n        /* \"Auction.sol\":1033:1038  state */\n      0x09\n      0x00\n      swap1\n      sload\n      swap1\n      0x0100\n      exp\n      swap1\n      div\n      0xff\n      and\n        /* \"Auction.sol\":1033:1061  state == AuctionState.Active */\n      0x01\n      dup2\n      gt\n      iszero\n      tag_181\n      jumpi\n      tag_182\n      tag_89\n      jump\t// in\n    tag_182:\n    tag_181:\n      eq\n        /* \"Auction.sol\":1033:1098  state == AuctionState.Active && block.timestamp >= auctionEndTime */\n      dup1\n      iszero\n      tag_183\n      jumpi\n      pop\n        /* \"Auction.sol\":1084:1098  auctionEndTime */\n      sload(0x01)\n        /* \"Auction.sol\":1065:1080  block.timestamp */\n      timestamp\n        /* \"Auction.sol\":1065:1098  block.timestamp >= auctionEndTime */\n      lt\n      iszero\n        /* \"Auction.sol\":1033:1098  state == AuctionState.Active && block.timestamp >= auctionEndTime */\n    tag_183:\n        /* \"Auction.sol\":1029:1209  if (state == AuctionState.Active && block.timestamp >= auctionEndTime) {... */\n      iszero\n      tag_184\n      jumpi\n        /* \"Auction.sol\":1122:1140  AuctionState.Ended */\n      0x01\n        /* \"Auction.sol\":1114:1119  state */\n      0x09\n      0x00\n        /* \"Auction.sol\":1114:1140  state = AuctionState.Ended */\n      0x0100\n      exp\n      dup2\n      sload\n      dup2\n      0xff\n      mul\n      not\n      and\n      swap1\n      dup4\n      0x01\n      dup2\n      gt\n      iszero\n      tag_185\n      jumpi\n      tag_186\n      tag_89\n      jump\t// in\n    tag_186:\n    tag_185:\n      mul\n      or\n      swap1\n      sstore\n      pop\n        /* \"Auction.sol\":1159:1198  AuctionEnded(highestBidder, highestBid) */\n      0xdaec4582d5d9595688c8c98545fdd1c696d41c6aeaeb636737e84ed2f5c00eda\n        /* \"Auction.sol\":1172:1185  highestBidder */\n      0x02\n      0x00\n      swap1\n      sload\n      swap1\n      0x0100\n      exp\n      swap1\n      div\n      0xffffffffffffffffffffffffffffffffffffffff\n      and\n        /* \"Auction.sol\":1187:1197  highestBid */\n      sload(0x03)\n        /* \"Auction.sol\":1159:1198  AuctionEnded(highestBidder, highestBid) */\n      mload(0x40)\n      tag_187\n      swap3\n      swap2\n      swap1\n      tag_97\n      jump\t// in\n    tag_187:\n      mload(0x40)\n      dup1\n      swap2\n      sub\n      swap1\n      log1\n        /* \"Auction.sol\":1029:1209  if (state == AuctionState.Active && block.timestamp >= auctionEndTime) {... */\n    tag_184:\n        /* \"Auction.sol\":2107:2126  AuctionState.Active */\n      0x00\n        /* \"Auction.sol\":2098:2126  state == AuctionState.Active */\n      0x01\n      dup2\n      gt\n      iszero\n      tag_189\n      jumpi\n      tag_190\n      tag_89\n      jump\t// in\n    tag_190:\n    tag_189:\n        /* \"Auction.sol\":2098:2103  state */\n      0x09\n      0x00\n      swap1\n      sload\n      swap1\n      0x0100\n      exp\n      swap1\n      div\n      0xff\n      and\n        /* \"Auction.sol\":2098:2126  state == AuctionState.Active */\n      0x01\n      dup2\n      gt\n      iszero\n      tag_191\n      jumpi\n      tag_192\n      tag_89\n      jump\t// in\n    tag_192:\n    tag_191:\n      eq\n        /* \"Auction.sol\":2090:2152  require(state == AuctionState.Active, \"Auction is not active\") */\n      tag_193\n      jumpi\n      mload(0x40)\n      0x08c379a000000000000000000000000000000000000000000000000000000000\n      dup2\n      mstore\n      0x04\n      add\n      tag_194\n      swap1\n      tag_163\n      jump\t// in\n    tag_194:\n      mload(0x40)\n      dup1\n      swap2\n      sub\n      swap1\n      revert\n    tag_193:\n        /* \"Auction.sol\":2171:2189  AuctionState.Ended */\n      0x01\n        /* \"Auction.sol\":2163:2168  state */\n      0x09\n      0x00\n        /* \"Auction.sol\":2163:2189  state = AuctionState.Ended */\n      0x0100\n      exp\n      dup2\n      sload\n      dup2\n      0xff\n      mul\n      not\n      and\n      swap1\n      dup4\n      0x01\n      dup2\n      gt\n      iszero\n      tag_195\n      jumpi\n      tag_196\n      tag_89\n      jump\t// in\n    tag_196:\n    tag_195:\n      mul\n      or\n      swap1\n      sstore\n      pop\n        /* \"Auction.sol\":2204:2243  AuctionEnded(highestBidder, highestBid) */\n      0xdaec4582d5d9595688c8c98545fdd1c696d41c6aeaeb636737e84ed2f5c00eda\n        /* \"Auction.sol\":2217:2230  highestBidder */\n      0x02\n      0x00\n      swap1\n      sload\n      swap1\n      0x0100\n      exp\n      swap1\n      div\n      0xffffffffffffffffffffffffffffffffffffffff\n      and\n        /* \"Auction.sol\":2232:2242  highestBid */\n      sload(0x03)\n        /* \"Auction.sol\":2204:2243  AuctionEnded(highestBidder, highestBid) */\n      mload(0x40)\n      tag_197\n      swap3\n      swap2\n      swap1\n      tag_97\n      jump\t// in\n    tag_197:\n      mload(0x40)\n      dup1\n      swap2\n      sub\n      swap1\n      log1\n        /* \"Auction.sol\":2254:2260  seller */\n      0x00\n      dup1\n      sload\n      swap1\n      0x0100\n      exp\n      swap1\n      div\n      0xffffffffffffffffffffffffffffffffffffffff\n      and\n        /* \"Auction.sol\":2254:2269  seller.transfer */\n      0xffffffffffffffffffffffffffffffffffffffff\n      and\n        /* \"Auction.sol\":2254:2281  seller.transfer(highestBid) */\n      0x08fc\n        /* \"Auction.sol\":2270:2280  highestBid */\n      sload(0x03)\n        /* \"Auction.sol\":2254:2281  seller.transfer(highestBid) */\n      swap1\n      dup2\n      iszero\n      mul\n      swap1\n      mload(0x40)\n      0x00\n      mload(0x40)\n      dup1\n      dup4\n      sub\n      dup2\n      dup6\n      dup9\n      dup9\n      call\n      swap4\n      pop\n      pop\n      pop\n      pop\n      iszero\n      dup1\n      iszero\n      tag_199\n      jumpi\n      returndatasize\n      0x00\n      dup1\n      returndatacopy\n      revert(0x00, returndatasize)\n    tag_199:\n      pop\n        /* \"Auction.sol\":2009:2288  function endAuction() public onlySeller onlyAfterEnd checkAuctionState {... */\n      jump\t// out\n        /* \"#utility.yul\":7:133   */\n    tag_200:\n        /* \"#utility.yul\":44:51   */\n      0x00\n        /* \"#utility.yul\":84:126   */\n      0xffffffffffffffffffffffffffffffffffffffff\n        /* \"#utility.yul\":77:82   */\n      dup3\n        /* \"#utility.yul\":73:127   */\n      and\n        /* \"#utility.yul\":62:127   */\n      swap1\n      pop\n        /* \"#utility.yul\":7:133   */\n      swap2\n      swap1\n      pop\n      jump\t// out\n        /* \"#utility.yul\":139:243   */\n    tag_201:\n        /* \"#utility.yul\":184:191   */\n      0x00\n        /* \"#utility.yul\":213:237   */\n      tag_248\n        /* \"#utility.yul\":231:236   */\n      dup3\n        /* \"#utility.yul\":213:237   */\n      tag_200\n      jump\t// in\n    tag_248:\n        /* \"#utility.yul\":202:237   */\n      swap1\n      pop\n        /* \"#utility.yul\":139:243   */\n      swap2\n      swap1\n      pop\n      jump\t// out\n        /* \"#utility.yul\":249:391   */\n    tag_202:\n        /* \"#utility.yul\":352:384   */\n      tag_250\n        /* \"#utility.yul\":378:383   */\n      dup2\n        /* \"#utility.yul\":352:384   */\n      tag_201\n      jump\t// in\n    tag_250:\n        /* \"#utility.yul\":347:350   */\n      dup3\n        /* \"#utility.yul\":340:385   */\n      mstore\n        /* \"#utility.yul\":249:391   */\n      pop\n      pop\n      jump\t// out\n        /* \"#utility.yul\":397:651   */\n    tag_24:\n        /* \"#utility.yul\":506:510   */\n      0x00\n        /* \"#utility.yul\":544:546   */\n      0x20\n        /* \"#utility.yul\":533:542   */\n      dup3\n        /* \"#utility.yul\":529:547   */\n      add\n        /* \"#utility.yul\":521:547   */\n      swap1\n      pop\n        /* \"#utility.yul\":557:644   */\n      tag_252\n        /* \"#utility.yul\":641:642   */\n      0x00\n        /* \"#utility.yul\":630:639   */\n      dup4\n        /* \"#utility.yul\":626:643   */\n      add\n        /* \"#utility.yul\":617:623   */\n      dup5\n        /* \"#utility.yul\":557:644   */\n      tag_202\n      jump\t// in\n    tag_252:\n        /* \"#utility.yul\":397:651   */\n      swap3\n      swap2\n      pop\n      pop\n      jump\t// out\n        /* \"#utility.yul\":657:734   */\n    tag_203:\n        /* \"#utility.yul\":694:701   */\n      0x00\n        /* \"#utility.yul\":723:728   */\n      dup2\n        /* \"#utility.yul\":712:728   */\n      swap1\n      pop\n        /* \"#utility.yul\":657:734   */\n      swap2\n      swap1\n      pop\n      jump\t// out\n        /* \"#utility.yul\":740:858   */\n    tag_204:\n        /* \"#utility.yul\":827:851   */\n      tag_255\n        /* \"#utility.yul\":845:850   */\n      dup2\n        /* \"#utility.yul\":827:851   */\n      tag_203\n      jump\t// in\n    tag_255:\n        /* \"#utility.yul\":822:825   */\n      dup3\n        /* \"#utility.yul\":815:852   */\n      mstore\n        /* \"#utility.yul\":740:858   */\n      pop\n      pop\n      jump\t// out\n        /* \"#utility.yul\":864:1086   */\n    tag_32:\n        /* \"#utility.yul\":957:961   */\n      0x00\n        /* \"#utility.yul\":995:997   */\n      0x20\n        /* \"#utility.yul\":984:993   */\n      dup3\n        /* \"#utility.yul\":980:998   */\n      add\n        /* \"#utility.yul\":972:998   */\n      swap1\n      pop\n        /* \"#utility.yul\":1008:1079   */\n      tag_257\n        /* \"#utility.yul\":1076:1077   */\n      0x00\n        /* \"#utility.yul\":1065:1074   */\n      dup4\n        /* \"#utility.yul\":1061:1078   */\n      add\n        /* \"#utility.yul\":1052:1058   */\n      dup5\n        /* \"#utility.yul\":1008:1079   */\n      tag_204\n      jump\t// in\n    tag_257:\n        /* \"#utility.yul\":864:1086   */\n      swap3\n      swap2\n      pop\n      pop\n      jump\t// out\n        /* \"#utility.yul\":1173:1290   */\n    tag_206:\n        /* \"#utility.yul\":1282:1283   */\n      0x00\n        /* \"#utility.yul\":1279:1280   */\n      dup1\n        /* \"#utility.yul\":1272:1284   */\n      revert\n        /* \"#utility.yul\":1419:1515   */\n    tag_208:\n        /* \"#utility.yul\":1456:1463   */\n      0x00\n        /* \"#utility.yul\":1485:1509   */\n      tag_262\n        /* \"#utility.yul\":1503:1508   */\n      dup3\n        /* \"#utility.yul\":1485:1509   */\n      tag_200\n      jump\t// in\n    tag_262:\n        /* \"#utility.yul\":1474:1509   */\n      swap1\n      pop\n        /* \"#utility.yul\":1419:1515   */\n      swap2\n      swap1\n      pop\n      jump\t// out\n        /* \"#utility.yul\":1521:1643   */\n    tag_209:\n        /* \"#utility.yul\":1594:1618   */\n      tag_264\n        /* \"#utility.yul\":1612:1617   */\n      dup2\n        /* \"#utility.yul\":1594:1618   */\n      tag_208\n      jump\t// in\n    tag_264:\n        /* \"#utility.yul\":1587:1592   */\n      dup2\n        /* \"#utility.yul\":1584:1619   */\n      eq\n        /* \"#utility.yul\":1574:1637   */\n      tag_265\n      jumpi\n        /* \"#utility.yul\":1633:1634   */\n      0x00\n        /* \"#utility.yul\":1630:1631   */\n      dup1\n        /* \"#utility.yul\":1623:1635   */\n      revert\n        /* \"#utility.yul\":1574:1637   */\n    tag_265:\n        /* \"#utility.yul\":1521:1643   */\n      pop\n      jump\t// out\n        /* \"#utility.yul\":1649:1788   */\n    tag_210:\n        /* \"#utility.yul\":1695:1700   */\n      0x00\n        /* \"#utility.yul\":1733:1739   */\n      dup2\n        /* \"#utility.yul\":1720:1740   */\n      calldataload\n        /* \"#utility.yul\":1711:1740   */\n      swap1\n      pop\n        /* \"#utility.yul\":1749:1782   */\n      tag_267\n        /* \"#utility.yul\":1776:1781   */\n      dup2\n        /* \"#utility.yul\":1749:1782   */\n      tag_209\n      jump\t// in\n    tag_267:\n        /* \"#utility.yul\":1649:1788   */\n      swap3\n      swap2\n      pop\n      pop\n      jump\t// out\n        /* \"#utility.yul\":1794:2123   */\n    tag_40:\n        /* \"#utility.yul\":1853:1859   */\n      0x00\n        /* \"#utility.yul\":1902:1904   */\n      0x20\n        /* \"#utility.yul\":1890:1899   */\n      dup3\n        /* \"#utility.yul\":1881:1888   */\n      dup5\n        /* \"#utility.yul\":1877:1900   */\n      sub\n        /* \"#utility.yul\":1873:1905   */\n      slt\n        /* \"#utility.yul\":1870:1989   */\n      iszero\n      tag_269\n      jumpi\n        /* \"#utility.yul\":1908:1987   */\n      tag_270\n      tag_206\n      jump\t// in\n    tag_270:\n        /* \"#utility.yul\":1870:1989   */\n    tag_269:\n        /* \"#utility.yul\":2028:2029   */\n      0x00\n        /* \"#utility.yul\":2053:2106   */\n      tag_271\n        /* \"#utility.yul\":2098:2105   */\n      dup5\n        /* \"#utility.yul\":2089:2095   */\n      dup3\n        /* \"#utility.yul\":2078:2087   */\n      dup6\n        /* \"#utility.yul\":2074:2096   */\n      add\n        /* \"#utility.yul\":2053:2106   */\n      tag_210\n      jump\t// in\n    tag_271:\n        /* \"#utility.yul\":2043:2106   */\n      swap2\n      pop\n        /* \"#utility.yul\":1999:2116   */\n      pop\n        /* \"#utility.yul\":1794:2123   */\n      swap3\n      swap2\n      pop\n      pop\n      jump\t// out\n        /* \"#utility.yul\":2129:2219   */\n    tag_211:\n        /* \"#utility.yul\":2163:2170   */\n      0x00\n        /* \"#utility.yul\":2206:2211   */\n      dup2\n        /* \"#utility.yul\":2199:2212   */\n      iszero\n        /* \"#utility.yul\":2192:2213   */\n      iszero\n        /* \"#utility.yul\":2181:2213   */\n      swap1\n      pop\n        /* \"#utility.yul\":2129:2219   */\n      swap2\n      swap1\n      pop\n      jump\t// out\n        /* \"#utility.yul\":2225:2334   */\n    tag_212:\n        /* \"#utility.yul\":2306:2327   */\n      tag_274\n        /* \"#utility.yul\":2321:2326   */\n      dup2\n        /* \"#utility.yul\":2306:2327   */\n      tag_211\n      jump\t// in\n    tag_274:\n        /* \"#utility.yul\":2301:2304   */\n      dup3\n        /* \"#utility.yul\":2294:2328   */\n      mstore\n        /* \"#utility.yul\":2225:2334   */\n      pop\n      pop\n      jump\t// out\n        /* \"#utility.yul\":2340:2550   */\n    tag_43:\n        /* \"#utility.yul\":2427:2431   */\n      0x00\n        /* \"#utility.yul\":2465:2467   */\n      0x20\n        /* \"#utility.yul\":2454:2463   */\n      dup3\n        /* \"#utility.yul\":2450:2468   */\n      add\n        /* \"#utility.yul\":2442:2468   */\n      swap1\n      pop\n        /* \"#utility.yul\":2478:2543   */\n      tag_276\n        /* \"#utility.yul\":2540:2541   */\n      0x00\n        /* \"#utility.yul\":2529:2538   */\n      dup4\n        /* \"#utility.yul\":2525:2542   */\n      add\n        /* \"#utility.yul\":2516:2522   */\n      dup5\n        /* \"#utility.yul\":2478:2543   */\n      tag_212\n      jump\t// in\n    tag_276:\n        /* \"#utility.yul\":2340:2550   */\n      swap3\n      swap2\n      pop\n      pop\n      jump\t// out\n        /* \"#utility.yul\":2556:2674   */\n    tag_213:\n        /* \"#utility.yul\":2643:2667   */\n      tag_278\n        /* \"#utility.yul\":2661:2666   */\n      dup2\n        /* \"#utility.yul\":2643:2667   */\n      tag_208\n      jump\t// in\n    tag_278:\n        /* \"#utility.yul\":2638:2641   */\n      dup3\n        /* \"#utility.yul\":2631:2668   */\n      mstore\n        /* \"#utility.yul\":2556:2674   */\n      pop\n      pop\n      jump\t// out\n        /* \"#utility.yul\":2680:2902   */\n    tag_53:\n        /* \"#utility.yul\":2773:2777   */\n      0x00\n        /* \"#utility.yul\":2811:2813   */\n      0x20\n        /* \"#utility.yul\":2800:2809   */\n      dup3\n        /* \"#utility.yul\":2796:2814   */\n      add\n        /* \"#utility.yul\":2788:2814   */\n      swap1\n      pop\n        /* \"#utility.yul\":2824:2895   */\n      tag_280\n        /* \"#utility.yul\":2892:2893   */\n      0x00\n        /* \"#utility.yul\":2881:2890   */\n      dup4\n        /* \"#utility.yul\":2877:2894   */\n      add\n        /* \"#utility.yul\":2868:2874   */\n      dup5\n        /* \"#utility.yul\":2824:2895   */\n      tag_213\n      jump\t// in\n    tag_280:\n        /* \"#utility.yul\":2680:2902   */\n      swap3\n      swap2\n      pop\n      pop\n      jump\t// out\n        /* \"#utility.yul\":2908:3088   */\n    tag_89:\n        /* \"#utility.yul\":2956:3033   */\n      0x4e487b7100000000000000000000000000000000000000000000000000000000\n        /* \"#utility.yul\":2953:2954   */\n      0x00\n        /* \"#utility.yul\":2946:3034   */\n      mstore\n        /* \"#utility.yul\":3053:3057   */\n      0x21\n        /* \"#utility.yul\":3050:3051   */\n      0x04\n        /* \"#utility.yul\":3043:3058   */\n      mstore\n        /* \"#utility.yul\":3077:3081   */\n      0x24\n        /* \"#utility.yul\":3074:3075   */\n      0x00\n        /* \"#utility.yul\":3067:3082   */\n      revert\n        /* \"#utility.yul\":3094:3213   */\n    tag_214:\n        /* \"#utility.yul\":3181:3182   */\n      0x02\n        /* \"#utility.yul\":3174:3179   */\n      dup2\n        /* \"#utility.yul\":3171:3183   */\n      lt\n        /* \"#utility.yul\":3161:3207   */\n      tag_283\n      jumpi\n        /* \"#utility.yul\":3187:3205   */\n      tag_284\n      tag_89\n      jump\t// in\n    tag_284:\n        /* \"#utility.yul\":3161:3207   */\n    tag_283:\n        /* \"#utility.yul\":3094:3213   */\n      pop\n      jump\t// out\n        /* \"#utility.yul\":3219:3358   */\n    tag_215:\n        /* \"#utility.yul\":3270:3277   */\n      0x00\n        /* \"#utility.yul\":3299:3304   */\n      dup2\n        /* \"#utility.yul\":3288:3304   */\n      swap1\n      pop\n        /* \"#utility.yul\":3305:3352   */\n      tag_286\n        /* \"#utility.yul\":3346:3351   */\n      dup3\n        /* \"#utility.yul\":3305:3352   */\n      tag_214\n      jump\t// in\n    tag_286:\n        /* \"#utility.yul\":3219:3358   */\n      swap2\n      swap1\n      pop\n      jump\t// out\n        /* \"#utility.yul\":3364:3503   */\n    tag_216:\n        /* \"#utility.yul\":3426:3435   */\n      0x00\n        /* \"#utility.yul\":3459:3497   */\n      tag_288\n        /* \"#utility.yul\":3491:3496   */\n      dup3\n        /* \"#utility.yul\":3459:3497   */\n      tag_215\n      jump\t// in\n    tag_288:\n        /* \"#utility.yul\":3446:3497   */\n      swap1\n      pop\n        /* \"#utility.yul\":3364:3503   */\n      swap2\n      swap1\n      pop\n      jump\t// out\n        /* \"#utility.yul\":3509:3664   */\n    tag_217:\n        /* \"#utility.yul\":3608:3657   */\n      tag_290\n        /* \"#utility.yul\":3651:3656   */\n      dup2\n        /* \"#utility.yul\":3608:3657   */\n      tag_216\n      jump\t// in\n    tag_290:\n        /* \"#utility.yul\":3603:3606   */\n      dup3\n        /* \"#utility.yul\":3596:3658   */\n      mstore\n        /* \"#utility.yul\":3509:3664   */\n      pop\n      pop\n      jump\t// out\n        /* \"#utility.yul\":3670:3916   */\n    tag_62:\n        /* \"#utility.yul\":3775:3779   */\n      0x00\n        /* \"#utility.yul\":3813:3815   */\n      0x20\n        /* \"#utility.yul\":3802:3811   */\n      dup3\n        /* \"#utility.yul\":3798:3816   */\n      add\n        /* \"#utility.yul\":3790:3816   */\n      swap1\n      pop\n        /* \"#utility.yul\":3826:3909   */\n      tag_292\n        /* \"#utility.yul\":3906:3907   */\n      0x00\n        /* \"#utility.yul\":3895:3904   */\n      dup4\n        /* \"#utility.yul\":3891:3908   */\n      add\n        /* \"#utility.yul\":3882:3888   */\n      dup5\n        /* \"#utility.yul\":3826:3909   */\n      tag_217\n      jump\t// in\n    tag_292:\n        /* \"#utility.yul\":3670:3916   */\n      swap3\n      swap2\n      pop\n      pop\n      jump\t// out\n        /* \"#utility.yul\":3922:4021   */\n    tag_218:\n        /* \"#utility.yul\":3974:3980   */\n      0x00\n        /* \"#utility.yul\":4008:4013   */\n      dup2\n        /* \"#utility.yul\":4002:4014   */\n      mload\n        /* \"#utility.yul\":3992:4014   */\n      swap1\n      pop\n        /* \"#utility.yul\":3922:4021   */\n      swap2\n      swap1\n      pop\n      jump\t// out\n        /* \"#utility.yul\":4027:4196   */\n    tag_219:\n        /* \"#utility.yul\":4111:4122   */\n      0x00\n        /* \"#utility.yul\":4145:4151   */\n      dup3\n        /* \"#utility.yul\":4140:4143   */\n      dup3\n        /* \"#utility.yul\":4133:4152   */\n      mstore\n        /* \"#utility.yul\":4185:4189   */\n      0x20\n        /* \"#utility.yul\":4180:4183   */\n      dup3\n        /* \"#utility.yul\":4176:4190   */\n      add\n        /* \"#utility.yul\":4161:4190   */\n      swap1\n      pop\n        /* \"#utility.yul\":4027:4196   */\n      swap3\n      swap2\n      pop\n      pop\n      jump\t// out\n        /* \"#utility.yul\":4202:4448   */\n    tag_220:\n        /* \"#utility.yul\":4283:4284   */\n      0x00\n        /* \"#utility.yul\":4293:4406   */\n    tag_296:\n        /* \"#utility.yul\":4307:4313   */\n      dup4\n        /* \"#utility.yul\":4304:4305   */\n      dup2\n        /* \"#utility.yul\":4301:4314   */\n      lt\n        /* \"#utility.yul\":4293:4406   */\n      iszero\n      tag_298\n      jumpi\n        /* \"#utility.yul\":4392:4393   */\n      dup1\n        /* \"#utility.yul\":4387:4390   */\n      dup3\n        /* \"#utility.yul\":4383:4394   */\n      add\n        /* \"#utility.yul\":4377:4395   */\n      mload\n        /* \"#utility.yul\":4373:4374   */\n      dup2\n        /* \"#utility.yul\":4368:4371   */\n      dup5\n        /* \"#utility.yul\":4364:4375   */\n      add\n        /* \"#utility.yul\":4357:4396   */\n      mstore\n        /* \"#utility.yul\":4329:4331   */\n      0x20\n        /* \"#utility.yul\":4326:4327   */\n      dup2\n        /* \"#utility.yul\":4322:4332   */\n      add\n        /* \"#utility.yul\":4317:4332   */\n      swap1\n      pop\n        /* \"#utility.yul\":4293:4406   */\n      jump(tag_296)\n    tag_298:\n        /* \"#utility.yul\":4440:4441   */\n      0x00\n        /* \"#utility.yul\":4431:4437   */\n      dup5\n        /* \"#utility.yul\":4426:4429   */\n      dup5\n        /* \"#utility.yul\":4422:4438   */\n      add\n        /* \"#utility.yul\":4415:4442   */\n      mstore\n        /* \"#utility.yul\":4264:4448   */\n      pop\n        /* \"#utility.yul\":4202:4448   */\n      pop\n      pop\n      pop\n      jump\t// out\n        /* \"#utility.yul\":4454:4556   */\n    tag_221:\n        /* \"#utility.yul\":4495:4501   */\n      0x00\n        /* \"#utility.yul\":4546:4548   */\n      0x1f\n        /* \"#utility.yul\":4542:4549   */\n      not\n        /* \"#utility.yul\":4537:4539   */\n      0x1f\n        /* \"#utility.yul\":4530:4535   */\n      dup4\n        /* \"#utility.yul\":4526:4540   */\n      add\n        /* \"#utility.yul\":4522:4550   */\n      and\n        /* \"#utility.yul\":4512:4550   */\n      swap1\n      pop\n        /* \"#utility.yul\":4454:4556   */\n      swap2\n      swap1\n      pop\n      jump\t// out\n        /* \"#utility.yul\":4562:4939   */\n    tag_222:\n        /* \"#utility.yul\":4650:4653   */\n      0x00\n        /* \"#utility.yul\":4678:4717   */\n      tag_301\n        /* \"#utility.yul\":4711:4716   */\n      dup3\n        /* \"#utility.yul\":4678:4717   */\n      tag_218\n      jump\t// in\n    tag_301:\n        /* \"#utility.yul\":4733:4804   */\n      tag_302\n        /* \"#utility.yul\":4797:4803   */\n      dup2\n        /* \"#utility.yul\":4792:4795   */\n      dup6\n        /* \"#utility.yul\":4733:4804   */\n      tag_219\n      jump\t// in\n    tag_302:\n        /* \"#utility.yul\":4726:4804   */\n      swap4\n      pop\n        /* \"#utility.yul\":4813:4878   */\n      tag_303\n        /* \"#utility.yul\":4871:4877   */\n      dup2\n        /* \"#utility.yul\":4866:4869   */\n      dup6\n        /* \"#utility.yul\":4859:4863   */\n      0x20\n        /* \"#utility.yul\":4852:4857   */\n      dup7\n        /* \"#utility.yul\":4848:4864   */\n      add\n        /* \"#utility.yul\":4813:4878   */\n      tag_220\n      jump\t// in\n    tag_303:\n        /* \"#utility.yul\":4903:4932   */\n      tag_304\n        /* \"#utility.yul\":4925:4931   */\n      dup2\n        /* \"#utility.yul\":4903:4932   */\n      tag_221\n      jump\t// in\n    tag_304:\n        /* \"#utility.yul\":4898:4901   */\n      dup5\n        /* \"#utility.yul\":4894:4933   */\n      add\n        /* \"#utility.yul\":4887:4933   */\n      swap2\n      pop\n        /* \"#utility.yul\":4654:4939   */\n      pop\n        /* \"#utility.yul\":4562:4939   */\n      swap3\n      swap2\n      pop\n      pop\n      jump\t// out\n        /* \"#utility.yul\":4945:5258   */\n    tag_67:\n        /* \"#utility.yul\":5058:5062   */\n      0x00\n        /* \"#utility.yul\":5096:5098   */\n      0x20\n        /* \"#utility.yul\":5085:5094   */\n      dup3\n        /* \"#utility.yul\":5081:5099   */\n      add\n        /* \"#utility.yul\":5073:5099   */\n      swap1\n      pop\n        /* \"#utility.yul\":5145:5154   */\n      dup2\n        /* \"#utility.yul\":5139:5143   */\n      dup2\n        /* \"#utility.yul\":5135:5155   */\n      sub\n        /* \"#utility.yul\":5131:5132   */\n      0x00\n        /* \"#utility.yul\":5120:5129   */\n      dup4\n        /* \"#utility.yul\":5116:5133   */\n      add\n        /* \"#utility.yul\":5109:5156   */\n      mstore\n        /* \"#utility.yul\":5173:5251   */\n      tag_306\n        /* \"#utility.yul\":5246:5250   */\n      dup2\n        /* \"#utility.yul\":5237:5243   */\n      dup5\n        /* \"#utility.yul\":5173:5251   */\n      tag_222\n      jump\t// in\n    tag_306:\n        /* \"#utility.yul\":5165:5251   */\n      swap1\n      pop\n        /* \"#utility.yul\":4945:5258   */\n      swap3\n      swap2\n      pop\n      pop\n      jump\t// out\n        /* \"#utility.yul\":5264:5386   */\n    tag_223:\n        /* \"#utility.yul\":5337:5361   */\n      tag_308\n        /* \"#utility.yul\":5355:5360   */\n      dup2\n        /* \"#utility.yul\":5337:5361   */\n      tag_203\n      jump\t// in\n    tag_308:\n        /* \"#utility.yul\":5330:5335   */\n      dup2\n        /* \"#utility.yul\":5327:5362   */\n      eq\n        /* \"#utility.yul\":5317:5380   */\n      tag_309\n      jumpi\n        /* \"#utility.yul\":5376:5377   */\n      0x00\n        /* \"#utility.yul\":5373:5374   */\n      dup1\n        /* \"#utility.yul\":5366:5378   */\n      revert\n        /* \"#utility.yul\":5317:5380   */\n    tag_309:\n        /* \"#utility.yul\":5264:5386   */\n      pop\n      jump\t// out\n        /* \"#utility.yul\":5392:5531   */\n    tag_224:\n        /* \"#utility.yul\":5438:5443   */\n      0x00\n        /* \"#utility.yul\":5476:5482   */\n      dup2\n        /* \"#utility.yul\":5463:5483   */\n      calldataload\n        /* \"#utility.yul\":5454:5483   */\n      swap1\n      pop\n        /* \"#utility.yul\":5492:5525   */\n      tag_311\n        /* \"#utility.yul\":5519:5524   */\n      dup2\n        /* \"#utility.yul\":5492:5525   */\n      tag_223\n      jump\t// in\n    tag_311:\n        /* \"#utility.yul\":5392:5531   */\n      swap3\n      swap2\n      pop\n      pop\n      jump\t// out\n        /* \"#utility.yul\":5537:5866   */\n    tag_71:\n        /* \"#utility.yul\":5596:5602   */\n      0x00\n        /* \"#utility.yul\":5645:5647   */\n      0x20\n        /* \"#utility.yul\":5633:5642   */\n      dup3\n        /* \"#utility.yul\":5624:5631   */\n      dup5\n        /* \"#utility.yul\":5620:5643   */\n      sub\n        /* \"#utility.yul\":5616:5648   */\n      slt\n        /* \"#utility.yul\":5613:5732   */\n      iszero\n      tag_313\n      jumpi\n        /* \"#utility.yul\":5651:5730   */\n      tag_314\n      tag_206\n      jump\t// in\n    tag_314:\n        /* \"#utility.yul\":5613:5732   */\n    tag_313:\n        /* \"#utility.yul\":5771:5772   */\n      0x00\n        /* \"#utility.yul\":5796:5849   */\n      tag_315\n        /* \"#utility.yul\":5841:5848   */\n      dup5\n        /* \"#utility.yul\":5832:5838   */\n      dup3\n        /* \"#utility.yul\":5821:5830   */\n      dup6\n        /* \"#utility.yul\":5817:5839   */\n      add\n        /* \"#utility.yul\":5796:5849   */\n      tag_224\n      jump\t// in\n    tag_315:\n        /* \"#utility.yul\":5786:5849   */\n      swap2\n      pop\n        /* \"#utility.yul\":5742:5859   */\n      pop\n        /* \"#utility.yul\":5537:5866   */\n      swap3\n      swap2\n      pop\n      pop\n      jump\t// out\n        /* \"#utility.yul\":5872:6204   */\n    tag_97:\n        /* \"#utility.yul\":5993:5997   */\n      0x00\n        /* \"#utility.yul\":6031:6033   */\n      0x40\n        /* \"#utility.yul\":6020:6029   */\n      dup3\n        /* \"#utility.yul\":6016:6034   */\n      add\n        /* \"#utility.yul\":6008:6034   */\n      swap1\n      pop\n        /* \"#utility.yul\":6044:6115   */\n      tag_317\n        /* \"#utility.yul\":6112:6113   */\n      0x00\n        /* \"#utility.yul\":6101:6110   */\n      dup4\n        /* \"#utility.yul\":6097:6114   */\n      add\n        /* \"#utility.yul\":6088:6094   */\n      dup6\n        /* \"#utility.yul\":6044:6115   */\n      tag_213\n      jump\t// in\n    tag_317:\n        /* \"#utility.yul\":6125:6197   */\n      tag_318\n        /* \"#utility.yul\":6193:6195   */\n      0x20\n        /* \"#utility.yul\":6182:6191   */\n      dup4\n        /* \"#utility.yul\":6178:6196   */\n      add\n        /* \"#utility.yul\":6169:6175   */\n      dup5\n        /* \"#utility.yul\":6125:6197   */\n      tag_204\n      jump\t// in\n    tag_318:\n        /* \"#utility.yul\":5872:6204   */\n      swap4\n      swap3\n      pop\n      pop\n      pop\n      jump\t// out\n        /* \"#utility.yul\":6210:6380   */\n    tag_225:\n        /* \"#utility.yul\":6350:6372   */\n      0x41756374696f6e206973206e6f7420656e646564000000000000000000000000\n        /* \"#utility.yul\":6346:6347   */\n      0x00\n        /* \"#utility.yul\":6338:6344   */\n      dup3\n        /* \"#utility.yul\":6334:6348   */\n      add\n        /* \"#utility.yul\":6327:6373   */\n      mstore\n        /* \"#utility.yul\":6210:6380   */\n      pop\n      jump\t// out\n        /* \"#utility.yul\":6386:6752   */\n    tag_226:\n        /* \"#utility.yul\":6528:6531   */\n      0x00\n        /* \"#utility.yul\":6549:6616   */\n      tag_321\n        /* \"#utility.yul\":6613:6615   */\n      0x14\n        /* \"#utility.yul\":6608:6611   */\n      dup4\n        /* \"#utility.yul\":6549:6616   */\n      tag_219\n      jump\t// in\n    tag_321:\n        /* \"#utility.yul\":6542:6616   */\n      swap2\n      pop\n        /* \"#utility.yul\":6625:6718   */\n      tag_322\n        /* \"#utility.yul\":6714:6717   */\n      dup3\n        /* \"#utility.yul\":6625:6718   */\n      tag_225\n      jump\t// in\n    tag_322:\n        /* \"#utility.yul\":6743:6745   */\n      0x20\n        /* \"#utility.yul\":6738:6741   */\n      dup3\n        /* \"#utility.yul\":6734:6746   */\n      add\n        /* \"#utility.yul\":6727:6746   */\n      swap1\n      pop\n        /* \"#utility.yul\":6386:6752   */\n      swap2\n      swap1\n      pop\n      jump\t// out\n        /* \"#utility.yul\":6758:7177   */\n    tag_105:\n        /* \"#utility.yul\":6924:6928   */\n      0x00\n        /* \"#utility.yul\":6962:6964   */\n      0x20\n        /* \"#utility.yul\":6951:6960   */\n      dup3\n        /* \"#utility.yul\":6947:6965   */\n      add\n        /* \"#utility.yul\":6939:6965   */\n      swap1\n      pop\n        /* \"#utility.yul\":7011:7020   */\n      dup2\n        /* \"#utility.yul\":7005:7009   */\n      dup2\n        /* \"#utility.yul\":7001:7021   */\n      sub\n        /* \"#utility.yul\":6997:6998   */\n      0x00\n        /* \"#utility.yul\":6986:6995   */\n      dup4\n        /* \"#utility.yul\":6982:6999   */\n      add\n        /* \"#utility.yul\":6975:7022   */\n      mstore\n        /* \"#utility.yul\":7039:7170   */\n      tag_324\n        /* \"#utility.yul\":7165:7169   */\n      dup2\n        /* \"#utility.yul\":7039:7170   */\n      tag_226\n      jump\t// in\n    tag_324:\n        /* \"#utility.yul\":7031:7170   */\n      swap1\n      pop\n        /* \"#utility.yul\":6758:7177   */\n      swap2\n      swap1\n      pop\n      jump\t// out\n        /* \"#utility.yul\":7183:7350   */\n    tag_227:\n        /* \"#utility.yul\":7323:7342   */\n      0x416c72656164792077697468647261776e000000000000000000000000000000\n        /* \"#utility.yul\":7319:7320   */\n      0x00\n        /* \"#utility.yul\":7311:7317   */\n      dup3\n        /* \"#utility.yul\":7307:7321   */\n      add\n        /* \"#utility.yul\":7300:7343   */\n      mstore\n        /* \"#utility.yul\":7183:7350   */\n      pop\n      jump\t// out\n        /* \"#utility.yul\":7356:7722   */\n    tag_228:\n        /* \"#utility.yul\":7498:7501   */\n      0x00\n        /* \"#utility.yul\":7519:7586   */\n      tag_327\n        /* \"#utility.yul\":7583:7585   */\n      0x11\n        /* \"#utility.yul\":7578:7581   */\n      dup4\n        /* \"#utility.yul\":7519:7586   */\n      tag_219\n      jump\t// in\n    tag_327:\n        /* \"#utility.yul\":7512:7586   */\n      swap2\n      pop\n        /* \"#utility.yul\":7595:7688   */\n      tag_328\n        /* \"#utility.yul\":7684:7687   */\n      dup3\n        /* \"#utility.yul\":7595:7688   */\n      tag_227\n      jump\t// in\n    tag_328:\n        /* \"#utility.yul\":7713:7715   */\n      0x20\n        /* \"#utility.yul\":7708:7711   */\n      dup3\n        /* \"#utility.yul\":7704:7716   */\n      add\n        /* \"#utility.yul\":7697:7716   */\n      swap1\n      pop\n        /* \"#utility.yul\":7356:7722   */\n      swap2\n      swap1\n      pop\n      jump\t// out\n        /* \"#utility.yul\":7728:8147   */\n    tag_108:\n        /* \"#utility.yul\":7894:7898   */\n      0x00\n        /* \"#utility.yul\":7932:7934   */\n      0x20\n        /* \"#utility.yul\":7921:7930   */\n      dup3\n        /* \"#utility.yul\":7917:7935   */\n      add\n        /* \"#utility.yul\":7909:7935   */\n      swap1\n      pop\n        /* \"#utility.yul\":7981:7990   */\n      dup2\n        /* \"#utility.yul\":7975:7979   */\n      dup2\n        /* \"#utility.yul\":7971:7991   */\n      sub\n        /* \"#utility.yul\":7967:7968   */\n      0x00\n        /* \"#utility.yul\":7956:7965   */\n      dup4\n        /* \"#utility.yul\":7952:7969   */\n      add\n        /* \"#utility.yul\":7945:7992   */\n      mstore\n        /* \"#utility.yul\":8009:8140   */\n      tag_330\n        /* \"#utility.yul\":8135:8139   */\n      dup2\n        /* \"#utility.yul\":8009:8140   */\n      tag_228\n      jump\t// in\n    tag_330:\n        /* \"#utility.yul\":8001:8140   */\n      swap1\n      pop\n        /* \"#utility.yul\":7728:8147   */\n      swap2\n      swap1\n      pop\n      jump\t// out\n        /* \"#utility.yul\":8153:8333   */\n    tag_229:\n        /* \"#utility.yul\":8201:8278   */\n      0x4e487b7100000000000000000000000000000000000000000000000000000000\n        /* \"#utility.yul\":8198:8199   */\n      0x00\n        /* \"#utility.yul\":8191:8279   */\n      mstore\n        /* \"#utility.yul\":8298:8302   */\n      0x22\n        /* \"#utility.yul\":8295:8296   */\n      0x04\n        /* \"#utility.yul\":8288:8303   */\n      mstore\n        /* \"#utility.yul\":8322:8326   */\n      0x24\n        /* \"#utility.yul\":8319:8320   */\n      0x00\n        /* \"#utility.yul\":8312:8327   */\n      revert\n        /* \"#utility.yul\":8339:8659   */\n    tag_114:\n        /* \"#utility.yul\":8383:8389   */\n      0x00\n        /* \"#utility.yul\":8420:8421   */\n      0x02\n        /* \"#utility.yul\":8414:8418   */\n      dup3\n        /* \"#utility.yul\":8410:8422   */\n      div\n        /* \"#utility.yul\":8400:8422   */\n      swap1\n      pop\n        /* \"#utility.yul\":8467:8468   */\n      0x01\n        /* \"#utility.yul\":8461:8465   */\n      dup3\n        /* \"#utility.yul\":8457:8469   */\n      and\n        /* \"#utility.yul\":8488:8506   */\n      dup1\n        /* \"#utility.yul\":8478:8559   */\n      tag_333\n      jumpi\n        /* \"#utility.yul\":8544:8548   */\n      0x7f\n        /* \"#utility.yul\":8536:8542   */\n      dup3\n        /* \"#utility.yul\":8532:8549   */\n      and\n        /* \"#utility.yul\":8522:8549   */\n      swap2\n      pop\n        /* \"#utility.yul\":8478:8559   */\n    tag_333:\n        /* \"#utility.yul\":8606:8608   */\n      0x20\n        /* \"#utility.yul\":8598:8604   */\n      dup3\n        /* \"#utility.yul\":8595:8609   */\n      lt\n        /* \"#utility.yul\":8575:8593   */\n      dup2\n        /* \"#utility.yul\":8572:8610   */\n      sub\n        /* \"#utility.yul\":8569:8653   */\n      tag_334\n      jumpi\n        /* \"#utility.yul\":8625:8643   */\n      tag_335\n      tag_229\n      jump\t// in\n    tag_335:\n        /* \"#utility.yul\":8569:8653   */\n    tag_334:\n        /* \"#utility.yul\":8390:8659   */\n      pop\n        /* \"#utility.yul\":8339:8659   */\n      swap2\n      swap1\n      pop\n      jump\t// out\n        /* \"#utility.yul\":8665:8891   */\n    tag_230:\n        /* \"#utility.yul\":8805:8839   */\n      0x4f6e6c792068696768657374206269646465722063616e207261746520746865\n        /* \"#utility.yul\":8801:8802   */\n      0x00\n        /* \"#utility.yul\":8793:8799   */\n      dup3\n        /* \"#utility.yul\":8789:8803   */\n      add\n        /* \"#utility.yul\":8782:8840   */\n      mstore\n        /* \"#utility.yul\":8874:8883   */\n      0x2073656c6c657200000000000000000000000000000000000000000000000000\n        /* \"#utility.yul\":8869:8871   */\n      0x20\n        /* \"#utility.yul\":8861:8867   */\n      dup3\n        /* \"#utility.yul\":8857:8872   */\n      add\n        /* \"#utility.yul\":8850:8884   */\n      mstore\n        /* \"#utility.yul\":8665:8891   */\n      pop\n      jump\t// out\n        /* \"#utility.yul\":8897:9263   */\n    tag_231:\n        /* \"#utility.yul\":9039:9042   */\n      0x00\n        /* \"#utility.yul\":9060:9127   */\n      tag_338\n        /* \"#utility.yul\":9124:9126   */\n      0x27\n        /* \"#utility.yul\":9119:9122   */\n      dup4\n        /* \"#utility.yul\":9060:9127   */\n      tag_219\n      jump\t// in\n    tag_338:\n        /* \"#utility.yul\":9053:9127   */\n      swap2\n      pop\n        /* \"#utility.yul\":9136:9229   */\n      tag_339\n        /* \"#utility.yul\":9225:9228   */\n      dup3\n        /* \"#utility.yul\":9136:9229   */\n      tag_230\n      jump\t// in\n    tag_339:\n        /* \"#utility.yul\":9254:9256   */\n      0x40\n        /* \"#utility.yul\":9249:9252   */\n      dup3\n        /* \"#utility.yul\":9245:9257   */\n      add\n        /* \"#utility.yul\":9238:9257   */\n      swap1\n      pop\n        /* \"#utility.yul\":8897:9263   */\n      swap2\n      swap1\n      pop\n      jump\t// out\n        /* \"#utility.yul\":9269:9688   */\n    tag_138:\n        /* \"#utility.yul\":9435:9439   */\n      0x00\n        /* \"#utility.yul\":9473:9475   */\n      0x20\n        /* \"#utility.yul\":9462:9471   */\n      dup3\n        /* \"#utility.yul\":9458:9476   */\n      add\n        /* \"#utility.yul\":9450:9476   */\n      swap1\n      pop\n        /* \"#utility.yul\":9522:9531   */\n      dup2\n        /* \"#utility.yul\":9516:9520   */\n      dup2\n        /* \"#utility.yul\":9512:9532   */\n      sub\n        /* \"#utility.yul\":9508:9509   */\n      0x00\n        /* \"#utility.yul\":9497:9506   */\n      dup4\n        /* \"#utility.yul\":9493:9510   */\n      add\n        /* \"#utility.yul\":9486:9533   */\n      mstore\n        /* \"#utility.yul\":9550:9681   */\n      tag_341\n        /* \"#utility.yul\":9676:9680   */\n      dup2\n        /* \"#utility.yul\":9550:9681   */\n      tag_231\n      jump\t// in\n    tag_341:\n        /* \"#utility.yul\":9542:9681   */\n      swap1\n      pop\n        /* \"#utility.yul\":9269:9688   */\n      swap2\n      swap1\n      pop\n      jump\t// out\n        /* \"#utility.yul\":9694:9864   */\n    tag_232:\n        /* \"#utility.yul\":9834:9856   */\n      0x53656c6c657220616c7265616479207261746564000000000000000000000000\n        /* \"#utility.yul\":9830:9831   */\n      0x00\n        /* \"#utility.yul\":9822:9828   */\n      dup3\n        /* \"#utility.yul\":9818:9832   */\n      add\n        /* \"#utility.yul\":9811:9857   */\n      mstore\n        /* \"#utility.yul\":9694:9864   */\n      pop\n      jump\t// out\n        /* \"#utility.yul\":9870:10236   */\n    tag_233:\n        /* \"#utility.yul\":10012:10015   */\n      0x00\n        /* \"#utility.yul\":10033:10100   */\n      tag_344\n        /* \"#utility.yul\":10097:10099   */\n      0x14\n        /* \"#utility.yul\":10092:10095   */\n      dup4\n        /* \"#utility.yul\":10033:10100   */\n      tag_219\n      jump\t// in\n    tag_344:\n        /* \"#utility.yul\":10026:10100   */\n      swap2\n      pop\n        /* \"#utility.yul\":10109:10202   */\n      tag_345\n        /* \"#utility.yul\":10198:10201   */\n      dup3\n        /* \"#utility.yul\":10109:10202   */\n      tag_232\n      jump\t// in\n    tag_345:\n        /* \"#utility.yul\":10227:10229   */\n      0x20\n        /* \"#utility.yul\":10222:10225   */\n      dup3\n        /* \"#utility.yul\":10218:10230   */\n      add\n        /* \"#utility.yul\":10211:10230   */\n      swap1\n      pop\n        /* \"#utility.yul\":9870:10236   */\n      swap2\n      swap1\n      pop\n      jump\t// out\n        /* \"#utility.yul\":10242:10661   */\n    tag_141:\n        /* \"#utility.yul\":10408:10412   */\n      0x00\n        /* \"#utility.yul\":10446:10448   */\n      0x20\n        /* \"#utility.yul\":10435:10444   */\n      dup3\n        /* \"#utility.yul\":10431:10449   */\n      add\n        /* \"#utility.yul\":10423:10449   */\n      swap1\n      pop\n        /* \"#utility.yul\":10495:10504   */\n      dup2\n        /* \"#utility.yul\":10489:10493   */\n      dup2\n        /* \"#utility.yul\":10485:10505   */\n      sub\n        /* \"#utility.yul\":10481:10482   */\n      0x00\n        /* \"#utility.yul\":10470:10479   */\n      dup4\n        /* \"#utility.yul\":10466:10483   */\n      add\n        /* \"#utility.yul\":10459:10506   */\n      mstore\n        /* \"#utility.yul\":10523:10654   */\n      tag_347\n        /* \"#utility.yul\":10649:10653   */\n      dup2\n        /* \"#utility.yul\":10523:10654   */\n      tag_233\n      jump\t// in\n    tag_347:\n        /* \"#utility.yul\":10515:10654   */\n      swap1\n      pop\n        /* \"#utility.yul\":10242:10661   */\n      swap2\n      swap1\n      pop\n      jump\t// out\n        /* \"#utility.yul\":10667:10837   */\n    tag_234:\n        /* \"#utility.yul\":10807:10829   */\n      0x496e76616c696420726174696e672076616c7565000000000000000000000000\n        /* \"#utility.yul\":10803:10804   */\n      0x00\n        /* \"#utility.yul\":10795:10801   */\n      dup3\n        /* \"#utility.yul\":10791:10805   */\n      add\n        /* \"#utility.yul\":10784:10830   */\n      mstore\n        /* \"#utility.yul\":10667:10837   */\n      pop\n      jump\t// out\n        /* \"#utility.yul\":10843:11209   */\n    tag_235:\n        /* \"#utility.yul\":10985:10988   */\n      0x00\n        /* \"#utility.yul\":11006:11073   */\n      tag_350\n        /* \"#utility.yul\":11070:11072   */\n      0x14\n        /* \"#utility.yul\":11065:11068   */\n      dup4\n        /* \"#utility.yul\":11006:11073   */\n      tag_219\n      jump\t// in\n    tag_350:\n        /* \"#utility.yul\":10999:11073   */\n      swap2\n      pop\n        /* \"#utility.yul\":11082:11175   */\n      tag_351\n        /* \"#utility.yul\":11171:11174   */\n      dup3\n        /* \"#utility.yul\":11082:11175   */\n      tag_234\n      jump\t// in\n    tag_351:\n        /* \"#utility.yul\":11200:11202   */\n      0x20\n        /* \"#utility.yul\":11195:11198   */\n      dup3\n        /* \"#utility.yul\":11191:11203   */\n      add\n        /* \"#utility.yul\":11184:11203   */\n      swap1\n      pop\n        /* \"#utility.yul\":10843:11209   */\n      swap2\n      swap1\n      pop\n      jump\t// out\n        /* \"#utility.yul\":11215:11634   */\n    tag_145:\n        /* \"#utility.yul\":11381:11385   */\n      0x00\n        /* \"#utility.yul\":11419:11421   */\n      0x20\n        /* \"#utility.yul\":11408:11417   */\n      dup3\n        /* \"#utility.yul\":11404:11422   */\n      add\n        /* \"#utility.yul\":11396:11422   */\n      swap1\n      pop\n        /* \"#utility.yul\":11468:11477   */\n      dup2\n        /* \"#utility.yul\":11462:11466   */\n      dup2\n        /* \"#utility.yul\":11458:11478   */\n      sub\n        /* \"#utility.yul\":11454:11455   */\n      0x00\n        /* \"#utility.yul\":11443:11452   */\n      dup4\n        /* \"#utility.yul\":11439:11456   */\n      add\n        /* \"#utility.yul\":11432:11479   */\n      mstore\n        /* \"#utility.yul\":11496:11627   */\n      tag_353\n        /* \"#utility.yul\":11622:11626   */\n      dup2\n        /* \"#utility.yul\":11496:11627   */\n      tag_235\n      jump\t// in\n    tag_353:\n        /* \"#utility.yul\":11488:11627   */\n      swap1\n      pop\n        /* \"#utility.yul\":11215:11634   */\n      swap2\n      swap1\n      pop\n      jump\t// out\n        /* \"#utility.yul\":11640:11811   */\n    tag_236:\n        /* \"#utility.yul\":11780:11803   */\n      0x41756374696f6e206973206e6f74206163746976650000000000000000000000\n        /* \"#utility.yul\":11776:11777   */\n      0x00\n        /* \"#utility.yul\":11768:11774   */\n      dup3\n        /* \"#utility.yul\":11764:11778   */\n      add\n        /* \"#utility.yul\":11757:11804   */\n      mstore\n        /* \"#utility.yul\":11640:11811   */\n      pop\n      jump\t// out\n        /* \"#utility.yul\":11817:12183   */\n    tag_237:\n        /* \"#utility.yul\":11959:11962   */\n      0x00\n        /* \"#utility.yul\":11980:12047   */\n      tag_356\n        /* \"#utility.yul\":12044:12046   */\n      0x15\n        /* \"#utility.yul\":12039:12042   */\n      dup4\n        /* \"#utility.yul\":11980:12047   */\n      tag_219\n      jump\t// in\n    tag_356:\n        /* \"#utility.yul\":11973:12047   */\n      swap2\n      pop\n        /* \"#utility.yul\":12056:12149   */\n      tag_357\n        /* \"#utility.yul\":12145:12148   */\n      dup3\n        /* \"#utility.yul\":12056:12149   */\n      tag_236\n      jump\t// in\n    tag_357:\n        /* \"#utility.yul\":12174:12176   */\n      0x20\n        /* \"#utility.yul\":12169:12172   */\n      dup3\n        /* \"#utility.yul\":12165:12177   */\n      add\n        /* \"#utility.yul\":12158:12177   */\n      swap1\n      pop\n        /* \"#utility.yul\":11817:12183   */\n      swap2\n      swap1\n      pop\n      jump\t// out\n        /* \"#utility.yul\":12189:12608   */\n    tag_163:\n        /* \"#utility.yul\":12355:12359   */\n      0x00\n        /* \"#utility.yul\":12393:12395   */\n      0x20\n        /* \"#utility.yul\":12382:12391   */\n      dup3\n        /* \"#utility.yul\":12378:12396   */\n      add\n        /* \"#utility.yul\":12370:12396   */\n      swap1\n      pop\n        /* \"#utility.yul\":12442:12451   */\n      dup2\n        /* \"#utility.yul\":12436:12440   */\n      dup2\n        /* \"#utility.yul\":12432:12452   */\n      sub\n        /* \"#utility.yul\":12428:12429   */\n      0x00\n        /* \"#utility.yul\":12417:12426   */\n      dup4\n        /* \"#utility.yul\":12413:12430   */\n      add\n        /* \"#utility.yul\":12406:12453   */\n      mstore\n        /* \"#utility.yul\":12470:12601   */\n      tag_359\n        /* \"#utility.yul\":12596:12600   */\n      dup2\n        /* \"#utility.yul\":12470:12601   */\n      tag_237\n      jump\t// in\n    tag_359:\n        /* \"#utility.yul\":12462:12601   */\n      swap1\n      pop\n        /* \"#utility.yul\":12189:12608   */\n      swap2\n      swap1\n      pop\n      jump\t// out\n        /* \"#utility.yul\":12614:12782   */\n    tag_238:\n        /* \"#utility.yul\":12754:12774   */\n      0x42696420616d6f756e7420746f6f206c6f770000000000000000000000000000\n        /* \"#utility.yul\":12750:12751   */\n      0x00\n        /* \"#utility.yul\":12742:12748   */\n      dup3\n        /* \"#utility.yul\":12738:12752   */\n      add\n        /* \"#utility.yul\":12731:12775   */\n      mstore\n        /* \"#utility.yul\":12614:12782   */\n      pop\n      jump\t// out\n        /* \"#utility.yul\":12788:13154   */\n    tag_239:\n        /* \"#utility.yul\":12930:12933   */\n      0x00\n        /* \"#utility.yul\":12951:13018   */\n      tag_362\n        /* \"#utility.yul\":13015:13017   */\n      0x12\n        /* \"#utility.yul\":13010:13013   */\n      dup4\n        /* \"#utility.yul\":12951:13018   */\n      tag_219\n      jump\t// in\n    tag_362:\n        /* \"#utility.yul\":12944:13018   */\n      swap2\n      pop\n        /* \"#utility.yul\":13027:13120   */\n      tag_363\n        /* \"#utility.yul\":13116:13119   */\n      dup3\n        /* \"#utility.yul\":13027:13120   */\n      tag_238\n      jump\t// in\n    tag_363:\n        /* \"#utility.yul\":13145:13147   */\n      0x20\n        /* \"#utility.yul\":13140:13143   */\n      dup3\n        /* \"#utility.yul\":13136:13148   */\n      add\n        /* \"#utility.yul\":13129:13148   */\n      swap1\n      pop\n        /* \"#utility.yul\":12788:13154   */\n      swap2\n      swap1\n      pop\n      jump\t// out\n        /* \"#utility.yul\":13160:13579   */\n    tag_166:\n        /* \"#utility.yul\":13326:13330   */\n      0x00\n        /* \"#utility.yul\":13364:13366   */\n      0x20\n        /* \"#utility.yul\":13353:13362   */\n      dup3\n        /* \"#utility.yul\":13349:13367   */\n      add\n        /* \"#utility.yul\":13341:13367   */\n      swap1\n      pop\n        /* \"#utility.yul\":13413:13422   */\n      dup2\n        /* \"#utility.yul\":13407:13411   */\n      dup2\n        /* \"#utility.yul\":13403:13423   */\n      sub\n        /* \"#utility.yul\":13399:13400   */\n      0x00\n        /* \"#utility.yul\":13388:13397   */\n      dup4\n        /* \"#utility.yul\":13384:13401   */\n      add\n        /* \"#utility.yul\":13377:13424   */\n      mstore\n        /* \"#utility.yul\":13441:13572   */\n      tag_365\n        /* \"#utility.yul\":13567:13571   */\n      dup2\n        /* \"#utility.yul\":13441:13572   */\n      tag_239\n      jump\t// in\n    tag_365:\n        /* \"#utility.yul\":13433:13572   */\n      swap1\n      pop\n        /* \"#utility.yul\":13160:13579   */\n      swap2\n      swap1\n      pop\n      jump\t// out\n        /* \"#utility.yul\":13585:13765   */\n    tag_240:\n        /* \"#utility.yul\":13633:13710   */\n      0x4e487b7100000000000000000000000000000000000000000000000000000000\n        /* \"#utility.yul\":13630:13631   */\n      0x00\n        /* \"#utility.yul\":13623:13711   */\n      mstore\n        /* \"#utility.yul\":13730:13734   */\n      0x11\n        /* \"#utility.yul\":13727:13728   */\n      0x04\n        /* \"#utility.yul\":13720:13735   */\n      mstore\n        /* \"#utility.yul\":13754:13758   */\n      0x24\n        /* \"#utility.yul\":13751:13752   */\n      0x00\n        /* \"#utility.yul\":13744:13759   */\n      revert\n        /* \"#utility.yul\":13771:13962   */\n    tag_169:\n        /* \"#utility.yul\":13811:13814   */\n      0x00\n        /* \"#utility.yul\":13830:13850   */\n      tag_368\n        /* \"#utility.yul\":13848:13849   */\n      dup3\n        /* \"#utility.yul\":13830:13850   */\n      tag_203\n      jump\t// in\n    tag_368:\n        /* \"#utility.yul\":13825:13850   */\n      swap2\n      pop\n        /* \"#utility.yul\":13864:13884   */\n      tag_369\n        /* \"#utility.yul\":13882:13883   */\n      dup4\n        /* \"#utility.yul\":13864:13884   */\n      tag_203\n      jump\t// in\n    tag_369:\n        /* \"#utility.yul\":13859:13884   */\n      swap3\n      pop\n        /* \"#utility.yul\":13907:13908   */\n      dup3\n        /* \"#utility.yul\":13904:13905   */\n      dup3\n        /* \"#utility.yul\":13900:13909   */\n      add\n        /* \"#utility.yul\":13893:13909   */\n      swap1\n      pop\n        /* \"#utility.yul\":13928:13931   */\n      dup1\n        /* \"#utility.yul\":13925:13926   */\n      dup3\n        /* \"#utility.yul\":13922:13932   */\n      gt\n        /* \"#utility.yul\":13919:13955   */\n      iszero\n      tag_370\n      jumpi\n        /* \"#utility.yul\":13935:13953   */\n      tag_371\n      tag_240\n      jump\t// in\n    tag_371:\n        /* \"#utility.yul\":13919:13955   */\n    tag_370:\n        /* \"#utility.yul\":13771:13962   */\n      swap3\n      swap2\n      pop\n      pop\n      jump\t// out\n        /* \"#utility.yul\":13968:14190   */\n    tag_241:\n        /* \"#utility.yul\":14108:14142   */\n      0x4f6e6c792073656c6c65722063616e20706572666f726d207468697320616374\n        /* \"#utility.yul\":14104:14105   */\n      0x00\n        /* \"#utility.yul\":14096:14102   */\n      dup3\n        /* \"#utility.yul\":14092:14106   */\n      add\n        /* \"#utility.yul\":14085:14143   */\n      mstore\n        /* \"#utility.yul\":14177:14182   */\n      0x696f6e0000000000000000000000000000000000000000000000000000000000\n        /* \"#utility.yul\":14172:14174   */\n      0x20\n        /* \"#utility.yul\":14164:14170   */\n      dup3\n        /* \"#utility.yul\":14160:14175   */\n      add\n        /* \"#utility.yul\":14153:14183   */\n      mstore\n        /* \"#utility.yul\":13968:14190   */\n      pop\n      jump\t// out\n        /* \"#utility.yul\":14196:14562   */\n    tag_242:\n        /* \"#utility.yul\":14338:14341   */\n      0x00\n        /* \"#utility.yul\":14359:14426   */\n      tag_374\n        /* \"#utility.yul\":14423:14425   */\n      0x23\n        /* \"#utility.yul\":14418:14421   */\n      dup4\n        /* \"#utility.yul\":14359:14426   */\n      tag_219\n      jump\t// in\n    tag_374:\n        /* \"#utility.yul\":14352:14426   */\n      swap2\n      pop\n        /* \"#utility.yul\":14435:14528   */\n      tag_375\n        /* \"#utility.yul\":14524:14527   */\n      dup3\n        /* \"#utility.yul\":14435:14528   */\n      tag_241\n      jump\t// in\n    tag_375:\n        /* \"#utility.yul\":14553:14555   */\n      0x40\n        /* \"#utility.yul\":14548:14551   */\n      dup3\n        /* \"#utility.yul\":14544:14556   */\n      add\n        /* \"#utility.yul\":14537:14556   */\n      swap1\n      pop\n        /* \"#utility.yul\":14196:14562   */\n      swap2\n      swap1\n      pop\n      jump\t// out\n        /* \"#utility.yul\":14568:14987   */\n    tag_173:\n        /* \"#utility.yul\":14734:14738   */\n      0x00\n        /* \"#utility.yul\":14772:14774   */\n      0x20\n        /* \"#utility.yul\":14761:14770   */\n      dup3\n        /* \"#utility.yul\":14757:14775   */\n      add\n        /* \"#utility.yul\":14749:14775   */\n      swap1\n      pop\n        /* \"#utility.yul\":14821:14830   */\n      dup2\n        /* \"#utility.yul\":14815:14819   */\n      dup2\n        /* \"#utility.yul\":14811:14831   */\n      sub\n        /* \"#utility.yul\":14807:14808   */\n      0x00\n        /* \"#utility.yul\":14796:14805   */\n      dup4\n        /* \"#utility.yul\":14792:14809   */\n      add\n        /* \"#utility.yul\":14785:14832   */\n      mstore\n        /* \"#utility.yul\":14849:14980   */\n      tag_377\n        /* \"#utility.yul\":14975:14979   */\n      dup2\n        /* \"#utility.yul\":14849:14980   */\n      tag_242\n      jump\t// in\n    tag_377:\n        /* \"#utility.yul\":14841:14980   */\n      swap1\n      pop\n        /* \"#utility.yul\":14568:14987   */\n      swap2\n      swap1\n      pop\n      jump\t// out\n        /* \"#utility.yul\":14993:15164   */\n    tag_243:\n        /* \"#utility.yul\":15133:15156   */\n      0x41756374696f6e206e6f742079657420656e6465640000000000000000000000\n        /* \"#utility.yul\":15129:15130   */\n      0x00\n        /* \"#utility.yul\":15121:15127   */\n      dup3\n        /* \"#utility.yul\":15117:15131   */\n      add\n        /* \"#utility.yul\":15110:15157   */\n      mstore\n        /* \"#utility.yul\":14993:15164   */\n      pop\n      jump\t// out\n        /* \"#utility.yul\":15170:15536   */\n    tag_244:\n        /* \"#utility.yul\":15312:15315   */\n      0x00\n        /* \"#utility.yul\":15333:15400   */\n      tag_380\n        /* \"#utility.yul\":15397:15399   */\n      0x15\n        /* \"#utility.yul\":15392:15395   */\n      dup4\n        /* \"#utility.yul\":15333:15400   */\n      tag_219\n      jump\t// in\n    tag_380:\n        /* \"#utility.yul\":15326:15400   */\n      swap2\n      pop\n        /* \"#utility.yul\":15409:15502   */\n      tag_381\n        /* \"#utility.yul\":15498:15501   */\n      dup3\n        /* \"#utility.yul\":15409:15502   */\n      tag_243\n      jump\t// in\n    tag_381:\n        /* \"#utility.yul\":15527:15529   */\n      0x20\n        /* \"#utility.yul\":15522:15525   */\n      dup3\n        /* \"#utility.yul\":15518:15530   */\n      add\n        /* \"#utility.yul\":15511:15530   */\n      swap1\n      pop\n        /* \"#utility.yul\":15170:15536   */\n      swap2\n      swap1\n      pop\n      jump\t// out\n        /* \"#utility.yul\":15542:15961   */\n    tag_177:\n        /* \"#utility.yul\":15708:15712   */\n      0x00\n        /* \"#utility.yul\":15746:15748   */\n      0x20\n        /* \"#utility.yul\":15735:15744   */\n      dup3\n        /* \"#utility.yul\":15731:15749   */\n      add\n        /* \"#utility.yul\":15723:15749   */\n      swap1\n      pop\n        /* \"#utility.yul\":15795:15804   */\n      dup2\n        /* \"#utility.yul\":15789:15793   */\n      dup2\n        /* \"#utility.yul\":15785:15805   */\n      sub\n        /* \"#utility.yul\":15781:15782   */\n      0x00\n        /* \"#utility.yul\":15770:15779   */\n      dup4\n        /* \"#utility.yul\":15766:15783   */\n      add\n        /* \"#utility.yul\":15759:15806   */\n      mstore\n        /* \"#utility.yul\":15823:15954   */\n      tag_383\n        /* \"#utility.yul\":15949:15953   */\n      dup2\n        /* \"#utility.yul\":15823:15954   */\n      tag_244\n      jump\t// in\n    tag_383:\n        /* \"#utility.yul\":15815:15954   */\n      swap1\n      pop\n        /* \"#utility.yul\":15542:15961   */\n      swap2\n      swap1\n      pop\n      jump\t// out\n\n    auxdata: 0xa26469706673582212202d3d5e0b4cbc322ba517510518900137313c1d6e97e8d8a30423a88c35b1294664736f6c63430008140033\n}\n","bytecode":{"linkReferences":{},"object":"608060405234801562000010575f80fd5b5060405162001e1c38038062001e1c8339818101604052810190620000369190620002ee565b825f806101000a81548173ffffffffffffffffffffffffffffffffffffffff021916908373ffffffffffffffffffffffffffffffffffffffff160217905550814262000083919062000393565b6001819055505f60095f6101000a81548160ff02191690836001811115620000b057620000af620003cd565b5b02179055508060049081620000c6919062000628565b505050506200070c565b5f604051905090565b5f80fd5b5f80fd5b5f73ffffffffffffffffffffffffffffffffffffffff82169050919050565b5f6200010c82620000e1565b9050919050565b6200011e8162000100565b811462000129575f80fd5b50565b5f815190506200013c8162000113565b92915050565b5f819050919050565b620001568162000142565b811462000161575f80fd5b50565b5f8151905062000174816200014b565b92915050565b5f80fd5b5f80fd5b5f601f19601f8301169050919050565b7f4e487b71000000000000000000000000000000000000000000000000000000005f52604160045260245ffd5b620001ca8262000182565b810181811067ffffffffffffffff82111715620001ec57620001eb62000192565b5b80604052505050565b5f62000200620000d0565b90506200020e8282620001bf565b919050565b5f67ffffffffffffffff82111562000230576200022f62000192565b5b6200023b8262000182565b9050602081019050919050565b5f5b83811015620002675780820151818401526020810190506200024a565b5f8484015250505050565b5f62000288620002828462000213565b620001f5565b905082815260208101848484011115620002a757620002a66200017e565b5b620002b484828562000248565b509392505050565b5f82601f830112620002d357620002d26200017a565b5b8151620002e584826020860162000272565b91505092915050565b5f805f60608486031215620003085762000307620000d9565b5b5f62000317868287016200012c565b93505060206200032a8682870162000164565b925050604084015167ffffffffffffffff8111156200034e576200034d620000dd565b5b6200035c86828701620002bc565b9150509250925092565b7f4e487b71000000000000000000000000000000000000000000000000000000005f52601160045260245ffd5b5f6200039f8262000142565b9150620003ac8362000142565b9250828201905080821115620003c757620003c662000366565b5b92915050565b7f4e487b71000000000000000000000000000000000000000000000000000000005f52602160045260245ffd5b5f81519050919050565b7f4e487b71000000000000000000000000000000000000000000000000000000005f52602260045260245ffd5b5f60028204905060018216806200044957607f821691505b6020821081036200045f576200045e62000404565b5b50919050565b5f819050815f5260205f209050919050565b5f6020601f8301049050919050565b5f82821b905092915050565b5f60088302620004c37fffffffffffffffffffffffffffffffffffffffffffffffffffffffffffffffff8262000486565b620004cf868362000486565b95508019841693508086168417925050509392505050565b5f819050919050565b5f620005106200050a620005048462000142565b620004e7565b62000142565b9050919050565b5f819050919050565b6200052b83620004f0565b620005436200053a8262000517565b84845462000492565b825550505050565b5f90565b620005596200054b565b6200056681848462000520565b505050565b5b818110156200058d57620005815f826200054f565b6001810190506200056c565b5050565b601f821115620005dc57620005a68162000465565b620005b18462000477565b81016020851015620005c1578190505b620005d9620005d08562000477565b8301826200056b565b50505b505050565b5f82821c905092915050565b5f620005fe5f1984600802620005e1565b1980831691505092915050565b5f620006188383620005ed565b9150826002028217905092915050565b6200063382620003fa565b67ffffffffffffffff8111156200064f576200064e62000192565b5b6200065b825462000431565b6200066882828562000591565b5f60209050601f8311600181146200069e575f841562000689578287015190505b6200069585826200060b565b86555062000704565b601f198416620006ae8662000465565b5f5b82811015620006d757848901518255600182019150602085019450602081019050620006b0565b86831015620006f75784890151620006f3601f891682620005ed565b8355505b6001600288020188555050505b505050505050565b611702806200071a5f395ff3fe6080604052600436106100e7575f3560e01c8063bda21db011610089578063d57bde7911610058578063d57bde79146102c7578063ecfc7ecc146102f1578063f36efe57146102fb578063fe67a54b14610325576100e7565b8063bda21db014610221578063c19d93fb1461024b578063c63d99db14610275578063d17c2b541461029f576100e7565b806355bedee6116100c557806355bedee6146101555780635e2c19db1461017f57806362ea82db146101bb57806391f90157146101f7576100e7565b806308551a53146100eb5780633ccfd60b146101155780634b449cba1461012b575b5f80fd5b3480156100f6575f80fd5b506100ff61033b565b60405161010c9190610f5a565b60405180910390f35b348015610120575f80fd5b5061012961035e565b005b348015610136575f80fd5b5061013f610611565b60405161014c9190610f8b565b60405180910390f35b348015610160575f80fd5b50610169610617565b6040516101769190610f8b565b60405180910390f35b34801561018a575f80fd5b506101a560048036038101906101a09190610fe3565b610620565b6040516101b29190611028565b60405180910390f35b3480156101c6575f80fd5b506101e160048036038101906101dc9190610fe3565b61063d565b6040516101ee9190610f8b565b60405180910390f35b348015610202575f80fd5b5061020b610652565b6040516102189190611050565b60405180910390f35b34801561022c575f80fd5b50610235610677565b6040516102429190611028565b60405180910390f35b348015610256575f80fd5b5061025f610689565b60405161026c91906110dc565b60405180910390f35b348015610280575f80fd5b5061028961069b565b604051610296919061117f565b60405180910390f35b3480156102aa575f80fd5b506102c560048036038101906102c091906111c9565b610727565b005b3480156102d2575f80fd5b506102db6109bd565b6040516102e89190610f8b565b60405180910390f35b6102f96109c3565b005b348015610306575f80fd5b5061030f610c13565b60405161031c9190610f8b565b60405180910390f35b348015610330575f80fd5b50610339610c19565b005b5f8054906101000a900473ffffffffffffffffffffffffffffffffffffffff1681565b5f600181111561037157610370611069565b5b60095f9054906101000a900460ff16600181111561039257610391611069565b5b1480156103a157506001544210155b1561042d57600160095f6101000a81548160ff021916908360018111156103cb576103ca611069565b5b02179055507fdaec4582d5d9595688c8c98545fdd1c696d41c6aeaeb636737e84ed2f5c00eda60025f9054906101000a900473ffffffffffffffffffffffffffffffffffffffff166003546040516104249291906111f4565b60405180910390a15b6001808111156104405761043f611069565b5b60095f9054906101000a900460ff16600181111561046157610460611069565b5b146104a1576040517f08c379a000000000000000000000000000000000000000000000000000000000815260040161049890611265565b60405180910390fd5b60085f3373ffffffffffffffffffffffffffffffffffffffff1673ffffffffffffffffffffffffffffffffffffffff1681526020019081526020015f205f9054906101000a900460ff161561052b576040517f08c379a0000000000000000000000000000000000000000000000000000000008152600401610522906112cd565b60405180910390fd5b5f60075f3373ffffffffffffffffffffffffffffffffffffffff1673ffffffffffffffffffffffffffffffffffffffff1681526020019081526020015f205490505f81111561060e57600160085f3373ffffffffffffffffffffffffffffffffffffffff1673ffffffffffffffffffffffffffffffffffffffff1681526020019081526020015f205f6101000a81548160ff0219169083151502179055503373ffffffffffffffffffffffffffffffffffffffff166108fc8290811502906040515f60405180830381858888f1935050505015801561060c573d5f803e3d5ffd5b505b50565b60015481565b5f600554905090565b6008602052805f5260405f205f915054906101000a900460ff1681565b6007602052805f5260405f205f915090505481565b60025f9054906101000a900473ffffffffffffffffffffffffffffffffffffffff1681565b60065f9054906101000a900460ff1681565b60095f9054906101000a900460ff1681565b600480546106a890611318565b80601f01602080910402602001604051908101604052809291908181526020018280546106d490611318565b801561071f5780601f106106f65761010080835404028352916020019161071f565b820191905f5260205f20905b81548152906001019060200180831161070257829003601f168201915b505050505081565b5f600181111561073a57610739611069565b5b60095f9054906101000a900460ff16600181111561075b5761075a611069565b5b14801561076a57506001544210155b156107f657600160095f6101000a81548160ff0219169083600181111561079457610793611069565b5b02179055507fdaec4582d5d9595688c8c98545fdd1c696d41c6aeaeb636737e84ed2f5c00eda60025f9054906101000a900473ffffffffffffffffffffffffffffffffffffffff166003546040516107ed9291906111f4565b60405180910390a15b60018081111561080957610808611069565b5b60095f9054906101000a900460ff16600181111561082a57610829611069565b5b1461086a576040517f08c379a000000000000000000000000000000000000000000000000000000000815260040161086190611265565b60405180910390fd5b60025f9054906101000a900473ffffffffffffffffffffffffffffffffffffffff1673ffffffffffffffffffffffffffffffffffffffff163373ffffffffffffffffffffffffffffffffffffffff16146108f9576040517f08c379a00000000000000000000000000000000000000000000000000000000081526004016108f0906113b8565b60405180910390fd5b60065f9054906101000a900460ff1615610948576040517f08c379a000000000000000000000000000000000000000000000000000000000815260040161093f90611420565b60405180910390fd5b6001811015801561095a575060058111155b610999576040517f08c379a000000000000000000000000000000000000000000000000000000000815260040161099090611488565b60405180910390fd5b80600581905550600160065f6101000a81548160ff02191690831515021790555050565b60035481565b5f60018111156109d6576109d5611069565b5b60095f9054906101000a900460ff1660018111156109f7576109f6611069565b5b148015610a0657506001544210155b15610a9257600160095f6101000a81548160ff02191690836001811115610a3057610a2f611069565b5b02179055507fdaec4582d5d9595688c8c98545fdd1c696d41c6aeaeb636737e84ed2f5c00eda60025f9054906101000a900473ffffffffffffffffffffffffffffffffffffffff16600354604051610a899291906111f4565b60405180910390a15b5f6001811115610aa557610aa4611069565b5b60095f9054906101000a900460ff166001811115610ac657610ac5611069565b5b14610b06576040517f08c379a0000000000000000000000000000000000000000000000000000000008152600401610afd906114f0565b60405180910390fd5b6003543411610b4a576040517f08c379a0000000000000000000000000000000000000000000000000000000008152600401610b4190611558565b60405180910390fd5b5f60035414610bca5760035460075f60025f9054906101000a900473ffffffffffffffffffffffffffffffffffffffff1673ffffffffffffffffffffffffffffffffffffffff1673ffffffffffffffffffffffffffffffffffffffff1681526020019081526020015f205f828254610bc291906115a3565b925050819055505b3360025f6101000a81548173ffffffffffffffffffffffffffffffffffffffff021916908373ffffffffffffffffffffffffffffffffffffffff16021790555034600381905550565b60055481565b5f8054906101000a900473ffffffffffffffffffffffffffffffffffffffff1673ffffffffffffffffffffffffffffffffffffffff163373ffffffffffffffffffffffffffffffffffffffff1614610ca6576040517f08c379a0000000000000000000000000000000000000000000000000000000008152600401610c9d90611646565b60405180910390fd5b600154421015610ceb576040517f08c379a0000000000000000000000000000000000000000000000000000000008152600401610ce2906116ae565b60405180910390fd5b5f6001811115610cfe57610cfd611069565b5b60095f9054906101000a900460ff166001811115610d1f57610d1e611069565b5b148015610d2e57506001544210155b15610dba57600160095f6101000a81548160ff02191690836001811115610d5857610d57611069565b5b02179055507fdaec4582d5d9595688c8c98545fdd1c696d41c6aeaeb636737e84ed2f5c00eda60025f9054906101000a900473ffffffffffffffffffffffffffffffffffffffff16600354604051610db19291906111f4565b60405180910390a15b5f6001811115610dcd57610dcc611069565b5b60095f9054906101000a900460ff166001811115610dee57610ded611069565b5b14610e2e576040517f08c379a0000000000000000000000000000000000000000000000000000000008152600401610e25906114f0565b60405180910390fd5b600160095f6101000a81548160ff02191690836001811115610e5357610e52611069565b5b02179055507fdaec4582d5d9595688c8c98545fdd1c696d41c6aeaeb636737e84ed2f5c00eda60025f9054906101000a900473ffffffffffffffffffffffffffffffffffffffff16600354604051610eac9291906111f4565b60405180910390a15f8054906101000a900473ffffffffffffffffffffffffffffffffffffffff1673ffffffffffffffffffffffffffffffffffffffff166108fc60035490811502906040515f60405180830381858888f19350505050158015610f18573d5f803e3d5ffd5b50565b5f73ffffffffffffffffffffffffffffffffffffffff82169050919050565b5f610f4482610f1b565b9050919050565b610f5481610f3a565b82525050565b5f602082019050610f6d5f830184610f4b565b92915050565b5f819050919050565b610f8581610f73565b82525050565b5f602082019050610f9e5f830184610f7c565b92915050565b5f80fd5b5f610fb282610f1b565b9050919050565b610fc281610fa8565b8114610fcc575f80fd5b50565b5f81359050610fdd81610fb9565b92915050565b5f60208284031215610ff857610ff7610fa4565b5b5f61100584828501610fcf565b91505092915050565b5f8115159050919050565b6110228161100e565b82525050565b5f60208201905061103b5f830184611019565b92915050565b61104a81610fa8565b82525050565b5f6020820190506110635f830184611041565b92915050565b7f4e487b71000000000000000000000000000000000000000000000000000000005f52602160045260245ffd5b600281106110a7576110a6611069565b5b50565b5f8190506110b782611096565b919050565b5f6110c6826110aa565b9050919050565b6110d6816110bc565b82525050565b5f6020820190506110ef5f8301846110cd565b92915050565b5f81519050919050565b5f82825260208201905092915050565b5f5b8381101561112c578082015181840152602081019050611111565b5f8484015250505050565b5f601f19601f8301169050919050565b5f611151826110f5565b61115b81856110ff565b935061116b81856020860161110f565b61117481611137565b840191505092915050565b5f6020820190508181035f8301526111978184611147565b905092915050565b6111a881610f73565b81146111b2575f80fd5b50565b5f813590506111c38161119f565b92915050565b5f602082840312156111de576111dd610fa4565b5b5f6111eb848285016111b5565b91505092915050565b5f6040820190506112075f830185611041565b6112146020830184610f7c565b9392505050565b7f41756374696f6e206973206e6f7420656e6465640000000000000000000000005f82015250565b5f61124f6014836110ff565b915061125a8261121b565b602082019050919050565b5f6020820190508181035f83015261127c81611243565b9050919050565b7f416c72656164792077697468647261776e0000000000000000000000000000005f82015250565b5f6112b76011836110ff565b91506112c282611283565b602082019050919050565b5f6020820190508181035f8301526112e4816112ab565b9050919050565b7f4e487b71000000000000000000000000000000000000000000000000000000005f52602260045260245ffd5b5f600282049050600182168061132f57607f821691505b602082108103611342576113416112eb565b5b50919050565b7f4f6e6c792068696768657374206269646465722063616e2072617465207468655f8201527f2073656c6c657200000000000000000000000000000000000000000000000000602082015250565b5f6113a26027836110ff565b91506113ad82611348565b604082019050919050565b5f6020820190508181035f8301526113cf81611396565b9050919050565b7f53656c6c657220616c72656164792072617465640000000000000000000000005f82015250565b5f61140a6014836110ff565b9150611415826113d6565b602082019050919050565b5f6020820190508181035f830152611437816113fe565b9050919050565b7f496e76616c696420726174696e672076616c75650000000000000000000000005f82015250565b5f6114726014836110ff565b915061147d8261143e565b602082019050919050565b5f6020820190508181035f83015261149f81611466565b9050919050565b7f41756374696f6e206973206e6f742061637469766500000000000000000000005f82015250565b5f6114da6015836110ff565b91506114e5826114a6565b602082019050919050565b5f6020820190508181035f830152611507816114ce565b9050919050565b7f42696420616d6f756e7420746f6f206c6f7700000000000000000000000000005f82015250565b5f6115426012836110ff565b915061154d8261150e565b602082019050919050565b5f6020820190508181035f83015261156f81611536565b9050919050565b7f4e487b71000000000000000000000000000000000000000000000000000000005f52601160045260245ffd5b5f6115ad82610f73565b91506115b883610f73565b92508282019050808211156115d0576115cf611576565b5b92915050565b7f4f6e6c792073656c6c65722063616e20706572666f726d2074686973206163745f8201527f696f6e0000000000000000000000000000000000000000000000000000000000602082015250565b5f6116306023836110ff565b915061163b826115d6565b604082019050919050565b5f6020820190508181035f83015261165d81611624565b9050919050565b7f41756374696f6e206e6f742079657420656e64656400000000000000000000005f82015250565b5f6116986015836110ff565b91506116a382611664565b602082019050919050565b5f6020820190508181035f8301526116c58161168c565b905091905056fea26469706673582212202d3d5e0b4cbc322ba517510518900137313c1d6e97e8d8a30423a88c35b1294664736f6c63430008140033","opcodes":"PUSH1 0x80 PUSH1 0x40 MSTORE CALLVALUE DUP1 ISZERO PUSH3 0x10 JUMPI PUSH0 DUP1 REVERT JUMPDEST POP PUSH1 0x40 MLOAD PUSH3 0x1E1C CODESIZE SUB DUP1 PUSH3 0x1E1C DUP4 CODECOPY DUP2 DUP2 ADD PUSH1 0x40 MSTORE DUP2 ADD SWAP1 PUSH3 0x36 SWAP2 SWAP1 PUSH3 0x2EE JUMP JUMPDEST DUP3 PUSH0 DUP1 PUSH2 0x100 EXP DUP2 SLOAD DUP2 PUSH20 0xFFFFFFFFFFFFFFFFFFFFFFFFFFFFFFFFFFFFFFFF MUL NOT AND SWAP1 DUP4 PUSH20 0xFFFFFFFFFFFFFFFFFFFFFFFFFFFFFFFFFFFFFFFF AND MUL OR SWAP1 SSTORE POP DUP2 TIMESTAMP PUSH3 0x83 SWAP2 SWAP1 PUSH3 0x393 JUMP JUMPDEST PUSH1 0x1 DUP2 SWAP1 SSTORE POP PUSH0 PUSH1 0x9 PUSH0 PUSH2 0x100 EXP DUP2 SLOAD DUP2 PUSH1 0xFF MUL NOT AND SWAP1 DUP4 PUSH1 0x1 DUP2 GT ISZERO PUSH3 0xB0 JUMPI PUSH3 0xAF PUSH3 0x3CD JUMP JUMPDEST JUMPDEST MUL OR SWAP1 SSTORE POP DUP1 PUSH1 0x4 SWAP1 DUP2 PUSH3 0xC6 SWAP2 SWAP1 PUSH3 0x628 JUMP JUMPDEST POP POP POP POP PUSH3 0x70C JUMP JUMPDEST PUSH0 PUSH1 0x40 MLOAD SWAP1 POP SWAP1 JUMP JUMPDEST PUSH0 DUP1 REVERT JUMPDEST PUSH0 DUP1 REVERT JUMPDEST PUSH0 PUSH20 0xFFFFFFFFFFFFFFFFFFFFFFFFFFFFFFFFFFFFFFFF DUP3 AND SWAP1 POP SWAP2 SWAP1 POP JUMP JUMPDEST PUSH0 PUSH3 0x10C DUP3 PUSH3 0xE1 JUMP JUMPDEST SWAP1 POP SWAP2 SWAP1 POP JUMP JUMPDEST PUSH3 0x11E DUP2 PUSH3 0x100 JUMP JUMPDEST DUP2 EQ PUSH3 0x129 JUMPI PUSH0 DUP1 REVERT JUMPDEST POP JUMP JUMPDEST PUSH0 DUP2 MLOAD SWAP1 POP PUSH3 0x13C DUP2 PUSH3 0x113 JUMP JUMPDEST SWAP3 SWAP2 POP POP JUMP JUMPDEST PUSH0 DUP2 SWAP1 POP SWAP2 SWAP1 POP JUMP JUMPDEST PUSH3 0x156 DUP2 PUSH3 0x142 JUMP JUMPDEST DUP2 EQ PUSH3 0x161 JUMPI PUSH0 DUP1 REVERT JUMPDEST POP JUMP JUMPDEST PUSH0 DUP2 MLOAD SWAP1 POP PUSH3 0x174 DUP2 PUSH3 0x14B JUMP JUMPDEST SWAP3 SWAP2 POP POP JUMP JUMPDEST PUSH0 DUP1 REVERT JUMPDEST PUSH0 DUP1 REVERT JUMPDEST PUSH0 PUSH1 0x1F NOT PUSH1 0x1F DUP4 ADD AND SWAP1 POP SWAP2 SWAP1 POP JUMP JUMPDEST PUSH32 0x4E487B7100000000000000000000000000000000000000000000000000000000 PUSH0 MSTORE PUSH1 0x41 PUSH1 0x4 MSTORE PUSH1 0x24 PUSH0 REVERT JUMPDEST PUSH3 0x1CA DUP3 PUSH3 0x182 JUMP JUMPDEST DUP2 ADD DUP2 DUP2 LT PUSH8 0xFFFFFFFFFFFFFFFF DUP3 GT OR ISZERO PUSH3 0x1EC JUMPI PUSH3 0x1EB PUSH3 0x192 JUMP JUMPDEST JUMPDEST DUP1 PUSH1 0x40 MSTORE POP POP POP JUMP JUMPDEST PUSH0 PUSH3 0x200 PUSH3 0xD0 JUMP JUMPDEST SWAP1 POP PUSH3 0x20E DUP3 DUP3 PUSH3 0x1BF JUMP JUMPDEST SWAP2 SWAP1 POP JUMP JUMPDEST PUSH0 PUSH8 0xFFFFFFFFFFFFFFFF DUP3 GT ISZERO PUSH3 0x230 JUMPI PUSH3 0x22F PUSH3 0x192 JUMP JUMPDEST JUMPDEST PUSH3 0x23B DUP3 PUSH3 0x182 JUMP JUMPDEST SWAP1 POP PUSH1 0x20 DUP2 ADD SWAP1 POP SWAP2 SWAP1 POP JUMP JUMPDEST PUSH0 JUMPDEST DUP4 DUP2 LT ISZERO PUSH3 0x267 JUMPI DUP1 DUP3 ADD MLOAD DUP2 DUP5 ADD MSTORE PUSH1 0x20 DUP2 ADD SWAP1 POP PUSH3 0x24A JUMP JUMPDEST PUSH0 DUP5 DUP5 ADD MSTORE POP POP POP POP JUMP JUMPDEST PUSH0 PUSH3 0x288 PUSH3 0x282 DUP5 PUSH3 0x213 JUMP JUMPDEST PUSH3 0x1F5 JUMP JUMPDEST SWAP1 POP DUP3 DUP2 MSTORE PUSH1 0x20 DUP2 ADD DUP5 DUP5 DUP5 ADD GT ISZERO PUSH3 0x2A7 JUMPI PUSH3 0x2A6 PUSH3 0x17E JUMP JUMPDEST JUMPDEST PUSH3 0x2B4 DUP5 DUP3 DUP6 PUSH3 0x248 JUMP JUMPDEST POP SWAP4 SWAP3 POP POP POP JUMP JUMPDEST PUSH0 DUP3 PUSH1 0x1F DUP4 ADD SLT PUSH3 0x2D3 JUMPI PUSH3 0x2D2 PUSH3 0x17A JUMP JUMPDEST JUMPDEST DUP2 MLOAD PUSH3 0x2E5 DUP5 DUP3 PUSH1 0x20 DUP7 ADD PUSH3 0x272 JUMP JUMPDEST SWAP2 POP POP SWAP3 SWAP2 POP POP JUMP JUMPDEST PUSH0 DUP1 PUSH0 PUSH1 0x60 DUP5 DUP7 SUB SLT ISZERO PUSH3 0x308 JUMPI PUSH3 0x307 PUSH3 0xD9 JUMP JUMPDEST JUMPDEST PUSH0 PUSH3 0x317 DUP7 DUP3 DUP8 ADD PUSH3 0x12C JUMP JUMPDEST SWAP4 POP POP PUSH1 0x20 PUSH3 0x32A DUP7 DUP3 DUP8 ADD PUSH3 0x164 JUMP JUMPDEST SWAP3 POP POP PUSH1 0x40 DUP5 ADD MLOAD PUSH8 0xFFFFFFFFFFFFFFFF DUP2 GT ISZERO PUSH3 0x34E JUMPI PUSH3 0x34D PUSH3 0xDD JUMP JUMPDEST JUMPDEST PUSH3 0x35C DUP7 DUP3 DUP8 ADD PUSH3 0x2BC JUMP JUMPDEST SWAP2 POP POP SWAP3 POP SWAP3 POP SWAP3 JUMP JUMPDEST PUSH32 0x4E487B7100000000000000000000000000000000000000000000000000000000 PUSH0 MSTORE PUSH1 0x11 PUSH1 0x4 MSTORE PUSH1 0x24 PUSH0 REVERT JUMPDEST PUSH0 PUSH3 0x39F DUP3 PUSH3 0x142 JUMP JUMPDEST SWAP2 POP PUSH3 0x3AC DUP4 PUSH3 0x142 JUMP JUMPDEST SWAP3 POP DUP3 DUP3 ADD SWAP1 POP DUP1 DUP3 GT ISZERO PUSH3 0x3C7 JUMPI PUSH3 0x3C6 PUSH3 0x366 JUMP JUMPDEST JUMPDEST SWAP3 SWAP2 POP POP JUMP JUMPDEST PUSH32 0x4E487B7100000000000000000000000000000000000000000000000000000000 PUSH0 MSTORE PUSH1 0x21 PUSH1 0x4 MSTORE PUSH1 0x24 PUSH0 REVERT JUMPDEST PUSH0 DUP2 MLOAD SWAP1 POP SWAP2 SWAP1 POP JUMP JUMPDEST PUSH32 0x4E487B7100000000000000000000000000000000000000000000000000000000 PUSH0 MSTORE PUSH1 0x22 PUSH1 0x4 MSTORE PUSH1 0x24 PUSH0 REVERT JUMPDEST PUSH0 PUSH1 0x2 DUP3 DIV SWAP1 POP PUSH1 0x1 DUP3 AND DUP1 PUSH3 0x449 JUMPI PUSH1 0x7F DUP3 AND SWAP2 POP JUMPDEST PUSH1 0x20 DUP3 LT DUP2 SUB PUSH3 0x45F JUMPI PUSH3 0x45E PUSH3 0x404 JUMP JUMPDEST JUMPDEST POP SWAP2 SWAP1 POP JUMP JUMPDEST PUSH0 DUP2 SWAP1 POP DUP2 PUSH0 MSTORE PUSH1 0x20 PUSH0 KECCAK256 SWAP1 POP SWAP2 SWAP1 POP JUMP JUMPDEST PUSH0 PUSH1 0x20 PUSH1 0x1F DUP4 ADD DIV SWAP1 POP SWAP2 SWAP1 POP JUMP JUMPDEST PUSH0 DUP3 DUP3 SHL SWAP1 POP SWAP3 SWAP2 POP POP JUMP JUMPDEST PUSH0 PUSH1 0x8 DUP4 MUL PUSH3 0x4C3 PUSH32 0xFFFFFFFFFFFFFFFFFFFFFFFFFFFFFFFFFFFFFFFFFFFFFFFFFFFFFFFFFFFFFFFF DUP3 PUSH3 0x486 JUMP JUMPDEST PUSH3 0x4CF DUP7 DUP4 PUSH3 0x486 JUMP JUMPDEST SWAP6 POP DUP1 NOT DUP5 AND SWAP4 POP DUP1 DUP7 AND DUP5 OR SWAP3 POP POP POP SWAP4 SWAP3 POP POP POP JUMP JUMPDEST PUSH0 DUP2 SWAP1 POP SWAP2 SWAP1 POP JUMP JUMPDEST PUSH0 PUSH3 0x510 PUSH3 0x50A PUSH3 0x504 DUP5 PUSH3 0x142 JUMP JUMPDEST PUSH3 0x4E7 JUMP JUMPDEST PUSH3 0x142 JUMP JUMPDEST SWAP1 POP SWAP2 SWAP1 POP JUMP JUMPDEST PUSH0 DUP2 SWAP1 POP SWAP2 SWAP1 POP JUMP JUMPDEST PUSH3 0x52B DUP4 PUSH3 0x4F0 JUMP JUMPDEST PUSH3 0x543 PUSH3 0x53A DUP3 PUSH3 0x517 JUMP JUMPDEST DUP5 DUP5 SLOAD PUSH3 0x492 JUMP JUMPDEST DUP3 SSTORE POP POP POP POP JUMP JUMPDEST PUSH0 SWAP1 JUMP JUMPDEST PUSH3 0x559 PUSH3 0x54B JUMP JUMPDEST PUSH3 0x566 DUP2 DUP5 DUP5 PUSH3 0x520 JUMP JUMPDEST POP POP POP JUMP JUMPDEST JUMPDEST DUP2 DUP2 LT ISZERO PUSH3 0x58D JUMPI PUSH3 0x581 PUSH0 DUP3 PUSH3 0x54F JUMP JUMPDEST PUSH1 0x1 DUP2 ADD SWAP1 POP PUSH3 0x56C JUMP JUMPDEST POP POP JUMP JUMPDEST PUSH1 0x1F DUP3 GT ISZERO PUSH3 0x5DC JUMPI PUSH3 0x5A6 DUP2 PUSH3 0x465 JUMP JUMPDEST PUSH3 0x5B1 DUP5 PUSH3 0x477 JUMP JUMPDEST DUP2 ADD PUSH1 0x20 DUP6 LT ISZERO PUSH3 0x5C1 JUMPI DUP2 SWAP1 POP JUMPDEST PUSH3 0x5D9 PUSH3 0x5D0 DUP6 PUSH3 0x477 JUMP JUMPDEST DUP4 ADD DUP3 PUSH3 0x56B JUMP JUMPDEST POP POP JUMPDEST POP POP POP JUMP JUMPDEST PUSH0 DUP3 DUP3 SHR SWAP1 POP SWAP3 SWAP2 POP POP JUMP JUMPDEST PUSH0 PUSH3 0x5FE PUSH0 NOT DUP5 PUSH1 0x8 MUL PUSH3 0x5E1 JUMP JUMPDEST NOT DUP1 DUP4 AND SWAP2 POP POP SWAP3 SWAP2 POP POP JUMP JUMPDEST PUSH0 PUSH3 0x618 DUP4 DUP4 PUSH3 0x5ED JUMP JUMPDEST SWAP2 POP DUP3 PUSH1 0x2 MUL DUP3 OR SWAP1 POP SWAP3 SWAP2 POP POP JUMP JUMPDEST PUSH3 0x633 DUP3 PUSH3 0x3FA JUMP JUMPDEST PUSH8 0xFFFFFFFFFFFFFFFF DUP2 GT ISZERO PUSH3 0x64F JUMPI PUSH3 0x64E PUSH3 0x192 JUMP JUMPDEST JUMPDEST PUSH3 0x65B DUP3 SLOAD PUSH3 0x431 JUMP JUMPDEST PUSH3 0x668 DUP3 DUP3 DUP6 PUSH3 0x591 JUMP JUMPDEST PUSH0 PUSH1 0x20 SWAP1 POP PUSH1 0x1F DUP4 GT PUSH1 0x1 DUP2 EQ PUSH3 0x69E JUMPI PUSH0 DUP5 ISZERO PUSH3 0x689 JUMPI DUP3 DUP8 ADD MLOAD SWAP1 POP JUMPDEST PUSH3 0x695 DUP6 DUP3 PUSH3 0x60B JUMP JUMPDEST DUP7 SSTORE POP PUSH3 0x704 JUMP JUMPDEST PUSH1 0x1F NOT DUP5 AND PUSH3 0x6AE DUP7 PUSH3 0x465 JUMP JUMPDEST PUSH0 JUMPDEST DUP3 DUP2 LT ISZERO PUSH3 0x6D7 JUMPI DUP5 DUP10 ADD MLOAD DUP3 SSTORE PUSH1 0x1 DUP3 ADD SWAP2 POP PUSH1 0x20 DUP6 ADD SWAP5 POP PUSH1 0x20 DUP2 ADD SWAP1 POP PUSH3 0x6B0 JUMP JUMPDEST DUP7 DUP4 LT ISZERO PUSH3 0x6F7 JUMPI DUP5 DUP10 ADD MLOAD PUSH3 0x6F3 PUSH1 0x1F DUP10 AND DUP3 PUSH3 0x5ED JUMP JUMPDEST DUP4 SSTORE POP JUMPDEST PUSH1 0x1 PUSH1 0x2 DUP9 MUL ADD DUP9 SSTORE POP POP POP JUMPDEST POP POP POP POP POP POP JUMP JUMPDEST PUSH2 0x1702 DUP1 PUSH3 0x71A PUSH0 CODECOPY PUSH0 RETURN INVALID PUSH1 0x80 PUSH1 0x40 MSTORE PUSH1 0x4 CALLDATASIZE LT PUSH2 0xE7 JUMPI PUSH0 CALLDATALOAD PUSH1 0xE0 SHR DUP1 PUSH4 0xBDA21DB0 GT PUSH2 0x89 JUMPI DUP1 PUSH4 0xD57BDE79 GT PUSH2 0x58 JUMPI DUP1 PUSH4 0xD57BDE79 EQ PUSH2 0x2C7 JUMPI DUP1 PUSH4 0xECFC7ECC EQ PUSH2 0x2F1 JUMPI DUP1 PUSH4 0xF36EFE57 EQ PUSH2 0x2FB JUMPI DUP1 PUSH4 0xFE67A54B EQ PUSH2 0x325 JUMPI PUSH2 0xE7 JUMP JUMPDEST DUP1 PUSH4 0xBDA21DB0 EQ PUSH2 0x221 JUMPI DUP1 PUSH4 0xC19D93FB EQ PUSH2 0x24B JUMPI DUP1 PUSH4 0xC63D99DB EQ PUSH2 0x275 JUMPI DUP1 PUSH4 0xD17C2B54 EQ PUSH2 0x29F JUMPI PUSH2 0xE7 JUMP JUMPDEST DUP1 PUSH4 0x55BEDEE6 GT PUSH2 0xC5 JUMPI DUP1 PUSH4 0x55BEDEE6 EQ PUSH2 0x155 JUMPI DUP1 PUSH4 0x5E2C19DB EQ PUSH2 0x17F JUMPI DUP1 PUSH4 0x62EA82DB EQ PUSH2 0x1BB JUMPI DUP1 PUSH4 0x91F90157 EQ PUSH2 0x1F7 JUMPI PUSH2 0xE7 JUMP JUMPDEST DUP1 PUSH4 0x8551A53 EQ PUSH2 0xEB JUMPI DUP1 PUSH4 0x3CCFD60B EQ PUSH2 0x115 JUMPI DUP1 PUSH4 0x4B449CBA EQ PUSH2 0x12B JUMPI JUMPDEST PUSH0 DUP1 REVERT JUMPDEST CALLVALUE DUP1 ISZERO PUSH2 0xF6 JUMPI PUSH0 DUP1 REVERT JUMPDEST POP PUSH2 0xFF PUSH2 0x33B JUMP JUMPDEST PUSH1 0x40 MLOAD PUSH2 0x10C SWAP2 SWAP1 PUSH2 0xF5A JUMP JUMPDEST PUSH1 0x40 MLOAD DUP1 SWAP2 SUB SWAP1 RETURN JUMPDEST CALLVALUE DUP1 ISZERO PUSH2 0x120 JUMPI PUSH0 DUP1 REVERT JUMPDEST POP PUSH2 0x129 PUSH2 0x35E JUMP JUMPDEST STOP JUMPDEST CALLVALUE DUP1 ISZERO PUSH2 0x136 JUMPI PUSH0 DUP1 REVERT JUMPDEST POP PUSH2 0x13F PUSH2 0x611 JUMP JUMPDEST PUSH1 0x40 MLOAD PUSH2 0x14C SWAP2 SWAP1 PUSH2 0xF8B JUMP JUMPDEST PUSH1 0x40 MLOAD DUP1 SWAP2 SUB SWAP1 RETURN JUMPDEST CALLVALUE DUP1 ISZERO PUSH2 0x160 JUMPI PUSH0 DUP1 REVERT JUMPDEST POP PUSH2 0x169 PUSH2 0x617 JUMP JUMPDEST PUSH1 0x40 MLOAD PUSH2 0x176 SWAP2 SWAP1 PUSH2 0xF8B JUMP JUMPDEST PUSH1 0x40 MLOAD DUP1 SWAP2 SUB SWAP1 RETURN JUMPDEST CALLVALUE DUP1 ISZERO PUSH2 0x18A JUMPI PUSH0 DUP1 REVERT JUMPDEST POP PUSH2 0x1A5 PUSH1 0x4 DUP1 CALLDATASIZE SUB DUP2 ADD SWAP1 PUSH2 0x1A0 SWAP2 SWAP1 PUSH2 0xFE3 JUMP JUMPDEST PUSH2 0x620 JUMP JUMPDEST PUSH1 0x40 MLOAD PUSH2 0x1B2 SWAP2 SWAP1 PUSH2 0x1028 JUMP JUMPDEST PUSH1 0x40 MLOAD DUP1 SWAP2 SUB SWAP1 RETURN JUMPDEST CALLVALUE DUP1 ISZERO PUSH2 0x1C6 JUMPI PUSH0 DUP1 REVERT JUMPDEST POP PUSH2 0x1E1 PUSH1 0x4 DUP1 CALLDATASIZE SUB DUP2 ADD SWAP1 PUSH2 0x1DC SWAP2 SWAP1 PUSH2 0xFE3 JUMP JUMPDEST PUSH2 0x63D JUMP JUMPDEST PUSH1 0x40 MLOAD PUSH2 0x1EE SWAP2 SWAP1 PUSH2 0xF8B JUMP JUMPDEST PUSH1 0x40 MLOAD DUP1 SWAP2 SUB SWAP1 RETURN JUMPDEST CALLVALUE DUP1 ISZERO PUSH2 0x202 JUMPI PUSH0 DUP1 REVERT JUMPDEST POP PUSH2 0x20B PUSH2 0x652 JUMP JUMPDEST PUSH1 0x40 MLOAD PUSH2 0x218 SWAP2 SWAP1 PUSH2 0x1050 JUMP JUMPDEST PUSH1 0x40 MLOAD DUP1 SWAP2 SUB SWAP1 RETURN JUMPDEST CALLVALUE DUP1 ISZERO PUSH2 0x22C JUMPI PUSH0 DUP1 REVERT JUMPDEST POP PUSH2 0x235 PUSH2 0x677 JUMP JUMPDEST PUSH1 0x40 MLOAD PUSH2 0x242 SWAP2 SWAP1 PUSH2 0x1028 JUMP JUMPDEST PUSH1 0x40 MLOAD DUP1 SWAP2 SUB SWAP1 RETURN JUMPDEST CALLVALUE DUP1 ISZERO PUSH2 0x256 JUMPI PUSH0 DUP1 REVERT JUMPDEST POP PUSH2 0x25F PUSH2 0x689 JUMP JUMPDEST PUSH1 0x40 MLOAD PUSH2 0x26C SWAP2 SWAP1 PUSH2 0x10DC JUMP JUMPDEST PUSH1 0x40 MLOAD DUP1 SWAP2 SUB SWAP1 RETURN JUMPDEST CALLVALUE DUP1 ISZERO PUSH2 0x280 JUMPI PUSH0 DUP1 REVERT JUMPDEST POP PUSH2 0x289 PUSH2 0x69B JUMP JUMPDEST PUSH1 0x40 MLOAD PUSH2 0x296 SWAP2 SWAP1 PUSH2 0x117F JUMP JUMPDEST PUSH1 0x40 MLOAD DUP1 SWAP2 SUB SWAP1 RETURN JUMPDEST CALLVALUE DUP1 ISZERO PUSH2 0x2AA JUMPI PUSH0 DUP1 REVERT JUMPDEST POP PUSH2 0x2C5 PUSH1 0x4 DUP1 CALLDATASIZE SUB DUP2 ADD SWAP1 PUSH2 0x2C0 SWAP2 SWAP1 PUSH2 0x11C9 JUMP JUMPDEST PUSH2 0x727 JUMP JUMPDEST STOP JUMPDEST CALLVALUE DUP1 ISZERO PUSH2 0x2D2 JUMPI PUSH0 DUP1 REVERT JUMPDEST POP PUSH2 0x2DB PUSH2 0x9BD JUMP JUMPDEST PUSH1 0x40 MLOAD PUSH2 0x2E8 SWAP2 SWAP1 PUSH2 0xF8B JUMP JUMPDEST PUSH1 0x40 MLOAD DUP1 SWAP2 SUB SWAP1 RETURN JUMPDEST PUSH2 0x2F9 PUSH2 0x9C3 JUMP JUMPDEST STOP JUMPDEST CALLVALUE DUP1 ISZERO PUSH2 0x306 JUMPI PUSH0 DUP1 REVERT JUMPDEST POP PUSH2 0x30F PUSH2 0xC13 JUMP JUMPDEST PUSH1 0x40 MLOAD PUSH2 0x31C SWAP2 SWAP1 PUSH2 0xF8B JUMP JUMPDEST PUSH1 0x40 MLOAD DUP1 SWAP2 SUB SWAP1 RETURN JUMPDEST CALLVALUE DUP1 ISZERO PUSH2 0x330 JUMPI PUSH0 DUP1 REVERT JUMPDEST POP PUSH2 0x339 PUSH2 0xC19 JUMP JUMPDEST STOP JUMPDEST PUSH0 DUP1 SLOAD SWAP1 PUSH2 0x100 EXP SWAP1 DIV PUSH20 0xFFFFFFFFFFFFFFFFFFFFFFFFFFFFFFFFFFFFFFFF AND DUP2 JUMP JUMPDEST PUSH0 PUSH1 0x1 DUP2 GT ISZERO PUSH2 0x371 JUMPI PUSH2 0x370 PUSH2 0x1069 JUMP JUMPDEST JUMPDEST PUSH1 0x9 PUSH0 SWAP1 SLOAD SWAP1 PUSH2 0x100 EXP SWAP1 DIV PUSH1 0xFF AND PUSH1 0x1 DUP2 GT ISZERO PUSH2 0x392 JUMPI PUSH2 0x391 PUSH2 0x1069 JUMP JUMPDEST JUMPDEST EQ DUP1 ISZERO PUSH2 0x3A1 JUMPI POP PUSH1 0x1 SLOAD TIMESTAMP LT ISZERO JUMPDEST ISZERO PUSH2 0x42D JUMPI PUSH1 0x1 PUSH1 0x9 PUSH0 PUSH2 0x100 EXP DUP2 SLOAD DUP2 PUSH1 0xFF MUL NOT AND SWAP1 DUP4 PUSH1 0x1 DUP2 GT ISZERO PUSH2 0x3CB JUMPI PUSH2 0x3CA PUSH2 0x1069 JUMP JUMPDEST JUMPDEST MUL OR SWAP1 SSTORE POP PUSH32 0xDAEC4582D5D9595688C8C98545FDD1C696D41C6AEAEB636737E84ED2F5C00EDA PUSH1 0x2 PUSH0 SWAP1 SLOAD SWAP1 PUSH2 0x100 EXP SWAP1 DIV PUSH20 0xFFFFFFFFFFFFFFFFFFFFFFFFFFFFFFFFFFFFFFFF AND PUSH1 0x3 SLOAD PUSH1 0x40 MLOAD PUSH2 0x424 SWAP3 SWAP2 SWAP1 PUSH2 0x11F4 JUMP JUMPDEST PUSH1 0x40 MLOAD DUP1 SWAP2 SUB SWAP1 LOG1 JUMPDEST PUSH1 0x1 DUP1 DUP2 GT ISZERO PUSH2 0x440 JUMPI PUSH2 0x43F PUSH2 0x1069 JUMP JUMPDEST JUMPDEST PUSH1 0x9 PUSH0 SWAP1 SLOAD SWAP1 PUSH2 0x100 EXP SWAP1 DIV PUSH1 0xFF AND PUSH1 0x1 DUP2 GT ISZERO PUSH2 0x461 JUMPI PUSH2 0x460 PUSH2 0x1069 JUMP JUMPDEST JUMPDEST EQ PUSH2 0x4A1 JUMPI PUSH1 0x40 MLOAD PUSH32 0x8C379A000000000000000000000000000000000000000000000000000000000 DUP2 MSTORE PUSH1 0x4 ADD PUSH2 0x498 SWAP1 PUSH2 0x1265 JUMP JUMPDEST PUSH1 0x40 MLOAD DUP1 SWAP2 SUB SWAP1 REVERT JUMPDEST PUSH1 0x8 PUSH0 CALLER PUSH20 0xFFFFFFFFFFFFFFFFFFFFFFFFFFFFFFFFFFFFFFFF AND PUSH20 0xFFFFFFFFFFFFFFFFFFFFFFFFFFFFFFFFFFFFFFFF AND DUP2 MSTORE PUSH1 0x20 ADD SWAP1 DUP2 MSTORE PUSH1 0x20 ADD PUSH0 KECCAK256 PUSH0 SWAP1 SLOAD SWAP1 PUSH2 0x100 EXP SWAP1 DIV PUSH1 0xFF AND ISZERO PUSH2 0x52B JUMPI PUSH1 0x40 MLOAD PUSH32 0x8C379A000000000000000000000000000000000000000000000000000000000 DUP2 MSTORE PUSH1 0x4 ADD PUSH2 0x522 SWAP1 PUSH2 0x12CD JUMP JUMPDEST PUSH1 0x40 MLOAD DUP1 SWAP2 SUB SWAP1 REVERT JUMPDEST PUSH0 PUSH1 0x7 PUSH0 CALLER PUSH20 0xFFFFFFFFFFFFFFFFFFFFFFFFFFFFFFFFFFFFFFFF AND PUSH20 0xFFFFFFFFFFFFFFFFFFFFFFFFFFFFFFFFFFFFFFFF AND DUP2 MSTORE PUSH1 0x20 ADD SWAP1 DUP2 MSTORE PUSH1 0x20 ADD PUSH0 KECCAK256 SLOAD SWAP1 POP PUSH0 DUP2 GT ISZERO PUSH2 0x60E JUMPI PUSH1 0x1 PUSH1 0x8 PUSH0 CALLER PUSH20 0xFFFFFFFFFFFFFFFFFFFFFFFFFFFFFFFFFFFFFFFF AND PUSH20 0xFFFFFFFFFFFFFFFFFFFFFFFFFFFFFFFFFFFFFFFF AND DUP2 MSTORE PUSH1 0x20 ADD SWAP1 DUP2 MSTORE PUSH1 0x20 ADD PUSH0 KECCAK256 PUSH0 PUSH2 0x100 EXP DUP2 SLOAD DUP2 PUSH1 0xFF MUL NOT AND SWAP1 DUP4 ISZERO ISZERO MUL OR SWAP1 SSTORE POP CALLER PUSH20 0xFFFFFFFFFFFFFFFFFFFFFFFFFFFFFFFFFFFFFFFF AND PUSH2 0x8FC DUP3 SWAP1 DUP2 ISZERO MUL SWAP1 PUSH1 0x40 MLOAD PUSH0 PUSH1 0x40 MLOAD DUP1 DUP4 SUB DUP2 DUP6 DUP9 DUP9 CALL SWAP4 POP POP POP POP ISZERO DUP1 ISZERO PUSH2 0x60C JUMPI RETURNDATASIZE PUSH0 DUP1 RETURNDATACOPY RETURNDATASIZE PUSH0 REVERT JUMPDEST POP JUMPDEST POP JUMP JUMPDEST PUSH1 0x1 SLOAD DUP2 JUMP JUMPDEST PUSH0 PUSH1 0x5 SLOAD SWAP1 POP SWAP1 JUMP JUMPDEST PUSH1 0x8 PUSH1 0x20 MSTORE DUP1 PUSH0 MSTORE PUSH1 0x40 PUSH0 KECCAK256 PUSH0 SWAP2 POP SLOAD SWAP1 PUSH2 0x100 EXP SWAP1 DIV PUSH1 0xFF AND DUP2 JUMP JUMPDEST PUSH1 0x7 PUSH1 0x20 MSTORE DUP1 PUSH0 MSTORE PUSH1 0x40 PUSH0 KECCAK256 PUSH0 SWAP2 POP SWAP1 POP SLOAD DUP2 JUMP JUMPDEST PUSH1 0x2 PUSH0 SWAP1 SLOAD SWAP1 PUSH2 0x100 EXP SWAP1 DIV PUSH20 0xFFFFFFFFFFFFFFFFFFFFFFFFFFFFFFFFFFFFFFFF AND DUP2 JUMP JUMPDEST PUSH1 0x6 PUSH0 SWAP1 SLOAD SWAP1 PUSH2 0x100 EXP SWAP1 DIV PUSH1 0xFF AND DUP2 JUMP JUMPDEST PUSH1 0x9 PUSH0 SWAP1 SLOAD SWAP1 PUSH2 0x100 EXP SWAP1 DIV PUSH1 0xFF AND DUP2 JUMP JUMPDEST PUSH1 0x4 DUP1 SLOAD PUSH2 0x6A8 SWAP1 PUSH2 0x1318 JUMP JUMPDEST DUP1 PUSH1 0x1F ADD PUSH1 0x20 DUP1 SWAP2 DIV MUL PUSH1 0x20 ADD PUSH1 0x40 MLOAD SWAP1 DUP2 ADD PUSH1 0x40 MSTORE DUP1 SWAP3 SWAP2 SWAP1 DUP2 DUP2 MSTORE PUSH1 0x20 ADD DUP3 DUP1 SLOAD PUSH2 0x6D4 SWAP1 PUSH2 0x1318 JUMP JUMPDEST DUP1 ISZERO PUSH2 0x71F JUMPI DUP1 PUSH1 0x1F LT PUSH2 0x6F6 JUMPI PUSH2 0x100 DUP1 DUP4 SLOAD DIV MUL DUP4 MSTORE SWAP2 PUSH1 0x20 ADD SWAP2 PUSH2 0x71F JUMP JUMPDEST DUP3 ADD SWAP2 SWAP1 PUSH0 MSTORE PUSH1 0x20 PUSH0 KECCAK256 SWAP1 JUMPDEST DUP2 SLOAD DUP2 MSTORE SWAP1 PUSH1 0x1 ADD SWAP1 PUSH1 0x20 ADD DUP1 DUP4 GT PUSH2 0x702 JUMPI DUP3 SWAP1 SUB PUSH1 0x1F AND DUP3 ADD SWAP2 JUMPDEST POP POP POP POP POP DUP2 JUMP JUMPDEST PUSH0 PUSH1 0x1 DUP2 GT ISZERO PUSH2 0x73A JUMPI PUSH2 0x739 PUSH2 0x1069 JUMP JUMPDEST JUMPDEST PUSH1 0x9 PUSH0 SWAP1 SLOAD SWAP1 PUSH2 0x100 EXP SWAP1 DIV PUSH1 0xFF AND PUSH1 0x1 DUP2 GT ISZERO PUSH2 0x75B JUMPI PUSH2 0x75A PUSH2 0x1069 JUMP JUMPDEST JUMPDEST EQ DUP1 ISZERO PUSH2 0x76A JUMPI POP PUSH1 0x1 SLOAD TIMESTAMP LT ISZERO JUMPDEST ISZERO PUSH2 0x7F6 JUMPI PUSH1 0x1 PUSH1 0x9 PUSH0 PUSH2 0x100 EXP DUP2 SLOAD DUP2 PUSH1 0xFF MUL NOT AND SWAP1 DUP4 PUSH1 0x1 DUP2 GT ISZERO PUSH2 0x794 JUMPI PUSH2 0x793 PUSH2 0x1069 JUMP JUMPDEST JUMPDEST MUL OR SWAP1 SSTORE POP PUSH32 0xDAEC4582D5D9595688C8C98545FDD1C696D41C6AEAEB636737E84ED2F5C00EDA PUSH1 0x2 PUSH0 SWAP1 SLOAD SWAP1 PUSH2 0x100 EXP SWAP1 DIV PUSH20 0xFFFFFFFFFFFFFFFFFFFFFFFFFFFFFFFFFFFFFFFF AND PUSH1 0x3 SLOAD PUSH1 0x40 MLOAD PUSH2 0x7ED SWAP3 SWAP2 SWAP1 PUSH2 0x11F4 JUMP JUMPDEST PUSH1 0x40 MLOAD DUP1 SWAP2 SUB SWAP1 LOG1 JUMPDEST PUSH1 0x1 DUP1 DUP2 GT ISZERO PUSH2 0x809 JUMPI PUSH2 0x808 PUSH2 0x1069 JUMP JUMPDEST JUMPDEST PUSH1 0x9 PUSH0 SWAP1 SLOAD SWAP1 PUSH2 0x100 EXP SWAP1 DIV PUSH1 0xFF AND PUSH1 0x1 DUP2 GT ISZERO PUSH2 0x82A JUMPI PUSH2 0x829 PUSH2 0x1069 JUMP JUMPDEST JUMPDEST EQ PUSH2 0x86A JUMPI PUSH1 0x40 MLOAD PUSH32 0x8C379A000000000000000000000000000000000000000000000000000000000 DUP2 MSTORE PUSH1 0x4 ADD PUSH2 0x861 SWAP1 PUSH2 0x1265 JUMP JUMPDEST PUSH1 0x40 MLOAD DUP1 SWAP2 SUB SWAP1 REVERT JUMPDEST PUSH1 0x2 PUSH0 SWAP1 SLOAD SWAP1 PUSH2 0x100 EXP SWAP1 DIV PUSH20 0xFFFFFFFFFFFFFFFFFFFFFFFFFFFFFFFFFFFFFFFF AND PUSH20 0xFFFFFFFFFFFFFFFFFFFFFFFFFFFFFFFFFFFFFFFF AND CALLER PUSH20 0xFFFFFFFFFFFFFFFFFFFFFFFFFFFFFFFFFFFFFFFF AND EQ PUSH2 0x8F9 JUMPI PUSH1 0x40 MLOAD PUSH32 0x8C379A000000000000000000000000000000000000000000000000000000000 DUP2 MSTORE PUSH1 0x4 ADD PUSH2 0x8F0 SWAP1 PUSH2 0x13B8 JUMP JUMPDEST PUSH1 0x40 MLOAD DUP1 SWAP2 SUB SWAP1 REVERT JUMPDEST PUSH1 0x6 PUSH0 SWAP1 SLOAD SWAP1 PUSH2 0x100 EXP SWAP1 DIV PUSH1 0xFF AND ISZERO PUSH2 0x948 JUMPI PUSH1 0x40 MLOAD PUSH32 0x8C379A000000000000000000000000000000000000000000000000000000000 DUP2 MSTORE PUSH1 0x4 ADD PUSH2 0x93F SWAP1 PUSH2 0x1420 JUMP JUMPDEST PUSH1 0x40 MLOAD DUP1 SWAP2 SUB SWAP1 REVERT JUMPDEST PUSH1 0x1 DUP2 LT ISZERO DUP1 ISZERO PUSH2 0x95A JUMPI POP PUSH1 0x5 DUP2 GT ISZERO JUMPDEST PUSH2 0x999 JUMPI PUSH1 0x40 MLOAD PUSH32 0x8C379A000000000000000000000000000000000000000000000000000000000 DUP2 MSTORE PUSH1 0x4 ADD PUSH2 0x990 SWAP1 PUSH2 0x1488 JUMP JUMPDEST PUSH1 0x40 MLOAD DUP1 SWAP2 SUB SWAP1 REVERT JUMPDEST DUP1 PUSH1 0x5 DUP2 SWAP1 SSTORE POP PUSH1 0x1 PUSH1 0x6 PUSH0 PUSH2 0x100 EXP DUP2 SLOAD DUP2 PUSH1 0xFF MUL NOT AND SWAP1 DUP4 ISZERO ISZERO MUL OR SWAP1 SSTORE POP POP JUMP JUMPDEST PUSH1 0x3 SLOAD DUP2 JUMP JUMPDEST PUSH0 PUSH1 0x1 DUP2 GT ISZERO PUSH2 0x9D6 JUMPI PUSH2 0x9D5 PUSH2 0x1069 JUMP JUMPDEST JUMPDEST PUSH1 0x9 PUSH0 SWAP1 SLOAD SWAP1 PUSH2 0x100 EXP SWAP1 DIV PUSH1 0xFF AND PUSH1 0x1 DUP2 GT ISZERO PUSH2 0x9F7 JUMPI PUSH2 0x9F6 PUSH2 0x1069 JUMP JUMPDEST JUMPDEST EQ DUP1 ISZERO PUSH2 0xA06 JUMPI POP PUSH1 0x1 SLOAD TIMESTAMP LT ISZERO JUMPDEST ISZERO PUSH2 0xA92 JUMPI PUSH1 0x1 PUSH1 0x9 PUSH0 PUSH2 0x100 EXP DUP2 SLOAD DUP2 PUSH1 0xFF MUL NOT AND SWAP1 DUP4 PUSH1 0x1 DUP2 GT ISZERO PUSH2 0xA30 JUMPI PUSH2 0xA2F PUSH2 0x1069 JUMP JUMPDEST JUMPDEST MUL OR SWAP1 SSTORE POP PUSH32 0xDAEC4582D5D9595688C8C98545FDD1C696D41C6AEAEB636737E84ED2F5C00EDA PUSH1 0x2 PUSH0 SWAP1 SLOAD SWAP1 PUSH2 0x100 EXP SWAP1 DIV PUSH20 0xFFFFFFFFFFFFFFFFFFFFFFFFFFFFFFFFFFFFFFFF AND PUSH1 0x3 SLOAD PUSH1 0x40 MLOAD PUSH2 0xA89 SWAP3 SWAP2 SWAP1 PUSH2 0x11F4 JUMP JUMPDEST PUSH1 0x40 MLOAD DUP1 SWAP2 SUB SWAP1 LOG1 JUMPDEST PUSH0 PUSH1 0x1 DUP2 GT ISZERO PUSH2 0xAA5 JUMPI PUSH2 0xAA4 PUSH2 0x1069 JUMP JUMPDEST JUMPDEST PUSH1 0x9 PUSH0 SWAP1 SLOAD SWAP1 PUSH2 0x100 EXP SWAP1 DIV PUSH1 0xFF AND PUSH1 0x1 DUP2 GT ISZERO PUSH2 0xAC6 JUMPI PUSH2 0xAC5 PUSH2 0x1069 JUMP JUMPDEST JUMPDEST EQ PUSH2 0xB06 JUMPI PUSH1 0x40 MLOAD PUSH32 0x8C379A000000000000000000000000000000000000000000000000000000000 DUP2 MSTORE PUSH1 0x4 ADD PUSH2 0xAFD SWAP1 PUSH2 0x14F0 JUMP JUMPDEST PUSH1 0x40 MLOAD DUP1 SWAP2 SUB SWAP1 REVERT JUMPDEST PUSH1 0x3 SLOAD CALLVALUE GT PUSH2 0xB4A JUMPI PUSH1 0x40 MLOAD PUSH32 0x8C379A000000000000000000000000000000000000000000000000000000000 DUP2 MSTORE PUSH1 0x4 ADD PUSH2 0xB41 SWAP1 PUSH2 0x1558 JUMP JUMPDEST PUSH1 0x40 MLOAD DUP1 SWAP2 SUB SWAP1 REVERT JUMPDEST PUSH0 PUSH1 0x3 SLOAD EQ PUSH2 0xBCA JUMPI PUSH1 0x3 SLOAD PUSH1 0x7 PUSH0 PUSH1 0x2 PUSH0 SWAP1 SLOAD SWAP1 PUSH2 0x100 EXP SWAP1 DIV PUSH20 0xFFFFFFFFFFFFFFFFFFFFFFFFFFFFFFFFFFFFFFFF AND PUSH20 0xFFFFFFFFFFFFFFFFFFFFFFFFFFFFFFFFFFFFFFFF AND PUSH20 0xFFFFFFFFFFFFFFFFFFFFFFFFFFFFFFFFFFFFFFFF AND DUP2 MSTORE PUSH1 0x20 ADD SWAP1 DUP2 MSTORE PUSH1 0x20 ADD PUSH0 KECCAK256 PUSH0 DUP3 DUP3 SLOAD PUSH2 0xBC2 SWAP2 SWAP1 PUSH2 0x15A3 JUMP JUMPDEST SWAP3 POP POP DUP2 SWAP1 SSTORE POP JUMPDEST CALLER PUSH1 0x2 PUSH0 PUSH2 0x100 EXP DUP2 SLOAD DUP2 PUSH20 0xFFFFFFFFFFFFFFFFFFFFFFFFFFFFFFFFFFFFFFFF MUL NOT AND SWAP1 DUP4 PUSH20 0xFFFFFFFFFFFFFFFFFFFFFFFFFFFFFFFFFFFFFFFF AND MUL OR SWAP1 SSTORE POP CALLVALUE PUSH1 0x3 DUP2 SWAP1 SSTORE POP JUMP JUMPDEST PUSH1 0x5 SLOAD DUP2 JUMP JUMPDEST PUSH0 DUP1 SLOAD SWAP1 PUSH2 0x100 EXP SWAP1 DIV PUSH20 0xFFFFFFFFFFFFFFFFFFFFFFFFFFFFFFFFFFFFFFFF AND PUSH20 0xFFFFFFFFFFFFFFFFFFFFFFFFFFFFFFFFFFFFFFFF AND CALLER PUSH20 0xFFFFFFFFFFFFFFFFFFFFFFFFFFFFFFFFFFFFFFFF AND EQ PUSH2 0xCA6 JUMPI PUSH1 0x40 MLOAD PUSH32 0x8C379A000000000000000000000000000000000000000000000000000000000 DUP2 MSTORE PUSH1 0x4 ADD PUSH2 0xC9D SWAP1 PUSH2 0x1646 JUMP JUMPDEST PUSH1 0x40 MLOAD DUP1 SWAP2 SUB SWAP1 REVERT JUMPDEST PUSH1 0x1 SLOAD TIMESTAMP LT ISZERO PUSH2 0xCEB JUMPI PUSH1 0x40 MLOAD PUSH32 0x8C379A000000000000000000000000000000000000000000000000000000000 DUP2 MSTORE PUSH1 0x4 ADD PUSH2 0xCE2 SWAP1 PUSH2 0x16AE JUMP JUMPDEST PUSH1 0x40 MLOAD DUP1 SWAP2 SUB SWAP1 REVERT JUMPDEST PUSH0 PUSH1 0x1 DUP2 GT ISZERO PUSH2 0xCFE JUMPI PUSH2 0xCFD PUSH2 0x1069 JUMP JUMPDEST JUMPDEST PUSH1 0x9 PUSH0 SWAP1 SLOAD SWAP1 PUSH2 0x100 EXP SWAP1 DIV PUSH1 0xFF AND PUSH1 0x1 DUP2 GT ISZERO PUSH2 0xD1F JUMPI PUSH2 0xD1E PUSH2 0x1069 JUMP JUMPDEST JUMPDEST EQ DUP1 ISZERO PUSH2 0xD2E JUMPI POP PUSH1 0x1 SLOAD TIMESTAMP LT ISZERO JUMPDEST ISZERO PUSH2 0xDBA JUMPI PUSH1 0x1 PUSH1 0x9 PUSH0 PUSH2 0x100 EXP DUP2 SLOAD DUP2 PUSH1 0xFF MUL NOT AND SWAP1 DUP4 PUSH1 0x1 DUP2 GT ISZERO PUSH2 0xD58 JUMPI PUSH2 0xD57 PUSH2 0x1069 JUMP JUMPDEST JUMPDEST MUL OR SWAP1 SSTORE POP PUSH32 0xDAEC4582D5D9595688C8C98545FDD1C696D41C6AEAEB636737E84ED2F5C00EDA PUSH1 0x2 PUSH0 SWAP1 SLOAD SWAP1 PUSH2 0x100 EXP SWAP1 DIV PUSH20 0xFFFFFFFFFFFFFFFFFFFFFFFFFFFFFFFFFFFFFFFF AND PUSH1 0x3 SLOAD PUSH1 0x40 MLOAD PUSH2 0xDB1 SWAP3 SWAP2 SWAP1 PUSH2 0x11F4 JUMP JUMPDEST PUSH1 0x40 MLOAD DUP1 SWAP2 SUB SWAP1 LOG1 JUMPDEST PUSH0 PUSH1 0x1 DUP2 GT ISZERO PUSH2 0xDCD JUMPI PUSH2 0xDCC PUSH2 0x1069 JUMP JUMPDEST JUMPDEST PUSH1 0x9 PUSH0 SWAP1 SLOAD SWAP1 PUSH2 0x100 EXP SWAP1 DIV PUSH1 0xFF AND PUSH1 0x1 DUP2 GT ISZERO PUSH2 0xDEE JUMPI PUSH2 0xDED PUSH2 0x1069 JUMP JUMPDEST JUMPDEST EQ PUSH2 0xE2E JUMPI PUSH1 0x40 MLOAD PUSH32 0x8C379A000000000000000000000000000000000000000000000000000000000 DUP2 MSTORE PUSH1 0x4 ADD PUSH2 0xE25 SWAP1 PUSH2 0x14F0 JUMP JUMPDEST PUSH1 0x40 MLOAD DUP1 SWAP2 SUB SWAP1 REVERT JUMPDEST PUSH1 0x1 PUSH1 0x9 PUSH0 PUSH2 0x100 EXP DUP2 SLOAD DUP2 PUSH1 0xFF MUL NOT AND SWAP1 DUP4 PUSH1 0x1 DUP2 GT ISZERO PUSH2 0xE53 JUMPI PUSH2 0xE52 PUSH2 0x1069 JUMP JUMPDEST JUMPDEST MUL OR SWAP1 SSTORE POP PUSH32 0xDAEC4582D5D9595688C8C98545FDD1C696D41C6AEAEB636737E84ED2F5C00EDA PUSH1 0x2 PUSH0 SWAP1 SLOAD SWAP1 PUSH2 0x100 EXP SWAP1 DIV PUSH20 0xFFFFFFFFFFFFFFFFFFFFFFFFFFFFFFFFFFFFFFFF AND PUSH1 0x3 SLOAD PUSH1 0x40 MLOAD PUSH2 0xEAC SWAP3 SWAP2 SWAP1 PUSH2 0x11F4 JUMP JUMPDEST PUSH1 0x40 MLOAD DUP1 SWAP2 SUB SWAP1 LOG1 PUSH0 DUP1 SLOAD SWAP1 PUSH2 0x100 EXP SWAP1 DIV PUSH20 0xFFFFFFFFFFFFFFFFFFFFFFFFFFFFFFFFFFFFFFFF AND PUSH20 0xFFFFFFFFFFFFFFFFFFFFFFFFFFFFFFFFFFFFFFFF AND PUSH2 0x8FC PUSH1 0x3 SLOAD SWAP1 DUP2 ISZERO MUL SWAP1 PUSH1 0x40 MLOAD PUSH0 PUSH1 0x40 MLOAD DUP1 DUP4 SUB DUP2 DUP6 DUP9 DUP9 CALL SWAP4 POP POP POP POP ISZERO DUP1 ISZERO PUSH2 0xF18 JUMPI RETURNDATASIZE PUSH0 DUP1 RETURNDATACOPY RETURNDATASIZE PUSH0 REVERT JUMPDEST POP JUMP JUMPDEST PUSH0 PUSH20 0xFFFFFFFFFFFFFFFFFFFFFFFFFFFFFFFFFFFFFFFF DUP3 AND SWAP1 POP SWAP2 SWAP1 POP JUMP JUMPDEST PUSH0 PUSH2 0xF44 DUP3 PUSH2 0xF1B JUMP JUMPDEST SWAP1 POP SWAP2 SWAP1 POP JUMP JUMPDEST PUSH2 0xF54 DUP2 PUSH2 0xF3A JUMP JUMPDEST DUP3 MSTORE POP POP JUMP JUMPDEST PUSH0 PUSH1 0x20 DUP3 ADD SWAP1 POP PUSH2 0xF6D PUSH0 DUP4 ADD DUP5 PUSH2 0xF4B JUMP JUMPDEST SWAP3 SWAP2 POP POP JUMP JUMPDEST PUSH0 DUP2 SWAP1 POP SWAP2 SWAP1 POP JUMP JUMPDEST PUSH2 0xF85 DUP2 PUSH2 0xF73 JUMP JUMPDEST DUP3 MSTORE POP POP JUMP JUMPDEST PUSH0 PUSH1 0x20 DUP3 ADD SWAP1 POP PUSH2 0xF9E PUSH0 DUP4 ADD DUP5 PUSH2 0xF7C JUMP JUMPDEST SWAP3 SWAP2 POP POP JUMP JUMPDEST PUSH0 DUP1 REVERT JUMPDEST PUSH0 PUSH2 0xFB2 DUP3 PUSH2 0xF1B JUMP JUMPDEST SWAP1 POP SWAP2 SWAP1 POP JUMP JUMPDEST PUSH2 0xFC2 DUP2 PUSH2 0xFA8 JUMP JUMPDEST DUP2 EQ PUSH2 0xFCC JUMPI PUSH0 DUP1 REVERT JUMPDEST POP JUMP JUMPDEST PUSH0 DUP2 CALLDATALOAD SWAP1 POP PUSH2 0xFDD DUP2 PUSH2 0xFB9 JUMP JUMPDEST SWAP3 SWAP2 POP POP JUMP JUMPDEST PUSH0 PUSH1 0x20 DUP3 DUP5 SUB SLT ISZERO PUSH2 0xFF8 JUMPI PUSH2 0xFF7 PUSH2 0xFA4 JUMP JUMPDEST JUMPDEST PUSH0 PUSH2 0x1005 DUP5 DUP3 DUP6 ADD PUSH2 0xFCF JUMP JUMPDEST SWAP2 POP POP SWAP3 SWAP2 POP POP JUMP JUMPDEST PUSH0 DUP2 ISZERO ISZERO SWAP1 POP SWAP2 SWAP1 POP JUMP JUMPDEST PUSH2 0x1022 DUP2 PUSH2 0x100E JUMP JUMPDEST DUP3 MSTORE POP POP JUMP JUMPDEST PUSH0 PUSH1 0x20 DUP3 ADD SWAP1 POP PUSH2 0x103B PUSH0 DUP4 ADD DUP5 PUSH2 0x1019 JUMP JUMPDEST SWAP3 SWAP2 POP POP JUMP JUMPDEST PUSH2 0x104A DUP2 PUSH2 0xFA8 JUMP JUMPDEST DUP3 MSTORE POP POP JUMP JUMPDEST PUSH0 PUSH1 0x20 DUP3 ADD SWAP1 POP PUSH2 0x1063 PUSH0 DUP4 ADD DUP5 PUSH2 0x1041 JUMP JUMPDEST SWAP3 SWAP2 POP POP JUMP JUMPDEST PUSH32 0x4E487B7100000000000000000000000000000000000000000000000000000000 PUSH0 MSTORE PUSH1 0x21 PUSH1 0x4 MSTORE PUSH1 0x24 PUSH0 REVERT JUMPDEST PUSH1 0x2 DUP2 LT PUSH2 0x10A7 JUMPI PUSH2 0x10A6 PUSH2 0x1069 JUMP JUMPDEST JUMPDEST POP JUMP JUMPDEST PUSH0 DUP2 SWAP1 POP PUSH2 0x10B7 DUP3 PUSH2 0x1096 JUMP JUMPDEST SWAP2 SWAP1 POP JUMP JUMPDEST PUSH0 PUSH2 0x10C6 DUP3 PUSH2 0x10AA JUMP JUMPDEST SWAP1 POP SWAP2 SWAP1 POP JUMP JUMPDEST PUSH2 0x10D6 DUP2 PUSH2 0x10BC JUMP JUMPDEST DUP3 MSTORE POP POP JUMP JUMPDEST PUSH0 PUSH1 0x20 DUP3 ADD SWAP1 POP PUSH2 0x10EF PUSH0 DUP4 ADD DUP5 PUSH2 0x10CD JUMP JUMPDEST SWAP3 SWAP2 POP POP JUMP JUMPDEST PUSH0 DUP2 MLOAD SWAP1 POP SWAP2 SWAP1 POP JUMP JUMPDEST PUSH0 DUP3 DUP3 MSTORE PUSH1 0x20 DUP3 ADD SWAP1 POP SWAP3 SWAP2 POP POP JUMP JUMPDEST PUSH0 JUMPDEST DUP4 DUP2 LT ISZERO PUSH2 0x112C JUMPI DUP1 DUP3 ADD MLOAD DUP2 DUP5 ADD MSTORE PUSH1 0x20 DUP2 ADD SWAP1 POP PUSH2 0x1111 JUMP JUMPDEST PUSH0 DUP5 DUP5 ADD MSTORE POP POP POP POP JUMP JUMPDEST PUSH0 PUSH1 0x1F NOT PUSH1 0x1F DUP4 ADD AND SWAP1 POP SWAP2 SWAP1 POP JUMP JUMPDEST PUSH0 PUSH2 0x1151 DUP3 PUSH2 0x10F5 JUMP JUMPDEST PUSH2 0x115B DUP2 DUP6 PUSH2 0x10FF JUMP JUMPDEST SWAP4 POP PUSH2 0x116B DUP2 DUP6 PUSH1 0x20 DUP7 ADD PUSH2 0x110F JUMP JUMPDEST PUSH2 0x1174 DUP2 PUSH2 0x1137 JUMP JUMPDEST DUP5 ADD SWAP2 POP POP SWAP3 SWAP2 POP POP JUMP JUMPDEST PUSH0 PUSH1 0x20 DUP3 ADD SWAP1 POP DUP2 DUP2 SUB PUSH0 DUP4 ADD MSTORE PUSH2 0x1197 DUP2 DUP5 PUSH2 0x1147 JUMP JUMPDEST SWAP1 POP SWAP3 SWAP2 POP POP JUMP JUMPDEST PUSH2 0x11A8 DUP2 PUSH2 0xF73 JUMP JUMPDEST DUP2 EQ PUSH2 0x11B2 JUMPI PUSH0 DUP1 REVERT JUMPDEST POP JUMP JUMPDEST PUSH0 DUP2 CALLDATALOAD SWAP1 POP PUSH2 0x11C3 DUP2 PUSH2 0x119F JUMP JUMPDEST SWAP3 SWAP2 POP POP JUMP JUMPDEST PUSH0 PUSH1 0x20 DUP3 DUP5 SUB SLT ISZERO PUSH2 0x11DE JUMPI PUSH2 0x11DD PUSH2 0xFA4 JUMP JUMPDEST JUMPDEST PUSH0 PUSH2 0x11EB DUP5 DUP3 DUP6 ADD PUSH2 0x11B5 JUMP JUMPDEST SWAP2 POP POP SWAP3 SWAP2 POP POP JUMP JUMPDEST PUSH0 PUSH1 0x40 DUP3 ADD SWAP1 POP PUSH2 0x1207 PUSH0 DUP4 ADD DUP6 PUSH2 0x1041 JUMP JUMPDEST PUSH2 0x1214 PUSH1 0x20 DUP4 ADD DUP5 PUSH2 0xF7C JUMP JUMPDEST SWAP4 SWAP3 POP POP POP JUMP JUMPDEST PUSH32 0x41756374696F6E206973206E6F7420656E646564000000000000000000000000 PUSH0 DUP3 ADD MSTORE POP JUMP JUMPDEST PUSH0 PUSH2 0x124F PUSH1 0x14 DUP4 PUSH2 0x10FF JUMP JUMPDEST SWAP2 POP PUSH2 0x125A DUP3 PUSH2 0x121B JUMP JUMPDEST PUSH1 0x20 DUP3 ADD SWAP1 POP SWAP2 SWAP1 POP JUMP JUMPDEST PUSH0 PUSH1 0x20 DUP3 ADD SWAP1 POP DUP2 DUP2 SUB PUSH0 DUP4 ADD MSTORE PUSH2 0x127C DUP2 PUSH2 0x1243 JUMP JUMPDEST SWAP1 POP SWAP2 SWAP1 POP JUMP JUMPDEST PUSH32 0x416C72656164792077697468647261776E000000000000000000000000000000 PUSH0 DUP3 ADD MSTORE POP JUMP JUMPDEST PUSH0 PUSH2 0x12B7 PUSH1 0x11 DUP4 PUSH2 0x10FF JUMP JUMPDEST SWAP2 POP PUSH2 0x12C2 DUP3 PUSH2 0x1283 JUMP JUMPDEST PUSH1 0x20 DUP3 ADD SWAP1 POP SWAP2 SWAP1 POP JUMP JUMPDEST PUSH0 PUSH1 0x20 DUP3 ADD SWAP1 POP DUP2 DUP2 SUB PUSH0 DUP4 ADD MSTORE PUSH2 0x12E4 DUP2 PUSH2 0x12AB JUMP JUMPDEST SWAP1 POP SWAP2 SWAP1 POP JUMP JUMPDEST PUSH32 0x4E487B7100000000000000000000000000000000000000000000000000000000 PUSH0 MSTORE PUSH1 0x22 PUSH1 0x4 MSTORE PUSH1 0x24 PUSH0 REVERT JUMPDEST PUSH0 PUSH1 0x2 DUP3 DIV SWAP1 POP PUSH1 0x1 DUP3 AND DUP1 PUSH2 0x132F JUMPI PUSH1 0x7F DUP3 AND SWAP2 POP JUMPDEST PUSH1 0x20 DUP3 LT DUP2 SUB PUSH2 0x1342 JUMPI PUSH2 0x1341 PUSH2 0x12EB JUMP JUMPDEST JUMPDEST POP SWAP2 SWAP1 POP JUMP JUMPDEST PUSH32 0x4F6E6C792068696768657374206269646465722063616E207261746520746865 PUSH0 DUP3 ADD MSTORE PUSH32 0x2073656C6C657200000000000000000000000000000000000000000000000000 PUSH1 0x20 DUP3 ADD MSTORE POP JUMP JUMPDEST PUSH0 PUSH2 0x13A2 PUSH1 0x27 DUP4 PUSH2 0x10FF JUMP JUMPDEST SWAP2 POP PUSH2 0x13AD DUP3 PUSH2 0x1348 JUMP JUMPDEST PUSH1 0x40 DUP3 ADD SWAP1 POP SWAP2 SWAP1 POP JUMP JUMPDEST PUSH0 PUSH1 0x20 DUP3 ADD SWAP1 POP DUP2 DUP2 SUB PUSH0 DUP4 ADD MSTORE PUSH2 0x13CF DUP2 PUSH2 0x1396 JUMP JUMPDEST SWAP1 POP SWAP2 SWAP1 POP JUMP JUMPDEST PUSH32 0x53656C6C657220616C7265616479207261746564000000000000000000000000 PUSH0 DUP3 ADD MSTORE POP JUMP JUMPDEST PUSH0 PUSH2 0x140A PUSH1 0x14 DUP4 PUSH2 0x10FF JUMP JUMPDEST SWAP2 POP PUSH2 0x1415 DUP3 PUSH2 0x13D6 JUMP JUMPDEST PUSH1 0x20 DUP3 ADD SWAP1 POP SWAP2 SWAP1 POP JUMP JUMPDEST PUSH0 PUSH1 0x20 DUP3 ADD SWAP1 POP DUP2 DUP2 SUB PUSH0 DUP4 ADD MSTORE PUSH2 0x1437 DUP2 PUSH2 0x13FE JUMP JUMPDEST SWAP1 POP SWAP2 SWAP1 POP JUMP JUMPDEST PUSH32 0x496E76616C696420726174696E672076616C7565000000000000000000000000 PUSH0 DUP3 ADD MSTORE POP JUMP JUMPDEST PUSH0 PUSH2 0x1472 PUSH1 0x14 DUP4 PUSH2 0x10FF JUMP JUMPDEST SWAP2 POP PUSH2 0x147D DUP3 PUSH2 0x143E JUMP JUMPDEST PUSH1 0x20 DUP3 ADD SWAP1 POP SWAP2 SWAP1 POP JUMP JUMPDEST PUSH0 PUSH1 0x20 DUP3 ADD SWAP1 POP DUP2 DUP2 SUB PUSH0 DUP4 ADD MSTORE PUSH2 0x149F DUP2 PUSH2 0x1466 JUMP JUMPDEST SWAP1 POP SWAP2 SWAP1 POP JUMP JUMPDEST PUSH32 0x41756374696F6E206973206E6F74206163746976650000000000000000000000 PUSH0 DUP3 ADD MSTORE POP JUMP JUMPDEST PUSH0 PUSH2 0x14DA PUSH1 0x15 DUP4 PUSH2 0x10FF JUMP JUMPDEST SWAP2 POP PUSH2 0x14E5 DUP3 PUSH2 0x14A6 JUMP JUMPDEST PUSH1 0x20 DUP3 ADD SWAP1 POP SWAP2 SWAP1 POP JUMP JUMPDEST PUSH0 PUSH1 0x20 DUP3 ADD SWAP1 POP DUP2 DUP2 SUB PUSH0 DUP4 ADD MSTORE PUSH2 0x1507 DUP2 PUSH2 0x14CE JUMP JUMPDEST SWAP1 POP SWAP2 SWAP1 POP JUMP JUMPDEST PUSH32 0x42696420616D6F756E7420746F6F206C6F770000000000000000000000000000 PUSH0 DUP3 ADD MSTORE POP JUMP JUMPDEST PUSH0 PUSH2 0x1542 PUSH1 0x12 DUP4 PUSH2 0x10FF JUMP JUMPDEST SWAP2 POP PUSH2 0x154D DUP3 PUSH2 0x150E JUMP JUMPDEST PUSH1 0x20 DUP3 ADD SWAP1 POP SWAP2 SWAP1 POP JUMP JUMPDEST PUSH0 PUSH1 0x20 DUP3 ADD SWAP1 POP DUP2 DUP2 SUB PUSH0 DUP4 ADD MSTORE PUSH2 0x156F DUP2 PUSH2 0x1536 JUMP JUMPDEST SWAP1 POP SWAP2 SWAP1 POP JUMP JUMPDEST PUSH32 0x4E487B7100000000000000000000000000000000000000000000000000000000 PUSH0 MSTORE PUSH1 0x11 PUSH1 0x4 MSTORE PUSH1 0x24 PUSH0 REVERT JUMPDEST PUSH0 PUSH2 0x15AD DUP3 PUSH2 0xF73 JUMP JUMPDEST SWAP2 POP PUSH2 0x15B8 DUP4 PUSH2 0xF73 JUMP JUMPDEST SWAP3 POP DUP3 DUP3 ADD SWAP1 POP DUP1 DUP3 GT ISZERO PUSH2 0x15D0 JUMPI PUSH2 0x15CF PUSH2 0x1576 JUMP JUMPDEST JUMPDEST SWAP3 SWAP2 POP POP JUMP JUMPDEST PUSH32 0x4F6E6C792073656C6C65722063616E20706572666F726D207468697320616374 PUSH0 DUP3 ADD MSTORE PUSH32 0x696F6E0000000000000000000000000000000000000000000000000000000000 PUSH1 0x20 DUP3 ADD MSTORE POP JUMP JUMPDEST PUSH0 PUSH2 0x1630 PUSH1 0x23 DUP4 PUSH2 0x10FF JUMP JUMPDEST SWAP2 POP PUSH2 0x163B DUP3 PUSH2 0x15D6 JUMP JUMPDEST PUSH1 0x40 DUP3 ADD SWAP1 POP SWAP2 SWAP1 POP JUMP JUMPDEST PUSH0 PUSH1 0x20 DUP3 ADD SWAP1 POP DUP2 DUP2 SUB PUSH0 DUP4 ADD MSTORE PUSH2 0x165D DUP2 PUSH2 0x1624 JUMP JUMPDEST SWAP1 POP SWAP2 SWAP1 POP JUMP JUMPDEST PUSH32 0x41756374696F6E206E6F742079657420656E6465640000000000000000000000 PUSH0 DUP3 ADD MSTORE POP JUMP JUMPDEST PUSH0 PUSH2 0x1698 PUSH1 0x15 DUP4 PUSH2 0x10FF JUMP JUMPDEST SWAP2 POP PUSH2 0x16A3 DUP3 PUSH2 0x1664 JUMP JUMPDEST PUSH1 0x20 DUP3 ADD SWAP1 POP SWAP2 SWAP1 POP JUMP JUMPDEST PUSH0 PUSH1 0x20 DUP3 ADD SWAP1 POP DUP2 DUP2 SUB PUSH0 DUP4 ADD MSTORE PUSH2 0x16C5 DUP2 PUSH2 0x168C JUMP JUMPDEST SWAP1 POP SWAP2 SWAP1 POP JUMP INVALID LOG2 PUSH5 0x6970667358 0x22 SLT KECCAK256 0x2D RETURNDATASIZE 0x5E SIGNEXTEND 0x4C 0xBC ORIGIN 0x2B 0xA5 OR MLOAD SDIV XOR SWAP1 ADD CALLDATACOPY BALANCE EXTCODECOPY SAR PUSH15 0x97E8D8A30423A88C35B1294664736F PUSH13 0x63430008140033000000000000 "},"gasEstimates":{"creation":{"codeDepositCost":"1178000","executionCost":"infinite","totalCost":"infinite"},"external":{"auctionEndTime()":"2493","auctionName()":"infinite","bids(address)":"2869","endAuction()":"infinite","getSellerRating()":"2455","hasWithdrawn(address)":"2878","highestBid()":"2447","highestBidder()":"2597","placeBid()":"infinite","rateSeller(uint256)":"infinite","seller()":"2529","sellerRated()":"2489","sellerRating()":"2491","state()":"2599","withdraw()":"infinite"}},"methodIdentifiers":{"auctionEndTime()":"4b449cba","auctionName()":"c63d99db","bids(address)":"62ea82db","endAuction()":"fe67a54b","getSellerRating()":"55bedee6","hasWithdrawn(address)":"5e2c19db","highestBid()":"d57bde79","highestBidder()":"91f90157","placeBid()":"ecfc7ecc","rateSeller(uint256)":"d17c2b54","seller()":"08551a53","sellerRated()":"bda21db0","sellerRating()":"f36efe57","state()":"c19d93fb","withdraw()":"3ccfd60b"}},"storageLayout":{"storage":[{"astId":6,"contract":"Auction.sol:Auction","label":"seller","offset":0,"slot":"0","type":"t_address_payable"},{"astId":8,"contract":"Auction.sol:Auction","label":"auctionEndTime","offset":0,"slot":"1","type":"t_uint256"},{"astId":10,"contract":"Auction.sol:Auction","label":"highestBidder","offset":0,"slot":"2","type":"t_address"},{"astId":12,"contract":"Auction.sol:Auction","label":"highestBid","offset":0,"slot":"3","type":"t_uint256"},{"astId":14,"contract":"Auction.sol:Auction","label":"auctionName","offset":0,"slot":"4","type":"t_string_storage"},{"astId":16,"contract":"Auction.sol:Auction","label":"sellerRating","offset":0,"slot":"5","type":"t_uint256"},{"astId":18,"contract":"Auction.sol:Auction","label":"sellerRated","offset":0,"slot":"6","type":"t_bool"},{"astId":22,"contract":"Auction.sol:Auction","label":"bids","offset":0,"slot":"7","type":"t_mapping(t_address,t_uint256)"},{"astId":26,"contract":"Auction.sol:Auction","label":"hasWithdrawn","offset":0,"slot":"8","type":"t_mapping(t_address,t_bool)"},{"astId":29,"contract":"Auction.sol:Auction","label":"state","offset":0,"slot":"9","type":"t_enum(AuctionState)4"}],"types":{"t_address":{"encoding":"inplace","label":"address","numberOfBytes":"20"},"t_address_payable":{"encoding":"inplace","label":"address payable","numberOfBytes":"20"},"t_bool":{"encoding":"inplace","label":"bool","numberOfBytes":"1"},"t_enum(AuctionState)4":{"encoding":"inplace","label":"enum AuctionState","numberOfBytes":"1"},"t_mapping(t_address,t_bool)":{"encoding":"mapping","key":"t_address","label":"mapping(address => bool)","numberOfBytes":"32","value":"t_bool"},"t_mapping(t_address,t_uint256)":{"encoding":"mapping","key":"t_address","label":"mapping(address => uint256)","numberOfBytes":"32","value":"t_uint256"},"t_string_storage":{"encoding":"bytes","label":"string","numberOfBytes":"32"},"t_uint256":{"encoding":"inplace","label":"uint256","numberOfBytes":"32"}}},"userdoc":{"kind":"user","methods":{},"version":1}}