{"abi":[{"inputs":[{"internalType":"uint256","name":"","type":"uint256"}],"name":"allAuctions","outputs":[{"internalType":"address","name":"","type":"address"}],"stateMutability":"view","type":"function"},{"inputs":[{"internalType":"address","name":"owner","type":"address"},{"internalType":"address","name":"auction","type":"address"}],"name":"canRate","outputs":[{"internalType":"bool","name":"","type":"bool"}],"stateMutability":"view","type":"function"},{"inputs":[{"internalType":"uint256","name":"_biddingTime","type":"uint256"},{"internalType":"string","name":"_name","type":"string"}],"name":"createAuction","outputs":[{"internalType":"address","name":"createdAuction","type":"address"}],"stateMutability":"nonpayable","type":"function"},{"inputs":[],"name":"getAllAuctions","outputs":[{"internalType":"address[]","name":"","type":"address[]"}],"stateMutability":"view","type":"function"},{"inputs":[{"internalType":"address","name":"auctionAddress","type":"address"}],"name":"getAuctionDetails","outputs":[{"internalType":"address payable","name":"seller","type":"address"},{"internalType":"uint256","name":"auctionEndTime","type":"uint256"},{"internalType":"address","name":"highestBidder","type":"address"},{"internalType":"uint256","name":"highestBid","type":"uint256"},{"internalType":"string","name":"auctionName","type":"string"},{"internalType":"bool","name":"ended","type":"bool"}],"stateMutability":"view","type":"function"},{"inputs":[],"name":"getOwners","outputs":[{"internalType":"address[]","name":"","type":"address[]"}],"stateMutability":"view","type":"function"},{"inputs":[{"internalType":"address","name":"","type":"address"},{"internalType":"address","name":"","type":"address"},{"internalType":"address","name":"","type":"address"}],"name":"hasVoted","outputs":[{"internalType":"bool","name":"","type":"bool"}],"stateMutability":"view","type":"function"},{"inputs":[{"internalType":"uint256","name":"","type":"uint256"}],"name":"owners","outputs":[{"internalType":"address","name":"","type":"address"}],"stateMutability":"view","type":"function"},{"inputs":[{"internalType":"address","name":"owner","type":"address"},{"internalType":"address","name":"auction","type":"address"},{"internalType":"uint8","name":"rate","type":"uint8"}],"name":"rate","outputs":[],"stateMutability":"nonpayable","type":"function"},{"inputs":[{"internalType":"address","name":"","type":"address"}],"name":"ratings","outputs":[{"internalType":"bool","name":"active","type":"bool"},{"internalType":"uint256","name":"ratingSum","type":"uint256"},{"internalType":"uint256","name":"numberOfRates","type":"uint256"}],"stateMutability":"view","type":"function"}],"devdoc":{"kind":"dev","methods":{},"version":1},"evm":{"assembly":"    /* \"AuctionFactory.sol\":50:2527  contract AuctionFactory {... */\n  mstore(0x40, 0x80)\n  callvalue\n  dup1\n  iszero\n  tag_1\n  jumpi\n  0x00\n  dup1\n  revert\ntag_1:\n  pop\n  dataSize(sub_0)\n  dup1\n  dataOffset(sub_0)\n  0x00\n  codecopy\n  0x00\n  return\nstop\n\nsub_0: assembly {\n        /* \"AuctionFactory.sol\":50:2527  contract AuctionFactory {... */\n      mstore(0x40, 0x80)\n      callvalue\n      dup1\n      iszero\n      tag_1\n      jumpi\n      0x00\n      dup1\n      revert\n    tag_1:\n      pop\n      jumpi(tag_2, lt(calldatasize, 0x04))\n      shr(0xe0, calldataload(0x00))\n      dup1\n      0xa0e67e2b\n      gt\n      tag_13\n      jumpi\n      dup1\n      0xa0e67e2b\n      eq\n      tag_8\n      jumpi\n      dup1\n      0xa44f83e5\n      eq\n      tag_9\n      jumpi\n      dup1\n      0xadaa1992\n      eq\n      tag_10\n      jumpi\n      dup1\n      0xcbd2bdfd\n      eq\n      tag_11\n      jumpi\n      dup1\n      0xcca56666\n      eq\n      tag_12\n      jumpi\n      jump(tag_2)\n    tag_13:\n      dup1\n      0x025e7c27\n      eq\n      tag_3\n      jumpi\n      dup1\n      0x165c5881\n      eq\n      tag_4\n      jumpi\n      dup1\n      0x7f593d9e\n      eq\n      tag_5\n      jumpi\n      dup1\n      0x977bd705\n      eq\n      tag_6\n      jumpi\n      dup1\n      0x9e01dfbb\n      eq\n      tag_7\n      jumpi\n    tag_2:\n      0x00\n      dup1\n      revert\n        /* \"AuctionFactory.sol\":184:207  address[] public owners */\n    tag_3:\n      tag_14\n      0x04\n      dup1\n      calldatasize\n      sub\n      dup2\n      add\n      swap1\n      tag_15\n      swap2\n      swap1\n      tag_16\n      jump\t// in\n    tag_15:\n      tag_17\n      jump\t// in\n    tag_14:\n      mload(0x40)\n      tag_18\n      swap2\n      swap1\n      tag_19\n      jump\t// in\n    tag_18:\n      mload(0x40)\n      dup1\n      swap2\n      sub\n      swap1\n      return\n        /* \"AuctionFactory.sol\":350:378  address[] public allAuctions */\n    tag_4:\n      tag_20\n      0x04\n      dup1\n      calldatasize\n      sub\n      dup2\n      add\n      swap1\n      tag_21\n      swap2\n      swap1\n      tag_16\n      jump\t// in\n    tag_21:\n      tag_22\n      jump\t// in\n    tag_20:\n      mload(0x40)\n      tag_23\n      swap2\n      swap1\n      tag_19\n      jump\t// in\n    tag_23:\n      mload(0x40)\n      dup1\n      swap2\n      sub\n      swap1\n      return\n        /* \"AuctionFactory.sol\":823:1382  function getAuctionDetails(address auctionAddress) public view returns (... */\n    tag_5:\n      tag_24\n      0x04\n      dup1\n      calldatasize\n      sub\n      dup2\n      add\n      swap1\n      tag_25\n      swap2\n      swap1\n      tag_26\n      jump\t// in\n    tag_25:\n      tag_27\n      jump\t// in\n    tag_24:\n      mload(0x40)\n      tag_28\n      swap7\n      swap6\n      swap5\n      swap4\n      swap3\n      swap2\n      swap1\n      tag_29\n      jump\t// in\n    tag_28:\n      mload(0x40)\n      dup1\n      swap2\n      sub\n      swap1\n      return\n        /* \"AuctionFactory.sol\":2125:2524  function rate(address owner, address auction, uint8 rate) public {... */\n    tag_6:\n      tag_30\n      0x04\n      dup1\n      calldatasize\n      sub\n      dup2\n      add\n      swap1\n      tag_31\n      swap2\n      swap1\n      tag_32\n      jump\t// in\n    tag_31:\n      tag_33\n      jump\t// in\n    tag_30:\n      stop\n        /* \"AuctionFactory.sol\":213:257  mapping(address => Organiser) public ratings */\n    tag_7:\n      tag_34\n      0x04\n      dup1\n      calldatasize\n      sub\n      dup2\n      add\n      swap1\n      tag_35\n      swap2\n      swap1\n      tag_26\n      jump\t// in\n    tag_35:\n      tag_36\n      jump\t// in\n    tag_34:\n      mload(0x40)\n      tag_37\n      swap4\n      swap3\n      swap2\n      swap1\n      tag_38\n      jump\t// in\n    tag_37:\n      mload(0x40)\n      dup1\n      swap2\n      sub\n      swap1\n      return\n        /* \"AuctionFactory.sol\":1493:1582  function getOwners() public view returns(address[] memory) {... */\n    tag_8:\n      tag_39\n      tag_40\n      jump\t// in\n    tag_39:\n      mload(0x40)\n      tag_41\n      swap2\n      swap1\n      tag_42\n      jump\t// in\n    tag_41:\n      mload(0x40)\n      dup1\n      swap2\n      sub\n      swap1\n      return\n        /* \"AuctionFactory.sol\":263:343  mapping(address => mapping(address => mapping(address => bool))) public hasVoted */\n    tag_9:\n      tag_43\n      0x04\n      dup1\n      calldatasize\n      sub\n      dup2\n      add\n      swap1\n      tag_44\n      swap2\n      swap1\n      tag_45\n      jump\t// in\n    tag_44:\n      tag_46\n      jump\t// in\n    tag_43:\n      mload(0x40)\n      tag_47\n      swap2\n      swap1\n      tag_48\n      jump\t// in\n    tag_47:\n      mload(0x40)\n      dup1\n      swap2\n      sub\n      swap1\n      return\n        /* \"AuctionFactory.sol\":385:817  function createAuction(uint _biddingTime, string memory _name) public returns(address createdAuction) {... */\n    tag_10:\n      tag_49\n      0x04\n      dup1\n      calldatasize\n      sub\n      dup2\n      add\n      swap1\n      tag_50\n      swap2\n      swap1\n      tag_51\n      jump\t// in\n    tag_50:\n      tag_52\n      jump\t// in\n    tag_49:\n      mload(0x40)\n      tag_53\n      swap2\n      swap1\n      tag_19\n      jump\t// in\n    tag_53:\n      mload(0x40)\n      dup1\n      swap2\n      sub\n      swap1\n      return\n        /* \"AuctionFactory.sol\":1388:1487  function getAllAuctions() public view returns(address[] memory) {... */\n    tag_11:\n      tag_54\n      tag_55\n      jump\t// in\n    tag_54:\n      mload(0x40)\n      tag_56\n      swap2\n      swap1\n      tag_42\n      jump\t// in\n    tag_56:\n      mload(0x40)\n      dup1\n      swap2\n      sub\n      swap1\n      return\n        /* \"AuctionFactory.sol\":1588:2119  function canRate(address owner, address auction) public view returns(bool) {... */\n    tag_12:\n      tag_57\n      0x04\n      dup1\n      calldatasize\n      sub\n      dup2\n      add\n      swap1\n      tag_58\n      swap2\n      swap1\n      tag_59\n      jump\t// in\n    tag_58:\n      tag_60\n      jump\t// in\n    tag_57:\n      mload(0x40)\n      tag_61\n      swap2\n      swap1\n      tag_48\n      jump\t// in\n    tag_61:\n      mload(0x40)\n      dup1\n      swap2\n      sub\n      swap1\n      return\n        /* \"AuctionFactory.sol\":184:207  address[] public owners */\n    tag_17:\n      0x00\n      dup2\n      dup2\n      sload\n      dup2\n      lt\n      tag_62\n      jumpi\n      0x00\n      dup1\n      revert\n    tag_62:\n      swap1\n      0x00\n      mstore\n      keccak256(0x00, 0x20)\n      add\n      0x00\n      swap2\n      pop\n      sload\n      swap1\n      0x0100\n      exp\n      swap1\n      div\n      0xffffffffffffffffffffffffffffffffffffffff\n      and\n      dup2\n      jump\t// out\n        /* \"AuctionFactory.sol\":350:378  address[] public allAuctions */\n    tag_22:\n      0x03\n      dup2\n      dup2\n      sload\n      dup2\n      lt\n      tag_64\n      jumpi\n      0x00\n      dup1\n      revert\n    tag_64:\n      swap1\n      0x00\n      mstore\n      keccak256(0x00, 0x20)\n      add\n      0x00\n      swap2\n      pop\n      sload\n      swap1\n      0x0100\n      exp\n      swap1\n      div\n      0xffffffffffffffffffffffffffffffffffffffff\n      and\n      dup2\n      jump\t// out\n        /* \"AuctionFactory.sol\":823:1382  function getAuctionDetails(address auctionAddress) public view returns (... */\n    tag_27:\n        /* \"AuctionFactory.sol\":904:926  address payable seller */\n      0x00\n        /* \"AuctionFactory.sol\":936:958  uint256 auctionEndTime */\n      dup1\n        /* \"AuctionFactory.sol\":968:989  address highestBidder */\n      0x00\n        /* \"AuctionFactory.sol\":999:1017  uint256 highestBid */\n      dup1\n        /* \"AuctionFactory.sol\":1027:1052  string memory auctionName */\n      0x60\n        /* \"AuctionFactory.sol\":1062:1072  bool ended */\n      0x00\n        /* \"AuctionFactory.sol\":1089:1104  Auction auction */\n      dup1\n        /* \"AuctionFactory.sol\":1115:1129  auctionAddress */\n      dup8\n        /* \"AuctionFactory.sol\":1089:1130  Auction auction = Auction(auctionAddress) */\n      swap1\n      pop\n        /* \"AuctionFactory.sol\":1161:1168  auction */\n      dup1\n        /* \"AuctionFactory.sol\":1161:1180  auction.beneficiary */\n      0xffffffffffffffffffffffffffffffffffffffff\n      and\n      0x38af3eed\n        /* \"AuctionFactory.sol\":1161:1182  auction.beneficiary() */\n      mload(0x40)\n      dup2\n      0xffffffff\n      and\n      0xe0\n      shl\n      dup2\n      mstore\n      0x04\n      add\n      0x20\n      mload(0x40)\n      dup1\n      dup4\n      sub\n      dup2\n      dup7\n      gas\n      staticcall\n      iszero\n      dup1\n      iszero\n      tag_68\n      jumpi\n      returndatasize\n      0x00\n      dup1\n      returndatacopy\n      revert(0x00, returndatasize)\n    tag_68:\n      pop\n      pop\n      pop\n      pop\n      mload(0x40)\n      returndatasize\n      not(0x1f)\n      0x1f\n      dup3\n      add\n      and\n      dup3\n      add\n      dup1\n      0x40\n      mstore\n      pop\n      dup2\n      add\n      swap1\n      tag_69\n      swap2\n      swap1\n      tag_70\n      jump\t// in\n    tag_69:\n        /* \"AuctionFactory.sol\":1196:1203  auction */\n      dup2\n        /* \"AuctionFactory.sol\":1196:1218  auction.auctionEndTime */\n      0xffffffffffffffffffffffffffffffffffffffff\n      and\n      0x4b449cba\n        /* \"AuctionFactory.sol\":1196:1220  auction.auctionEndTime() */\n      mload(0x40)\n      dup2\n      0xffffffff\n      and\n      0xe0\n      shl\n      dup2\n      mstore\n      0x04\n      add\n      0x20\n      mload(0x40)\n      dup1\n      dup4\n      sub\n      dup2\n      dup7\n      gas\n      staticcall\n      iszero\n      dup1\n      iszero\n      tag_72\n      jumpi\n      returndatasize\n      0x00\n      dup1\n      returndatacopy\n      revert(0x00, returndatasize)\n    tag_72:\n      pop\n      pop\n      pop\n      pop\n      mload(0x40)\n      returndatasize\n      not(0x1f)\n      0x1f\n      dup3\n      add\n      and\n      dup3\n      add\n      dup1\n      0x40\n      mstore\n      pop\n      dup2\n      add\n      swap1\n      tag_73\n      swap2\n      swap1\n      tag_74\n      jump\t// in\n    tag_73:\n        /* \"AuctionFactory.sol\":1234:1241  auction */\n      dup3\n        /* \"AuctionFactory.sol\":1234:1255  auction.highestBidder */\n      0xffffffffffffffffffffffffffffffffffffffff\n      and\n      0x91f90157\n        /* \"AuctionFactory.sol\":1234:1257  auction.highestBidder() */\n      mload(0x40)\n      dup2\n      0xffffffff\n      and\n      0xe0\n      shl\n      dup2\n      mstore\n      0x04\n      add\n      0x20\n      mload(0x40)\n      dup1\n      dup4\n      sub\n      dup2\n      dup7\n      gas\n      staticcall\n      iszero\n      dup1\n      iszero\n      tag_76\n      jumpi\n      returndatasize\n      0x00\n      dup1\n      returndatacopy\n      revert(0x00, returndatasize)\n    tag_76:\n      pop\n      pop\n      pop\n      pop\n      mload(0x40)\n      returndatasize\n      not(0x1f)\n      0x1f\n      dup3\n      add\n      and\n      dup3\n      add\n      dup1\n      0x40\n      mstore\n      pop\n      dup2\n      add\n      swap1\n      tag_77\n      swap2\n      swap1\n      tag_78\n      jump\t// in\n    tag_77:\n        /* \"AuctionFactory.sol\":1271:1278  auction */\n      dup4\n        /* \"AuctionFactory.sol\":1271:1289  auction.highestBid */\n      0xffffffffffffffffffffffffffffffffffffffff\n      and\n      0xd57bde79\n        /* \"AuctionFactory.sol\":1271:1291  auction.highestBid() */\n      mload(0x40)\n      dup2\n      0xffffffff\n      and\n      0xe0\n      shl\n      dup2\n      mstore\n      0x04\n      add\n      0x20\n      mload(0x40)\n      dup1\n      dup4\n      sub\n      dup2\n      dup7\n      gas\n      staticcall\n      iszero\n      dup1\n      iszero\n      tag_80\n      jumpi\n      returndatasize\n      0x00\n      dup1\n      returndatacopy\n      revert(0x00, returndatasize)\n    tag_80:\n      pop\n      pop\n      pop\n      pop\n      mload(0x40)\n      returndatasize\n      not(0x1f)\n      0x1f\n      dup3\n      add\n      and\n      dup3\n      add\n      dup1\n      0x40\n      mstore\n      pop\n      dup2\n      add\n      swap1\n      tag_81\n      swap2\n      swap1\n      tag_74\n      jump\t// in\n    tag_81:\n        /* \"AuctionFactory.sol\":1305:1312  auction */\n      dup5\n        /* \"AuctionFactory.sol\":1305:1324  auction.auctionName */\n      0xffffffffffffffffffffffffffffffffffffffff\n      and\n      0xc63d99db\n        /* \"AuctionFactory.sol\":1305:1326  auction.auctionName() */\n      mload(0x40)\n      dup2\n      0xffffffff\n      and\n      0xe0\n      shl\n      dup2\n      mstore\n      0x04\n      add\n      0x00\n      mload(0x40)\n      dup1\n      dup4\n      sub\n      dup2\n      dup7\n      gas\n      staticcall\n      iszero\n      dup1\n      iszero\n      tag_83\n      jumpi\n      returndatasize\n      0x00\n      dup1\n      returndatacopy\n      revert(0x00, returndatasize)\n    tag_83:\n      pop\n      pop\n      pop\n      pop\n      mload(0x40)\n      returndatasize\n      0x00\n      dup3\n      returndatacopy\n      returndatasize\n      not(0x1f)\n      0x1f\n      dup3\n      add\n      and\n      dup3\n      add\n      dup1\n      0x40\n      mstore\n      pop\n      dup2\n      add\n      swap1\n      tag_84\n      swap2\n      swap1\n      tag_85\n      jump\t// in\n    tag_84:\n        /* \"AuctionFactory.sol\":1340:1347  auction */\n      dup6\n        /* \"AuctionFactory.sol\":1340:1363  auction.hasAuctionEnded */\n      0xffffffffffffffffffffffffffffffffffffffff\n      and\n      0xa0484dda\n        /* \"AuctionFactory.sol\":1340:1365  auction.hasAuctionEnded() */\n      mload(0x40)\n      dup2\n      0xffffffff\n      and\n      0xe0\n      shl\n      dup2\n      mstore\n      0x04\n      add\n      0x20\n      mload(0x40)\n      dup1\n      dup4\n      sub\n      dup2\n      dup7\n      gas\n      staticcall\n      iszero\n      dup1\n      iszero\n      tag_87\n      jumpi\n      returndatasize\n      0x00\n      dup1\n      returndatacopy\n      revert(0x00, returndatasize)\n    tag_87:\n      pop\n      pop\n      pop\n      pop\n      mload(0x40)\n      returndatasize\n      not(0x1f)\n      0x1f\n      dup3\n      add\n      and\n      dup3\n      add\n      dup1\n      0x40\n      mstore\n      pop\n      dup2\n      add\n      swap1\n      tag_88\n      swap2\n      swap1\n      tag_89\n      jump\t// in\n    tag_88:\n        /* \"AuctionFactory.sol\":1140:1375  return (... */\n      swap7\n      pop\n      swap7\n      pop\n      swap7\n      pop\n      swap7\n      pop\n      swap7\n      pop\n      swap7\n      pop\n      pop\n        /* \"AuctionFactory.sol\":823:1382  function getAuctionDetails(address auctionAddress) public view returns (... */\n      swap2\n      swap4\n      swap6\n      pop\n      swap2\n      swap4\n      swap6\n      jump\t// out\n        /* \"AuctionFactory.sol\":2125:2524  function rate(address owner, address auction, uint8 rate) public {... */\n    tag_33:\n        /* \"AuctionFactory.sol\":2216:2217  5 */\n      0x05\n        /* \"AuctionFactory.sol\":2208:2212  rate */\n      dup2\n        /* \"AuctionFactory.sol\":2208:2217  rate <= 5 */\n      0xff\n      and\n      gt\n      iszero\n        /* \"AuctionFactory.sol\":2200:2250  require(rate <= 5, \"Maximum value for rate is 5.\") */\n      tag_91\n      jumpi\n      mload(0x40)\n      0x08c379a000000000000000000000000000000000000000000000000000000000\n      dup2\n      mstore\n      0x04\n      add\n      tag_92\n      swap1\n      tag_93\n      jump\t// in\n    tag_92:\n      mload(0x40)\n      dup1\n      swap2\n      sub\n      swap1\n      revert\n    tag_91:\n        /* \"AuctionFactory.sol\":2275:2276  0 */\n      0x00\n        /* \"AuctionFactory.sol\":2268:2272  rate */\n      dup2\n        /* \"AuctionFactory.sol\":2268:2276  rate > 0 */\n      0xff\n      and\n      gt\n        /* \"AuctionFactory.sol\":2260:2309  require(rate > 0, \"Minimum value for rate is 1.\") */\n      tag_94\n      jumpi\n      mload(0x40)\n      0x08c379a000000000000000000000000000000000000000000000000000000000\n      dup2\n      mstore\n      0x04\n      add\n      tag_95\n      swap1\n      tag_96\n      jump\t// in\n    tag_95:\n      mload(0x40)\n      dup1\n      swap2\n      sub\n      swap1\n      revert\n    tag_94:\n        /* \"AuctionFactory.sol\":2327:2350  canRate(owner, auction) */\n      tag_97\n        /* \"AuctionFactory.sol\":2335:2340  owner */\n      dup4\n        /* \"AuctionFactory.sol\":2342:2349  auction */\n      dup4\n        /* \"AuctionFactory.sol\":2327:2334  canRate */\n      tag_60\n        /* \"AuctionFactory.sol\":2327:2350  canRate(owner, auction) */\n      jump\t// in\n    tag_97:\n        /* \"AuctionFactory.sol\":2319:2382  require(canRate(owner, auction), \"You're not allowed to rate.\") */\n      tag_98\n      jumpi\n      mload(0x40)\n      0x08c379a000000000000000000000000000000000000000000000000000000000\n      dup2\n      mstore\n      0x04\n      add\n      tag_99\n      swap1\n      tag_100\n      jump\t// in\n    tag_99:\n      mload(0x40)\n      dup1\n      swap2\n      sub\n      swap1\n      revert\n    tag_98:\n        /* \"AuctionFactory.sol\":2431:2435  true */\n      0x01\n        /* \"AuctionFactory.sol\":2392:2400  hasVoted */\n      0x02\n        /* \"AuctionFactory.sol\":2392:2407  hasVoted[owner] */\n      0x00\n        /* \"AuctionFactory.sol\":2401:2406  owner */\n      dup6\n        /* \"AuctionFactory.sol\":2392:2407  hasVoted[owner] */\n      0xffffffffffffffffffffffffffffffffffffffff\n      and\n      0xffffffffffffffffffffffffffffffffffffffff\n      and\n      dup2\n      mstore\n      0x20\n      add\n      swap1\n      dup2\n      mstore\n      0x20\n      add\n      0x00\n      keccak256\n        /* \"AuctionFactory.sol\":2392:2416  hasVoted[owner][auction] */\n      0x00\n        /* \"AuctionFactory.sol\":2408:2415  auction */\n      dup5\n        /* \"AuctionFactory.sol\":2392:2416  hasVoted[owner][auction] */\n      0xffffffffffffffffffffffffffffffffffffffff\n      and\n      0xffffffffffffffffffffffffffffffffffffffff\n      and\n      dup2\n      mstore\n      0x20\n      add\n      swap1\n      dup2\n      mstore\n      0x20\n      add\n      0x00\n      keccak256\n        /* \"AuctionFactory.sol\":2392:2428  hasVoted[owner][auction][msg.sender] */\n      0x00\n        /* \"AuctionFactory.sol\":2417:2427  msg.sender */\n      caller\n        /* \"AuctionFactory.sol\":2392:2428  hasVoted[owner][auction][msg.sender] */\n      0xffffffffffffffffffffffffffffffffffffffff\n      and\n      0xffffffffffffffffffffffffffffffffffffffff\n      and\n      dup2\n      mstore\n      0x20\n      add\n      swap1\n      dup2\n      mstore\n      0x20\n      add\n      0x00\n      keccak256\n      0x00\n        /* \"AuctionFactory.sol\":2392:2435  hasVoted[owner][auction][msg.sender] = true */\n      0x0100\n      exp\n      dup2\n      sload\n      dup2\n      0xff\n      mul\n      not\n      and\n      swap1\n      dup4\n      iszero\n      iszero\n      mul\n      or\n      swap1\n      sstore\n      pop\n        /* \"AuctionFactory.sol\":2473:2477  rate */\n      dup1\n        /* \"AuctionFactory.sol\":2445:2477  ratings[owner].ratingSum += rate */\n      0xff\n      and\n        /* \"AuctionFactory.sol\":2445:2452  ratings */\n      0x01\n        /* \"AuctionFactory.sol\":2445:2459  ratings[owner] */\n      0x00\n        /* \"AuctionFactory.sol\":2453:2458  owner */\n      dup6\n        /* \"AuctionFactory.sol\":2445:2459  ratings[owner] */\n      0xffffffffffffffffffffffffffffffffffffffff\n      and\n      0xffffffffffffffffffffffffffffffffffffffff\n      and\n      dup2\n      mstore\n      0x20\n      add\n      swap1\n      dup2\n      mstore\n      0x20\n      add\n      0x00\n      keccak256\n        /* \"AuctionFactory.sol\":2445:2469  ratings[owner].ratingSum */\n      0x01\n      add\n      0x00\n        /* \"AuctionFactory.sol\":2445:2477  ratings[owner].ratingSum += rate */\n      dup3\n      dup3\n      sload\n      tag_101\n      swap2\n      swap1\n      tag_102\n      jump\t// in\n    tag_101:\n      swap3\n      pop\n      pop\n      dup2\n      swap1\n      sstore\n      pop\n        /* \"AuctionFactory.sol\":2487:2494  ratings */\n      0x01\n        /* \"AuctionFactory.sol\":2487:2501  ratings[owner] */\n      0x00\n        /* \"AuctionFactory.sol\":2495:2500  owner */\n      dup5\n        /* \"AuctionFactory.sol\":2487:2501  ratings[owner] */\n      0xffffffffffffffffffffffffffffffffffffffff\n      and\n      0xffffffffffffffffffffffffffffffffffffffff\n      and\n      dup2\n      mstore\n      0x20\n      add\n      swap1\n      dup2\n      mstore\n      0x20\n      add\n      0x00\n      keccak256\n        /* \"AuctionFactory.sol\":2487:2515  ratings[owner].numberOfRates */\n      0x02\n      add\n      0x00\n        /* \"AuctionFactory.sol\":2487:2517  ratings[owner].numberOfRates++ */\n      dup2\n      sload\n      dup1\n      swap3\n      swap2\n      swap1\n      tag_103\n      swap1\n      tag_104\n      jump\t// in\n    tag_103:\n      swap2\n      swap1\n      pop\n      sstore\n      pop\n        /* \"AuctionFactory.sol\":2125:2524  function rate(address owner, address auction, uint8 rate) public {... */\n      pop\n      pop\n      pop\n      jump\t// out\n        /* \"AuctionFactory.sol\":213:257  mapping(address => Organiser) public ratings */\n    tag_36:\n      mstore(0x20, 0x01)\n      dup1\n      0x00\n      mstore\n      keccak256(0x00, 0x40)\n      0x00\n      swap2\n      pop\n      swap1\n      pop\n      dup1\n      0x00\n      add\n      0x00\n      swap1\n      sload\n      swap1\n      0x0100\n      exp\n      swap1\n      div\n      0xff\n      and\n      swap1\n      dup1\n      0x01\n      add\n      sload\n      swap1\n      dup1\n      0x02\n      add\n      sload\n      swap1\n      pop\n      dup4\n      jump\t// out\n        /* \"AuctionFactory.sol\":1493:1582  function getOwners() public view returns(address[] memory) {... */\n    tag_40:\n        /* \"AuctionFactory.sol\":1534:1550  address[] memory */\n      0x60\n        /* \"AuctionFactory.sol\":1569:1575  owners */\n      0x00\n        /* \"AuctionFactory.sol\":1562:1575  return owners */\n      dup1\n      sload\n      dup1\n      0x20\n      mul\n      0x20\n      add\n      mload(0x40)\n      swap1\n      dup2\n      add\n      0x40\n      mstore\n      dup1\n      swap3\n      swap2\n      swap1\n      dup2\n      dup2\n      mstore\n      0x20\n      add\n      dup3\n      dup1\n      sload\n      dup1\n      iszero\n      tag_106\n      jumpi\n      0x20\n      mul\n      dup3\n      add\n      swap2\n      swap1\n      0x00\n      mstore\n      keccak256(0x00, 0x20)\n      swap1\n    tag_107:\n      dup2\n      0x00\n      swap1\n      sload\n      swap1\n      0x0100\n      exp\n      swap1\n      div\n      0xffffffffffffffffffffffffffffffffffffffff\n      and\n      0xffffffffffffffffffffffffffffffffffffffff\n      and\n      dup2\n      mstore\n      0x20\n      add\n      swap1\n      0x01\n      add\n      swap1\n      dup1\n      dup4\n      gt\n      tag_107\n      jumpi\n    tag_106:\n      pop\n      pop\n      pop\n      pop\n      pop\n      swap1\n      pop\n        /* \"AuctionFactory.sol\":1493:1582  function getOwners() public view returns(address[] memory) {... */\n      swap1\n      jump\t// out\n        /* \"AuctionFactory.sol\":263:343  mapping(address => mapping(address => mapping(address => bool))) public hasVoted */\n    tag_46:\n      mstore(0x20, 0x02)\n      dup3\n      0x00\n      mstore\n      mstore(0x20, keccak256(0x00, 0x40))\n      dup2\n      0x00\n      mstore\n      mstore(0x20, keccak256(0x00, 0x40))\n      dup1\n      0x00\n      mstore\n      keccak256(0x00, 0x40)\n      0x00\n      swap3\n      pop\n      swap3\n      pop\n      pop\n      swap1\n      sload\n      swap1\n      0x0100\n      exp\n      swap1\n      div\n      0xff\n      and\n      dup2\n      jump\t// out\n        /* \"AuctionFactory.sol\":385:817  function createAuction(uint _biddingTime, string memory _name) public returns(address createdAuction) {... */\n    tag_52:\n        /* \"AuctionFactory.sol\":463:485  address createdAuction */\n      0x00\n        /* \"AuctionFactory.sol\":497:521  Auction newSimpleAuction */\n      dup1\n        /* \"AuctionFactory.sol\":536:548  _biddingTime */\n      dup4\n        /* \"AuctionFactory.sol\":550:555  _name */\n      dup4\n        /* \"AuctionFactory.sol\":565:575  msg.sender */\n      caller\n        /* \"AuctionFactory.sol\":524:577  new Auction(_biddingTime, _name, payable(msg.sender)) */\n      mload(0x40)\n      tag_109\n      swap1\n      tag_110\n      jump\t// in\n    tag_109:\n      tag_111\n      swap4\n      swap3\n      swap2\n      swap1\n      tag_112\n      jump\t// in\n    tag_111:\n      mload(0x40)\n      dup1\n      swap2\n      sub\n      swap1\n      0x00\n      create\n      dup1\n      iszero\n      dup1\n      iszero\n      tag_113\n      jumpi\n      returndatasize\n      0x00\n      dup1\n      returndatacopy\n      revert(0x00, returndatasize)\n    tag_113:\n      pop\n        /* \"AuctionFactory.sol\":497:577  Auction newSimpleAuction = new Auction(_biddingTime, _name, payable(msg.sender)) */\n      swap1\n      pop\n        /* \"AuctionFactory.sol\":587:598  allAuctions */\n      0x03\n        /* \"AuctionFactory.sol\":612:628  newSimpleAuction */\n      dup2\n        /* \"AuctionFactory.sol\":587:630  allAuctions.push(address(newSimpleAuction)) */\n      swap1\n      dup1\n      0x01\n      dup2\n      sload\n      add\n      dup1\n      dup3\n      sstore\n      dup1\n      swap2\n      pop\n      pop\n      0x01\n      swap1\n      sub\n      swap1\n      0x00\n      mstore\n      keccak256(0x00, 0x20)\n      add\n      0x00\n      swap1\n      swap2\n      swap1\n      swap2\n      swap1\n      swap2\n      0x0100\n      exp\n      dup2\n      sload\n      dup2\n      0xffffffffffffffffffffffffffffffffffffffff\n      mul\n      not\n      and\n      swap1\n      dup4\n      0xffffffffffffffffffffffffffffffffffffffff\n      and\n      mul\n      or\n      swap1\n      sstore\n      pop\n        /* \"AuctionFactory.sol\":645:652  ratings */\n      0x01\n        /* \"AuctionFactory.sol\":645:664  ratings[msg.sender] */\n      0x00\n        /* \"AuctionFactory.sol\":653:663  msg.sender */\n      caller\n        /* \"AuctionFactory.sol\":645:664  ratings[msg.sender] */\n      0xffffffffffffffffffffffffffffffffffffffff\n      and\n      0xffffffffffffffffffffffffffffffffffffffff\n      and\n      dup2\n      mstore\n      0x20\n      add\n      swap1\n      dup2\n      mstore\n      0x20\n      add\n      0x00\n      keccak256\n        /* \"AuctionFactory.sol\":645:671  ratings[msg.sender].active */\n      0x00\n      add\n      0x00\n      swap1\n      sload\n      swap1\n      0x0100\n      exp\n      swap1\n      div\n      0xff\n      and\n        /* \"AuctionFactory.sol\":641:768  if(!ratings[msg.sender].active) {... */\n      tag_115\n      jumpi\n        /* \"AuctionFactory.sol\":716:720  true */\n      0x01\n        /* \"AuctionFactory.sol\":687:694  ratings */\n      dup1\n        /* \"AuctionFactory.sol\":687:706  ratings[msg.sender] */\n      0x00\n        /* \"AuctionFactory.sol\":695:705  msg.sender */\n      caller\n        /* \"AuctionFactory.sol\":687:706  ratings[msg.sender] */\n      0xffffffffffffffffffffffffffffffffffffffff\n      and\n      0xffffffffffffffffffffffffffffffffffffffff\n      and\n      dup2\n      mstore\n      0x20\n      add\n      swap1\n      dup2\n      mstore\n      0x20\n      add\n      0x00\n      keccak256\n        /* \"AuctionFactory.sol\":687:713  ratings[msg.sender].active */\n      0x00\n      add\n      0x00\n        /* \"AuctionFactory.sol\":687:720  ratings[msg.sender].active = true */\n      0x0100\n      exp\n      dup2\n      sload\n      dup2\n      0xff\n      mul\n      not\n      and\n      swap1\n      dup4\n      iszero\n      iszero\n      mul\n      or\n      swap1\n      sstore\n      pop\n        /* \"AuctionFactory.sol\":734:740  owners */\n      0x00\n        /* \"AuctionFactory.sol\":746:756  msg.sender */\n      caller\n        /* \"AuctionFactory.sol\":734:757  owners.push(msg.sender) */\n      swap1\n      dup1\n      0x01\n      dup2\n      sload\n      add\n      dup1\n      dup3\n      sstore\n      dup1\n      swap2\n      pop\n      pop\n      0x01\n      swap1\n      sub\n      swap1\n      0x00\n      mstore\n      keccak256(0x00, 0x20)\n      add\n      0x00\n      swap1\n      swap2\n      swap1\n      swap2\n      swap1\n      swap2\n      0x0100\n      exp\n      dup2\n      sload\n      dup2\n      0xffffffffffffffffffffffffffffffffffffffff\n      mul\n      not\n      and\n      swap1\n      dup4\n      0xffffffffffffffffffffffffffffffffffffffff\n      and\n      mul\n      or\n      swap1\n      sstore\n      pop\n        /* \"AuctionFactory.sol\":641:768  if(!ratings[msg.sender].active) {... */\n    tag_115:\n        /* \"AuctionFactory.sol\":793:809  newSimpleAuction */\n      dup1\n        /* \"AuctionFactory.sol\":778:810  return address(newSimpleAuction) */\n      swap2\n      pop\n      pop\n        /* \"AuctionFactory.sol\":385:817  function createAuction(uint _biddingTime, string memory _name) public returns(address createdAuction) {... */\n      swap3\n      swap2\n      pop\n      pop\n      jump\t// out\n        /* \"AuctionFactory.sol\":1388:1487  function getAllAuctions() public view returns(address[] memory) {... */\n    tag_55:\n        /* \"AuctionFactory.sol\":1434:1450  address[] memory */\n      0x60\n        /* \"AuctionFactory.sol\":1469:1480  allAuctions */\n      0x03\n        /* \"AuctionFactory.sol\":1462:1480  return allAuctions */\n      dup1\n      sload\n      dup1\n      0x20\n      mul\n      0x20\n      add\n      mload(0x40)\n      swap1\n      dup2\n      add\n      0x40\n      mstore\n      dup1\n      swap3\n      swap2\n      swap1\n      dup2\n      dup2\n      mstore\n      0x20\n      add\n      dup3\n      dup1\n      sload\n      dup1\n      iszero\n      tag_118\n      jumpi\n      0x20\n      mul\n      dup3\n      add\n      swap2\n      swap1\n      0x00\n      mstore\n      keccak256(0x00, 0x20)\n      swap1\n    tag_119:\n      dup2\n      0x00\n      swap1\n      sload\n      swap1\n      0x0100\n      exp\n      swap1\n      div\n      0xffffffffffffffffffffffffffffffffffffffff\n      and\n      0xffffffffffffffffffffffffffffffffffffffff\n      and\n      dup2\n      mstore\n      0x20\n      add\n      swap1\n      0x01\n      add\n      swap1\n      dup1\n      dup4\n      gt\n      tag_119\n      jumpi\n    tag_118:\n      pop\n      pop\n      pop\n      pop\n      pop\n      swap1\n      pop\n        /* \"AuctionFactory.sol\":1388:1487  function getAllAuctions() public view returns(address[] memory) {... */\n      swap1\n      jump\t// out\n        /* \"AuctionFactory.sol\":1588:2119  function canRate(address owner, address auction) public view returns(bool) {... */\n    tag_60:\n        /* \"AuctionFactory.sol\":1657:1661  bool */\n      0x00\n        /* \"AuctionFactory.sol\":1690:1695  owner */\n      dup3\n        /* \"AuctionFactory.sol\":1676:1695  msg.sender == owner */\n      0xffffffffffffffffffffffffffffffffffffffff\n      and\n        /* \"AuctionFactory.sol\":1676:1686  msg.sender */\n      caller\n        /* \"AuctionFactory.sol\":1676:1695  msg.sender == owner */\n      0xffffffffffffffffffffffffffffffffffffffff\n      and\n      eq\n        /* \"AuctionFactory.sol\":1676:1733  msg.sender == owner... */\n      dup1\n      tag_121\n      jumpi\n      pop\n        /* \"AuctionFactory.sol\":1712:1719  ratings */\n      0x01\n        /* \"AuctionFactory.sol\":1712:1726  ratings[owner] */\n      0x00\n        /* \"AuctionFactory.sol\":1720:1725  owner */\n      dup5\n        /* \"AuctionFactory.sol\":1712:1726  ratings[owner] */\n      0xffffffffffffffffffffffffffffffffffffffff\n      and\n      0xffffffffffffffffffffffffffffffffffffffff\n      and\n      dup2\n      mstore\n      0x20\n      add\n      swap1\n      dup2\n      mstore\n      0x20\n      add\n      0x00\n      keccak256\n        /* \"AuctionFactory.sol\":1712:1733  ratings[owner].active */\n      0x00\n      add\n      0x00\n      swap1\n      sload\n      swap1\n      0x0100\n      exp\n      swap1\n      div\n      0xff\n      and\n        /* \"AuctionFactory.sol\":1711:1733  !ratings[owner].active */\n      iszero\n        /* \"AuctionFactory.sol\":1676:1733  msg.sender == owner... */\n    tag_121:\n        /* \"AuctionFactory.sol\":1676:1784  msg.sender == owner... */\n      dup1\n      tag_122\n      jumpi\n      pop\n        /* \"AuctionFactory.sol\":1758:1765  auction */\n      dup2\n        /* \"AuctionFactory.sol\":1750:1782  Auction(auction).hasAuctionEnded */\n      0xffffffffffffffffffffffffffffffffffffffff\n      and\n      0xa0484dda\n        /* \"AuctionFactory.sol\":1750:1784  Auction(auction).hasAuctionEnded() */\n      mload(0x40)\n      dup2\n      0xffffffff\n      and\n      0xe0\n      shl\n      dup2\n      mstore\n      0x04\n      add\n      0x20\n      mload(0x40)\n      dup1\n      dup4\n      sub\n      dup2\n      dup7\n      gas\n      staticcall\n      iszero\n      dup1\n      iszero\n      tag_124\n      jumpi\n      returndatasize\n      0x00\n      dup1\n      returndatacopy\n      revert(0x00, returndatasize)\n    tag_124:\n      pop\n      pop\n      pop\n      pop\n      mload(0x40)\n      returndatasize\n      not(0x1f)\n      0x1f\n      dup3\n      add\n      and\n      dup3\n      add\n      dup1\n      0x40\n      mstore\n      pop\n      dup2\n      add\n      swap1\n      tag_125\n      swap2\n      swap1\n      tag_89\n      jump\t// in\n    tag_125:\n        /* \"AuctionFactory.sol\":1749:1784  !Auction(auction).hasAuctionEnded() */\n      iszero\n        /* \"AuctionFactory.sol\":1676:1784  msg.sender == owner... */\n    tag_122:\n        /* \"AuctionFactory.sol\":1676:1839  msg.sender == owner... */\n      dup1\n      tag_126\n      jumpi\n      pop\n        /* \"AuctionFactory.sol\":1817:1824  auction */\n      dup2\n        /* \"AuctionFactory.sol\":1809:1837  Auction(auction).beneficiary */\n      0xffffffffffffffffffffffffffffffffffffffff\n      and\n      0x38af3eed\n        /* \"AuctionFactory.sol\":1809:1839  Auction(auction).beneficiary() */\n      mload(0x40)\n      dup2\n      0xffffffff\n      and\n      0xe0\n      shl\n      dup2\n      mstore\n      0x04\n      add\n      0x20\n      mload(0x40)\n      dup1\n      dup4\n      sub\n      dup2\n      dup7\n      gas\n      staticcall\n      iszero\n      dup1\n      iszero\n      tag_128\n      jumpi\n      returndatasize\n      0x00\n      dup1\n      returndatacopy\n      revert(0x00, returndatasize)\n    tag_128:\n      pop\n      pop\n      pop\n      pop\n      mload(0x40)\n      returndatasize\n      not(0x1f)\n      0x1f\n      dup3\n      add\n      and\n      dup3\n      add\n      dup1\n      0x40\n      mstore\n      pop\n      dup2\n      add\n      swap1\n      tag_129\n      swap2\n      swap1\n      tag_70\n      jump\t// in\n    tag_129:\n        /* \"AuctionFactory.sol\":1800:1839  owner != Auction(auction).beneficiary() */\n      0xffffffffffffffffffffffffffffffffffffffff\n      and\n        /* \"AuctionFactory.sol\":1800:1805  owner */\n      dup4\n        /* \"AuctionFactory.sol\":1800:1839  owner != Auction(auction).beneficiary() */\n      0xffffffffffffffffffffffffffffffffffffffff\n      and\n      eq\n      iszero\n        /* \"AuctionFactory.sol\":1676:1839  msg.sender == owner... */\n    tag_126:\n        /* \"AuctionFactory.sol\":1676:1891  msg.sender == owner... */\n      dup1\n      tag_130\n      jumpi\n      pop\n        /* \"AuctionFactory.sol\":1855:1863  hasVoted */\n      0x02\n        /* \"AuctionFactory.sol\":1855:1870  hasVoted[owner] */\n      0x00\n        /* \"AuctionFactory.sol\":1864:1869  owner */\n      dup5\n        /* \"AuctionFactory.sol\":1855:1870  hasVoted[owner] */\n      0xffffffffffffffffffffffffffffffffffffffff\n      and\n      0xffffffffffffffffffffffffffffffffffffffff\n      and\n      dup2\n      mstore\n      0x20\n      add\n      swap1\n      dup2\n      mstore\n      0x20\n      add\n      0x00\n      keccak256\n        /* \"AuctionFactory.sol\":1855:1879  hasVoted[owner][auction] */\n      0x00\n        /* \"AuctionFactory.sol\":1871:1878  auction */\n      dup4\n        /* \"AuctionFactory.sol\":1855:1879  hasVoted[owner][auction] */\n      0xffffffffffffffffffffffffffffffffffffffff\n      and\n      0xffffffffffffffffffffffffffffffffffffffff\n      and\n      dup2\n      mstore\n      0x20\n      add\n      swap1\n      dup2\n      mstore\n      0x20\n      add\n      0x00\n      keccak256\n        /* \"AuctionFactory.sol\":1855:1891  hasVoted[owner][auction][msg.sender] */\n      0x00\n        /* \"AuctionFactory.sol\":1880:1890  msg.sender */\n      caller\n        /* \"AuctionFactory.sol\":1855:1891  hasVoted[owner][auction][msg.sender] */\n      0xffffffffffffffffffffffffffffffffffffffff\n      and\n      0xffffffffffffffffffffffffffffffffffffffff\n      and\n      dup2\n      mstore\n      0x20\n      add\n      swap1\n      dup2\n      mstore\n      0x20\n      add\n      0x00\n      keccak256\n      0x00\n      swap1\n      sload\n      swap1\n      0x0100\n      exp\n      swap1\n      div\n      0xff\n      and\n        /* \"AuctionFactory.sol\":1676:1891  msg.sender == owner... */\n    tag_130:\n        /* \"AuctionFactory.sol\":1673:1930  if(msg.sender == owner... */\n      iszero\n      tag_131\n      jumpi\n        /* \"AuctionFactory.sol\":1914:1919  false */\n      0x00\n        /* \"AuctionFactory.sol\":1907:1919  return false */\n      swap1\n      pop\n      jump(tag_120)\n        /* \"AuctionFactory.sol\":1673:1930  if(msg.sender == owner... */\n    tag_131:\n        /* \"AuctionFactory.sol\":1979:1989  msg.sender */\n      caller\n        /* \"AuctionFactory.sol\":1943:1989  Auction(auction).highestBidder() != msg.sender */\n      0xffffffffffffffffffffffffffffffffffffffff\n      and\n        /* \"AuctionFactory.sol\":1951:1958  auction */\n      dup3\n        /* \"AuctionFactory.sol\":1943:1973  Auction(auction).highestBidder */\n      0xffffffffffffffffffffffffffffffffffffffff\n      and\n      0x91f90157\n        /* \"AuctionFactory.sol\":1943:1975  Auction(auction).highestBidder() */\n      mload(0x40)\n      dup2\n      0xffffffff\n      and\n      0xe0\n      shl\n      dup2\n      mstore\n      0x04\n      add\n      0x20\n      mload(0x40)\n      dup1\n      dup4\n      sub\n      dup2\n      dup7\n      gas\n      staticcall\n      iszero\n      dup1\n      iszero\n      tag_133\n      jumpi\n      returndatasize\n      0x00\n      dup1\n      returndatacopy\n      revert(0x00, returndatasize)\n    tag_133:\n      pop\n      pop\n      pop\n      pop\n      mload(0x40)\n      returndatasize\n      not(0x1f)\n      0x1f\n      dup3\n      add\n      and\n      dup3\n      add\n      dup1\n      0x40\n      mstore\n      pop\n      dup2\n      add\n      swap1\n      tag_134\n      swap2\n      swap1\n      tag_78\n      jump\t// in\n    tag_134:\n        /* \"AuctionFactory.sol\":1943:1989  Auction(auction).highestBidder() != msg.sender */\n      0xffffffffffffffffffffffffffffffffffffffff\n      and\n      eq\n      iszero\n        /* \"AuctionFactory.sol\":1943:2053  Auction(auction).highestBidder() != msg.sender... */\n      dup1\n      iszero\n      tag_135\n      jumpi\n      pop\n        /* \"AuctionFactory.sol\":2052:2053  0 */\n      0x00\n        /* \"AuctionFactory.sol\":2013:2020  auction */\n      dup3\n        /* \"AuctionFactory.sol\":2005:2036  Auction(auction).pendingReturns */\n      0xffffffffffffffffffffffffffffffffffffffff\n      and\n      0x26b387bb\n        /* \"AuctionFactory.sol\":2037:2047  msg.sender */\n      caller\n        /* \"AuctionFactory.sol\":2005:2048  Auction(auction).pendingReturns(msg.sender) */\n      mload(0x40)\n      dup3\n      0xffffffff\n      and\n      0xe0\n      shl\n      dup2\n      mstore\n      0x04\n      add\n      tag_136\n      swap2\n      swap1\n      tag_19\n      jump\t// in\n    tag_136:\n      0x20\n      mload(0x40)\n      dup1\n      dup4\n      sub\n      dup2\n      dup7\n      gas\n      staticcall\n      iszero\n      dup1\n      iszero\n      tag_138\n      jumpi\n      returndatasize\n      0x00\n      dup1\n      returndatacopy\n      revert(0x00, returndatasize)\n    tag_138:\n      pop\n      pop\n      pop\n      pop\n      mload(0x40)\n      returndatasize\n      not(0x1f)\n      0x1f\n      dup3\n      add\n      and\n      dup3\n      add\n      dup1\n      0x40\n      mstore\n      pop\n      dup2\n      add\n      swap1\n      tag_139\n      swap2\n      swap1\n      tag_74\n      jump\t// in\n    tag_139:\n        /* \"AuctionFactory.sol\":2005:2053  Auction(auction).pendingReturns(msg.sender) == 0 */\n      eq\n        /* \"AuctionFactory.sol\":1943:2053  Auction(auction).highestBidder() != msg.sender... */\n    tag_135:\n        /* \"AuctionFactory.sol\":1939:2092  if (Auction(auction).highestBidder() != msg.sender... */\n      iszero\n      tag_140\n      jumpi\n        /* \"AuctionFactory.sol\":2076:2081  false */\n      0x00\n        /* \"AuctionFactory.sol\":2069:2081  return false */\n      swap1\n      pop\n      jump(tag_120)\n        /* \"AuctionFactory.sol\":1939:2092  if (Auction(auction).highestBidder() != msg.sender... */\n    tag_140:\n        /* \"AuctionFactory.sol\":2108:2112  true */\n      0x01\n        /* \"AuctionFactory.sol\":2101:2112  return true */\n      swap1\n      pop\n        /* \"AuctionFactory.sol\":1588:2119  function canRate(address owner, address auction) public view returns(bool) {... */\n    tag_120:\n      swap3\n      swap2\n      pop\n      pop\n      jump\t// out\n    tag_110:\n      dataSize(sub_0)\n      dup1\n      dataOffset(sub_0)\n      dup4\n      codecopy\n      add\n      swap1\n      jump\t// out\n        /* \"#utility.yul\":7:82   */\n    tag_141:\n        /* \"#utility.yul\":40:46   */\n      0x00\n        /* \"#utility.yul\":73:75   */\n      0x40\n        /* \"#utility.yul\":67:76   */\n      mload\n        /* \"#utility.yul\":57:76   */\n      swap1\n      pop\n        /* \"#utility.yul\":7:82   */\n      swap1\n      jump\t// out\n        /* \"#utility.yul\":88:205   */\n    tag_142:\n        /* \"#utility.yul\":197:198   */\n      0x00\n        /* \"#utility.yul\":194:195   */\n      dup1\n        /* \"#utility.yul\":187:199   */\n      revert\n        /* \"#utility.yul\":211:328   */\n    tag_143:\n        /* \"#utility.yul\":320:321   */\n      0x00\n        /* \"#utility.yul\":317:318   */\n      dup1\n        /* \"#utility.yul\":310:322   */\n      revert\n        /* \"#utility.yul\":334:411   */\n    tag_144:\n        /* \"#utility.yul\":371:378   */\n      0x00\n        /* \"#utility.yul\":400:405   */\n      dup2\n        /* \"#utility.yul\":389:405   */\n      swap1\n      pop\n        /* \"#utility.yul\":334:411   */\n      swap2\n      swap1\n      pop\n      jump\t// out\n        /* \"#utility.yul\":417:539   */\n    tag_145:\n        /* \"#utility.yul\":490:514   */\n      tag_202\n        /* \"#utility.yul\":508:513   */\n      dup2\n        /* \"#utility.yul\":490:514   */\n      tag_144\n      jump\t// in\n    tag_202:\n        /* \"#utility.yul\":483:488   */\n      dup2\n        /* \"#utility.yul\":480:515   */\n      eq\n        /* \"#utility.yul\":470:533   */\n      tag_203\n      jumpi\n        /* \"#utility.yul\":529:530   */\n      0x00\n        /* \"#utility.yul\":526:527   */\n      dup1\n        /* \"#utility.yul\":519:531   */\n      revert\n        /* \"#utility.yul\":470:533   */\n    tag_203:\n        /* \"#utility.yul\":417:539   */\n      pop\n      jump\t// out\n        /* \"#utility.yul\":545:684   */\n    tag_146:\n        /* \"#utility.yul\":591:596   */\n      0x00\n        /* \"#utility.yul\":629:635   */\n      dup2\n        /* \"#utility.yul\":616:636   */\n      calldataload\n        /* \"#utility.yul\":607:636   */\n      swap1\n      pop\n        /* \"#utility.yul\":645:678   */\n      tag_205\n        /* \"#utility.yul\":672:677   */\n      dup2\n        /* \"#utility.yul\":645:678   */\n      tag_145\n      jump\t// in\n    tag_205:\n        /* \"#utility.yul\":545:684   */\n      swap3\n      swap2\n      pop\n      pop\n      jump\t// out\n        /* \"#utility.yul\":690:1019   */\n    tag_16:\n        /* \"#utility.yul\":749:755   */\n      0x00\n        /* \"#utility.yul\":798:800   */\n      0x20\n        /* \"#utility.yul\":786:795   */\n      dup3\n        /* \"#utility.yul\":777:784   */\n      dup5\n        /* \"#utility.yul\":773:796   */\n      sub\n        /* \"#utility.yul\":769:801   */\n      slt\n        /* \"#utility.yul\":766:885   */\n      iszero\n      tag_207\n      jumpi\n        /* \"#utility.yul\":804:883   */\n      tag_208\n      tag_142\n      jump\t// in\n    tag_208:\n        /* \"#utility.yul\":766:885   */\n    tag_207:\n        /* \"#utility.yul\":924:925   */\n      0x00\n        /* \"#utility.yul\":949:1002   */\n      tag_209\n        /* \"#utility.yul\":994:1001   */\n      dup5\n        /* \"#utility.yul\":985:991   */\n      dup3\n        /* \"#utility.yul\":974:983   */\n      dup6\n        /* \"#utility.yul\":970:992   */\n      add\n        /* \"#utility.yul\":949:1002   */\n      tag_146\n      jump\t// in\n    tag_209:\n        /* \"#utility.yul\":939:1002   */\n      swap2\n      pop\n        /* \"#utility.yul\":895:1012   */\n      pop\n        /* \"#utility.yul\":690:1019   */\n      swap3\n      swap2\n      pop\n      pop\n      jump\t// out\n        /* \"#utility.yul\":1025:1151   */\n    tag_147:\n        /* \"#utility.yul\":1062:1069   */\n      0x00\n        /* \"#utility.yul\":1102:1144   */\n      0xffffffffffffffffffffffffffffffffffffffff\n        /* \"#utility.yul\":1095:1100   */\n      dup3\n        /* \"#utility.yul\":1091:1145   */\n      and\n        /* \"#utility.yul\":1080:1145   */\n      swap1\n      pop\n        /* \"#utility.yul\":1025:1151   */\n      swap2\n      swap1\n      pop\n      jump\t// out\n        /* \"#utility.yul\":1157:1253   */\n    tag_148:\n        /* \"#utility.yul\":1194:1201   */\n      0x00\n        /* \"#utility.yul\":1223:1247   */\n      tag_212\n        /* \"#utility.yul\":1241:1246   */\n      dup3\n        /* \"#utility.yul\":1223:1247   */\n      tag_147\n      jump\t// in\n    tag_212:\n        /* \"#utility.yul\":1212:1247   */\n      swap1\n      pop\n        /* \"#utility.yul\":1157:1253   */\n      swap2\n      swap1\n      pop\n      jump\t// out\n        /* \"#utility.yul\":1259:1377   */\n    tag_149:\n        /* \"#utility.yul\":1346:1370   */\n      tag_214\n        /* \"#utility.yul\":1364:1369   */\n      dup2\n        /* \"#utility.yul\":1346:1370   */\n      tag_148\n      jump\t// in\n    tag_214:\n        /* \"#utility.yul\":1341:1344   */\n      dup3\n        /* \"#utility.yul\":1334:1371   */\n      mstore\n        /* \"#utility.yul\":1259:1377   */\n      pop\n      pop\n      jump\t// out\n        /* \"#utility.yul\":1383:1605   */\n    tag_19:\n        /* \"#utility.yul\":1476:1480   */\n      0x00\n        /* \"#utility.yul\":1514:1516   */\n      0x20\n        /* \"#utility.yul\":1503:1512   */\n      dup3\n        /* \"#utility.yul\":1499:1517   */\n      add\n        /* \"#utility.yul\":1491:1517   */\n      swap1\n      pop\n        /* \"#utility.yul\":1527:1598   */\n      tag_216\n        /* \"#utility.yul\":1595:1596   */\n      0x00\n        /* \"#utility.yul\":1584:1593   */\n      dup4\n        /* \"#utility.yul\":1580:1597   */\n      add\n        /* \"#utility.yul\":1571:1577   */\n      dup5\n        /* \"#utility.yul\":1527:1598   */\n      tag_149\n      jump\t// in\n    tag_216:\n        /* \"#utility.yul\":1383:1605   */\n      swap3\n      swap2\n      pop\n      pop\n      jump\t// out\n        /* \"#utility.yul\":1611:1733   */\n    tag_150:\n        /* \"#utility.yul\":1684:1708   */\n      tag_218\n        /* \"#utility.yul\":1702:1707   */\n      dup2\n        /* \"#utility.yul\":1684:1708   */\n      tag_148\n      jump\t// in\n    tag_218:\n        /* \"#utility.yul\":1677:1682   */\n      dup2\n        /* \"#utility.yul\":1674:1709   */\n      eq\n        /* \"#utility.yul\":1664:1727   */\n      tag_219\n      jumpi\n        /* \"#utility.yul\":1723:1724   */\n      0x00\n        /* \"#utility.yul\":1720:1721   */\n      dup1\n        /* \"#utility.yul\":1713:1725   */\n      revert\n        /* \"#utility.yul\":1664:1727   */\n    tag_219:\n        /* \"#utility.yul\":1611:1733   */\n      pop\n      jump\t// out\n        /* \"#utility.yul\":1739:1878   */\n    tag_151:\n        /* \"#utility.yul\":1785:1790   */\n      0x00\n        /* \"#utility.yul\":1823:1829   */\n      dup2\n        /* \"#utility.yul\":1810:1830   */\n      calldataload\n        /* \"#utility.yul\":1801:1830   */\n      swap1\n      pop\n        /* \"#utility.yul\":1839:1872   */\n      tag_221\n        /* \"#utility.yul\":1866:1871   */\n      dup2\n        /* \"#utility.yul\":1839:1872   */\n      tag_150\n      jump\t// in\n    tag_221:\n        /* \"#utility.yul\":1739:1878   */\n      swap3\n      swap2\n      pop\n      pop\n      jump\t// out\n        /* \"#utility.yul\":1884:2213   */\n    tag_26:\n        /* \"#utility.yul\":1943:1949   */\n      0x00\n        /* \"#utility.yul\":1992:1994   */\n      0x20\n        /* \"#utility.yul\":1980:1989   */\n      dup3\n        /* \"#utility.yul\":1971:1978   */\n      dup5\n        /* \"#utility.yul\":1967:1990   */\n      sub\n        /* \"#utility.yul\":1963:1995   */\n      slt\n        /* \"#utility.yul\":1960:2079   */\n      iszero\n      tag_223\n      jumpi\n        /* \"#utility.yul\":1998:2077   */\n      tag_224\n      tag_142\n      jump\t// in\n    tag_224:\n        /* \"#utility.yul\":1960:2079   */\n    tag_223:\n        /* \"#utility.yul\":2118:2119   */\n      0x00\n        /* \"#utility.yul\":2143:2196   */\n      tag_225\n        /* \"#utility.yul\":2188:2195   */\n      dup5\n        /* \"#utility.yul\":2179:2185   */\n      dup3\n        /* \"#utility.yul\":2168:2177   */\n      dup6\n        /* \"#utility.yul\":2164:2186   */\n      add\n        /* \"#utility.yul\":2143:2196   */\n      tag_151\n      jump\t// in\n    tag_225:\n        /* \"#utility.yul\":2133:2196   */\n      swap2\n      pop\n        /* \"#utility.yul\":2089:2206   */\n      pop\n        /* \"#utility.yul\":1884:2213   */\n      swap3\n      swap2\n      pop\n      pop\n      jump\t// out\n        /* \"#utility.yul\":2219:2323   */\n    tag_152:\n        /* \"#utility.yul\":2264:2271   */\n      0x00\n        /* \"#utility.yul\":2293:2317   */\n      tag_227\n        /* \"#utility.yul\":2311:2316   */\n      dup3\n        /* \"#utility.yul\":2293:2317   */\n      tag_147\n      jump\t// in\n    tag_227:\n        /* \"#utility.yul\":2282:2317   */\n      swap1\n      pop\n        /* \"#utility.yul\":2219:2323   */\n      swap2\n      swap1\n      pop\n      jump\t// out\n        /* \"#utility.yul\":2329:2471   */\n    tag_153:\n        /* \"#utility.yul\":2432:2464   */\n      tag_229\n        /* \"#utility.yul\":2458:2463   */\n      dup2\n        /* \"#utility.yul\":2432:2464   */\n      tag_152\n      jump\t// in\n    tag_229:\n        /* \"#utility.yul\":2427:2430   */\n      dup3\n        /* \"#utility.yul\":2420:2465   */\n      mstore\n        /* \"#utility.yul\":2329:2471   */\n      pop\n      pop\n      jump\t// out\n        /* \"#utility.yul\":2477:2595   */\n    tag_154:\n        /* \"#utility.yul\":2564:2588   */\n      tag_231\n        /* \"#utility.yul\":2582:2587   */\n      dup2\n        /* \"#utility.yul\":2564:2588   */\n      tag_144\n      jump\t// in\n    tag_231:\n        /* \"#utility.yul\":2559:2562   */\n      dup3\n        /* \"#utility.yul\":2552:2589   */\n      mstore\n        /* \"#utility.yul\":2477:2595   */\n      pop\n      pop\n      jump\t// out\n        /* \"#utility.yul\":2601:2700   */\n    tag_155:\n        /* \"#utility.yul\":2653:2659   */\n      0x00\n        /* \"#utility.yul\":2687:2692   */\n      dup2\n        /* \"#utility.yul\":2681:2693   */\n      mload\n        /* \"#utility.yul\":2671:2693   */\n      swap1\n      pop\n        /* \"#utility.yul\":2601:2700   */\n      swap2\n      swap1\n      pop\n      jump\t// out\n        /* \"#utility.yul\":2706:2875   */\n    tag_156:\n        /* \"#utility.yul\":2790:2801   */\n      0x00\n        /* \"#utility.yul\":2824:2830   */\n      dup3\n        /* \"#utility.yul\":2819:2822   */\n      dup3\n        /* \"#utility.yul\":2812:2831   */\n      mstore\n        /* \"#utility.yul\":2864:2868   */\n      0x20\n        /* \"#utility.yul\":2859:2862   */\n      dup3\n        /* \"#utility.yul\":2855:2869   */\n      add\n        /* \"#utility.yul\":2840:2869   */\n      swap1\n      pop\n        /* \"#utility.yul\":2706:2875   */\n      swap3\n      swap2\n      pop\n      pop\n      jump\t// out\n        /* \"#utility.yul\":2881:3127   */\n    tag_157:\n        /* \"#utility.yul\":2962:2963   */\n      0x00\n        /* \"#utility.yul\":2972:3085   */\n    tag_235:\n        /* \"#utility.yul\":2986:2992   */\n      dup4\n        /* \"#utility.yul\":2983:2984   */\n      dup2\n        /* \"#utility.yul\":2980:2993   */\n      lt\n        /* \"#utility.yul\":2972:3085   */\n      iszero\n      tag_237\n      jumpi\n        /* \"#utility.yul\":3071:3072   */\n      dup1\n        /* \"#utility.yul\":3066:3069   */\n      dup3\n        /* \"#utility.yul\":3062:3073   */\n      add\n        /* \"#utility.yul\":3056:3074   */\n      mload\n        /* \"#utility.yul\":3052:3053   */\n      dup2\n        /* \"#utility.yul\":3047:3050   */\n      dup5\n        /* \"#utility.yul\":3043:3054   */\n      add\n        /* \"#utility.yul\":3036:3075   */\n      mstore\n        /* \"#utility.yul\":3008:3010   */\n      0x20\n        /* \"#utility.yul\":3005:3006   */\n      dup2\n        /* \"#utility.yul\":3001:3011   */\n      add\n        /* \"#utility.yul\":2996:3011   */\n      swap1\n      pop\n        /* \"#utility.yul\":2972:3085   */\n      jump(tag_235)\n    tag_237:\n        /* \"#utility.yul\":3119:3120   */\n      0x00\n        /* \"#utility.yul\":3110:3116   */\n      dup5\n        /* \"#utility.yul\":3105:3108   */\n      dup5\n        /* \"#utility.yul\":3101:3117   */\n      add\n        /* \"#utility.yul\":3094:3121   */\n      mstore\n        /* \"#utility.yul\":2943:3127   */\n      pop\n        /* \"#utility.yul\":2881:3127   */\n      pop\n      pop\n      pop\n      jump\t// out\n        /* \"#utility.yul\":3133:3235   */\n    tag_158:\n        /* \"#utility.yul\":3174:3180   */\n      0x00\n        /* \"#utility.yul\":3225:3227   */\n      0x1f\n        /* \"#utility.yul\":3221:3228   */\n      not\n        /* \"#utility.yul\":3216:3218   */\n      0x1f\n        /* \"#utility.yul\":3209:3214   */\n      dup4\n        /* \"#utility.yul\":3205:3219   */\n      add\n        /* \"#utility.yul\":3201:3229   */\n      and\n        /* \"#utility.yul\":3191:3229   */\n      swap1\n      pop\n        /* \"#utility.yul\":3133:3235   */\n      swap2\n      swap1\n      pop\n      jump\t// out\n        /* \"#utility.yul\":3241:3618   */\n    tag_159:\n        /* \"#utility.yul\":3329:3332   */\n      0x00\n        /* \"#utility.yul\":3357:3396   */\n      tag_240\n        /* \"#utility.yul\":3390:3395   */\n      dup3\n        /* \"#utility.yul\":3357:3396   */\n      tag_155\n      jump\t// in\n    tag_240:\n        /* \"#utility.yul\":3412:3483   */\n      tag_241\n        /* \"#utility.yul\":3476:3482   */\n      dup2\n        /* \"#utility.yul\":3471:3474   */\n      dup6\n        /* \"#utility.yul\":3412:3483   */\n      tag_156\n      jump\t// in\n    tag_241:\n        /* \"#utility.yul\":3405:3483   */\n      swap4\n      pop\n        /* \"#utility.yul\":3492:3557   */\n      tag_242\n        /* \"#utility.yul\":3550:3556   */\n      dup2\n        /* \"#utility.yul\":3545:3548   */\n      dup6\n        /* \"#utility.yul\":3538:3542   */\n      0x20\n        /* \"#utility.yul\":3531:3536   */\n      dup7\n        /* \"#utility.yul\":3527:3543   */\n      add\n        /* \"#utility.yul\":3492:3557   */\n      tag_157\n      jump\t// in\n    tag_242:\n        /* \"#utility.yul\":3582:3611   */\n      tag_243\n        /* \"#utility.yul\":3604:3610   */\n      dup2\n        /* \"#utility.yul\":3582:3611   */\n      tag_158\n      jump\t// in\n    tag_243:\n        /* \"#utility.yul\":3577:3580   */\n      dup5\n        /* \"#utility.yul\":3573:3612   */\n      add\n        /* \"#utility.yul\":3566:3612   */\n      swap2\n      pop\n        /* \"#utility.yul\":3333:3618   */\n      pop\n        /* \"#utility.yul\":3241:3618   */\n      swap3\n      swap2\n      pop\n      pop\n      jump\t// out\n        /* \"#utility.yul\":3624:3714   */\n    tag_160:\n        /* \"#utility.yul\":3658:3665   */\n      0x00\n        /* \"#utility.yul\":3701:3706   */\n      dup2\n        /* \"#utility.yul\":3694:3707   */\n      iszero\n        /* \"#utility.yul\":3687:3708   */\n      iszero\n        /* \"#utility.yul\":3676:3708   */\n      swap1\n      pop\n        /* \"#utility.yul\":3624:3714   */\n      swap2\n      swap1\n      pop\n      jump\t// out\n        /* \"#utility.yul\":3720:3829   */\n    tag_161:\n        /* \"#utility.yul\":3801:3822   */\n      tag_246\n        /* \"#utility.yul\":3816:3821   */\n      dup2\n        /* \"#utility.yul\":3801:3822   */\n      tag_160\n      jump\t// in\n    tag_246:\n        /* \"#utility.yul\":3796:3799   */\n      dup3\n        /* \"#utility.yul\":3789:3823   */\n      mstore\n        /* \"#utility.yul\":3720:3829   */\n      pop\n      pop\n      jump\t// out\n        /* \"#utility.yul\":3835:4721   */\n    tag_29:\n        /* \"#utility.yul\":4098:4102   */\n      0x00\n        /* \"#utility.yul\":4136:4139   */\n      0xc0\n        /* \"#utility.yul\":4125:4134   */\n      dup3\n        /* \"#utility.yul\":4121:4140   */\n      add\n        /* \"#utility.yul\":4113:4140   */\n      swap1\n      pop\n        /* \"#utility.yul\":4150:4237   */\n      tag_248\n        /* \"#utility.yul\":4234:4235   */\n      0x00\n        /* \"#utility.yul\":4223:4232   */\n      dup4\n        /* \"#utility.yul\":4219:4236   */\n      add\n        /* \"#utility.yul\":4210:4216   */\n      dup10\n        /* \"#utility.yul\":4150:4237   */\n      tag_153\n      jump\t// in\n    tag_248:\n        /* \"#utility.yul\":4247:4319   */\n      tag_249\n        /* \"#utility.yul\":4315:4317   */\n      0x20\n        /* \"#utility.yul\":4304:4313   */\n      dup4\n        /* \"#utility.yul\":4300:4318   */\n      add\n        /* \"#utility.yul\":4291:4297   */\n      dup9\n        /* \"#utility.yul\":4247:4319   */\n      tag_154\n      jump\t// in\n    tag_249:\n        /* \"#utility.yul\":4329:4401   */\n      tag_250\n        /* \"#utility.yul\":4397:4399   */\n      0x40\n        /* \"#utility.yul\":4386:4395   */\n      dup4\n        /* \"#utility.yul\":4382:4400   */\n      add\n        /* \"#utility.yul\":4373:4379   */\n      dup8\n        /* \"#utility.yul\":4329:4401   */\n      tag_149\n      jump\t// in\n    tag_250:\n        /* \"#utility.yul\":4411:4483   */\n      tag_251\n        /* \"#utility.yul\":4479:4481   */\n      0x60\n        /* \"#utility.yul\":4468:4477   */\n      dup4\n        /* \"#utility.yul\":4464:4482   */\n      add\n        /* \"#utility.yul\":4455:4461   */\n      dup7\n        /* \"#utility.yul\":4411:4483   */\n      tag_154\n      jump\t// in\n    tag_251:\n        /* \"#utility.yul\":4531:4540   */\n      dup2\n        /* \"#utility.yul\":4525:4529   */\n      dup2\n        /* \"#utility.yul\":4521:4541   */\n      sub\n        /* \"#utility.yul\":4515:4518   */\n      0x80\n        /* \"#utility.yul\":4504:4513   */\n      dup4\n        /* \"#utility.yul\":4500:4519   */\n      add\n        /* \"#utility.yul\":4493:4542   */\n      mstore\n        /* \"#utility.yul\":4559:4637   */\n      tag_252\n        /* \"#utility.yul\":4632:4636   */\n      dup2\n        /* \"#utility.yul\":4623:4629   */\n      dup6\n        /* \"#utility.yul\":4559:4637   */\n      tag_159\n      jump\t// in\n    tag_252:\n        /* \"#utility.yul\":4551:4637   */\n      swap1\n      pop\n        /* \"#utility.yul\":4647:4714   */\n      tag_253\n        /* \"#utility.yul\":4709:4712   */\n      0xa0\n        /* \"#utility.yul\":4698:4707   */\n      dup4\n        /* \"#utility.yul\":4694:4713   */\n      add\n        /* \"#utility.yul\":4685:4691   */\n      dup5\n        /* \"#utility.yul\":4647:4714   */\n      tag_161\n      jump\t// in\n    tag_253:\n        /* \"#utility.yul\":3835:4721   */\n      swap8\n      swap7\n      pop\n      pop\n      pop\n      pop\n      pop\n      pop\n      pop\n      jump\t// out\n        /* \"#utility.yul\":4727:4813   */\n    tag_162:\n        /* \"#utility.yul\":4762:4769   */\n      0x00\n        /* \"#utility.yul\":4802:4806   */\n      0xff\n        /* \"#utility.yul\":4795:4800   */\n      dup3\n        /* \"#utility.yul\":4791:4807   */\n      and\n        /* \"#utility.yul\":4780:4807   */\n      swap1\n      pop\n        /* \"#utility.yul\":4727:4813   */\n      swap2\n      swap1\n      pop\n      jump\t// out\n        /* \"#utility.yul\":4819:4937   */\n    tag_163:\n        /* \"#utility.yul\":4890:4912   */\n      tag_256\n        /* \"#utility.yul\":4906:4911   */\n      dup2\n        /* \"#utility.yul\":4890:4912   */\n      tag_162\n      jump\t// in\n    tag_256:\n        /* \"#utility.yul\":4883:4888   */\n      dup2\n        /* \"#utility.yul\":4880:4913   */\n      eq\n        /* \"#utility.yul\":4870:4931   */\n      tag_257\n      jumpi\n        /* \"#utility.yul\":4927:4928   */\n      0x00\n        /* \"#utility.yul\":4924:4925   */\n      dup1\n        /* \"#utility.yul\":4917:4929   */\n      revert\n        /* \"#utility.yul\":4870:4931   */\n    tag_257:\n        /* \"#utility.yul\":4819:4937   */\n      pop\n      jump\t// out\n        /* \"#utility.yul\":4943:5078   */\n    tag_164:\n        /* \"#utility.yul\":4987:4992   */\n      0x00\n        /* \"#utility.yul\":5025:5031   */\n      dup2\n        /* \"#utility.yul\":5012:5032   */\n      calldataload\n        /* \"#utility.yul\":5003:5032   */\n      swap1\n      pop\n        /* \"#utility.yul\":5041:5072   */\n      tag_259\n        /* \"#utility.yul\":5066:5071   */\n      dup2\n        /* \"#utility.yul\":5041:5072   */\n      tag_163\n      jump\t// in\n    tag_259:\n        /* \"#utility.yul\":4943:5078   */\n      swap3\n      swap2\n      pop\n      pop\n      jump\t// out\n        /* \"#utility.yul\":5084:5699   */\n    tag_32:\n        /* \"#utility.yul\":5159:5165   */\n      0x00\n        /* \"#utility.yul\":5167:5173   */\n      dup1\n        /* \"#utility.yul\":5175:5181   */\n      0x00\n        /* \"#utility.yul\":5224:5226   */\n      0x60\n        /* \"#utility.yul\":5212:5221   */\n      dup5\n        /* \"#utility.yul\":5203:5210   */\n      dup7\n        /* \"#utility.yul\":5199:5222   */\n      sub\n        /* \"#utility.yul\":5195:5227   */\n      slt\n        /* \"#utility.yul\":5192:5311   */\n      iszero\n      tag_261\n      jumpi\n        /* \"#utility.yul\":5230:5309   */\n      tag_262\n      tag_142\n      jump\t// in\n    tag_262:\n        /* \"#utility.yul\":5192:5311   */\n    tag_261:\n        /* \"#utility.yul\":5350:5351   */\n      0x00\n        /* \"#utility.yul\":5375:5428   */\n      tag_263\n        /* \"#utility.yul\":5420:5427   */\n      dup7\n        /* \"#utility.yul\":5411:5417   */\n      dup3\n        /* \"#utility.yul\":5400:5409   */\n      dup8\n        /* \"#utility.yul\":5396:5418   */\n      add\n        /* \"#utility.yul\":5375:5428   */\n      tag_151\n      jump\t// in\n    tag_263:\n        /* \"#utility.yul\":5365:5428   */\n      swap4\n      pop\n        /* \"#utility.yul\":5321:5438   */\n      pop\n        /* \"#utility.yul\":5477:5479   */\n      0x20\n        /* \"#utility.yul\":5503:5556   */\n      tag_264\n        /* \"#utility.yul\":5548:5555   */\n      dup7\n        /* \"#utility.yul\":5539:5545   */\n      dup3\n        /* \"#utility.yul\":5528:5537   */\n      dup8\n        /* \"#utility.yul\":5524:5546   */\n      add\n        /* \"#utility.yul\":5503:5556   */\n      tag_151\n      jump\t// in\n    tag_264:\n        /* \"#utility.yul\":5493:5556   */\n      swap3\n      pop\n        /* \"#utility.yul\":5448:5566   */\n      pop\n        /* \"#utility.yul\":5605:5607   */\n      0x40\n        /* \"#utility.yul\":5631:5682   */\n      tag_265\n        /* \"#utility.yul\":5674:5681   */\n      dup7\n        /* \"#utility.yul\":5665:5671   */\n      dup3\n        /* \"#utility.yul\":5654:5663   */\n      dup8\n        /* \"#utility.yul\":5650:5672   */\n      add\n        /* \"#utility.yul\":5631:5682   */\n      tag_164\n      jump\t// in\n    tag_265:\n        /* \"#utility.yul\":5621:5682   */\n      swap2\n      pop\n        /* \"#utility.yul\":5576:5692   */\n      pop\n        /* \"#utility.yul\":5084:5699   */\n      swap3\n      pop\n      swap3\n      pop\n      swap3\n      jump\t// out\n        /* \"#utility.yul\":5705:6135   */\n    tag_38:\n        /* \"#utility.yul\":5848:5852   */\n      0x00\n        /* \"#utility.yul\":5886:5888   */\n      0x60\n        /* \"#utility.yul\":5875:5884   */\n      dup3\n        /* \"#utility.yul\":5871:5889   */\n      add\n        /* \"#utility.yul\":5863:5889   */\n      swap1\n      pop\n        /* \"#utility.yul\":5899:5964   */\n      tag_267\n        /* \"#utility.yul\":5961:5962   */\n      0x00\n        /* \"#utility.yul\":5950:5959   */\n      dup4\n        /* \"#utility.yul\":5946:5963   */\n      add\n        /* \"#utility.yul\":5937:5943   */\n      dup7\n        /* \"#utility.yul\":5899:5964   */\n      tag_161\n      jump\t// in\n    tag_267:\n        /* \"#utility.yul\":5974:6046   */\n      tag_268\n        /* \"#utility.yul\":6042:6044   */\n      0x20\n        /* \"#utility.yul\":6031:6040   */\n      dup4\n        /* \"#utility.yul\":6027:6045   */\n      add\n        /* \"#utility.yul\":6018:6024   */\n      dup6\n        /* \"#utility.yul\":5974:6046   */\n      tag_154\n      jump\t// in\n    tag_268:\n        /* \"#utility.yul\":6056:6128   */\n      tag_269\n        /* \"#utility.yul\":6124:6126   */\n      0x40\n        /* \"#utility.yul\":6113:6122   */\n      dup4\n        /* \"#utility.yul\":6109:6127   */\n      add\n        /* \"#utility.yul\":6100:6106   */\n      dup5\n        /* \"#utility.yul\":6056:6128   */\n      tag_154\n      jump\t// in\n    tag_269:\n        /* \"#utility.yul\":5705:6135   */\n      swap5\n      swap4\n      pop\n      pop\n      pop\n      pop\n      jump\t// out\n        /* \"#utility.yul\":6141:6255   */\n    tag_165:\n        /* \"#utility.yul\":6208:6214   */\n      0x00\n        /* \"#utility.yul\":6242:6247   */\n      dup2\n        /* \"#utility.yul\":6236:6248   */\n      mload\n        /* \"#utility.yul\":6226:6248   */\n      swap1\n      pop\n        /* \"#utility.yul\":6141:6255   */\n      swap2\n      swap1\n      pop\n      jump\t// out\n        /* \"#utility.yul\":6261:6445   */\n    tag_166:\n        /* \"#utility.yul\":6360:6371   */\n      0x00\n        /* \"#utility.yul\":6394:6400   */\n      dup3\n        /* \"#utility.yul\":6389:6392   */\n      dup3\n        /* \"#utility.yul\":6382:6401   */\n      mstore\n        /* \"#utility.yul\":6434:6438   */\n      0x20\n        /* \"#utility.yul\":6429:6432   */\n      dup3\n        /* \"#utility.yul\":6425:6439   */\n      add\n        /* \"#utility.yul\":6410:6439   */\n      swap1\n      pop\n        /* \"#utility.yul\":6261:6445   */\n      swap3\n      swap2\n      pop\n      pop\n      jump\t// out\n        /* \"#utility.yul\":6451:6583   */\n    tag_167:\n        /* \"#utility.yul\":6518:6522   */\n      0x00\n        /* \"#utility.yul\":6541:6544   */\n      dup2\n        /* \"#utility.yul\":6533:6544   */\n      swap1\n      pop\n        /* \"#utility.yul\":6571:6575   */\n      0x20\n        /* \"#utility.yul\":6566:6569   */\n      dup3\n        /* \"#utility.yul\":6562:6576   */\n      add\n        /* \"#utility.yul\":6554:6576   */\n      swap1\n      pop\n        /* \"#utility.yul\":6451:6583   */\n      swap2\n      swap1\n      pop\n      jump\t// out\n        /* \"#utility.yul\":6589:6697   */\n    tag_168:\n        /* \"#utility.yul\":6666:6690   */\n      tag_274\n        /* \"#utility.yul\":6684:6689   */\n      dup2\n        /* \"#utility.yul\":6666:6690   */\n      tag_148\n      jump\t// in\n    tag_274:\n        /* \"#utility.yul\":6661:6664   */\n      dup3\n        /* \"#utility.yul\":6654:6691   */\n      mstore\n        /* \"#utility.yul\":6589:6697   */\n      pop\n      pop\n      jump\t// out\n        /* \"#utility.yul\":6703:6882   */\n    tag_169:\n        /* \"#utility.yul\":6772:6782   */\n      0x00\n        /* \"#utility.yul\":6793:6839   */\n      tag_276\n        /* \"#utility.yul\":6835:6838   */\n      dup4\n        /* \"#utility.yul\":6827:6833   */\n      dup4\n        /* \"#utility.yul\":6793:6839   */\n      tag_168\n      jump\t// in\n    tag_276:\n        /* \"#utility.yul\":6871:6875   */\n      0x20\n        /* \"#utility.yul\":6866:6869   */\n      dup4\n        /* \"#utility.yul\":6862:6876   */\n      add\n        /* \"#utility.yul\":6848:6876   */\n      swap1\n      pop\n        /* \"#utility.yul\":6703:6882   */\n      swap3\n      swap2\n      pop\n      pop\n      jump\t// out\n        /* \"#utility.yul\":6888:7001   */\n    tag_170:\n        /* \"#utility.yul\":6958:6962   */\n      0x00\n        /* \"#utility.yul\":6990:6994   */\n      0x20\n        /* \"#utility.yul\":6985:6988   */\n      dup3\n        /* \"#utility.yul\":6981:6995   */\n      add\n        /* \"#utility.yul\":6973:6995   */\n      swap1\n      pop\n        /* \"#utility.yul\":6888:7001   */\n      swap2\n      swap1\n      pop\n      jump\t// out\n        /* \"#utility.yul\":7037:7769   */\n    tag_171:\n        /* \"#utility.yul\":7156:7159   */\n      0x00\n        /* \"#utility.yul\":7185:7239   */\n      tag_279\n        /* \"#utility.yul\":7233:7238   */\n      dup3\n        /* \"#utility.yul\":7185:7239   */\n      tag_165\n      jump\t// in\n    tag_279:\n        /* \"#utility.yul\":7255:7341   */\n      tag_280\n        /* \"#utility.yul\":7334:7340   */\n      dup2\n        /* \"#utility.yul\":7329:7332   */\n      dup6\n        /* \"#utility.yul\":7255:7341   */\n      tag_166\n      jump\t// in\n    tag_280:\n        /* \"#utility.yul\":7248:7341   */\n      swap4\n      pop\n        /* \"#utility.yul\":7365:7421   */\n      tag_281\n        /* \"#utility.yul\":7415:7420   */\n      dup4\n        /* \"#utility.yul\":7365:7421   */\n      tag_167\n      jump\t// in\n    tag_281:\n        /* \"#utility.yul\":7444:7451   */\n      dup1\n        /* \"#utility.yul\":7475:7476   */\n      0x00\n        /* \"#utility.yul\":7460:7744   */\n    tag_282:\n        /* \"#utility.yul\":7485:7491   */\n      dup4\n        /* \"#utility.yul\":7482:7483   */\n      dup2\n        /* \"#utility.yul\":7479:7492   */\n      lt\n        /* \"#utility.yul\":7460:7744   */\n      iszero\n      tag_284\n      jumpi\n        /* \"#utility.yul\":7561:7567   */\n      dup2\n        /* \"#utility.yul\":7555:7568   */\n      mload\n        /* \"#utility.yul\":7588:7651   */\n      tag_285\n        /* \"#utility.yul\":7647:7650   */\n      dup9\n        /* \"#utility.yul\":7632:7645   */\n      dup3\n        /* \"#utility.yul\":7588:7651   */\n      tag_169\n      jump\t// in\n    tag_285:\n        /* \"#utility.yul\":7581:7651   */\n      swap8\n      pop\n        /* \"#utility.yul\":7674:7734   */\n      tag_286\n        /* \"#utility.yul\":7727:7733   */\n      dup4\n        /* \"#utility.yul\":7674:7734   */\n      tag_170\n      jump\t// in\n    tag_286:\n        /* \"#utility.yul\":7664:7734   */\n      swap3\n      pop\n        /* \"#utility.yul\":7520:7744   */\n      pop\n        /* \"#utility.yul\":7507:7508   */\n      0x01\n        /* \"#utility.yul\":7504:7505   */\n      dup2\n        /* \"#utility.yul\":7500:7509   */\n      add\n        /* \"#utility.yul\":7495:7509   */\n      swap1\n      pop\n        /* \"#utility.yul\":7460:7744   */\n      jump(tag_282)\n    tag_284:\n        /* \"#utility.yul\":7464:7478   */\n      pop\n        /* \"#utility.yul\":7760:7763   */\n      dup6\n        /* \"#utility.yul\":7753:7763   */\n      swap4\n      pop\n        /* \"#utility.yul\":7161:7769   */\n      pop\n      pop\n      pop\n        /* \"#utility.yul\":7037:7769   */\n      swap3\n      swap2\n      pop\n      pop\n      jump\t// out\n        /* \"#utility.yul\":7775:8148   */\n    tag_42:\n        /* \"#utility.yul\":7918:7922   */\n      0x00\n        /* \"#utility.yul\":7956:7958   */\n      0x20\n        /* \"#utility.yul\":7945:7954   */\n      dup3\n        /* \"#utility.yul\":7941:7959   */\n      add\n        /* \"#utility.yul\":7933:7959   */\n      swap1\n      pop\n        /* \"#utility.yul\":8005:8014   */\n      dup2\n        /* \"#utility.yul\":7999:8003   */\n      dup2\n        /* \"#utility.yul\":7995:8015   */\n      sub\n        /* \"#utility.yul\":7991:7992   */\n      0x00\n        /* \"#utility.yul\":7980:7989   */\n      dup4\n        /* \"#utility.yul\":7976:7993   */\n      add\n        /* \"#utility.yul\":7969:8016   */\n      mstore\n        /* \"#utility.yul\":8033:8141   */\n      tag_288\n        /* \"#utility.yul\":8136:8140   */\n      dup2\n        /* \"#utility.yul\":8127:8133   */\n      dup5\n        /* \"#utility.yul\":8033:8141   */\n      tag_171\n      jump\t// in\n    tag_288:\n        /* \"#utility.yul\":8025:8141   */\n      swap1\n      pop\n        /* \"#utility.yul\":7775:8148   */\n      swap3\n      swap2\n      pop\n      pop\n      jump\t// out\n        /* \"#utility.yul\":8154:8773   */\n    tag_45:\n        /* \"#utility.yul\":8231:8237   */\n      0x00\n        /* \"#utility.yul\":8239:8245   */\n      dup1\n        /* \"#utility.yul\":8247:8253   */\n      0x00\n        /* \"#utility.yul\":8296:8298   */\n      0x60\n        /* \"#utility.yul\":8284:8293   */\n      dup5\n        /* \"#utility.yul\":8275:8282   */\n      dup7\n        /* \"#utility.yul\":8271:8294   */\n      sub\n        /* \"#utility.yul\":8267:8299   */\n      slt\n        /* \"#utility.yul\":8264:8383   */\n      iszero\n      tag_290\n      jumpi\n        /* \"#utility.yul\":8302:8381   */\n      tag_291\n      tag_142\n      jump\t// in\n    tag_291:\n        /* \"#utility.yul\":8264:8383   */\n    tag_290:\n        /* \"#utility.yul\":8422:8423   */\n      0x00\n        /* \"#utility.yul\":8447:8500   */\n      tag_292\n        /* \"#utility.yul\":8492:8499   */\n      dup7\n        /* \"#utility.yul\":8483:8489   */\n      dup3\n        /* \"#utility.yul\":8472:8481   */\n      dup8\n        /* \"#utility.yul\":8468:8490   */\n      add\n        /* \"#utility.yul\":8447:8500   */\n      tag_151\n      jump\t// in\n    tag_292:\n        /* \"#utility.yul\":8437:8500   */\n      swap4\n      pop\n        /* \"#utility.yul\":8393:8510   */\n      pop\n        /* \"#utility.yul\":8549:8551   */\n      0x20\n        /* \"#utility.yul\":8575:8628   */\n      tag_293\n        /* \"#utility.yul\":8620:8627   */\n      dup7\n        /* \"#utility.yul\":8611:8617   */\n      dup3\n        /* \"#utility.yul\":8600:8609   */\n      dup8\n        /* \"#utility.yul\":8596:8618   */\n      add\n        /* \"#utility.yul\":8575:8628   */\n      tag_151\n      jump\t// in\n    tag_293:\n        /* \"#utility.yul\":8565:8628   */\n      swap3\n      pop\n        /* \"#utility.yul\":8520:8638   */\n      pop\n        /* \"#utility.yul\":8677:8679   */\n      0x40\n        /* \"#utility.yul\":8703:8756   */\n      tag_294\n        /* \"#utility.yul\":8748:8755   */\n      dup7\n        /* \"#utility.yul\":8739:8745   */\n      dup3\n        /* \"#utility.yul\":8728:8737   */\n      dup8\n        /* \"#utility.yul\":8724:8746   */\n      add\n        /* \"#utility.yul\":8703:8756   */\n      tag_151\n      jump\t// in\n    tag_294:\n        /* \"#utility.yul\":8693:8756   */\n      swap2\n      pop\n        /* \"#utility.yul\":8648:8766   */\n      pop\n        /* \"#utility.yul\":8154:8773   */\n      swap3\n      pop\n      swap3\n      pop\n      swap3\n      jump\t// out\n        /* \"#utility.yul\":8779:8989   */\n    tag_48:\n        /* \"#utility.yul\":8866:8870   */\n      0x00\n        /* \"#utility.yul\":8904:8906   */\n      0x20\n        /* \"#utility.yul\":8893:8902   */\n      dup3\n        /* \"#utility.yul\":8889:8907   */\n      add\n        /* \"#utility.yul\":8881:8907   */\n      swap1\n      pop\n        /* \"#utility.yul\":8917:8982   */\n      tag_296\n        /* \"#utility.yul\":8979:8980   */\n      0x00\n        /* \"#utility.yul\":8968:8977   */\n      dup4\n        /* \"#utility.yul\":8964:8981   */\n      add\n        /* \"#utility.yul\":8955:8961   */\n      dup5\n        /* \"#utility.yul\":8917:8982   */\n      tag_161\n      jump\t// in\n    tag_296:\n        /* \"#utility.yul\":8779:8989   */\n      swap3\n      swap2\n      pop\n      pop\n      jump\t// out\n        /* \"#utility.yul\":8995:9112   */\n    tag_172:\n        /* \"#utility.yul\":9104:9105   */\n      0x00\n        /* \"#utility.yul\":9101:9102   */\n      dup1\n        /* \"#utility.yul\":9094:9106   */\n      revert\n        /* \"#utility.yul\":9118:9235   */\n    tag_173:\n        /* \"#utility.yul\":9227:9228   */\n      0x00\n        /* \"#utility.yul\":9224:9225   */\n      dup1\n        /* \"#utility.yul\":9217:9229   */\n      revert\n        /* \"#utility.yul\":9241:9421   */\n    tag_174:\n        /* \"#utility.yul\":9289:9366   */\n      0x4e487b7100000000000000000000000000000000000000000000000000000000\n        /* \"#utility.yul\":9286:9287   */\n      0x00\n        /* \"#utility.yul\":9279:9367   */\n      mstore\n        /* \"#utility.yul\":9386:9390   */\n      0x41\n        /* \"#utility.yul\":9383:9384   */\n      0x04\n        /* \"#utility.yul\":9376:9391   */\n      mstore\n        /* \"#utility.yul\":9410:9414   */\n      0x24\n        /* \"#utility.yul\":9407:9408   */\n      0x00\n        /* \"#utility.yul\":9400:9415   */\n      revert\n        /* \"#utility.yul\":9427:9708   */\n    tag_175:\n        /* \"#utility.yul\":9510:9537   */\n      tag_301\n        /* \"#utility.yul\":9532:9536   */\n      dup3\n        /* \"#utility.yul\":9510:9537   */\n      tag_158\n      jump\t// in\n    tag_301:\n        /* \"#utility.yul\":9502:9508   */\n      dup2\n        /* \"#utility.yul\":9498:9538   */\n      add\n        /* \"#utility.yul\":9640:9646   */\n      dup2\n        /* \"#utility.yul\":9628:9638   */\n      dup2\n        /* \"#utility.yul\":9625:9647   */\n      lt\n        /* \"#utility.yul\":9604:9622   */\n      0xffffffffffffffff\n        /* \"#utility.yul\":9592:9602   */\n      dup3\n        /* \"#utility.yul\":9589:9623   */\n      gt\n        /* \"#utility.yul\":9586:9648   */\n      or\n        /* \"#utility.yul\":9583:9671   */\n      iszero\n      tag_302\n      jumpi\n        /* \"#utility.yul\":9651:9669   */\n      tag_303\n      tag_174\n      jump\t// in\n    tag_303:\n        /* \"#utility.yul\":9583:9671   */\n    tag_302:\n        /* \"#utility.yul\":9691:9701   */\n      dup1\n        /* \"#utility.yul\":9687:9689   */\n      0x40\n        /* \"#utility.yul\":9680:9702   */\n      mstore\n        /* \"#utility.yul\":9470:9708   */\n      pop\n        /* \"#utility.yul\":9427:9708   */\n      pop\n      pop\n      jump\t// out\n        /* \"#utility.yul\":9714:9843   */\n    tag_176:\n        /* \"#utility.yul\":9748:9754   */\n      0x00\n        /* \"#utility.yul\":9775:9795   */\n      tag_305\n      tag_141\n      jump\t// in\n    tag_305:\n        /* \"#utility.yul\":9765:9795   */\n      swap1\n      pop\n        /* \"#utility.yul\":9804:9837   */\n      tag_306\n        /* \"#utility.yul\":9832:9836   */\n      dup3\n        /* \"#utility.yul\":9824:9830   */\n      dup3\n        /* \"#utility.yul\":9804:9837   */\n      tag_175\n      jump\t// in\n    tag_306:\n        /* \"#utility.yul\":9714:9843   */\n      swap2\n      swap1\n      pop\n      jump\t// out\n        /* \"#utility.yul\":9849:10157   */\n    tag_177:\n        /* \"#utility.yul\":9911:9915   */\n      0x00\n        /* \"#utility.yul\":10001:10019   */\n      0xffffffffffffffff\n        /* \"#utility.yul\":9993:9999   */\n      dup3\n        /* \"#utility.yul\":9990:10020   */\n      gt\n        /* \"#utility.yul\":9987:10043   */\n      iszero\n      tag_308\n      jumpi\n        /* \"#utility.yul\":10023:10041   */\n      tag_309\n      tag_174\n      jump\t// in\n    tag_309:\n        /* \"#utility.yul\":9987:10043   */\n    tag_308:\n        /* \"#utility.yul\":10061:10090   */\n      tag_310\n        /* \"#utility.yul\":10083:10089   */\n      dup3\n        /* \"#utility.yul\":10061:10090   */\n      tag_158\n      jump\t// in\n    tag_310:\n        /* \"#utility.yul\":10053:10090   */\n      swap1\n      pop\n        /* \"#utility.yul\":10145:10149   */\n      0x20\n        /* \"#utility.yul\":10139:10143   */\n      dup2\n        /* \"#utility.yul\":10135:10150   */\n      add\n        /* \"#utility.yul\":10127:10150   */\n      swap1\n      pop\n        /* \"#utility.yul\":9849:10157   */\n      swap2\n      swap1\n      pop\n      jump\t// out\n        /* \"#utility.yul\":10163:10309   */\n    tag_178:\n        /* \"#utility.yul\":10260:10266   */\n      dup3\n        /* \"#utility.yul\":10255:10258   */\n      dup2\n        /* \"#utility.yul\":10250:10253   */\n      dup4\n        /* \"#utility.yul\":10237:10267   */\n      calldatacopy\n        /* \"#utility.yul\":10301:10302   */\n      0x00\n        /* \"#utility.yul\":10292:10298   */\n      dup4\n        /* \"#utility.yul\":10287:10290   */\n      dup4\n        /* \"#utility.yul\":10283:10299   */\n      add\n        /* \"#utility.yul\":10276:10303   */\n      mstore\n        /* \"#utility.yul\":10163:10309   */\n      pop\n      pop\n      pop\n      jump\t// out\n        /* \"#utility.yul\":10315:10740   */\n    tag_179:\n        /* \"#utility.yul\":10393:10398   */\n      0x00\n        /* \"#utility.yul\":10418:10484   */\n      tag_313\n        /* \"#utility.yul\":10434:10483   */\n      tag_314\n        /* \"#utility.yul\":10476:10482   */\n      dup5\n        /* \"#utility.yul\":10434:10483   */\n      tag_177\n      jump\t// in\n    tag_314:\n        /* \"#utility.yul\":10418:10484   */\n      tag_176\n      jump\t// in\n    tag_313:\n        /* \"#utility.yul\":10409:10484   */\n      swap1\n      pop\n        /* \"#utility.yul\":10507:10513   */\n      dup3\n        /* \"#utility.yul\":10500:10505   */\n      dup2\n        /* \"#utility.yul\":10493:10514   */\n      mstore\n        /* \"#utility.yul\":10545:10549   */\n      0x20\n        /* \"#utility.yul\":10538:10543   */\n      dup2\n        /* \"#utility.yul\":10534:10550   */\n      add\n        /* \"#utility.yul\":10583:10586   */\n      dup5\n        /* \"#utility.yul\":10574:10580   */\n      dup5\n        /* \"#utility.yul\":10569:10572   */\n      dup5\n        /* \"#utility.yul\":10565:10581   */\n      add\n        /* \"#utility.yul\":10562:10587   */\n      gt\n        /* \"#utility.yul\":10559:10671   */\n      iszero\n      tag_315\n      jumpi\n        /* \"#utility.yul\":10590:10669   */\n      tag_316\n      tag_173\n      jump\t// in\n    tag_316:\n        /* \"#utility.yul\":10559:10671   */\n    tag_315:\n        /* \"#utility.yul\":10680:10734   */\n      tag_317\n        /* \"#utility.yul\":10727:10733   */\n      dup5\n        /* \"#utility.yul\":10722:10725   */\n      dup3\n        /* \"#utility.yul\":10717:10720   */\n      dup6\n        /* \"#utility.yul\":10680:10734   */\n      tag_178\n      jump\t// in\n    tag_317:\n        /* \"#utility.yul\":10399:10740   */\n      pop\n        /* \"#utility.yul\":10315:10740   */\n      swap4\n      swap3\n      pop\n      pop\n      pop\n      jump\t// out\n        /* \"#utility.yul\":10760:11100   */\n    tag_180:\n        /* \"#utility.yul\":10816:10821   */\n      0x00\n        /* \"#utility.yul\":10865:10868   */\n      dup3\n        /* \"#utility.yul\":10858:10862   */\n      0x1f\n        /* \"#utility.yul\":10850:10856   */\n      dup4\n        /* \"#utility.yul\":10846:10863   */\n      add\n        /* \"#utility.yul\":10842:10869   */\n      slt\n        /* \"#utility.yul\":10832:10954   */\n      tag_319\n      jumpi\n        /* \"#utility.yul\":10873:10952   */\n      tag_320\n      tag_172\n      jump\t// in\n    tag_320:\n        /* \"#utility.yul\":10832:10954   */\n    tag_319:\n        /* \"#utility.yul\":10990:10996   */\n      dup2\n        /* \"#utility.yul\":10977:10997   */\n      calldataload\n        /* \"#utility.yul\":11015:11094   */\n      tag_321\n        /* \"#utility.yul\":11090:11093   */\n      dup5\n        /* \"#utility.yul\":11082:11088   */\n      dup3\n        /* \"#utility.yul\":11075:11079   */\n      0x20\n        /* \"#utility.yul\":11067:11073   */\n      dup7\n        /* \"#utility.yul\":11063:11080   */\n      add\n        /* \"#utility.yul\":11015:11094   */\n      tag_179\n      jump\t// in\n    tag_321:\n        /* \"#utility.yul\":11006:11094   */\n      swap2\n      pop\n        /* \"#utility.yul\":10822:11100   */\n      pop\n        /* \"#utility.yul\":10760:11100   */\n      swap3\n      swap2\n      pop\n      pop\n      jump\t// out\n        /* \"#utility.yul\":11106:11760   */\n    tag_51:\n        /* \"#utility.yul\":11184:11190   */\n      0x00\n        /* \"#utility.yul\":11192:11198   */\n      dup1\n        /* \"#utility.yul\":11241:11243   */\n      0x40\n        /* \"#utility.yul\":11229:11238   */\n      dup4\n        /* \"#utility.yul\":11220:11227   */\n      dup6\n        /* \"#utility.yul\":11216:11239   */\n      sub\n        /* \"#utility.yul\":11212:11244   */\n      slt\n        /* \"#utility.yul\":11209:11328   */\n      iszero\n      tag_323\n      jumpi\n        /* \"#utility.yul\":11247:11326   */\n      tag_324\n      tag_142\n      jump\t// in\n    tag_324:\n        /* \"#utility.yul\":11209:11328   */\n    tag_323:\n        /* \"#utility.yul\":11367:11368   */\n      0x00\n        /* \"#utility.yul\":11392:11445   */\n      tag_325\n        /* \"#utility.yul\":11437:11444   */\n      dup6\n        /* \"#utility.yul\":11428:11434   */\n      dup3\n        /* \"#utility.yul\":11417:11426   */\n      dup7\n        /* \"#utility.yul\":11413:11435   */\n      add\n        /* \"#utility.yul\":11392:11445   */\n      tag_146\n      jump\t// in\n    tag_325:\n        /* \"#utility.yul\":11382:11445   */\n      swap3\n      pop\n        /* \"#utility.yul\":11338:11455   */\n      pop\n        /* \"#utility.yul\":11522:11524   */\n      0x20\n        /* \"#utility.yul\":11511:11520   */\n      dup4\n        /* \"#utility.yul\":11507:11525   */\n      add\n        /* \"#utility.yul\":11494:11526   */\n      calldataload\n        /* \"#utility.yul\":11553:11571   */\n      0xffffffffffffffff\n        /* \"#utility.yul\":11545:11551   */\n      dup2\n        /* \"#utility.yul\":11542:11572   */\n      gt\n        /* \"#utility.yul\":11539:11656   */\n      iszero\n      tag_326\n      jumpi\n        /* \"#utility.yul\":11575:11654   */\n      tag_327\n      tag_143\n      jump\t// in\n    tag_327:\n        /* \"#utility.yul\":11539:11656   */\n    tag_326:\n        /* \"#utility.yul\":11680:11743   */\n      tag_328\n        /* \"#utility.yul\":11735:11742   */\n      dup6\n        /* \"#utility.yul\":11726:11732   */\n      dup3\n        /* \"#utility.yul\":11715:11724   */\n      dup7\n        /* \"#utility.yul\":11711:11733   */\n      add\n        /* \"#utility.yul\":11680:11743   */\n      tag_180\n      jump\t// in\n    tag_328:\n        /* \"#utility.yul\":11670:11743   */\n      swap2\n      pop\n        /* \"#utility.yul\":11465:11753   */\n      pop\n        /* \"#utility.yul\":11106:11760   */\n      swap3\n      pop\n      swap3\n      swap1\n      pop\n      jump\t// out\n        /* \"#utility.yul\":11766:12240   */\n    tag_59:\n        /* \"#utility.yul\":11834:11840   */\n      0x00\n        /* \"#utility.yul\":11842:11848   */\n      dup1\n        /* \"#utility.yul\":11891:11893   */\n      0x40\n        /* \"#utility.yul\":11879:11888   */\n      dup4\n        /* \"#utility.yul\":11870:11877   */\n      dup6\n        /* \"#utility.yul\":11866:11889   */\n      sub\n        /* \"#utility.yul\":11862:11894   */\n      slt\n        /* \"#utility.yul\":11859:11978   */\n      iszero\n      tag_330\n      jumpi\n        /* \"#utility.yul\":11897:11976   */\n      tag_331\n      tag_142\n      jump\t// in\n    tag_331:\n        /* \"#utility.yul\":11859:11978   */\n    tag_330:\n        /* \"#utility.yul\":12017:12018   */\n      0x00\n        /* \"#utility.yul\":12042:12095   */\n      tag_332\n        /* \"#utility.yul\":12087:12094   */\n      dup6\n        /* \"#utility.yul\":12078:12084   */\n      dup3\n        /* \"#utility.yul\":12067:12076   */\n      dup7\n        /* \"#utility.yul\":12063:12085   */\n      add\n        /* \"#utility.yul\":12042:12095   */\n      tag_151\n      jump\t// in\n    tag_332:\n        /* \"#utility.yul\":12032:12095   */\n      swap3\n      pop\n        /* \"#utility.yul\":11988:12105   */\n      pop\n        /* \"#utility.yul\":12144:12146   */\n      0x20\n        /* \"#utility.yul\":12170:12223   */\n      tag_333\n        /* \"#utility.yul\":12215:12222   */\n      dup6\n        /* \"#utility.yul\":12206:12212   */\n      dup3\n        /* \"#utility.yul\":12195:12204   */\n      dup7\n        /* \"#utility.yul\":12191:12213   */\n      add\n        /* \"#utility.yul\":12170:12223   */\n      tag_151\n      jump\t// in\n    tag_333:\n        /* \"#utility.yul\":12160:12223   */\n      swap2\n      pop\n        /* \"#utility.yul\":12115:12233   */\n      pop\n        /* \"#utility.yul\":11766:12240   */\n      swap3\n      pop\n      swap3\n      swap1\n      pop\n      jump\t// out\n        /* \"#utility.yul\":12246:12384   */\n    tag_181:\n        /* \"#utility.yul\":12327:12359   */\n      tag_335\n        /* \"#utility.yul\":12353:12358   */\n      dup2\n        /* \"#utility.yul\":12327:12359   */\n      tag_152\n      jump\t// in\n    tag_335:\n        /* \"#utility.yul\":12320:12325   */\n      dup2\n        /* \"#utility.yul\":12317:12360   */\n      eq\n        /* \"#utility.yul\":12307:12378   */\n      tag_336\n      jumpi\n        /* \"#utility.yul\":12374:12375   */\n      0x00\n        /* \"#utility.yul\":12371:12372   */\n      dup1\n        /* \"#utility.yul\":12364:12376   */\n      revert\n        /* \"#utility.yul\":12307:12378   */\n    tag_336:\n        /* \"#utility.yul\":12246:12384   */\n      pop\n      jump\t// out\n        /* \"#utility.yul\":12390:12549   */\n    tag_182:\n        /* \"#utility.yul\":12455:12460   */\n      0x00\n        /* \"#utility.yul\":12486:12492   */\n      dup2\n        /* \"#utility.yul\":12480:12493   */\n      mload\n        /* \"#utility.yul\":12471:12493   */\n      swap1\n      pop\n        /* \"#utility.yul\":12502:12543   */\n      tag_338\n        /* \"#utility.yul\":12537:12542   */\n      dup2\n        /* \"#utility.yul\":12502:12543   */\n      tag_181\n      jump\t// in\n    tag_338:\n        /* \"#utility.yul\":12390:12549   */\n      swap3\n      swap2\n      pop\n      pop\n      jump\t// out\n        /* \"#utility.yul\":12555:12922   */\n    tag_70:\n        /* \"#utility.yul\":12633:12639   */\n      0x00\n        /* \"#utility.yul\":12682:12684   */\n      0x20\n        /* \"#utility.yul\":12670:12679   */\n      dup3\n        /* \"#utility.yul\":12661:12668   */\n      dup5\n        /* \"#utility.yul\":12657:12680   */\n      sub\n        /* \"#utility.yul\":12653:12685   */\n      slt\n        /* \"#utility.yul\":12650:12769   */\n      iszero\n      tag_340\n      jumpi\n        /* \"#utility.yul\":12688:12767   */\n      tag_341\n      tag_142\n      jump\t// in\n    tag_341:\n        /* \"#utility.yul\":12650:12769   */\n    tag_340:\n        /* \"#utility.yul\":12808:12809   */\n      0x00\n        /* \"#utility.yul\":12833:12905   */\n      tag_342\n        /* \"#utility.yul\":12897:12904   */\n      dup5\n        /* \"#utility.yul\":12888:12894   */\n      dup3\n        /* \"#utility.yul\":12877:12886   */\n      dup6\n        /* \"#utility.yul\":12873:12895   */\n      add\n        /* \"#utility.yul\":12833:12905   */\n      tag_182\n      jump\t// in\n    tag_342:\n        /* \"#utility.yul\":12823:12905   */\n      swap2\n      pop\n        /* \"#utility.yul\":12779:12915   */\n      pop\n        /* \"#utility.yul\":12555:12922   */\n      swap3\n      swap2\n      pop\n      pop\n      jump\t// out\n        /* \"#utility.yul\":12928:13071   */\n    tag_183:\n        /* \"#utility.yul\":12985:12990   */\n      0x00\n        /* \"#utility.yul\":13016:13022   */\n      dup2\n        /* \"#utility.yul\":13010:13023   */\n      mload\n        /* \"#utility.yul\":13001:13023   */\n      swap1\n      pop\n        /* \"#utility.yul\":13032:13065   */\n      tag_344\n        /* \"#utility.yul\":13059:13064   */\n      dup2\n        /* \"#utility.yul\":13032:13065   */\n      tag_145\n      jump\t// in\n    tag_344:\n        /* \"#utility.yul\":12928:13071   */\n      swap3\n      swap2\n      pop\n      pop\n      jump\t// out\n        /* \"#utility.yul\":13077:13428   */\n    tag_74:\n        /* \"#utility.yul\":13147:13153   */\n      0x00\n        /* \"#utility.yul\":13196:13198   */\n      0x20\n        /* \"#utility.yul\":13184:13193   */\n      dup3\n        /* \"#utility.yul\":13175:13182   */\n      dup5\n        /* \"#utility.yul\":13171:13194   */\n      sub\n        /* \"#utility.yul\":13167:13199   */\n      slt\n        /* \"#utility.yul\":13164:13283   */\n      iszero\n      tag_346\n      jumpi\n        /* \"#utility.yul\":13202:13281   */\n      tag_347\n      tag_142\n      jump\t// in\n    tag_347:\n        /* \"#utility.yul\":13164:13283   */\n    tag_346:\n        /* \"#utility.yul\":13322:13323   */\n      0x00\n        /* \"#utility.yul\":13347:13411   */\n      tag_348\n        /* \"#utility.yul\":13403:13410   */\n      dup5\n        /* \"#utility.yul\":13394:13400   */\n      dup3\n        /* \"#utility.yul\":13383:13392   */\n      dup6\n        /* \"#utility.yul\":13379:13401   */\n      add\n        /* \"#utility.yul\":13347:13411   */\n      tag_183\n      jump\t// in\n    tag_348:\n        /* \"#utility.yul\":13337:13411   */\n      swap2\n      pop\n        /* \"#utility.yul\":13293:13421   */\n      pop\n        /* \"#utility.yul\":13077:13428   */\n      swap3\n      swap2\n      pop\n      pop\n      jump\t// out\n        /* \"#utility.yul\":13434:13577   */\n    tag_184:\n        /* \"#utility.yul\":13491:13496   */\n      0x00\n        /* \"#utility.yul\":13522:13528   */\n      dup2\n        /* \"#utility.yul\":13516:13529   */\n      mload\n        /* \"#utility.yul\":13507:13529   */\n      swap1\n      pop\n        /* \"#utility.yul\":13538:13571   */\n      tag_350\n        /* \"#utility.yul\":13565:13570   */\n      dup2\n        /* \"#utility.yul\":13538:13571   */\n      tag_150\n      jump\t// in\n    tag_350:\n        /* \"#utility.yul\":13434:13577   */\n      swap3\n      swap2\n      pop\n      pop\n      jump\t// out\n        /* \"#utility.yul\":13583:13934   */\n    tag_78:\n        /* \"#utility.yul\":13653:13659   */\n      0x00\n        /* \"#utility.yul\":13702:13704   */\n      0x20\n        /* \"#utility.yul\":13690:13699   */\n      dup3\n        /* \"#utility.yul\":13681:13688   */\n      dup5\n        /* \"#utility.yul\":13677:13700   */\n      sub\n        /* \"#utility.yul\":13673:13705   */\n      slt\n        /* \"#utility.yul\":13670:13789   */\n      iszero\n      tag_352\n      jumpi\n        /* \"#utility.yul\":13708:13787   */\n      tag_353\n      tag_142\n      jump\t// in\n    tag_353:\n        /* \"#utility.yul\":13670:13789   */\n    tag_352:\n        /* \"#utility.yul\":13828:13829   */\n      0x00\n        /* \"#utility.yul\":13853:13917   */\n      tag_354\n        /* \"#utility.yul\":13909:13916   */\n      dup5\n        /* \"#utility.yul\":13900:13906   */\n      dup3\n        /* \"#utility.yul\":13889:13898   */\n      dup6\n        /* \"#utility.yul\":13885:13907   */\n      add\n        /* \"#utility.yul\":13853:13917   */\n      tag_184\n      jump\t// in\n    tag_354:\n        /* \"#utility.yul\":13843:13917   */\n      swap2\n      pop\n        /* \"#utility.yul\":13799:13927   */\n      pop\n        /* \"#utility.yul\":13583:13934   */\n      swap3\n      swap2\n      pop\n      pop\n      jump\t// out\n        /* \"#utility.yul\":13940:14374   */\n    tag_185:\n        /* \"#utility.yul\":14029:14034   */\n      0x00\n        /* \"#utility.yul\":14054:14120   */\n      tag_356\n        /* \"#utility.yul\":14070:14119   */\n      tag_357\n        /* \"#utility.yul\":14112:14118   */\n      dup5\n        /* \"#utility.yul\":14070:14119   */\n      tag_177\n      jump\t// in\n    tag_357:\n        /* \"#utility.yul\":14054:14120   */\n      tag_176\n      jump\t// in\n    tag_356:\n        /* \"#utility.yul\":14045:14120   */\n      swap1\n      pop\n        /* \"#utility.yul\":14143:14149   */\n      dup3\n        /* \"#utility.yul\":14136:14141   */\n      dup2\n        /* \"#utility.yul\":14129:14150   */\n      mstore\n        /* \"#utility.yul\":14181:14185   */\n      0x20\n        /* \"#utility.yul\":14174:14179   */\n      dup2\n        /* \"#utility.yul\":14170:14186   */\n      add\n        /* \"#utility.yul\":14219:14222   */\n      dup5\n        /* \"#utility.yul\":14210:14216   */\n      dup5\n        /* \"#utility.yul\":14205:14208   */\n      dup5\n        /* \"#utility.yul\":14201:14217   */\n      add\n        /* \"#utility.yul\":14198:14223   */\n      gt\n        /* \"#utility.yul\":14195:14307   */\n      iszero\n      tag_358\n      jumpi\n        /* \"#utility.yul\":14226:14305   */\n      tag_359\n      tag_173\n      jump\t// in\n    tag_359:\n        /* \"#utility.yul\":14195:14307   */\n    tag_358:\n        /* \"#utility.yul\":14316:14368   */\n      tag_360\n        /* \"#utility.yul\":14361:14367   */\n      dup5\n        /* \"#utility.yul\":14356:14359   */\n      dup3\n        /* \"#utility.yul\":14351:14354   */\n      dup6\n        /* \"#utility.yul\":14316:14368   */\n      tag_157\n      jump\t// in\n    tag_360:\n        /* \"#utility.yul\":14035:14374   */\n      pop\n        /* \"#utility.yul\":13940:14374   */\n      swap4\n      swap3\n      pop\n      pop\n      pop\n      jump\t// out\n        /* \"#utility.yul\":14394:14749   */\n    tag_186:\n        /* \"#utility.yul\":14461:14466   */\n      0x00\n        /* \"#utility.yul\":14510:14513   */\n      dup3\n        /* \"#utility.yul\":14503:14507   */\n      0x1f\n        /* \"#utility.yul\":14495:14501   */\n      dup4\n        /* \"#utility.yul\":14491:14508   */\n      add\n        /* \"#utility.yul\":14487:14514   */\n      slt\n        /* \"#utility.yul\":14477:14599   */\n      tag_362\n      jumpi\n        /* \"#utility.yul\":14518:14597   */\n      tag_363\n      tag_172\n      jump\t// in\n    tag_363:\n        /* \"#utility.yul\":14477:14599   */\n    tag_362:\n        /* \"#utility.yul\":14628:14634   */\n      dup2\n        /* \"#utility.yul\":14622:14635   */\n      mload\n        /* \"#utility.yul\":14653:14743   */\n      tag_364\n        /* \"#utility.yul\":14739:14742   */\n      dup5\n        /* \"#utility.yul\":14731:14737   */\n      dup3\n        /* \"#utility.yul\":14724:14728   */\n      0x20\n        /* \"#utility.yul\":14716:14722   */\n      dup7\n        /* \"#utility.yul\":14712:14729   */\n      add\n        /* \"#utility.yul\":14653:14743   */\n      tag_185\n      jump\t// in\n    tag_364:\n        /* \"#utility.yul\":14644:14743   */\n      swap2\n      pop\n        /* \"#utility.yul\":14467:14749   */\n      pop\n        /* \"#utility.yul\":14394:14749   */\n      swap3\n      swap2\n      pop\n      pop\n      jump\t// out\n        /* \"#utility.yul\":14755:15279   */\n    tag_85:\n        /* \"#utility.yul\":14835:14841   */\n      0x00\n        /* \"#utility.yul\":14884:14886   */\n      0x20\n        /* \"#utility.yul\":14872:14881   */\n      dup3\n        /* \"#utility.yul\":14863:14870   */\n      dup5\n        /* \"#utility.yul\":14859:14882   */\n      sub\n        /* \"#utility.yul\":14855:14887   */\n      slt\n        /* \"#utility.yul\":14852:14971   */\n      iszero\n      tag_366\n      jumpi\n        /* \"#utility.yul\":14890:14969   */\n      tag_367\n      tag_142\n      jump\t// in\n    tag_367:\n        /* \"#utility.yul\":14852:14971   */\n    tag_366:\n        /* \"#utility.yul\":15031:15032   */\n      0x00\n        /* \"#utility.yul\":15020:15029   */\n      dup3\n        /* \"#utility.yul\":15016:15033   */\n      add\n        /* \"#utility.yul\":15010:15034   */\n      mload\n        /* \"#utility.yul\":15061:15079   */\n      0xffffffffffffffff\n        /* \"#utility.yul\":15053:15059   */\n      dup2\n        /* \"#utility.yul\":15050:15080   */\n      gt\n        /* \"#utility.yul\":15047:15164   */\n      iszero\n      tag_368\n      jumpi\n        /* \"#utility.yul\":15083:15162   */\n      tag_369\n      tag_143\n      jump\t// in\n    tag_369:\n        /* \"#utility.yul\":15047:15164   */\n    tag_368:\n        /* \"#utility.yul\":15188:15262   */\n      tag_370\n        /* \"#utility.yul\":15254:15261   */\n      dup5\n        /* \"#utility.yul\":15245:15251   */\n      dup3\n        /* \"#utility.yul\":15234:15243   */\n      dup6\n        /* \"#utility.yul\":15230:15252   */\n      add\n        /* \"#utility.yul\":15188:15262   */\n      tag_186\n      jump\t// in\n    tag_370:\n        /* \"#utility.yul\":15178:15262   */\n      swap2\n      pop\n        /* \"#utility.yul\":14981:15272   */\n      pop\n        /* \"#utility.yul\":14755:15279   */\n      swap3\n      swap2\n      pop\n      pop\n      jump\t// out\n        /* \"#utility.yul\":15285:15401   */\n    tag_187:\n        /* \"#utility.yul\":15355:15376   */\n      tag_372\n        /* \"#utility.yul\":15370:15375   */\n      dup2\n        /* \"#utility.yul\":15355:15376   */\n      tag_160\n      jump\t// in\n    tag_372:\n        /* \"#utility.yul\":15348:15353   */\n      dup2\n        /* \"#utility.yul\":15345:15377   */\n      eq\n        /* \"#utility.yul\":15335:15395   */\n      tag_373\n      jumpi\n        /* \"#utility.yul\":15391:15392   */\n      0x00\n        /* \"#utility.yul\":15388:15389   */\n      dup1\n        /* \"#utility.yul\":15381:15393   */\n      revert\n        /* \"#utility.yul\":15335:15395   */\n    tag_373:\n        /* \"#utility.yul\":15285:15401   */\n      pop\n      jump\t// out\n        /* \"#utility.yul\":15407:15544   */\n    tag_188:\n        /* \"#utility.yul\":15461:15466   */\n      0x00\n        /* \"#utility.yul\":15492:15498   */\n      dup2\n        /* \"#utility.yul\":15486:15499   */\n      mload\n        /* \"#utility.yul\":15477:15499   */\n      swap1\n      pop\n        /* \"#utility.yul\":15508:15538   */\n      tag_375\n        /* \"#utility.yul\":15532:15537   */\n      dup2\n        /* \"#utility.yul\":15508:15538   */\n      tag_187\n      jump\t// in\n    tag_375:\n        /* \"#utility.yul\":15407:15544   */\n      swap3\n      swap2\n      pop\n      pop\n      jump\t// out\n        /* \"#utility.yul\":15550:15895   */\n    tag_89:\n        /* \"#utility.yul\":15617:15623   */\n      0x00\n        /* \"#utility.yul\":15666:15668   */\n      0x20\n        /* \"#utility.yul\":15654:15663   */\n      dup3\n        /* \"#utility.yul\":15645:15652   */\n      dup5\n        /* \"#utility.yul\":15641:15664   */\n      sub\n        /* \"#utility.yul\":15637:15669   */\n      slt\n        /* \"#utility.yul\":15634:15753   */\n      iszero\n      tag_377\n      jumpi\n        /* \"#utility.yul\":15672:15751   */\n      tag_378\n      tag_142\n      jump\t// in\n    tag_378:\n        /* \"#utility.yul\":15634:15753   */\n    tag_377:\n        /* \"#utility.yul\":15792:15793   */\n      0x00\n        /* \"#utility.yul\":15817:15878   */\n      tag_379\n        /* \"#utility.yul\":15870:15877   */\n      dup5\n        /* \"#utility.yul\":15861:15867   */\n      dup3\n        /* \"#utility.yul\":15850:15859   */\n      dup6\n        /* \"#utility.yul\":15846:15868   */\n      add\n        /* \"#utility.yul\":15817:15878   */\n      tag_188\n      jump\t// in\n    tag_379:\n        /* \"#utility.yul\":15807:15878   */\n      swap2\n      pop\n        /* \"#utility.yul\":15763:15888   */\n      pop\n        /* \"#utility.yul\":15550:15895   */\n      swap3\n      swap2\n      pop\n      pop\n      jump\t// out\n        /* \"#utility.yul\":15901:16079   */\n    tag_189:\n        /* \"#utility.yul\":16041:16071   */\n      0x4d6178696d756d2076616c756520666f72207261746520697320352e00000000\n        /* \"#utility.yul\":16037:16038   */\n      0x00\n        /* \"#utility.yul\":16029:16035   */\n      dup3\n        /* \"#utility.yul\":16025:16039   */\n      add\n        /* \"#utility.yul\":16018:16072   */\n      mstore\n        /* \"#utility.yul\":15901:16079   */\n      pop\n      jump\t// out\n        /* \"#utility.yul\":16085:16451   */\n    tag_190:\n        /* \"#utility.yul\":16227:16230   */\n      0x00\n        /* \"#utility.yul\":16248:16315   */\n      tag_382\n        /* \"#utility.yul\":16312:16314   */\n      0x1c\n        /* \"#utility.yul\":16307:16310   */\n      dup4\n        /* \"#utility.yul\":16248:16315   */\n      tag_156\n      jump\t// in\n    tag_382:\n        /* \"#utility.yul\":16241:16315   */\n      swap2\n      pop\n        /* \"#utility.yul\":16324:16417   */\n      tag_383\n        /* \"#utility.yul\":16413:16416   */\n      dup3\n        /* \"#utility.yul\":16324:16417   */\n      tag_189\n      jump\t// in\n    tag_383:\n        /* \"#utility.yul\":16442:16444   */\n      0x20\n        /* \"#utility.yul\":16437:16440   */\n      dup3\n        /* \"#utility.yul\":16433:16445   */\n      add\n        /* \"#utility.yul\":16426:16445   */\n      swap1\n      pop\n        /* \"#utility.yul\":16085:16451   */\n      swap2\n      swap1\n      pop\n      jump\t// out\n        /* \"#utility.yul\":16457:16876   */\n    tag_93:\n        /* \"#utility.yul\":16623:16627   */\n      0x00\n        /* \"#utility.yul\":16661:16663   */\n      0x20\n        /* \"#utility.yul\":16650:16659   */\n      dup3\n        /* \"#utility.yul\":16646:16664   */\n      add\n        /* \"#utility.yul\":16638:16664   */\n      swap1\n      pop\n        /* \"#utility.yul\":16710:16719   */\n      dup2\n        /* \"#utility.yul\":16704:16708   */\n      dup2\n        /* \"#utility.yul\":16700:16720   */\n      sub\n        /* \"#utility.yul\":16696:16697   */\n      0x00\n        /* \"#utility.yul\":16685:16694   */\n      dup4\n        /* \"#utility.yul\":16681:16698   */\n      add\n        /* \"#utility.yul\":16674:16721   */\n      mstore\n        /* \"#utility.yul\":16738:16869   */\n      tag_385\n        /* \"#utility.yul\":16864:16868   */\n      dup2\n        /* \"#utility.yul\":16738:16869   */\n      tag_190\n      jump\t// in\n    tag_385:\n        /* \"#utility.yul\":16730:16869   */\n      swap1\n      pop\n        /* \"#utility.yul\":16457:16876   */\n      swap2\n      swap1\n      pop\n      jump\t// out\n        /* \"#utility.yul\":16882:17060   */\n    tag_191:\n        /* \"#utility.yul\":17022:17052   */\n      0x4d696e696d756d2076616c756520666f72207261746520697320312e00000000\n        /* \"#utility.yul\":17018:17019   */\n      0x00\n        /* \"#utility.yul\":17010:17016   */\n      dup3\n        /* \"#utility.yul\":17006:17020   */\n      add\n        /* \"#utility.yul\":16999:17053   */\n      mstore\n        /* \"#utility.yul\":16882:17060   */\n      pop\n      jump\t// out\n        /* \"#utility.yul\":17066:17432   */\n    tag_192:\n        /* \"#utility.yul\":17208:17211   */\n      0x00\n        /* \"#utility.yul\":17229:17296   */\n      tag_388\n        /* \"#utility.yul\":17293:17295   */\n      0x1c\n        /* \"#utility.yul\":17288:17291   */\n      dup4\n        /* \"#utility.yul\":17229:17296   */\n      tag_156\n      jump\t// in\n    tag_388:\n        /* \"#utility.yul\":17222:17296   */\n      swap2\n      pop\n        /* \"#utility.yul\":17305:17398   */\n      tag_389\n        /* \"#utility.yul\":17394:17397   */\n      dup3\n        /* \"#utility.yul\":17305:17398   */\n      tag_191\n      jump\t// in\n    tag_389:\n        /* \"#utility.yul\":17423:17425   */\n      0x20\n        /* \"#utility.yul\":17418:17421   */\n      dup3\n        /* \"#utility.yul\":17414:17426   */\n      add\n        /* \"#utility.yul\":17407:17426   */\n      swap1\n      pop\n        /* \"#utility.yul\":17066:17432   */\n      swap2\n      swap1\n      pop\n      jump\t// out\n        /* \"#utility.yul\":17438:17857   */\n    tag_96:\n        /* \"#utility.yul\":17604:17608   */\n      0x00\n        /* \"#utility.yul\":17642:17644   */\n      0x20\n        /* \"#utility.yul\":17631:17640   */\n      dup3\n        /* \"#utility.yul\":17627:17645   */\n      add\n        /* \"#utility.yul\":17619:17645   */\n      swap1\n      pop\n        /* \"#utility.yul\":17691:17700   */\n      dup2\n        /* \"#utility.yul\":17685:17689   */\n      dup2\n        /* \"#utility.yul\":17681:17701   */\n      sub\n        /* \"#utility.yul\":17677:17678   */\n      0x00\n        /* \"#utility.yul\":17666:17675   */\n      dup4\n        /* \"#utility.yul\":17662:17679   */\n      add\n        /* \"#utility.yul\":17655:17702   */\n      mstore\n        /* \"#utility.yul\":17719:17850   */\n      tag_391\n        /* \"#utility.yul\":17845:17849   */\n      dup2\n        /* \"#utility.yul\":17719:17850   */\n      tag_192\n      jump\t// in\n    tag_391:\n        /* \"#utility.yul\":17711:17850   */\n      swap1\n      pop\n        /* \"#utility.yul\":17438:17857   */\n      swap2\n      swap1\n      pop\n      jump\t// out\n        /* \"#utility.yul\":17863:18040   */\n    tag_193:\n        /* \"#utility.yul\":18003:18032   */\n      0x596f75277265206e6f7420616c6c6f77656420746f20726174652e0000000000\n        /* \"#utility.yul\":17999:18000   */\n      0x00\n        /* \"#utility.yul\":17991:17997   */\n      dup3\n        /* \"#utility.yul\":17987:18001   */\n      add\n        /* \"#utility.yul\":17980:18033   */\n      mstore\n        /* \"#utility.yul\":17863:18040   */\n      pop\n      jump\t// out\n        /* \"#utility.yul\":18046:18412   */\n    tag_194:\n        /* \"#utility.yul\":18188:18191   */\n      0x00\n        /* \"#utility.yul\":18209:18276   */\n      tag_394\n        /* \"#utility.yul\":18273:18275   */\n      0x1b\n        /* \"#utility.yul\":18268:18271   */\n      dup4\n        /* \"#utility.yul\":18209:18276   */\n      tag_156\n      jump\t// in\n    tag_394:\n        /* \"#utility.yul\":18202:18276   */\n      swap2\n      pop\n        /* \"#utility.yul\":18285:18378   */\n      tag_395\n        /* \"#utility.yul\":18374:18377   */\n      dup3\n        /* \"#utility.yul\":18285:18378   */\n      tag_193\n      jump\t// in\n    tag_395:\n        /* \"#utility.yul\":18403:18405   */\n      0x20\n        /* \"#utility.yul\":18398:18401   */\n      dup3\n        /* \"#utility.yul\":18394:18406   */\n      add\n        /* \"#utility.yul\":18387:18406   */\n      swap1\n      pop\n        /* \"#utility.yul\":18046:18412   */\n      swap2\n      swap1\n      pop\n      jump\t// out\n        /* \"#utility.yul\":18418:18837   */\n    tag_100:\n        /* \"#utility.yul\":18584:18588   */\n      0x00\n        /* \"#utility.yul\":18622:18624   */\n      0x20\n        /* \"#utility.yul\":18611:18620   */\n      dup3\n        /* \"#utility.yul\":18607:18625   */\n      add\n        /* \"#utility.yul\":18599:18625   */\n      swap1\n      pop\n        /* \"#utility.yul\":18671:18680   */\n      dup2\n        /* \"#utility.yul\":18665:18669   */\n      dup2\n        /* \"#utility.yul\":18661:18681   */\n      sub\n        /* \"#utility.yul\":18657:18658   */\n      0x00\n        /* \"#utility.yul\":18646:18655   */\n      dup4\n        /* \"#utility.yul\":18642:18659   */\n      add\n        /* \"#utility.yul\":18635:18682   */\n      mstore\n        /* \"#utility.yul\":18699:18830   */\n      tag_397\n        /* \"#utility.yul\":18825:18829   */\n      dup2\n        /* \"#utility.yul\":18699:18830   */\n      tag_194\n      jump\t// in\n    tag_397:\n        /* \"#utility.yul\":18691:18830   */\n      swap1\n      pop\n        /* \"#utility.yul\":18418:18837   */\n      swap2\n      swap1\n      pop\n      jump\t// out\n        /* \"#utility.yul\":18843:19023   */\n    tag_195:\n        /* \"#utility.yul\":18891:18968   */\n      0x4e487b7100000000000000000000000000000000000000000000000000000000\n        /* \"#utility.yul\":18888:18889   */\n      0x00\n        /* \"#utility.yul\":18881:18969   */\n      mstore\n        /* \"#utility.yul\":18988:18992   */\n      0x11\n        /* \"#utility.yul\":18985:18986   */\n      0x04\n        /* \"#utility.yul\":18978:18993   */\n      mstore\n        /* \"#utility.yul\":19012:19016   */\n      0x24\n        /* \"#utility.yul\":19009:19010   */\n      0x00\n        /* \"#utility.yul\":19002:19017   */\n      revert\n        /* \"#utility.yul\":19029:19220   */\n    tag_102:\n        /* \"#utility.yul\":19069:19072   */\n      0x00\n        /* \"#utility.yul\":19088:19108   */\n      tag_400\n        /* \"#utility.yul\":19106:19107   */\n      dup3\n        /* \"#utility.yul\":19088:19108   */\n      tag_144\n      jump\t// in\n    tag_400:\n        /* \"#utility.yul\":19083:19108   */\n      swap2\n      pop\n        /* \"#utility.yul\":19122:19142   */\n      tag_401\n        /* \"#utility.yul\":19140:19141   */\n      dup4\n        /* \"#utility.yul\":19122:19142   */\n      tag_144\n      jump\t// in\n    tag_401:\n        /* \"#utility.yul\":19117:19142   */\n      swap3\n      pop\n        /* \"#utility.yul\":19165:19166   */\n      dup3\n        /* \"#utility.yul\":19162:19163   */\n      dup3\n        /* \"#utility.yul\":19158:19167   */\n      add\n        /* \"#utility.yul\":19151:19167   */\n      swap1\n      pop\n        /* \"#utility.yul\":19186:19189   */\n      dup1\n        /* \"#utility.yul\":19183:19184   */\n      dup3\n        /* \"#utility.yul\":19180:19190   */\n      gt\n        /* \"#utility.yul\":19177:19213   */\n      iszero\n      tag_402\n      jumpi\n        /* \"#utility.yul\":19193:19211   */\n      tag_403\n      tag_195\n      jump\t// in\n    tag_403:\n        /* \"#utility.yul\":19177:19213   */\n    tag_402:\n        /* \"#utility.yul\":19029:19220   */\n      swap3\n      swap2\n      pop\n      pop\n      jump\t// out\n        /* \"#utility.yul\":19226:19459   */\n    tag_104:\n        /* \"#utility.yul\":19265:19268   */\n      0x00\n        /* \"#utility.yul\":19288:19312   */\n      tag_405\n        /* \"#utility.yul\":19306:19311   */\n      dup3\n        /* \"#utility.yul\":19288:19312   */\n      tag_144\n      jump\t// in\n    tag_405:\n        /* \"#utility.yul\":19279:19312   */\n      swap2\n      pop\n        /* \"#utility.yul\":19334:19400   */\n      0xffffffffffffffffffffffffffffffffffffffffffffffffffffffffffffffff\n        /* \"#utility.yul\":19327:19332   */\n      dup3\n        /* \"#utility.yul\":19324:19401   */\n      sub\n        /* \"#utility.yul\":19321:19424   */\n      tag_406\n      jumpi\n        /* \"#utility.yul\":19404:19422   */\n      tag_407\n      tag_195\n      jump\t// in\n    tag_407:\n        /* \"#utility.yul\":19321:19424   */\n    tag_406:\n        /* \"#utility.yul\":19451:19452   */\n      0x01\n        /* \"#utility.yul\":19444:19449   */\n      dup3\n        /* \"#utility.yul\":19440:19453   */\n      add\n        /* \"#utility.yul\":19433:19453   */\n      swap1\n      pop\n        /* \"#utility.yul\":19226:19459   */\n      swap2\n      swap1\n      pop\n      jump\t// out\n        /* \"#utility.yul\":19465:20030   */\n    tag_112:\n        /* \"#utility.yul\":19650:19654   */\n      0x00\n        /* \"#utility.yul\":19688:19690   */\n      0x60\n        /* \"#utility.yul\":19677:19686   */\n      dup3\n        /* \"#utility.yul\":19673:19691   */\n      add\n        /* \"#utility.yul\":19665:19691   */\n      swap1\n      pop\n        /* \"#utility.yul\":19701:19772   */\n      tag_409\n        /* \"#utility.yul\":19769:19770   */\n      0x00\n        /* \"#utility.yul\":19758:19767   */\n      dup4\n        /* \"#utility.yul\":19754:19771   */\n      add\n        /* \"#utility.yul\":19745:19751   */\n      dup7\n        /* \"#utility.yul\":19701:19772   */\n      tag_154\n      jump\t// in\n    tag_409:\n        /* \"#utility.yul\":19819:19828   */\n      dup2\n        /* \"#utility.yul\":19813:19817   */\n      dup2\n        /* \"#utility.yul\":19809:19829   */\n      sub\n        /* \"#utility.yul\":19804:19806   */\n      0x20\n        /* \"#utility.yul\":19793:19802   */\n      dup4\n        /* \"#utility.yul\":19789:19807   */\n      add\n        /* \"#utility.yul\":19782:19830   */\n      mstore\n        /* \"#utility.yul\":19847:19925   */\n      tag_410\n        /* \"#utility.yul\":19920:19924   */\n      dup2\n        /* \"#utility.yul\":19911:19917   */\n      dup6\n        /* \"#utility.yul\":19847:19925   */\n      tag_159\n      jump\t// in\n    tag_410:\n        /* \"#utility.yul\":19839:19925   */\n      swap1\n      pop\n        /* \"#utility.yul\":19935:20023   */\n      tag_411\n        /* \"#utility.yul\":20019:20021   */\n      0x40\n        /* \"#utility.yul\":20008:20017   */\n      dup4\n        /* \"#utility.yul\":20004:20022   */\n      add\n        /* \"#utility.yul\":19995:20001   */\n      dup5\n        /* \"#utility.yul\":19935:20023   */\n      tag_153\n      jump\t// in\n    tag_411:\n        /* \"#utility.yul\":19465:20030   */\n      swap5\n      swap4\n      pop\n      pop\n      pop\n      pop\n      jump\t// out\n    stop\n\n    sub_0: assembly {\n            /* \"Auction.sol\":66:5212  contract Auction {... */\n          mstore(0x40, 0x80)\n            /* \"Auction.sol\":1523:1747  constructor(uint256 biddingTime, string memory _name, address payable beneficiaryAddress) {... */\n          callvalue\n          dup1\n          iszero\n          tag_1\n          jumpi\n          0x00\n          dup1\n          revert\n        tag_1:\n          pop\n          mload(0x40)\n          sub(codesize, bytecodeSize)\n          dup1\n          bytecodeSize\n          dup4\n          codecopy\n          dup2\n          dup2\n          add\n          0x40\n          mstore\n          dup2\n          add\n          swap1\n          tag_2\n          swap2\n          swap1\n          tag_3\n          jump\t// in\n        tag_2:\n            /* \"Auction.sol\":1637:1655  beneficiaryAddress */\n          dup1\n            /* \"Auction.sol\":1623:1634  beneficiary */\n          0x00\n          dup1\n            /* \"Auction.sol\":1623:1655  beneficiary = beneficiaryAddress */\n          0x0100\n          exp\n          dup2\n          sload\n          dup2\n          0xffffffffffffffffffffffffffffffffffffffff\n          mul\n          not\n          and\n          swap1\n          dup4\n          0xffffffffffffffffffffffffffffffffffffffff\n          and\n          mul\n          or\n          swap1\n          sstore\n          pop\n            /* \"Auction.sol\":1679:1684  _name */\n          dup2\n            /* \"Auction.sol\":1665:1676  auctionName */\n          0x02\n            /* \"Auction.sol\":1665:1684  auctionName = _name */\n          swap1\n          dup2\n          tag_6\n          swap2\n          swap1\n          tag_7\n          jump\t// in\n        tag_6:\n          pop\n            /* \"Auction.sol\":1729:1740  biddingTime */\n          dup3\n            /* \"Auction.sol\":1711:1726  block.timestamp */\n          timestamp\n            /* \"Auction.sol\":1711:1740  block.timestamp + biddingTime */\n          tag_8\n          swap2\n          swap1\n          tag_9\n          jump\t// in\n        tag_8:\n            /* \"Auction.sol\":1694:1708  auctionEndTime */\n          0x01\n            /* \"Auction.sol\":1694:1740  auctionEndTime = block.timestamp + biddingTime */\n          dup2\n          swap1\n          sstore\n          pop\n            /* \"Auction.sol\":1523:1747  constructor(uint256 biddingTime, string memory _name, address payable beneficiaryAddress) {... */\n          pop\n          pop\n          pop\n            /* \"Auction.sol\":66:5212  contract Auction {... */\n          jump(tag_10)\n            /* \"#utility.yul\":7:82   */\n        tag_11:\n            /* \"#utility.yul\":40:46   */\n          0x00\n            /* \"#utility.yul\":73:75   */\n          0x40\n            /* \"#utility.yul\":67:76   */\n          mload\n            /* \"#utility.yul\":57:76   */\n          swap1\n          pop\n            /* \"#utility.yul\":7:82   */\n          swap1\n          jump\t// out\n            /* \"#utility.yul\":88:205   */\n        tag_12:\n            /* \"#utility.yul\":197:198   */\n          0x00\n            /* \"#utility.yul\":194:195   */\n          dup1\n            /* \"#utility.yul\":187:199   */\n          revert\n            /* \"#utility.yul\":211:328   */\n        tag_13:\n            /* \"#utility.yul\":320:321   */\n          0x00\n            /* \"#utility.yul\":317:318   */\n          dup1\n            /* \"#utility.yul\":310:322   */\n          revert\n            /* \"#utility.yul\":334:411   */\n        tag_14:\n            /* \"#utility.yul\":371:378   */\n          0x00\n            /* \"#utility.yul\":400:405   */\n          dup2\n            /* \"#utility.yul\":389:405   */\n          swap1\n          pop\n            /* \"#utility.yul\":334:411   */\n          swap2\n          swap1\n          pop\n          jump\t// out\n            /* \"#utility.yul\":417:539   */\n        tag_15:\n            /* \"#utility.yul\":490:514   */\n          tag_56\n            /* \"#utility.yul\":508:513   */\n          dup2\n            /* \"#utility.yul\":490:514   */\n          tag_14\n          jump\t// in\n        tag_56:\n            /* \"#utility.yul\":483:488   */\n          dup2\n            /* \"#utility.yul\":480:515   */\n          eq\n            /* \"#utility.yul\":470:533   */\n          tag_57\n          jumpi\n            /* \"#utility.yul\":529:530   */\n          0x00\n            /* \"#utility.yul\":526:527   */\n          dup1\n            /* \"#utility.yul\":519:531   */\n          revert\n            /* \"#utility.yul\":470:533   */\n        tag_57:\n            /* \"#utility.yul\":417:539   */\n          pop\n          jump\t// out\n            /* \"#utility.yul\":545:688   */\n        tag_16:\n            /* \"#utility.yul\":602:607   */\n          0x00\n            /* \"#utility.yul\":633:639   */\n          dup2\n            /* \"#utility.yul\":627:640   */\n          mload\n            /* \"#utility.yul\":618:640   */\n          swap1\n          pop\n            /* \"#utility.yul\":649:682   */\n          tag_59\n            /* \"#utility.yul\":676:681   */\n          dup2\n            /* \"#utility.yul\":649:682   */\n          tag_15\n          jump\t// in\n        tag_59:\n            /* \"#utility.yul\":545:688   */\n          swap3\n          swap2\n          pop\n          pop\n          jump\t// out\n            /* \"#utility.yul\":694:811   */\n        tag_17:\n            /* \"#utility.yul\":803:804   */\n          0x00\n            /* \"#utility.yul\":800:801   */\n          dup1\n            /* \"#utility.yul\":793:805   */\n          revert\n            /* \"#utility.yul\":817:934   */\n        tag_18:\n            /* \"#utility.yul\":926:927   */\n          0x00\n            /* \"#utility.yul\":923:924   */\n          dup1\n            /* \"#utility.yul\":916:928   */\n          revert\n            /* \"#utility.yul\":940:1042   */\n        tag_19:\n            /* \"#utility.yul\":981:987   */\n          0x00\n            /* \"#utility.yul\":1032:1034   */\n          0x1f\n            /* \"#utility.yul\":1028:1035   */\n          not\n            /* \"#utility.yul\":1023:1025   */\n          0x1f\n            /* \"#utility.yul\":1016:1021   */\n          dup4\n            /* \"#utility.yul\":1012:1026   */\n          add\n            /* \"#utility.yul\":1008:1036   */\n          and\n            /* \"#utility.yul\":998:1036   */\n          swap1\n          pop\n            /* \"#utility.yul\":940:1042   */\n          swap2\n          swap1\n          pop\n          jump\t// out\n            /* \"#utility.yul\":1048:1228   */\n        tag_20:\n            /* \"#utility.yul\":1096:1173   */\n          0x4e487b7100000000000000000000000000000000000000000000000000000000\n            /* \"#utility.yul\":1093:1094   */\n          0x00\n            /* \"#utility.yul\":1086:1174   */\n          mstore\n            /* \"#utility.yul\":1193:1197   */\n          0x41\n            /* \"#utility.yul\":1190:1191   */\n          0x04\n            /* \"#utility.yul\":1183:1198   */\n          mstore\n            /* \"#utility.yul\":1217:1221   */\n          0x24\n            /* \"#utility.yul\":1214:1215   */\n          0x00\n            /* \"#utility.yul\":1207:1222   */\n          revert\n            /* \"#utility.yul\":1234:1515   */\n        tag_21:\n            /* \"#utility.yul\":1317:1344   */\n          tag_65\n            /* \"#utility.yul\":1339:1343   */\n          dup3\n            /* \"#utility.yul\":1317:1344   */\n          tag_19\n          jump\t// in\n        tag_65:\n            /* \"#utility.yul\":1309:1315   */\n          dup2\n            /* \"#utility.yul\":1305:1345   */\n          add\n            /* \"#utility.yul\":1447:1453   */\n          dup2\n            /* \"#utility.yul\":1435:1445   */\n          dup2\n            /* \"#utility.yul\":1432:1454   */\n          lt\n            /* \"#utility.yul\":1411:1429   */\n          0xffffffffffffffff\n            /* \"#utility.yul\":1399:1409   */\n          dup3\n            /* \"#utility.yul\":1396:1430   */\n          gt\n            /* \"#utility.yul\":1393:1455   */\n          or\n            /* \"#utility.yul\":1390:1478   */\n          iszero\n          tag_66\n          jumpi\n            /* \"#utility.yul\":1458:1476   */\n          tag_67\n          tag_20\n          jump\t// in\n        tag_67:\n            /* \"#utility.yul\":1390:1478   */\n        tag_66:\n            /* \"#utility.yul\":1498:1508   */\n          dup1\n            /* \"#utility.yul\":1494:1496   */\n          0x40\n            /* \"#utility.yul\":1487:1509   */\n          mstore\n            /* \"#utility.yul\":1277:1515   */\n          pop\n            /* \"#utility.yul\":1234:1515   */\n          pop\n          pop\n          jump\t// out\n            /* \"#utility.yul\":1521:1650   */\n        tag_22:\n            /* \"#utility.yul\":1555:1561   */\n          0x00\n            /* \"#utility.yul\":1582:1602   */\n          tag_69\n          tag_11\n          jump\t// in\n        tag_69:\n            /* \"#utility.yul\":1572:1602   */\n          swap1\n          pop\n            /* \"#utility.yul\":1611:1644   */\n          tag_70\n            /* \"#utility.yul\":1639:1643   */\n          dup3\n            /* \"#utility.yul\":1631:1637   */\n          dup3\n            /* \"#utility.yul\":1611:1644   */\n          tag_21\n          jump\t// in\n        tag_70:\n            /* \"#utility.yul\":1521:1650   */\n          swap2\n          swap1\n          pop\n          jump\t// out\n            /* \"#utility.yul\":1656:1964   */\n        tag_23:\n            /* \"#utility.yul\":1718:1722   */\n          0x00\n            /* \"#utility.yul\":1808:1826   */\n          0xffffffffffffffff\n            /* \"#utility.yul\":1800:1806   */\n          dup3\n            /* \"#utility.yul\":1797:1827   */\n          gt\n            /* \"#utility.yul\":1794:1850   */\n          iszero\n          tag_72\n          jumpi\n            /* \"#utility.yul\":1830:1848   */\n          tag_73\n          tag_20\n          jump\t// in\n        tag_73:\n            /* \"#utility.yul\":1794:1850   */\n        tag_72:\n            /* \"#utility.yul\":1868:1897   */\n          tag_74\n            /* \"#utility.yul\":1890:1896   */\n          dup3\n            /* \"#utility.yul\":1868:1897   */\n          tag_19\n          jump\t// in\n        tag_74:\n            /* \"#utility.yul\":1860:1897   */\n          swap1\n          pop\n            /* \"#utility.yul\":1952:1956   */\n          0x20\n            /* \"#utility.yul\":1946:1950   */\n          dup2\n            /* \"#utility.yul\":1942:1957   */\n          add\n            /* \"#utility.yul\":1934:1957   */\n          swap1\n          pop\n            /* \"#utility.yul\":1656:1964   */\n          swap2\n          swap1\n          pop\n          jump\t// out\n            /* \"#utility.yul\":1970:2216   */\n        tag_24:\n            /* \"#utility.yul\":2051:2052   */\n          0x00\n            /* \"#utility.yul\":2061:2174   */\n        tag_76:\n            /* \"#utility.yul\":2075:2081   */\n          dup4\n            /* \"#utility.yul\":2072:2073   */\n          dup2\n            /* \"#utility.yul\":2069:2082   */\n          lt\n            /* \"#utility.yul\":2061:2174   */\n          iszero\n          tag_78\n          jumpi\n            /* \"#utility.yul\":2160:2161   */\n          dup1\n            /* \"#utility.yul\":2155:2158   */\n          dup3\n            /* \"#utility.yul\":2151:2162   */\n          add\n            /* \"#utility.yul\":2145:2163   */\n          mload\n            /* \"#utility.yul\":2141:2142   */\n          dup2\n            /* \"#utility.yul\":2136:2139   */\n          dup5\n            /* \"#utility.yul\":2132:2143   */\n          add\n            /* \"#utility.yul\":2125:2164   */\n          mstore\n            /* \"#utility.yul\":2097:2099   */\n          0x20\n            /* \"#utility.yul\":2094:2095   */\n          dup2\n            /* \"#utility.yul\":2090:2100   */\n          add\n            /* \"#utility.yul\":2085:2100   */\n          swap1\n          pop\n            /* \"#utility.yul\":2061:2174   */\n          jump(tag_76)\n        tag_78:\n            /* \"#utility.yul\":2208:2209   */\n          0x00\n            /* \"#utility.yul\":2199:2205   */\n          dup5\n            /* \"#utility.yul\":2194:2197   */\n          dup5\n            /* \"#utility.yul\":2190:2206   */\n          add\n            /* \"#utility.yul\":2183:2210   */\n          mstore\n            /* \"#utility.yul\":2032:2216   */\n          pop\n            /* \"#utility.yul\":1970:2216   */\n          pop\n          pop\n          pop\n          jump\t// out\n            /* \"#utility.yul\":2222:2656   */\n        tag_25:\n            /* \"#utility.yul\":2311:2316   */\n          0x00\n            /* \"#utility.yul\":2336:2402   */\n          tag_80\n            /* \"#utility.yul\":2352:2401   */\n          tag_81\n            /* \"#utility.yul\":2394:2400   */\n          dup5\n            /* \"#utility.yul\":2352:2401   */\n          tag_23\n          jump\t// in\n        tag_81:\n            /* \"#utility.yul\":2336:2402   */\n          tag_22\n          jump\t// in\n        tag_80:\n            /* \"#utility.yul\":2327:2402   */\n          swap1\n          pop\n            /* \"#utility.yul\":2425:2431   */\n          dup3\n            /* \"#utility.yul\":2418:2423   */\n          dup2\n            /* \"#utility.yul\":2411:2432   */\n          mstore\n            /* \"#utility.yul\":2463:2467   */\n          0x20\n            /* \"#utility.yul\":2456:2461   */\n          dup2\n            /* \"#utility.yul\":2452:2468   */\n          add\n            /* \"#utility.yul\":2501:2504   */\n          dup5\n            /* \"#utility.yul\":2492:2498   */\n          dup5\n            /* \"#utility.yul\":2487:2490   */\n          dup5\n            /* \"#utility.yul\":2483:2499   */\n          add\n            /* \"#utility.yul\":2480:2505   */\n          gt\n            /* \"#utility.yul\":2477:2589   */\n          iszero\n          tag_82\n          jumpi\n            /* \"#utility.yul\":2508:2587   */\n          tag_83\n          tag_18\n          jump\t// in\n        tag_83:\n            /* \"#utility.yul\":2477:2589   */\n        tag_82:\n            /* \"#utility.yul\":2598:2650   */\n          tag_84\n            /* \"#utility.yul\":2643:2649   */\n          dup5\n            /* \"#utility.yul\":2638:2641   */\n          dup3\n            /* \"#utility.yul\":2633:2636   */\n          dup6\n            /* \"#utility.yul\":2598:2650   */\n          tag_24\n          jump\t// in\n        tag_84:\n            /* \"#utility.yul\":2317:2656   */\n          pop\n            /* \"#utility.yul\":2222:2656   */\n          swap4\n          swap3\n          pop\n          pop\n          pop\n          jump\t// out\n            /* \"#utility.yul\":2676:3031   */\n        tag_26:\n            /* \"#utility.yul\":2743:2748   */\n          0x00\n            /* \"#utility.yul\":2792:2795   */\n          dup3\n            /* \"#utility.yul\":2785:2789   */\n          0x1f\n            /* \"#utility.yul\":2777:2783   */\n          dup4\n            /* \"#utility.yul\":2773:2790   */\n          add\n            /* \"#utility.yul\":2769:2796   */\n          slt\n            /* \"#utility.yul\":2759:2881   */\n          tag_86\n          jumpi\n            /* \"#utility.yul\":2800:2879   */\n          tag_87\n          tag_17\n          jump\t// in\n        tag_87:\n            /* \"#utility.yul\":2759:2881   */\n        tag_86:\n            /* \"#utility.yul\":2910:2916   */\n          dup2\n            /* \"#utility.yul\":2904:2917   */\n          mload\n            /* \"#utility.yul\":2935:3025   */\n          tag_88\n            /* \"#utility.yul\":3021:3024   */\n          dup5\n            /* \"#utility.yul\":3013:3019   */\n          dup3\n            /* \"#utility.yul\":3006:3010   */\n          0x20\n            /* \"#utility.yul\":2998:3004   */\n          dup7\n            /* \"#utility.yul\":2994:3011   */\n          add\n            /* \"#utility.yul\":2935:3025   */\n          tag_25\n          jump\t// in\n        tag_88:\n            /* \"#utility.yul\":2926:3025   */\n          swap2\n          pop\n            /* \"#utility.yul\":2749:3031   */\n          pop\n            /* \"#utility.yul\":2676:3031   */\n          swap3\n          swap2\n          pop\n          pop\n          jump\t// out\n            /* \"#utility.yul\":3037:3163   */\n        tag_27:\n            /* \"#utility.yul\":3074:3081   */\n          0x00\n            /* \"#utility.yul\":3114:3156   */\n          0xffffffffffffffffffffffffffffffffffffffff\n            /* \"#utility.yul\":3107:3112   */\n          dup3\n            /* \"#utility.yul\":3103:3157   */\n          and\n            /* \"#utility.yul\":3092:3157   */\n          swap1\n          pop\n            /* \"#utility.yul\":3037:3163   */\n          swap2\n          swap1\n          pop\n          jump\t// out\n            /* \"#utility.yul\":3169:3273   */\n        tag_28:\n            /* \"#utility.yul\":3214:3221   */\n          0x00\n            /* \"#utility.yul\":3243:3267   */\n          tag_91\n            /* \"#utility.yul\":3261:3266   */\n          dup3\n            /* \"#utility.yul\":3243:3267   */\n          tag_27\n          jump\t// in\n        tag_91:\n            /* \"#utility.yul\":3232:3267   */\n          swap1\n          pop\n            /* \"#utility.yul\":3169:3273   */\n          swap2\n          swap1\n          pop\n          jump\t// out\n            /* \"#utility.yul\":3279:3417   */\n        tag_29:\n            /* \"#utility.yul\":3360:3392   */\n          tag_93\n            /* \"#utility.yul\":3386:3391   */\n          dup2\n            /* \"#utility.yul\":3360:3392   */\n          tag_28\n          jump\t// in\n        tag_93:\n            /* \"#utility.yul\":3353:3358   */\n          dup2\n            /* \"#utility.yul\":3350:3393   */\n          eq\n            /* \"#utility.yul\":3340:3411   */\n          tag_94\n          jumpi\n            /* \"#utility.yul\":3407:3408   */\n          0x00\n            /* \"#utility.yul\":3404:3405   */\n          dup1\n            /* \"#utility.yul\":3397:3409   */\n          revert\n            /* \"#utility.yul\":3340:3411   */\n        tag_94:\n            /* \"#utility.yul\":3279:3417   */\n          pop\n          jump\t// out\n            /* \"#utility.yul\":3423:3582   */\n        tag_30:\n            /* \"#utility.yul\":3488:3493   */\n          0x00\n            /* \"#utility.yul\":3519:3525   */\n          dup2\n            /* \"#utility.yul\":3513:3526   */\n          mload\n            /* \"#utility.yul\":3504:3526   */\n          swap1\n          pop\n            /* \"#utility.yul\":3535:3576   */\n          tag_96\n            /* \"#utility.yul\":3570:3575   */\n          dup2\n            /* \"#utility.yul\":3535:3576   */\n          tag_29\n          jump\t// in\n        tag_96:\n            /* \"#utility.yul\":3423:3582   */\n          swap3\n          swap2\n          pop\n          pop\n          jump\t// out\n            /* \"#utility.yul\":3588:4440   */\n        tag_3:\n            /* \"#utility.yul\":3694:3700   */\n          0x00\n            /* \"#utility.yul\":3702:3708   */\n          dup1\n            /* \"#utility.yul\":3710:3716   */\n          0x00\n            /* \"#utility.yul\":3759:3761   */\n          0x60\n            /* \"#utility.yul\":3747:3756   */\n          dup5\n            /* \"#utility.yul\":3738:3745   */\n          dup7\n            /* \"#utility.yul\":3734:3757   */\n          sub\n            /* \"#utility.yul\":3730:3762   */\n          slt\n            /* \"#utility.yul\":3727:3846   */\n          iszero\n          tag_98\n          jumpi\n            /* \"#utility.yul\":3765:3844   */\n          tag_99\n          tag_12\n          jump\t// in\n        tag_99:\n            /* \"#utility.yul\":3727:3846   */\n        tag_98:\n            /* \"#utility.yul\":3885:3886   */\n          0x00\n            /* \"#utility.yul\":3910:3974   */\n          tag_100\n            /* \"#utility.yul\":3966:3973   */\n          dup7\n            /* \"#utility.yul\":3957:3963   */\n          dup3\n            /* \"#utility.yul\":3946:3955   */\n          dup8\n            /* \"#utility.yul\":3942:3964   */\n          add\n            /* \"#utility.yul\":3910:3974   */\n          tag_16\n          jump\t// in\n        tag_100:\n            /* \"#utility.yul\":3900:3974   */\n          swap4\n          pop\n            /* \"#utility.yul\":3856:3984   */\n          pop\n            /* \"#utility.yul\":4044:4046   */\n          0x20\n            /* \"#utility.yul\":4033:4042   */\n          dup5\n            /* \"#utility.yul\":4029:4047   */\n          add\n            /* \"#utility.yul\":4023:4048   */\n          mload\n            /* \"#utility.yul\":4075:4093   */\n          0xffffffffffffffff\n            /* \"#utility.yul\":4067:4073   */\n          dup2\n            /* \"#utility.yul\":4064:4094   */\n          gt\n            /* \"#utility.yul\":4061:4178   */\n          iszero\n          tag_101\n          jumpi\n            /* \"#utility.yul\":4097:4176   */\n          tag_102\n          tag_13\n          jump\t// in\n        tag_102:\n            /* \"#utility.yul\":4061:4178   */\n        tag_101:\n            /* \"#utility.yul\":4202:4276   */\n          tag_103\n            /* \"#utility.yul\":4268:4275   */\n          dup7\n            /* \"#utility.yul\":4259:4265   */\n          dup3\n            /* \"#utility.yul\":4248:4257   */\n          dup8\n            /* \"#utility.yul\":4244:4266   */\n          add\n            /* \"#utility.yul\":4202:4276   */\n          tag_26\n          jump\t// in\n        tag_103:\n            /* \"#utility.yul\":4192:4276   */\n          swap3\n          pop\n            /* \"#utility.yul\":3994:4286   */\n          pop\n            /* \"#utility.yul\":4325:4327   */\n          0x40\n            /* \"#utility.yul\":4351:4423   */\n          tag_104\n            /* \"#utility.yul\":4415:4422   */\n          dup7\n            /* \"#utility.yul\":4406:4412   */\n          dup3\n            /* \"#utility.yul\":4395:4404   */\n          dup8\n            /* \"#utility.yul\":4391:4413   */\n          add\n            /* \"#utility.yul\":4351:4423   */\n          tag_30\n          jump\t// in\n        tag_104:\n            /* \"#utility.yul\":4341:4423   */\n          swap2\n          pop\n            /* \"#utility.yul\":4296:4433   */\n          pop\n            /* \"#utility.yul\":3588:4440   */\n          swap3\n          pop\n          swap3\n          pop\n          swap3\n          jump\t// out\n            /* \"#utility.yul\":4446:4545   */\n        tag_31:\n            /* \"#utility.yul\":4498:4504   */\n          0x00\n            /* \"#utility.yul\":4532:4537   */\n          dup2\n            /* \"#utility.yul\":4526:4538   */\n          mload\n            /* \"#utility.yul\":4516:4538   */\n          swap1\n          pop\n            /* \"#utility.yul\":4446:4545   */\n          swap2\n          swap1\n          pop\n          jump\t// out\n            /* \"#utility.yul\":4551:4731   */\n        tag_32:\n            /* \"#utility.yul\":4599:4676   */\n          0x4e487b7100000000000000000000000000000000000000000000000000000000\n            /* \"#utility.yul\":4596:4597   */\n          0x00\n            /* \"#utility.yul\":4589:4677   */\n          mstore\n            /* \"#utility.yul\":4696:4700   */\n          0x22\n            /* \"#utility.yul\":4693:4694   */\n          0x04\n            /* \"#utility.yul\":4686:4701   */\n          mstore\n            /* \"#utility.yul\":4720:4724   */\n          0x24\n            /* \"#utility.yul\":4717:4718   */\n          0x00\n            /* \"#utility.yul\":4710:4725   */\n          revert\n            /* \"#utility.yul\":4737:5057   */\n        tag_33:\n            /* \"#utility.yul\":4781:4787   */\n          0x00\n            /* \"#utility.yul\":4818:4819   */\n          0x02\n            /* \"#utility.yul\":4812:4816   */\n          dup3\n            /* \"#utility.yul\":4808:4820   */\n          div\n            /* \"#utility.yul\":4798:4820   */\n          swap1\n          pop\n            /* \"#utility.yul\":4865:4866   */\n          0x01\n            /* \"#utility.yul\":4859:4863   */\n          dup3\n            /* \"#utility.yul\":4855:4867   */\n          and\n            /* \"#utility.yul\":4886:4904   */\n          dup1\n            /* \"#utility.yul\":4876:4957   */\n          tag_108\n          jumpi\n            /* \"#utility.yul\":4942:4946   */\n          0x7f\n            /* \"#utility.yul\":4934:4940   */\n          dup3\n            /* \"#utility.yul\":4930:4947   */\n          and\n            /* \"#utility.yul\":4920:4947   */\n          swap2\n          pop\n            /* \"#utility.yul\":4876:4957   */\n        tag_108:\n            /* \"#utility.yul\":5004:5006   */\n          0x20\n            /* \"#utility.yul\":4996:5002   */\n          dup3\n            /* \"#utility.yul\":4993:5007   */\n          lt\n            /* \"#utility.yul\":4973:4991   */\n          dup2\n            /* \"#utility.yul\":4970:5008   */\n          sub\n            /* \"#utility.yul\":4967:5051   */\n          tag_109\n          jumpi\n            /* \"#utility.yul\":5023:5041   */\n          tag_110\n          tag_32\n          jump\t// in\n        tag_110:\n            /* \"#utility.yul\":4967:5051   */\n        tag_109:\n            /* \"#utility.yul\":4788:5057   */\n          pop\n            /* \"#utility.yul\":4737:5057   */\n          swap2\n          swap1\n          pop\n          jump\t// out\n            /* \"#utility.yul\":5063:5204   */\n        tag_34:\n            /* \"#utility.yul\":5112:5116   */\n          0x00\n            /* \"#utility.yul\":5135:5138   */\n          dup2\n            /* \"#utility.yul\":5127:5138   */\n          swap1\n          pop\n            /* \"#utility.yul\":5158:5161   */\n          dup2\n            /* \"#utility.yul\":5155:5156   */\n          0x00\n            /* \"#utility.yul\":5148:5162   */\n          mstore\n            /* \"#utility.yul\":5192:5196   */\n          0x20\n            /* \"#utility.yul\":5189:5190   */\n          0x00\n            /* \"#utility.yul\":5179:5197   */\n          keccak256\n            /* \"#utility.yul\":5171:5197   */\n          swap1\n          pop\n            /* \"#utility.yul\":5063:5204   */\n          swap2\n          swap1\n          pop\n          jump\t// out\n            /* \"#utility.yul\":5210:5303   */\n        tag_35:\n            /* \"#utility.yul\":5247:5253   */\n          0x00\n            /* \"#utility.yul\":5294:5296   */\n          0x20\n            /* \"#utility.yul\":5289:5291   */\n          0x1f\n            /* \"#utility.yul\":5282:5287   */\n          dup4\n            /* \"#utility.yul\":5278:5292   */\n          add\n            /* \"#utility.yul\":5274:5297   */\n          div\n            /* \"#utility.yul\":5264:5297   */\n          swap1\n          pop\n            /* \"#utility.yul\":5210:5303   */\n          swap2\n          swap1\n          pop\n          jump\t// out\n            /* \"#utility.yul\":5309:5416   */\n        tag_36:\n            /* \"#utility.yul\":5353:5361   */\n          0x00\n            /* \"#utility.yul\":5403:5408   */\n          dup3\n            /* \"#utility.yul\":5397:5401   */\n          dup3\n            /* \"#utility.yul\":5393:5409   */\n          shl\n            /* \"#utility.yul\":5372:5409   */\n          swap1\n          pop\n            /* \"#utility.yul\":5309:5416   */\n          swap3\n          swap2\n          pop\n          pop\n          jump\t// out\n            /* \"#utility.yul\":5422:5815   */\n        tag_37:\n            /* \"#utility.yul\":5491:5497   */\n          0x00\n            /* \"#utility.yul\":5541:5542   */\n          0x08\n            /* \"#utility.yul\":5529:5539   */\n          dup4\n            /* \"#utility.yul\":5525:5543   */\n          mul\n            /* \"#utility.yul\":5564:5661   */\n          tag_115\n            /* \"#utility.yul\":5594:5660   */\n          0xffffffffffffffffffffffffffffffffffffffffffffffffffffffffffffffff\n            /* \"#utility.yul\":5583:5592   */\n          dup3\n            /* \"#utility.yul\":5564:5661   */\n          tag_36\n          jump\t// in\n        tag_115:\n            /* \"#utility.yul\":5682:5721   */\n          tag_116\n            /* \"#utility.yul\":5712:5720   */\n          dup7\n            /* \"#utility.yul\":5701:5710   */\n          dup4\n            /* \"#utility.yul\":5682:5721   */\n          tag_36\n          jump\t// in\n        tag_116:\n            /* \"#utility.yul\":5670:5721   */\n          swap6\n          pop\n            /* \"#utility.yul\":5754:5758   */\n          dup1\n            /* \"#utility.yul\":5750:5759   */\n          not\n            /* \"#utility.yul\":5743:5748   */\n          dup5\n            /* \"#utility.yul\":5739:5760   */\n          and\n            /* \"#utility.yul\":5730:5760   */\n          swap4\n          pop\n            /* \"#utility.yul\":5803:5807   */\n          dup1\n            /* \"#utility.yul\":5793:5801   */\n          dup7\n            /* \"#utility.yul\":5789:5808   */\n          and\n            /* \"#utility.yul\":5782:5787   */\n          dup5\n            /* \"#utility.yul\":5779:5809   */\n          or\n            /* \"#utility.yul\":5769:5809   */\n          swap3\n          pop\n            /* \"#utility.yul\":5498:5815   */\n          pop\n          pop\n            /* \"#utility.yul\":5422:5815   */\n          swap4\n          swap3\n          pop\n          pop\n          pop\n          jump\t// out\n            /* \"#utility.yul\":5821:5881   */\n        tag_38:\n            /* \"#utility.yul\":5849:5852   */\n          0x00\n            /* \"#utility.yul\":5870:5875   */\n          dup2\n            /* \"#utility.yul\":5863:5875   */\n          swap1\n          pop\n            /* \"#utility.yul\":5821:5881   */\n          swap2\n          swap1\n          pop\n          jump\t// out\n            /* \"#utility.yul\":5887:6029   */\n        tag_39:\n            /* \"#utility.yul\":5937:5946   */\n          0x00\n            /* \"#utility.yul\":5970:6023   */\n          tag_119\n            /* \"#utility.yul\":5988:6022   */\n          tag_120\n            /* \"#utility.yul\":5997:6021   */\n          tag_121\n            /* \"#utility.yul\":6015:6020   */\n          dup5\n            /* \"#utility.yul\":5997:6021   */\n          tag_14\n          jump\t// in\n        tag_121:\n            /* \"#utility.yul\":5988:6022   */\n          tag_38\n          jump\t// in\n        tag_120:\n            /* \"#utility.yul\":5970:6023   */\n          tag_14\n          jump\t// in\n        tag_119:\n            /* \"#utility.yul\":5957:6023   */\n          swap1\n          pop\n            /* \"#utility.yul\":5887:6029   */\n          swap2\n          swap1\n          pop\n          jump\t// out\n            /* \"#utility.yul\":6035:6110   */\n        tag_40:\n            /* \"#utility.yul\":6078:6081   */\n          0x00\n            /* \"#utility.yul\":6099:6104   */\n          dup2\n            /* \"#utility.yul\":6092:6104   */\n          swap1\n          pop\n            /* \"#utility.yul\":6035:6110   */\n          swap2\n          swap1\n          pop\n          jump\t// out\n            /* \"#utility.yul\":6116:6385   */\n        tag_41:\n            /* \"#utility.yul\":6226:6265   */\n          tag_124\n            /* \"#utility.yul\":6257:6264   */\n          dup4\n            /* \"#utility.yul\":6226:6265   */\n          tag_39\n          jump\t// in\n        tag_124:\n            /* \"#utility.yul\":6287:6378   */\n          tag_125\n            /* \"#utility.yul\":6336:6377   */\n          tag_126\n            /* \"#utility.yul\":6360:6376   */\n          dup3\n            /* \"#utility.yul\":6336:6377   */\n          tag_40\n          jump\t// in\n        tag_126:\n            /* \"#utility.yul\":6328:6334   */\n          dup5\n            /* \"#utility.yul\":6321:6325   */\n          dup5\n            /* \"#utility.yul\":6315:6326   */\n          sload\n            /* \"#utility.yul\":6287:6378   */\n          tag_37\n          jump\t// in\n        tag_125:\n            /* \"#utility.yul\":6281:6285   */\n          dup3\n            /* \"#utility.yul\":6274:6379   */\n          sstore\n            /* \"#utility.yul\":6192:6385   */\n          pop\n            /* \"#utility.yul\":6116:6385   */\n          pop\n          pop\n          pop\n          jump\t// out\n            /* \"#utility.yul\":6391:6464   */\n        tag_42:\n            /* \"#utility.yul\":6436:6439   */\n          0x00\n            /* \"#utility.yul\":6391:6464   */\n          swap1\n          jump\t// out\n            /* \"#utility.yul\":6470:6659   */\n        tag_43:\n            /* \"#utility.yul\":6547:6579   */\n          tag_129\n          tag_42\n          jump\t// in\n        tag_129:\n            /* \"#utility.yul\":6588:6653   */\n          tag_130\n            /* \"#utility.yul\":6646:6652   */\n          dup2\n            /* \"#utility.yul\":6638:6644   */\n          dup5\n            /* \"#utility.yul\":6632:6636   */\n          dup5\n            /* \"#utility.yul\":6588:6653   */\n          tag_41\n          jump\t// in\n        tag_130:\n            /* \"#utility.yul\":6523:6659   */\n          pop\n            /* \"#utility.yul\":6470:6659   */\n          pop\n          pop\n          jump\t// out\n            /* \"#utility.yul\":6665:6851   */\n        tag_44:\n            /* \"#utility.yul\":6725:6845   */\n        tag_132:\n            /* \"#utility.yul\":6742:6745   */\n          dup2\n            /* \"#utility.yul\":6735:6740   */\n          dup2\n            /* \"#utility.yul\":6732:6746   */\n          lt\n            /* \"#utility.yul\":6725:6845   */\n          iszero\n          tag_134\n          jumpi\n            /* \"#utility.yul\":6796:6835   */\n          tag_135\n            /* \"#utility.yul\":6833:6834   */\n          0x00\n            /* \"#utility.yul\":6826:6831   */\n          dup3\n            /* \"#utility.yul\":6796:6835   */\n          tag_43\n          jump\t// in\n        tag_135:\n            /* \"#utility.yul\":6769:6770   */\n          0x01\n            /* \"#utility.yul\":6762:6767   */\n          dup2\n            /* \"#utility.yul\":6758:6771   */\n          add\n            /* \"#utility.yul\":6749:6771   */\n          swap1\n          pop\n            /* \"#utility.yul\":6725:6845   */\n          jump(tag_132)\n        tag_134:\n            /* \"#utility.yul\":6665:6851   */\n          pop\n          pop\n          jump\t// out\n            /* \"#utility.yul\":6857:7400   */\n        tag_45:\n            /* \"#utility.yul\":6958:6960   */\n          0x1f\n            /* \"#utility.yul\":6953:6956   */\n          dup3\n            /* \"#utility.yul\":6950:6961   */\n          gt\n            /* \"#utility.yul\":6947:7393   */\n          iszero\n          tag_137\n          jumpi\n            /* \"#utility.yul\":6992:7030   */\n          tag_138\n            /* \"#utility.yul\":7024:7029   */\n          dup2\n            /* \"#utility.yul\":6992:7030   */\n          tag_34\n          jump\t// in\n        tag_138:\n            /* \"#utility.yul\":7076:7105   */\n          tag_139\n            /* \"#utility.yul\":7094:7104   */\n          dup5\n            /* \"#utility.yul\":7076:7105   */\n          tag_35\n          jump\t// in\n        tag_139:\n            /* \"#utility.yul\":7066:7074   */\n          dup2\n            /* \"#utility.yul\":7062:7106   */\n          add\n            /* \"#utility.yul\":7259:7261   */\n          0x20\n            /* \"#utility.yul\":7247:7257   */\n          dup6\n            /* \"#utility.yul\":7244:7262   */\n          lt\n            /* \"#utility.yul\":7241:7290   */\n          iszero\n          tag_140\n          jumpi\n            /* \"#utility.yul\":7280:7288   */\n          dup2\n            /* \"#utility.yul\":7265:7288   */\n          swap1\n          pop\n            /* \"#utility.yul\":7241:7290   */\n        tag_140:\n            /* \"#utility.yul\":7303:7383   */\n          tag_141\n            /* \"#utility.yul\":7359:7381   */\n          tag_142\n            /* \"#utility.yul\":7377:7380   */\n          dup6\n            /* \"#utility.yul\":7359:7381   */\n          tag_35\n          jump\t// in\n        tag_142:\n            /* \"#utility.yul\":7349:7357   */\n          dup4\n            /* \"#utility.yul\":7345:7382   */\n          add\n            /* \"#utility.yul\":7332:7343   */\n          dup3\n            /* \"#utility.yul\":7303:7383   */\n          tag_44\n          jump\t// in\n        tag_141:\n            /* \"#utility.yul\":6962:7393   */\n          pop\n          pop\n            /* \"#utility.yul\":6947:7393   */\n        tag_137:\n            /* \"#utility.yul\":6857:7400   */\n          pop\n          pop\n          pop\n          jump\t// out\n            /* \"#utility.yul\":7406:7523   */\n        tag_46:\n            /* \"#utility.yul\":7460:7468   */\n          0x00\n            /* \"#utility.yul\":7510:7515   */\n          dup3\n            /* \"#utility.yul\":7504:7508   */\n          dup3\n            /* \"#utility.yul\":7500:7516   */\n          shr\n            /* \"#utility.yul\":7479:7516   */\n          swap1\n          pop\n            /* \"#utility.yul\":7406:7523   */\n          swap3\n          swap2\n          pop\n          pop\n          jump\t// out\n            /* \"#utility.yul\":7529:7698   */\n        tag_47:\n            /* \"#utility.yul\":7573:7579   */\n          0x00\n            /* \"#utility.yul\":7606:7657   */\n          tag_145\n            /* \"#utility.yul\":7654:7655   */\n          0x00\n            /* \"#utility.yul\":7650:7656   */\n          not\n            /* \"#utility.yul\":7642:7647   */\n          dup5\n            /* \"#utility.yul\":7639:7640   */\n          0x08\n            /* \"#utility.yul\":7635:7648   */\n          mul\n            /* \"#utility.yul\":7606:7657   */\n          tag_46\n          jump\t// in\n        tag_145:\n            /* \"#utility.yul\":7602:7658   */\n          not\n            /* \"#utility.yul\":7687:7691   */\n          dup1\n            /* \"#utility.yul\":7681:7685   */\n          dup4\n            /* \"#utility.yul\":7677:7692   */\n          and\n            /* \"#utility.yul\":7667:7692   */\n          swap2\n          pop\n            /* \"#utility.yul\":7580:7698   */\n          pop\n            /* \"#utility.yul\":7529:7698   */\n          swap3\n          swap2\n          pop\n          pop\n          jump\t// out\n            /* \"#utility.yul\":7703:7998   */\n        tag_48:\n            /* \"#utility.yul\":7779:7783   */\n          0x00\n            /* \"#utility.yul\":7925:7954   */\n          tag_147\n            /* \"#utility.yul\":7950:7953   */\n          dup4\n            /* \"#utility.yul\":7944:7948   */\n          dup4\n            /* \"#utility.yul\":7925:7954   */\n          tag_47\n          jump\t// in\n        tag_147:\n            /* \"#utility.yul\":7917:7954   */\n          swap2\n          pop\n            /* \"#utility.yul\":7987:7990   */\n          dup3\n            /* \"#utility.yul\":7984:7985   */\n          0x02\n            /* \"#utility.yul\":7980:7991   */\n          mul\n            /* \"#utility.yul\":7974:7978   */\n          dup3\n            /* \"#utility.yul\":7971:7992   */\n          or\n            /* \"#utility.yul\":7963:7992   */\n          swap1\n          pop\n            /* \"#utility.yul\":7703:7998   */\n          swap3\n          swap2\n          pop\n          pop\n          jump\t// out\n            /* \"#utility.yul\":8003:9398   */\n        tag_7:\n            /* \"#utility.yul\":8120:8157   */\n          tag_149\n            /* \"#utility.yul\":8153:8156   */\n          dup3\n            /* \"#utility.yul\":8120:8157   */\n          tag_31\n          jump\t// in\n        tag_149:\n            /* \"#utility.yul\":8222:8240   */\n          0xffffffffffffffff\n            /* \"#utility.yul\":8214:8220   */\n          dup2\n            /* \"#utility.yul\":8211:8241   */\n          gt\n            /* \"#utility.yul\":8208:8264   */\n          iszero\n          tag_150\n          jumpi\n            /* \"#utility.yul\":8244:8262   */\n          tag_151\n          tag_20\n          jump\t// in\n        tag_151:\n            /* \"#utility.yul\":8208:8264   */\n        tag_150:\n            /* \"#utility.yul\":8288:8326   */\n          tag_152\n            /* \"#utility.yul\":8320:8324   */\n          dup3\n            /* \"#utility.yul\":8314:8325   */\n          sload\n            /* \"#utility.yul\":8288:8326   */\n          tag_33\n          jump\t// in\n        tag_152:\n            /* \"#utility.yul\":8373:8440   */\n          tag_153\n            /* \"#utility.yul\":8433:8439   */\n          dup3\n            /* \"#utility.yul\":8425:8431   */\n          dup3\n            /* \"#utility.yul\":8419:8423   */\n          dup6\n            /* \"#utility.yul\":8373:8440   */\n          tag_45\n          jump\t// in\n        tag_153:\n            /* \"#utility.yul\":8467:8468   */\n          0x00\n            /* \"#utility.yul\":8491:8495   */\n          0x20\n            /* \"#utility.yul\":8478:8495   */\n          swap1\n          pop\n            /* \"#utility.yul\":8523:8525   */\n          0x1f\n            /* \"#utility.yul\":8515:8521   */\n          dup4\n            /* \"#utility.yul\":8512:8526   */\n          gt\n            /* \"#utility.yul\":8540:8541   */\n          0x01\n            /* \"#utility.yul\":8535:9153   */\n          dup2\n          eq\n          tag_155\n          jumpi\n            /* \"#utility.yul\":9197:9198   */\n          0x00\n            /* \"#utility.yul\":9214:9220   */\n          dup5\n            /* \"#utility.yul\":9211:9288   */\n          iszero\n          tag_156\n          jumpi\n            /* \"#utility.yul\":9263:9272   */\n          dup3\n            /* \"#utility.yul\":9258:9261   */\n          dup8\n            /* \"#utility.yul\":9254:9273   */\n          add\n            /* \"#utility.yul\":9248:9274   */\n          mload\n            /* \"#utility.yul\":9239:9274   */\n          swap1\n          pop\n            /* \"#utility.yul\":9211:9288   */\n        tag_156:\n            /* \"#utility.yul\":9314:9381   */\n          tag_157\n            /* \"#utility.yul\":9374:9380   */\n          dup6\n            /* \"#utility.yul\":9367:9372   */\n          dup3\n            /* \"#utility.yul\":9314:9381   */\n          tag_48\n          jump\t// in\n        tag_157:\n            /* \"#utility.yul\":9308:9312   */\n          dup7\n            /* \"#utility.yul\":9301:9382   */\n          sstore\n            /* \"#utility.yul\":9170:9392   */\n          pop\n            /* \"#utility.yul\":8505:9392   */\n          jump(tag_154)\n            /* \"#utility.yul\":8535:9153   */\n        tag_155:\n            /* \"#utility.yul\":8587:8591   */\n          0x1f\n            /* \"#utility.yul\":8583:8592   */\n          not\n            /* \"#utility.yul\":8575:8581   */\n          dup5\n            /* \"#utility.yul\":8571:8593   */\n          and\n            /* \"#utility.yul\":8621:8658   */\n          tag_158\n            /* \"#utility.yul\":8653:8657   */\n          dup7\n            /* \"#utility.yul\":8621:8658   */\n          tag_34\n          jump\t// in\n        tag_158:\n            /* \"#utility.yul\":8680:8681   */\n          0x00\n            /* \"#utility.yul\":8694:8902   */\n        tag_159:\n            /* \"#utility.yul\":8708:8715   */\n          dup3\n            /* \"#utility.yul\":8705:8706   */\n          dup2\n            /* \"#utility.yul\":8702:8716   */\n          lt\n            /* \"#utility.yul\":8694:8902   */\n          iszero\n          tag_161\n          jumpi\n            /* \"#utility.yul\":8787:8796   */\n          dup5\n            /* \"#utility.yul\":8782:8785   */\n          dup10\n            /* \"#utility.yul\":8778:8797   */\n          add\n            /* \"#utility.yul\":8772:8798   */\n          mload\n            /* \"#utility.yul\":8764:8770   */\n          dup3\n            /* \"#utility.yul\":8757:8799   */\n          sstore\n            /* \"#utility.yul\":8838:8839   */\n          0x01\n            /* \"#utility.yul\":8830:8836   */\n          dup3\n            /* \"#utility.yul\":8826:8840   */\n          add\n            /* \"#utility.yul\":8816:8840   */\n          swap2\n          pop\n            /* \"#utility.yul\":8885:8887   */\n          0x20\n            /* \"#utility.yul\":8874:8883   */\n          dup6\n            /* \"#utility.yul\":8870:8888   */\n          add\n            /* \"#utility.yul\":8857:8888   */\n          swap5\n          pop\n            /* \"#utility.yul\":8731:8735   */\n          0x20\n            /* \"#utility.yul\":8728:8729   */\n          dup2\n            /* \"#utility.yul\":8724:8736   */\n          add\n            /* \"#utility.yul\":8719:8736   */\n          swap1\n          pop\n            /* \"#utility.yul\":8694:8902   */\n          jump(tag_159)\n        tag_161:\n            /* \"#utility.yul\":8930:8936   */\n          dup7\n            /* \"#utility.yul\":8921:8928   */\n          dup4\n            /* \"#utility.yul\":8918:8937   */\n          lt\n            /* \"#utility.yul\":8915:9094   */\n          iszero\n          tag_162\n          jumpi\n            /* \"#utility.yul\":8988:8997   */\n          dup5\n            /* \"#utility.yul\":8983:8986   */\n          dup10\n            /* \"#utility.yul\":8979:8998   */\n          add\n            /* \"#utility.yul\":8973:8999   */\n          mload\n            /* \"#utility.yul\":9031:9079   */\n          tag_163\n            /* \"#utility.yul\":9073:9077   */\n          0x1f\n            /* \"#utility.yul\":9065:9071   */\n          dup10\n            /* \"#utility.yul\":9061:9078   */\n          and\n            /* \"#utility.yul\":9050:9059   */\n          dup3\n            /* \"#utility.yul\":9031:9079   */\n          tag_47\n          jump\t// in\n        tag_163:\n            /* \"#utility.yul\":9023:9029   */\n          dup4\n            /* \"#utility.yul\":9016:9080   */\n          sstore\n            /* \"#utility.yul\":8938:9094   */\n          pop\n            /* \"#utility.yul\":8915:9094   */\n        tag_162:\n            /* \"#utility.yul\":9140:9141   */\n          0x01\n            /* \"#utility.yul\":9136:9137   */\n          0x02\n            /* \"#utility.yul\":9128:9134   */\n          dup9\n            /* \"#utility.yul\":9124:9138   */\n          mul\n            /* \"#utility.yul\":9120:9142   */\n          add\n            /* \"#utility.yul\":9114:9118   */\n          dup9\n            /* \"#utility.yul\":9107:9143   */\n          sstore\n            /* \"#utility.yul\":8542:9153   */\n          pop\n          pop\n          pop\n            /* \"#utility.yul\":8505:9392   */\n        tag_154:\n          pop\n            /* \"#utility.yul\":8095:9398   */\n          pop\n          pop\n          pop\n            /* \"#utility.yul\":8003:9398   */\n          pop\n          pop\n          jump\t// out\n            /* \"#utility.yul\":9404:9584   */\n        tag_49:\n            /* \"#utility.yul\":9452:9529   */\n          0x4e487b7100000000000000000000000000000000000000000000000000000000\n            /* \"#utility.yul\":9449:9450   */\n          0x00\n            /* \"#utility.yul\":9442:9530   */\n          mstore\n            /* \"#utility.yul\":9549:9553   */\n          0x11\n            /* \"#utility.yul\":9546:9547   */\n          0x04\n            /* \"#utility.yul\":9539:9554   */\n          mstore\n            /* \"#utility.yul\":9573:9577   */\n          0x24\n            /* \"#utility.yul\":9570:9571   */\n          0x00\n            /* \"#utility.yul\":9563:9578   */\n          revert\n            /* \"#utility.yul\":9590:9781   */\n        tag_9:\n            /* \"#utility.yul\":9630:9633   */\n          0x00\n            /* \"#utility.yul\":9649:9669   */\n          tag_166\n            /* \"#utility.yul\":9667:9668   */\n          dup3\n            /* \"#utility.yul\":9649:9669   */\n          tag_14\n          jump\t// in\n        tag_166:\n            /* \"#utility.yul\":9644:9669   */\n          swap2\n          pop\n            /* \"#utility.yul\":9683:9703   */\n          tag_167\n            /* \"#utility.yul\":9701:9702   */\n          dup4\n            /* \"#utility.yul\":9683:9703   */\n          tag_14\n          jump\t// in\n        tag_167:\n            /* \"#utility.yul\":9678:9703   */\n          swap3\n          pop\n            /* \"#utility.yul\":9726:9727   */\n          dup3\n            /* \"#utility.yul\":9723:9724   */\n          dup3\n            /* \"#utility.yul\":9719:9728   */\n          add\n            /* \"#utility.yul\":9712:9728   */\n          swap1\n          pop\n            /* \"#utility.yul\":9747:9750   */\n          dup1\n            /* \"#utility.yul\":9744:9745   */\n          dup3\n            /* \"#utility.yul\":9741:9751   */\n          gt\n            /* \"#utility.yul\":9738:9774   */\n          iszero\n          tag_168\n          jumpi\n            /* \"#utility.yul\":9754:9772   */\n          tag_169\n          tag_49\n          jump\t// in\n        tag_169:\n            /* \"#utility.yul\":9738:9774   */\n        tag_168:\n            /* \"#utility.yul\":9590:9781   */\n          swap3\n          swap2\n          pop\n          pop\n          jump\t// out\n            /* \"Auction.sol\":66:5212  contract Auction {... */\n        tag_10:\n          dataSize(sub_0)\n          dup1\n          dataOffset(sub_0)\n          0x00\n          codecopy\n          0x00\n          return\n        stop\n\n        sub_0: assembly {\n                /* \"Auction.sol\":66:5212  contract Auction {... */\n              mstore(0x40, 0x80)\n              jumpi(tag_1, lt(calldatasize, 0x04))\n              shr(0xe0, calldataload(0x00))\n              dup1\n              0x4b449cba\n              gt\n              tag_12\n              jumpi\n              dup1\n              0x4b449cba\n              eq\n              tag_7\n              jumpi\n              dup1\n              0x91f90157\n              eq\n              tag_8\n              jumpi\n              dup1\n              0xa0484dda\n              eq\n              tag_9\n              jumpi\n              dup1\n              0xc63d99db\n              eq\n              tag_10\n              jumpi\n              dup1\n              0xd57bde79\n              eq\n              tag_11\n              jumpi\n              jump(tag_1)\n            tag_12:\n              dup1\n              0x1998aeef\n              eq\n              tag_2\n              jumpi\n              dup1\n              0x26b387bb\n              eq\n              tag_3\n              jumpi\n              dup1\n              0x2a24f46c\n              eq\n              tag_4\n              jumpi\n              dup1\n              0x38af3eed\n              eq\n              tag_5\n              jumpi\n              dup1\n              0x3ccfd60b\n              eq\n              tag_6\n              jumpi\n            tag_1:\n              0x00\n              dup1\n              revert\n                /* \"Auction.sol\":1915:3113  function bid() external payable {... */\n            tag_2:\n              tag_13\n              tag_14\n              jump\t// in\n            tag_13:\n              stop\n                /* \"Auction.sol\":483:532  mapping(address => uint256) public pendingReturns */\n            tag_3:\n              callvalue\n              dup1\n              iszero\n              tag_15\n              jumpi\n              0x00\n              dup1\n              revert\n            tag_15:\n              pop\n              tag_16\n              0x04\n              dup1\n              calldatasize\n              sub\n              dup2\n              add\n              swap1\n              tag_17\n              swap2\n              swap1\n              tag_18\n              jump\t// in\n            tag_17:\n              tag_19\n              jump\t// in\n            tag_16:\n              mload(0x40)\n              tag_20\n              swap2\n              swap1\n              tag_21\n              jump\t// in\n            tag_20:\n              mload(0x40)\n              dup1\n              swap2\n              sub\n              swap1\n              return\n                /* \"Auction.sol\":4141:5210  function auctionEnd() external {... */\n            tag_4:\n              callvalue\n              dup1\n              iszero\n              tag_22\n              jumpi\n              0x00\n              dup1\n              revert\n            tag_22:\n              pop\n              tag_23\n              tag_24\n              jump\t// in\n            tag_23:\n              stop\n                /* \"Auction.sol\":230:264  address payable public beneficiary */\n            tag_5:\n              callvalue\n              dup1\n              iszero\n              tag_25\n              jumpi\n              0x00\n              dup1\n              revert\n            tag_25:\n              pop\n              tag_26\n              tag_27\n              jump\t// in\n            tag_26:\n              mload(0x40)\n              tag_28\n              swap2\n              swap1\n              tag_29\n              jump\t// in\n            tag_28:\n              mload(0x40)\n              dup1\n              swap2\n              sub\n              swap1\n              return\n                /* \"Auction.sol\":3160:3969  function withdraw() external returns (bool) {... */\n            tag_6:\n              callvalue\n              dup1\n              iszero\n              tag_30\n              jumpi\n              0x00\n              dup1\n              revert\n            tag_30:\n              pop\n              tag_31\n              tag_32\n              jump\t// in\n            tag_31:\n              mload(0x40)\n              tag_33\n              swap2\n              swap1\n              tag_34\n              jump\t// in\n            tag_33:\n              mload(0x40)\n              dup1\n              swap2\n              sub\n              swap1\n              return\n                /* \"Auction.sol\":270:299  uint256 public auctionEndTime */\n            tag_7:\n              callvalue\n              dup1\n              iszero\n              tag_35\n              jumpi\n              0x00\n              dup1\n              revert\n            tag_35:\n              pop\n              tag_36\n              tag_37\n              jump\t// in\n            tag_36:\n              mload(0x40)\n              tag_38\n              swap2\n              swap1\n              tag_21\n              jump\t// in\n            tag_38:\n              mload(0x40)\n              dup1\n              swap2\n              sub\n              swap1\n              return\n                /* \"Auction.sol\":373:401  address public highestBidder */\n            tag_8:\n              callvalue\n              dup1\n              iszero\n              tag_39\n              jumpi\n              0x00\n              dup1\n              revert\n            tag_39:\n              pop\n              tag_40\n              tag_41\n              jump\t// in\n            tag_40:\n              mload(0x40)\n              tag_42\n              swap2\n              swap1\n              tag_43\n              jump\t// in\n            tag_42:\n              mload(0x40)\n              dup1\n              swap2\n              sub\n              swap1\n              return\n                /* \"Auction.sol\":3975:4058  function hasAuctionEnded() public view returns (bool) {... */\n            tag_9:\n              callvalue\n              dup1\n              iszero\n              tag_44\n              jumpi\n              0x00\n              dup1\n              revert\n            tag_44:\n              pop\n              tag_45\n              tag_46\n              jump\t// in\n            tag_45:\n              mload(0x40)\n              tag_47\n              swap2\n              swap1\n              tag_34\n              jump\t// in\n            tag_47:\n              mload(0x40)\n              dup1\n              swap2\n              sub\n              swap1\n              return\n                /* \"Auction.sol\":305:330  string public auctionName */\n            tag_10:\n              callvalue\n              dup1\n              iszero\n              tag_48\n              jumpi\n              0x00\n              dup1\n              revert\n            tag_48:\n              pop\n              tag_49\n              tag_50\n              jump\t// in\n            tag_49:\n              mload(0x40)\n              tag_51\n              swap2\n              swap1\n              tag_52\n              jump\t// in\n            tag_51:\n              mload(0x40)\n              dup1\n              swap2\n              sub\n              swap1\n              return\n                /* \"Auction.sol\":407:432  uint256 public highestBid */\n            tag_11:\n              callvalue\n              dup1\n              iszero\n              tag_53\n              jumpi\n              0x00\n              dup1\n              revert\n            tag_53:\n              pop\n              tag_54\n              tag_55\n              jump\t// in\n            tag_54:\n              mload(0x40)\n              tag_56\n              swap2\n              swap1\n              tag_21\n              jump\t// in\n            tag_56:\n              mload(0x40)\n              dup1\n              swap2\n              sub\n              swap1\n              return\n                /* \"Auction.sol\":1915:3113  function bid() external payable {... */\n            tag_14:\n                /* \"Auction.sol\":2262:2276  auctionEndTime */\n              sload(0x01)\n                /* \"Auction.sol\":2244:2259  block.timestamp */\n              timestamp\n                /* \"Auction.sol\":2244:2276  block.timestamp > auctionEndTime */\n              gt\n                /* \"Auction.sol\":2240:2306  if (block.timestamp > auctionEndTime) revert AuctionAlreadyEnded() */\n              iszero\n              tag_58\n              jumpi\n                /* \"Auction.sol\":2285:2306  AuctionAlreadyEnded() */\n              mload(0x40)\n              0xd02e774d00000000000000000000000000000000000000000000000000000000\n              dup2\n              mstore\n              0x04\n              add\n              mload(0x40)\n              dup1\n              swap2\n              sub\n              swap1\n              revert\n                /* \"Auction.sol\":2240:2306  if (block.timestamp > auctionEndTime) revert AuctionAlreadyEnded() */\n            tag_58:\n                /* \"Auction.sol\":2549:2559  highestBid */\n              sload(0x04)\n                /* \"Auction.sol\":2536:2545  msg.value */\n              callvalue\n                /* \"Auction.sol\":2536:2559  msg.value <= highestBid */\n              gt\n                /* \"Auction.sol\":2532:2596  if (msg.value <= highestBid) revert BidNotHighEnough(highestBid) */\n              tag_59\n              jumpi\n                /* \"Auction.sol\":2585:2595  highestBid */\n              sload(0x04)\n                /* \"Auction.sol\":2568:2596  BidNotHighEnough(highestBid) */\n              mload(0x40)\n              0x4e12c1bb00000000000000000000000000000000000000000000000000000000\n              dup2\n              mstore\n              0x04\n              add\n              tag_60\n              swap2\n              swap1\n              tag_21\n              jump\t// in\n            tag_60:\n              mload(0x40)\n              dup1\n              swap2\n              sub\n              swap1\n              revert\n                /* \"Auction.sol\":2532:2596  if (msg.value <= highestBid) revert BidNotHighEnough(highestBid) */\n            tag_59:\n                /* \"Auction.sol\":2625:2626  0 */\n              0x00\n                /* \"Auction.sol\":2611:2621  highestBid */\n              sload(0x04)\n                /* \"Auction.sol\":2611:2626  highestBid != 0 */\n              eq\n                /* \"Auction.sol\":2607:2982  if (highestBid != 0) {... */\n              tag_61\n              jumpi\n                /* \"Auction.sol\":2961:2971  highestBid */\n              sload(0x04)\n                /* \"Auction.sol\":2928:2942  pendingReturns */\n              0x05\n                /* \"Auction.sol\":2928:2957  pendingReturns[highestBidder] */\n              0x00\n                /* \"Auction.sol\":2943:2956  highestBidder */\n              0x03\n              0x00\n              swap1\n              sload\n              swap1\n              0x0100\n              exp\n              swap1\n              div\n              0xffffffffffffffffffffffffffffffffffffffff\n              and\n                /* \"Auction.sol\":2928:2957  pendingReturns[highestBidder] */\n              0xffffffffffffffffffffffffffffffffffffffff\n              and\n              0xffffffffffffffffffffffffffffffffffffffff\n              and\n              dup2\n              mstore\n              0x20\n              add\n              swap1\n              dup2\n              mstore\n              0x20\n              add\n              0x00\n              keccak256\n              0x00\n                /* \"Auction.sol\":2928:2971  pendingReturns[highestBidder] += highestBid */\n              dup3\n              dup3\n              sload\n              tag_62\n              swap2\n              swap1\n              tag_63\n              jump\t// in\n            tag_62:\n              swap3\n              pop\n              pop\n              dup2\n              swap1\n              sstore\n              pop\n                /* \"Auction.sol\":2607:2982  if (highestBid != 0) {... */\n            tag_61:\n                /* \"Auction.sol\":3007:3017  msg.sender */\n              caller\n                /* \"Auction.sol\":2991:3004  highestBidder */\n              0x03\n              0x00\n                /* \"Auction.sol\":2991:3017  highestBidder = msg.sender */\n              0x0100\n              exp\n              dup2\n              sload\n              dup2\n              0xffffffffffffffffffffffffffffffffffffffff\n              mul\n              not\n              and\n              swap1\n              dup4\n              0xffffffffffffffffffffffffffffffffffffffff\n              and\n              mul\n              or\n              swap1\n              sstore\n              pop\n                /* \"Auction.sol\":3040:3049  msg.value */\n              callvalue\n                /* \"Auction.sol\":3027:3037  highestBid */\n              0x04\n                /* \"Auction.sol\":3027:3049  highestBid = msg.value */\n              dup2\n              swap1\n              sstore\n              pop\n                /* \"Auction.sol\":3064:3106  HighestBidIncreased(msg.sender, msg.value) */\n              0xf4757a49b326036464bec6fe419a4ae38c8a02ce3e68bf0809674f6aab8ad300\n                /* \"Auction.sol\":3084:3094  msg.sender */\n              caller\n                /* \"Auction.sol\":3096:3105  msg.value */\n              callvalue\n                /* \"Auction.sol\":3064:3106  HighestBidIncreased(msg.sender, msg.value) */\n              mload(0x40)\n              tag_64\n              swap3\n              swap2\n              swap1\n              tag_65\n              jump\t// in\n            tag_64:\n              mload(0x40)\n              dup1\n              swap2\n              sub\n              swap1\n              log1\n                /* \"Auction.sol\":1915:3113  function bid() external payable {... */\n              jump\t// out\n                /* \"Auction.sol\":483:532  mapping(address => uint256) public pendingReturns */\n            tag_19:\n              mstore(0x20, 0x05)\n              dup1\n              0x00\n              mstore\n              keccak256(0x00, 0x40)\n              0x00\n              swap2\n              pop\n              swap1\n              pop\n              sload\n              dup2\n              jump\t// out\n                /* \"Auction.sol\":4141:5210  function auctionEnd() external {... */\n            tag_24:\n                /* \"Auction.sol\":4939:4953  auctionEndTime */\n              sload(0x01)\n                /* \"Auction.sol\":4921:4936  block.timestamp */\n              timestamp\n                /* \"Auction.sol\":4921:4953  block.timestamp < auctionEndTime */\n              lt\n                /* \"Auction.sol\":4917:4982  if (block.timestamp < auctionEndTime) revert AuctionNotYetEnded() */\n              iszero\n              tag_67\n              jumpi\n                /* \"Auction.sol\":4962:4982  AuctionNotYetEnded() */\n              mload(0x40)\n              0x44cee29000000000000000000000000000000000000000000000000000000000\n              dup2\n              mstore\n              0x04\n              add\n              mload(0x40)\n              dup1\n              swap2\n              sub\n              swap1\n              revert\n                /* \"Auction.sol\":4917:4982  if (block.timestamp < auctionEndTime) revert AuctionNotYetEnded() */\n            tag_67:\n                /* \"Auction.sol\":4996:5001  ended */\n              0x06\n              0x00\n              swap1\n              sload\n              swap1\n              0x0100\n              exp\n              swap1\n              div\n              0xff\n              and\n                /* \"Auction.sol\":4992:5035  if (ended) revert AuctionEndAlreadyCalled() */\n              iszero\n              tag_68\n              jumpi\n                /* \"Auction.sol\":5010:5035  AuctionEndAlreadyCalled() */\n              mload(0x40)\n              0x61cfdcf800000000000000000000000000000000000000000000000000000000\n              dup2\n              mstore\n              0x04\n              add\n              mload(0x40)\n              dup1\n              swap2\n              sub\n              swap1\n              revert\n                /* \"Auction.sol\":4992:5035  if (ended) revert AuctionEndAlreadyCalled() */\n            tag_68:\n                /* \"Auction.sol\":5076:5080  true */\n              0x01\n                /* \"Auction.sol\":5068:5073  ended */\n              0x06\n              0x00\n                /* \"Auction.sol\":5068:5080  ended = true */\n              0x0100\n              exp\n              dup2\n              sload\n              dup2\n              0xff\n              mul\n              not\n              and\n              swap1\n              dup4\n              iszero\n              iszero\n              mul\n              or\n              swap1\n              sstore\n              pop\n                /* \"Auction.sol\":5095:5134  AuctionEnded(highestBidder, highestBid) */\n              0xdaec4582d5d9595688c8c98545fdd1c696d41c6aeaeb636737e84ed2f5c00eda\n                /* \"Auction.sol\":5108:5121  highestBidder */\n              0x03\n              0x00\n              swap1\n              sload\n              swap1\n              0x0100\n              exp\n              swap1\n              div\n              0xffffffffffffffffffffffffffffffffffffffff\n              and\n                /* \"Auction.sol\":5123:5133  highestBid */\n              sload(0x04)\n                /* \"Auction.sol\":5095:5134  AuctionEnded(highestBidder, highestBid) */\n              mload(0x40)\n              tag_69\n              swap3\n              swap2\n              swap1\n              tag_65\n              jump\t// in\n            tag_69:\n              mload(0x40)\n              dup1\n              swap2\n              sub\n              swap1\n              log1\n                /* \"Auction.sol\":5171:5182  beneficiary */\n              0x00\n              dup1\n              sload\n              swap1\n              0x0100\n              exp\n              swap1\n              div\n              0xffffffffffffffffffffffffffffffffffffffff\n              and\n                /* \"Auction.sol\":5171:5191  beneficiary.transfer */\n              0xffffffffffffffffffffffffffffffffffffffff\n              and\n                /* \"Auction.sol\":5171:5203  beneficiary.transfer(highestBid) */\n              0x08fc\n                /* \"Auction.sol\":5192:5202  highestBid */\n              sload(0x04)\n                /* \"Auction.sol\":5171:5203  beneficiary.transfer(highestBid) */\n              swap1\n              dup2\n              iszero\n              mul\n              swap1\n              mload(0x40)\n              0x00\n              mload(0x40)\n              dup1\n              dup4\n              sub\n              dup2\n              dup6\n              dup9\n              dup9\n              call\n              swap4\n              pop\n              pop\n              pop\n              pop\n              iszero\n              dup1\n              iszero\n              tag_71\n              jumpi\n              returndatasize\n              0x00\n              dup1\n              returndatacopy\n              revert(0x00, returndatasize)\n            tag_71:\n              pop\n                /* \"Auction.sol\":4141:5210  function auctionEnd() external {... */\n              jump\t// out\n                /* \"Auction.sol\":230:264  address payable public beneficiary */\n            tag_27:\n              0x00\n              dup1\n              sload\n              swap1\n              0x0100\n              exp\n              swap1\n              div\n              0xffffffffffffffffffffffffffffffffffffffff\n              and\n              dup2\n              jump\t// out\n                /* \"Auction.sol\":3160:3969  function withdraw() external returns (bool) {... */\n            tag_32:\n                /* \"Auction.sol\":3198:3202  bool */\n              0x00\n                /* \"Auction.sol\":3214:3228  uint256 amount */\n              dup1\n                /* \"Auction.sol\":3231:3245  pendingReturns */\n              0x05\n                /* \"Auction.sol\":3231:3257  pendingReturns[msg.sender] */\n              0x00\n                /* \"Auction.sol\":3246:3256  msg.sender */\n              caller\n                /* \"Auction.sol\":3231:3257  pendingReturns[msg.sender] */\n              0xffffffffffffffffffffffffffffffffffffffff\n              and\n              0xffffffffffffffffffffffffffffffffffffffff\n              and\n              dup2\n              mstore\n              0x20\n              add\n              swap1\n              dup2\n              mstore\n              0x20\n              add\n              0x00\n              keccak256\n              sload\n                /* \"Auction.sol\":3214:3257  uint256 amount = pendingReturns[msg.sender] */\n              swap1\n              pop\n                /* \"Auction.sol\":3280:3281  0 */\n              0x00\n                /* \"Auction.sol\":3271:3277  amount */\n              dup2\n                /* \"Auction.sol\":3271:3281  amount > 0 */\n              gt\n                /* \"Auction.sol\":3267:3942  if (amount > 0) {... */\n              iszero\n              tag_73\n              jumpi\n                /* \"Auction.sol\":3511:3512  0 */\n              0x00\n                /* \"Auction.sol\":3482:3496  pendingReturns */\n              0x05\n                /* \"Auction.sol\":3482:3508  pendingReturns[msg.sender] */\n              0x00\n                /* \"Auction.sol\":3497:3507  msg.sender */\n              caller\n                /* \"Auction.sol\":3482:3508  pendingReturns[msg.sender] */\n              0xffffffffffffffffffffffffffffffffffffffff\n              and\n              0xffffffffffffffffffffffffffffffffffffffff\n              and\n              dup2\n              mstore\n              0x20\n              add\n              swap1\n              dup2\n              mstore\n              0x20\n              add\n              0x00\n              keccak256\n                /* \"Auction.sol\":3482:3512  pendingReturns[msg.sender] = 0 */\n              dup2\n              swap1\n              sstore\n              pop\n                /* \"Auction.sol\":3733:3743  msg.sender */\n              caller\n                /* \"Auction.sol\":3725:3749  payable(msg.sender).send */\n              0xffffffffffffffffffffffffffffffffffffffff\n              and\n                /* \"Auction.sol\":3725:3757  payable(msg.sender).send(amount) */\n              0x08fc\n                /* \"Auction.sol\":3750:3756  amount */\n              dup3\n                /* \"Auction.sol\":3725:3757  payable(msg.sender).send(amount) */\n              swap1\n              dup2\n              iszero\n              mul\n              swap1\n              mload(0x40)\n              0x00\n              mload(0x40)\n              dup1\n              dup4\n              sub\n              dup2\n              dup6\n              dup9\n              dup9\n              call\n              swap4\n              pop\n              pop\n              pop\n              pop\n                /* \"Auction.sol\":3720:3932  if (!payable(msg.sender).send(amount)) {... */\n              tag_75\n              jumpi\n                /* \"Auction.sol\":3881:3887  amount */\n              dup1\n                /* \"Auction.sol\":3852:3866  pendingReturns */\n              0x05\n                /* \"Auction.sol\":3852:3878  pendingReturns[msg.sender] */\n              0x00\n                /* \"Auction.sol\":3867:3877  msg.sender */\n              caller\n                /* \"Auction.sol\":3852:3878  pendingReturns[msg.sender] */\n              0xffffffffffffffffffffffffffffffffffffffff\n              and\n              0xffffffffffffffffffffffffffffffffffffffff\n              and\n              dup2\n              mstore\n              0x20\n              add\n              swap1\n              dup2\n              mstore\n              0x20\n              add\n              0x00\n              keccak256\n                /* \"Auction.sol\":3852:3887  pendingReturns[msg.sender] = amount */\n              dup2\n              swap1\n              sstore\n              pop\n                /* \"Auction.sol\":3912:3917  false */\n              0x00\n                /* \"Auction.sol\":3905:3917  return false */\n              swap2\n              pop\n              pop\n              jump(tag_72)\n                /* \"Auction.sol\":3720:3932  if (!payable(msg.sender).send(amount)) {... */\n            tag_75:\n                /* \"Auction.sol\":3267:3942  if (amount > 0) {... */\n            tag_73:\n                /* \"Auction.sol\":3958:3962  true */\n              0x01\n                /* \"Auction.sol\":3951:3962  return true */\n              swap2\n              pop\n              pop\n                /* \"Auction.sol\":3160:3969  function withdraw() external returns (bool) {... */\n            tag_72:\n              swap1\n              jump\t// out\n                /* \"Auction.sol\":270:299  uint256 public auctionEndTime */\n            tag_37:\n              sload(0x01)\n              dup2\n              jump\t// out\n                /* \"Auction.sol\":373:401  address public highestBidder */\n            tag_41:\n              0x03\n              0x00\n              swap1\n              sload\n              swap1\n              0x0100\n              exp\n              swap1\n              div\n              0xffffffffffffffffffffffffffffffffffffffff\n              and\n              dup2\n              jump\t// out\n                /* \"Auction.sol\":3975:4058  function hasAuctionEnded() public view returns (bool) {... */\n            tag_46:\n                /* \"Auction.sol\":4023:4027  bool */\n              0x00\n                /* \"Auction.sol\":4046:4051  ended */\n              0x06\n              0x00\n              swap1\n              sload\n              swap1\n              0x0100\n              exp\n              swap1\n              div\n              0xff\n              and\n                /* \"Auction.sol\":4039:4051  return ended */\n              swap1\n              pop\n                /* \"Auction.sol\":3975:4058  function hasAuctionEnded() public view returns (bool) {... */\n              swap1\n              jump\t// out\n                /* \"Auction.sol\":305:330  string public auctionName */\n            tag_50:\n              0x02\n              dup1\n              sload\n              tag_77\n              swap1\n              tag_78\n              jump\t// in\n            tag_77:\n              dup1\n              0x1f\n              add\n              0x20\n              dup1\n              swap2\n              div\n              mul\n              0x20\n              add\n              mload(0x40)\n              swap1\n              dup2\n              add\n              0x40\n              mstore\n              dup1\n              swap3\n              swap2\n              swap1\n              dup2\n              dup2\n              mstore\n              0x20\n              add\n              dup3\n              dup1\n              sload\n              tag_79\n              swap1\n              tag_78\n              jump\t// in\n            tag_79:\n              dup1\n              iszero\n              tag_80\n              jumpi\n              dup1\n              0x1f\n              lt\n              tag_81\n              jumpi\n              0x0100\n              dup1\n              dup4\n              sload\n              div\n              mul\n              dup4\n              mstore\n              swap2\n              0x20\n              add\n              swap2\n              jump(tag_80)\n            tag_81:\n              dup3\n              add\n              swap2\n              swap1\n              0x00\n              mstore\n              keccak256(0x00, 0x20)\n              swap1\n            tag_82:\n              dup2\n              sload\n              dup2\n              mstore\n              swap1\n              0x01\n              add\n              swap1\n              0x20\n              add\n              dup1\n              dup4\n              gt\n              tag_82\n              jumpi\n              dup3\n              swap1\n              sub\n              0x1f\n              and\n              dup3\n              add\n              swap2\n            tag_80:\n              pop\n              pop\n              pop\n              pop\n              pop\n              dup2\n              jump\t// out\n                /* \"Auction.sol\":407:432  uint256 public highestBid */\n            tag_55:\n              sload(0x04)\n              dup2\n              jump\t// out\n                /* \"#utility.yul\":88:205   */\n            tag_84:\n                /* \"#utility.yul\":197:198   */\n              0x00\n                /* \"#utility.yul\":194:195   */\n              dup1\n                /* \"#utility.yul\":187:199   */\n              revert\n                /* \"#utility.yul\":334:460   */\n            tag_86:\n                /* \"#utility.yul\":371:378   */\n              0x00\n                /* \"#utility.yul\":411:453   */\n              0xffffffffffffffffffffffffffffffffffffffff\n                /* \"#utility.yul\":404:409   */\n              dup3\n                /* \"#utility.yul\":400:454   */\n              and\n                /* \"#utility.yul\":389:454   */\n              swap1\n              pop\n                /* \"#utility.yul\":334:460   */\n              swap2\n              swap1\n              pop\n              jump\t// out\n                /* \"#utility.yul\":466:562   */\n            tag_87:\n                /* \"#utility.yul\":503:510   */\n              0x00\n                /* \"#utility.yul\":532:556   */\n              tag_110\n                /* \"#utility.yul\":550:555   */\n              dup3\n                /* \"#utility.yul\":532:556   */\n              tag_86\n              jump\t// in\n            tag_110:\n                /* \"#utility.yul\":521:556   */\n              swap1\n              pop\n                /* \"#utility.yul\":466:562   */\n              swap2\n              swap1\n              pop\n              jump\t// out\n                /* \"#utility.yul\":568:690   */\n            tag_88:\n                /* \"#utility.yul\":641:665   */\n              tag_112\n                /* \"#utility.yul\":659:664   */\n              dup2\n                /* \"#utility.yul\":641:665   */\n              tag_87\n              jump\t// in\n            tag_112:\n                /* \"#utility.yul\":634:639   */\n              dup2\n                /* \"#utility.yul\":631:666   */\n              eq\n                /* \"#utility.yul\":621:684   */\n              tag_113\n              jumpi\n                /* \"#utility.yul\":680:681   */\n              0x00\n                /* \"#utility.yul\":677:678   */\n              dup1\n                /* \"#utility.yul\":670:682   */\n              revert\n                /* \"#utility.yul\":621:684   */\n            tag_113:\n                /* \"#utility.yul\":568:690   */\n              pop\n              jump\t// out\n                /* \"#utility.yul\":696:835   */\n            tag_89:\n                /* \"#utility.yul\":742:747   */\n              0x00\n                /* \"#utility.yul\":780:786   */\n              dup2\n                /* \"#utility.yul\":767:787   */\n              calldataload\n                /* \"#utility.yul\":758:787   */\n              swap1\n              pop\n                /* \"#utility.yul\":796:829   */\n              tag_115\n                /* \"#utility.yul\":823:828   */\n              dup2\n                /* \"#utility.yul\":796:829   */\n              tag_88\n              jump\t// in\n            tag_115:\n                /* \"#utility.yul\":696:835   */\n              swap3\n              swap2\n              pop\n              pop\n              jump\t// out\n                /* \"#utility.yul\":841:1170   */\n            tag_18:\n                /* \"#utility.yul\":900:906   */\n              0x00\n                /* \"#utility.yul\":949:951   */\n              0x20\n                /* \"#utility.yul\":937:946   */\n              dup3\n                /* \"#utility.yul\":928:935   */\n              dup5\n                /* \"#utility.yul\":924:947   */\n              sub\n                /* \"#utility.yul\":920:952   */\n              slt\n                /* \"#utility.yul\":917:1036   */\n              iszero\n              tag_117\n              jumpi\n                /* \"#utility.yul\":955:1034   */\n              tag_118\n              tag_84\n              jump\t// in\n            tag_118:\n                /* \"#utility.yul\":917:1036   */\n            tag_117:\n                /* \"#utility.yul\":1075:1076   */\n              0x00\n                /* \"#utility.yul\":1100:1153   */\n              tag_119\n                /* \"#utility.yul\":1145:1152   */\n              dup5\n                /* \"#utility.yul\":1136:1142   */\n              dup3\n                /* \"#utility.yul\":1125:1134   */\n              dup6\n                /* \"#utility.yul\":1121:1143   */\n              add\n                /* \"#utility.yul\":1100:1153   */\n              tag_89\n              jump\t// in\n            tag_119:\n                /* \"#utility.yul\":1090:1153   */\n              swap2\n              pop\n                /* \"#utility.yul\":1046:1163   */\n              pop\n                /* \"#utility.yul\":841:1170   */\n              swap3\n              swap2\n              pop\n              pop\n              jump\t// out\n                /* \"#utility.yul\":1176:1253   */\n            tag_90:\n                /* \"#utility.yul\":1213:1220   */\n              0x00\n                /* \"#utility.yul\":1242:1247   */\n              dup2\n                /* \"#utility.yul\":1231:1247   */\n              swap1\n              pop\n                /* \"#utility.yul\":1176:1253   */\n              swap2\n              swap1\n              pop\n              jump\t// out\n                /* \"#utility.yul\":1259:1377   */\n            tag_91:\n                /* \"#utility.yul\":1346:1370   */\n              tag_122\n                /* \"#utility.yul\":1364:1369   */\n              dup2\n                /* \"#utility.yul\":1346:1370   */\n              tag_90\n              jump\t// in\n            tag_122:\n                /* \"#utility.yul\":1341:1344   */\n              dup3\n                /* \"#utility.yul\":1334:1371   */\n              mstore\n                /* \"#utility.yul\":1259:1377   */\n              pop\n              pop\n              jump\t// out\n                /* \"#utility.yul\":1383:1605   */\n            tag_21:\n                /* \"#utility.yul\":1476:1480   */\n              0x00\n                /* \"#utility.yul\":1514:1516   */\n              0x20\n                /* \"#utility.yul\":1503:1512   */\n              dup3\n                /* \"#utility.yul\":1499:1517   */\n              add\n                /* \"#utility.yul\":1491:1517   */\n              swap1\n              pop\n                /* \"#utility.yul\":1527:1598   */\n              tag_124\n                /* \"#utility.yul\":1595:1596   */\n              0x00\n                /* \"#utility.yul\":1584:1593   */\n              dup4\n                /* \"#utility.yul\":1580:1597   */\n              add\n                /* \"#utility.yul\":1571:1577   */\n              dup5\n                /* \"#utility.yul\":1527:1598   */\n              tag_91\n              jump\t// in\n            tag_124:\n                /* \"#utility.yul\":1383:1605   */\n              swap3\n              swap2\n              pop\n              pop\n              jump\t// out\n                /* \"#utility.yul\":1611:1715   */\n            tag_92:\n                /* \"#utility.yul\":1656:1663   */\n              0x00\n                /* \"#utility.yul\":1685:1709   */\n              tag_126\n                /* \"#utility.yul\":1703:1708   */\n              dup3\n                /* \"#utility.yul\":1685:1709   */\n              tag_86\n              jump\t// in\n            tag_126:\n                /* \"#utility.yul\":1674:1709   */\n              swap1\n              pop\n                /* \"#utility.yul\":1611:1715   */\n              swap2\n              swap1\n              pop\n              jump\t// out\n                /* \"#utility.yul\":1721:1863   */\n            tag_93:\n                /* \"#utility.yul\":1824:1856   */\n              tag_128\n                /* \"#utility.yul\":1850:1855   */\n              dup2\n                /* \"#utility.yul\":1824:1856   */\n              tag_92\n              jump\t// in\n            tag_128:\n                /* \"#utility.yul\":1819:1822   */\n              dup3\n                /* \"#utility.yul\":1812:1857   */\n              mstore\n                /* \"#utility.yul\":1721:1863   */\n              pop\n              pop\n              jump\t// out\n                /* \"#utility.yul\":1869:2123   */\n            tag_29:\n                /* \"#utility.yul\":1978:1982   */\n              0x00\n                /* \"#utility.yul\":2016:2018   */\n              0x20\n                /* \"#utility.yul\":2005:2014   */\n              dup3\n                /* \"#utility.yul\":2001:2019   */\n              add\n                /* \"#utility.yul\":1993:2019   */\n              swap1\n              pop\n                /* \"#utility.yul\":2029:2116   */\n              tag_130\n                /* \"#utility.yul\":2113:2114   */\n              0x00\n                /* \"#utility.yul\":2102:2111   */\n              dup4\n                /* \"#utility.yul\":2098:2115   */\n              add\n                /* \"#utility.yul\":2089:2095   */\n              dup5\n                /* \"#utility.yul\":2029:2116   */\n              tag_93\n              jump\t// in\n            tag_130:\n                /* \"#utility.yul\":1869:2123   */\n              swap3\n              swap2\n              pop\n              pop\n              jump\t// out\n                /* \"#utility.yul\":2129:2219   */\n            tag_94:\n                /* \"#utility.yul\":2163:2170   */\n              0x00\n                /* \"#utility.yul\":2206:2211   */\n              dup2\n                /* \"#utility.yul\":2199:2212   */\n              iszero\n                /* \"#utility.yul\":2192:2213   */\n              iszero\n                /* \"#utility.yul\":2181:2213   */\n              swap1\n              pop\n                /* \"#utility.yul\":2129:2219   */\n              swap2\n              swap1\n              pop\n              jump\t// out\n                /* \"#utility.yul\":2225:2334   */\n            tag_95:\n                /* \"#utility.yul\":2306:2327   */\n              tag_133\n                /* \"#utility.yul\":2321:2326   */\n              dup2\n                /* \"#utility.yul\":2306:2327   */\n              tag_94\n              jump\t// in\n            tag_133:\n                /* \"#utility.yul\":2301:2304   */\n              dup3\n                /* \"#utility.yul\":2294:2328   */\n              mstore\n                /* \"#utility.yul\":2225:2334   */\n              pop\n              pop\n              jump\t// out\n                /* \"#utility.yul\":2340:2550   */\n            tag_34:\n                /* \"#utility.yul\":2427:2431   */\n              0x00\n                /* \"#utility.yul\":2465:2467   */\n              0x20\n                /* \"#utility.yul\":2454:2463   */\n              dup3\n                /* \"#utility.yul\":2450:2468   */\n              add\n                /* \"#utility.yul\":2442:2468   */\n              swap1\n              pop\n                /* \"#utility.yul\":2478:2543   */\n              tag_135\n                /* \"#utility.yul\":2540:2541   */\n              0x00\n                /* \"#utility.yul\":2529:2538   */\n              dup4\n                /* \"#utility.yul\":2525:2542   */\n              add\n                /* \"#utility.yul\":2516:2522   */\n              dup5\n                /* \"#utility.yul\":2478:2543   */\n              tag_95\n              jump\t// in\n            tag_135:\n                /* \"#utility.yul\":2340:2550   */\n              swap3\n              swap2\n              pop\n              pop\n              jump\t// out\n                /* \"#utility.yul\":2556:2674   */\n            tag_96:\n                /* \"#utility.yul\":2643:2667   */\n              tag_137\n                /* \"#utility.yul\":2661:2666   */\n              dup2\n                /* \"#utility.yul\":2643:2667   */\n              tag_87\n              jump\t// in\n            tag_137:\n                /* \"#utility.yul\":2638:2641   */\n              dup3\n                /* \"#utility.yul\":2631:2668   */\n              mstore\n                /* \"#utility.yul\":2556:2674   */\n              pop\n              pop\n              jump\t// out\n                /* \"#utility.yul\":2680:2902   */\n            tag_43:\n                /* \"#utility.yul\":2773:2777   */\n              0x00\n                /* \"#utility.yul\":2811:2813   */\n              0x20\n                /* \"#utility.yul\":2800:2809   */\n              dup3\n                /* \"#utility.yul\":2796:2814   */\n              add\n                /* \"#utility.yul\":2788:2814   */\n              swap1\n              pop\n                /* \"#utility.yul\":2824:2895   */\n              tag_139\n                /* \"#utility.yul\":2892:2893   */\n              0x00\n                /* \"#utility.yul\":2881:2890   */\n              dup4\n                /* \"#utility.yul\":2877:2894   */\n              add\n                /* \"#utility.yul\":2868:2874   */\n              dup5\n                /* \"#utility.yul\":2824:2895   */\n              tag_96\n              jump\t// in\n            tag_139:\n                /* \"#utility.yul\":2680:2902   */\n              swap3\n              swap2\n              pop\n              pop\n              jump\t// out\n                /* \"#utility.yul\":2908:3007   */\n            tag_97:\n                /* \"#utility.yul\":2960:2966   */\n              0x00\n                /* \"#utility.yul\":2994:2999   */\n              dup2\n                /* \"#utility.yul\":2988:3000   */\n              mload\n                /* \"#utility.yul\":2978:3000   */\n              swap1\n              pop\n                /* \"#utility.yul\":2908:3007   */\n              swap2\n              swap1\n              pop\n              jump\t// out\n                /* \"#utility.yul\":3013:3182   */\n            tag_98:\n                /* \"#utility.yul\":3097:3108   */\n              0x00\n                /* \"#utility.yul\":3131:3137   */\n              dup3\n                /* \"#utility.yul\":3126:3129   */\n              dup3\n                /* \"#utility.yul\":3119:3138   */\n              mstore\n                /* \"#utility.yul\":3171:3175   */\n              0x20\n                /* \"#utility.yul\":3166:3169   */\n              dup3\n                /* \"#utility.yul\":3162:3176   */\n              add\n                /* \"#utility.yul\":3147:3176   */\n              swap1\n              pop\n                /* \"#utility.yul\":3013:3182   */\n              swap3\n              swap2\n              pop\n              pop\n              jump\t// out\n                /* \"#utility.yul\":3188:3434   */\n            tag_99:\n                /* \"#utility.yul\":3269:3270   */\n              0x00\n                /* \"#utility.yul\":3279:3392   */\n            tag_143:\n                /* \"#utility.yul\":3293:3299   */\n              dup4\n                /* \"#utility.yul\":3290:3291   */\n              dup2\n                /* \"#utility.yul\":3287:3300   */\n              lt\n                /* \"#utility.yul\":3279:3392   */\n              iszero\n              tag_145\n              jumpi\n                /* \"#utility.yul\":3378:3379   */\n              dup1\n                /* \"#utility.yul\":3373:3376   */\n              dup3\n                /* \"#utility.yul\":3369:3380   */\n              add\n                /* \"#utility.yul\":3363:3381   */\n              mload\n                /* \"#utility.yul\":3359:3360   */\n              dup2\n                /* \"#utility.yul\":3354:3357   */\n              dup5\n                /* \"#utility.yul\":3350:3361   */\n              add\n                /* \"#utility.yul\":3343:3382   */\n              mstore\n                /* \"#utility.yul\":3315:3317   */\n              0x20\n                /* \"#utility.yul\":3312:3313   */\n              dup2\n                /* \"#utility.yul\":3308:3318   */\n              add\n                /* \"#utility.yul\":3303:3318   */\n              swap1\n              pop\n                /* \"#utility.yul\":3279:3392   */\n              jump(tag_143)\n            tag_145:\n                /* \"#utility.yul\":3426:3427   */\n              0x00\n                /* \"#utility.yul\":3417:3423   */\n              dup5\n                /* \"#utility.yul\":3412:3415   */\n              dup5\n                /* \"#utility.yul\":3408:3424   */\n              add\n                /* \"#utility.yul\":3401:3428   */\n              mstore\n                /* \"#utility.yul\":3250:3434   */\n              pop\n                /* \"#utility.yul\":3188:3434   */\n              pop\n              pop\n              pop\n              jump\t// out\n                /* \"#utility.yul\":3440:3542   */\n            tag_100:\n                /* \"#utility.yul\":3481:3487   */\n              0x00\n                /* \"#utility.yul\":3532:3534   */\n              0x1f\n                /* \"#utility.yul\":3528:3535   */\n              not\n                /* \"#utility.yul\":3523:3525   */\n              0x1f\n                /* \"#utility.yul\":3516:3521   */\n              dup4\n                /* \"#utility.yul\":3512:3526   */\n              add\n                /* \"#utility.yul\":3508:3536   */\n              and\n                /* \"#utility.yul\":3498:3536   */\n              swap1\n              pop\n                /* \"#utility.yul\":3440:3542   */\n              swap2\n              swap1\n              pop\n              jump\t// out\n                /* \"#utility.yul\":3548:3925   */\n            tag_101:\n                /* \"#utility.yul\":3636:3639   */\n              0x00\n                /* \"#utility.yul\":3664:3703   */\n              tag_148\n                /* \"#utility.yul\":3697:3702   */\n              dup3\n                /* \"#utility.yul\":3664:3703   */\n              tag_97\n              jump\t// in\n            tag_148:\n                /* \"#utility.yul\":3719:3790   */\n              tag_149\n                /* \"#utility.yul\":3783:3789   */\n              dup2\n                /* \"#utility.yul\":3778:3781   */\n              dup6\n                /* \"#utility.yul\":3719:3790   */\n              tag_98\n              jump\t// in\n            tag_149:\n                /* \"#utility.yul\":3712:3790   */\n              swap4\n              pop\n                /* \"#utility.yul\":3799:3864   */\n              tag_150\n                /* \"#utility.yul\":3857:3863   */\n              dup2\n                /* \"#utility.yul\":3852:3855   */\n              dup6\n                /* \"#utility.yul\":3845:3849   */\n              0x20\n                /* \"#utility.yul\":3838:3843   */\n              dup7\n                /* \"#utility.yul\":3834:3850   */\n              add\n                /* \"#utility.yul\":3799:3864   */\n              tag_99\n              jump\t// in\n            tag_150:\n                /* \"#utility.yul\":3889:3918   */\n              tag_151\n                /* \"#utility.yul\":3911:3917   */\n              dup2\n                /* \"#utility.yul\":3889:3918   */\n              tag_100\n              jump\t// in\n            tag_151:\n                /* \"#utility.yul\":3884:3887   */\n              dup5\n                /* \"#utility.yul\":3880:3919   */\n              add\n                /* \"#utility.yul\":3873:3919   */\n              swap2\n              pop\n                /* \"#utility.yul\":3640:3925   */\n              pop\n                /* \"#utility.yul\":3548:3925   */\n              swap3\n              swap2\n              pop\n              pop\n              jump\t// out\n                /* \"#utility.yul\":3931:4244   */\n            tag_52:\n                /* \"#utility.yul\":4044:4048   */\n              0x00\n                /* \"#utility.yul\":4082:4084   */\n              0x20\n                /* \"#utility.yul\":4071:4080   */\n              dup3\n                /* \"#utility.yul\":4067:4085   */\n              add\n                /* \"#utility.yul\":4059:4085   */\n              swap1\n              pop\n                /* \"#utility.yul\":4131:4140   */\n              dup2\n                /* \"#utility.yul\":4125:4129   */\n              dup2\n                /* \"#utility.yul\":4121:4141   */\n              sub\n                /* \"#utility.yul\":4117:4118   */\n              0x00\n                /* \"#utility.yul\":4106:4115   */\n              dup4\n                /* \"#utility.yul\":4102:4119   */\n              add\n                /* \"#utility.yul\":4095:4142   */\n              mstore\n                /* \"#utility.yul\":4159:4237   */\n              tag_153\n                /* \"#utility.yul\":4232:4236   */\n              dup2\n                /* \"#utility.yul\":4223:4229   */\n              dup5\n                /* \"#utility.yul\":4159:4237   */\n              tag_101\n              jump\t// in\n            tag_153:\n                /* \"#utility.yul\":4151:4237   */\n              swap1\n              pop\n                /* \"#utility.yul\":3931:4244   */\n              swap3\n              swap2\n              pop\n              pop\n              jump\t// out\n                /* \"#utility.yul\":4250:4430   */\n            tag_102:\n                /* \"#utility.yul\":4298:4375   */\n              0x4e487b7100000000000000000000000000000000000000000000000000000000\n                /* \"#utility.yul\":4295:4296   */\n              0x00\n                /* \"#utility.yul\":4288:4376   */\n              mstore\n                /* \"#utility.yul\":4395:4399   */\n              0x11\n                /* \"#utility.yul\":4392:4393   */\n              0x04\n                /* \"#utility.yul\":4385:4400   */\n              mstore\n                /* \"#utility.yul\":4419:4423   */\n              0x24\n                /* \"#utility.yul\":4416:4417   */\n              0x00\n                /* \"#utility.yul\":4409:4424   */\n              revert\n                /* \"#utility.yul\":4436:4627   */\n            tag_63:\n                /* \"#utility.yul\":4476:4479   */\n              0x00\n                /* \"#utility.yul\":4495:4515   */\n              tag_156\n                /* \"#utility.yul\":4513:4514   */\n              dup3\n                /* \"#utility.yul\":4495:4515   */\n              tag_90\n              jump\t// in\n            tag_156:\n                /* \"#utility.yul\":4490:4515   */\n              swap2\n              pop\n                /* \"#utility.yul\":4529:4549   */\n              tag_157\n                /* \"#utility.yul\":4547:4548   */\n              dup4\n                /* \"#utility.yul\":4529:4549   */\n              tag_90\n              jump\t// in\n            tag_157:\n                /* \"#utility.yul\":4524:4549   */\n              swap3\n              pop\n                /* \"#utility.yul\":4572:4573   */\n              dup3\n                /* \"#utility.yul\":4569:4570   */\n              dup3\n                /* \"#utility.yul\":4565:4574   */\n              add\n                /* \"#utility.yul\":4558:4574   */\n              swap1\n              pop\n                /* \"#utility.yul\":4593:4596   */\n              dup1\n                /* \"#utility.yul\":4590:4591   */\n              dup3\n                /* \"#utility.yul\":4587:4597   */\n              gt\n                /* \"#utility.yul\":4584:4620   */\n              iszero\n              tag_158\n              jumpi\n                /* \"#utility.yul\":4600:4618   */\n              tag_159\n              tag_102\n              jump\t// in\n            tag_159:\n                /* \"#utility.yul\":4584:4620   */\n            tag_158:\n                /* \"#utility.yul\":4436:4627   */\n              swap3\n              swap2\n              pop\n              pop\n              jump\t// out\n                /* \"#utility.yul\":4633:4965   */\n            tag_65:\n                /* \"#utility.yul\":4754:4758   */\n              0x00\n                /* \"#utility.yul\":4792:4794   */\n              0x40\n                /* \"#utility.yul\":4781:4790   */\n              dup3\n                /* \"#utility.yul\":4777:4795   */\n              add\n                /* \"#utility.yul\":4769:4795   */\n              swap1\n              pop\n                /* \"#utility.yul\":4805:4876   */\n              tag_161\n                /* \"#utility.yul\":4873:4874   */\n              0x00\n                /* \"#utility.yul\":4862:4871   */\n              dup4\n                /* \"#utility.yul\":4858:4875   */\n              add\n                /* \"#utility.yul\":4849:4855   */\n              dup6\n                /* \"#utility.yul\":4805:4876   */\n              tag_96\n              jump\t// in\n            tag_161:\n                /* \"#utility.yul\":4886:4958   */\n              tag_162\n                /* \"#utility.yul\":4954:4956   */\n              0x20\n                /* \"#utility.yul\":4943:4952   */\n              dup4\n                /* \"#utility.yul\":4939:4957   */\n              add\n                /* \"#utility.yul\":4930:4936   */\n              dup5\n                /* \"#utility.yul\":4886:4958   */\n              tag_91\n              jump\t// in\n            tag_162:\n                /* \"#utility.yul\":4633:4965   */\n              swap4\n              swap3\n              pop\n              pop\n              pop\n              jump\t// out\n                /* \"#utility.yul\":4971:5151   */\n            tag_103:\n                /* \"#utility.yul\":5019:5096   */\n              0x4e487b7100000000000000000000000000000000000000000000000000000000\n                /* \"#utility.yul\":5016:5017   */\n              0x00\n                /* \"#utility.yul\":5009:5097   */\n              mstore\n                /* \"#utility.yul\":5116:5120   */\n              0x22\n                /* \"#utility.yul\":5113:5114   */\n              0x04\n                /* \"#utility.yul\":5106:5121   */\n              mstore\n                /* \"#utility.yul\":5140:5144   */\n              0x24\n                /* \"#utility.yul\":5137:5138   */\n              0x00\n                /* \"#utility.yul\":5130:5145   */\n              revert\n                /* \"#utility.yul\":5157:5477   */\n            tag_78:\n                /* \"#utility.yul\":5201:5207   */\n              0x00\n                /* \"#utility.yul\":5238:5239   */\n              0x02\n                /* \"#utility.yul\":5232:5236   */\n              dup3\n                /* \"#utility.yul\":5228:5240   */\n              div\n                /* \"#utility.yul\":5218:5240   */\n              swap1\n              pop\n                /* \"#utility.yul\":5285:5286   */\n              0x01\n                /* \"#utility.yul\":5279:5283   */\n              dup3\n                /* \"#utility.yul\":5275:5287   */\n              and\n                /* \"#utility.yul\":5306:5324   */\n              dup1\n                /* \"#utility.yul\":5296:5377   */\n              tag_165\n              jumpi\n                /* \"#utility.yul\":5362:5366   */\n              0x7f\n                /* \"#utility.yul\":5354:5360   */\n              dup3\n                /* \"#utility.yul\":5350:5367   */\n              and\n                /* \"#utility.yul\":5340:5367   */\n              swap2\n              pop\n                /* \"#utility.yul\":5296:5377   */\n            tag_165:\n                /* \"#utility.yul\":5424:5426   */\n              0x20\n                /* \"#utility.yul\":5416:5422   */\n              dup3\n                /* \"#utility.yul\":5413:5427   */\n              lt\n                /* \"#utility.yul\":5393:5411   */\n              dup2\n                /* \"#utility.yul\":5390:5428   */\n              sub\n                /* \"#utility.yul\":5387:5471   */\n              tag_166\n              jumpi\n                /* \"#utility.yul\":5443:5461   */\n              tag_167\n              tag_103\n              jump\t// in\n            tag_167:\n                /* \"#utility.yul\":5387:5471   */\n            tag_166:\n                /* \"#utility.yul\":5208:5477   */\n              pop\n                /* \"#utility.yul\":5157:5477   */\n              swap2\n              swap1\n              pop\n              jump\t// out\n\n            auxdata: 0xa2646970667358221220950459a105f3d360eb999891c7cc3f416cb94948830be0eebb179761ad3fc52c64736f6c63430008140033\n        }\n    }\n\n    auxdata: 0xa26469706673582212204209cda30174660acd9aea6a14d17aa5c59cba17a918ba06a9648950d50c3a0864736f6c63430008140033\n}\n","bytecode":{"linkReferences":{},"object":"608060405234801561000f575f80fd5b50612b4f8061001d5f395ff3fe608060405234801562000010575f80fd5b5060043610620000aa575f3560e01c8063a0e67e2b116200006d578063a0e67e2b14620001ad578063a44f83e514620001cf578063adaa19921462000205578063cbd2bdfd146200023b578063cca56666146200025d57620000aa565b8063025e7c2714620000ae578063165c588114620000e45780637f593d9e146200011a578063977bd70514620001555780639e01dfbb1462000175575b5f80fd5b620000cc6004803603810190620000c6919062000f73565b62000293565b604051620000db919062000fe6565b60405180910390f35b620001026004803603810190620000fc919062000f73565b620002ce565b60405162000111919062000fe6565b60405180910390f35b62000138600480360381019062000132919062001030565b6200030a565b6040516200014c9695949392919062001145565b60405180910390f35b6200017360048036038101906200016d9190620011f2565b620005ce565b005b6200019360048036038101906200018d919062001030565b62000830565b604051620001a4939291906200124b565b60405180910390f35b620001b762000862565b604051620001c691906200134d565b60405180910390f35b620001ed6004803603810190620001e791906200136f565b620008ee565b604051620001fc9190620013c8565b60405180910390f35b6200022360048036038101906200021d91906200152b565b62000923565b60405162000232919062000fe6565b60405180910390f35b6200024562000ad2565b6040516200025491906200134d565b60405180910390f35b6200027b60048036038101906200027591906200158f565b62000b5f565b6040516200028a9190620013c8565b60405180910390f35b5f8181548110620002a2575f80fd5b905f5260205f20015f915054906101000a900473ffffffffffffffffffffffffffffffffffffffff1681565b60038181548110620002de575f80fd5b905f5260205f20015f915054906101000a900473ffffffffffffffffffffffffffffffffffffffff1681565b5f805f8060605f808790508073ffffffffffffffffffffffffffffffffffffffff166338af3eed6040518163ffffffff1660e01b8152600401602060405180830381865afa1580156200035f573d5f803e3d5ffd5b505050506040513d601f19601f8201168201806040525081019062000385919062001603565b8173ffffffffffffffffffffffffffffffffffffffff16634b449cba6040518163ffffffff1660e01b8152600401602060405180830381865afa158015620003cf573d5f803e3d5ffd5b505050506040513d601f19601f82011682018060405250810190620003f5919062001649565b8273ffffffffffffffffffffffffffffffffffffffff166391f901576040518163ffffffff1660e01b8152600401602060405180830381865afa1580156200043f573d5f803e3d5ffd5b505050506040513d601f19601f820116820180604052508101906200046591906200168f565b8373ffffffffffffffffffffffffffffffffffffffff1663d57bde796040518163ffffffff1660e01b8152600401602060405180830381865afa158015620004af573d5f803e3d5ffd5b505050506040513d601f19601f82011682018060405250810190620004d5919062001649565b8473ffffffffffffffffffffffffffffffffffffffff1663c63d99db6040518163ffffffff1660e01b81526004015f60405180830381865afa1580156200051e573d5f803e3d5ffd5b505050506040513d5f823e3d601f19601f820116820180604052508101906200054891906200173b565b8573ffffffffffffffffffffffffffffffffffffffff1663a0484dda6040518163ffffffff1660e01b8152600401602060405180830381865afa15801562000592573d5f803e3d5ffd5b505050506040513d601f19601f82011682018060405250810190620005b89190620017b9565b9650965096509650965096505091939550919395565b60058160ff16111562000618576040517f08c379a00000000000000000000000000000000000000000000000000000000081526004016200060f9062001837565b60405180910390fd5b5f8160ff161162000660576040517f08c379a00000000000000000000000000000000000000000000000000000000081526004016200065790620018a5565b60405180910390fd5b6200066c838362000b5f565b620006ae576040517f08c379a0000000000000000000000000000000000000000000000000000000008152600401620006a59062001913565b60405180910390fd5b600160025f8573ffffffffffffffffffffffffffffffffffffffff1673ffffffffffffffffffffffffffffffffffffffff1681526020019081526020015f205f8473ffffffffffffffffffffffffffffffffffffffff1673ffffffffffffffffffffffffffffffffffffffff1681526020019081526020015f205f3373ffffffffffffffffffffffffffffffffffffffff1673ffffffffffffffffffffffffffffffffffffffff1681526020019081526020015f205f6101000a81548160ff0219169083151502179055508060ff1660015f8573ffffffffffffffffffffffffffffffffffffffff1673ffffffffffffffffffffffffffffffffffffffff1681526020019081526020015f206001015f828254620007cd919062001960565b9250508190555060015f8473ffffffffffffffffffffffffffffffffffffffff1673ffffffffffffffffffffffffffffffffffffffff1681526020019081526020015f206002015f81548092919062000826906200199a565b9190505550505050565b6001602052805f5260405f205f91509050805f015f9054906101000a900460ff16908060010154908060020154905083565b60605f805480602002602001604051908101604052809291908181526020018280548015620008e457602002820191905f5260205f20905b815f9054906101000a900473ffffffffffffffffffffffffffffffffffffffff1673ffffffffffffffffffffffffffffffffffffffff16815260200190600101908083116200089a575b5050505050905090565b6002602052825f5260405f20602052815f5260405f20602052805f5260405f205f92509250509054906101000a900460ff1681565b5f80838333604051620009369062000f1c565b6200094493929190620019e6565b604051809103905ff0801580156200095e573d5f803e3d5ffd5b509050600381908060018154018082558091505060019003905f5260205f20015f9091909190916101000a81548173ffffffffffffffffffffffffffffffffffffffff021916908373ffffffffffffffffffffffffffffffffffffffff16021790555060015f3373ffffffffffffffffffffffffffffffffffffffff1673ffffffffffffffffffffffffffffffffffffffff1681526020019081526020015f205f015f9054906101000a900460ff1662000ac8576001805f3373ffffffffffffffffffffffffffffffffffffffff1673ffffffffffffffffffffffffffffffffffffffff1681526020019081526020015f205f015f6101000a81548160ff0219169083151502179055505f33908060018154018082558091505060019003905f5260205f20015f9091909190916101000a81548173ffffffffffffffffffffffffffffffffffffffff021916908373ffffffffffffffffffffffffffffffffffffffff1602179055505b8091505092915050565b6060600380548060200260200160405190810160405280929190818152602001828054801562000b5557602002820191905f5260205f20905b815f9054906101000a900473ffffffffffffffffffffffffffffffffffffffff1673ffffffffffffffffffffffffffffffffffffffff168152602001906001019080831162000b0b575b5050505050905090565b5f8273ffffffffffffffffffffffffffffffffffffffff163373ffffffffffffffffffffffffffffffffffffffff16148062000be4575060015f8473ffffffffffffffffffffffffffffffffffffffff1673ffffffffffffffffffffffffffffffffffffffff1681526020019081526020015f205f015f9054906101000a900460ff16155b8062000c5d57508173ffffffffffffffffffffffffffffffffffffffff1663a0484dda6040518163ffffffff1660e01b8152600401602060405180830381865afa15801562000c35573d5f803e3d5ffd5b505050506040513d601f19601f8201168201806040525081019062000c5b9190620017b9565b155b8062000d0457508173ffffffffffffffffffffffffffffffffffffffff166338af3eed6040518163ffffffff1660e01b8152600401602060405180830381865afa15801562000cae573d5f803e3d5ffd5b505050506040513d601f19601f8201168201806040525081019062000cd4919062001603565b73ffffffffffffffffffffffffffffffffffffffff168373ffffffffffffffffffffffffffffffffffffffff1614155b8062000dcc575060025f8473ffffffffffffffffffffffffffffffffffffffff1673ffffffffffffffffffffffffffffffffffffffff1681526020019081526020015f205f8373ffffffffffffffffffffffffffffffffffffffff1673ffffffffffffffffffffffffffffffffffffffff1681526020019081526020015f205f3373ffffffffffffffffffffffffffffffffffffffff1673ffffffffffffffffffffffffffffffffffffffff1681526020019081526020015f205f9054906101000a900460ff165b1562000ddb575f905062000f16565b3373ffffffffffffffffffffffffffffffffffffffff168273ffffffffffffffffffffffffffffffffffffffff166391f901576040518163ffffffff1660e01b8152600401602060405180830381865afa15801562000e3c573d5f803e3d5ffd5b505050506040513d601f19601f8201168201806040525081019062000e6291906200168f565b73ffffffffffffffffffffffffffffffffffffffff161415801562000f0257505f8273ffffffffffffffffffffffffffffffffffffffff166326b387bb336040518263ffffffff1660e01b815260040162000ebe919062000fe6565b602060405180830381865afa15801562000eda573d5f803e3d5ffd5b505050506040513d601f19601f8201168201806040525081019062000f00919062001649565b145b1562000f11575f905062000f16565b600190505b92915050565b6110f18062001a2983390190565b5f604051905090565b5f80fd5b5f80fd5b5f819050919050565b62000f4f8162000f3b565b811462000f5a575f80fd5b50565b5f8135905062000f6d8162000f44565b92915050565b5f6020828403121562000f8b5762000f8a62000f33565b5b5f62000f9a8482850162000f5d565b91505092915050565b5f73ffffffffffffffffffffffffffffffffffffffff82169050919050565b5f62000fce8262000fa3565b9050919050565b62000fe08162000fc2565b82525050565b5f60208201905062000ffb5f83018462000fd5565b92915050565b6200100c8162000fc2565b811462001017575f80fd5b50565b5f813590506200102a8162001001565b92915050565b5f6020828403121562001048576200104762000f33565b5b5f62001057848285016200101a565b91505092915050565b5f6200106c8262000fa3565b9050919050565b6200107e8162001060565b82525050565b6200108f8162000f3b565b82525050565b5f81519050919050565b5f82825260208201905092915050565b5f5b83811015620010ce578082015181840152602081019050620010b1565b5f8484015250505050565b5f601f19601f8301169050919050565b5f620010f58262001095565b6200110181856200109f565b935062001113818560208601620010af565b6200111e81620010d9565b840191505092915050565b5f8115159050919050565b6200113f8162001129565b82525050565b5f60c0820190506200115a5f83018962001073565b62001169602083018862001084565b62001178604083018762000fd5565b62001187606083018662001084565b81810360808301526200119b8185620010e9565b9050620011ac60a083018462001134565b979650505050505050565b5f60ff82169050919050565b620011ce81620011b7565b8114620011d9575f80fd5b50565b5f81359050620011ec81620011c3565b92915050565b5f805f606084860312156200120c576200120b62000f33565b5b5f6200121b868287016200101a565b93505060206200122e868287016200101a565b92505060406200124186828701620011dc565b9150509250925092565b5f606082019050620012605f83018662001134565b6200126f602083018562001084565b6200127e604083018462001084565b949350505050565b5f81519050919050565b5f82825260208201905092915050565b5f819050602082019050919050565b620012ba8162000fc2565b82525050565b5f620012cd8383620012af565b60208301905092915050565b5f602082019050919050565b5f620012f18262001286565b620012fd818562001290565b93506200130a83620012a0565b805f5b8381101562001340578151620013248882620012c0565b97506200133183620012d9565b9250506001810190506200130d565b5085935050505092915050565b5f6020820190508181035f830152620013678184620012e5565b905092915050565b5f805f6060848603121562001389576200138862000f33565b5b5f62001398868287016200101a565b9350506020620013ab868287016200101a565b9250506040620013be868287016200101a565b9150509250925092565b5f602082019050620013dd5f83018462001134565b92915050565b5f80fd5b5f80fd5b7f4e487b71000000000000000000000000000000000000000000000000000000005f52604160045260245ffd5b6200142382620010d9565b810181811067ffffffffffffffff82111715620014455762001444620013eb565b5b80604052505050565b5f6200145962000f2a565b905062001467828262001418565b919050565b5f67ffffffffffffffff821115620014895762001488620013eb565b5b6200149482620010d9565b9050602081019050919050565b828183375f83830152505050565b5f620014c5620014bf846200146c565b6200144e565b905082815260208101848484011115620014e457620014e3620013e7565b5b620014f1848285620014a1565b509392505050565b5f82601f83011262001510576200150f620013e3565b5b813562001522848260208601620014af565b91505092915050565b5f806040838503121562001544576200154362000f33565b5b5f620015538582860162000f5d565b925050602083013567ffffffffffffffff81111562001577576200157662000f37565b5b6200158585828601620014f9565b9150509250929050565b5f8060408385031215620015a857620015a762000f33565b5b5f620015b7858286016200101a565b9250506020620015ca858286016200101a565b9150509250929050565b620015df8162001060565b8114620015ea575f80fd5b50565b5f81519050620015fd81620015d4565b92915050565b5f602082840312156200161b576200161a62000f33565b5b5f6200162a84828501620015ed565b91505092915050565b5f81519050620016438162000f44565b92915050565b5f6020828403121562001661576200166062000f33565b5b5f620016708482850162001633565b91505092915050565b5f81519050620016898162001001565b92915050565b5f60208284031215620016a757620016a662000f33565b5b5f620016b68482850162001679565b91505092915050565b5f620016d5620016cf846200146c565b6200144e565b905082815260208101848484011115620016f457620016f3620013e7565b5b62001701848285620010af565b509392505050565b5f82601f83011262001720576200171f620013e3565b5b815162001732848260208601620016bf565b91505092915050565b5f6020828403121562001753576200175262000f33565b5b5f82015167ffffffffffffffff81111562001773576200177262000f37565b5b620017818482850162001709565b91505092915050565b620017958162001129565b8114620017a0575f80fd5b50565b5f81519050620017b3816200178a565b92915050565b5f60208284031215620017d157620017d062000f33565b5b5f620017e084828501620017a3565b91505092915050565b7f4d6178696d756d2076616c756520666f72207261746520697320352e000000005f82015250565b5f6200181f601c836200109f565b91506200182c82620017e9565b602082019050919050565b5f6020820190508181035f830152620018508162001811565b9050919050565b7f4d696e696d756d2076616c756520666f72207261746520697320312e000000005f82015250565b5f6200188d601c836200109f565b91506200189a8262001857565b602082019050919050565b5f6020820190508181035f830152620018be816200187f565b9050919050565b7f596f75277265206e6f7420616c6c6f77656420746f20726174652e00000000005f82015250565b5f620018fb601b836200109f565b91506200190882620018c5565b602082019050919050565b5f6020820190508181035f8301526200192c81620018ed565b9050919050565b7f4e487b71000000000000000000000000000000000000000000000000000000005f52601160045260245ffd5b5f6200196c8262000f3b565b9150620019798362000f3b565b925082820190508082111562001994576200199362001933565b5b92915050565b5f620019a68262000f3b565b91507fffffffffffffffffffffffffffffffffffffffffffffffffffffffffffffffff8203620019db57620019da62001933565b5b600182019050919050565b5f606082019050620019fb5f83018662001084565b818103602083015262001a0f8185620010e9565b905062001a20604083018462001073565b94935050505056fe608060405234801562000010575f80fd5b50604051620010f1380380620010f18339818101604052810190620000369190620002c2565b805f806101000a81548173ffffffffffffffffffffffffffffffffffffffff021916908373ffffffffffffffffffffffffffffffffffffffff160217905550816002908162000086919062000568565b50824262000095919062000679565b600181905550505050620006b3565b5f604051905090565b5f80fd5b5f80fd5b5f819050919050565b620000c981620000b5565b8114620000d4575f80fd5b50565b5f81519050620000e781620000be565b92915050565b5f80fd5b5f80fd5b5f601f19601f8301169050919050565b7f4e487b71000000000000000000000000000000000000000000000000000000005f52604160045260245ffd5b6200013d82620000f5565b810181811067ffffffffffffffff821117156200015f576200015e62000105565b5b80604052505050565b5f62000173620000a4565b905062000181828262000132565b919050565b5f67ffffffffffffffff821115620001a357620001a262000105565b5b620001ae82620000f5565b9050602081019050919050565b5f5b83811015620001da578082015181840152602081019050620001bd565b5f8484015250505050565b5f620001fb620001f58462000186565b62000168565b9050828152602081018484840111156200021a5762000219620000f1565b5b62000227848285620001bb565b509392505050565b5f82601f830112620002465762000245620000ed565b5b815162000258848260208601620001e5565b91505092915050565b5f73ffffffffffffffffffffffffffffffffffffffff82169050919050565b5f6200028c8262000261565b9050919050565b6200029e8162000280565b8114620002a9575f80fd5b50565b5f81519050620002bc8162000293565b92915050565b5f805f60608486031215620002dc57620002db620000ad565b5b5f620002eb86828701620000d7565b935050602084015167ffffffffffffffff8111156200030f576200030e620000b1565b5b6200031d868287016200022f565b92505060406200033086828701620002ac565b9150509250925092565b5f81519050919050565b7f4e487b71000000000000000000000000000000000000000000000000000000005f52602260045260245ffd5b5f60028204905060018216806200038957607f821691505b6020821081036200039f576200039e62000344565b5b50919050565b5f819050815f5260205f209050919050565b5f6020601f8301049050919050565b5f82821b905092915050565b5f60088302620004037fffffffffffffffffffffffffffffffffffffffffffffffffffffffffffffffff82620003c6565b6200040f8683620003c6565b95508019841693508086168417925050509392505050565b5f819050919050565b5f620004506200044a6200044484620000b5565b62000427565b620000b5565b9050919050565b5f819050919050565b6200046b8362000430565b620004836200047a8262000457565b848454620003d2565b825550505050565b5f90565b620004996200048b565b620004a681848462000460565b505050565b5b81811015620004cd57620004c15f826200048f565b600181019050620004ac565b5050565b601f8211156200051c57620004e681620003a5565b620004f184620003b7565b8101602085101562000501578190505b620005196200051085620003b7565b830182620004ab565b50505b505050565b5f82821c905092915050565b5f6200053e5f198460080262000521565b1980831691505092915050565b5f6200055883836200052d565b9150826002028217905092915050565b62000573826200033a565b67ffffffffffffffff8111156200058f576200058e62000105565b5b6200059b825462000371565b620005a8828285620004d1565b5f60209050601f831160018114620005de575f8415620005c9578287015190505b620005d585826200054b565b86555062000644565b601f198416620005ee86620003a5565b5f5b828110156200061757848901518255600182019150602085019450602081019050620005f0565b8683101562000637578489015162000633601f8916826200052d565b8355505b6001600288020188555050505b505050505050565b7f4e487b71000000000000000000000000000000000000000000000000000000005f52601160045260245ffd5b5f6200068582620000b5565b91506200069283620000b5565b9250828201905080821115620006ad57620006ac6200064c565b5b92915050565b610a3080620006c15f395ff3fe608060405260043610610090575f3560e01c80634b449cba116100585780634b449cba1461014457806391f901571461016e578063a0484dda14610198578063c63d99db146101c2578063d57bde79146101ec57610090565b80631998aeef1461009457806326b387bb1461009e5780632a24f46c146100da57806338af3eed146100f05780633ccfd60b1461011a575b5f80fd5b61009c610216565b005b3480156100a9575f80fd5b506100c460048036038101906100bf919061077c565b61039c565b6040516100d191906107bf565b60405180910390f35b3480156100e5575f80fd5b506100ee6103b1565b005b3480156100fb575f80fd5b50610104610510565b60405161011191906107f8565b60405180910390f35b348015610125575f80fd5b5061012e610533565b60405161013b919061082b565b60405180910390f35b34801561014f575f80fd5b5061015861064c565b60405161016591906107bf565b60405180910390f35b348015610179575f80fd5b50610182610652565b60405161018f9190610853565b60405180910390f35b3480156101a3575f80fd5b506101ac610677565b6040516101b9919061082b565b60405180910390f35b3480156101cd575f80fd5b506101d661068c565b6040516101e391906108f6565b60405180910390f35b3480156101f7575f80fd5b50610200610718565b60405161020d91906107bf565b60405180910390f35b600154421115610252576040517fd02e774d00000000000000000000000000000000000000000000000000000000815260040160405180910390fd5b600454341161029a576004546040517f4e12c1bb00000000000000000000000000000000000000000000000000000000815260040161029191906107bf565b60405180910390fd5b5f6004541461031a5760045460055f60035f9054906101000a900473ffffffffffffffffffffffffffffffffffffffff1673ffffffffffffffffffffffffffffffffffffffff1673ffffffffffffffffffffffffffffffffffffffff1681526020019081526020015f205f8282546103129190610943565b925050819055505b3360035f6101000a81548173ffffffffffffffffffffffffffffffffffffffff021916908373ffffffffffffffffffffffffffffffffffffffff160217905550346004819055507ff4757a49b326036464bec6fe419a4ae38c8a02ce3e68bf0809674f6aab8ad3003334604051610392929190610976565b60405180910390a1565b6005602052805f5260405f205f915090505481565b6001544210156103ed576040517f44cee29000000000000000000000000000000000000000000000000000000000815260040160405180910390fd5b60065f9054906101000a900460ff1615610433576040517f61cfdcf800000000000000000000000000000000000000000000000000000000815260040160405180910390fd5b600160065f6101000a81548160ff0219169083151502179055507fdaec4582d5d9595688c8c98545fdd1c696d41c6aeaeb636737e84ed2f5c00eda60035f9054906101000a900473ffffffffffffffffffffffffffffffffffffffff166004546040516104a1929190610976565b60405180910390a15f8054906101000a900473ffffffffffffffffffffffffffffffffffffffff1673ffffffffffffffffffffffffffffffffffffffff166108fc60045490811502906040515f60405180830381858888f1935050505015801561050d573d5f803e3d5ffd5b50565b5f8054906101000a900473ffffffffffffffffffffffffffffffffffffffff1681565b5f8060055f3373ffffffffffffffffffffffffffffffffffffffff1673ffffffffffffffffffffffffffffffffffffffff1681526020019081526020015f205490505f811115610643575f60055f3373ffffffffffffffffffffffffffffffffffffffff1673ffffffffffffffffffffffffffffffffffffffff1681526020019081526020015f20819055503373ffffffffffffffffffffffffffffffffffffffff166108fc8290811502906040515f60405180830381858888f19350505050610642578060055f3373ffffffffffffffffffffffffffffffffffffffff1673ffffffffffffffffffffffffffffffffffffffff1681526020019081526020015f20819055505f915050610649565b5b60019150505b90565b60015481565b60035f9054906101000a900473ffffffffffffffffffffffffffffffffffffffff1681565b5f60065f9054906101000a900460ff16905090565b60028054610699906109ca565b80601f01602080910402602001604051908101604052809291908181526020018280546106c5906109ca565b80156107105780601f106106e757610100808354040283529160200191610710565b820191905f5260205f20905b8154815290600101906020018083116106f357829003601f168201915b505050505081565b60045481565b5f80fd5b5f73ffffffffffffffffffffffffffffffffffffffff82169050919050565b5f61074b82610722565b9050919050565b61075b81610741565b8114610765575f80fd5b50565b5f8135905061077681610752565b92915050565b5f602082840312156107915761079061071e565b5b5f61079e84828501610768565b91505092915050565b5f819050919050565b6107b9816107a7565b82525050565b5f6020820190506107d25f8301846107b0565b92915050565b5f6107e282610722565b9050919050565b6107f2816107d8565b82525050565b5f60208201905061080b5f8301846107e9565b92915050565b5f8115159050919050565b61082581610811565b82525050565b5f60208201905061083e5f83018461081c565b92915050565b61084d81610741565b82525050565b5f6020820190506108665f830184610844565b92915050565b5f81519050919050565b5f82825260208201905092915050565b5f5b838110156108a3578082015181840152602081019050610888565b5f8484015250505050565b5f601f19601f8301169050919050565b5f6108c88261086c565b6108d28185610876565b93506108e2818560208601610886565b6108eb816108ae565b840191505092915050565b5f6020820190508181035f83015261090e81846108be565b905092915050565b7f4e487b71000000000000000000000000000000000000000000000000000000005f52601160045260245ffd5b5f61094d826107a7565b9150610958836107a7565b92508282019050808211156109705761096f610916565b5b92915050565b5f6040820190506109895f830185610844565b61099660208301846107b0565b9392505050565b7f4e487b71000000000000000000000000000000000000000000000000000000005f52602260045260245ffd5b5f60028204905060018216806109e157607f821691505b6020821081036109f4576109f361099d565b5b5091905056fea2646970667358221220950459a105f3d360eb999891c7cc3f416cb94948830be0eebb179761ad3fc52c64736f6c63430008140033a26469706673582212204209cda30174660acd9aea6a14d17aa5c59cba17a918ba06a9648950d50c3a0864736f6c63430008140033","opcodes":"PUSH1 0x80 PUSH1 0x40 MSTORE CALLVALUE DUP1 ISZERO PUSH2 0xF JUMPI PUSH0 DUP1 REVERT JUMPDEST POP PUSH2 0x2B4F DUP1 PUSH2 0x1D PUSH0 CODECOPY PUSH0 RETURN INVALID PUSH1 0x80 PUSH1 0x40 MSTORE CALLVALUE DUP1 ISZERO PUSH3 0x10 JUMPI PUSH0 DUP1 REVERT JUMPDEST POP PUSH1 0x4 CALLDATASIZE LT PUSH3 0xAA JUMPI PUSH0 CALLDATALOAD PUSH1 0xE0 SHR DUP1 PUSH4 0xA0E67E2B GT PUSH3 0x6D JUMPI DUP1 PUSH4 0xA0E67E2B EQ PUSH3 0x1AD JUMPI DUP1 PUSH4 0xA44F83E5 EQ PUSH3 0x1CF JUMPI DUP1 PUSH4 0xADAA1992 EQ PUSH3 0x205 JUMPI DUP1 PUSH4 0xCBD2BDFD EQ PUSH3 0x23B JUMPI DUP1 PUSH4 0xCCA56666 EQ PUSH3 0x25D JUMPI PUSH3 0xAA JUMP JUMPDEST DUP1 PUSH4 0x25E7C27 EQ PUSH3 0xAE JUMPI DUP1 PUSH4 0x165C5881 EQ PUSH3 0xE4 JUMPI DUP1 PUSH4 0x7F593D9E EQ PUSH3 0x11A JUMPI DUP1 PUSH4 0x977BD705 EQ PUSH3 0x155 JUMPI DUP1 PUSH4 0x9E01DFBB EQ PUSH3 0x175 JUMPI JUMPDEST PUSH0 DUP1 REVERT JUMPDEST PUSH3 0xCC PUSH1 0x4 DUP1 CALLDATASIZE SUB DUP2 ADD SWAP1 PUSH3 0xC6 SWAP2 SWAP1 PUSH3 0xF73 JUMP JUMPDEST PUSH3 0x293 JUMP JUMPDEST PUSH1 0x40 MLOAD PUSH3 0xDB SWAP2 SWAP1 PUSH3 0xFE6 JUMP JUMPDEST PUSH1 0x40 MLOAD DUP1 SWAP2 SUB SWAP1 RETURN JUMPDEST PUSH3 0x102 PUSH1 0x4 DUP1 CALLDATASIZE SUB DUP2 ADD SWAP1 PUSH3 0xFC SWAP2 SWAP1 PUSH3 0xF73 JUMP JUMPDEST PUSH3 0x2CE JUMP JUMPDEST PUSH1 0x40 MLOAD PUSH3 0x111 SWAP2 SWAP1 PUSH3 0xFE6 JUMP JUMPDEST PUSH1 0x40 MLOAD DUP1 SWAP2 SUB SWAP1 RETURN JUMPDEST PUSH3 0x138 PUSH1 0x4 DUP1 CALLDATASIZE SUB DUP2 ADD SWAP1 PUSH3 0x132 SWAP2 SWAP1 PUSH3 0x1030 JUMP JUMPDEST PUSH3 0x30A JUMP JUMPDEST PUSH1 0x40 MLOAD PUSH3 0x14C SWAP7 SWAP6 SWAP5 SWAP4 SWAP3 SWAP2 SWAP1 PUSH3 0x1145 JUMP JUMPDEST PUSH1 0x40 MLOAD DUP1 SWAP2 SUB SWAP1 RETURN JUMPDEST PUSH3 0x173 PUSH1 0x4 DUP1 CALLDATASIZE SUB DUP2 ADD SWAP1 PUSH3 0x16D SWAP2 SWAP1 PUSH3 0x11F2 JUMP JUMPDEST PUSH3 0x5CE JUMP JUMPDEST STOP JUMPDEST PUSH3 0x193 PUSH1 0x4 DUP1 CALLDATASIZE SUB DUP2 ADD SWAP1 PUSH3 0x18D SWAP2 SWAP1 PUSH3 0x1030 JUMP JUMPDEST PUSH3 0x830 JUMP JUMPDEST PUSH1 0x40 MLOAD PUSH3 0x1A4 SWAP4 SWAP3 SWAP2 SWAP1 PUSH3 0x124B JUMP JUMPDEST PUSH1 0x40 MLOAD DUP1 SWAP2 SUB SWAP1 RETURN JUMPDEST PUSH3 0x1B7 PUSH3 0x862 JUMP JUMPDEST PUSH1 0x40 MLOAD PUSH3 0x1C6 SWAP2 SWAP1 PUSH3 0x134D JUMP JUMPDEST PUSH1 0x40 MLOAD DUP1 SWAP2 SUB SWAP1 RETURN JUMPDEST PUSH3 0x1ED PUSH1 0x4 DUP1 CALLDATASIZE SUB DUP2 ADD SWAP1 PUSH3 0x1E7 SWAP2 SWAP1 PUSH3 0x136F JUMP JUMPDEST PUSH3 0x8EE JUMP JUMPDEST PUSH1 0x40 MLOAD PUSH3 0x1FC SWAP2 SWAP1 PUSH3 0x13C8 JUMP JUMPDEST PUSH1 0x40 MLOAD DUP1 SWAP2 SUB SWAP1 RETURN JUMPDEST PUSH3 0x223 PUSH1 0x4 DUP1 CALLDATASIZE SUB DUP2 ADD SWAP1 PUSH3 0x21D SWAP2 SWAP1 PUSH3 0x152B JUMP JUMPDEST PUSH3 0x923 JUMP JUMPDEST PUSH1 0x40 MLOAD PUSH3 0x232 SWAP2 SWAP1 PUSH3 0xFE6 JUMP JUMPDEST PUSH1 0x40 MLOAD DUP1 SWAP2 SUB SWAP1 RETURN JUMPDEST PUSH3 0x245 PUSH3 0xAD2 JUMP JUMPDEST PUSH1 0x40 MLOAD PUSH3 0x254 SWAP2 SWAP1 PUSH3 0x134D JUMP JUMPDEST PUSH1 0x40 MLOAD DUP1 SWAP2 SUB SWAP1 RETURN JUMPDEST PUSH3 0x27B PUSH1 0x4 DUP1 CALLDATASIZE SUB DUP2 ADD SWAP1 PUSH3 0x275 SWAP2 SWAP1 PUSH3 0x158F JUMP JUMPDEST PUSH3 0xB5F JUMP JUMPDEST PUSH1 0x40 MLOAD PUSH3 0x28A SWAP2 SWAP1 PUSH3 0x13C8 JUMP JUMPDEST PUSH1 0x40 MLOAD DUP1 SWAP2 SUB SWAP1 RETURN JUMPDEST PUSH0 DUP2 DUP2 SLOAD DUP2 LT PUSH3 0x2A2 JUMPI PUSH0 DUP1 REVERT JUMPDEST SWAP1 PUSH0 MSTORE PUSH1 0x20 PUSH0 KECCAK256 ADD PUSH0 SWAP2 POP SLOAD SWAP1 PUSH2 0x100 EXP SWAP1 DIV PUSH20 0xFFFFFFFFFFFFFFFFFFFFFFFFFFFFFFFFFFFFFFFF AND DUP2 JUMP JUMPDEST PUSH1 0x3 DUP2 DUP2 SLOAD DUP2 LT PUSH3 0x2DE JUMPI PUSH0 DUP1 REVERT JUMPDEST SWAP1 PUSH0 MSTORE PUSH1 0x20 PUSH0 KECCAK256 ADD PUSH0 SWAP2 POP SLOAD SWAP1 PUSH2 0x100 EXP SWAP1 DIV PUSH20 0xFFFFFFFFFFFFFFFFFFFFFFFFFFFFFFFFFFFFFFFF AND DUP2 JUMP JUMPDEST PUSH0 DUP1 PUSH0 DUP1 PUSH1 0x60 PUSH0 DUP1 DUP8 SWAP1 POP DUP1 PUSH20 0xFFFFFFFFFFFFFFFFFFFFFFFFFFFFFFFFFFFFFFFF AND PUSH4 0x38AF3EED PUSH1 0x40 MLOAD DUP2 PUSH4 0xFFFFFFFF AND PUSH1 0xE0 SHL DUP2 MSTORE PUSH1 0x4 ADD PUSH1 0x20 PUSH1 0x40 MLOAD DUP1 DUP4 SUB DUP2 DUP7 GAS STATICCALL ISZERO DUP1 ISZERO PUSH3 0x35F JUMPI RETURNDATASIZE PUSH0 DUP1 RETURNDATACOPY RETURNDATASIZE PUSH0 REVERT JUMPDEST POP POP POP POP PUSH1 0x40 MLOAD RETURNDATASIZE PUSH1 0x1F NOT PUSH1 0x1F DUP3 ADD AND DUP3 ADD DUP1 PUSH1 0x40 MSTORE POP DUP2 ADD SWAP1 PUSH3 0x385 SWAP2 SWAP1 PUSH3 0x1603 JUMP JUMPDEST DUP2 PUSH20 0xFFFFFFFFFFFFFFFFFFFFFFFFFFFFFFFFFFFFFFFF AND PUSH4 0x4B449CBA PUSH1 0x40 MLOAD DUP2 PUSH4 0xFFFFFFFF AND PUSH1 0xE0 SHL DUP2 MSTORE PUSH1 0x4 ADD PUSH1 0x20 PUSH1 0x40 MLOAD DUP1 DUP4 SUB DUP2 DUP7 GAS STATICCALL ISZERO DUP1 ISZERO PUSH3 0x3CF JUMPI RETURNDATASIZE PUSH0 DUP1 RETURNDATACOPY RETURNDATASIZE PUSH0 REVERT JUMPDEST POP POP POP POP PUSH1 0x40 MLOAD RETURNDATASIZE PUSH1 0x1F NOT PUSH1 0x1F DUP3 ADD AND DUP3 ADD DUP1 PUSH1 0x40 MSTORE POP DUP2 ADD SWAP1 PUSH3 0x3F5 SWAP2 SWAP1 PUSH3 0x1649 JUMP JUMPDEST DUP3 PUSH20 0xFFFFFFFFFFFFFFFFFFFFFFFFFFFFFFFFFFFFFFFF AND PUSH4 0x91F90157 PUSH1 0x40 MLOAD DUP2 PUSH4 0xFFFFFFFF AND PUSH1 0xE0 SHL DUP2 MSTORE PUSH1 0x4 ADD PUSH1 0x20 PUSH1 0x40 MLOAD DUP1 DUP4 SUB DUP2 DUP7 GAS STATICCALL ISZERO DUP1 ISZERO PUSH3 0x43F JUMPI RETURNDATASIZE PUSH0 DUP1 RETURNDATACOPY RETURNDATASIZE PUSH0 REVERT JUMPDEST POP POP POP POP PUSH1 0x40 MLOAD RETURNDATASIZE PUSH1 0x1F NOT PUSH1 0x1F DUP3 ADD AND DUP3 ADD DUP1 PUSH1 0x40 MSTORE POP DUP2 ADD SWAP1 PUSH3 0x465 SWAP2 SWAP1 PUSH3 0x168F JUMP JUMPDEST DUP4 PUSH20 0xFFFFFFFFFFFFFFFFFFFFFFFFFFFFFFFFFFFFFFFF AND PUSH4 0xD57BDE79 PUSH1 0x40 MLOAD DUP2 PUSH4 0xFFFFFFFF AND PUSH1 0xE0 SHL DUP2 MSTORE PUSH1 0x4 ADD PUSH1 0x20 PUSH1 0x40 MLOAD DUP1 DUP4 SUB DUP2 DUP7 GAS STATICCALL ISZERO DUP1 ISZERO PUSH3 0x4AF JUMPI RETURNDATASIZE PUSH0 DUP1 RETURNDATACOPY RETURNDATASIZE PUSH0 REVERT JUMPDEST POP POP POP POP PUSH1 0x40 MLOAD RETURNDATASIZE PUSH1 0x1F NOT PUSH1 0x1F DUP3 ADD AND DUP3 ADD DUP1 PUSH1 0x40 MSTORE POP DUP2 ADD SWAP1 PUSH3 0x4D5 SWAP2 SWAP1 PUSH3 0x1649 JUMP JUMPDEST DUP5 PUSH20 0xFFFFFFFFFFFFFFFFFFFFFFFFFFFFFFFFFFFFFFFF AND PUSH4 0xC63D99DB PUSH1 0x40 MLOAD DUP2 PUSH4 0xFFFFFFFF AND PUSH1 0xE0 SHL DUP2 MSTORE PUSH1 0x4 ADD PUSH0 PUSH1 0x40 MLOAD DUP1 DUP4 SUB DUP2 DUP7 GAS STATICCALL ISZERO DUP1 ISZERO PUSH3 0x51E JUMPI RETURNDATASIZE PUSH0 DUP1 RETURNDATACOPY RETURNDATASIZE PUSH0 REVERT JUMPDEST POP POP POP POP PUSH1 0x40 MLOAD RETURNDATASIZE PUSH0 DUP3 RETURNDATACOPY RETURNDATASIZE PUSH1 0x1F NOT PUSH1 0x1F DUP3 ADD AND DUP3 ADD DUP1 PUSH1 0x40 MSTORE POP DUP2 ADD SWAP1 PUSH3 0x548 SWAP2 SWAP1 PUSH3 0x173B JUMP JUMPDEST DUP6 PUSH20 0xFFFFFFFFFFFFFFFFFFFFFFFFFFFFFFFFFFFFFFFF AND PUSH4 0xA0484DDA PUSH1 0x40 MLOAD DUP2 PUSH4 0xFFFFFFFF AND PUSH1 0xE0 SHL DUP2 MSTORE PUSH1 0x4 ADD PUSH1 0x20 PUSH1 0x40 MLOAD DUP1 DUP4 SUB DUP2 DUP7 GAS STATICCALL ISZERO DUP1 ISZERO PUSH3 0x592 JUMPI RETURNDATASIZE PUSH0 DUP1 RETURNDATACOPY RETURNDATASIZE PUSH0 REVERT JUMPDEST POP POP POP POP PUSH1 0x40 MLOAD RETURNDATASIZE PUSH1 0x1F NOT PUSH1 0x1F DUP3 ADD AND DUP3 ADD DUP1 PUSH1 0x40 MSTORE POP DUP2 ADD SWAP1 PUSH3 0x5B8 SWAP2 SWAP1 PUSH3 0x17B9 JUMP JUMPDEST SWAP7 POP SWAP7 POP SWAP7 POP SWAP7 POP SWAP7 POP SWAP7 POP POP SWAP2 SWAP4 SWAP6 POP SWAP2 SWAP4 SWAP6 JUMP JUMPDEST PUSH1 0x5 DUP2 PUSH1 0xFF AND GT ISZERO PUSH3 0x618 JUMPI PUSH1 0x40 MLOAD PUSH32 0x8C379A000000000000000000000000000000000000000000000000000000000 DUP2 MSTORE PUSH1 0x4 ADD PUSH3 0x60F SWAP1 PUSH3 0x1837 JUMP JUMPDEST PUSH1 0x40 MLOAD DUP1 SWAP2 SUB SWAP1 REVERT JUMPDEST PUSH0 DUP2 PUSH1 0xFF AND GT PUSH3 0x660 JUMPI PUSH1 0x40 MLOAD PUSH32 0x8C379A000000000000000000000000000000000000000000000000000000000 DUP2 MSTORE PUSH1 0x4 ADD PUSH3 0x657 SWAP1 PUSH3 0x18A5 JUMP JUMPDEST PUSH1 0x40 MLOAD DUP1 SWAP2 SUB SWAP1 REVERT JUMPDEST PUSH3 0x66C DUP4 DUP4 PUSH3 0xB5F JUMP JUMPDEST PUSH3 0x6AE JUMPI PUSH1 0x40 MLOAD PUSH32 0x8C379A000000000000000000000000000000000000000000000000000000000 DUP2 MSTORE PUSH1 0x4 ADD PUSH3 0x6A5 SWAP1 PUSH3 0x1913 JUMP JUMPDEST PUSH1 0x40 MLOAD DUP1 SWAP2 SUB SWAP1 REVERT JUMPDEST PUSH1 0x1 PUSH1 0x2 PUSH0 DUP6 PUSH20 0xFFFFFFFFFFFFFFFFFFFFFFFFFFFFFFFFFFFFFFFF AND PUSH20 0xFFFFFFFFFFFFFFFFFFFFFFFFFFFFFFFFFFFFFFFF AND DUP2 MSTORE PUSH1 0x20 ADD SWAP1 DUP2 MSTORE PUSH1 0x20 ADD PUSH0 KECCAK256 PUSH0 DUP5 PUSH20 0xFFFFFFFFFFFFFFFFFFFFFFFFFFFFFFFFFFFFFFFF AND PUSH20 0xFFFFFFFFFFFFFFFFFFFFFFFFFFFFFFFFFFFFFFFF AND DUP2 MSTORE PUSH1 0x20 ADD SWAP1 DUP2 MSTORE PUSH1 0x20 ADD PUSH0 KECCAK256 PUSH0 CALLER PUSH20 0xFFFFFFFFFFFFFFFFFFFFFFFFFFFFFFFFFFFFFFFF AND PUSH20 0xFFFFFFFFFFFFFFFFFFFFFFFFFFFFFFFFFFFFFFFF AND DUP2 MSTORE PUSH1 0x20 ADD SWAP1 DUP2 MSTORE PUSH1 0x20 ADD PUSH0 KECCAK256 PUSH0 PUSH2 0x100 EXP DUP2 SLOAD DUP2 PUSH1 0xFF MUL NOT AND SWAP1 DUP4 ISZERO ISZERO MUL OR SWAP1 SSTORE POP DUP1 PUSH1 0xFF AND PUSH1 0x1 PUSH0 DUP6 PUSH20 0xFFFFFFFFFFFFFFFFFFFFFFFFFFFFFFFFFFFFFFFF AND PUSH20 0xFFFFFFFFFFFFFFFFFFFFFFFFFFFFFFFFFFFFFFFF AND DUP2 MSTORE PUSH1 0x20 ADD SWAP1 DUP2 MSTORE PUSH1 0x20 ADD PUSH0 KECCAK256 PUSH1 0x1 ADD PUSH0 DUP3 DUP3 SLOAD PUSH3 0x7CD SWAP2 SWAP1 PUSH3 0x1960 JUMP JUMPDEST SWAP3 POP POP DUP2 SWAP1 SSTORE POP PUSH1 0x1 PUSH0 DUP5 PUSH20 0xFFFFFFFFFFFFFFFFFFFFFFFFFFFFFFFFFFFFFFFF AND PUSH20 0xFFFFFFFFFFFFFFFFFFFFFFFFFFFFFFFFFFFFFFFF AND DUP2 MSTORE PUSH1 0x20 ADD SWAP1 DUP2 MSTORE PUSH1 0x20 ADD PUSH0 KECCAK256 PUSH1 0x2 ADD PUSH0 DUP2 SLOAD DUP1 SWAP3 SWAP2 SWAP1 PUSH3 0x826 SWAP1 PUSH3 0x199A JUMP JUMPDEST SWAP2 SWAP1 POP SSTORE POP POP POP POP JUMP JUMPDEST PUSH1 0x1 PUSH1 0x20 MSTORE DUP1 PUSH0 MSTORE PUSH1 0x40 PUSH0 KECCAK256 PUSH0 SWAP2 POP SWAP1 POP DUP1 PUSH0 ADD PUSH0 SWAP1 SLOAD SWAP1 PUSH2 0x100 EXP SWAP1 DIV PUSH1 0xFF AND SWAP1 DUP1 PUSH1 0x1 ADD SLOAD SWAP1 DUP1 PUSH1 0x2 ADD SLOAD SWAP1 POP DUP4 JUMP JUMPDEST PUSH1 0x60 PUSH0 DUP1 SLOAD DUP1 PUSH1 0x20 MUL PUSH1 0x20 ADD PUSH1 0x40 MLOAD SWAP1 DUP2 ADD PUSH1 0x40 MSTORE DUP1 SWAP3 SWAP2 SWAP1 DUP2 DUP2 MSTORE PUSH1 0x20 ADD DUP3 DUP1 SLOAD DUP1 ISZERO PUSH3 0x8E4 JUMPI PUSH1 0x20 MUL DUP3 ADD SWAP2 SWAP1 PUSH0 MSTORE PUSH1 0x20 PUSH0 KECCAK256 SWAP1 JUMPDEST DUP2 PUSH0 SWAP1 SLOAD SWAP1 PUSH2 0x100 EXP SWAP1 DIV PUSH20 0xFFFFFFFFFFFFFFFFFFFFFFFFFFFFFFFFFFFFFFFF AND PUSH20 0xFFFFFFFFFFFFFFFFFFFFFFFFFFFFFFFFFFFFFFFF AND DUP2 MSTORE PUSH1 0x20 ADD SWAP1 PUSH1 0x1 ADD SWAP1 DUP1 DUP4 GT PUSH3 0x89A JUMPI JUMPDEST POP POP POP POP POP SWAP1 POP SWAP1 JUMP JUMPDEST PUSH1 0x2 PUSH1 0x20 MSTORE DUP3 PUSH0 MSTORE PUSH1 0x40 PUSH0 KECCAK256 PUSH1 0x20 MSTORE DUP2 PUSH0 MSTORE PUSH1 0x40 PUSH0 KECCAK256 PUSH1 0x20 MSTORE DUP1 PUSH0 MSTORE PUSH1 0x40 PUSH0 KECCAK256 PUSH0 SWAP3 POP SWAP3 POP POP SWAP1 SLOAD SWAP1 PUSH2 0x100 EXP SWAP1 DIV PUSH1 0xFF AND DUP2 JUMP JUMPDEST PUSH0 DUP1 DUP4 DUP4 CALLER PUSH1 0x40 MLOAD PUSH3 0x936 SWAP1 PUSH3 0xF1C JUMP JUMPDEST PUSH3 0x944 SWAP4 SWAP3 SWAP2 SWAP1 PUSH3 0x19E6 JUMP JUMPDEST PUSH1 0x40 MLOAD DUP1 SWAP2 SUB SWAP1 PUSH0 CREATE DUP1 ISZERO DUP1 ISZERO PUSH3 0x95E JUMPI RETURNDATASIZE PUSH0 DUP1 RETURNDATACOPY RETURNDATASIZE PUSH0 REVERT JUMPDEST POP SWAP1 POP PUSH1 0x3 DUP2 SWAP1 DUP1 PUSH1 0x1 DUP2 SLOAD ADD DUP1 DUP3 SSTORE DUP1 SWAP2 POP POP PUSH1 0x1 SWAP1 SUB SWAP1 PUSH0 MSTORE PUSH1 0x20 PUSH0 KECCAK256 ADD PUSH0 SWAP1 SWAP2 SWAP1 SWAP2 SWAP1 SWAP2 PUSH2 0x100 EXP DUP2 SLOAD DUP2 PUSH20 0xFFFFFFFFFFFFFFFFFFFFFFFFFFFFFFFFFFFFFFFF MUL NOT AND SWAP1 DUP4 PUSH20 0xFFFFFFFFFFFFFFFFFFFFFFFFFFFFFFFFFFFFFFFF AND MUL OR SWAP1 SSTORE POP PUSH1 0x1 PUSH0 CALLER PUSH20 0xFFFFFFFFFFFFFFFFFFFFFFFFFFFFFFFFFFFFFFFF AND PUSH20 0xFFFFFFFFFFFFFFFFFFFFFFFFFFFFFFFFFFFFFFFF AND DUP2 MSTORE PUSH1 0x20 ADD SWAP1 DUP2 MSTORE PUSH1 0x20 ADD PUSH0 KECCAK256 PUSH0 ADD PUSH0 SWAP1 SLOAD SWAP1 PUSH2 0x100 EXP SWAP1 DIV PUSH1 0xFF AND PUSH3 0xAC8 JUMPI PUSH1 0x1 DUP1 PUSH0 CALLER PUSH20 0xFFFFFFFFFFFFFFFFFFFFFFFFFFFFFFFFFFFFFFFF AND PUSH20 0xFFFFFFFFFFFFFFFFFFFFFFFFFFFFFFFFFFFFFFFF AND DUP2 MSTORE PUSH1 0x20 ADD SWAP1 DUP2 MSTORE PUSH1 0x20 ADD PUSH0 KECCAK256 PUSH0 ADD PUSH0 PUSH2 0x100 EXP DUP2 SLOAD DUP2 PUSH1 0xFF MUL NOT AND SWAP1 DUP4 ISZERO ISZERO MUL OR SWAP1 SSTORE POP PUSH0 CALLER SWAP1 DUP1 PUSH1 0x1 DUP2 SLOAD ADD DUP1 DUP3 SSTORE DUP1 SWAP2 POP POP PUSH1 0x1 SWAP1 SUB SWAP1 PUSH0 MSTORE PUSH1 0x20 PUSH0 KECCAK256 ADD PUSH0 SWAP1 SWAP2 SWAP1 SWAP2 SWAP1 SWAP2 PUSH2 0x100 EXP DUP2 SLOAD DUP2 PUSH20 0xFFFFFFFFFFFFFFFFFFFFFFFFFFFFFFFFFFFFFFFF MUL NOT AND SWAP1 DUP4 PUSH20 0xFFFFFFFFFFFFFFFFFFFFFFFFFFFFFFFFFFFFFFFF AND MUL OR SWAP1 SSTORE POP JUMPDEST DUP1 SWAP2 POP POP SWAP3 SWAP2 POP POP JUMP JUMPDEST PUSH1 0x60 PUSH1 0x3 DUP1 SLOAD DUP1 PUSH1 0x20 MUL PUSH1 0x20 ADD PUSH1 0x40 MLOAD SWAP1 DUP2 ADD PUSH1 0x40 MSTORE DUP1 SWAP3 SWAP2 SWAP1 DUP2 DUP2 MSTORE PUSH1 0x20 ADD DUP3 DUP1 SLOAD DUP1 ISZERO PUSH3 0xB55 JUMPI PUSH1 0x20 MUL DUP3 ADD SWAP2 SWAP1 PUSH0 MSTORE PUSH1 0x20 PUSH0 KECCAK256 SWAP1 JUMPDEST DUP2 PUSH0 SWAP1 SLOAD SWAP1 PUSH2 0x100 EXP SWAP1 DIV PUSH20 0xFFFFFFFFFFFFFFFFFFFFFFFFFFFFFFFFFFFFFFFF AND PUSH20 0xFFFFFFFFFFFFFFFFFFFFFFFFFFFFFFFFFFFFFFFF AND DUP2 MSTORE PUSH1 0x20 ADD SWAP1 PUSH1 0x1 ADD SWAP1 DUP1 DUP4 GT PUSH3 0xB0B JUMPI JUMPDEST POP POP POP POP POP SWAP1 POP SWAP1 JUMP JUMPDEST PUSH0 DUP3 PUSH20 0xFFFFFFFFFFFFFFFFFFFFFFFFFFFFFFFFFFFFFFFF AND CALLER PUSH20 0xFFFFFFFFFFFFFFFFFFFFFFFFFFFFFFFFFFFFFFFF AND EQ DUP1 PUSH3 0xBE4 JUMPI POP PUSH1 0x1 PUSH0 DUP5 PUSH20 0xFFFFFFFFFFFFFFFFFFFFFFFFFFFFFFFFFFFFFFFF AND PUSH20 0xFFFFFFFFFFFFFFFFFFFFFFFFFFFFFFFFFFFFFFFF AND DUP2 MSTORE PUSH1 0x20 ADD SWAP1 DUP2 MSTORE PUSH1 0x20 ADD PUSH0 KECCAK256 PUSH0 ADD PUSH0 SWAP1 SLOAD SWAP1 PUSH2 0x100 EXP SWAP1 DIV PUSH1 0xFF AND ISZERO JUMPDEST DUP1 PUSH3 0xC5D JUMPI POP DUP2 PUSH20 0xFFFFFFFFFFFFFFFFFFFFFFFFFFFFFFFFFFFFFFFF AND PUSH4 0xA0484DDA PUSH1 0x40 MLOAD DUP2 PUSH4 0xFFFFFFFF AND PUSH1 0xE0 SHL DUP2 MSTORE PUSH1 0x4 ADD PUSH1 0x20 PUSH1 0x40 MLOAD DUP1 DUP4 SUB DUP2 DUP7 GAS STATICCALL ISZERO DUP1 ISZERO PUSH3 0xC35 JUMPI RETURNDATASIZE PUSH0 DUP1 RETURNDATACOPY RETURNDATASIZE PUSH0 REVERT JUMPDEST POP POP POP POP PUSH1 0x40 MLOAD RETURNDATASIZE PUSH1 0x1F NOT PUSH1 0x1F DUP3 ADD AND DUP3 ADD DUP1 PUSH1 0x40 MSTORE POP DUP2 ADD SWAP1 PUSH3 0xC5B SWAP2 SWAP1 PUSH3 0x17B9 JUMP JUMPDEST ISZERO JUMPDEST DUP1 PUSH3 0xD04 JUMPI POP DUP2 PUSH20 0xFFFFFFFFFFFFFFFFFFFFFFFFFFFFFFFFFFFFFFFF AND PUSH4 0x38AF3EED PUSH1 0x40 MLOAD DUP2 PUSH4 0xFFFFFFFF AND PUSH1 0xE0 SHL DUP2 MSTORE PUSH1 0x4 ADD PUSH1 0x20 PUSH1 0x40 MLOAD DUP1 DUP4 SUB DUP2 DUP7 GAS STATICCALL ISZERO DUP1 ISZERO PUSH3 0xCAE JUMPI RETURNDATASIZE PUSH0 DUP1 RETURNDATACOPY RETURNDATASIZE PUSH0 REVERT JUMPDEST POP POP POP POP PUSH1 0x40 MLOAD RETURNDATASIZE PUSH1 0x1F NOT PUSH1 0x1F DUP3 ADD AND DUP3 ADD DUP1 PUSH1 0x40 MSTORE POP DUP2 ADD SWAP1 PUSH3 0xCD4 SWAP2 SWAP1 PUSH3 0x1603 JUMP JUMPDEST PUSH20 0xFFFFFFFFFFFFFFFFFFFFFFFFFFFFFFFFFFFFFFFF AND DUP4 PUSH20 0xFFFFFFFFFFFFFFFFFFFFFFFFFFFFFFFFFFFFFFFF AND EQ ISZERO JUMPDEST DUP1 PUSH3 0xDCC JUMPI POP PUSH1 0x2 PUSH0 DUP5 PUSH20 0xFFFFFFFFFFFFFFFFFFFFFFFFFFFFFFFFFFFFFFFF AND PUSH20 0xFFFFFFFFFFFFFFFFFFFFFFFFFFFFFFFFFFFFFFFF AND DUP2 MSTORE PUSH1 0x20 ADD SWAP1 DUP2 MSTORE PUSH1 0x20 ADD PUSH0 KECCAK256 PUSH0 DUP4 PUSH20 0xFFFFFFFFFFFFFFFFFFFFFFFFFFFFFFFFFFFFFFFF AND PUSH20 0xFFFFFFFFFFFFFFFFFFFFFFFFFFFFFFFFFFFFFFFF AND DUP2 MSTORE PUSH1 0x20 ADD SWAP1 DUP2 MSTORE PUSH1 0x20 ADD PUSH0 KECCAK256 PUSH0 CALLER PUSH20 0xFFFFFFFFFFFFFFFFFFFFFFFFFFFFFFFFFFFFFFFF AND PUSH20 0xFFFFFFFFFFFFFFFFFFFFFFFFFFFFFFFFFFFFFFFF AND DUP2 MSTORE PUSH1 0x20 ADD SWAP1 DUP2 MSTORE PUSH1 0x20 ADD PUSH0 KECCAK256 PUSH0 SWAP1 SLOAD SWAP1 PUSH2 0x100 EXP SWAP1 DIV PUSH1 0xFF AND JUMPDEST ISZERO PUSH3 0xDDB JUMPI PUSH0 SWAP1 POP PUSH3 0xF16 JUMP JUMPDEST CALLER PUSH20 0xFFFFFFFFFFFFFFFFFFFFFFFFFFFFFFFFFFFFFFFF AND DUP3 PUSH20 0xFFFFFFFFFFFFFFFFFFFFFFFFFFFFFFFFFFFFFFFF AND PUSH4 0x91F90157 PUSH1 0x40 MLOAD DUP2 PUSH4 0xFFFFFFFF AND PUSH1 0xE0 SHL DUP2 MSTORE PUSH1 0x4 ADD PUSH1 0x20 PUSH1 0x40 MLOAD DUP1 DUP4 SUB DUP2 DUP7 GAS STATICCALL ISZERO DUP1 ISZERO PUSH3 0xE3C JUMPI RETURNDATASIZE PUSH0 DUP1 RETURNDATACOPY RETURNDATASIZE PUSH0 REVERT JUMPDEST POP POP POP POP PUSH1 0x40 MLOAD RETURNDATASIZE PUSH1 0x1F NOT PUSH1 0x1F DUP3 ADD AND DUP3 ADD DUP1 PUSH1 0x40 MSTORE POP DUP2 ADD SWAP1 PUSH3 0xE62 SWAP2 SWAP1 PUSH3 0x168F JUMP JUMPDEST PUSH20 0xFFFFFFFFFFFFFFFFFFFFFFFFFFFFFFFFFFFFFFFF AND EQ ISZERO DUP1 ISZERO PUSH3 0xF02 JUMPI POP PUSH0 DUP3 PUSH20 0xFFFFFFFFFFFFFFFFFFFFFFFFFFFFFFFFFFFFFFFF AND PUSH4 0x26B387BB CALLER PUSH1 0x40 MLOAD DUP3 PUSH4 0xFFFFFFFF AND PUSH1 0xE0 SHL DUP2 MSTORE PUSH1 0x4 ADD PUSH3 0xEBE SWAP2 SWAP1 PUSH3 0xFE6 JUMP JUMPDEST PUSH1 0x20 PUSH1 0x40 MLOAD DUP1 DUP4 SUB DUP2 DUP7 GAS STATICCALL ISZERO DUP1 ISZERO PUSH3 0xEDA JUMPI RETURNDATASIZE PUSH0 DUP1 RETURNDATACOPY RETURNDATASIZE PUSH0 REVERT JUMPDEST POP POP POP POP PUSH1 0x40 MLOAD RETURNDATASIZE PUSH1 0x1F NOT PUSH1 0x1F DUP3 ADD AND DUP3 ADD DUP1 PUSH1 0x40 MSTORE POP DUP2 ADD SWAP1 PUSH3 0xF00 SWAP2 SWAP1 PUSH3 0x1649 JUMP JUMPDEST EQ JUMPDEST ISZERO PUSH3 0xF11 JUMPI PUSH0 SWAP1 POP PUSH3 0xF16 JUMP JUMPDEST PUSH1 0x1 SWAP1 POP JUMPDEST SWAP3 SWAP2 POP POP JUMP JUMPDEST PUSH2 0x10F1 DUP1 PUSH3 0x1A29 DUP4 CODECOPY ADD SWAP1 JUMP JUMPDEST PUSH0 PUSH1 0x40 MLOAD SWAP1 POP SWAP1 JUMP JUMPDEST PUSH0 DUP1 REVERT JUMPDEST PUSH0 DUP1 REVERT JUMPDEST PUSH0 DUP2 SWAP1 POP SWAP2 SWAP1 POP JUMP JUMPDEST PUSH3 0xF4F DUP2 PUSH3 0xF3B JUMP JUMPDEST DUP2 EQ PUSH3 0xF5A JUMPI PUSH0 DUP1 REVERT JUMPDEST POP JUMP JUMPDEST PUSH0 DUP2 CALLDATALOAD SWAP1 POP PUSH3 0xF6D DUP2 PUSH3 0xF44 JUMP JUMPDEST SWAP3 SWAP2 POP POP JUMP JUMPDEST PUSH0 PUSH1 0x20 DUP3 DUP5 SUB SLT ISZERO PUSH3 0xF8B JUMPI PUSH3 0xF8A PUSH3 0xF33 JUMP JUMPDEST JUMPDEST PUSH0 PUSH3 0xF9A DUP5 DUP3 DUP6 ADD PUSH3 0xF5D JUMP JUMPDEST SWAP2 POP POP SWAP3 SWAP2 POP POP JUMP JUMPDEST PUSH0 PUSH20 0xFFFFFFFFFFFFFFFFFFFFFFFFFFFFFFFFFFFFFFFF DUP3 AND SWAP1 POP SWAP2 SWAP1 POP JUMP JUMPDEST PUSH0 PUSH3 0xFCE DUP3 PUSH3 0xFA3 JUMP JUMPDEST SWAP1 POP SWAP2 SWAP1 POP JUMP JUMPDEST PUSH3 0xFE0 DUP2 PUSH3 0xFC2 JUMP JUMPDEST DUP3 MSTORE POP POP JUMP JUMPDEST PUSH0 PUSH1 0x20 DUP3 ADD SWAP1 POP PUSH3 0xFFB PUSH0 DUP4 ADD DUP5 PUSH3 0xFD5 JUMP JUMPDEST SWAP3 SWAP2 POP POP JUMP JUMPDEST PUSH3 0x100C DUP2 PUSH3 0xFC2 JUMP JUMPDEST DUP2 EQ PUSH3 0x1017 JUMPI PUSH0 DUP1 REVERT JUMPDEST POP JUMP JUMPDEST PUSH0 DUP2 CALLDATALOAD SWAP1 POP PUSH3 0x102A DUP2 PUSH3 0x1001 JUMP JUMPDEST SWAP3 SWAP2 POP POP JUMP JUMPDEST PUSH0 PUSH1 0x20 DUP3 DUP5 SUB SLT ISZERO PUSH3 0x1048 JUMPI PUSH3 0x1047 PUSH3 0xF33 JUMP JUMPDEST JUMPDEST PUSH0 PUSH3 0x1057 DUP5 DUP3 DUP6 ADD PUSH3 0x101A JUMP JUMPDEST SWAP2 POP POP SWAP3 SWAP2 POP POP JUMP JUMPDEST PUSH0 PUSH3 0x106C DUP3 PUSH3 0xFA3 JUMP JUMPDEST SWAP1 POP SWAP2 SWAP1 POP JUMP JUMPDEST PUSH3 0x107E DUP2 PUSH3 0x1060 JUMP JUMPDEST DUP3 MSTORE POP POP JUMP JUMPDEST PUSH3 0x108F DUP2 PUSH3 0xF3B JUMP JUMPDEST DUP3 MSTORE POP POP JUMP JUMPDEST PUSH0 DUP2 MLOAD SWAP1 POP SWAP2 SWAP1 POP JUMP JUMPDEST PUSH0 DUP3 DUP3 MSTORE PUSH1 0x20 DUP3 ADD SWAP1 POP SWAP3 SWAP2 POP POP JUMP JUMPDEST PUSH0 JUMPDEST DUP4 DUP2 LT ISZERO PUSH3 0x10CE JUMPI DUP1 DUP3 ADD MLOAD DUP2 DUP5 ADD MSTORE PUSH1 0x20 DUP2 ADD SWAP1 POP PUSH3 0x10B1 JUMP JUMPDEST PUSH0 DUP5 DUP5 ADD MSTORE POP POP POP POP JUMP JUMPDEST PUSH0 PUSH1 0x1F NOT PUSH1 0x1F DUP4 ADD AND SWAP1 POP SWAP2 SWAP1 POP JUMP JUMPDEST PUSH0 PUSH3 0x10F5 DUP3 PUSH3 0x1095 JUMP JUMPDEST PUSH3 0x1101 DUP2 DUP6 PUSH3 0x109F JUMP JUMPDEST SWAP4 POP PUSH3 0x1113 DUP2 DUP6 PUSH1 0x20 DUP7 ADD PUSH3 0x10AF JUMP JUMPDEST PUSH3 0x111E DUP2 PUSH3 0x10D9 JUMP JUMPDEST DUP5 ADD SWAP2 POP POP SWAP3 SWAP2 POP POP JUMP JUMPDEST PUSH0 DUP2 ISZERO ISZERO SWAP1 POP SWAP2 SWAP1 POP JUMP JUMPDEST PUSH3 0x113F DUP2 PUSH3 0x1129 JUMP JUMPDEST DUP3 MSTORE POP POP JUMP JUMPDEST PUSH0 PUSH1 0xC0 DUP3 ADD SWAP1 POP PUSH3 0x115A PUSH0 DUP4 ADD DUP10 PUSH3 0x1073 JUMP JUMPDEST PUSH3 0x1169 PUSH1 0x20 DUP4 ADD DUP9 PUSH3 0x1084 JUMP JUMPDEST PUSH3 0x1178 PUSH1 0x40 DUP4 ADD DUP8 PUSH3 0xFD5 JUMP JUMPDEST PUSH3 0x1187 PUSH1 0x60 DUP4 ADD DUP7 PUSH3 0x1084 JUMP JUMPDEST DUP2 DUP2 SUB PUSH1 0x80 DUP4 ADD MSTORE PUSH3 0x119B DUP2 DUP6 PUSH3 0x10E9 JUMP JUMPDEST SWAP1 POP PUSH3 0x11AC PUSH1 0xA0 DUP4 ADD DUP5 PUSH3 0x1134 JUMP JUMPDEST SWAP8 SWAP7 POP POP POP POP POP POP POP JUMP JUMPDEST PUSH0 PUSH1 0xFF DUP3 AND SWAP1 POP SWAP2 SWAP1 POP JUMP JUMPDEST PUSH3 0x11CE DUP2 PUSH3 0x11B7 JUMP JUMPDEST DUP2 EQ PUSH3 0x11D9 JUMPI PUSH0 DUP1 REVERT JUMPDEST POP JUMP JUMPDEST PUSH0 DUP2 CALLDATALOAD SWAP1 POP PUSH3 0x11EC DUP2 PUSH3 0x11C3 JUMP JUMPDEST SWAP3 SWAP2 POP POP JUMP JUMPDEST PUSH0 DUP1 PUSH0 PUSH1 0x60 DUP5 DUP7 SUB SLT ISZERO PUSH3 0x120C JUMPI PUSH3 0x120B PUSH3 0xF33 JUMP JUMPDEST JUMPDEST PUSH0 PUSH3 0x121B DUP7 DUP3 DUP8 ADD PUSH3 0x101A JUMP JUMPDEST SWAP4 POP POP PUSH1 0x20 PUSH3 0x122E DUP7 DUP3 DUP8 ADD PUSH3 0x101A JUMP JUMPDEST SWAP3 POP POP PUSH1 0x40 PUSH3 0x1241 DUP7 DUP3 DUP8 ADD PUSH3 0x11DC JUMP JUMPDEST SWAP2 POP POP SWAP3 POP SWAP3 POP SWAP3 JUMP JUMPDEST PUSH0 PUSH1 0x60 DUP3 ADD SWAP1 POP PUSH3 0x1260 PUSH0 DUP4 ADD DUP7 PUSH3 0x1134 JUMP JUMPDEST PUSH3 0x126F PUSH1 0x20 DUP4 ADD DUP6 PUSH3 0x1084 JUMP JUMPDEST PUSH3 0x127E PUSH1 0x40 DUP4 ADD DUP5 PUSH3 0x1084 JUMP JUMPDEST SWAP5 SWAP4 POP POP POP POP JUMP JUMPDEST PUSH0 DUP2 MLOAD SWAP1 POP SWAP2 SWAP1 POP JUMP JUMPDEST PUSH0 DUP3 DUP3 MSTORE PUSH1 0x20 DUP3 ADD SWAP1 POP SWAP3 SWAP2 POP POP JUMP JUMPDEST PUSH0 DUP2 SWAP1 POP PUSH1 0x20 DUP3 ADD SWAP1 POP SWAP2 SWAP1 POP JUMP JUMPDEST PUSH3 0x12BA DUP2 PUSH3 0xFC2 JUMP JUMPDEST DUP3 MSTORE POP POP JUMP JUMPDEST PUSH0 PUSH3 0x12CD DUP4 DUP4 PUSH3 0x12AF JUMP JUMPDEST PUSH1 0x20 DUP4 ADD SWAP1 POP SWAP3 SWAP2 POP POP JUMP JUMPDEST PUSH0 PUSH1 0x20 DUP3 ADD SWAP1 POP SWAP2 SWAP1 POP JUMP JUMPDEST PUSH0 PUSH3 0x12F1 DUP3 PUSH3 0x1286 JUMP JUMPDEST PUSH3 0x12FD DUP2 DUP6 PUSH3 0x1290 JUMP JUMPDEST SWAP4 POP PUSH3 0x130A DUP4 PUSH3 0x12A0 JUMP JUMPDEST DUP1 PUSH0 JUMPDEST DUP4 DUP2 LT ISZERO PUSH3 0x1340 JUMPI DUP2 MLOAD PUSH3 0x1324 DUP9 DUP3 PUSH3 0x12C0 JUMP JUMPDEST SWAP8 POP PUSH3 0x1331 DUP4 PUSH3 0x12D9 JUMP JUMPDEST SWAP3 POP POP PUSH1 0x1 DUP2 ADD SWAP1 POP PUSH3 0x130D JUMP JUMPDEST POP DUP6 SWAP4 POP POP POP POP SWAP3 SWAP2 POP POP JUMP JUMPDEST PUSH0 PUSH1 0x20 DUP3 ADD SWAP1 POP DUP2 DUP2 SUB PUSH0 DUP4 ADD MSTORE PUSH3 0x1367 DUP2 DUP5 PUSH3 0x12E5 JUMP JUMPDEST SWAP1 POP SWAP3 SWAP2 POP POP JUMP JUMPDEST PUSH0 DUP1 PUSH0 PUSH1 0x60 DUP5 DUP7 SUB SLT ISZERO PUSH3 0x1389 JUMPI PUSH3 0x1388 PUSH3 0xF33 JUMP JUMPDEST JUMPDEST PUSH0 PUSH3 0x1398 DUP7 DUP3 DUP8 ADD PUSH3 0x101A JUMP JUMPDEST SWAP4 POP POP PUSH1 0x20 PUSH3 0x13AB DUP7 DUP3 DUP8 ADD PUSH3 0x101A JUMP JUMPDEST SWAP3 POP POP PUSH1 0x40 PUSH3 0x13BE DUP7 DUP3 DUP8 ADD PUSH3 0x101A JUMP JUMPDEST SWAP2 POP POP SWAP3 POP SWAP3 POP SWAP3 JUMP JUMPDEST PUSH0 PUSH1 0x20 DUP3 ADD SWAP1 POP PUSH3 0x13DD PUSH0 DUP4 ADD DUP5 PUSH3 0x1134 JUMP JUMPDEST SWAP3 SWAP2 POP POP JUMP JUMPDEST PUSH0 DUP1 REVERT JUMPDEST PUSH0 DUP1 REVERT JUMPDEST PUSH32 0x4E487B7100000000000000000000000000000000000000000000000000000000 PUSH0 MSTORE PUSH1 0x41 PUSH1 0x4 MSTORE PUSH1 0x24 PUSH0 REVERT JUMPDEST PUSH3 0x1423 DUP3 PUSH3 0x10D9 JUMP JUMPDEST DUP2 ADD DUP2 DUP2 LT PUSH8 0xFFFFFFFFFFFFFFFF DUP3 GT OR ISZERO PUSH3 0x1445 JUMPI PUSH3 0x1444 PUSH3 0x13EB JUMP JUMPDEST JUMPDEST DUP1 PUSH1 0x40 MSTORE POP POP POP JUMP JUMPDEST PUSH0 PUSH3 0x1459 PUSH3 0xF2A JUMP JUMPDEST SWAP1 POP PUSH3 0x1467 DUP3 DUP3 PUSH3 0x1418 JUMP JUMPDEST SWAP2 SWAP1 POP JUMP JUMPDEST PUSH0 PUSH8 0xFFFFFFFFFFFFFFFF DUP3 GT ISZERO PUSH3 0x1489 JUMPI PUSH3 0x1488 PUSH3 0x13EB JUMP JUMPDEST JUMPDEST PUSH3 0x1494 DUP3 PUSH3 0x10D9 JUMP JUMPDEST SWAP1 POP PUSH1 0x20 DUP2 ADD SWAP1 POP SWAP2 SWAP1 POP JUMP JUMPDEST DUP3 DUP2 DUP4 CALLDATACOPY PUSH0 DUP4 DUP4 ADD MSTORE POP POP POP JUMP JUMPDEST PUSH0 PUSH3 0x14C5 PUSH3 0x14BF DUP5 PUSH3 0x146C JUMP JUMPDEST PUSH3 0x144E JUMP JUMPDEST SWAP1 POP DUP3 DUP2 MSTORE PUSH1 0x20 DUP2 ADD DUP5 DUP5 DUP5 ADD GT ISZERO PUSH3 0x14E4 JUMPI PUSH3 0x14E3 PUSH3 0x13E7 JUMP JUMPDEST JUMPDEST PUSH3 0x14F1 DUP5 DUP3 DUP6 PUSH3 0x14A1 JUMP JUMPDEST POP SWAP4 SWAP3 POP POP POP JUMP JUMPDEST PUSH0 DUP3 PUSH1 0x1F DUP4 ADD SLT PUSH3 0x1510 JUMPI PUSH3 0x150F PUSH3 0x13E3 JUMP JUMPDEST JUMPDEST DUP2 CALLDATALOAD PUSH3 0x1522 DUP5 DUP3 PUSH1 0x20 DUP7 ADD PUSH3 0x14AF JUMP JUMPDEST SWAP2 POP POP SWAP3 SWAP2 POP POP JUMP JUMPDEST PUSH0 DUP1 PUSH1 0x40 DUP4 DUP6 SUB SLT ISZERO PUSH3 0x1544 JUMPI PUSH3 0x1543 PUSH3 0xF33 JUMP JUMPDEST JUMPDEST PUSH0 PUSH3 0x1553 DUP6 DUP3 DUP7 ADD PUSH3 0xF5D JUMP JUMPDEST SWAP3 POP POP PUSH1 0x20 DUP4 ADD CALLDATALOAD PUSH8 0xFFFFFFFFFFFFFFFF DUP2 GT ISZERO PUSH3 0x1577 JUMPI PUSH3 0x1576 PUSH3 0xF37 JUMP JUMPDEST JUMPDEST PUSH3 0x1585 DUP6 DUP3 DUP7 ADD PUSH3 0x14F9 JUMP JUMPDEST SWAP2 POP POP SWAP3 POP SWAP3 SWAP1 POP JUMP JUMPDEST PUSH0 DUP1 PUSH1 0x40 DUP4 DUP6 SUB SLT ISZERO PUSH3 0x15A8 JUMPI PUSH3 0x15A7 PUSH3 0xF33 JUMP JUMPDEST JUMPDEST PUSH0 PUSH3 0x15B7 DUP6 DUP3 DUP7 ADD PUSH3 0x101A JUMP JUMPDEST SWAP3 POP POP PUSH1 0x20 PUSH3 0x15CA DUP6 DUP3 DUP7 ADD PUSH3 0x101A JUMP JUMPDEST SWAP2 POP POP SWAP3 POP SWAP3 SWAP1 POP JUMP JUMPDEST PUSH3 0x15DF DUP2 PUSH3 0x1060 JUMP JUMPDEST DUP2 EQ PUSH3 0x15EA JUMPI PUSH0 DUP1 REVERT JUMPDEST POP JUMP JUMPDEST PUSH0 DUP2 MLOAD SWAP1 POP PUSH3 0x15FD DUP2 PUSH3 0x15D4 JUMP JUMPDEST SWAP3 SWAP2 POP POP JUMP JUMPDEST PUSH0 PUSH1 0x20 DUP3 DUP5 SUB SLT ISZERO PUSH3 0x161B JUMPI PUSH3 0x161A PUSH3 0xF33 JUMP JUMPDEST JUMPDEST PUSH0 PUSH3 0x162A DUP5 DUP3 DUP6 ADD PUSH3 0x15ED JUMP JUMPDEST SWAP2 POP POP SWAP3 SWAP2 POP POP JUMP JUMPDEST PUSH0 DUP2 MLOAD SWAP1 POP PUSH3 0x1643 DUP2 PUSH3 0xF44 JUMP JUMPDEST SWAP3 SWAP2 POP POP JUMP JUMPDEST PUSH0 PUSH1 0x20 DUP3 DUP5 SUB SLT ISZERO PUSH3 0x1661 JUMPI PUSH3 0x1660 PUSH3 0xF33 JUMP JUMPDEST JUMPDEST PUSH0 PUSH3 0x1670 DUP5 DUP3 DUP6 ADD PUSH3 0x1633 JUMP JUMPDEST SWAP2 POP POP SWAP3 SWAP2 POP POP JUMP JUMPDEST PUSH0 DUP2 MLOAD SWAP1 POP PUSH3 0x1689 DUP2 PUSH3 0x1001 JUMP JUMPDEST SWAP3 SWAP2 POP POP JUMP JUMPDEST PUSH0 PUSH1 0x20 DUP3 DUP5 SUB SLT ISZERO PUSH3 0x16A7 JUMPI PUSH3 0x16A6 PUSH3 0xF33 JUMP JUMPDEST JUMPDEST PUSH0 PUSH3 0x16B6 DUP5 DUP3 DUP6 ADD PUSH3 0x1679 JUMP JUMPDEST SWAP2 POP POP SWAP3 SWAP2 POP POP JUMP JUMPDEST PUSH0 PUSH3 0x16D5 PUSH3 0x16CF DUP5 PUSH3 0x146C JUMP JUMPDEST PUSH3 0x144E JUMP JUMPDEST SWAP1 POP DUP3 DUP2 MSTORE PUSH1 0x20 DUP2 ADD DUP5 DUP5 DUP5 ADD GT ISZERO PUSH3 0x16F4 JUMPI PUSH3 0x16F3 PUSH3 0x13E7 JUMP JUMPDEST JUMPDEST PUSH3 0x1701 DUP5 DUP3 DUP6 PUSH3 0x10AF JUMP JUMPDEST POP SWAP4 SWAP3 POP POP POP JUMP JUMPDEST PUSH0 DUP3 PUSH1 0x1F DUP4 ADD SLT PUSH3 0x1720 JUMPI PUSH3 0x171F PUSH3 0x13E3 JUMP JUMPDEST JUMPDEST DUP2 MLOAD PUSH3 0x1732 DUP5 DUP3 PUSH1 0x20 DUP7 ADD PUSH3 0x16BF JUMP JUMPDEST SWAP2 POP POP SWAP3 SWAP2 POP POP JUMP JUMPDEST PUSH0 PUSH1 0x20 DUP3 DUP5 SUB SLT ISZERO PUSH3 0x1753 JUMPI PUSH3 0x1752 PUSH3 0xF33 JUMP JUMPDEST JUMPDEST PUSH0 DUP3 ADD MLOAD PUSH8 0xFFFFFFFFFFFFFFFF DUP2 GT ISZERO PUSH3 0x1773 JUMPI PUSH3 0x1772 PUSH3 0xF37 JUMP JUMPDEST JUMPDEST PUSH3 0x1781 DUP5 DUP3 DUP6 ADD PUSH3 0x1709 JUMP JUMPDEST SWAP2 POP POP SWAP3 SWAP2 POP POP JUMP JUMPDEST PUSH3 0x1795 DUP2 PUSH3 0x1129 JUMP JUMPDEST DUP2 EQ PUSH3 0x17A0 JUMPI PUSH0 DUP1 REVERT JUMPDEST POP JUMP JUMPDEST PUSH0 DUP2 MLOAD SWAP1 POP PUSH3 0x17B3 DUP2 PUSH3 0x178A JUMP JUMPDEST SWAP3 SWAP2 POP POP JUMP JUMPDEST PUSH0 PUSH1 0x20 DUP3 DUP5 SUB SLT ISZERO PUSH3 0x17D1 JUMPI PUSH3 0x17D0 PUSH3 0xF33 JUMP JUMPDEST JUMPDEST PUSH0 PUSH3 0x17E0 DUP5 DUP3 DUP6 ADD PUSH3 0x17A3 JUMP JUMPDEST SWAP2 POP POP SWAP3 SWAP2 POP POP JUMP JUMPDEST PUSH32 0x4D6178696D756D2076616C756520666F72207261746520697320352E00000000 PUSH0 DUP3 ADD MSTORE POP JUMP JUMPDEST PUSH0 PUSH3 0x181F PUSH1 0x1C DUP4 PUSH3 0x109F JUMP JUMPDEST SWAP2 POP PUSH3 0x182C DUP3 PUSH3 0x17E9 JUMP JUMPDEST PUSH1 0x20 DUP3 ADD SWAP1 POP SWAP2 SWAP1 POP JUMP JUMPDEST PUSH0 PUSH1 0x20 DUP3 ADD SWAP1 POP DUP2 DUP2 SUB PUSH0 DUP4 ADD MSTORE PUSH3 0x1850 DUP2 PUSH3 0x1811 JUMP JUMPDEST SWAP1 POP SWAP2 SWAP1 POP JUMP JUMPDEST PUSH32 0x4D696E696D756D2076616C756520666F72207261746520697320312E00000000 PUSH0 DUP3 ADD MSTORE POP JUMP JUMPDEST PUSH0 PUSH3 0x188D PUSH1 0x1C DUP4 PUSH3 0x109F JUMP JUMPDEST SWAP2 POP PUSH3 0x189A DUP3 PUSH3 0x1857 JUMP JUMPDEST PUSH1 0x20 DUP3 ADD SWAP1 POP SWAP2 SWAP1 POP JUMP JUMPDEST PUSH0 PUSH1 0x20 DUP3 ADD SWAP1 POP DUP2 DUP2 SUB PUSH0 DUP4 ADD MSTORE PUSH3 0x18BE DUP2 PUSH3 0x187F JUMP JUMPDEST SWAP1 POP SWAP2 SWAP1 POP JUMP JUMPDEST PUSH32 0x596F75277265206E6F7420616C6C6F77656420746F20726174652E0000000000 PUSH0 DUP3 ADD MSTORE POP JUMP JUMPDEST PUSH0 PUSH3 0x18FB PUSH1 0x1B DUP4 PUSH3 0x109F JUMP JUMPDEST SWAP2 POP PUSH3 0x1908 DUP3 PUSH3 0x18C5 JUMP JUMPDEST PUSH1 0x20 DUP3 ADD SWAP1 POP SWAP2 SWAP1 POP JUMP JUMPDEST PUSH0 PUSH1 0x20 DUP3 ADD SWAP1 POP DUP2 DUP2 SUB PUSH0 DUP4 ADD MSTORE PUSH3 0x192C DUP2 PUSH3 0x18ED JUMP JUMPDEST SWAP1 POP SWAP2 SWAP1 POP JUMP JUMPDEST PUSH32 0x4E487B7100000000000000000000000000000000000000000000000000000000 PUSH0 MSTORE PUSH1 0x11 PUSH1 0x4 MSTORE PUSH1 0x24 PUSH0 REVERT JUMPDEST PUSH0 PUSH3 0x196C DUP3 PUSH3 0xF3B JUMP JUMPDEST SWAP2 POP PUSH3 0x1979 DUP4 PUSH3 0xF3B JUMP JUMPDEST SWAP3 POP DUP3 DUP3 ADD SWAP1 POP DUP1 DUP3 GT ISZERO PUSH3 0x1994 JUMPI PUSH3 0x1993 PUSH3 0x1933 JUMP JUMPDEST JUMPDEST SWAP3 SWAP2 POP POP JUMP JUMPDEST PUSH0 PUSH3 0x19A6 DUP3 PUSH3 0xF3B JUMP JUMPDEST SWAP2 POP PUSH32 0xFFFFFFFFFFFFFFFFFFFFFFFFFFFFFFFFFFFFFFFFFFFFFFFFFFFFFFFFFFFFFFFF DUP3 SUB PUSH3 0x19DB JUMPI PUSH3 0x19DA PUSH3 0x1933 JUMP JUMPDEST JUMPDEST PUSH1 0x1 DUP3 ADD SWAP1 POP SWAP2 SWAP1 POP JUMP JUMPDEST PUSH0 PUSH1 0x60 DUP3 ADD SWAP1 POP PUSH3 0x19FB PUSH0 DUP4 ADD DUP7 PUSH3 0x1084 JUMP JUMPDEST DUP2 DUP2 SUB PUSH1 0x20 DUP4 ADD MSTORE PUSH3 0x1A0F DUP2 DUP6 PUSH3 0x10E9 JUMP JUMPDEST SWAP1 POP PUSH3 0x1A20 PUSH1 0x40 DUP4 ADD DUP5 PUSH3 0x1073 JUMP JUMPDEST SWAP5 SWAP4 POP POP POP POP JUMP INVALID PUSH1 0x80 PUSH1 0x40 MSTORE CALLVALUE DUP1 ISZERO PUSH3 0x10 JUMPI PUSH0 DUP1 REVERT JUMPDEST POP PUSH1 0x40 MLOAD PUSH3 0x10F1 CODESIZE SUB DUP1 PUSH3 0x10F1 DUP4 CODECOPY DUP2 DUP2 ADD PUSH1 0x40 MSTORE DUP2 ADD SWAP1 PUSH3 0x36 SWAP2 SWAP1 PUSH3 0x2C2 JUMP JUMPDEST DUP1 PUSH0 DUP1 PUSH2 0x100 EXP DUP2 SLOAD DUP2 PUSH20 0xFFFFFFFFFFFFFFFFFFFFFFFFFFFFFFFFFFFFFFFF MUL NOT AND SWAP1 DUP4 PUSH20 0xFFFFFFFFFFFFFFFFFFFFFFFFFFFFFFFFFFFFFFFF AND MUL OR SWAP1 SSTORE POP DUP2 PUSH1 0x2 SWAP1 DUP2 PUSH3 0x86 SWAP2 SWAP1 PUSH3 0x568 JUMP JUMPDEST POP DUP3 TIMESTAMP PUSH3 0x95 SWAP2 SWAP1 PUSH3 0x679 JUMP JUMPDEST PUSH1 0x1 DUP2 SWAP1 SSTORE POP POP POP POP PUSH3 0x6B3 JUMP JUMPDEST PUSH0 PUSH1 0x40 MLOAD SWAP1 POP SWAP1 JUMP JUMPDEST PUSH0 DUP1 REVERT JUMPDEST PUSH0 DUP1 REVERT JUMPDEST PUSH0 DUP2 SWAP1 POP SWAP2 SWAP1 POP JUMP JUMPDEST PUSH3 0xC9 DUP2 PUSH3 0xB5 JUMP JUMPDEST DUP2 EQ PUSH3 0xD4 JUMPI PUSH0 DUP1 REVERT JUMPDEST POP JUMP JUMPDEST PUSH0 DUP2 MLOAD SWAP1 POP PUSH3 0xE7 DUP2 PUSH3 0xBE JUMP JUMPDEST SWAP3 SWAP2 POP POP JUMP JUMPDEST PUSH0 DUP1 REVERT JUMPDEST PUSH0 DUP1 REVERT JUMPDEST PUSH0 PUSH1 0x1F NOT PUSH1 0x1F DUP4 ADD AND SWAP1 POP SWAP2 SWAP1 POP JUMP JUMPDEST PUSH32 0x4E487B7100000000000000000000000000000000000000000000000000000000 PUSH0 MSTORE PUSH1 0x41 PUSH1 0x4 MSTORE PUSH1 0x24 PUSH0 REVERT JUMPDEST PUSH3 0x13D DUP3 PUSH3 0xF5 JUMP JUMPDEST DUP2 ADD DUP2 DUP2 LT PUSH8 0xFFFFFFFFFFFFFFFF DUP3 GT OR ISZERO PUSH3 0x15F JUMPI PUSH3 0x15E PUSH3 0x105 JUMP JUMPDEST JUMPDEST DUP1 PUSH1 0x40 MSTORE POP POP POP JUMP JUMPDEST PUSH0 PUSH3 0x173 PUSH3 0xA4 JUMP JUMPDEST SWAP1 POP PUSH3 0x181 DUP3 DUP3 PUSH3 0x132 JUMP JUMPDEST SWAP2 SWAP1 POP JUMP JUMPDEST PUSH0 PUSH8 0xFFFFFFFFFFFFFFFF DUP3 GT ISZERO PUSH3 0x1A3 JUMPI PUSH3 0x1A2 PUSH3 0x105 JUMP JUMPDEST JUMPDEST PUSH3 0x1AE DUP3 PUSH3 0xF5 JUMP JUMPDEST SWAP1 POP PUSH1 0x20 DUP2 ADD SWAP1 POP SWAP2 SWAP1 POP JUMP JUMPDEST PUSH0 JUMPDEST DUP4 DUP2 LT ISZERO PUSH3 0x1DA JUMPI DUP1 DUP3 ADD MLOAD DUP2 DUP5 ADD MSTORE PUSH1 0x20 DUP2 ADD SWAP1 POP PUSH3 0x1BD JUMP JUMPDEST PUSH0 DUP5 DUP5 ADD MSTORE POP POP POP POP JUMP JUMPDEST PUSH0 PUSH3 0x1FB PUSH3 0x1F5 DUP5 PUSH3 0x186 JUMP JUMPDEST PUSH3 0x168 JUMP JUMPDEST SWAP1 POP DUP3 DUP2 MSTORE PUSH1 0x20 DUP2 ADD DUP5 DUP5 DUP5 ADD GT ISZERO PUSH3 0x21A JUMPI PUSH3 0x219 PUSH3 0xF1 JUMP JUMPDEST JUMPDEST PUSH3 0x227 DUP5 DUP3 DUP6 PUSH3 0x1BB JUMP JUMPDEST POP SWAP4 SWAP3 POP POP POP JUMP JUMPDEST PUSH0 DUP3 PUSH1 0x1F DUP4 ADD SLT PUSH3 0x246 JUMPI PUSH3 0x245 PUSH3 0xED JUMP JUMPDEST JUMPDEST DUP2 MLOAD PUSH3 0x258 DUP5 DUP3 PUSH1 0x20 DUP7 ADD PUSH3 0x1E5 JUMP JUMPDEST SWAP2 POP POP SWAP3 SWAP2 POP POP JUMP JUMPDEST PUSH0 PUSH20 0xFFFFFFFFFFFFFFFFFFFFFFFFFFFFFFFFFFFFFFFF DUP3 AND SWAP1 POP SWAP2 SWAP1 POP JUMP JUMPDEST PUSH0 PUSH3 0x28C DUP3 PUSH3 0x261 JUMP JUMPDEST SWAP1 POP SWAP2 SWAP1 POP JUMP JUMPDEST PUSH3 0x29E DUP2 PUSH3 0x280 JUMP JUMPDEST DUP2 EQ PUSH3 0x2A9 JUMPI PUSH0 DUP1 REVERT JUMPDEST POP JUMP JUMPDEST PUSH0 DUP2 MLOAD SWAP1 POP PUSH3 0x2BC DUP2 PUSH3 0x293 JUMP JUMPDEST SWAP3 SWAP2 POP POP JUMP JUMPDEST PUSH0 DUP1 PUSH0 PUSH1 0x60 DUP5 DUP7 SUB SLT ISZERO PUSH3 0x2DC JUMPI PUSH3 0x2DB PUSH3 0xAD JUMP JUMPDEST JUMPDEST PUSH0 PUSH3 0x2EB DUP7 DUP3 DUP8 ADD PUSH3 0xD7 JUMP JUMPDEST SWAP4 POP POP PUSH1 0x20 DUP5 ADD MLOAD PUSH8 0xFFFFFFFFFFFFFFFF DUP2 GT ISZERO PUSH3 0x30F JUMPI PUSH3 0x30E PUSH3 0xB1 JUMP JUMPDEST JUMPDEST PUSH3 0x31D DUP7 DUP3 DUP8 ADD PUSH3 0x22F JUMP JUMPDEST SWAP3 POP POP PUSH1 0x40 PUSH3 0x330 DUP7 DUP3 DUP8 ADD PUSH3 0x2AC JUMP JUMPDEST SWAP2 POP POP SWAP3 POP SWAP3 POP SWAP3 JUMP JUMPDEST PUSH0 DUP2 MLOAD SWAP1 POP SWAP2 SWAP1 POP JUMP JUMPDEST PUSH32 0x4E487B7100000000000000000000000000000000000000000000000000000000 PUSH0 MSTORE PUSH1 0x22 PUSH1 0x4 MSTORE PUSH1 0x24 PUSH0 REVERT JUMPDEST PUSH0 PUSH1 0x2 DUP3 DIV SWAP1 POP PUSH1 0x1 DUP3 AND DUP1 PUSH3 0x389 JUMPI PUSH1 0x7F DUP3 AND SWAP2 POP JUMPDEST PUSH1 0x20 DUP3 LT DUP2 SUB PUSH3 0x39F JUMPI PUSH3 0x39E PUSH3 0x344 JUMP JUMPDEST JUMPDEST POP SWAP2 SWAP1 POP JUMP JUMPDEST PUSH0 DUP2 SWAP1 POP DUP2 PUSH0 MSTORE PUSH1 0x20 PUSH0 KECCAK256 SWAP1 POP SWAP2 SWAP1 POP JUMP JUMPDEST PUSH0 PUSH1 0x20 PUSH1 0x1F DUP4 ADD DIV SWAP1 POP SWAP2 SWAP1 POP JUMP JUMPDEST PUSH0 DUP3 DUP3 SHL SWAP1 POP SWAP3 SWAP2 POP POP JUMP JUMPDEST PUSH0 PUSH1 0x8 DUP4 MUL PUSH3 0x403 PUSH32 0xFFFFFFFFFFFFFFFFFFFFFFFFFFFFFFFFFFFFFFFFFFFFFFFFFFFFFFFFFFFFFFFF DUP3 PUSH3 0x3C6 JUMP JUMPDEST PUSH3 0x40F DUP7 DUP4 PUSH3 0x3C6 JUMP JUMPDEST SWAP6 POP DUP1 NOT DUP5 AND SWAP4 POP DUP1 DUP7 AND DUP5 OR SWAP3 POP POP POP SWAP4 SWAP3 POP POP POP JUMP JUMPDEST PUSH0 DUP2 SWAP1 POP SWAP2 SWAP1 POP JUMP JUMPDEST PUSH0 PUSH3 0x450 PUSH3 0x44A PUSH3 0x444 DUP5 PUSH3 0xB5 JUMP JUMPDEST PUSH3 0x427 JUMP JUMPDEST PUSH3 0xB5 JUMP JUMPDEST SWAP1 POP SWAP2 SWAP1 POP JUMP JUMPDEST PUSH0 DUP2 SWAP1 POP SWAP2 SWAP1 POP JUMP JUMPDEST PUSH3 0x46B DUP4 PUSH3 0x430 JUMP JUMPDEST PUSH3 0x483 PUSH3 0x47A DUP3 PUSH3 0x457 JUMP JUMPDEST DUP5 DUP5 SLOAD PUSH3 0x3D2 JUMP JUMPDEST DUP3 SSTORE POP POP POP POP JUMP JUMPDEST PUSH0 SWAP1 JUMP JUMPDEST PUSH3 0x499 PUSH3 0x48B JUMP JUMPDEST PUSH3 0x4A6 DUP2 DUP5 DUP5 PUSH3 0x460 JUMP JUMPDEST POP POP POP JUMP JUMPDEST JUMPDEST DUP2 DUP2 LT ISZERO PUSH3 0x4CD JUMPI PUSH3 0x4C1 PUSH0 DUP3 PUSH3 0x48F JUMP JUMPDEST PUSH1 0x1 DUP2 ADD SWAP1 POP PUSH3 0x4AC JUMP JUMPDEST POP POP JUMP JUMPDEST PUSH1 0x1F DUP3 GT ISZERO PUSH3 0x51C JUMPI PUSH3 0x4E6 DUP2 PUSH3 0x3A5 JUMP JUMPDEST PUSH3 0x4F1 DUP5 PUSH3 0x3B7 JUMP JUMPDEST DUP2 ADD PUSH1 0x20 DUP6 LT ISZERO PUSH3 0x501 JUMPI DUP2 SWAP1 POP JUMPDEST PUSH3 0x519 PUSH3 0x510 DUP6 PUSH3 0x3B7 JUMP JUMPDEST DUP4 ADD DUP3 PUSH3 0x4AB JUMP JUMPDEST POP POP JUMPDEST POP POP POP JUMP JUMPDEST PUSH0 DUP3 DUP3 SHR SWAP1 POP SWAP3 SWAP2 POP POP JUMP JUMPDEST PUSH0 PUSH3 0x53E PUSH0 NOT DUP5 PUSH1 0x8 MUL PUSH3 0x521 JUMP JUMPDEST NOT DUP1 DUP4 AND SWAP2 POP POP SWAP3 SWAP2 POP POP JUMP JUMPDEST PUSH0 PUSH3 0x558 DUP4 DUP4 PUSH3 0x52D JUMP JUMPDEST SWAP2 POP DUP3 PUSH1 0x2 MUL DUP3 OR SWAP1 POP SWAP3 SWAP2 POP POP JUMP JUMPDEST PUSH3 0x573 DUP3 PUSH3 0x33A JUMP JUMPDEST PUSH8 0xFFFFFFFFFFFFFFFF DUP2 GT ISZERO PUSH3 0x58F JUMPI PUSH3 0x58E PUSH3 0x105 JUMP JUMPDEST JUMPDEST PUSH3 0x59B DUP3 SLOAD PUSH3 0x371 JUMP JUMPDEST PUSH3 0x5A8 DUP3 DUP3 DUP6 PUSH3 0x4D1 JUMP JUMPDEST PUSH0 PUSH1 0x20 SWAP1 POP PUSH1 0x1F DUP4 GT PUSH1 0x1 DUP2 EQ PUSH3 0x5DE JUMPI PUSH0 DUP5 ISZERO PUSH3 0x5C9 JUMPI DUP3 DUP8 ADD MLOAD SWAP1 POP JUMPDEST PUSH3 0x5D5 DUP6 DUP3 PUSH3 0x54B JUMP JUMPDEST DUP7 SSTORE POP PUSH3 0x644 JUMP JUMPDEST PUSH1 0x1F NOT DUP5 AND PUSH3 0x5EE DUP7 PUSH3 0x3A5 JUMP JUMPDEST PUSH0 JUMPDEST DUP3 DUP2 LT ISZERO PUSH3 0x617 JUMPI DUP5 DUP10 ADD MLOAD DUP3 SSTORE PUSH1 0x1 DUP3 ADD SWAP2 POP PUSH1 0x20 DUP6 ADD SWAP5 POP PUSH1 0x20 DUP2 ADD SWAP1 POP PUSH3 0x5F0 JUMP JUMPDEST DUP7 DUP4 LT ISZERO PUSH3 0x637 JUMPI DUP5 DUP10 ADD MLOAD PUSH3 0x633 PUSH1 0x1F DUP10 AND DUP3 PUSH3 0x52D JUMP JUMPDEST DUP4 SSTORE POP JUMPDEST PUSH1 0x1 PUSH1 0x2 DUP9 MUL ADD DUP9 SSTORE POP POP POP JUMPDEST POP POP POP POP POP POP JUMP JUMPDEST PUSH32 0x4E487B7100000000000000000000000000000000000000000000000000000000 PUSH0 MSTORE PUSH1 0x11 PUSH1 0x4 MSTORE PUSH1 0x24 PUSH0 REVERT JUMPDEST PUSH0 PUSH3 0x685 DUP3 PUSH3 0xB5 JUMP JUMPDEST SWAP2 POP PUSH3 0x692 DUP4 PUSH3 0xB5 JUMP JUMPDEST SWAP3 POP DUP3 DUP3 ADD SWAP1 POP DUP1 DUP3 GT ISZERO PUSH3 0x6AD JUMPI PUSH3 0x6AC PUSH3 0x64C JUMP JUMPDEST JUMPDEST SWAP3 SWAP2 POP POP JUMP JUMPDEST PUSH2 0xA30 DUP1 PUSH3 0x6C1 PUSH0 CODECOPY PUSH0 RETURN INVALID PUSH1 0x80 PUSH1 0x40 MSTORE PUSH1 0x4 CALLDATASIZE LT PUSH2 0x90 JUMPI PUSH0 CALLDATALOAD PUSH1 0xE0 SHR DUP1 PUSH4 0x4B449CBA GT PUSH2 0x58 JUMPI DUP1 PUSH4 0x4B449CBA EQ PUSH2 0x144 JUMPI DUP1 PUSH4 0x91F90157 EQ PUSH2 0x16E JUMPI DUP1 PUSH4 0xA0484DDA EQ PUSH2 0x198 JUMPI DUP1 PUSH4 0xC63D99DB EQ PUSH2 0x1C2 JUMPI DUP1 PUSH4 0xD57BDE79 EQ PUSH2 0x1EC JUMPI PUSH2 0x90 JUMP JUMPDEST DUP1 PUSH4 0x1998AEEF EQ PUSH2 0x94 JUMPI DUP1 PUSH4 0x26B387BB EQ PUSH2 0x9E JUMPI DUP1 PUSH4 0x2A24F46C EQ PUSH2 0xDA JUMPI DUP1 PUSH4 0x38AF3EED EQ PUSH2 0xF0 JUMPI DUP1 PUSH4 0x3CCFD60B EQ PUSH2 0x11A JUMPI JUMPDEST PUSH0 DUP1 REVERT JUMPDEST PUSH2 0x9C PUSH2 0x216 JUMP JUMPDEST STOP JUMPDEST CALLVALUE DUP1 ISZERO PUSH2 0xA9 JUMPI PUSH0 DUP1 REVERT JUMPDEST POP PUSH2 0xC4 PUSH1 0x4 DUP1 CALLDATASIZE SUB DUP2 ADD SWAP1 PUSH2 0xBF SWAP2 SWAP1 PUSH2 0x77C JUMP JUMPDEST PUSH2 0x39C JUMP JUMPDEST PUSH1 0x40 MLOAD PUSH2 0xD1 SWAP2 SWAP1 PUSH2 0x7BF JUMP JUMPDEST PUSH1 0x40 MLOAD DUP1 SWAP2 SUB SWAP1 RETURN JUMPDEST CALLVALUE DUP1 ISZERO PUSH2 0xE5 JUMPI PUSH0 DUP1 REVERT JUMPDEST POP PUSH2 0xEE PUSH2 0x3B1 JUMP JUMPDEST STOP JUMPDEST CALLVALUE DUP1 ISZERO PUSH2 0xFB JUMPI PUSH0 DUP1 REVERT JUMPDEST POP PUSH2 0x104 PUSH2 0x510 JUMP JUMPDEST PUSH1 0x40 MLOAD PUSH2 0x111 SWAP2 SWAP1 PUSH2 0x7F8 JUMP JUMPDEST PUSH1 0x40 MLOAD DUP1 SWAP2 SUB SWAP1 RETURN JUMPDEST CALLVALUE DUP1 ISZERO PUSH2 0x125 JUMPI PUSH0 DUP1 REVERT JUMPDEST POP PUSH2 0x12E PUSH2 0x533 JUMP JUMPDEST PUSH1 0x40 MLOAD PUSH2 0x13B SWAP2 SWAP1 PUSH2 0x82B JUMP JUMPDEST PUSH1 0x40 MLOAD DUP1 SWAP2 SUB SWAP1 RETURN JUMPDEST CALLVALUE DUP1 ISZERO PUSH2 0x14F JUMPI PUSH0 DUP1 REVERT JUMPDEST POP PUSH2 0x158 PUSH2 0x64C JUMP JUMPDEST PUSH1 0x40 MLOAD PUSH2 0x165 SWAP2 SWAP1 PUSH2 0x7BF JUMP JUMPDEST PUSH1 0x40 MLOAD DUP1 SWAP2 SUB SWAP1 RETURN JUMPDEST CALLVALUE DUP1 ISZERO PUSH2 0x179 JUMPI PUSH0 DUP1 REVERT JUMPDEST POP PUSH2 0x182 PUSH2 0x652 JUMP JUMPDEST PUSH1 0x40 MLOAD PUSH2 0x18F SWAP2 SWAP1 PUSH2 0x853 JUMP JUMPDEST PUSH1 0x40 MLOAD DUP1 SWAP2 SUB SWAP1 RETURN JUMPDEST CALLVALUE DUP1 ISZERO PUSH2 0x1A3 JUMPI PUSH0 DUP1 REVERT JUMPDEST POP PUSH2 0x1AC PUSH2 0x677 JUMP JUMPDEST PUSH1 0x40 MLOAD PUSH2 0x1B9 SWAP2 SWAP1 PUSH2 0x82B JUMP JUMPDEST PUSH1 0x40 MLOAD DUP1 SWAP2 SUB SWAP1 RETURN JUMPDEST CALLVALUE DUP1 ISZERO PUSH2 0x1CD JUMPI PUSH0 DUP1 REVERT JUMPDEST POP PUSH2 0x1D6 PUSH2 0x68C JUMP JUMPDEST PUSH1 0x40 MLOAD PUSH2 0x1E3 SWAP2 SWAP1 PUSH2 0x8F6 JUMP JUMPDEST PUSH1 0x40 MLOAD DUP1 SWAP2 SUB SWAP1 RETURN JUMPDEST CALLVALUE DUP1 ISZERO PUSH2 0x1F7 JUMPI PUSH0 DUP1 REVERT JUMPDEST POP PUSH2 0x200 PUSH2 0x718 JUMP JUMPDEST PUSH1 0x40 MLOAD PUSH2 0x20D SWAP2 SWAP1 PUSH2 0x7BF JUMP JUMPDEST PUSH1 0x40 MLOAD DUP1 SWAP2 SUB SWAP1 RETURN JUMPDEST PUSH1 0x1 SLOAD TIMESTAMP GT ISZERO PUSH2 0x252 JUMPI PUSH1 0x40 MLOAD PUSH32 0xD02E774D00000000000000000000000000000000000000000000000000000000 DUP2 MSTORE PUSH1 0x4 ADD PUSH1 0x40 MLOAD DUP1 SWAP2 SUB SWAP1 REVERT JUMPDEST PUSH1 0x4 SLOAD CALLVALUE GT PUSH2 0x29A JUMPI PUSH1 0x4 SLOAD PUSH1 0x40 MLOAD PUSH32 0x4E12C1BB00000000000000000000000000000000000000000000000000000000 DUP2 MSTORE PUSH1 0x4 ADD PUSH2 0x291 SWAP2 SWAP1 PUSH2 0x7BF JUMP JUMPDEST PUSH1 0x40 MLOAD DUP1 SWAP2 SUB SWAP1 REVERT JUMPDEST PUSH0 PUSH1 0x4 SLOAD EQ PUSH2 0x31A JUMPI PUSH1 0x4 SLOAD PUSH1 0x5 PUSH0 PUSH1 0x3 PUSH0 SWAP1 SLOAD SWAP1 PUSH2 0x100 EXP SWAP1 DIV PUSH20 0xFFFFFFFFFFFFFFFFFFFFFFFFFFFFFFFFFFFFFFFF AND PUSH20 0xFFFFFFFFFFFFFFFFFFFFFFFFFFFFFFFFFFFFFFFF AND PUSH20 0xFFFFFFFFFFFFFFFFFFFFFFFFFFFFFFFFFFFFFFFF AND DUP2 MSTORE PUSH1 0x20 ADD SWAP1 DUP2 MSTORE PUSH1 0x20 ADD PUSH0 KECCAK256 PUSH0 DUP3 DUP3 SLOAD PUSH2 0x312 SWAP2 SWAP1 PUSH2 0x943 JUMP JUMPDEST SWAP3 POP POP DUP2 SWAP1 SSTORE POP JUMPDEST CALLER PUSH1 0x3 PUSH0 PUSH2 0x100 EXP DUP2 SLOAD DUP2 PUSH20 0xFFFFFFFFFFFFFFFFFFFFFFFFFFFFFFFFFFFFFFFF MUL NOT AND SWAP1 DUP4 PUSH20 0xFFFFFFFFFFFFFFFFFFFFFFFFFFFFFFFFFFFFFFFF AND MUL OR SWAP1 SSTORE POP CALLVALUE PUSH1 0x4 DUP2 SWAP1 SSTORE POP PUSH32 0xF4757A49B326036464BEC6FE419A4AE38C8A02CE3E68BF0809674F6AAB8AD300 CALLER CALLVALUE PUSH1 0x40 MLOAD PUSH2 0x392 SWAP3 SWAP2 SWAP1 PUSH2 0x976 JUMP JUMPDEST PUSH1 0x40 MLOAD DUP1 SWAP2 SUB SWAP1 LOG1 JUMP JUMPDEST PUSH1 0x5 PUSH1 0x20 MSTORE DUP1 PUSH0 MSTORE PUSH1 0x40 PUSH0 KECCAK256 PUSH0 SWAP2 POP SWAP1 POP SLOAD DUP2 JUMP JUMPDEST PUSH1 0x1 SLOAD TIMESTAMP LT ISZERO PUSH2 0x3ED JUMPI PUSH1 0x40 MLOAD PUSH32 0x44CEE29000000000000000000000000000000000000000000000000000000000 DUP2 MSTORE PUSH1 0x4 ADD PUSH1 0x40 MLOAD DUP1 SWAP2 SUB SWAP1 REVERT JUMPDEST PUSH1 0x6 PUSH0 SWAP1 SLOAD SWAP1 PUSH2 0x100 EXP SWAP1 DIV PUSH1 0xFF AND ISZERO PUSH2 0x433 JUMPI PUSH1 0x40 MLOAD PUSH32 0x61CFDCF800000000000000000000000000000000000000000000000000000000 DUP2 MSTORE PUSH1 0x4 ADD PUSH1 0x40 MLOAD DUP1 SWAP2 SUB SWAP1 REVERT JUMPDEST PUSH1 0x1 PUSH1 0x6 PUSH0 PUSH2 0x100 EXP DUP2 SLOAD DUP2 PUSH1 0xFF MUL NOT AND SWAP1 DUP4 ISZERO ISZERO MUL OR SWAP1 SSTORE POP PUSH32 0xDAEC4582D5D9595688C8C98545FDD1C696D41C6AEAEB636737E84ED2F5C00EDA PUSH1 0x3 PUSH0 SWAP1 SLOAD SWAP1 PUSH2 0x100 EXP SWAP1 DIV PUSH20 0xFFFFFFFFFFFFFFFFFFFFFFFFFFFFFFFFFFFFFFFF AND PUSH1 0x4 SLOAD PUSH1 0x40 MLOAD PUSH2 0x4A1 SWAP3 SWAP2 SWAP1 PUSH2 0x976 JUMP JUMPDEST PUSH1 0x40 MLOAD DUP1 SWAP2 SUB SWAP1 LOG1 PUSH0 DUP1 SLOAD SWAP1 PUSH2 0x100 EXP SWAP1 DIV PUSH20 0xFFFFFFFFFFFFFFFFFFFFFFFFFFFFFFFFFFFFFFFF AND PUSH20 0xFFFFFFFFFFFFFFFFFFFFFFFFFFFFFFFFFFFFFFFF AND PUSH2 0x8FC PUSH1 0x4 SLOAD SWAP1 DUP2 ISZERO MUL SWAP1 PUSH1 0x40 MLOAD PUSH0 PUSH1 0x40 MLOAD DUP1 DUP4 SUB DUP2 DUP6 DUP9 DUP9 CALL SWAP4 POP POP POP POP ISZERO DUP1 ISZERO PUSH2 0x50D JUMPI RETURNDATASIZE PUSH0 DUP1 RETURNDATACOPY RETURNDATASIZE PUSH0 REVERT JUMPDEST POP JUMP JUMPDEST PUSH0 DUP1 SLOAD SWAP1 PUSH2 0x100 EXP SWAP1 DIV PUSH20 0xFFFFFFFFFFFFFFFFFFFFFFFFFFFFFFFFFFFFFFFF AND DUP2 JUMP JUMPDEST PUSH0 DUP1 PUSH1 0x5 PUSH0 CALLER PUSH20 0xFFFFFFFFFFFFFFFFFFFFFFFFFFFFFFFFFFFFFFFF AND PUSH20 0xFFFFFFFFFFFFFFFFFFFFFFFFFFFFFFFFFFFFFFFF AND DUP2 MSTORE PUSH1 0x20 ADD SWAP1 DUP2 MSTORE PUSH1 0x20 ADD PUSH0 KECCAK256 SLOAD SWAP1 POP PUSH0 DUP2 GT ISZERO PUSH2 0x643 JUMPI PUSH0 PUSH1 0x5 PUSH0 CALLER PUSH20 0xFFFFFFFFFFFFFFFFFFFFFFFFFFFFFFFFFFFFFFFF AND PUSH20 0xFFFFFFFFFFFFFFFFFFFFFFFFFFFFFFFFFFFFFFFF AND DUP2 MSTORE PUSH1 0x20 ADD SWAP1 DUP2 MSTORE PUSH1 0x20 ADD PUSH0 KECCAK256 DUP2 SWAP1 SSTORE POP CALLER PUSH20 0xFFFFFFFFFFFFFFFFFFFFFFFFFFFFFFFFFFFFFFFF AND PUSH2 0x8FC DUP3 SWAP1 DUP2 ISZERO MUL SWAP1 PUSH1 0x40 MLOAD PUSH0 PUSH1 0x40 MLOAD DUP1 DUP4 SUB DUP2 DUP6 DUP9 DUP9 CALL SWAP4 POP POP POP POP PUSH2 0x642 JUMPI DUP1 PUSH1 0x5 PUSH0 CALLER PUSH20 0xFFFFFFFFFFFFFFFFFFFFFFFFFFFFFFFFFFFFFFFF AND PUSH20 0xFFFFFFFFFFFFFFFFFFFFFFFFFFFFFFFFFFFFFFFF AND DUP2 MSTORE PUSH1 0x20 ADD SWAP1 DUP2 MSTORE PUSH1 0x20 ADD PUSH0 KECCAK256 DUP2 SWAP1 SSTORE POP PUSH0 SWAP2 POP POP PUSH2 0x649 JUMP JUMPDEST JUMPDEST PUSH1 0x1 SWAP2 POP POP JUMPDEST SWAP1 JUMP JUMPDEST PUSH1 0x1 SLOAD DUP2 JUMP JUMPDEST PUSH1 0x3 PUSH0 SWAP1 SLOAD SWAP1 PUSH2 0x100 EXP SWAP1 DIV PUSH20 0xFFFFFFFFFFFFFFFFFFFFFFFFFFFFFFFFFFFFFFFF AND DUP2 JUMP JUMPDEST PUSH0 PUSH1 0x6 PUSH0 SWAP1 SLOAD SWAP1 PUSH2 0x100 EXP SWAP1 DIV PUSH1 0xFF AND SWAP1 POP SWAP1 JUMP JUMPDEST PUSH1 0x2 DUP1 SLOAD PUSH2 0x699 SWAP1 PUSH2 0x9CA JUMP JUMPDEST DUP1 PUSH1 0x1F ADD PUSH1 0x20 DUP1 SWAP2 DIV MUL PUSH1 0x20 ADD PUSH1 0x40 MLOAD SWAP1 DUP2 ADD PUSH1 0x40 MSTORE DUP1 SWAP3 SWAP2 SWAP1 DUP2 DUP2 MSTORE PUSH1 0x20 ADD DUP3 DUP1 SLOAD PUSH2 0x6C5 SWAP1 PUSH2 0x9CA JUMP JUMPDEST DUP1 ISZERO PUSH2 0x710 JUMPI DUP1 PUSH1 0x1F LT PUSH2 0x6E7 JUMPI PUSH2 0x100 DUP1 DUP4 SLOAD DIV MUL DUP4 MSTORE SWAP2 PUSH1 0x20 ADD SWAP2 PUSH2 0x710 JUMP JUMPDEST DUP3 ADD SWAP2 SWAP1 PUSH0 MSTORE PUSH1 0x20 PUSH0 KECCAK256 SWAP1 JUMPDEST DUP2 SLOAD DUP2 MSTORE SWAP1 PUSH1 0x1 ADD SWAP1 PUSH1 0x20 ADD DUP1 DUP4 GT PUSH2 0x6F3 JUMPI DUP3 SWAP1 SUB PUSH1 0x1F AND DUP3 ADD SWAP2 JUMPDEST POP POP POP POP POP DUP2 JUMP JUMPDEST PUSH1 0x4 SLOAD DUP2 JUMP JUMPDEST PUSH0 DUP1 REVERT JUMPDEST PUSH0 PUSH20 0xFFFFFFFFFFFFFFFFFFFFFFFFFFFFFFFFFFFFFFFF DUP3 AND SWAP1 POP SWAP2 SWAP1 POP JUMP JUMPDEST PUSH0 PUSH2 0x74B DUP3 PUSH2 0x722 JUMP JUMPDEST SWAP1 POP SWAP2 SWAP1 POP JUMP JUMPDEST PUSH2 0x75B DUP2 PUSH2 0x741 JUMP JUMPDEST DUP2 EQ PUSH2 0x765 JUMPI PUSH0 DUP1 REVERT JUMPDEST POP JUMP JUMPDEST PUSH0 DUP2 CALLDATALOAD SWAP1 POP PUSH2 0x776 DUP2 PUSH2 0x752 JUMP JUMPDEST SWAP3 SWAP2 POP POP JUMP JUMPDEST PUSH0 PUSH1 0x20 DUP3 DUP5 SUB SLT ISZERO PUSH2 0x791 JUMPI PUSH2 0x790 PUSH2 0x71E JUMP JUMPDEST JUMPDEST PUSH0 PUSH2 0x79E DUP5 DUP3 DUP6 ADD PUSH2 0x768 JUMP JUMPDEST SWAP2 POP POP SWAP3 SWAP2 POP POP JUMP JUMPDEST PUSH0 DUP2 SWAP1 POP SWAP2 SWAP1 POP JUMP JUMPDEST PUSH2 0x7B9 DUP2 PUSH2 0x7A7 JUMP JUMPDEST DUP3 MSTORE POP POP JUMP JUMPDEST PUSH0 PUSH1 0x20 DUP3 ADD SWAP1 POP PUSH2 0x7D2 PUSH0 DUP4 ADD DUP5 PUSH2 0x7B0 JUMP JUMPDEST SWAP3 SWAP2 POP POP JUMP JUMPDEST PUSH0 PUSH2 0x7E2 DUP3 PUSH2 0x722 JUMP JUMPDEST SWAP1 POP SWAP2 SWAP1 POP JUMP JUMPDEST PUSH2 0x7F2 DUP2 PUSH2 0x7D8 JUMP JUMPDEST DUP3 MSTORE POP POP JUMP JUMPDEST PUSH0 PUSH1 0x20 DUP3 ADD SWAP1 POP PUSH2 0x80B PUSH0 DUP4 ADD DUP5 PUSH2 0x7E9 JUMP JUMPDEST SWAP3 SWAP2 POP POP JUMP JUMPDEST PUSH0 DUP2 ISZERO ISZERO SWAP1 POP SWAP2 SWAP1 POP JUMP JUMPDEST PUSH2 0x825 DUP2 PUSH2 0x811 JUMP JUMPDEST DUP3 MSTORE POP POP JUMP JUMPDEST PUSH0 PUSH1 0x20 DUP3 ADD SWAP1 POP PUSH2 0x83E PUSH0 DUP4 ADD DUP5 PUSH2 0x81C JUMP JUMPDEST SWAP3 SWAP2 POP POP JUMP JUMPDEST PUSH2 0x84D DUP2 PUSH2 0x741 JUMP JUMPDEST DUP3 MSTORE POP POP JUMP JUMPDEST PUSH0 PUSH1 0x20 DUP3 ADD SWAP1 POP PUSH2 0x866 PUSH0 DUP4 ADD DUP5 PUSH2 0x844 JUMP JUMPDEST SWAP3 SWAP2 POP POP JUMP JUMPDEST PUSH0 DUP2 MLOAD SWAP1 POP SWAP2 SWAP1 POP JUMP JUMPDEST PUSH0 DUP3 DUP3 MSTORE PUSH1 0x20 DUP3 ADD SWAP1 POP SWAP3 SWAP2 POP POP JUMP JUMPDEST PUSH0 JUMPDEST DUP4 DUP2 LT ISZERO PUSH2 0x8A3 JUMPI DUP1 DUP3 ADD MLOAD DUP2 DUP5 ADD MSTORE PUSH1 0x20 DUP2 ADD SWAP1 POP PUSH2 0x888 JUMP JUMPDEST PUSH0 DUP5 DUP5 ADD MSTORE POP POP POP POP JUMP JUMPDEST PUSH0 PUSH1 0x1F NOT PUSH1 0x1F DUP4 ADD AND SWAP1 POP SWAP2 SWAP1 POP JUMP JUMPDEST PUSH0 PUSH2 0x8C8 DUP3 PUSH2 0x86C JUMP JUMPDEST PUSH2 0x8D2 DUP2 DUP6 PUSH2 0x876 JUMP JUMPDEST SWAP4 POP PUSH2 0x8E2 DUP2 DUP6 PUSH1 0x20 DUP7 ADD PUSH2 0x886 JUMP JUMPDEST PUSH2 0x8EB DUP2 PUSH2 0x8AE JUMP JUMPDEST DUP5 ADD SWAP2 POP POP SWAP3 SWAP2 POP POP JUMP JUMPDEST PUSH0 PUSH1 0x20 DUP3 ADD SWAP1 POP DUP2 DUP2 SUB PUSH0 DUP4 ADD MSTORE PUSH2 0x90E DUP2 DUP5 PUSH2 0x8BE JUMP JUMPDEST SWAP1 POP SWAP3 SWAP2 POP POP JUMP JUMPDEST PUSH32 0x4E487B7100000000000000000000000000000000000000000000000000000000 PUSH0 MSTORE PUSH1 0x11 PUSH1 0x4 MSTORE PUSH1 0x24 PUSH0 REVERT JUMPDEST PUSH0 PUSH2 0x94D DUP3 PUSH2 0x7A7 JUMP JUMPDEST SWAP2 POP PUSH2 0x958 DUP4 PUSH2 0x7A7 JUMP JUMPDEST SWAP3 POP DUP3 DUP3 ADD SWAP1 POP DUP1 DUP3 GT ISZERO PUSH2 0x970 JUMPI PUSH2 0x96F PUSH2 0x916 JUMP JUMPDEST JUMPDEST SWAP3 SWAP2 POP POP JUMP JUMPDEST PUSH0 PUSH1 0x40 DUP3 ADD SWAP1 POP PUSH2 0x989 PUSH0 DUP4 ADD DUP6 PUSH2 0x844 JUMP JUMPDEST PUSH2 0x996 PUSH1 0x20 DUP4 ADD DUP5 PUSH2 0x7B0 JUMP JUMPDEST SWAP4 SWAP3 POP POP POP JUMP JUMPDEST PUSH32 0x4E487B7100000000000000000000000000000000000000000000000000000000 PUSH0 MSTORE PUSH1 0x22 PUSH1 0x4 MSTORE PUSH1 0x24 PUSH0 REVERT JUMPDEST PUSH0 PUSH1 0x2 DUP3 DIV SWAP1 POP PUSH1 0x1 DUP3 AND DUP1 PUSH2 0x9E1 JUMPI PUSH1 0x7F DUP3 AND SWAP2 POP JUMPDEST PUSH1 0x20 DUP3 LT DUP2 SUB PUSH2 0x9F4 JUMPI PUSH2 0x9F3 PUSH2 0x99D JUMP JUMPDEST JUMPDEST POP SWAP2 SWAP1 POP JUMP INVALID LOG2 PUSH5 0x6970667358 0x22 SLT KECCAK256 SWAP6 DIV MSIZE LOG1 SDIV RETURN 0xD3 PUSH1 0xEB SWAP10 SWAP9 SWAP2 0xC7 0xCC EXTCODEHASH COINBASE PUSH13 0xB94948830BE0EEBB179761AD3F 0xC5 0x2C PUSH5 0x736F6C6343 STOP ADDMOD EQ STOP CALLER LOG2 PUSH5 0x6970667358 0x22 SLT KECCAK256 TIMESTAMP MULMOD 0xCD LOG3 ADD PUSH21 0x660ACD9AEA6A14D17AA5C59CBA17A918BA06A96489 POP 0xD5 0xC GASPRICE ADDMOD PUSH5 0x736F6C6343 STOP ADDMOD EQ STOP CALLER "},"gasEstimates":{"creation":{"codeDepositCost":"2217400","executionCost":"2366","totalCost":"2219766"},"external":{"allAuctions(uint256)":"4967","canRate(address,address)":"infinite","createAuction(uint256,string)":"infinite","getAllAuctions()":"infinite","getAuctionDetails(address)":"infinite","getOwners()":"infinite","hasVoted(address,address,address)":"infinite","owners(uint256)":"4944","rate(address,address,uint8)":"infinite","ratings(address)":"infinite"}},"methodIdentifiers":{"allAuctions(uint256)":"165c5881","canRate(address,address)":"cca56666","createAuction(uint256,string)":"adaa1992","getAllAuctions()":"cbd2bdfd","getAuctionDetails(address)":"7f593d9e","getOwners()":"a0e67e2b","hasVoted(address,address,address)":"a44f83e5","owners(uint256)":"025e7c27","rate(address,address,uint8)":"977bd705","ratings(address)":"9e01dfbb"}},"storageLayout":{"storage":[{"astId":225,"contract":"AuctionFactory.sol:AuctionFactory","label":"owners","offset":0,"slot":"0","type":"t_array(t_address)dyn_storage"},{"astId":230,"contract":"AuctionFactory.sol:AuctionFactory","label":"ratings","offset":0,"slot":"1","type":"t_mapping(t_address,t_struct(Organiser)222_storage)"},{"astId":238,"contract":"AuctionFactory.sol:AuctionFactory","label":"hasVoted","offset":0,"slot":"2","type":"t_mapping(t_address,t_mapping(t_address,t_mapping(t_address,t_bool)))"},{"astId":241,"contract":"AuctionFactory.sol:AuctionFactory","label":"allAuctions","offset":0,"slot":"3","type":"t_array(t_address)dyn_storage"}],"types":{"t_address":{"encoding":"inplace","label":"address","numberOfBytes":"20"},"t_array(t_address)dyn_storage":{"base":"t_address","encoding":"dynamic_array","label":"address[]","numberOfBytes":"32"},"t_bool":{"encoding":"inplace","label":"bool","numberOfBytes":"1"},"t_mapping(t_address,t_bool)":{"encoding":"mapping","key":"t_address","label":"mapping(address => bool)","numberOfBytes":"32","value":"t_bool"},"t_mapping(t_address,t_mapping(t_address,t_bool))":{"encoding":"mapping","key":"t_address","label":"mapping(address => mapping(address => bool))","numberOfBytes":"32","value":"t_mapping(t_address,t_bool)"},"t_mapping(t_address,t_mapping(t_address,t_mapping(t_address,t_bool)))":{"encoding":"mapping","key":"t_address","label":"mapping(address => mapping(address => mapping(address => bool)))","numberOfBytes":"32","value":"t_mapping(t_address,t_mapping(t_address,t_bool))"},"t_mapping(t_address,t_struct(Organiser)222_storage)":{"encoding":"mapping","key":"t_address","label":"mapping(address => struct AuctionFactory.Organiser)","numberOfBytes":"32","value":"t_struct(Organiser)222_storage"},"t_struct(Organiser)222_storage":{"encoding":"inplace","label":"struct AuctionFactory.Organiser","members":[{"astId":217,"contract":"AuctionFactory.sol:AuctionFactory","label":"active","offset":0,"slot":"0","type":"t_bool"},{"astId":219,"contract":"AuctionFactory.sol:AuctionFactory","label":"ratingSum","offset":0,"slot":"1","type":"t_uint256"},{"astId":221,"contract":"AuctionFactory.sol:AuctionFactory","label":"numberOfRates","offset":0,"slot":"2","type":"t_uint256"}],"numberOfBytes":"96"},"t_uint256":{"encoding":"inplace","label":"uint256","numberOfBytes":"32"}}},"userdoc":{"kind":"user","methods":{},"version":1}}